:020000040800F2
:1000000000000520618C0008ED2C0008EF2C000892
:10001000F12C0008F32C0008F52C0008000000006B
:10002000000000000000000000000000F72C0008A5
:10003000F92C000800000000FB2C0008FD2C000833
:10004000B18C0008B18C0008B18C0008B18C00089C
:10005000B18C0008B18C0008B18C0008B18C00088C
:10006000B18C0008B18C0008B18C0008B18C00087C
:10007000B18C0008B18C0008052D0008152D000872
:10008000B18C0008B18C0008B18C0008B18C00085C
:10009000B18C0008B18C0008B18C0008B18C00084C
:1000A000B18C0008B18C0008B18C0008B18C00083C
:1000B000B18C0008B18C0008B18C0008B18C00082C
:1000C000B18C0008B18C0008B18C0008B18C00081C
:1000D000B18C0008B18C0008B18C0008B18C00080C
:1000E000B18C0008B18C0008B18C0008B18C0008FC
:1000F000B18C0008B18C0008B18C0008B18C0008EC
:10010000B18C0008B18C0008B18C0008B18C0008DB
:10011000B18C0008B18C0008252D0008B18C0008B6
:10012000412D0008512D0008612D0008B18C0008F8
:10013000B18C0008B18C0008B18C0008B18C0008AB
:10014000B18C0008B18C0008B18C0008B18C00089B
:10015000B18C0008B18C0008B18C0008B18C00088B
:10016000B18C0008B18C0008B18C0008B18C00087B
:10017000B18C0008B18C00080000000000000000F5
:10018000B18C0008B18C0008B18C0008B18C00085B
:10019000B18C0008B18C000800000000B18C000890
:1001A000B18C0008B18C00080000000000000000C5
:1001B000B18C00080000000000000000B18C0008B5
:1001C000B18C0008B18C0008B18C0008B18C00081B
:0801D000B18C0008B18C00089D
:1001E00010B5054C237833B9044B13B10448AFF371
:1001F00000800123237010BD0802002000000000D1
:10020000B4DD000808B5034B1BB103490348AFF345
:10021000008008BD000000000C020020B4DD0008D2
:10022000034613F8012B002AFBD1181A0138704736
:1002300001F0FF01102A2BDB10F0070F08D010F897
:10024000013B013A8B422DD010F0070F42B3F6D19B
:10025000F0B441EA012141EA014122F007047FF0B4
:1002600000070023F0E80256083C85EA010586EA0B
:10027000010685FA47F5A3FA87F586FA47F6A5FA47
:1002800087F68EB9EED1F0BC01F0FF0102F0070253
:1002900032B110F8013B013A83EA010313B1F8D1FE
:1002A0000020704701387047002D06BF35460338DF
:1002B000073815F0010F07D1013015F4807F02BF18
:1002C000013015F4C03F0130F0BC0138704700BF69
:1002D00081F0004102E000BF83F0004330B54FEAF7
:1002E00041044FEA430594EA050F08BF90EA020F64
:1002F0001FBF54EA000C55EA020C7FEA645C7FEAF7
:10030000655C00F0E2804FEA5454D4EB5555B8BF19
:100310006D420CDD2C4480EA020281EA030382EA8A
:10032000000083EA010180EA020281EA0303362D1C
:1003300088BF30BD11F0004F4FEA01314FF4801CEF
:100340004CEA113102D0404261EB410113F0004F01
:100350004FEA03334CEA133302D0524263EB4303B8
:1003600094EA050F00F0A780A4F10104D5F1200E56
:100370000DDB02FA0EFC22FA05F2801841F10001B1
:1003800003FA0EF2801843FA05F359410EE0A5F185
:1003900020050EF1200E012A03FA0EFC28BF4CF0B6
:1003A000020C43FA05F3C01851EBE37101F000456C
:1003B00007D54FF0000EDCF1000C7EEB00006EEB79
:1003C0000101B1F5801F1BD3B1F5001F0CD3490803
:1003D0005FEA30004FEA3C0C04F101044FEA44525A
:1003E00012F5800F80F09A80BCF1004F08BF5FEAE1
:1003F000500C50F1000041EB045141EA050130BDC1
:100400005FEA4C0C404141EB0101013C28BFB1F5D2
:10041000801FE9D291F0000F04BF01460020B1FA1D
:1004200081F308BF2033A3F10B03B3F120020CDAF0
:100430000C3208DD02F1140CC2F10C0201FA0CF0CE
:1004400021FA02F10CE002F11402D8BFC2F1200C33
:1004500001FA02F120FA0CFCDCBF41EA0C019040E9
:10046000E41AA2BF01EB0451294330BD6FEA040432
:100470001F3C1CDA0C340EDC04F11404C4F120021D
:1004800020FA04F001FA02F340EA030021FA04F32F
:1004900045EA030130BDC4F10C04C4F1200220FA86
:1004A00002F001FA04F340EA0300294630BD21FAC4
:1004B00004F0294630BD94F0000F83F4801306BF8A
:1004C00081F480110134013D4EE77FEA645C18BF7E
:1004D0007FEA655C29D094EA050F08BF90EA020F15
:1004E00005D054EA000C04BF1946104630BD91EA0D
:1004F000030F1EBF0021002030BD5FEA545C05D110
:100500004000494128BF41F0004130BD14F580044E
:100510003CBF01F5801130BD01F0004545F0FE41C2
:1005200041F470014FF0000030BD7FEA645C1ABFF7
:10053000194610467FEA655C1CBF0B46024650EA2E
:10054000013406BF52EA033591EA030F41F400215A
:1005500030BD00BF90F0000F04BF0021704730B5E0
:100560004FF4806404F132044FF000054FF00001B5
:1005700050E700BF90F0000F04BF0021704730B576
:100580004FF4806404F1320410F0004548BF40424B
:100590004FF000013EE700BF42004FEAE2014FEAA0
:1005A00031014FEA02701FBF12F07F4393F07F4F7B
:1005B00081F06051704732F07F4208BF704793F07E
:1005C0007F4F04BF41F40021704730B54FF4607491
:1005D00001F0004521F000411CE700BF50EA010294
:1005E00008BF704730B54FF000050AE050EA01023D
:1005F00008BF704730B511F0004502D5404261EBAD
:1006000041014FF4806404F132045FEA915C3FF4ED
:10061000D8AE4FF003025FEADC0C18BF03325FEA8A
:10062000DC0C18BF033202EBDC02C2F1200300FA3B
:1006300003FC20FA02F001FA03FE40EA0E0021FA60
:1006400002F11444BDE600BF70B54FF0FF0C4CF44E
:10065000E06C1CEA11541DBF1CEA135594EA0C0F00
:1006600095EA0C0F00F0DEF82C4481EA030621EA3B
:100670004C5123EA4C5350EA013518BF52EA033576
:1006800041F4801143F4801338D0A0FB02CE4FF028
:100690000005E1FB02E506F00042E0FB03E54FF058
:1006A0000006E1FB03569CF0000F18BF4EF0010E50
:1006B000A4F1FF04B6F5007F64F5407404D25FEA4C
:1006C0004E0E6D4146EB060642EAC62141EA5551FF
:1006D0004FEAC52040EA5E504FEACE2EB4F1FD0C41
:1006E00088BFBCF5E06F1ED8BEF1004F08BF5FEABF
:1006F000500E50F1000041EB045170BD06F0004671
:1007000046EA010140EA020081EA0301B4EB5C041D
:10071000C2BFD4EB0C0541EA045170BD41F4801115
:100720004FF0000E013C00F3AB8014F1360FDEBF3A
:10073000002001F0004170BDC4F10004203C35DA16
:100740000C341BDC04F11404C4F1200500FA05F399
:1007500020FA04F001FA05F240EA020001F000423A
:1007600021F0004110EBD37021FA04F642EB0601B0
:100770005EEA430E08BF20EAD37070BDC4F10C04DA
:10078000C4F1200500FA04F320FA05F001FA04F29E
:1007900040EA020001F0004110EBD37041F100018A
:1007A0005EEA430E08BF20EAD37070BDC4F1200595
:1007B00000FA05F24EEA020E20FA04F301FA05F2FD
:1007C00043EA020321FA04F001F0004121FA04F2A5
:1007D00020EA020000EBD3705EEA430E08BF20EA75
:1007E000D37070BD94F0000F0FD101F000464000AF
:1007F00041EB010111F4801F08BF013CF7D041EA31
:10080000060195F0000F18BF704703F00046520034
:1008100043EB030313F4801F08BF013DF7D043EA05
:100820000603704794EA0C0F0CEA135518BF95EABB
:100830000C0F0CD050EA410618BF52EA4306D1D142
:1008400081EA030101F000414FF0000070BD50EA61
:10085000410606BF1046194652EA430619D094EAEB
:100860000C0F02D150EA013613D195EA0C0F05D1D5
:1008700052EA03361CBF104619460AD181EA030129
:1008800001F0004141F0FE4141F470014FF00000E1
:1008900070BD41F0FE4141F4780170BD70B54FF07C
:1008A000FF0C4CF4E06C1CEA11541DBF1CEA1355FC
:1008B00094EA0C0F95EA0C0F00F0A7F8A4EB0504DE
:1008C00081EA030E52EA03354FEA013100F08880D5
:1008D0004FEA03334FF0805545EA131343EA12639E
:1008E0004FEA022245EA111545EA10654FEA002653
:1008F0000EF000419D4208BF964244F1FD0404F50C
:10090000407402D25B084FEA3202B61A65EB030567
:100910005B084FEA32024FF480104FF4002CB6EB24
:10092000020E75EB030E22BFB61A754640EA0C00A4
:100930005B084FEA3202B6EB020E75EB030E22BFE4
:10094000B61A754640EA5C005B084FEA3202B6EB25
:10095000020E75EB030E22BFB61A754640EA9C00E4
:100960005B084FEA3202B6EB020E75EB030E22BFB4
:10097000B61A754640EADC0055EA060E18D04FEA72
:10098000051545EA16754FEA06164FEAC30343EA12
:1009900052734FEAC2025FEA1C1CC0D111F4801FDF
:1009A0000BD141EA00014FF000004FF0004CB6E7D8
:1009B00011F4801F04BF01430020B4F1FD0C88BF77
:1009C000BCF5E06F3FF6AFAEB5EB030C04BFB6EB82
:1009D000020C5FEA500C50F1000041EB045170BD75
:1009E0000EF0004E4EEA113114EB5C04C2BFD4EBA2
:1009F0000C0541EA045170BD41F480114FF0000E26
:100A0000013C90E645EA060E8DE60CEA135594EAA1
:100A10000C0F08BF95EA0C0F3FF43BAF94EA0C0FA4
:100A20000AD150EA01347FF434AF95EA0C0F7FF419
:100A300025AF104619462CE795EA0C0F06D152EA6D
:100A400003353FF4FDAE1046194622E750EA410651
:100A500018BF52EA43067FF4C5AE50EA41047FF462
:100A60000DAF52EA43057FF4EBAE12E74FF0FF3CC7
:100A700006E000BF4FF0010C02E000BF4FF0010C98
:100A80004DF804CD4FEA410C7FEA6C5C4FEA430C11
:100A900018BF7FEA6C5C1BD001B050EA410C0CBF60
:100AA00052EA430C91EA030F02BF90EA020F0020C2
:100AB000704710F1000F91EA030F58BF994208BF29
:100AC00090422CBFD8176FEAE37040F001007047E6
:100AD0004FEA410C7FEA6C5C02D150EA013C07D13D
:100AE0004FEA430C7FEA6C5CD6D152EA033CD3D088
:100AF0005DF8040B704700BF8446104662468C4682
:100B00001946634600E000BF01B5FFF7B7FF0028B4
:100B100048BF10F1000F01BD4DF808EDFFF7F4FFDD
:100B20000CBF012000205DF808FB00BF4DF808ED68
:100B3000FFF7EAFF34BF012000205DF808FB00BF8B
:100B40004DF808EDFFF7E0FF94BF012000205DF8AD
:100B500008FB00BF4DF808EDFFF7CEFF94BF012062
:100B600000205DF808FB00BF4DF808EDFFF7C4FF5B
:100B700034BF012000205DF808FB00BF4FEA410CA4
:100B80007FEA6C5C02D150EA013C0AD14FEA430C87
:100B90007FEA6C5C02D152EA033C02D14FF00000C4
:100BA00070474FF0010070474FEA410212F5001202
:100BB00015D211D56FF47873B3EB625212D94FEAA4
:100BC000C12343F0004343EA505311F0004F23FA8E
:100BD00002F018BF404270474FF00000704750EAE3
:100BE000013005D111F0004008BF6FF000407047A0
:100BF0004FF00000704700BF4A0011D212F50012FA
:100C000011D20DD56FF47873B3EB62520ED44FEA64
:100C1000C12343F0004343EA505323FA02F07047E4
:100C20004FF00000704750EA013002D14FF0FF3022
:100C300070474FF0000070474FEA4102B2F1E043C5
:100C400024BFB3F5001CDCF1FE5C0DD901F0004CB3
:100C50004FEAC0024CEA5070B2F1004F40EB830003
:100C600008BF20F00100704711F0804F21D113F12F
:100C70003872BCBF01F00040704741F480114FEA68
:100C80005252C2F11802C2F1200C10FA0CF320FAF1
:100C900002F018BF40F001004FEAC1234FEAD3230E
:100CA00003FA0CFC40EA0C0023FA02F34FEA430378
:100CB000CCE77FEA625307D150EA01331EBF4FF001
:100CC000FE4040F44000704701F0004040F0FE401C
:100CD00040F40000704700BF80F0004002E000BF19
:100CE00081F0004142001FBF5FEA410392EA030F17
:100CF0007FEA226C7FEA236C6AD04FEA1262D2EB61
:100D00001363C1BFD218414048404140B8BF5B4265
:100D1000192B88BF704710F0004F40F4000020F0FE
:100D20007F4018BF404211F0004F41F4000121F014
:100D30007F4118BF494292EA030F3FD0A2F101025E
:100D400041FA03FC10EB0C00C3F1200301FA03F19C
:100D500000F0004302D5494260EB4000B0F5000FBF
:100D600013D3B0F1807F06D340084FEA310102F17E
:100D70000102FE2A51D2B1F1004F40EBC25008BF30
:100D800020F0010040EA03007047490040EB0000FA
:100D9000013A28BFB0F5000FEDD2B0FA80FCACF1FB
:100DA000080CB2EB0C0200FA0CF0AABF00EBC25028
:100DB00052421843BCBFD0401843704792F0000F16
:100DC00081F4000106BF80F400000132013BB5E769
:100DD0004FEA41037FEA226C18BF7FEA236C21D0DF
:100DE00092EA030F04D092F0000F08BF0846704744
:100DF00090EA010F1CBF0020704712F07F4F04D112
:100E0000400028BF40F00040704712F100723CBF24
:100E100000F50000704700F0004343F0FE4040F44E
:100E2000000070477FEA226216BF08467FEA23630C
:100E30000146420206BF5FEA412390EA010F40F4F7
:100E4000800070474FF0000304E000BF10F0004343
:100E500048BF40425FEA000C08BF704743F096432A
:100E600001464FF000001CE050EA010208BF704745
:100E70004FF000030AE000BF50EA010208BF7047CC
:100E800011F0004302D5404261EB41015FEA010CE1
:100E900002BF84460146002043F0B64308BFA3F1D9
:100EA0008053A3F50003BCFA8CF2083AA3EBC253BB
:100EB00010DB01FA02FC634400FA02FCC2F12002DA
:100EC000BCF1004F20FA02F243EB020008BF20F011
:100ED0000100704702F1200201FA02FCC2F1200277
:100EE00050EA4C0021FA02F243EB020008BF20EA6C
:100EF000DC70704753B94AB9002908BF00281CBFED
:100F00004FF0FF314FF0FF3000F0A4B9ADF1080C05
:100F10006DE904CE00F03CF8DDF804E0DDE90223E1
:100F200004B0704738B50022002304460D46FFF791
:100F3000FDFD28B920462946BDE8384000F00AB832
:100F4000204605F1004100F005F8404261EB410107
:100F500038BD00BFD0B50C4B002206460F46FFF748
:100F600073FBFFF749FE0446FFF7F4FA074B002234
:100F7000FFF76AFB02460B4630463946FFF7ACF9ED
:100F8000FFF73AFE2146D0BD0000F03D0000F041E1
:100F90002DE9F047089D04468C46002B40F08380E5
:100FA0008A42174647D9B2FA82F242B1C2F1200012
:100FB00024FA00F09140974040EA010C94404FEA37
:100FC0001748230CBCFBF8F61FFA87FE08FB16C176
:100FD00043EA014306FB0EF1994209D9FB1806F1D9
:100FE000FF3080F01981994240F21681023E3B4465
:100FF0005B1AA4B2B3FBF8F008FB103344EA0344D5
:1010000000FB0EFEA64509D93C1900F1FF3380F024
:101010000581A64540F2028102383C4440EA064080
:10102000A4EB0E0400261DB1D4400023C5E9004303
:101030003146BDE8F08702B9FFDEB2FA82F2002A3B
:1010400050D1CB1B4FEA174E1FFA87F80126B3FB8E
:10105000FEFC210C0EFB1C3341EA034108FB0CF3A0
:101060008B4207D979180CF1FF3002D28B4200F283
:10107000E9808446C91AA3B2B1FBFEF00EFB101141
:1010800043EA014408FB00F8A04507D93C1900F1E8
:10109000FF3302D2A04500F2D9801846A4EB080421
:1010A00040EA0C40BFE78B4209D9002D00F0B18027
:1010B0000026C5E9000130463146BDE8F087B3FAA5
:1010C00083F6002E4AD18B4202D3824200F2B880CE
:1010D000841A61EB030101208C46002DA8D0C5E9DC
:1010E000004CA5E7C2F1200320FA03F6974001FA6D
:1010F00002F04FEA174ED9403043030CB1FBFEF625
:101100001FFA87F80EFB161143EA014306FB08F1AC
:10111000994204FA02F409D9FB1806F1FF3C80F069
:101120008D80994240F28A80023E3B445B1A81B234
:10113000B3FBFEF00EFB103341EA034100FB08F362
:101140008B4207D9791800F1FF3C73D28B4271D9D9
:1011500002383944CB1A40EA064678E7C6F1200C3B
:1011600003FA06F422FA0CF31C4320FA0CF701FAF6
:1011700006F34FEA144E21FA0CF11F433B0CB1FB6E
:10118000FEF91FFA84F80EFB191143EA014109FB2D
:1011900008FA8A4502FA06F200FA06F308D961183D
:1011A00009F1FF3048D28A4546D9A9F10209214404
:1011B000A1EB0A01BFB2B1FBFEF00EFB101147EA32
:1011C000014700FB08F8B84507D9E71900F1FF31DE
:1011D0002ED2B8452CD90238274440EA0940A7EB63
:1011E0000807A0FB02894F45C64649461AD317D0C7
:1011F0005DB1B3EB0E0267EB010707FA0CFCF2409E
:101200004CEA0202F740C5E9002700263146BDE856
:10121000F0872E4628460BE70646E9E61846FDE627
:101220004345E5D2B8EB020E69EB04010138DFE774
:101230000846D2E760468DE78146B9E7664675E71E
:1012400030464AE7ACF1020C394413E702383C441B
:1012500024E700BF704700BF30B595B034220021AD
:1012600007A807F02CFF002402940394049405942B
:1012700006940094194B1A6C42F080521A641B6C4D
:1012800003F080530093009B0194154B1A6842F4BD
:1012900040421A601B6803F440430193019B0225FE
:1012A000079501230A9310230B930D950E940F932A
:1012B000C023109311951295139507A806F002FF0D
:1012C0000F230293039504944FF4805305930694DF
:1012D000032102A806F022FE15B030BD00380240FE
:1012E0000070004030B585B007F07AFCFFF7B4FF1E
:1012F00000F0C4FF01F0FAF801F0A2FC01F02CFCB0
:1013000001F038F901F01AF801F062FA01F092FAEE
:1013100001F0C4FA01F0C8F904F05CFB01F07CFDB7
:1013200001F0F0FE01F0CAFD02F024F871E004F0D3
:1013300017F903F0DDFE02F0F3F8002004F0C4FB1F
:10134000002004F05DFB002461E004F05FF8002061
:1013500000F0BCFE012004F083FC9FED420A04F083
:10136000A9FC40F6B83007F067FCE2E7002000F087
:10137000ADFE002004F06EFC012004F071FC9FED36
:101380003A0A04F0A1FC42F2107007F055FCD0E7D5
:1013900000F016FCCDE741F2883007F04DFCC8E7BD
:1013A000002000F093FE012004F05AFC00F08AFDBA
:1013B000BFE704F0ADF9BCE72C4D2D4C2B4622467F
:1013C0000521084602F092F90023029309230193B4
:1013D000284B009305231A462946204603F066FD54
:1013E000A7E7254D01224FF46451284607F014F970
:1013F0004FF42F7007F020FC00224FF46451284670
:1014000007F00AF94FF4967007F016FC0134022C2D
:10141000E7DD03F0BFFF03F071FE0F2889D801A3B9
:1014200053F820F02F1300084B1300086D13000829
:101430009113000897130008A11300083313000844
:10144000B3130008331300083313000833130008E4
:101450003313000833130008331300083313000854
:10146000B9130008EC51B83DD053FB4124020020D1
:101470002406002000000020000002407047000009
:1014800008B501F001FD034A1388C31A108018B291
:1014900008BD00BF1400002008B501F0FBFC034AA2
:1014A0001388C31A108018B208BD00BF12000020B4
:1014B00008B52DED028BFFF7E3FF07EE900AF8EE7B
:1014C000E77A9FED2B7A67EE877ADFED2A8A87EE3F
:1014D000A88AFFF7E1FF07EE900AF8EEE77A9FEDA2
:1014E000267A67EE877A87EEA87ADFED246A68EEBF
:1014F000267A234BC3ED007A27EE267A214B83ED23
:10150000007A214BD3ED006AF4EEE67AF1EE10FAA0
:1015100017DDC3ED007A1D4BD3ED006AB4EEE67A19
:10152000F1EE10FA18DD83ED007A77EE877AB6EEE9
:10153000007A67EE877A164BC3ED007ABDEC028B1A
:1015400008BD144BD3ED006AF4EEE67AF1EE10FA22
:10155000E1D5C3ED007ADEE70F4BD3ED006AB4EEC0
:10156000E67AF1EE10FAE0D583ED007ADDE700BF10
:101570007B59C4C500C07F447B59C4452F50D23B22
:101580009C0A0020900A0020A00A0020940A002053
:10159000800A0020A40A0020980A0020014B93ED45
:1015A000000A70479C0A0020014B93ED000A704727
:1015B000A00A0020014B93ED000A7047A40A002006
:1015C000014B93ED000A7047940A00200023044A5F
:1015D0001360044A1360044A1360044A136070479E
:1015E000A40A0020A00A0020980A0020940A0020E3
:1015F000014B93ED000A7047800A002000000000B4
:1016000038B52DED028B3A4B1A883A4BA3FB0213E7
:10161000DB0803EB8303A2EB43039CB2FFF7E8FF75
:10162000354A02EBC40484ED000A01F0EBFD84EDC1
:10163000010ADFED327AB0EE677A0023092B0DD86C
:101640002D4A02EBC302D2ED006A37EE267AD2EDC4
:10165000016A77EEA67A01339BB2EFE7F2EE046AF5
:10166000C7EE268A87EEA68AB5EEC08AF1EE10FA9A
:1016700030D4F6EE007AB4EEE78AF1EE10FA4CBF01
:10168000012300230BB19FED1D8A18EE100AFEF70F
:1016900083FF15A3D3E90023FEF7D6FF0022184BE2
:1016A000FEF7D2FF04460D4618EE900AFEF774FFCF
:1016B00022462B46FEF712FEFFF7BEFA114B1860CA
:1016C000114B83ED008A0A4A138801331380BDEC65
:1016D000028B38BDFEEE007AB4EEE78AF1EE10FA26
:1016E000CCBF01230023CDE77B14AE47E17A843FD2
:1016F000240A0020CDCCCCCC280A00200000000019
:101700000000E03F840A0020780A0020014B93ED9E
:10171000000A7047840A0020014B93ED000A7047CD
:10172000780A00200000000070B5FFF7EFFF10EE10
:10173000100AFEF731FF0BA3D3E90023FEF784FF65
:1017400004460D46064E3068FEF726FF22462B461D
:10175000FEF7C4FDFFF770FA306070BDAFF3008094
:101760007C0A0020FCA9F1D24D62503F014B93ED61
:10177000000A70477C0A0020014B83ED000A704785
:101780007C0A002008B501F059FD024B83ED000AE8
:1017900008BD00BF8C0A0020014B93ED000A704782
:1017A0008C0A00200000000070B50D4B1868FEF791
:1017B000F3FE09A3D3E90023FEF746FF04460D46D6
:1017C000084E3068FEF7E8FE22462B46FEF786FDFF
:1017D000FFF732FA306070BDFCA9F1D24D62503F84
:1017E0008C0A0020880A002008B5FFF7CBFFFFF71E
:1017F0009BFFFFF7D9FF08BD014B93ED000A70472F
:10180000880A0020014B83ED000A7047880A0020F7
:10181000014B93ED000A7047B40A0020014B93ED91
:10182000000A7047B00A002070B52DED048B04F05B
:101830001DFAB0EE409AFFF769FF39EE409A04F0C6
:101840001BFAF0EE408AFFF7A7FF78EEC08A19EE88
:10185000100AFEF7A1FE2AA3D3E90023FEF7F4FE47
:1018600004460D46204E3068FEF796FE22462B4673
:10187000FEF734FDFFF7E0F908EE100A306018EECD
:10188000900AFEF789FE16A3D3E90023FEF7DCFEDB
:1018900004460D46154E3068FEF77EFE22462B4666
:1018A000FEF71CFDFFF7C8F907EE900A30609FEDC8
:1018B000100A29EE009A38EE098A9FED0E0A68EEAA
:1018C000808A77EEA88A78EE287A0B4BC3ED007AEF
:1018D00038EE688A094B83ED008ABDEC048B70BD3D
:1018E000FCA9F1D23DC9823FA80A0020AC0A002021
:1018F000D1222B40AD2FB23EB40A0020B00A002006
:101900008B6CE7FBB935A43F0023024A1360024AFF
:1019100013607047A80A0020AC0A002000000000F5
:101920002DE9F04F2DED088B85B0002001F060FE11
:1019300057EC106B032001F05BFE55EC104B7DA3C0
:10194000D3E9002330463946FEF7C6FC06460F466B
:101950007AA3D3E9002320462946FEF7BDFC0446BE
:101960000D4602460B4630463946FEF7B7FC804628
:10197000894632463B4620462946FEF7ADFC71A318
:10198000D3E90023FEF78AFF06460F466FA3D3E98B
:10199000002340464946FEF757FE614CD4E9002338
:1019A000FEF79CFC41EC1B0BC4E900014EA3D3E9FC
:1019B000002330463946FEF747FE5A4CD4E900234F
:1019C000FEF78CFC41EC1A0BC4E9000148A3D3E9F3
:1019D000002340464946FEF737FE04460D4646A31F
:1019E000D3E9002330463946FEF72EFECDE9020149
:1019F000DFF860B1DBE90023CDE9008940464946C4
:101A0000FEF76AFC3EA3D3E90023FEF71DFEDFF8D4
:101A10004891D9E90023FEF761FC3BA3D3E90023F9
:101A2000FEF73CFF41EC190BDFF830A1DAE90023A7
:101A300030463946FEF750FC35A3D3E90023FEF7C4
:101A400003FEDFF81C81D8E90023FEF747FC32A330
:101A5000D3E90023FEF722FF41EC180B22462B4668
:101A600051EC1B0BFEF73AFC53EC192BFEF736FC3E
:101A700004460D46DDE9022351EC1A0BFEF72EFC5D
:101A800053EC182BFEF72AFCCDE9020102460B4667
:101A900020462946FEF722FC0022234BFEF7D4FD08
:101AA000FFF7CAF8214B1860DDE9022320462946DA
:101AB000FEF712FC00221C4BFEF7C6FDFFF7BCF838
:101AC0001B4B18609DED007B8BED007BCAE9006726
:101AD00089ED009B88ED008B05B0BDEC088BBDE85F
:101AE000F08F00BFAFF3008060E5D0229BA5643F7C
:101AF00000000000631A5F40000000E08A9E194069
:101B000000000060A2AB5340C1CAA1852062F03F33
:101B100000000000236C22407368916D81B6F03F95
:101B2000C80A0020E00A00200000E03FF40A00207C
:101B3000F00A002000000060BC74833F000000E059
:101B40004F8D873F000000E0BED5A23F08AC1C5A75
:101B5000D4DF9A3FD00A0020C00A0020E80A002003
:101B6000D80A0020014B93ED000A7047F40A0020C8
:101B7000014B93ED000A7047F00A00200022002379
:101B80000949C1E900230949C1E900230849C1E91C
:101B900000230849C1E900230749C1E90023074997
:101BA000C1E90023704700BFC80A0020E00A0020F6
:101BB000D00A0020E80A0020C00A0020D80A00202D
:101BC000F8B5012000F082FA454B00221A8022E08D
:101BD000032001F00DFD53EC102B3BA1D1E90001D6
:101BE000FEF77AFB064601F1004730E0002001F0E5
:101BF000FFFC53EC102B36A1D1E90001FEF76CFB82
:101C0000044601F100453EE0354B00221A80344B7A
:101C10001B88632B4AD8032001F0EAFC53EC102BFD
:101C200029A1D1E90001FEF757FB00220023FEF7AE
:101C30007DFF0028CCD1032001F0DAFC53EC102BFF
:101C400021A1D1E90001FEF747FB06460F4600201F
:101C500001F0CEFC53EC102B1DA1D1E90001FEF7E1
:101C60003BFB00220023FEF761FF0028BED10020CD
:101C700001F0BEFC53EC102B15A1D1E90001FEF7D9
:101C80002BFB04460D4622462B4630463946FEF7CE
:101C90006BFF08B134463D460FA3D3E9002320462D
:101CA0002946FEF761FF0028B1D0ADE703F0F0FF51
:101CB000FFF762FD03F0F8FFFFF7A4FD002000F03E
:101CC00005FAF8BDAFF30080000000E04F8D873FBC
:101CD00000000060BC74833F613255302AA9333F55
:101CE000B80A0020054A138801339BB21380642B85
:101CF00002D9134664221A80704700BFB80A002038
:101D000008B5FFF70DFEFFF7EDFF08BD08B52DED97
:101D1000028B03F0B7FFB0EE408A03F0B9FF38EE54
:101D2000408AB5EEC08AF1EE10FA13D403F0AAFF90
:101D3000B0EE408A03F0ACFF38EE408ADFED0E7A59
:101D4000B4EEE78AF1EE10FA4CBF01200020BDECA2
:101D5000028B08BD03F096FFB0EE408A03F098FFB7
:101D600038EE408ADFED057AB4EEE78AF1EE10FA3C
:101D7000CCBF01200020EAE717B7513917B751B996
:101D800008B52DED028B03F089FFB0EE408A03F019
:101D90008BFF38EE408AB5EEC08AF1EE10FA13D40C
:101DA00003F07CFFB0EE408A03F07EFF38EE408AFD
:101DB000DFED0E7AB4EEE78AF1EE10FA4CBF0120A7
:101DC0000020BDEC028B08BD03F068FFB0EE408A36
:101DD00003F06AFF38EE408ADFED057AB4EEE78A59
:101DE000F1EE10FACCBF01200020EAE70AD7A33BAE
:101DF0000AD7A3BB08B5002003F026FF002003F09C
:101E00002FFF9FED040A03F055FFFFF77FFF002827
:101E1000FBD008BD22727A3C08B5002003F014FF05
:101E2000002003F01DFF9FED040A03F043FFFFF7BE
:101E30006DFF0028FBD008BDEC51383D08B50020EF
:101E400003F002FF012003F00BFF9FED040A03F0F3
:101E500031FFFFF75BFF0028FBD008BDEC51383D98
:101E600008B5002003F0F0FE002003F0F9FE9FED1E
:101E7000040A03F01FFFFFF749FF0028FBD008BD4D
:101E8000EC51B83D08B5012003F0E4FE9FED040AD3
:101E900003F01AFFFFF774FF0028FBD008BD00BF56
:101EA000DA0FC9BF08B5002003F0D4FE9FED040A85
:101EB00003F00AFFFFF764FF0028FBD008BD00BF56
:101EC000DA0FC93F08B5002003F0C4FE9FED040AF5
:101ED00003F0FAFEFFF754FF0028FBD008BD00BF57
:101EE000DA0F4940014B00221A707047FB0A0020AC
:101EF0000023034A1370034A1370034A1370704798
:101F0000F80A0020FA0A0020F90A0020014B0122F9
:101F10001A707047F80A0020014B01221A707047AE
:101F2000FA0A0020014B01221A707047F90A0020BA
:101F300008B5094B1B784BB1074B1B78012B08D018
:101F4000054B01221A70FFF7D3FF08BDFFF764FFAE
:101F5000F2E7FFF785FFF3E7FB0A002008B5134B14
:101F60001B783BB9124B1B78012B0DD0FFF78AFF72
:101F7000FFF752FF0D4B1B78012B08D00B4B0122B2
:101F80001A70FFF7B5FF08BDFFF71AFEEEE7FFF77F
:101F900055FF074B1B78012B04D0FFF773FFFFF7AA
:101FA0003BFFEBE7FFF70CFEF7E700BFFB0A002063
:101FB000F80A002008B5134B1B783BB9124B1B786D
:101FC000012B0DD0FFF76EFFFFF726FF0D4B1B789F
:101FD000012B08D00B4B01221A70FFF789FF08BDB7
:101FE000FFF7EEFDEEE7FFF729FF074B1B78012B0C
:101FF00004D0FFF757FFFFF70FFFEBE7FFF7E0FD18
:10200000F7E700BFFB0A0020F80A002008B52B4BB9
:102010001B783BB92A4B1B78012B0DD0FFF752FFE1
:10202000FFF7FAFE254B1B78012B20D0234B012212
:102030001A70FFF75DFF08BDFFF7C2FD214B1B784B
:10204000012B06D0204B1B78012B09D0FFF73AFF5C
:10205000E6E7FFF717FFFFF7B3FDFFF713FFDFE733
:10206000FFF720FFFFF7ACFDFFF71CFFD8E7FFF7F6
:10207000E5FE134B1B78012B04D0FFF723FFFFF77E
:10208000CBFED3E7FFF79CFD0E4B1B78012B06D050
:102090000D4B1B78012B09D0FFF714FFEFE7FFF77B
:1020A000F1FEFFF78DFDFFF7EDFEE8E7FFF7FAFE23
:1020B000FFF786FDFFF7F6FEE1E700BFFB0A002011
:1020C000F80A0020FA0A0020F90A0020014B1870D3
:1020D000704700BFFC0A002008B5FFF799FB044BCE
:1020E00083ED000AFFF79AFB024B83ED000A08BD5F
:1020F000080B0020040B002008B5FFF733FD044B4C
:1021000083ED000AFFF734FD024B83ED000A08BDA2
:10211000080B0020040B00200023024A1360024A2F
:1021200013607047080B0020040B00200023024AB4
:102130001360024A13607047080B0020040B002054
:1021400008B5094B1B78012B08D0022B09D013B11D
:10215000FFF7ECFF01E0FFF7BFFF08BDFFF7CCFF83
:10216000FBE7FFF7D9FFF8E7FC0A002008B5064BAC
:102170001B7813B1012B03D008BDFFF7FFFCFBE771
:10218000FFF7C2FBF8E700BFFC0A002008B52DED01
:10219000028B114B93ED008A00F02CFEC8EE007A02
:1021A0009FED0E8A67EE887AFDEEE77A0C4B17EE0C
:1021B000902A1A800B4BD3ED008A00F01BFEC8EE6C
:1021C000807A67EE887AFDEEE77A074B17EE902A61
:1021D0001A80BDEC028B08BD080B002000007A4479
:1021E000000B0020040B0020FE0A00200C4BB3F96A
:1021F0000030002B0BDD2833094A1380094BB3F95B
:102200000030002B07DD2833064A138070472D3B32
:10221000034A1380F2E72D3B024A1380704700BF48
:10222000000B0020FE0A002008B5054BB3F90000A2
:1022300003F0E6FB034BB3F9000003F045FC08BDD7
:10224000FE0A0020000B002008B5FFF779FFFFF71A
:102250008DFFFFF79BFFFFF7C9FFFFF7E5FFFFF7D4
:1022600085FF08BD014BB3F900007047000B00204B
:10227000014BB3F900007047FE0A00202DE9F0433E
:1022800089B000240394049405940694079401945F
:10229000274B1A6B42F001021A631A6B02F001021B
:1022A0000192019A02941A6B42F002021A631B6BAC
:1022B00003F002030293029B1E4D224643F6F011E7
:1022C000284606F0A9F9DFF8708022464FF48051C5
:1022D000404606F0A1F9F0230393012704970594E3
:1022E0000326069603A9284606F0B6F84FF0020921
:1022F000CDF80C900494059403A9404606F0ACF880
:102300004FF48053039304970594069603A940461F
:1023100006F0A2F84FF4645303930497CDF8149099
:10232000069603A9284606F097F809B0BDE8F083A1
:1023300000380240000002400004024000B585B0B1
:10234000002300930193029303933048304A0260C4
:102350004FF480324260836001220261037680F88C
:1023600020304FF04051C1624FF000718162C36074
:102370000521C16180F83020436103F015FF00287A
:1023800031D108230093012301930323029369466B
:102390001E4804F021F848BB002300930223019358
:1023A00069461A4804F018F818BB01230093032368
:1023B00001936946154804F00FF8E8B90223009329
:1023C000042301936946114804F006F8B8B90323C1
:1023D00000930523019369460C4803F0FDFF88B97B
:1023E00005B05DF804FBFFF749F8CAE7FFF746F8C8
:1023F000D2E7FFF743F8D8E7FFF740F8DEE7FFF74B
:102400003DF8E4E7FFF73AF8EAE700BF1CBB01201C
:102410000020014070B588B0002303930493059316
:1024200006930793026803F1804303F590339A42C1
:1024300001D008B070BD04460025009503F58C332B
:102440005A6C42F480725A645A6C02F480720092A0
:10245000009A01951A6B42F001021A631A6B02F09E
:1024600001020192019A02951A6B42F002021A636C
:102470001B6B03F002030293029B0F2303930326BB
:102480000496059503A9154805F0E6FF012303937B
:102490000496059503A9124805F0DEFF1148124B7A
:1024A000036045608560C5604FF4806303614FF44D
:1024B000006343614FF4005383614FF48073C36141
:1024C0004FF440330362456206F02CF918B9054B0E
:1024D000A3639C63ADE7FEF7D1FFF8E7000002407D
:1024E0000004024064BB01201064024010B582B0B9
:1024F000002400941E4B1A6B42F400121A631A6BEC
:1025000002F400120092009A01941A6B42F48002C5
:102510001A631B6B03F480030193019B224621463F
:102520000E2006F0DFFA0E2006F010FB22462146B0
:102530000F2006F0D7FA0F2006F008FB22462146AE
:10254000382006F0CFFA382006F000FB22460121A1
:10255000392006F0C7FA392006F0F8FA22460121A0
:102560003A2006F0BFFA3A2006F0F0FA02B010BDA9
:102570000038024008B50F480F4B03604FF48273D8
:10258000436000238360C360022202610122426132
:102590004FF4007282612022C2610362436283624F
:1025A0000A23C36204F0AEF800B908BDFEF766FF67
:1025B000FBE700BFC4BB01200038004030B589B044
:1025C0000023039304930593069307930268304B0B
:1025D0009A4201D009B030BD04460025019503F5AB
:1025E00000331A6C42F480421A641A6C02F480427E
:1025F0000192019A02951A6B42F002021A631B6B58
:1026000003F002030293029B4FF4604303930223FF
:1026100004930595032306930523079303A91D48F7
:1026200005F01AFF1C481D4B036045608560C560BE
:102630004FF48063036145618561C5614FF40033E8
:102640000362456206F06EF8D8B9134BE3649C63ED
:102650001348144B03600023436040228260C36030
:102660004FF48062026143618361C3614FF40032C1
:102670000262436206F056F830B9094BA3649C63CA
:10268000A8E7FEF7FBFEE0E7FEF7F8FEF5E700BF80
:1026900000380040000402401CBC01205860024089
:1026A0007CBC01207060024010B596B000241294EA
:1026B0001394149415941094119409940A940B94FF
:1026C0000C940D940E940F942022214601A806F03C
:1026D000F6FC3D483D4B0360446084604FF6FF13B9
:1026E000C36004614461846104F008FE002850D195
:1026F0004FF48053129312A9334804F07CFF002852
:102700004AD1314804F02EFE002848D12E4804F06A
:102710000FFE002846D100231093119310A92A48D8
:1027200005F07EF8002840D16023099301230A9325
:1027300000220B920C920D920E920F9209A9224840
:1027400004F0DFFE002833D141F658330A93042207
:1027500009A91D4804F0D5FE68BB302309934FF446
:10276000B4530A93082209A9174804F09BFE28BB1A
:102770000023019302930393049305934FF40052B3
:102780000692089301A9104805F06DF8C8B916B073
:1027900010BDFEF773FEABE7FEF770FEB1E7FEF784
:1027A0006DFEB3E7FEF76AFEB5E7FEF767FEBBE72F
:1027B000FEF764FEC8E7FEF761FECEE7FEF75EFEB9
:1027C000D6E7FEF75BFEE2E780BE01200000014095
:1027D00000B58DB000230193029315484FF080425D
:1027E0000260436083604FF6FF72C26003618361E1
:1027F0000322039204930122059206930793089300
:1028000009920A930B9303A904F0C6FD50B9002363
:102810000193029301A9064805F002F828B90DB00A
:102820005DF804FBFEF72AFEF1E7FEF727FEF6E768
:10283000D0BE012000B58DB000230193029315484E
:10284000154A0260436083604FF6FF72C260036105
:102850008361032203920493012205920693079356
:10286000089309920A930B9303A904F095FD50B9BC
:1028700000230193029301A9064804F0D1FF28B96F
:102880000DB05DF804FBFEF7F9FDF1E7FEF7F6FD8C
:10289000F6E700BFE4BD01200004004000B583B0AE
:1028A0000023009301930F480F4A02600322426005
:1028B000836045F6BF52C260836104F01FFD50B9CA
:1028C0000023009301936946064804F0A9FF28B944
:1028D00003B05DF804FBFEF7D1FDF1E7FEF7CEFD96
:1028E000F6E700BF40BE01200010004010B584B0E4
:1028F0000368404A934207D03F4A934258D03F4A28
:10290000934262D004B010BD04460023019302F547
:102910009C32516C41F001015164526C02F0010291
:102920000192019A3648374A02604FF04062426095
:1029300040228260C3604FF4806202614FF4006203
:1029400042614FF4005282614FF48072C2614FF4D1
:1029500000320262436205F0E5FE18BB284B636259
:102960009C632948294B03604FF040634360402338
:1029700083600023C3604FF4806202614FF4006201
:1029800042614FF4005282614FF48072C2614FF491
:1029900000320262436205F0C5FE30B91A4BA362F1
:1029A0009C63AFE7FEF76AFDD8E7FEF767FDF5E742
:1029B00000230293164B1A6C42F004021A641B6C3B
:1029C00003F004030293029B9CE700220392104B46
:1029D000196C41F0100119641B6C03F01003039390
:1029E000039B0221362006F07DF8362006F0AEF873
:1029F00088E700BF000001400008004000100040D0
:102A0000DCBC01202864024084BD012040640240F7
:102A10000038024070B58AB00023059306930793EF
:102A2000089309930368B3F1804F04D02F4A93426F
:102A30003AD00AB070BD0024009403F50E331A6C2E
:102A400042F001021A641A6C02F001020092009A2C
:102A500001941A6B42F001021A631A6B02F0010230
:102A60000192019A02941A6B42F002021A631B6BE4
:102A700003F002030293029B4FF4004305930226E6
:102A80000696079408940125099505A9184805F0AC
:102A9000E3FC08230593069607940894099505A975
:102AA000144805F0D9FCC4E700220392124B196CBC
:102AB00041F002011964196C01F0020103910399BC
:102AC0000492196B41F0020119631B6B03F00203BE
:102AD0000493049B302305930223069307920892E4
:102AE000099305A9034805F0B7FCA2E700040040DC
:102AF00000000240000402400038024000B587B0E8
:102B00000023019302930393049305930268104BEF
:102B10009A4202D007B05DF804FB0021009103F552
:102B20000C331A6B42F002021A631B6B03F00203B0
:102B30000093009B4FF4707301930223029303915F
:102B400003220492059301A9024805F085FCE1E700
:102B5000000800400004024000B58FB000230A9333
:102B60000B930C930D930893099301930293039392
:102B700004930593069307932F48304A02604360FD
:102B8000836040F2BF32C2600361836104F0B6FB30
:102B9000002839D14FF480530A930AA9264804F03B
:102BA0002AFD002833D1244804F0DCFB002831D171
:102BB00000230893099308A91F4804F031FE60BB65
:102BC00070230193002202920392059201A91A48F0
:102BD00004F097FC20BB04220DEB0201164804F020
:102BE00090FC00BB082201A9134804F08AFCE8B954
:102BF0000C2201A9104804F084FCD0B90E48FFF75C
:102C00007DFF0FB05DF804FBFEF738FCC2E7FEF76E
:102C100035FCC8E7FEF732FCCAE7FEF72FFCCFE72A
:102C2000FEF72CFCD7E7FEF729FCDBE7FEF726FCD6
:102C3000DEE7FEF723FCE1E73CBD01200008004091
:102C400008B50A480A4B03604FF461334360002320
:102C50008360C36003610C2242618361C36104F03D
:102C6000FBFF00B908BDFEF709FCFBE710BF012020
:102C70000010014000B589B000230393049305932D
:102C800006930793026803F1804303F588339A4261
:102C900002D009B05DF804FB0021019103F59433E3
:102CA0005A6C42F010025A645A6C02F010020192FF
:102CB000019A02911A6B42F001021A631B6B03F036
:102CC00001030293029B4FF4C06303930223049316
:102CD00001230593032306930723079303A90248BF
:102CE00005F0BAFBD5E700BF000002407047FEE7E1
:102CF000FEE7FEE7FEE770477047704708B505F04E
:102D000089FF08BD08B5024805F0C0FD08BD00BF39
:102D10001CBC012008B5024805F0B8FD08BD00BF85
:102D20007CBC012008B5054804F0C7F900F02AFB77
:102D300000F0A6FA00F04AFB08BD00BF40BE01202B
:102D400008B5024805F0A2FD08BD00BF64BB012024
:102D500008B5024805F09AFD08BD00BFDCBC0120A3
:102D600008B5024805F092FD08BD00BF84BD0120F2
:102D700082B0002100910B4B5A6C42F480425A649D
:102D80005A6C02F480420092009A01911A6C42F04F
:102D900080521A641B6C03F080530193019B02B0B4
:102DA000704700BF003802400F49D1F8883043F423
:102DB0007003C1F888300D4B1A6842F001021A60A6
:102DC000002098601A6822F0847222F480321A601F
:102DD000074A5A601A6822F480221A60D8604FF0BD
:102DE00000638B60704700BF00ED00E000380240D8
:102DF0001030002408B500F0E7FB07EE900AF8EE6B
:102E0000E77AB1EE080A67EE807A9FED020A27EEB4
:102E1000800A08BD0000803910B5084C23680021E5
:102E2000986807F017F923680021586807F012F92D
:102E300023680021D86807F00DF910BD2C00002090
:102E400000B583B08DF8070001231A460DF1070184
:102E5000024804F030FF03B05DF804FB10BF01200E
:102E600000B583B0022038B10A2301220DF1070119
:102E7000044804F090FFF6E79DF8070003B05DF802
:102E800004FB00BF10BF01204FF08043586A80B29E
:102E900070470000014B586A80B270470004004040
:102EA000024B47F6FE725A62704700BF00040040B2
:102EB0004FF0804347F6FE725A62704708B53C21D6
:102EC000054804F08BFC3C21044804F087FCFFF724
:102ED000E7FFFFF7EDFF08BDD0BE0120E4BD0120F4
:102EE000084B5B6AA3F5FF437E3B07EE903AF8EE92
:102EF000E77A9FED050A67EE807A9FED040A87EE78
:102F0000800A704700040040DA0FC94000C07F44C7
:102F10004FF080435B6AC3F5FF437E3307EE903A80
:102F2000F8EEE77A9FED040A67EE807A9FED030AD8
:102F300087EE800A704700BFDA0FC94000C07F44A7
:102F400038B504460D4621F0004100221B4BFDF729
:102F5000EDFD90B100221A4B20462946FDF7FAFDFF
:102F600070B10022164B20462946FDF7B7F941EC17
:102F7000100B0AF0C9FB55EC104B2046294638BD12
:102F80000022104B20462946FDF7EEFD40B10022FD
:102F9000002320462946FDF757FB04460D46ECE783
:102FA0000022074B20462946FDF796F941EC100B0D
:102FB0000AF02AFB55EC104BDFE700BF000030435E
:102FC0000000E03F0000E0BF2DE9F84305460F4652
:102FD00016469846D1F8009000244C450EDA35F894
:102FE0001400FDF7B7FA0022174BFDF72DFB174A27
:102FF00002EBC402C2E900010134EEE7D7F8009009
:1030000000254D450ADA114C04EBC50494ED000B84
:103010000AF0FEFB84ED000B0135F2E73D68C8F8CD
:10302000005000240BE0094B03EBC403D3E900017B
:10303000FFF786FFFDF7E0FD26F814000134A542F6
:10304000F1DCBDE8F88300BF0000A03F100B0020BA
:1030500030B585B08DF8071000F07F008DF80F00B7
:103060000E4C00224FF48051204605F0D5FA0C4D4D
:1030700001231A460DF10F01284603F083FB0123BB
:103080001A460DF10701284603F07CFB01224FF49C
:103090008051204605F0C0FA05B030BD0004024062
:1030A000C4BB012030B583B060F07F008DF807000D
:1030B0000F4C00224FF48051204605F0ADFA0D4D23
:1030C00001231A460DF10701284603F05BFB01239B
:1030D0001A460DF10601284603F042FD01224FF485
:1030E0008051204605F098FA9DF8060003B030BDE7
:1030F00000040240C4BB012008B50020FFF7D2FF46
:1031000008BD000008B5642005F096FDFFF7F4FF48
:10311000FFF7F2FFE02803D01E4806F0FDFEFBE7B4
:10312000642005F089FD10210320FFF791FF0120A5
:1031300005F082FD01210620FFF78AFF642005F0DB
:103140007BFD20217F20FFF783FF642005F074FDC5
:1031500007210120FFF77CFF012005F06DFD0D2107
:103160001420FFF775FF012005F066FD00217F2088
:10317000FFF76EFF642005F05FFD00224FF48051E1
:10318000054805F049FA0D23044A0549054803F0AE
:103190009BFD08BDE8DD000800040240182B00205C
:1031A0001C000020C4BB012038B5104D01224FF493
:1031B0008051284605F030FA0D4CE278237943EA35
:1031C00002230C4A1380E27A237B43EA02230A4A51
:1031D000138000224FF48051284605F01DFA0D237C
:1031E00022460649064803F06FFD38BD0004024040
:1031F000182B0020122B0020162B00201C00002072
:10320000C4BB0120094BB3F90030094AB2F90020D0
:103210009B1A07EE903AF8EEE77A9FED060A67EE02
:10322000807A9FED050A27EE800A7047122B002056
:10323000102B00200AE81C41000080390B4BB3F929
:1032400000300B4AB2F900209B1A07EE903AF8EED4
:10325000E77A9FED087AC7EE876A9FED077AC6EE98
:10326000877A9FED060A20EE670A7047162B00202A
:10327000142B00201904864100003443DA0F494022
:1032800008B5FEF715F9FEF7BBF901F02BFF012891
:1032900000D008BD01F032FF01380E28F9D801A393
:1032A00053F820F0E1320008FB3200081533000823
:1032B0002F330008353300084F330008553300081A
:1032C00093320008933200089332000893320008CA
:1032D0009332000893320008933200085B330008F1
:1032E00002F09AF8FEF780FA02F0BAFEFEF79CFAB6
:1032F000FEF706FDFEF7A8FFCBE702F08DF8FEF71C
:1033000073FA02F0ADFEFEF78FFAFEF7F9FCFEF756
:103310009BFFBEE702F080F8FEF766FA02F0A0FE1F
:10332000FEF782FAFEF7ECFCFEF78EFFB1E702F043
:1033300073F8AEE702F070F8FEF756FA02F090FE6E
:10334000FEF772FAFEF7DCFCFEF77EFFA1E702F063
:1033500063F89EE702F060F89BE702F05DF8FEF785
:1033600043FA02F07DFEFEF75FFAFEF7C9FCFEF7B6
:103370006BFF8EE708B5024803F087FE08BD00BF6B
:1033800040BE012008B50C4B1B685A6A0B4B1A60F3
:103390000B4B18685968013041F100011860596001
:1033A000FDF762FD06EE900A9FED067AC6EE877A7B
:1033B000054BC3ED007A08BD40BE0120382B00202C
:1033C000302B002000007A44282B00200A4B19687B
:1033D0004B6A0A4A12689A1A4FF47A7303FB02F393
:1033E000CA6AB3FBF2F3064A1360064A11688B42BD
:1033F00038BF0B461360704740BE0120382B0020B9
:103400003C2B0020402B0020014B1888704700BF48
:103410003C2B0020014B1888704700BF402B002038
:10342000014B93ED000A7047282B00200E4B1B78B0
:10343000012B10D0022B12D04BB15A1C0B4B83FB2B
:10344000021303EB4303D31A074A13707047084A69
:1034500090211180F1E7064A60211180EDE7044ACE
:1034600000211180E9E700BF502B0020565555552B
:10347000542B002010B500210B4B19800B4B1980E9
:103480000B4B19700B4C23686FF001021A61204638
:1034900004F050F90421204604F04CF9082120469C
:1034A00004F028F910BD00BF522B0020542B00203F
:1034B000502B002080BE012038B5124C124A00214A
:1034C000A06A05F0D1FA114D01232A461049606A1D
:1034D00005F08EF901232A460E49A06A05F088F905
:1034E00005220D490D4802F08BFE2368DA6842F48C
:1034F000C062DA605A6C42F400425A64FFF7BAFFC5
:1035000038BD00BF80BE01202D34000814000240E9
:10351000542B0020522B0020442B00201CBB0120E8
:1035200010B50C4C0021204604F024F9042120465B
:1035300004F020F90821204604F01CF9A06A05F0E7
:1035400091F9606A05F08EF90022F021024805F039
:1035500063F810BD80BE012000000240154B1A78B0
:103560000232154B83FB021303EB4303D31A012BE7
:1035700011D0022B16D003B17047104B1988104A96
:10358000118059880F4A118099889180D9881181BA
:103590001B8993817047094A51880A4B59801289C7
:1035A000DA817047054A9188064BD980D2885A81C2
:1035B000E2E700BF502B002056555555442B002004
:1035C0004E2B0020582B0020014B1888704700BF5D
:1035D0004E2B0020044A02EB80035B8832F8200067
:1035E000181A00B2704700BF582B002000000000DE
:1035F0002DE9F8432DED028B0446FFF7EBFF05465E
:10360000FCF7B8FF642D30DD41EC100BECB1002667
:103610000027B046B946032C1FD00AF037F953EC07
:10362000102B40464946FDF739F932463B46FCF738
:1036300053FE02460B4643EC182B00220023FDF7F5
:1036400075FAA0B19FED0E8B11E011A7D7E90067C5
:103650000FF24409D9E90089DDE711A7D7E900672E
:103660000FF23409D9E90089D7E79FED078BB0EE57
:10367000480AF0EE680ABDEC028BBDE8F88300BF93
:1036800000000000000000000AD7A3703D0AB73F09
:1036900090A0F831E6AEB53F666666666666E63FC0
:1036A000CBA145B6F3FDB43FF0B58BB00D48C28950
:1036B000838944890189C58887884688008808905D
:1036C0000796361A069605970495ED1B0395029109
:1036D0000194641A0094D11A034806F01DFC0BB043
:1036E000F0BD00BF582B0020F4DD00082DE9F843A1
:1036F00004468846174699464FF4806200213846B2
:1037000005F0DDFC611E8C4200D20021002426E081
:1037100004EB4012BB5C43F00103BB5416E004EB26
:103720004012BB5C43F00203BB5412E04201BB5C9D
:1037300043F00403BB540EE03B5D43F008033B55EC
:103740002846B0420ADA621C8A42E1D0451CB542E2
:10375000E5D0002CEAD00028F2D1EDE701348C420C
:1037600006DA08F1FF36B04500D200260020E8E76F
:103770003B7843F002033B7097F8203043F0080396
:1037800087F820304FF480623946484605F089FCBE
:103790003B7843F0010389F800307B7843F0040361
:1037A00089F80130BDE8F8832DE9F04F89B08246F1
:1037B000934618460593179B9DF8602002920122BC
:1037C0000A708BF800209AF8002003920270002201
:1037D0000192D146DDF850A0B8E10132AA420CDADC
:1037E0000C78985C8442F8D19BF800409818407A95
:1037F0008442F2D101200190EFE7019A002A40F0C3
:10380000A38199F800809BF8004004940D786A1E0B
:10381000560104EB4212013A1598825CB8F1070F89
:1038200053D8012000FA08F0C0B21040139F97F857
:1038300000E070454BD099F801C0BCF1070F56D895
:10384000012000FA0CF0C0B21040864551D099F822
:103850000270072F60D80120B840C0B210408645E2
:103860005CD099F803600696072E66D80120B04018
:10387000C0B20240964562D0039A02F1040EBEF136
:10388000FF0F01D94FF0FF0E059A1278AEEB020040
:10389000864500D2002000F003009AF800E09AF874
:1038A000016004969AF8026007969AF803607045E2
:1038B00058D0049CA04200F0B880079CA04200F0C1
:1038C0008E80B04260D000223FE10020ADE7601C56
:1038D000FF2800D9FF203044169F384410F8010C0F
:1038E000029FB842A7D2CDF80C800290A3E7002037
:1038F000AAE7681CFF2800D9FF200138049F07EBC6
:103900004010169F384410F8010C029FB8429ED216
:10391000CDF80CC002909AE700209FE7601E844219
:1039200000D200203044169E304410F8010C029E54
:10393000B04296D20397029093E7002099E76A1E5F
:10394000954200D20022013A049800EB42121698E8
:10395000024412F8012C029882428DD206980390FC
:10396000029289E7424500F08980624500F08C8030
:10397000BA4200F08F800698824200F091800D706C
:103980008BF800400022E0E00432FF2A00F2C280FF
:10399000013A504202F0030200F0030058BF4242D5
:1039A000D2B2059802700C789BF8000099F800508C
:1039B000AA4200F0B18099F80150AA4200F0B2800A
:1039C00099F80250AA4200F0B38099F80350AA4235
:1039D00000F0B4800C708BF800000022B5E00432D7
:1039E000FF2A7DD8023A504202F0030200F00300A1
:1039F00058BF4242D2B2059802700C789BF8000082
:103A000099F80050AA426DD099F80150AA426FD09F
:103A100099F80250AA4271D099F80350AA4273D083
:103A20000C708BF8000000228FE00432FF2A3DD892
:103A30000132FF2A00D9FF22504202F0030200F0B7
:103A4000030058BF4242D2B2059802700C789BF82E
:103A5000000099F80050AA422AD099F80150AA42D1
:103A60002CD099F80250AA422ED099F80350AA42BD
:103A700030D00C708BF80000002266E00134FF2C7F
:103A800000D9FF24E4B270E70135FF2D00D9FF25EE
:103A9000EDB26DE7601E844200D20020C4B26AE736
:103AA0006A1E954200D20022D5B268E7FF22BFE726
:103AB0000130FF2800D9FF20C0B2CEE70134FF2C2F
:103AC00000D9FF24E4B2CCE7451EA84200D200256D
:103AD000E8B2CAE7621E944200D20022D4B2C8E71C
:103AE000FF227FE70130FF2800D9FF20C0B28BE71B
:103AF0000134FF2C00D9FF24E4B289E7451EA84217
:103B000000D20025E8B287E7621E944200D200226C
:103B1000D4B285E7FF223BE70130FF2800D9FF2020
:103B2000C0B248E70134FF2C00D9FF24E4B247E7D4
:103B3000451EA84200D20025E8B246E7621E944224
:103B400000D20022D4B245E701221AB9129A1578A0
:103B5000002243E609B0BDE8F08F30B404789C42FF
:103B60000AD044789C420ED084789C4212D0C2780D
:103B70009A4216D030BC704714780134FF2C00D91B
:103B8000FF241470EDE70C780134FF2C00D9FF24DA
:103B90000C70E9E715786C1EA54200D20024147061
:103BA000E5E70A78531E9A4200D200230B70E1E742
:103BB0002DE9F04FADF5815D81B0814688460DF568
:103BC0008251083108680DF5825114310C68591E74
:103BD0008B4200D20021531E9A4200D2002303FBE5
:103BE00001F3B3F5806F01D340F2FF335E1EB342A1
:103BF00000D200260DF5825318331B681E60002387
:103C0000B3F5806F03DA44F823600133F8E70DF56C
:103C100082530C331D7800220CE083185B7A815CA0
:103C2000013903EB411303F18043013B002144F8C8
:103C300023100132AA42F0DB002301931F460393B5
:103C40004CE10133A9B9B3F5806F12DA54F823209F
:103C5000BA42F6D10AF101005A1CA94D25F81A20E2
:103C6000B0F5806F02DA13468246EBE78246012107
:103C7000E8E7BAF1000F06DD0DF580531C33C3F8F9
:103C800000A0002309E04FF0000AF5E79C4A32F952
:103C900013109C4A22F8131001339A45F6DC0DF5F7
:103CA00080531833C3F800A000239A4508DD954AD5
:103CB00032F81320013A944921F813200133F4E734
:103CC0000DF614030DF618020DF5805118318E48CB
:103CD00001F05EFFDDF81458002203E00DF21441FC
:103CE0008B540132AA420EDA0DF6180333F8123063
:103CF0000133B3F5803F01D34FF6FF739BB2FF2B27
:103D0000ECD9FF23EAE700239A4507DD7D4931F826
:103D10001320013A21F813200133F5E70DF61403BF
:103D20000DF618020DF580511C317648FFF74CF95D
:103D3000DDF81408002202E005A98B54013282420A
:103D40000EDA0DF6180333F812300133B3F5803F65
:103D500001D34FF6FF739BB2FF2BEDD9FF23EBE7A7
:103D6000002DC0F2B980B5F5806F80F2AD80002DD6
:103D700040F0AC8001230193B0E04FF0000E0EEA5A
:103D8000010E98F800B0DE450BD099F801A0BAF109
:103D9000070F19D84FF0010E0EFA0AFE5FFA8EFED9
:103DA00014E000F1010EF2440AF1804A0AF1FF3AF0
:103DB00054F82A70B742E8D1029F07F1010E44F887
:103DC0002AE001270397E0E74FF0000E0EEA010E0C
:103DD00098F800A0D6450BD099F802A0BAF1070FC9
:103DE0001AD84FF0010E0EFA0AFE5FFA8EFE15E0A9
:103DF00000EB4C1E0EF1804E0EF1FF3E54F82E707B
:103E0000B742E9D1029F07F1010A5FFA8AFA44F842
:103E10002EA001270397DFE74FF0000E0EEA010EF8
:103E200098F800A0D64509D099F803E0BEF1070F35
:103E300011D8012303FA0EF3DBB20DE0023B54F874
:103E40002370B742F0D1029F07F1010E44F823E03E
:103E500001230393E8E70023194098F800309942C2
:103E600022D00132AA4234DA99F800B005AB13F837
:103E700002C00CF1FF334FEA431A0DF21441885C83
:103E800000EB43130DF5825110310968194411F804
:103E9000011CBBF1070F3FF670AF4FF0010E0EFA99
:103EA0000BFE5FFA8EFE6AE7ACF1020C00EB4C10E1
:103EB000013854F82030B342D3D1029B013344F887
:103EC000203001230393CCE740F2FF350022029714
:103ED000C8E7029F013701E001230193019B33B939
:103EE000BE4204D301994FF0000A5346AAE6039B51
:103EF000002B7FF4A1AE0DF5815D01B0BDE8F08F20
:103F00007C3300207C430020702B00202DE9F04FF3
:103F1000ADF5825D83B008900B9114460C930DF5BE
:103F2000835310331D680DF583531433D3F8009079
:103F30000DF583531833D3F800A00DF583531C33CC
:103F40001B7809930DF584531B780A930DF5845360
:103F50000433D3F800800DF584530833D3F800B050
:103F60000DF584530C331E680DF5845310331B7804
:103F70000D931F4600230693079700F037BC0020DF
:103F80000DF58253043318700DF5825318700DF53A
:103F90008253053318700DF58253013318700DF5F7
:103FA0008253063318700DF58253023318700DF5E5
:103FB0008253073318700DF5825303331870FFF7DF
:103FC00009FB07460320FFF705FB3B46034403EBD1
:103FD000D3735B10CE4F3B800220FFF7FBFACD4B33
:103FE00018800120FFF7F6FACB4B1880B7F90020B4
:103FF000CA4BB3F900309A4200F33A829AF8003083
:1040000003F003020B9949780DF582500830024401
:1040100002F8081CBF4AB2F90010C14AB2F90020E8
:10402000914214DD0133FF2B00D9FF235A4203F0E4
:10403000030302F0030258BF5342089A52780DF569
:10404000825108310B4403F8042CFDF765FF9AF800
:104050000020531CFF2B00D9FF23594203F0030318
:1040600001F0030158BF4B420B9949780DF582507E
:104070000830034403F8081CA74BB3F90010A94B00
:10408000B3F90030994214DDD31CFF2B00D9FF2374
:104090005A4203F0030302F0030258BF5342089A46
:1040A00052780DF5825108310B4403F8042CFDF7CA
:1040B00039FF9AF800300333FF2B00D9FF235A420F
:1040C00003F0030302F0030258BF53420B9A5278E5
:1040D0000DF5825108310B4403F8082C2278531C4B
:1040E000FF2B00D9FF23072A00F2D1810121914043
:1040F000C9B2013B0DF582520832134413F8043C57
:1041000001FB03F1FF2900D9FF212A78013A52016E
:10411000854B1A6099F800301344013B83480360D3
:10412000C9B218F80300014308F803102178481CAD
:10413000FF2800D9FF20072900F2AB814FF0010CC6
:104140000CFA01F1C9B201380DF58257083738442D
:1041500010F8080C01FB00F1FF2900D9FF21C9B2BA
:104160001BF8030001430BF803106178481CFF287B
:1041700000D9FF20072900F28E814FF0010C0CFAC4
:1041800001F1C9B201380DF582570837384410F8EB
:10419000040C01FB00F1FF2900D9FF21C9B218F876
:1041A0000300014308F803106178481CFF2800D978
:1041B000FF20072900F271814FF0010C0CFA01F188
:1041C000C9B201380DF582570837384410F8080C89
:1041D00001FB00F1FF2900D9FF21C9B21BF8030040
:1041E00001430BF80310A178481CFF2800D9FF20D9
:1041F000072900F254814FF0010C0CFA01F1C9B209
:1042000001380DF582570837384410F8040C01FBCB
:1042100000F1FF2900D9FF21C9B218F803000143BA
:1042200008F80310A178481CFF2800D9FF200729AF
:1042300000F237814FF0010C0CFA01F1C9B20138DC
:104240000DF582570837384410F8080C01FB00F1CF
:10425000FF2900D9FF21C9B21BF8030001430BF865
:104260000310E178481CFF2800D9FF20072900F23D
:104270001A814FF0010C0CFA01F1C9B201380DF5A9
:1042800082570837384410F8040C01FB00F1FF296D
:1042900000D9FF21C9B218F80300014308F8031040
:1042A000E178481CFF2800D9FF20072900F2FD8093
:1042B0004FF0010C0CFA01F1C9B201380DF582572B
:1042C0000837384410F8080C01FB00F1FF2900D929
:1042D000FF21C9B21BF8030001430BF80310099B2F
:1042E000591E8B4200D2002199F800308B4257DAD8
:1042F000A07821780131FF2900D9FF21072800F299
:10430000D6804FF0010C0CFA00F0C0B210E000BFF4
:10431000682B00206C2B00206A2B00201E00002040
:104320002200002020000020743300207833002079
:1043300001390DF582570837394411F8041C00FB88
:1043400001F1FF2900D9FF210133FF2B00D9FF2301
:104350001344013B18F80300C9B2014308F80310E5
:10436000A07821780131FF2900D9FF21072800F228
:10437000A0804FF0010C0CFA00F0C0B201390DF52D
:1043800082570837394411F8081C00FB01F1FF2956
:1043900000D9FF211BF80300C9B201430BF8031039
:1043A0000A9B591E8B4200D200212B788B424DDA9A
:1043B000E07861780131FF2900D9FF2107287AD8F8
:1043C0004FF0010C0CFA00F0C0B201390DF5825724
:1043D0000837394411F8041C00FB01F1FF2900D90A
:1043E000FF210133FF2B00D9FF2399F800C0013BC7
:1043F00058010CEB4313013B18F803C0C9B24CEA57
:10440000010108F80310E37861780131FF2900D930
:10441000FF21072B51D84FF0010C0CFA03F3DBB24C
:1044200001390DF582570837394411F8081C03FB90
:1044300001F3FF2B00D9FF2399F80010084401383D
:104440001BF80010DBB20B430BF8003099F800109A
:10445000012974D92078A3780133FF2B00D9FF23D9
:1044600007282CD84FF0010C0CFA00F0C0B227E05E
:104470009AF8003003F00303089A52780DF5825140
:1044800008310B4403F8042CFDF740FDB6E500218C
:104490002FE6002157E6002174E6002191E6002175
:1044A000AEE60021CBE60021E8E6002105E700208A
:1044B0003EE7002062E7002087E70023B0E7002006
:1044C000013B0DF5825708373B4413F8043C00FBD1
:1044D00003F0FF2800D9FF204B1E994200D2002391
:1044E0001344013B18F80310C0B2084308F8030056
:1044F0002078A3780133FF2B00D9FF23072803D8A6
:1045000001218140C9B200E00021013B0DF582503C
:104510000830034413F8083C01FB03F3FF2B00D9D8
:10452000FF2399F80000411E884200D200210A446E
:10453000013A1BF80210DBB20B430BF8023029786A
:10454000012940F258816078E3780133FF2B00D9CC
:10455000FF23072803D801228240D2B200E00022C4
:10456000013B0DF582500830034413F8043C02FB74
:1045700003F2FF2A00D9FF22481E814200D2002008
:1045800099F80030013803EB4013013B18F8031091
:10459000D2B20A4308F803206178E3780133FF2B95
:1045A00000D9FF23072903D801228A40D2B200E0B4
:1045B0000022013B0DF5825108310B4413F8083CF1
:1045C00002FB03F3FF2B00D9FF232A78511E8A42F6
:1045D00000D2002199F80020013902EB4112013A82
:1045E0001BF80210DBB20B430BF8023003E101337E
:1045F000BB420CDA2978F25C9142F8D199F80010AC
:10460000F218527A9142F2D101220692EFE707970F
:10461000069B002B2DD10FAB049310AB0393CDF869
:1046200008800D9B019300960A9B099A08992046E1
:10463000FFF7BEFA2278072A3BD801239340DBB26A
:10464000AF4A126818F802201A4234D199F80030A3
:104650000133FF2B00D9FF23AA4A12681344013B00
:1046600010AA52F823300F9A93422FD20F93227838
:1046700022E0FDF7E3FBFEF753FFA34C01224FF4CA
:104680006451204603F0C8FF4FF42F7004F0D4FAB1
:1046900000224FF46451204603F0BEFF4FF49670A1
:1046A00004F0CAFAFEF708FF0DF5825D03B0BDE81D
:1046B000F08F0023C4E7069A6378072B08D84FF0E1
:1046C000010C0CFA03FC5FFA8CFC03E0069AF3E79A
:1046D0004FF0000C99F8000029784B1E00EB4313B3
:1046E000434413F8013C13EA0C0F0FD10131FF29A9
:1046F00000D9FF21013900EB4111013910AB53F80A
:1047000021300F998B4201D20F936278A378072B47
:1047100003D801219940C9B200E0002199F80000B6
:104720002B78013B00EB4313434413F8013C0B424D
:104730000FD1431E984200D20023724909680B44EE
:10474000013B10A951F823300F998B4201D20F93EE
:10475000A27894F803E0BEF1070F04D8012000FA14
:104760000EF0C0B200E0002099F8001095F800C0EB
:104770000CF1FF3301EB4313434413F8013C0342B4
:104780000FD10CF1FF339C4500D20023013B01EB1C
:104790004311013910AB53F821100F9B994200D2FD
:1047A00072460432FF2A00D9FF229AF80030D31A49
:1047B0009A4200D200235A4203F0030302F003029C
:1047C00058BF5342DAB20C9890F800E041780F914C
:1047D0000746807897F803C0724511D0DBB2994242
:1047E00000F0968082425AD0624529D0474B1B7810
:1047F000002B3FF4C4AB0023444A1370079FF7E635
:10480000FDF796FB9AF8002023789A4200F0AF80DB
:104810009AF8002063789A4200F0B2809AF800205B
:10482000A3789A4200F0B3809AF80020E3789A4285
:10483000DCD12A78531E9A4200D200232B70D5E790
:10484000FDF7B8FB9AF800300433FF2B00F2DE804E
:10485000013B5A4203F0030302F0030258BF5342E4
:10486000DBB28AF800302278934200F0D1809AF8C7
:10487000002063789A4200F0D4809AF80020A37850
:104880009A4200F0D5809AF80020E3789A42ADD1A0
:104890002A78531E9A4200D200232B70A6E7FDF718
:1048A000B5FB9AF800300433FF2B00F29480023BF2
:1048B0005A4203F0030302F0030258BF5342DBB233
:1048C0008AF800302278934200F087809AF800201E
:1048D00063789A4200F08A809AF80020A3789A427E
:1048E00000F08B809AF80020E3789A427FF47EAF44
:1048F0002A78531E9A4200D200232B7076E700BF1D
:104900007833002074330020000002407033002010
:10491000FDF724FB9AF800300433FF2B40D8013315
:10492000FF2B00D9FF235A4203F0030302F00302D6
:1049300058BF5342DBB28AF800302278934231D01C
:104940009AF8002063789A4235D09AF80020A3782C
:104950009A4237D09AF80020E3789A427FF446AF23
:104960002A78531E9A4200D200232B703EE799F812
:1049700000300133FF2B00D9FF2389F8003047E7CF
:104980002B780133FF2B00D9FF232B7046E799F8D2
:104990000020531E9A4200D2002389F8003043E7DA
:1049A000FF23BCE799F800300133FF2B00D9FF2328
:1049B00089F80030C4E72B780133FF2B00D9FF239F
:1049C0002B70C2E799F80020531E9A4200D20023B0
:1049D00089F80030BEE7FF2369E799F8003001331A
:1049E000FF2B00D9FF2389F800306FE72B780133C4
:1049F000FF2B00D9FF232B706EE799F80020531E80
:104A00009A4200D2002389F800306BE7FF231FE7AA
:104A100099F800300133FF2B00D9FF2389F80030CB
:104A200025E72B780133FF2B00D9FF232B7024E7D8
:104A300099F80020531E9A4200D2002389F80030D2
:104A400021E700BF2DE9F04FADF5C15D83B00D4604
:104A5000164605930DF5C25310331C780DF5C2535D
:104A600014331B780DF5C252183211680DF5C2527D
:104A70001C32D2F800900DF5C3520432D2F800B0C7
:104A80005A1E934200D20022631E9C4200D2002391
:104A900003FB02F3FF2B00D9FF235A1E934200D2DF
:104AA0000022D3B203930DF5C352083212681446A4
:104AB0001A4623700023B3F5806F03DA0BF8032046
:104AC0000133F8E7007800220AE08B185B7A8C5CEF
:104AD000013C03EB4413013B00240BF8034001327B
:104AE0008242F2DB002301930493CAE10133A9B9A6
:104AF000B3F5806F12DA1BF8032001988242F5D1DA
:104B0000781C5A1CC64C24F81720B0F5806F02DAC6
:104B100013460746EBE707460121E8E7002F05DDCE
:104B20000DF5C15304331F60002308E00027F7E7A9
:104B3000BB4A32F91310BB4A22F8131001339F42CB
:104B4000F6DC0DF5C1531F6000239F4209DDB54A15
:104B500032F81320013A0DF5815121F81320013369
:104B6000F3E70DF61C030DF502620DF5C1510DF5CD
:104B7000815001F00DF8DDF81C48002203E00DF231
:104B80001C418B540132A2420EDA0DF5026333F858
:104B900012300133B3F5803F01D34FF6FF739BB260
:104BA000FF2BECD9FF23EAE700239F4207DD9D4955
:104BB00031F81320013A21F813200133F5E70DF6FF
:104BC0001C030DF502620DF5C15104319548FEF745
:104BD000FBF9DDF81C08002202E007A98B54013222
:104BE00082420EDA0DF5026333F812300133B3F569
:104BF000803F01D34FF6FF739BB2FF2BEDD9FF230C
:104C0000EBE7002102940DF5C3530433C3F800B061
:104C1000DDF814B057E0002219F80CE01EEA020F8C
:104C200014BF4FF001084FF0000896F800E0F0457F
:104C300066D06A78072A00F28F804FF0010C0CFAD8
:104C400002FC5FFA8CFC5A1E19F802E01EEA0C0FF7
:104C500014BF4FF001084FF0000896F800E0F0454F
:104C60007DD095F802C0BCF1070F00F2AC804FF088
:104C7000010E0EFA0CFC5FFA8CFC19F802E01EEA39
:104C80000C0F14BF4FF001084FF0000896F800E039
:104C9000F04500F09B80EB78072B00F2BF804FF0CF
:104CA000010C0CFA03F3DBB219F802C01CEA030F83
:104CB00014BF4FF0010E4FF0000E96F800C0E6450D
:104CC00000F0B2800131029B994280F2D1802A78B3
:104CD000481C80B2013807AB1F5C7B1E4FEA431AA9
:104CE0000DF21C4C1CF8000000EB431303F1FF3CD9
:104CF000072A90D84FF0010E0EFA02F2D2B28BE7DB
:104D00000DF5C354246814F80CC01CEA020F14BF3C
:104D10004FF0010C4FF0000C9BF80120944588D116
:104D2000421CFF2A00D9FF2292440AF1FF3A0DF5F6
:104D3000C3520432126812F80A20039C94427FF492
:104D400078AF019A01320DF5C3540434246804F895
:104D50000A20012204926CE74FF0000C73E70DF576
:104D6000C354246814F802E01EEA0C0F14BF4FF07D
:104D7000010E4FF0000E9BF801C0E6457FF471AFC5
:104D800007F1010CBCF1FF0F01D94FF0FF0C0CF142
:104D9000FF3C00EB4C1C0CF1FF3C0DF5C3540434FC
:104DA000246814F80CE0039C74457FF45AAF019C0E
:104DB00004F1010E0DF5C3540434246804F80CE02A
:104DC000012404944DE74FF0000C56E70DF5C35451
:104DD000246814F802E01EEA0C0F14BF4FF0010E15
:104DE0004FF0000E9BF801C0E6457FF454AF023B44
:104DF0000DF5C3540434246814F803C0039C6445BF
:104E00007FF449AF019C04F1010C0DF5C354043447
:104E1000246804F803C0012304933CE7002343E71C
:104E20007C3B00207C4B00200DF5C3542468A25C21
:104E30001A4214BF012200229BF801309A427FF4EB
:104E400041AF023F00EB471001380DF5C353043367
:104E50001B681B5C039A9A427FF434AF019B0133B9
:104E60000DF5C3520432126813540123049329E749
:104E70000DF5C3530433D3F800B0019B0133DBB20B
:104E800001930DF5C35308331B681B78019A9342B5
:104E900003D300210F460B4629E6049B002B7FF429
:104EA00021AE0DF5C15D03B0BDE8F08F2DE9F04FE7
:104EB000ADF2644D07460D4690469946DDF88844AC
:104EC0009DF88C649DF890A48DF85C640023112BF0
:104ED00007DC0DF58C621A44002102F8181C01331E
:104EE000F5E700228DF8442401238DF84534022093
:104EF0008DF8460403218DF847148DF840248DF871
:104F000041348DF842048DF843148DF83C248DF81B
:104F10003D348DF838248DF83934BAF1000F07D0BC
:104F2000BAF1010F00F0AD800DF2644DBDE8F08FD5
:104F3000FCF760FF01238DF834340DF1300B8DF850
:104F4000303000235A460DF234410DF24440FEF752
:104F500004FEFCF7EDFF9DF844240BAB8DF82C20EC
:104F60000896079406950597CDF81090CDF80C801B
:104F70000293CDF804B00DF2344300930DF588632D
:104F80000DF244420DF587610DF23C40FEF7BEFF85
:104F90004FF47A7003F050FE3DE08DF848C48DF870
:104FA000510401218DF8331089B996420FDD02F1C9
:104FB0000903E05C14F802C00CF1FF3300EB43136B
:104FC0002B4413F8013C0F2BE7D10132ECE79DF89D
:104FD0003330012B24D1FCF785FF0123404A1370A5
:104FE00008930DF58963079306950597CDF8109002
:104FF000CDF80C800BAB02930CAB01930DF2344354
:1050000000930DF588630DF244420DF587610DF2B2
:105010003C40FEF77BFF00228DF833201146C3E7AA
:105020004FF47A7003F008FE01268DF848648DF87D
:105030005164FCF757FF2A4B1E7008960DF58963E3
:10504000079306950597CDF81090CDF80C800BAB23
:1050500002930CAB01930DF2344300930DF588637A
:105060000DF244420DF587610DF23C40FEF74EFF14
:10507000FCF7A6FDFCF726FFBEEE000A00F01AFEC4
:105080004EE70DF23C4A0DF1330BCDF818B00DAEE2
:105090000596049503970294CDF80490CDF800800E
:1050A0000DF5876352460DF244410DF25C40FFF767
:1050B000C9FC9BF8003006930594049603970DF500
:1050C00088630293CDF804A00DF25C4300930BAB10
:1050D0000CAA0DF234410DF24440FEF765FB23E7C4
:1050E00070330020014B1878704700BF7F530020B9
:1050F000014B00221A7070477F530020014B187833
:10510000704700BF7D530020014B1870704700BFEF
:105110007D53002010B5FCF741FAB5EE400AF1EEE0
:1051200010FAF8D1FCF752FAC82003F085FDFCF71D
:105130003BFADFED827AB4EEE70AF1EE10FA03DD16
:105140007F4A137801331370FCF734FADFED7D7A70
:10515000B4EEE70AF1EE10FA03D5794A1378013B71
:105160001370774A137803F00F031370764A12789E
:10517000934211D00F2B0FD8DFE803F0081523312D
:105180003F4D5B69778593A1AFBDCBD900224FF42A
:1051900064516E4803F040FA694B18786A4B1870F6
:1051A000FFF7B2FF10BD694C00224FF4C8512046F2
:1051B00003F032FA01224FF40051204603F02CFA9A
:1051C000EAE7624C00224FF42451204603F024FA0F
:1051D00001224FF48051204603F01EFADCE75B4CBD
:1051E00000224FF41061204603F016FA01224FF41A
:1051F0004051204603F010FACEE7544C00224FF401
:105200004451204603F008FA01224FF40061204681
:1052100003F002FAC0E74D4C00224FF488512046BB
:1052200003F0FAF901224FF42051204603F0F4F97B
:10523000B2E7464C00224FF40451204603F0ECF94B
:1052400001224FF4C051204603F0E6F9A4E73F4C99
:1052500000224FF48071204603F0DEF901224FF462
:105260006051204603F0D8F996E7384C00224FF4FD
:105270006051204603F0D0F901224FF4807120469E
:1052800003F0CAF988E7314C00224FF4C0512046A0
:1052900003F0C2F901224FF40451204603F0BCF997
:1052A0007AE72A4C00224FF42051204603F0B4F94B
:1052B00001224FF48851204603F0AEF96CE7234CED
:1052C00000224FF40061204603F0A6F901224FF4BA
:1052D0004451204603F0A0F95EE71C4C00224FF435
:1052E0004051204603F098F901224FF41061204606
:1052F00003F092F950E7154C00224FF480512046FC
:1053000003F08AF901224FF42451204603F084F976
:1053100042E70E4C00224FF40051204603F07CF986
:1053200001224FF4C851204603F076F934E70122F8
:105330004FF46451054803F06FF92DE7CDCCCC3D17
:105340007C530020CDCCCCBD7E5300200000024019
:1053500008B5FCF735F9DFED057AB4EEE70AF1EEB2
:1053600010FA01DD012008BD0020FCE7CDCCCC3DCA
:1053700008B50320FEF72EF940F2DB539842F8DD22
:105380004FF4FA7003F058FC014B01221A7008BD6B
:105390007F53002038B50023184A1370184A137041
:1053A000184A1370FEF7BCF8144B1B7833B9FFF79B
:1053B000B1FEFFF7CDFF114B1870F5E7002415E0A3
:1053C000114D01224FF46451284603F025F94FF4A2
:1053D0002F7003F031FC00224FF46451284603F093
:1053E0001BF94FF4967003F027FC0134012CE7DD24
:1053F000FEF762F8FFF7BCFF38BD00BF8053002006
:105400007F5300207C53002000000240014B00220B
:105410001A8070478253002010B54E4B1A884E4CAC
:10542000A4FB023442F20F739A420AD8E40804EB58
:105430008403A2EB43039BB223B1464A1388013392
:10544000138010BD07EE902AF8EE677A434B5C227A
:1054500002FB0434C4ED007A00F014FC84ED010A70
:1054600000F016FC84ED020AFCF780F984ED030AD3
:1054700000F0FCFB84ED040AFCF7BAF884ED050AA1
:10548000FCF744F984ED060AFDF7BCFE84ED070A3B
:10549000FCF742F984ED080A00F000FC84ED090AEB
:1054A00000F002FC84ED0A0AFCF7A6F984ED0B0A71
:1054B00000F0E2FB84ED0C0AFCF76EF984ED0D0AB6
:1054C000FCF7D0FE07EE900AF8EEE77AC4ED0E7A0C
:1054D000FCF7CEFE07EE900AF8EEE77AC4ED0F7AFD
:1054E0000320FEF777F807EE900AF8EEE77AC4EDAE
:1054F000107A0020FEF76EF807EE900AF8EEE77AD1
:10550000C4ED117A0220FEF765F807EE900AF8EE76
:10551000E77AC4ED127A0120FEF75CF807EE900AF4
:10552000F8EEE77AC4ED137A0320FEF761F851EC48
:10553000100BFBF781FB20650020FEF759F851ECBA
:10554000100BFBF779FB6065FDF754FC84ED160A40
:1055500073E700BF82530020CDCCCCCC8453002015
:1055600070B5664804F0D8FC0026B6F57A7F80F066
:10557000C380634B5C2404FB06342068FBF70CF803
:1055800002460B465F4D284604F0C6FC6068FBF7F8
:1055900003F802460B46284604F0BEFCA068FAF762
:1055A000FBFF02460B46284604F0B6FCE068FAF71B
:1055B000F3FF02460B46284604F0AEFC2069FAF7DA
:1055C000EBFF02460B46284604F0A6FC6069FAF79A
:1055D000E3FF02460B46284604F09EFCA069FAF75A
:1055E000DBFF02460B46284604F096FCE069FAF71A
:1055F000D3FF02460B46284604F08EFC206AFAF7D9
:10560000CBFF02460B46284604F086FC606AFAF798
:10561000C3FF02460B46284604F07EFCA06AFAF758
:10562000BBFF02460B46284604F076FCE06AFAF718
:10563000B3FF02460B46284604F06EFC206BFAF7D7
:10564000ABFF02460B46284604F066FC606BFAF797
:10565000A3FF02460B46284604F05EFCA06BFAF757
:105660009BFF02460B46284604F056FCE06BFAF717
:1056700093FF02460B46284604F04EFC206CFAF7D6
:105680008BFF02460B46284604F046FC606CFAF796
:1056900083FF02460B46284604F03EFCA06CFAF756
:1056A0007BFF02460B46284604F036FCE06CFAF716
:1056B00073FF02460B46284604F02EFC206DFAF7D5
:1056C0006BFF02460B46284604F026FC606DFAF795
:1056D00063FF02460B46284604F01EFCA06DFAF755
:1056E0005BFF02460B46084804F016FC074804F02E
:1056F00099FC0136B6B238E770BD00BF3CDE000849
:105700008453002084DF000888DF00088CDF000855
:105710002DE9F04F2DED028B2DED02AB85B0FDF79D
:10572000BFFBFDF7C5FB002436E00320FDF760FF5B
:1057300053EC102B94A1D1E90001FAF7CDFD0290B2
:1057400001F100430393FEE00020FDF751FF53EC0D
:10575000102B8FA1D1E90001FAF7BEFD804601F1BF
:105760000049CDE90089DDE902238B4804F0D4FB30
:105770000B34A4B2894B1B68986803F063FB4FF4A9
:10578000FA7003F059FA1B21854804F0C5FB224644
:105790001B21844804F0C0FBFDF742FE10EE100A06
:1057A000FAF7FAFE02460B467F4804F0B5FBFDF718
:1057B0002BFE07EE900AF8EE677AB2EE048A87EEC7
:1057C00088AAFDF727FE07EE900AF8EE677AC7EE83
:1057D000888A1AEE100AFAF7DFFE06460F4618EE20
:1057E000900AFAF7D9FECDE9000132463B466F48F0
:1057F00004F092FB4FF0000A4FF0000BCDE900AB34
:1058000052465B466A4804F087FBFDF769FBDFED13
:1058100069AAC0EE2A8A9FED68AA68EE8A8AFDF717
:1058200077FB80EE2A8A28EE0A8A18EE900AFAF7A9
:10583000B3FE06460F4618EE100AFAF7ADFECDE9A4
:10584000000132463B465D4804F066FBFBF7D0FEA4
:1058500010EE106AFDF7F2FC10EE105A3046FAF71F
:105860009BFE06460F462846FAF796FECDE9000154
:1058700032463B46524804F04FFBFDF7BBFA10EEB0
:10588000100AFAF789FE02460B464E4804F044FB24
:105890000320FDF79FFE05460220FDF79BFE06460E
:1058A0000120FDF797FE07460020FDF793FE0090CC
:1058B0003B4632462946444804F02EFBFDF7F4FEF1
:1058C0000320FDF795FE57EC106B0020FDF790FECE
:1058D0008DED000B32463B463C4804F01DFBFDF7C6
:1058E00091FC10EE106AFDF7A9FC10EE105A30463C
:1058F000FAF752FE06460F462846FAF74DFECDE966
:10590000000132463B46324804F006FB0320FDF717
:105910006FFE53EC102B1CA1D1E90001FAF7DCFC5F
:1059200052465B46FBF702F900287FF4FEAE0320E7
:10593000FDF75EFE53EC102B13A1D1E90001FAF73D
:10594000CBFCCDE902010020FDF752FE53EC102BF9
:105950000FA1D1E90001FAF7BFFC00220023FBF7F9
:10596000E5F800287FF4F0AE0020FDF741FE53EC8F
:10597000102B07A1D1E90001FAF7AEFC8046894659
:10598000EFE600BFAFF30080000000E04F8D873FDF
:1059900000000060BC74833F30E100082C00002050
:1059A00060E1000868E1000890DF0008A8DF000857
:1059B000D4DF0008DA0F49400000344300E000085B
:1059C0002CE000086CE0000884E00008C8E0000853
:1059D000FCE0000810B5094C0021204601F0AAFEA9
:1059E0000421204601F0A6FE0821204601F0A2FE77
:1059F0000C21204601F09EFE10BD00BF3CBD0120E1
:105A000008B52D4B18800028B8BF404280B240F244
:105A1000B63398421BD81D282AD802F043FB400910
:105A2000264BA3FB0030C009C0EB00135B002448E9
:105A3000A0FB03239B09013B1F4AB2F90020002A67
:105A40002CDD204A126893630023536308BD02F0E3
:105A500029FB4009194BA3FB0023D80940F2B633B8
:105A600003FB00F3164AA2FB03239B09013BE3E778
:105A700002F018FB4009114BA3FB0023D8090E4B81
:105A8000B3F90030002B07DB03FB00F30C4AA2FB49
:105A900003239B09013BCFE75B42F5E7002A05DBC7
:105AA000084B1B6800229A635A63CFE7054A1268C5
:105AB000002191635363C9E7E4BA0120C55A7C0A07
:105AC000D34D62103CBD012008B52D4B1880002835
:105AD000B8BF404280B240F2B63398421BD81D286E
