:020000040800F2
:100000000000052079920008693200086B32000870
:100010006D3200086F3200087132000800000000E5
:100020000000000000000000000000007332000823
:1000300075320008000000007732000879320008AD
:10004000C9920008C9920008C9920008C992000824
:10005000C9920008C9920008C9920008C992000814
:10006000C9920008C9920008C9920008C992000804
:10007000C9920008C9920008813200089132000834
:10008000C9920008C9920008C9920008C9920008E4
:10009000C9920008C9920008C9920008C9920008D4
:1000A000C9920008C9920008C9920008C9920008C4
:1000B000C9920008C9920008C9920008C9920008B4
:1000C000C9920008C9920008C9920008C9920008A4
:1000D000C9920008C9920008C9920008C992000894
:1000E000C9920008C9920008C9920008C992000884
:1000F000C9920008C9920008C9920008C992000874
:10010000C9920008C9920008C9920008C992000863
:10011000C9920008C9920008A1320008C9920008DB
:10012000BD320008CD320008DD320008C992000857
:10013000C9920008C9920008C9920008C992000833
:10014000C9920008C9920008C9920008C992000823
:10015000C9920008C9920008C9920008C992000813
:10016000C9920008C9920008C9920008C992000803
:10017000C9920008C99200080000000000000000B9
:10018000C9920008C9920008C9920008C9920008E3
:10019000C9920008C992000800000000C992000836
:1001A000C9920008C9920008000000000000000089
:1001B000C99200080000000000000000C992000879
:1001C000C9920008C9920008C9920008C9920008A3
:0801D000C9920008C992000861
:1001E00010B5054C237833B9044B13B10448AFF371
:1001F00000800123237010BD1002002000000000C9
:10020000CCE3000808B5034B1BB103490348AFF327
:10021000008008BD0000000014020020CCE30008AC
:10022000034613F8012B002AFBD1181A0138704736
:1002300001F0FF01102A2BDB10F0070F08D010F897
:10024000013B013A8B422DD010F0070F42B3F6D19B
:10025000F0B441EA012141EA014122F007047FF0B4
:1002600000070023F0E80256083C85EA010586EA0B
:10027000010685FA47F5A3FA87F586FA47F6A5FA47
:1002800087F68EB9EED1F0BC01F0FF0102F0070253
:1002900032B110F8013B013A83EA010313B1F8D1FE
:1002A0000020704701387047002D06BF35460338DF
:1002B000073815F0010F07D1013015F4807F02BF18
:1002C000013015F4C03F0130F0BC0138704700BF69
:1002D00081F0004102E000BF83F0004330B54FEAF7
:1002E00041044FEA430594EA050F08BF90EA020F64
:1002F0001FBF54EA000C55EA020C7FEA645C7FEAF7
:10030000655C00F0E2804FEA5454D4EB5555B8BF19
:100310006D420CDD2C4480EA020281EA030382EA8A
:10032000000083EA010180EA020281EA0303362D1C
:1003300088BF30BD11F0004F4FEA01314FF4801CEF
:100340004CEA113102D0404261EB410113F0004F01
:100350004FEA03334CEA133302D0524263EB4303B8
:1003600094EA050F00F0A780A4F10104D5F1200E56
:100370000DDB02FA0EFC22FA05F2801841F10001B1
:1003800003FA0EF2801843FA05F359410EE0A5F185
:1003900020050EF1200E012A03FA0EFC28BF4CF0B6
:1003A000020C43FA05F3C01851EBE37101F000456C
:1003B00007D54FF0000EDCF1000C7EEB00006EEB79
:1003C0000101B1F5801F1BD3B1F5001F0CD3490803
:1003D0005FEA30004FEA3C0C04F101044FEA44525A
:1003E00012F5800F80F09A80BCF1004F08BF5FEAE1
:1003F000500C50F1000041EB045141EA050130BDC1
:100400005FEA4C0C404141EB0101013C28BFB1F5D2
:10041000801FE9D291F0000F04BF01460020B1FA1D
:1004200081F308BF2033A3F10B03B3F120020CDAF0
:100430000C3208DD02F1140CC2F10C0201FA0CF0CE
:1004400021FA02F10CE002F11402D8BFC2F1200C33
:1004500001FA02F120FA0CFCDCBF41EA0C019040E9
:10046000E41AA2BF01EB0451294330BD6FEA040432
:100470001F3C1CDA0C340EDC04F11404C4F120021D
:1004800020FA04F001FA02F340EA030021FA04F32F
:1004900045EA030130BDC4F10C04C4F1200220FA86
:1004A00002F001FA04F340EA0300294630BD21FAC4
:1004B00004F0294630BD94F0000F83F4801306BF8A
:1004C00081F480110134013D4EE77FEA645C18BF7E
:1004D0007FEA655C29D094EA050F08BF90EA020F15
:1004E00005D054EA000C04BF1946104630BD91EA0D
:1004F000030F1EBF0021002030BD5FEA545C05D110
:100500004000494128BF41F0004130BD14F580044E
:100510003CBF01F5801130BD01F0004545F0FE41C2
:1005200041F470014FF0000030BD7FEA645C1ABFF7
:10053000194610467FEA655C1CBF0B46024650EA2E
:10054000013406BF52EA033591EA030F41F400215A
:1005500030BD00BF90F0000F04BF0021704730B5E0
:100560004FF4806404F132044FF000054FF00001B5
:1005700050E700BF90F0000F04BF0021704730B576
:100580004FF4806404F1320410F0004548BF40424B
:100590004FF000013EE700BF42004FEAE2014FEAA0
:1005A00031014FEA02701FBF12F07F4393F07F4F7B
:1005B00081F06051704732F07F4208BF704793F07E
:1005C0007F4F04BF41F40021704730B54FF4607491
:1005D00001F0004521F000411CE700BF50EA010294
:1005E00008BF704730B54FF000050AE050EA01023D
:1005F00008BF704730B511F0004502D5404261EBAD
:1006000041014FF4806404F132045FEA915C3FF4ED
:10061000D8AE4FF003025FEADC0C18BF03325FEA8A
:10062000DC0C18BF033202EBDC02C2F1200300FA3B
:1006300003FC20FA02F001FA03FE40EA0E0021FA60
:1006400002F11444BDE600BF70B54FF0FF0C4CF44E
:10065000E06C1CEA11541DBF1CEA135594EA0C0F00
:1006600095EA0C0F00F0DEF82C4481EA030621EA3B
:100670004C5123EA4C5350EA013518BF52EA033576
:1006800041F4801143F4801338D0A0FB02CE4FF028
:100690000005E1FB02E506F00042E0FB03E54FF058
:1006A0000006E1FB03569CF0000F18BF4EF0010E50
:1006B000A4F1FF04B6F5007F64F5407404D25FEA4C
:1006C0004E0E6D4146EB060642EAC62141EA5551FF
:1006D0004FEAC52040EA5E504FEACE2EB4F1FD0C41
:1006E00088BFBCF5E06F1ED8BEF1004F08BF5FEABF
:1006F000500E50F1000041EB045170BD06F0004671
:1007000046EA010140EA020081EA0301B4EB5C041D
:10071000C2BFD4EB0C0541EA045170BD41F4801115
:100720004FF0000E013C00F3AB8014F1360FDEBF3A
:10073000002001F0004170BDC4F10004203C35DA16
:100740000C341BDC04F11404C4F1200500FA05F399
:1007500020FA04F001FA05F240EA020001F000423A
:1007600021F0004110EBD37021FA04F642EB0601B0
:100770005EEA430E08BF20EAD37070BDC4F10C04DA
:10078000C4F1200500FA04F320FA05F001FA04F29E
:1007900040EA020001F0004110EBD37041F100018A
:1007A0005EEA430E08BF20EAD37070BDC4F1200595
:1007B00000FA05F24EEA020E20FA04F301FA05F2FD
:1007C00043EA020321FA04F001F0004121FA04F2A5
:1007D00020EA020000EBD3705EEA430E08BF20EA75
:1007E000D37070BD94F0000F0FD101F000464000AF
:1007F00041EB010111F4801F08BF013CF7D041EA31
:10080000060195F0000F18BF704703F00046520034
:1008100043EB030313F4801F08BF013DF7D043EA05
:100820000603704794EA0C0F0CEA135518BF95EABB
:100830000C0F0CD050EA410618BF52EA4306D1D142
:1008400081EA030101F000414FF0000070BD50EA61
:10085000410606BF1046194652EA430619D094EAEB
:100860000C0F02D150EA013613D195EA0C0F05D1D5
:1008700052EA03361CBF104619460AD181EA030129
:1008800001F0004141F0FE4141F470014FF00000E1
:1008900070BD41F0FE4141F4780170BD70B54FF07C
:1008A000FF0C4CF4E06C1CEA11541DBF1CEA1355FC
:1008B00094EA0C0F95EA0C0F00F0A7F8A4EB0504DE
:1008C00081EA030E52EA03354FEA013100F08880D5
:1008D0004FEA03334FF0805545EA131343EA12639E
:1008E0004FEA022245EA111545EA10654FEA002653
:1008F0000EF000419D4208BF964244F1FD0404F50C
:10090000407402D25B084FEA3202B61A65EB030567
:100910005B084FEA32024FF480104FF4002CB6EB24
:10092000020E75EB030E22BFB61A754640EA0C00A4
:100930005B084FEA3202B6EB020E75EB030E22BFE4
:10094000B61A754640EA5C005B084FEA3202B6EB25
:10095000020E75EB030E22BFB61A754640EA9C00E4
:100960005B084FEA3202B6EB020E75EB030E22BFB4
:10097000B61A754640EADC0055EA060E18D04FEA72
:10098000051545EA16754FEA06164FEAC30343EA12
:1009900052734FEAC2025FEA1C1CC0D111F4801FDF
:1009A0000BD141EA00014FF000004FF0004CB6E7D8
:1009B00011F4801F04BF01430020B4F1FD0C88BF77
:1009C000BCF5E06F3FF6AFAEB5EB030C04BFB6EB82
:1009D000020C5FEA500C50F1000041EB045170BD75
:1009E0000EF0004E4EEA113114EB5C04C2BFD4EBA2
:1009F0000C0541EA045170BD41F480114FF0000E26
:100A0000013C90E645EA060E8DE60CEA135594EAA1
:100A10000C0F08BF95EA0C0F3FF43BAF94EA0C0FA4
:100A20000AD150EA01347FF434AF95EA0C0F7FF419
:100A300025AF104619462CE795EA0C0F06D152EA6D
:100A400003353FF4FDAE1046194622E750EA410651
:100A500018BF52EA43067FF4C5AE50EA41047FF462
:100A60000DAF52EA43057FF4EBAE12E74FF0FF3CC7
:100A700006E000BF4FF0010C02E000BF4FF0010C98
:100A80004DF804CD4FEA410C7FEA6C5C4FEA430C11
:100A900018BF7FEA6C5C1BD001B050EA410C0CBF60
:100AA00052EA430C91EA030F02BF90EA020F0020C2
:100AB000704710F1000F91EA030F58BF994208BF29
:100AC00090422CBFD8176FEAE37040F001007047E6
:100AD0004FEA410C7FEA6C5C02D150EA013C07D13D
:100AE0004FEA430C7FEA6C5CD6D152EA033CD3D088
:100AF0005DF8040B704700BF8446104662468C4682
:100B00001946634600E000BF01B5FFF7B7FF0028B4
:100B100048BF10F1000F01BD4DF808EDFFF7F4FFDD
:100B20000CBF012000205DF808FB00BF4DF808ED68
:100B3000FFF7EAFF34BF012000205DF808FB00BF8B
:100B40004DF808EDFFF7E0FF94BF012000205DF8AD
:100B500008FB00BF4DF808EDFFF7CEFF94BF012062
:100B600000205DF808FB00BF4DF808EDFFF7C4FF5B
:100B700034BF012000205DF808FB00BF4FEA410CA4
:100B80007FEA6C5C02D150EA013C0AD14FEA430C87
:100B90007FEA6C5C02D152EA033C02D14FF00000C4
:100BA00070474FF0010070474FEA410212F5001202
:100BB00015D211D56FF47873B3EB625212D94FEAA4
:100BC000C12343F0004343EA505311F0004F23FA8E
:100BD00002F018BF404270474FF00000704750EAE3
:100BE000013005D111F0004008BF6FF000407047A0
:100BF0004FF00000704700BF4A0011D212F50012FA
:100C000011D20DD56FF47873B3EB62520ED44FEA64
:100C1000C12343F0004343EA505323FA02F07047E4
:100C20004FF00000704750EA013002D14FF0FF3022
:100C300070474FF0000070474FEA4102B2F1E043C5
:100C400024BFB3F5001CDCF1FE5C0DD901F0004CB3
:100C50004FEAC0024CEA5070B2F1004F40EB830003
:100C600008BF20F00100704711F0804F21D113F12F
:100C70003872BCBF01F00040704741F480114FEA68
:100C80005252C2F11802C2F1200C10FA0CF320FAF1
:100C900002F018BF40F001004FEAC1234FEAD3230E
:100CA00003FA0CFC40EA0C0023FA02F34FEA430378
:100CB000CCE77FEA625307D150EA01331EBF4FF001
:100CC000FE4040F44000704701F0004040F0FE401C
:100CD00040F40000704700BF80F0004002E000BF19
:100CE00081F0004142001FBF5FEA410392EA030F17
:100CF0007FEA226C7FEA236C6AD04FEA1262D2EB61
:100D00001363C1BFD218414048404140B8BF5B4265
:100D1000192B88BF704710F0004F40F4000020F0FE
:100D20007F4018BF404211F0004F41F4000121F014
:100D30007F4118BF494292EA030F3FD0A2F101025E
:100D400041FA03FC10EB0C00C3F1200301FA03F19C
:100D500000F0004302D5494260EB4000B0F5000FBF
:100D600013D3B0F1807F06D340084FEA310102F17E
:100D70000102FE2A51D2B1F1004F40EBC25008BF30
:100D800020F0010040EA03007047490040EB0000FA
:100D9000013A28BFB0F5000FEDD2B0FA80FCACF1FB
:100DA000080CB2EB0C0200FA0CF0AABF00EBC25028
:100DB00052421843BCBFD0401843704792F0000F16
:100DC00081F4000106BF80F400000132013BB5E769
:100DD0004FEA41037FEA226C18BF7FEA236C21D0DF
:100DE00092EA030F04D092F0000F08BF0846704744
:100DF00090EA010F1CBF0020704712F07F4F04D112
:100E0000400028BF40F00040704712F100723CBF24
:100E100000F50000704700F0004343F0FE4040F44E
:100E2000000070477FEA226216BF08467FEA23630C
:100E30000146420206BF5FEA412390EA010F40F4F7
:100E4000800070474FF0000304E000BF10F0004343
:100E500048BF40425FEA000C08BF704743F096432A
:100E600001464FF000001CE050EA010208BF704745
:100E70004FF000030AE000BF50EA010208BF7047CC
:100E800011F0004302D5404261EB41015FEA010CE1
:100E900002BF84460146002043F0B64308BFA3F1D9
:100EA0008053A3F50003BCFA8CF2083AA3EBC253BB
:100EB00010DB01FA02FC634400FA02FCC2F12002DA
:100EC000BCF1004F20FA02F243EB020008BF20F011
:100ED0000100704702F1200201FA02FCC2F1200277
:100EE00050EA4C0021FA02F243EB020008BF20EA6C
:100EF000DC70704753B94AB9002908BF00281CBFED
:100F00004FF0FF314FF0FF3000F0A4B9ADF1080C05
:100F10006DE904CE00F03CF8DDF804E0DDE90223E1
:100F200004B0704738B50022002304460D46FFF791
:100F3000FDFD28B920462946BDE8384000F00AB832
:100F4000204605F1004100F005F8404261EB410107
:100F500038BD00BFD0B50C4B002206460F46FFF748
:100F600073FBFFF749FE0446FFF7F4FA074B002234
:100F7000FFF76AFB02460B4630463946FFF7ACF9ED
:100F8000FFF73AFE2146D0BD0000F03D0000F041E1
:100F90002DE9F047089D04468C46002B40F08380E5
:100FA0008A42174647D9B2FA82F242B1C2F1200012
:100FB00024FA00F09140974040EA010C94404FEA37
:100FC0001748230CBCFBF8F61FFA87FE08FB16C176
:100FD00043EA014306FB0EF1994209D9FB1806F1D9
:100FE000FF3080F01981994240F21681023E3B4465
:100FF0005B1AA4B2B3FBF8F008FB103344EA0344D5
:1010000000FB0EFEA64509D93C1900F1FF3380F024
:101010000581A64540F2028102383C4440EA064080
:10102000A4EB0E0400261DB1D4400023C5E9004303
:101030003146BDE8F08702B9FFDEB2FA82F2002A3B
:1010400050D1CB1B4FEA174E1FFA87F80126B3FB8E
:10105000FEFC210C0EFB1C3341EA034108FB0CF3A0
:101060008B4207D979180CF1FF3002D28B4200F283
:10107000E9808446C91AA3B2B1FBFEF00EFB101141
:1010800043EA014408FB00F8A04507D93C1900F1E8
:10109000FF3302D2A04500F2D9801846A4EB080421
:1010A00040EA0C40BFE78B4209D9002D00F0B18027
:1010B0000026C5E9000130463146BDE8F087B3FAA5
:1010C00083F6002E4AD18B4202D3824200F2B880CE
:1010D000841A61EB030101208C46002DA8D0C5E9DC
:1010E000004CA5E7C2F1200320FA03F6974001FA6D
:1010F00002F04FEA174ED9403043030CB1FBFEF625
:101100001FFA87F80EFB161143EA014306FB08F1AC
:10111000994204FA02F409D9FB1806F1FF3C80F069
:101120008D80994240F28A80023E3B445B1A81B234
:10113000B3FBFEF00EFB103341EA034100FB08F362
:101140008B4207D9791800F1FF3C73D28B4271D9D9
:1011500002383944CB1A40EA064678E7C6F1200C3B
:1011600003FA06F422FA0CF31C4320FA0CF701FAF6
:1011700006F34FEA144E21FA0CF11F433B0CB1FB6E
:10118000FEF91FFA84F80EFB191143EA014109FB2D
:1011900008FA8A4502FA06F200FA06F308D961183D
:1011A00009F1FF3048D28A4546D9A9F10209214404
:1011B000A1EB0A01BFB2B1FBFEF00EFB101147EA32
:1011C000014700FB08F8B84507D9E71900F1FF31DE
:1011D0002ED2B8452CD90238274440EA0940A7EB63
:1011E0000807A0FB02894F45C64649461AD317D0C7
:1011F0005DB1B3EB0E0267EB010707FA0CFCF2409E
:101200004CEA0202F740C5E9002700263146BDE856
:10121000F0872E4628460BE70646E9E61846FDE627
:101220004345E5D2B8EB020E69EB04010138DFE774
:101230000846D2E760468DE78146B9E7664675E71E
:1012400030464AE7ACF1020C394413E702383C441B
:1012500024E700BF704700BF30B595B034220021AD
:1012600007A808F038FA0024029403940494059423
:1012700006940094194B1A6C42F080521A641B6C4D
:1012800003F080530093009B0194154B1A6842F4BD
:1012900040421A601B6803F440430193019B0225FE
:1012A000079501230A9310230B930D950E940F932A
:1012B000C023109311951295139507A807F00EFA05
:1012C0000F230293039504944FF4805305930694DF
:1012D000032102A807F02EF915B030BD00380240F6
:1012E0000070004030B585B007F086FFFFF7B4FF0F
:1012F00001F082FA01F0B8FB01F060FF01F0EAFEB4
:1013000001F0F6FB01F0D8FA01F020FD01F050FDEC
:1013100001F082FD01F086FC04F06AFE02F03AF86A
:1013200002F0AEF902F088F802F0F2FA85E004F07B
:10133000D5FB04F081F902F0C1FB002004F0D2FEDD
:10134000002004F06BFE002475E004F003FB002095
:1013500001F0C0F8012004F091FF9FED4D0A04F068
:10136000B7FF41F2883007F073FFE2E7002001F099
:10137000B1F8002004F07CFF012004F07FFF9FED16
:10138000450A04F0AFFF43F6982007F061FFD0E76D
:10139000012001F09FF843F6982007F059FFC8E7B5
:1013A00041F2883007F054FFC3E7002001F092F8C3
:1013B000012004F063FF00F083FFBAE7022001F090
:1013C00089F8012004F05AFF9FED330A04F080FFF2
:1013D00042F2107007F03CFFABE704F079FCA8E79D
:1013E0002E4D2F4C2B4622460521084602F076FC56
:1013F00000230293012301932A4B009305231A46ED
:101400002946204603F0F6FF93E7274D01224FF4CB
:101410006451284607F00CFC4FF42F7007F018FFBA
:1014200000224FF46451284607F002FC4FF49670F6
:1014300007F00EFF0134022CE7DD04F04FFA04F050
:1014400001F90F283FF675AF01A353F820F000BF54
:101450002F1300084B1300086D13000891130008A8
:10146000A1130008AB130008BD130008DB1300082C
:101470003313000833130008331300083313000834
:10148000331300083313000833130008E113000876
:10149000AE47213FD0537B42CDCCAC3F2C02002045
:1014A0002C060020000000200000024070470000D1
:1014B00008B501F0A7FF034A1388C31A108018B2B9
:1014C00008BD00BF1400002008B501F0A1FF034AC9
:1014D0001388C31A108018B208BD00BF1200002084
:1014E00008B52DED028BFFF7E3FF07EE900AF8EE4B
:1014F000E77A9FED2B7A67EE877ADFED2A8A87EE0F
:10150000A88AFFF7E1FF07EE900AF8EEE77A9FED71
:10151000267A67EE877A87EEA87ADFED246A68EE8E
:10152000267A234BC3ED007A27EE267A214B83EDF2
:10153000007A214BD3ED006AF4EEE67AF1EE10FA70
:1015400017DDC3ED007A1D4BD3ED006AB4EEE67AE9
:10155000F1EE10FA18DD83ED007A77EE877AB6EEB9
:10156000007A67EE877A164BC3ED007ABDEC028BEA
:1015700008BD144BD3ED006AF4EEE67AF1EE10FAF2
:10158000E1D5C3ED007ADEE70F4BD3ED006AB4EE90
:10159000E67AF1EE10FAE0D583ED007ADDE700BFE0
:1015A0007B59C4C500C07F447B59C4450339D13B36
:1015B000A40A0020980A0020A80A00209C0A002003
:1015C000880A0020AC0A0020A00A0020014B93EDFD
:1015D000000A7047A40A0020014B93ED000A7047EF
:1015E000A80A0020014B93ED000A7047AC0A0020C6
:1015F000014B93ED000A70479C0A00200023044A27
:101600001360044A1360044A1360044A136070476D
:10161000AC0A0020A80A0020A00A00209C0A002092
:10162000014B93ED000A7047880A0020000000007B
:1016300038B52DED028B3A4B1A883A4BA3FB0213B7
:10164000DB0803EB8303A2EB43039CB2FFF7E8FF45
:10165000354A02EBC40484ED000A02F091F884EDEF
:10166000010ADFED327AB0EE677A0023092B0DD83C
:101670002D4A02EBC302D2ED006A37EE267AD2ED94
:10168000016A77EEA67A01339BB2EFE7F2EE046AC5
:10169000C7EE268A87EEA68AB5EEC08AF1EE10FA6A
:1016A00030D4F6EE007AB4EEE78AF1EE10FA4CBFD1
:1016B000012300230BB19FED1D8A18EE100AFEF7DF
:1016C0006BFF15A3D3E90023FEF7BEFF0022184BE2
:1016D000FEF7BAFF04460D4618EE900AFEF75CFFCF
:1016E00022462B46FEF7FAFDFFF7A6FA114B1860CB
:1016F000114B83ED008A0A4A138801331380BDEC35
:10170000028B38BDFEEE007AB4EEE78AF1EE10FAF5
:10171000CCBF01230023CDE77B14AE47E17A843FA1
:101720002C0A0020CDCCCCCC300A002000000000D8
:101730000000E03F8C0A0020800A0020014B93ED5E
:10174000000A70478C0A0020014B93ED000A704795
:10175000800A00200000000070B5FFF7EFFF10EED8
:10176000100AFEF719FF0BA3D3E90023FEF76CFF65
:1017700004460D46064E3068FEF70EFF22462B4605
:10178000FEF7ACFDFFF758FA306070BDAFF3008094
:10179000840A0020FCA9F1D24D62503F014B93ED29
:1017A000000A7047840A0020014B83ED000A70474D
:1017B000840A002008B501F0FFFF024B83ED000A08
:1017C00008BD00BF940A0020014B93ED000A70474A
:1017D000940A00200000000070B50D4B1868FEF759
:1017E000DBFE09A3D3E90023FEF72EFF04460D46D6
:1017F000084E3068FEF7D0FE22462B46FEF76EFDFF
:10180000FFF71AFA306070BDFCA9F1D24D62503F6B
:10181000940A0020900A002008B5FFF7CBFFFFF7DD
:101820009BFFFFF7D9FF08BD014B93ED000A7047FE
:10183000900A0020014B83ED000A7047900A0020B7
:10184000014B93ED000A7047BC0A0020014B93ED59
:10185000000A7047B80A002070B52DED048B04F023
:1018600013FDF0EE408AFFF769FF78EEC08A04F0BE
:1018700011FDB0EE408AFFF7A7FF38EE408A18EE60
:10188000900AFEF789FE28A3D3E90023FEF7DCFEC9
:1018900004460D461E4E3068FEF77EFE22462B465D
:1018A000FEF71CFDFFF7C8F909EE100A306018EECC
:1018B000100AFEF771FE14A3D3E90023FEF7C4FE5D
:1018C00004460D46134E3068FEF766FE22462B4650
:1018D000FEF704FDFFF7B0F907EE900A30609FEDC8
:1018E0000E0A68EE808A79EE288A9FED0C0A28EEAF
:1018F000008A37EE888A0A4BC3ED008A094B83EDD4
:10190000008ABDEC048B70BDFCA9F1D23DC9823FB9
:10191000B00A0020B40A0020D1222B40AD2FB23EE5
:10192000BC0A0020B80A00208B6CE7FBB935A43F45
:101930000023024A1360024A13607047B00A002075
:10194000B40A00200000000010B5094C2068FEF722
:1019500023FE05A3D3E90023FEF776FEFFF76CF91B
:10196000206010BDAFF30080AE47E17A14AEEF3FC8
:10197000B40A0020000000000D4B1B7873B90D4B1A
:1019800007A1D1E90001C3E900010B4B06A1D1E990
:101990000001C3E90001064B01221A70704700BF25
:1019A000E2AB1DC539EA983F1442075DC2A1973FDB
:1019B000D00B0020C00B0020C80B002008B5044B42
:1019C000D3E90001FFF738F900EE100A08BD00BFA7
:1019D000C80B002008B5044BD3E90001FFF72CF930
:1019E00000EE100A08BD00BFC00B0020014B1878A4
:1019F000704700BF160000202DE9F0472DED028B47
:101A000082B0012002F0C0F855EC104B8DED000BB8
:101A1000022002F0B9F8B0EE408AF0EE608A6E4B18
:101A2000D3E9002320462946FEF756FC04460D461E
:101A300000220023FFF77AF800283ED1674BD3E954
:101A4000002351EC180BFEF747FC06460F46002218
:101A50000023FFF76BF8002833D1614BB3F800A0E7
:101A6000604BA3FB0A23DB0803EB8303AAEB4303CE
:101A70009BB25D4A02EB0313C3E90067C3E9024569
:101A8000002400260027B046B946092C1DD8564D23
:101A900005EB0415D5E9002340464946FEF71EFC38
:101AA00080468946D5E9022330463946FEF716FCC2
:101AB00006460F460134A4B2E7E705F100431D4690
:101AC000BCE707F100431F46C7E70022474B4046EB
:101AD0004946FEF7E3FE04460D460022434B3046DE
:101AE0003946FEF7DBFE0AF1010A3D4BA3F800A0E0
:101AF00033A3D3E90023FFF737F848B33C4B32A1B7
:101B0000D1E90001C3E900012DA3D3E90023204658
:101B10002946FFF729F810B3364B2BA1D1E9000174
:101B2000C3E90001324BD3E90045DDE9002320463B
:101B30002946FFF719F8C8B153EC182B2D49D1E904
:101B40000001FFF711F888B12B4B02221A7017E041
:101B5000274B1FA1D1E90001C3E90001D4E7254BC0
:101B60001BA1D1E90001C3E90001DBE7DDE90023A6
:101B700020462946FEF7F8FF78B11F4B01221A7064
:101B8000154B9DED007B83ED007B144B83ED008BAB
:101B900002B0BDEC028BBDE8F08753EC182B154961
:101BA000D1E90001FEF7E0FF18B1134B00221A70D3
:101BB000E6E7114B03221A70E2E700BFAFF30080A3
:101BC000D2FBC6D79E59123FBA1E85EB51B88E3F45
:101BD000EC51B81E85EBA13FA00B0020B00B0020FC
:101BE000C00A0020CDCCCCCCC80A00200000244084
:101BF000A80B0020B80B00201600002000000000F9
:101C0000F8B52D4B1B78012B05D0022B2AD0B3B190
:101C10009FED270BF8BD294BD3E90045012001F0CA
:101C2000B3FF53EC102B20462946FEF755FB00224C
:101C30004FF04043FEF708FD41EC100BEAE7204B64
:101C4000D3E90045022001F09FFF53EC102B204602
:101C50002946FEF741FB02460B46FEF73FFB41ECEF
:101C6000100BD7E7164BD3E90045022001F08CFF9B
:101C700053EC102B20462946FEF72EFB04460D465A
:101C80000E4BD3E90067012001F07EFF53EC102BCF
:101C900030463946FEF720FB02460B4620462946D1
:101CA000FEF71AFB41EC100BB4E700BFAFF3008066
:101CB000000000000000000016000020C00B002003
:101CC000C80B002038B52DED028BFFF799FF51ECC2
:101CD000100B0022114BFEF7B7FC04460D46FFF730
:101CE0009FFCF1EE408AFFF79FFDB0EE408A04F0C2
:101CF000E9FA38EE408A68EE887A17EE900AFEF725
:101D00004BFC02460B4620462946FEF7E7FAFEF753
:101D100093FF034B1860BDEC028B38BD0000694097
:101D2000D80B0020014B93ED000A7047D80B002020
:101D30002DE9F04F2DED088B87B0002001F024FF36
:101D400057EC106B032001F01FFF55EC104B74A3F0
:101D5000D3E9002330463946FEF7BEFA06460F4661
:101D600071A3D3E9002320462946FEF7B5FA0446BD
:101D70000D4602460B4630463946FEF7AFFA80461E
:101D8000894632463B4620462946FEF7A5FA68A317
:101D9000D3E90023FEF782FD06460F4666A3D3E98A
:101DA000002340464946FEF74FFC594CD4E9002336
:101DB000FEF794FA41EC1B0BC4E9000146A3D3E9FA
:101DC000002330463946FEF73FFC524CD4E900234D
:101DD000FEF784FA41EC1A0BC4E9000140A3D3E9F1
:101DE000002340464946FEF72FFC04460D463EA31D
:101DF000D3E9002330463946FEF726FCCDE902013F
:101E0000DFF83CB1DBE90023CDE9008940464946D3
:101E1000FEF762FA36A3D3E90023FEF715FCDFF8DC
:101E20002491D9E90023FEF759FA33A3D3E900231B
:101E3000FEF734FD41EC190BDFF80CA1DAE90023C1
:101E400030463946FEF748FA2DA3D3E90023FEF7C2
:101E5000FBFBDFF8F880D8E90023FEF73FFA2AA35E
:101E6000D3E90023FEF71AFD41EC180B22462B465E
:101E700051EC1B0BFEF732FA53EC192BFEF72EFA3E
:101E8000CDE90401DDE9022351EC1A0BFEF726FA35
:101E900053EC182BFEF722FA04460D46DDE9040147
:101EA000FEF7CAFE1C4B186020462946FEF7C4FE0A
:101EB0001A4B18609DED007B8BED007BCAE9006733
:101EC00089ED009B88ED008B07B0BDEC088BBDE869
:101ED000F08F00BFAFF3008060E5D0229BA5643F88
:101EE00000000000631A5F40000000E08A9E194075
:101EF00000000060A2AB5340C1CAA1852062F03F40
:101F000000000000236C22407368916D81B6F03FA1
:101F1000780B0020900B0020DC0B0020D40B00205D
:101F2000000000200681853F000000A09999893FAC
:101F3000000000E0BED5A23F08AC1C5AD4DF9A3F97
:101F4000800B0020700B0020980B0020880B0020D5
:101F5000014B93ED000A7047DC0B0020014B93ED21
:101F6000000A7047D40B0020002200230949C1E970
:101F700000230949C1E900230849C1E900230849B0
:101F8000C1E900230749C1E900230749C1E900234A
:101F9000704700BF780B0020900B0020800B0020C2
:101FA000980B0020700B0020880B00200000000020
:101FB000F8B5012000F08EFA454B00221A8022E08D
:101FC000032001F0E1FD53EC102B3BA1D1E900010E
:101FD000FEF782F9064601F1004730E0002001F0EB
:101FE000D3FD53EC102B36A1D1E90001FEF774F9B3
:101FF000044601F100453EE0354B00221A80344B87
:102000001B88632B4AD8032001F0BEFD53EC102B34
:1020100029A1D1E90001FEF75FF900220023FEF7B4
:1020200085FD0028CCD1032001F0AEFD53EC102B30
:1020300021A1D1E90001FEF74FF906460F46002025
:1020400001F0A2FD53EC102B1DA1D1E90001FEF718
:1020500043F900220023FEF769FD0028BED10020CD
:1020600001F092FD53EC102B15A1D1E90001FEF710
:1020700033F904460D4622462B4630463946FEF7D4
:1020800073FD08B134463D460FA3D3E90023204633
:102090002946FEF769FD0028B1D0ADE704F006F946
:1020A000FFF782FB04F00EF9FFF7C4FB002000F0FD
:1020B00011FAF8BDAFF30080000000A09999893FA4
:1020C000000000200681853F613255302AA9333F48
:1020D000680B0020054A138801339BB21380642BE0
:1020E00002D9134664221A80704700BF680B002093
:1020F00008B5FFF741FCFFF77FFCFFF7E3FDFFF7B3
:1021000017FEFFF7E7FF08BD08B52DED028B04F0C1
:10211000C7F8B0EE408A04F0C9F838EE408AB5EE50
:10212000C08AF1EE10FA13D404F0BAF8B0EE408A87
:1021300004F0BCF838EE408ADFED0E7AB4EEE78AA0
:10214000F1EE10FA4CBF01200020BDEC028B08BD5F
:1021500004F0A6F8B0EE408A04F0A8F838EE408A01
:10216000DFED057AB4EEE78AF1EE10FACCBF01207C
:102170000020EAE717B7513917B751B908B52DED67
:10218000028B04F099F8B0EE408A04F09BF838EE28
:10219000408AB5EEC08AF1EE10FA13D404F08CF840
:1021A000B0EE408A04F08EF838EE408ADFED0E7A09
:1021B000B4EEE78AF1EE10FA4CBF01200020BDEC2E
:1021C000028B08BD04F078F8B0EE408A04F07AF88B
:1021D00038EE408ADFED057AB4EEE78AF1EE10FAC8
:1021E000CCBF01200020EAE70AD7A33B0AD7A3BB54
:1021F00008B5002004F036F8002004F03FF89FED09
:10220000040A04F065F8FFF77FFF0028FBD008BD43
:1022100022727A3C08B5002004F024F8002004F073
:102220002DF89FED040A04F053F8FFF76DFF002826
:10223000FBD008BDEC51383D08B5002004F012F881
:10224000012004F01BF89FED040A04F041F8FFF7A9
:102250005BFF0028FBD008BDEC51383D08B50020DD
:1022600004F000F8002004F009F89FED040A04F0DF
:102270002FF8FFF749FF0028FBD008BDEC51B83D0F
:1022800008B5012003F0F4FF9FED040A04F02AF8DA
:10229000FFF774FF0028FBD008BD00BFDA0FC9BFED
:1022A00008B5002003F0E4FF9FED040A04F01AF8DB
:1022B000FFF764FF0028FBD008BD00BFDA0FC93F5D
:1022C00008B5002003F0D4FF9FED040A04F00AF8DB
:1022D000FFF754FF0028FBD008BD00BFDA0F4940CC
:1022E000014B00221A707047E30B00200023034AC1
:1022F0001370034A1370034A13707047E00B0020F9
:10230000E20B0020E10B0020014B01221A70704704
:10231000E00B0020014B01221A707047E20B0020F5
:10232000014B01221A707047E10B002008B50C4BDD
:102330001B784BB10A4B1B78012B08D0084B0122AC
:102340001A70FFF7D3FF08BDFFF764FFF2E7022022
:1023500000F0C0F8FFF782FF002000F0BBF8EDE7C7
:10236000E30B002008B5134B1B783BB9124B1B78CD
:10237000012B0DD0FFF784FFFFF74CFF0D4B1B78AF
:10238000012B08D00B4B01221A70FFF7AFFF08BDDD
:10239000FFF70EFEEEE7FFF74FFF074B1B78012B11
:1023A00004D0FFF76DFFFFF735FFEBE7FFF700FE07
:1023B000F7E700BFE30B0020E00B002008B5134B4C
:1023C0001B783BB9124B1B78012B0DD0FFF768FF30
:1023D000FFF720FF0D4B1B78012B08D00B4B012280
:1023E0001A70FFF783FF08BDFFF7E2FDEEE7FFF786
:1023F00023FF074B1B78012B04D0FFF751FFFFF79A
:1024000009FFEBE7FFF7D4FDF7E700BFE30B002080
:10241000E00B002008B52B4B1B783BB92A4B1B78EF
:10242000012B0DD0FFF74CFFFFF7F4FE254B1B7877
:10243000012B20D0234B01221A70FFF757FF08BD54
:10244000FFF7B6FD214B1B78012B06D0204B1B78E4
:10245000012B09D0FFF734FFE6E7FFF711FFFFF785
:10246000A7FDFFF70DFFDFE7FFF71AFFFFF7A0FD5E
:10247000FFF716FFD8E7FFF7DFFE134B1B78012BA2
:1024800004D0FFF71DFFFFF7C5FED3E7FFF790FD70
:102490000E4B1B78012B06D00D4B1B78012B09D05E
:1024A000FFF70EFFEFE7FFF7EBFEFFF781FDFFF70A
:1024B000E7FEE8E7FFF7F4FEFFF77AFDFFF7F0FE2F
:1024C000E1E700BFE30B0020E00B0020E20B00205F
:1024D000E10B0020014B1870704700BFE40B002097
:1024E00008B5FFF7ADF9044B83ED000AFFF7AEF92D
:1024F000024B83ED000A08BDF80B0020EC0B002016
:1025000008B5FFF725FD044B83ED000AFFF726FD14
:10251000024B83ED000A08BDF80B0020EC0B0020F5
:1025200038B5FFF763FA03282AD8DFE800F0022A5B
:10253000527AFFF785F9444B83ED000AFFF7F2FB6F
:1025400010EE100AFEF728F83BA3D3E90023FEF7AC
:102550007BF804460D46FFF779F910EE100AFEF7F6
:102560001BF837A3D3E90023FEF76EF802460B46AB
:1025700020462946FDF7B2FEFEF75EFB334B18609E
:1025800038BDFFF75DF9304B83ED000AFFF7CAFB5A
:1025900010EE100AFEF700F827A3D3E90023FEF798
:1025A00053F804460D46FFF751F910EE100AFDF7F7
:1025B000F3FF23A3D3E90023FEF746F802460B46B8
:1025C00020462946FDF78AFEFEF736FB1F4B1860B2
:1025D000D6E7FFF735F91C4B83ED000AFFF7A2FBA6
:1025E00010EE100AFDF7D8FF13A3D3E90023FEF77E
:1025F0002BF804460D46FFF729F910EE100AFDF7F7
:10260000CBFF0FA3D3E90023FEF71EF802460B46CB
:1026100020462946FDF762FEFEF70EFB0B4B1860C5
:10262000AEE7FFF70DF9084B83ED000AFFF70EF94F
:10263000064B83ED000AA3E7333333333333D33F01
:10264000666666666666E63FF80B0020EC0B0020C7
:102650000023024A1360024A13607047F40B002003
:10266000F00B002008B5094B1B78012B08D0022B7A
:1026700009D013B1FFF7ECFF01E0FFF731FF08BD10
:10268000FFF73EFFFBE7FFF74BFFF8E7E40B002007
:1026900008B50C4B1B78012B06D0022B07D003B1D9
:1026A00008BDFFF761FCFBE7FFF742F9F8E7FFF72A
:1026B0009DF9032802D1FFF757FCF1E7FFF744F932
:1026C000F9E700BFE40B00200B4BD3ED007A0B4B76
:1026D00093ED006A37EE867AF6EE006A27EE267AE8
:1026E000074B83ED007A77EEC67A67EEA67A054B44
:1026F000C3ED007A704700BFF80B0020EC0B002000
:10270000F40B0020F00B002008B52DED028B114BCF
:1027100093ED008A00F02CFEC8EE007A9FED0E8A41
:1027200067EE887AFDEEE77A0C4B17EE902A1A8056
:102730000B4BD3ED008A00F01BFEC8EE807A67EEEB
:10274000887AFDEEE77A074B17EE902A1A80BDECE7
:10275000028B08BDF40B002000007A44E80B002037
:10276000F00B0020E60B00200C4BB3F90030002BDF
:102770000BDD2833094A1380094BB3F90030002BD5
:1027800007DD2833064A138070472D3B034A138028
:10279000F2E72D3B024A1380704700BFE80B002090
:1027A000E60B002008B5054BB3F9000003F036FC3A
:1027B000034BB3F9000003F095FC08BDE60B0020C5
:1027C000E80B002008B5FFF74DFFFFF761FFFFF7AB
:1027D0007BFFFFF799FFFFF7C7FFFFF7E3FF08BD98
:1027E000014BB3F900007047E80B0020014BB3F92F
:1027F00000007047E60B00202DE9F04389B000246B
:10280000039404940594069407940194274B1A6B3F
:1028100042F001021A631A6B02F001020192019A5E
:1028200002941A6B42F002021A631B6B03F002035C
:102830000293029B1E4D224643F6F011284606F0F5
:10284000F7F9DFF8708022464FF48051404606F0D9
:10285000EFF9F023039301270497059403260696C6
:1028600003A9284606F004F94FF00209CDF80C90B0
:102870000494059403A9404606F0FAF84FF48053F7
:10288000039304970594069603A9404606F0F0F8D2
:102890004FF4645303930497CDF81490069603A95C
:1028A000284606F0E5F809B0BDE8F083003802409C
:1028B000000002400004024000B585B000230093F0
:1028C0000193029303933048304A02604FF4803200
:1028D0004260836001220261037680F820304FF06D
:1028E0004051C1624FF000718162C3600521C16136
:1028F00080F83020436103F063FF002831D10823C2
:102900000093012301930323029369461E4804F0B8
:102910006FF848BB002300930223019369461A48CD
:1029200004F066F818BB0123009303230193694662
:10293000154804F05DF8E8B90223009304230193DD
:102940006946114804F054F8B8B9032300930523ED
:10295000019369460C4804F04BF888B905B05DF85E
:1029600004FBFEF7A3FDCAE7FEF7A0FDD2E7FEF7E2
:102970009DFDD8E7FEF79AFDDEE7FEF797FDE4E759
:10298000FEF794FDEAE700BF90FA01200020014025
:1029900070B588B0002303930493059306930793BF
:1029A000026803F1804303F590339A4201D008B0E6
:1029B00070BD04460025009503F58C335A6C42F433
:1029C00080725A645A6C02F480720092009A0195E7
:1029D0001A6B42F001021A631A6B02F001020192B3
:1029E000019A02951A6B42F002021A631B6B03F004
:1029F00002030293029B0F2303930326049605957B
:102A000003A9154806F034F80123039304960595AD
:102A100003A9124806F02CF81148124B03604560D8
:102A20008560C5604FF4806303614FF400634361C8
:102A30004FF4005383614FF48073C3614FF440330C
:102A40000362456206F07AF918B9054BA3639C63EB
:102A5000ADE7FEF72BFDF8E700000240000402405E
:102A6000D8FA01201064024010B582B0002400940E
:102A70001E4B1A6B42F400121A631A6B02F4001216
:102A80000092009A01941A6B42F480021A631B6B45
:102A900003F480030193019B224621460E2006F099
:102AA0002DFB0E2006F05EFB224621460F2006F08D
:102AB00025FB0F2006F056FB22462146382006F063
:102AC0001DFB382006F04EFB22460121392006F07E
:102AD00015FB392006F046FB224601213A2006F07C
:102AE0000DFB3A2006F03EFB02B010BD003802405C
:102AF00008B50F480F4B03604FF482734360002307
:102B00008360C36002220261012242614FF40072BD
:102B100082612022C2610362436283620A23C3622C
:102B200004F0FCF800B908BDFEF7C0FCFBE700BFED
:102B300038FB01200038004030B589B000230393F2
:102B400004930593069307930268304B9A4201D091
:102B500009B030BD04460025019503F500331A6C19
:102B600042F480421A641A6C02F480420192019A83
:102B700002951A6B42F002021A631B6B03F0020308
:102B80000293029B4FF46043039302230493059541
:102B9000032306930523079303A91D4805F068FF47
:102BA0001C481D4B036045608560C5604FF4806321
:102BB000036145618561C5614FF40033036245627D
:102BC00006F0BCF8D8B9134BE3649C631348144B6C
:102BD00003600023436040228260C3604FF4806240
:102BE000026143618361C3614FF400320262436258
:102BF00006F0A4F830B9094BA3649C63A8E7FEF77C
:102C000055FCE0E7FEF752FCF5E700BF0038004056
:102C10000004024090FB012058600240F0FB0120BC
:102C20007060024010B596B000241294139414946E
:102C300015941094119409940A940B940C940D9487
:102C40000E940F942022214601A806F044FD3D4831
:102C50003D4B0360446084604FF6FF13C360046122
:102C60004461846104F056FE002850D14FF4805333
:102C7000129312A9334804F0CAFF00284AD1314800
:102C800004F07CFE002848D12E4804F05DFE0028A8
:102C900046D100231093119310A92A4805F0CCF8CF
:102CA000002840D16023099301230A9300220B924C
:102CB0000C920D920E920F9209A9224804F02DFF5A
:102CC000002833D141F658330A93042209A91D483C
:102CD00004F023FF68BB302309934FF4B4530A93E5
:102CE000082209A9174804F0E9FE28BB0023019334
:102CF00002930393049305934FF4005206920893B2
:102D000001A9104805F0BBF8C8B916B010BDFEF710
:102D1000CDFBABE7FEF7CAFBB1E7FEF7C7FBB3E7B6
:102D2000FEF7C4FBB5E7FEF7C1FBBBE7FEF7BEFB52
:102D3000C8E7FEF7BBFBCEE7FEF7B8FBD6E7FEF72A
:102D4000B5FBE2E7F4FD01200000014000B58DB0C5
:102D500000230193029315484FF0804202604360C4
:102D600083604FF6FF72C2600361836103220392A6
:102D700004930122059206930793089309920A93FC
:102D80000B9303A904F014FE50B90023019302939E
:102D900001A9064805F050F828B90DB05DF804FB0C
:102DA000FEF784FBF1E7FEF781FBF6E744FE012026
:102DB00000B58DB00023019302931548154A0260B7
:102DC000436083604FF6FF72C26003618361032238
:102DD00003920493012205920693079308930992A4
:102DE0000A930B9303A904F0E3FD50B90023019368
:102DF000029301A9064805F01FF828B90DB05DF847
:102E000004FBFEF753FBF1E7FEF750FBF6E700BFCC
:102E100058FD01200004004000B583B0002300935A
:102E200001930F480F4A026003224260836045F617
:102E3000BF52C260836104F06DFD50B9002300935E
:102E400001936946064804F0F7FF28B903B05DF81E
:102E500004FBFEF72BFBF1E7FEF728FBF6E700BFCC
:102E6000B4FD01200010004010B584B00368404A52
:102E7000934207D03F4A934258D03F4A934262D090
:102E800004B010BD04460023019302F59C32516C3E
:102E900041F001015164526C02F001020192019A69
:102EA0003648374A02604FF04062426040228260FA
:102EB000C3604FF4806202614FF4006242614FF4DC
:102EC000005282614FF48072C2614FF4003202629C
:102ED000436205F033FF18BB284B63629C632948AB
:102EE000294B03604FF0406343604023836000231D
:102EF000C3604FF4806202614FF4006242614FF49C
:102F0000005282614FF48072C2614FF4003202625B
:102F1000436205F013FF30B91A4BA3629C63AFE71D
:102F2000FEF7C4FAD8E7FEF7C1FAF5E700230293EB
:102F3000164B1A6C42F004021A641B6C03F0040373
:102F40000293029B9CE700220392104B196C41F004
:102F5000100119641B6C03F010030393039B0221FF
:102F6000362006F0CBF8362006F0FCF888E700BFE4
:102F700000000140000800400010004050FC01200B
:102F800028640240F8FC01204064024000380240FE
:102F900070B58AB0002305930693079308930993AD
:102FA0000368B3F1804F04D02F4A93423AD00AB05D
:102FB00070BD0024009403F50E331A6C42F0010238
:102FC0001A641A6C02F001020092009A01941A6BC2
:102FD00042F001021A631A6B02F001020192019A97
:102FE00002941A6B42F002021A631B6B03F0020395
:102FF0000293029B4FF40043059302260696079422
:1030000008940125099505A9184805F031FD082304
:103010000593069607940894099505A9144805F0A8
:1030200027FDC4E700220392124B196C41F0020104
:103030001964196C01F00201039103990492196B50
:1030400041F0020119631B6B03F002030493049B1C
:10305000302305930223069307920892099305A94A
:10306000034805F005FDA2E700040040000002400F
:10307000000402400038024000B587B000230193ED
:1030800002930393049305930268104B9A4202D073
:1030900007B05DF804FB0021009103F50C331A6BB7
:1030A00042F002021A631B6B03F002030093009BC1
:1030B0004FF470730193022302930391032204924D
:1030C000059301A9024805F0D3FCE1E700080040A0
:1030D0000004024000B58FB000230A930B930C93B9
:1030E0000D9308930993019302930393049305931B
:1030F000069307932F48304A02604360836040F292
:10310000BF32C2600361836104F004FC002839D13E
:103110004FF480530A930AA9264804F078FD00284A
:1031200033D1244804F02AFC002831D1002308932D
:10313000099308A91F4804F07FFE60BB7023019328
:10314000002202920392059201A91A4804F0E5FCBC
:1031500020BB04220DEB0201164804F0DEFC00BB8C
:10316000082201A9134804F0D8FCE8B90C2201A9EF
:10317000104804F0D2FCD0B90E48FFF77DFF0FB025
:103180005DF804FBFEF792F9C2E7FEF78FF9C8E796
:10319000FEF78CF9CAE7FEF789F9CFE7FEF786F963
:1031A000D7E7FEF783F9DBE7FEF780F9DEE7FEF706
:1031B0007DF9E1E7B0FC01200008004008B50A48AD
:1031C0000A4B03604FF46133436000238360C360A4
:1031D00003610C2242618361C36105F049F800B9C3
:1031E00008BDFEF763F9FBE784FE012000100140F3
:1031F00000B589B0002303930493059306930793C6
:10320000026803F1804303F588339A4202D009B083
:103210005DF804FB0021019103F594335A6C42F0F0
:1032200010025A645A6C02F010020192019A029143
:103230001A6B42F001021A631B6B03F00103029345
:10324000029B4FF4C063039302230493012305936D
:10325000032306930723079303A9024805F008FCFC
:10326000D5E700BF000002407047FEE7FEE7FEE73B
:10327000FEE770477047704708B505F0D7FF08BDF7
:1032800008B5024805F00EFE08BD00BF90FB012006
:1032900008B5024805F006FE08BD00BFF0FB01209E
:1032A00008B5054804F015FA00F03AFB00F0A6FA5C
:1032B00000F05AFB08BD00BFB4FD012008B502486C
:1032C00005F0F0FD08BD00BFD8FA012008B502489E
:1032D00005F0E8FD08BD00BF50FC012008B502481C
:1032E00005F0E0FD08BD00BFF8FC012082B0002120
:1032F00000910B4B5A6C42F480425A645A6C02F4AF
:1033000080420092009A01911A6C42F080521A6435
:103310001B6C03F080530193019B02B0704700BF08
:10332000003802400F49D1F8883043F47003C1F8E7
:1033300088300D4B1A6842F001021A600020986034
:103340001A6822F0847222F480321A60074A5A60A6
:103350001A6822F480221A60D8604FF000638B60F4
:10336000704700BF00ED00E000380240103000243C
:1033700008B500F0F7FB07EE900AF8EEE77AB1EE39
:10338000080A67EE807A9FED020A27EE800A08BDE0
:103390000000803910B5084C23680021986807F0B8
:1033A00065F923680021586807F060F92368002157
:1033B000D86807F05BF910BD3400002000B583B079
:1033C0008DF8070001231A460DF10701024804F0A9
:1033D0007EFF03B05DF804FB84FE012000B583B0DE
:1033E000022038B10A2301220DF10701044804F03C
:1033F000DEFFF6E79DF8070003B05DF804FB00BFB1
:1034000084FE01204FF08043586A80B2704700006C
:10341000014B586A80B2704700040040024B47F6E7
:10342000FE725A62704700BF000400404FF08043B4
:1034300047F6FE725A62704708B53C21054804F011
:10344000D9FC3C21044804F0D5FCFFF7E7FFFFF767
:10345000EDFF08BD44FE012058FD0120084B5B6ACA
:10346000A3F5FF437E3B07EE903AF8EEE77A9FED37
:10347000050A67EE807A9FED040A87EE800A70479E
:1034800000040040DA0FC94000C07F444FF0804381
:103490005B6AC3F5FF437E3307EE903AF8EEE77AB6
:1034A0009FED040A67EE807A9FED030A87EE800A9B
:1034B000704700BFDA0FC94000C07F4438B50446EA
:1034C0000D4621F0004100221B4BFDF72FFB90B170
:1034D00000221A4B20462946FDF73CFB70B1002222
:1034E000164B20462946FCF7F9FE41EC100B0AF07A
:1034F00017FC55EC104B2046294638BD0022104BD6
:1035000020462946FDF730FB40B10022002320462B
:103510002946FDF799F804460D46ECE70022074BD3
:1035200020462946FCF7D8FE41EC100B0AF078FB48
:1035300055EC104BDFE700BF000030430000E03FD8
:103540000000E0BF2DE9F84305460F4616469846B1
:10355000D1F8009000244C450EDA35F81400FCF741
:10356000F9FF0022174BFDF76FF8174A02EBC40270
:10357000C2E900010134EEE7D7F8009000254D457F
:103580000ADA114C04EBC50494ED000B0AF04CFC74
:1035900084ED000B0135F2E73D68C8F800500024C7
:1035A0000BE0094B03EBC403D3E90001FFF786FFEF
:1035B000FDF722FB26F814000134A542F1DCBDE83A
:1035C000F88300BF0000A03F000C002030B585B09C
:1035D0008DF8071000F07F008DF80F000E4C0022D0
:1035E0004FF48051204605F023FB0C4D01231A4671
:1035F0000DF10F01284603F0D1FB01231A460DF10E
:103600000701284603F0CAFB01224FF480512046EF
:1036100005F00EFB05B030BD0004024038FB012070
:1036200030B583B060F07F008DF807000F4C0022AA
:103630004FF48051204605F0FBFA0D4D01231A4648
:103640000DF10701284603F0A9FB01231A460DF1ED
:103650000601284603F090FD01224FF480512046D8
:1036600005F0E6FA9DF8060003B030BD0004024004
:1036700038FB012008B50020FFF7D2FF08BD00008D
:1036800008B5642005F0E4FDFFF7F4FFFFF7F2FF53
:10369000E02803D01E4806F04BFFFBE7642005F04E
:1036A000D7FD10210320FFF791FF012005F0D0FD89
:1036B00001210620FFF78AFF642005F0C9FD2021C3
:1036C0007F20FFF783FF642005F0C2FD0721012062
:1036D000FFF77CFF012005F0BBFD0D211420FFF753
:1036E00075FF012005F0B4FD00217F20FFF76EFF7C
:1036F000642005F0ADFD00224FF48051054805F02F
:1037000097FA0D23044A0549054803F0E9FD08BD71
:1037100000E4000800040240082C00201C000020E7
:1037200038FB012038B5104D01224FF48051284656
:1037300005F07EFA0D4CE278237943EA02230C4A25
:103740001380E27A237B43EA02230A4A1380002291
:103750004FF48051284605F06BFA0D2322460649A6
:10376000064803F0BDFD38BD00040240082C0020CF
:10377000022C0020062C00201C00002038FB012019
:10378000094BB3F90030094AB2F900209B1A07EE41
:10379000903AF8EEE77A9FED060A67EE807A9FEDA1
:1037A000050A27EE800A7047022C0020002C00201A
:1037B0000AE81C41000080390B4BB3F900300B4A7A
:1037C000B2F900209B1A07EE903AF8EEE77A9FEDE7
:1037D000087AC7EE876A9FED077AC6EE877A9FED73
:1037E000060A20EE670A7047062C0020042C0020F1
:1037F000F628864100003443DA0F494008B5FDF74A
:103800006FFEFDF715FF01F011FF012800D008BD84
:1038100001F018FF01380E28F9D801A353F820F061
:103820005D3800087738000891380008AB38000888
:10383000B1380008CB380008E53800080F38000818
:103840000F3800080F3800080F3800080F3800083C
:103850000F3800080F380008F738000802F080F829
:10386000FDF7DAFF02F008FFFDF7F6FFFEF740FC78
:10387000FEF7A8FFCBE702F073F8FDF7CDFF02F0EB
:10388000FBFEFDF7E9FFFEF733FCFEF79BFFBEE70B
:1038900002F066F8FDF7C0FF02F0EEFEFDF7DCFF78
:1038A000FEF726FCFEF78EFFB1E702F059F8AEE70F
:1038B00002F056F8FDF7B0FF02F0DEFEFDF7CCFF98
:1038C000FEF716FCFEF77EFFA1E702F049F8FDF7D0
:1038D000A3FF02F0D1FEFDF7BFFFFEF709FCFEF7E4
:1038E00071FF94E7FDF798FF02F0C6FEFDF7B4FF05
:1038F000FEF7FEFB8BE702F033F8FDF78DFF02F0D9
:10390000BBFEFDF7A9FFFEF7F3FBFEF75BFF7EE7CB
:1039100008B5024803F0C5FE08BD00BFB4FD012094
:1039200008B50C4B1B685A6A0B4B1A600B4B186896
:103930005968013041F1000118605960FDF794FAAF
:1039400006EE900A9FED067AC6EE877A054BC3ED28
:10395000007A08BDB4FD0120282C0020202C002076
:1039600000007A44182C00200A4B19684B6A0A4A56
:1039700012689A1A4FF47A7303FB02F3CA6AB3FB14
:10398000F2F3064A1360064A11688B4238BF0B46B1
:1039900013607047B4FD0120282C00202C2C00203F
:1039A000302C0020014B1888704700BF2C2C0020C1
:1039B000014B1888704700BF302C0020014B93ED5D
:1039C000000A7047182C00200E4B1B78012B10D0DA
:1039D000022B12D04BB15A1C0B4B83FB021303EB8F
:1039E0004303D31A074A13707047084A9021118085
:1039F000F1E7064A60211180EDE7044A00211180B9
:103A0000E9E700BF402C002056555555442C0020B6
:103A100010B500210B4B19800B4B19800B4B197003
:103A20000B4C23686FF001021A61204604F08EF9F6
:103A30000421204604F08AF90821204604F066F9A2
:103A400010BD00BF422C0020442C0020402C002040
:103A5000F4FD012038B5124C124A0021A06A05F08D
:103A60000FFB114D01232A461049606A05F0CCF97D
:103A700001232A460E49A06A05F0C6F905220D4920
:103A80000D4802F0C9FE2368DA6842F4C062DA60C9
:103A90005A6C42F400425A64FFF7BAFF38BD00BFC7
:103AA000F4FD0120C939000814000240442C002014
:103AB000422C0020342C002090FA012010B50C4C30
:103AC0000021204604F062F90421204604F05EF94A
:103AD0000821204604F05AF9A06A05F0CFF9606A7F
:103AE00005F0CCF90022F021024805F0A1F810BD44
:103AF000F4FD012000000240154B1A780232154BEC
:103B000083FB021303EB4303D31A012B11D0022BC7
:103B100016D003B17047104B1988104A118059888C
:103B20000F4A118099889180D98811811B899381CE
:103B30007047094A51880A4B59801289DA817047C7
:103B4000054A9188064BD980D2885A81E2E700BFA6
:103B5000402C002056555555342C00203E2C00207A
:103B6000482C0020014B1888704700BF3E2C0020D5
:103B7000044A02EB80035B8832F82000181A00B276
:103B8000704700BF482C00202DE9F8430446FFF79A
:103B9000EFFF0546FCF7EEFC41EC100B44B1032CA3
:103BA00006D0013CE4B2012C2AD90024002548E0CB
:103BB000642D43DDA4B100260027B046B946032C8E
:103BC00016D00AF06FF953EC102B40464946FCF72B
:103BD00065FE32463B46FCF77FFB04460D4630E06F
:103BE0001FA7D7E900670FF28009D9E90089E6E746
:103BF0001FA7D7E900670FF27009D9E90089E0E74C
:103C0000642D03DC1CA5D5E900451AE00AF04AF949
:103C100051EC100B1AA3D3E90023FCF715FD1AA3EE
:103C2000D3E90023FCF758FB02460B4618A1D1E963
:103C30000001FCF751FB04460D4602E014A5D5E94E
:103C400000450022002320462946FCF76FFF18B9E3
:103C500045EC104BBDE8F88300240025F8E700BFD1
:103C600090A0F831E6AEB53F666666666666E63FEA
:103C7000CBA145B6F3FDB43F9A9999999999A93F7B
:103C8000B81E85EB51B88E3FD9CEF753E3A59B3FC5
:103C90000AD7A3703D0AB73FF0B58BB00D48C28973
:103CA000838944890189C588878846880088089067
:103CB0000796361A069605970495ED1B0395029113
:103CC0000194641A0094D11A034806F031FC0BB039
:103CD000F0BD00BF482C00200CE400082DE9F8439B
:103CE00004468846174699464FF4806200213846BC
:103CF00005F0F1FC611E8C4200D20021002426E078
:103D000004EB4012BB5C43F00103BB5416E004EB30
:103D10004012BB5C43F00203BB5412E04201BB5CA7
:103D200043F00403BB540EE03B5D43F008033B55F6
:103D30002846B0420ADA621C8A42E1D0451CB542EC
:103D4000E5D0002CEAD00028F2D1EDE701348C4216
:103D500006DA08F1FF36B04500D200260020E8E779
:103D60003B7843F002033B7097F8203043F00803A0
:103D700087F820304FF480623946484605F09DFCB4
:103D80003B7843F0010389F800307B7843F004036B
:103D900089F80130BDE8F8832DE9F04F89B08246FB
:103DA000934618460593179B9DF8602002920122C6
:103DB0000A708BF800209AF800200392027000220B
:103DC0000192D146DDF850A0B8E10132AA420CDAE6
:103DD0000C78985C8442F8D19BF800409818407A9F
:103DE0008442F2D101200190EFE7019A002A40F0CD
:103DF000A38199F800809BF8004004940D786A1E16
:103E0000560104EB4212013A1598825CB8F1070F93
:103E100053D8012000FA08F0C0B21040139F97F861
:103E200000E070454BD099F801C0BCF1070F56D89F
:103E3000012000FA0CF0C0B21040864551D099F82C
:103E40000270072F60D80120B840C0B210408645EC
:103E50005CD099F803600696072E66D80120B04022
:103E6000C0B20240964562D0039A02F1040EBEF140
:103E7000FF0F01D94FF0FF0E059A1278AEEB02004A
:103E8000864500D2002000F003009AF800E09AF87E
:103E9000016004969AF8026007969AF803607045EC
:103EA00058D0049CA04200F0B880079CA04200F0CB
:103EB0008E80B04260D000223FE10020ADE7601C60
:103EC000FF2800D9FF203044169F384410F8010C19
:103ED000029FB842A7D2CDF80C800290A3E7002041
:103EE000AAE7681CFF2800D9FF200138049F07EBD0
:103EF0004010169F384410F8010C029FB8429ED221
:103F0000CDF80CC002909AE700209FE7601E844223
:103F100000D200203044169E304410F8010C029E5E
:103F2000B04296D20397029093E7002099E76A1E69
:103F3000954200D20022013A049800EB42121698F2
:103F4000024412F8012C029882428DD20698039006
:103F5000029289E7424500F08980624500F08C803A
:103F6000BA4200F08F800698824200F091800D7076
:103F70008BF800400022E0E00432FF2A00F2C28009
:103F8000013A504202F0030200F0030058BF4242DF
:103F9000D2B2059802700C789BF8000099F8005096
:103FA000AA4200F0B18099F80150AA4200F0B28014
:103FB00099F80250AA4200F0B38099F80350AA423F
:103FC00000F0B4800C708BF800000022B5E00432E1
:103FD000FF2A7DD8023A504202F0030200F00300AB
:103FE00058BF4242D2B2059802700C789BF800008C
:103FF00099F80050AA426DD099F80150AA426FD0AA
:1040000099F80250AA4271D099F80350AA4273D08D
:104010000C708BF8000000228FE00432FF2A3DD89C
:104020000132FF2A00D9FF22504202F0030200F0C1
:10403000030058BF4242D2B2059802700C789BF838
:10404000000099F80050AA422AD099F80150AA42DB
:104050002CD099F80250AA422ED099F80350AA42C7
:1040600030D00C708BF80000002266E00134FF2C89
:1040700000D9FF24E4B270E70135FF2D00D9FF25F8
:10408000EDB26DE7601E844200D20020C4B26AE740
:104090006A1E954200D20022D5B268E7FF22BFE730
:1040A0000130FF2800D9FF20C0B2CEE70134FF2C39
:1040B00000D9FF24E4B2CCE7451EA84200D2002577
:1040C000E8B2CAE7621E944200D20022D4B2C8E726
:1040D000FF227FE70130FF2800D9FF20C0B28BE725
:1040E0000134FF2C00D9FF24E4B289E7451EA84221
:1040F00000D20025E8B287E7621E944200D2002277
:10410000D4B285E7FF223BE70130FF2800D9FF202A
:10411000C0B248E70134FF2C00D9FF24E4B247E7DE
:10412000451EA84200D20025E8B246E7621E94422E
:1041300000D20022D4B245E701221AB9129A1578AA
:10414000002243E609B0BDE8F08F30B404789C4209
:104150000AD044789C420ED084789C4212D0C27817
:104160009A4216D030BC704714780134FF2C00D925
:10417000FF241470EDE70C780134FF2C00D9FF24E4
:104180000C70E9E715786C1EA54200D2002414706B
:10419000E5E70A78531E9A4200D200230B70E1E74C
:1041A0002DE9F04FADF5805D87B004460D460DF565
:1041B000825108680DF582510C310F68591E8B42EF
:1041C00000D20021531E9A4200D2002303FB01F3C8
:1041D000FF2B00D9FF235FFA83F80DF582531033CC
:1041E0001B6883F800800023B3F5806F03DA07F8BB
:1041F00003800133F8E70DF5825304331E78002263
:1042000009E083185B7A815C013903EB4113013BC0
:104210000021F9540132B242F3DB46E10133A9B97E
:10422000B3F5806F12DAFA5CB242F7D109F10100FE
:104230005A1CDFF88CC22CF81920B0F5806F02DA16
:1042400013468146EBE781460121E8E7B9F1000F0B
:104250000FDD0DF580531433C3F80090002399450A
:104260000ADD974A32F91310964A22F813100133E7
:10427000F5E74FF00009ECE70DF580531033C3F874
:1042800000900023994508DD8E4A32F81320013A48
:104290008D4921F813200133F4E70DF60C030DF5D9
:1042A00001620DF580511031874801F07FFFDDF884
:1042B0000CA8002203E00DF20C418B540132524550
:1042C0000EDA0DF5016333F812300133B3F5803F98
:1042D00001D34FF6FF739BB2FF2BECD9FF23EAE724
:1042E0000023994507DD774931F81320013A21F879
:1042F00013200133F5E70DF60C030DF501620DF502
:10430000805114316F48FFF71DF9DDF80C080022C9
:1043100002E003A98B54013282420EDA0DF50163EB
:1043200033F812300133B3F5803F01D34FF6FF73FA
:104330009BB2FF2BEDD9FF23EBE7BAF1000F05DBB2
:10434000BAF1FF0F04DD4FF0FF0A01E04FF0000A61
:104350001AF0FF0F00F0A4805FFA8AFE00213AE015
:10436000002257E00CF10102FF2A00D9FF229244FB
:104370000AF1FF3A17F80A20904550D1721C07F84D
:104380000A20012200924AE0002251E009F10102D4
:10439000FF2A00D9FF22013A0CEB4212013A17F82A
:1043A00002A0D04549D106F1010A07F802A0012276
:1043B000009242E0002249E0023BFA5C90454AD17B
:1043C000721CFA540123009345E0002318402B7817
:1043D000984247D00131714554DA94F800B003ABEC
:1043E00013F8019009F1FF334FEA431A0DF20C4222
:1043F00012F801C00CEB43130DF58252083212681B
:104400001A4412F8010CBBF1070FA9D8012202FAD5
:104410000BF2D2B2024095F800B05A45A2D094F8FF
:1044200001A0BAF1070FAFD8012202FA0AF2D2B204
:10443000024095F800A05245A8D094F802A0BAF125
:10444000070FB7D8012202FA0AF2D2B2024095F859
:1044500000A05245B0D0E278072AB6D80123934095
:10446000DBB2B3E7A9F102090CEB491C0CF1FF3CEC
:1044700017F80C309845ADD1731C07F80C300123A8
:104480000093A7E70136F6B2019B63B908F1FF3349
:10449000DBB2B34207D301994FF000094B46BEE6A9
:1044A00001230193F0E7009B23B1002301931E46F3
:1044B0000093E9E70DF5805D07B0BDE8F08F00BF20
:1044C0006434002064440020582C00202DE9F04F73
:1044D000ADF24C4D08900B9115460C93DDF87044ED
:1044E000DDF87494DDF878A49DF87C3409939DF888
:1044F00080340A93DDF88484DDF888B4DDF88C64B8
:104500009DF890340D931F4600230693079700F003
:1045100012BC00208DF844048DF840048DF8450449
:104520008DF841048DF846048DF842048DF8470457
:104530008DF84304FFF71CFB07460320FFF718FB29
:104540003B46034403EBD3735B10CC4F3B6002202C
:10455000FFF70EFBCA4B18600120FFF709FBC94BA0
:1045600018603A68C84B1B689A4200F324829AF894
:10457000003003F003020B9949780DF5896002447D
:1045800002F8081CBE4A1168C04A1268914213DD45
:104590000133FF2B00D9FF235A4203F0030302F03B
:1045A000030258BF5342089A52780DF589610B44B3
:1045B00003F8042CFDF7AEFE9AF80020531CFF2BE5
:1045C00000D9FF23594203F0030301F0030158BF50
:1045D0004B420B9949780DF58960034403F8081C98
:1045E000A84B1968AA4B1B68994213DDD31CFF2BFB
:1045F00000D9FF235A4203F0030302F0030258BF1D
:104600005342089A52780DF589610B4403F8042C43
:10461000FDF786FE9AF800300333FF2B00D9FF2305
:104620005A4203F0030302F0030258BF53420B9AAD
:1046300052780DF589610B4403F8082C2A78531C35
:10464000FF2B00D9FF23072A00F2C38101219140EB
:10465000C9B2013B0DF58962134413F8043C01FB18
:1046600003F1FF2900D9FF212278013A5201894B39
:104670001A6099F800301344013B87480360C9B2BF
:1046800018F80300014308F803102978481CFF2894
:1046900000D9FF20072900F29E814FF0010C0CFA8F
:1046A00001F1C9B201380DF58967384410F8080CDA
:1046B00001FB00F1FF2900D9FF21C9B21BF803005B
:1046C00001430BF803106978481CFF2800D9FF202C
:1046D000072900F282814FF0010C0CFA01F1C9B2F6
:1046E00001380DF58967384410F8040C01FB00F11E
:1046F000FF2900D9FF21C9B218F80300014308F8C7
:1047000003106978481CFF2800D9FF20072900F210
:1047100066814FF0010C0CFA01F1C9B201380DF5B8
:104720008967384410F8080C01FB00F1FF2900D913
:10473000FF21C9B21BF8030001430BF80310A9784D
:10474000481CFF2800D9FF20072900F24A814FF0BA
:10475000010C0CFA01F1C9B201380DF58967384432
:1047600010F8040C01FB00F1FF2900D9FF21C9B2A8
:1047700018F80300014308F80310A978481CFF2823
:1047800000D9FF20072900F22E814FF0010C0CFA0E
:1047900001F1C9B201380DF58967384410F8080CE9
:1047A00001FB00F1FF2900D9FF21C9B21BF803006A
:1047B00001430BF80310E978481CFF2800D9FF20BB
:1047C000072900F212814FF0010C0CFA01F1C9B275
:1047D00001380DF58967384410F8040C01FB00F12D
:1047E000FF2900D9FF21C9B218F80300014308F8D6
:1047F0000310E978481CFF2800D9FF20072900F2A0
:10480000F6804FF0010C0CFA01F1C9B201380DF538
:104810008967384410F8080C01FB00F1FF2900D922
:10482000FF21C9B21BF8030001430BF80310099BD9
:10483000591E8B4200D2002199F800308B4254DA85
:10484000A87829780131FF2900D9FF21072800F233
:10485000D0804FF0010C0CFA00F0C0B201390DF518
:104860008967394411F8041C00FB01F1FF2900D9C4
:10487000FF210133FF2B11D9FF230FE064540020E7
:104880006C540020685400202000002028000020E4
:10489000240000205C340020603400201344013BDD
:1048A00018F80300C9B2014308F80310A878297862
:1048B0000131FF2900D9FF21072800F29C804FF029
:1048C000010C0CFA00F0C0B201390DF589673944CA
:1048D00011F8081C00FB01F1FF2900D9FF211BF88A
:1048E0000300C9B201430BF803100A9B591E8B4207
:1048F00000D2002123788B424BDAE87869780131C5
:10490000FF2900D9FF21072877D84FF0010C0CFAB6
:1049100000F0C0B201390DF58967394411F8041C63
:1049200000FB01F1FF2900D9FF210133FF2B00D942
:10493000FF2399F800C0013B58010CEB4313013BE6
:1049400018F803C0C9B24CEA010108F80310EB786B
:1049500069780131FF2900D9FF21072B4FD84FF08B
:10496000010C0CFA03F3DBB201390DF58967394408
:1049700011F8081C03FB01F3FF2B00D9FF2399F862
:104980000010084401381BF80010DBB20B430BF891
:10499000003099F80010012971D92878AB780133DB
:1049A000FF2B00D9FF2307282BD84FF0010C0CFA5E
:1049B00000F0C0B226E09AF8003003F00303089A32
:1049C00052780DF589610B4403F8042CFDF79CFC2B
:1049D000CDE500213DE6002164E6002180E60021CE
:1049E0009CE60021B8E60021D4E60021F0E6002193
:1049F0000CE7002032E7002066E700208AE700236A
:104A0000B2E70020013B0DF589673B4413F8043CF5
:104A100000FB03F0FF2800D9FF204B1E994200D273
:104A200000231344013B18F80310C0B2084308F8F0
:104A300003002878AB780133FF2B00D9FF23072828
:104A400003D801218140C9B200E00021013B0DF5EE
:104A50008960034413F8083C01FB03F3FF2B00D9E2
:104A6000FF2399F80000411E884200D200210A4429
:104A7000013A1BF80210DBB20B430BF8023021782D
:104A8000012940F25D816878EB780133FF2B00D972
:104A9000FF23072803D801228240D2B200E000227F
:104AA000013B0DF58960034413F8043C02FB03F25B
:104AB000FF2A00D9FF22481E814200D2002099F827
:104AC0000030013803EB4013013B18F80310D2B259
:104AD0000A4308F803206978EB780133FF2B00D9EB
:104AE000FF23072903D801228A40D2B200E0002226
:104AF000013B0DF589610B4413F8083C02FB03F3FD
:104B0000FF2B00D9FF232278511E8A4200D20021B8
:104B100099F80020013902EB4112013A1BF802100A
:104B2000DBB20B430BF802300AE10133BB420CDA73
:104B30002178F25C9142F8D199F80010F218527A7B
:104B40009142F2D101220692EFE70797069B002BD4
:104B50002FD10DF13F03049310AB0393CDF80880E0
:104B60000D9B019300960A9B099A08992846FFF726
:104B700017FB2A78072A3BD801239340DBB2B24ABD
:104B8000126818F802201A4234D199F80030013323
:104B9000FF2B00D9FF23AD4A12681344013B10AA32
:104BA000D35C9DF83F20934231D28DF83F302A7874
:104BB00021E0FDF741FBFEF781FFA54C01224FF4F8
:104BC0006451204604F034F84FF42F7004F040FB99
:104BD00000224FF46451204604F02AF84FF49670F6
:104BE00004F036FBFEF736FF0DF24C4DBDE8F08FBA
:104BF0000023C4E7069A95F801E0BEF1070F08D834
:104C00004FF0010C0CFA0EFC5FFA8CFC03E0069AE4
:104C1000F1E74FF0000C99F8000021784B1E00EBF3
:104C20004313434413F8013C13EA0C0F10D1013134
:104C3000FF2900D9FF21013900EB4111013910ABE7
:104C40005B5C9DF83F108B4202D28DF83F3072467C
:104C500095F802C0BCF1070F04D8012101FA0CF14C
:104C6000C9B200E0002199F800002378013B00EB75
:104C70004313434413F8013C0B4210D1431E9842A6
:104C800000D20023714909680B44013B10A9CB5C99
:104C90009DF83F108B4202D28DF83F30624695F866
:104CA00003E0BEF1070F04D8012000FA0EF0C0B2F5
:104CB00000E0002099F8001094F800C00CF1FF33D8
:104CC00001EB4313434413F8013C03420FD10CF1B1
:104CD000FF339C4500D20023013B01EB4311013916
:104CE00010AB595C9DF83F30994200D272460432B5
:104CF000FF2A00D9FF229AF80030D31A9A4200D234
:104D000000235A4203F0030302F0030258BF534248
:104D1000DBB20C98017842788DF83F200746807806
:104D200097F803C08B4210D09A4200F095808342DE
:104D30005AD0634529D0474B1B78002B3FF4E9AB91
:104D40000023444A1370079FF0E6FDF7EFFA9AF844
:104D500000202B789A4200F0AE809AF800206B7801
:104D60009A4200F0B1809AF80020AB789A4200F0A5
:104D7000B2809AF80020EB789A42DCD12278531E58
:104D80009A4200D200232370D5E7FDF717FB9AF86B
:104D900000300433FF2B00F2DD80013B5A4203F068
:104DA000030302F0030258BF5342DBB28AF800301B
:104DB0002A78934200F0D0809AF800206B789A42CB
:104DC00000F0D3809AF80020AB789A4200F0D480AB
:104DD0009AF80020EB789A42ADD12278531E9A427D
:104DE00000D200232370A6E7FDF714FB9AF80030E9
:104DF0000433FF2B00F29380023B5A4203F003037B
:104E000002F0030258BF5342DBB28AF800302A781E
:104E1000934200F086809AF800206B789A4200F066
:104E200089809AF80020AB789A4200F08A809AF83C
:104E30000020EB789A427FF47EAF2278531E9A428C
:104E400000D20023237076E7603400205C34002019
:104E50000000024058340020FDF784FA9AF8003030
:104E60000433FF2B40D80133FF2B00D9FF235A42D4
:104E700003F0030302F0030258BF5342DBB28AF887
:104E800000302A78934231D09AF800206B789A4209
:104E900035D09AF80020AB789A4237D09AF80020A3
:104EA000EB789A427FF447AF2278531E9A4200D2A1
:104EB000002323703FE799F800300133FF2B00D91E
:104EC000FF2389F8003048E723780133FF2B00D90E
:104ED000FF23237047E799F80020531E9A4200D21F
:104EE000002389F8003044E7FF23BCE799F800303D
:104EF0000133FF2B00D9FF2389F80030C4E7237862
:104F00000133FF2B00D9FF232370C2E799F800205B
:104F1000531E9A4200D2002389F80030BEE7FF23D7
:104F20006AE799F800300133FF2B00D9FF2389F895
:104F3000003070E723780133FF2B00D9FF23237063
:104F40006FE799F80020531E9A4200D2002389F897
:104F500000306CE7FF2320E799F800300133FF2B86
:104F600000D9FF2389F8003026E723780133FF2B8F
:104F700000D9FF23237025E799F80020531E9A4299
:104F800000D2002389F8003022E700BF2DE9F04F5E
:104F9000ADF5C15D83B00D46164605930DF5C253C0
:104FA00010331C780DF5C25314331B780DF5C25223
:104FB000183211680DF5C2521C32D2F800900DF56E
:104FC000C3520432D2F800B05A1E934200D20022DB
:104FD000631E9C4200D2002303FB02F3FF2B00D987
:104FE000FF235A1E934200D20022D3B203930DF541
:104FF000C3520832126814461A4623700023B3F5D0
:10500000806F03DA0BF803200133F8E70078002201
:105010000AE08B185B7A8C5C013C03EB4413013B88
:1050200000240BF8034001328242F2DB002301939B
:105030000493CAE10133A9B9B3F5806F12DA1BF802
:10504000032001988242F5D1781C5A1CC64C24F8E2
:105050001720B0F5806F02DA13460746EBE70746E4
:105060000121E8E7002F05DD0DF5C15304331F6072
:10507000002308E00027F7E7BB4A32F91310BB4AC8
:1050800022F8131001339F42F6DC0DF5C1531F6067
:1050900000239F4209DDB54A32F81320013A0DF58D
:1050A000815121F813200133F3E70DF61C030DF5B0
:1050B00002620DF5C1510DF5815001F077F8DDF870
:1050C0001C48002203E00DF21C418B540132A24225
:1050D0000EDA0DF5026333F812300133B3F5803F79
:1050E00001D34FF6FF739BB2FF2BECD9FF23EAE706
:1050F00000239F4207DD9D4931F81320013A21F832
:1051000013200133F5E70DF61C030DF502620DF5D2
:10511000C15104319548FEF715FADDF81C0800224C
:1051200002E007A98B54013282420EDA0DF50263C8
:1051300033F812300133B3F5803F01D34FF6FF73DC
:105140009BB2FF2BEDD9FF23EBE7002102940DF575
:10515000C3530433C3F800B0DDF814B057E00022A5
:1051600019F80CE01EEA020F14BF4FF001084FF0CF
:10517000000896F800E0F04566D06A78072A00F249
:105180008F804FF0010C0CFA02FC5FFA8CFC5A1E67
:1051900019F802E01EEA0C0F14BF4FF001084FF09F
:1051A000000896F800E0F0457DD095F802C0BCF10B
:1051B000070F00F2AC804FF0010E0EFA0CFC5FFA04
:1051C0008CFC19F802E01EEA0C0F14BF4FF0010826
:1051D0004FF0000896F800E0F04500F09B80EB7877
:1051E000072B00F2BF804FF0010C0CFA03F3DBB287
:1051F00019F802C01CEA030F14BF4FF0010E4FF064
:10520000000E96F800C0E64500F0B2800131029B26
:10521000994280F2D1802A78481C80B2013807ABCD
:105220001F5C7B1E4FEA431A0DF21C4C1CF8000059
:1052300000EB431303F1FF3C072A90D84FF0010E17
:105240000EFA02F2D2B28BE70DF5C354246814F8BB
:105250000CC01CEA020F14BF4FF0010C4FF0000C01
:105260009BF80120944588D1421CFF2A00D9FF22D7
:1052700092440AF1FF3A0DF5C3520432126812F853
:105280000A20039C94427FF478AF019A01320DF515
:10529000C3540434246804F80A20012204926CE701
:1052A0004FF0000C73E70DF5C354246814F802E0C6
:1052B0001EEA0C0F14BF4FF0010E4FF0000E9BF8CA
:1052C00001C0E6457FF471AF07F1010CBCF1FF0F9F
:1052D00001D94FF0FF0C0CF1FF3C00EB4C1C0CF122
:1052E000FF3C0DF5C3540434246814F80CE0039C0F
:1052F00074457FF45AAF019C04F1010E0DF5C354BF
:105300000434246804F80CE0012404944DE74FF0C1
:10531000000C56E70DF5C354246814F802E01EEAA9
:105320000C0F14BF4FF0010E4FF0000E9BF801C0A0
:10533000E6457FF454AF023B0DF5C35404342468B2
:1053400014F803C0039C64457FF449AF019C04F149
:10535000010C0DF5C3540434246804F803C0012380
:1053600004933CE7002343E7643C0020644C0020A6
:105370000DF5C3542468A25C1A4214BF0122002216
:105380009BF801309A427FF441AF023F00EB471097
:1053900001380DF5C35304331B681B5C039A9A4212
:1053A0007FF434AF019B01330DF5C3520432126810
:1053B00013540123049329E70DF5C3530433D3F8A1
:1053C00000B0019B0133DBB201930DF5C3530833E9
:1053D0001B681B78019A934203D300210F460B46AA
:1053E00029E6049B002B7FF421AE0DF5C15D03B0CF
:1053F000BDE8F08F2DE9F04FADF2644D07460D4644
:1054000090469946DDF888449DF88C649DF890A4F8
:105410008DF85C640023112B07DC0DF58C621A44B7
:10542000002102F8181C0133F5E700228DF844240E
:1054300001238DF8453402208DF8460403218DF8B0
:1054400047148DF840248DF841348DF842048DF8CE
:1054500043148DF83C248DF83D348DF838248DF8B4
:105460003934BAF1000F07D0BAF1010F00F0AD8066
:105470000DF2644DBDE8F08FFCF7BAFE01238DF804
:1054800034340DF1300B8DF8303000235A460DF2D4
:1054900034410DF24440FEF758FEFCF747FF9DF8FB
:1054A00044240BAB8DF82C2008960794069505979D
:1054B000CDF81090CDF80C800293CDF804B00DF229
:1054C000344300930DF588630DF244420DF5876176
:1054D0000DF23C40FEF7FAFF4FF47A7003F0B8FE8D
:1054E0003DE08DF848C48DF8510401218DF833104A
:1054F00089B996420FDD02F10903E05C14F802C09D
:105500000CF1FF3300EB43132B4413F8013C0F2B3A
:10551000E7D10132ECE79DF83330012B24D1FCF7C1
:10552000DFFE0123404A137008930DF5896307934A
:1055300006950597CDF81090CDF80C800BAB029333
:105540000CAB01930DF2344300930DF588630DF21B
:1055500044420DF587610DF23C40FEF7B7FF002293
:105560008DF833201146C3E74FF47A7003F070FED4
:1055700001268DF848648DF85164FCF7B1FE2A4B82
:105580001E7008960DF58963079306950597CDF86B
:105590001090CDF80C800BAB02930CAB01930DF285
:1055A000344300930DF588630DF244420DF5876195
:1055B0000DF23C40FEF78AFFFCF7FAFCFCF780FE98
:1055C000BEEE000A00F084FE4EE70DF23C4A0DF1FB
:1055D000330BCDF818B00DAE0596049503970294E1
:1055E000CDF80490CDF800800DF5876352460DF29A
:1055F00044410DF25C40FFF7C9FC9BF80030069374
:105600000594049603970DF588630293CDF804A0E2
:105610000DF25C4300930BAB0CAA0DF234410DF27A
:105620004440FEF7B9FB23E758340020014B1878BB
:10563000704700BF73540020014B00221A7070475E
:1056400073540020014B1878704700BF715400203C
:10565000014B1870704700BF7154002010B5FBF764
:10566000B5FFB5EE400AF1EE10FAF8D1FBF7C6FF30
:10567000C82003F0EDFDFBF7AFFFDFED827AB4EE5B
:10568000E70AF1EE10FA03DD7F4A13780133137055
:10569000FBF7A8FFDFED7D7AB4EEE70AF1EE10FA32
:1056A00003D5794A1378013B1370774A137803F0D6
:1056B0000F031370764A1278934211D00F2B0FD834
:1056C000DFE803F0081523313F4D5B69778593A12F
:1056D000AFBDCBD900224FF464516E4803F0A8FA55
:1056E000694B18786A4B1870FFF7B2FF10BD694C10
:1056F00000224FF4C851204603F09AFA01224FF4D9
:105700000051204603F094FAEAE7624C00224FF47D
:105710002451204603F08CFA01224FF48051204698
:1057200003F086FADCE75B4C00224FF41061204660
:1057300003F07EFA01224FF44051204603F078FA3C
:10574000CEE7544C00224FF44451204603F070FA47
:1057500001224FF40061204603F06AFAC0E74D4C85
:1057600000224FF48851204603F062FA01224FF4E0
:105770002051204603F05CFAB2E7464C00224FF479
:105780000451204603F054FA01224FF4C051204640
:1057900003F04EFAA4E73F4C00224FF480712046FC
:1057A00003F046FA01224FF46051204603F040FA1C
:1057B00096E7384C00224FF46051204603F038FA47
:1057C00001224FF48071204603F032FA88E7314C11
:1057D00000224FF4C051204603F02AFA01224FF470
:1057E0000451204603F024FA7AE72A4C00224FF4B1
:1057F0002051204603F01CFA01224FF48851204624
:1058000003F016FA6CE7234C00224FF400612046A7
:1058100003F00EFA01224FF44451204603F008FA37
:105820005EE71C4C00224FF44051204603F000FA82
:1058300001224FF41061204603F0FAF950E7154CAD
:1058400000224FF48051204603F0F2F901224FF478
:105850002451204603F0ECF942E70E4C00224FF4AD
:105860000051204603F0E4F901224FF4C8512046CC
:1058700003F0DEF934E701224FF46451054803F0E8
:10588000D7F92DE7CDCCCC3D70540020CDCCCCBD8C
:10589000725400200000024008B5FBF7A9FEDFEDBE
:1058A000057AB4EEE70AF1EE10FA01DD012008BD39
:1058B0000020FCE7CDCCCC3D08B50320FEF758F91D
:1058C00040F2DB539842F8DD4FF4FA7003F0C0FC6D
:1058D000014B01221A7008BD7354002038B5002313
:1058E000184A1370184A1370184A1370FEF7E6F836
:1058F000144B1B7833B9FFF7B1FEFFF7CDFF114B07
:105900001870F5E7002415E0114D01224FF46451A1
:10591000284603F08DF94FF42F7003F099FC002214
:105920004FF46451284603F083F94FF4967003F066
:105930008FFC0134012CE7DDFEF78CF8FFF7BCFF8C
:1059400038BD00BF745400207354002070540020F0
:1059500000000240014B00221A807047765400205C
:1059600010B55B4B1A885B4CA4FB023443F69723BB
:105970009A4209D8E408C4EB0413D31A9BB223B1AA
:10598000534A13880133138010BD07EE902AF8EEB6
:10599000677A514B6C2202FB0434C4ED007A00F0AC
:1059A0007FFC84ED010A00F081FC84ED020AFBF724
:1059B000F5FE84ED030A00F067FC84ED040AFBF7B2
:1059C0002FFE84ED050AFBF7B9FE84ED060AFDF70C
:1059D000D7FE84ED070AFBF7B7FE84ED080A00F056
:1059E0006BFC84ED090A00F06DFC84ED0A0AFBF7FC
:1059F0001BFF84ED0B0A00F04DFC84ED0C0AFBF755
:105A0000E3FE84ED0D0AFCF7EBFE07EE900AF8EEDC
:105A1000E77AC4ED0E7AFCF7E9FE07EE900AF8EE9D
:105A2000E77AC4ED0F7A0320FEF7A2F807EE900A9A
:105A3000F8EEE77AC4ED107A0020FEF799F807EE49
:105A4000900AF8EEE77AC4ED117A0220FEF790F89A
:105A500007EE900AF8EEE77AC4ED127A0120FEF71D
:105A600087F807EE900AF8EEE77AC4ED137A032080
:105A7000FEF78AF851EC100BFBF7DEF820650020EA
:105A8000FEF782F851EC100BFBF7D6F860650220A8
:105A9000FEF77AF851EC100BFBF7CEF8A065012069
:105AA000FEF772F851EC100BFBF7C6F8E065FCF757
:105AB00039F984ED180AFBF799FF07EE900AF8EE22
:105AC000677AC4ED197AFDF753FC84ED1A0A57E79B
:105AD00076540020898888887854002070B57648EC
