:020000040800F2
:1000000000000520C98B0008ED2C0008EF2C00082B
:10001000F12C0008F32C0008F52C0008000000006B
:10002000000000000000000000000000F72C0008A5
:10003000F92C000800000000FB2C0008FD2C000833
:10004000198C0008198C0008198C0008198C0008FC
:10005000198C0008198C0008198C0008198C0008EC
:10006000198C0008198C0008198C0008198C0008DC
:10007000198C0008198C0008052D0008152D0008A2
:10008000198C0008198C0008198C0008198C0008BC
:10009000198C0008198C0008198C0008198C0008AC
:1000A000198C0008198C0008198C0008198C00089C
:1000B000198C0008198C0008198C0008198C00088C
:1000C000198C0008198C0008198C0008198C00087C
:1000D000198C0008198C0008198C0008198C00086C
:1000E000198C0008198C0008198C0008198C00085C
:1000F000198C0008198C0008198C0008198C00084C
:10010000198C0008198C0008198C0008198C00083B
:10011000198C0008198C0008252D0008198C00087E
:10012000412D0008512D0008612D0008198C000890
:10013000198C0008198C0008198C0008198C00080B
:10014000198C0008198C0008198C0008198C0008FB
:10015000198C0008198C0008198C0008198C0008EB
:10016000198C0008198C0008198C0008198C0008DB
:10017000198C0008198C0008000000000000000025
:10018000198C0008198C0008198C0008198C0008BB
:10019000198C0008198C000800000000198C000858
:1001A000198C0008198C00080000000000000000F5
:1001B000198C00080000000000000000198C0008E5
:1001C000198C0008198C0008198C0008198C00087B
:0801D000198C0008198C0008CD
:1001E00010B5054C237833B9044B13B10448AFF371
:1001F00000800123237010BD0802002000000000D1
:100200001CDD000808B5034B1BB103490348AFF3DD
:10021000008008BD000000000C0200201CDD00086A
:10022000034613F8012B002AFBD1181A0138704736
:1002300001F0FF01102A2BDB10F0070F08D010F897
:10024000013B013A8B422DD010F0070F42B3F6D19B
:10025000F0B441EA012141EA014122F007047FF0B4
:1002600000070023F0E80256083C85EA010586EA0B
:10027000010685FA47F5A3FA87F586FA47F6A5FA47
:1002800087F68EB9EED1F0BC01F0FF0102F0070253
:1002900032B110F8013B013A83EA010313B1F8D1FE
:1002A0000020704701387047002D06BF35460338DF
:1002B000073815F0010F07D1013015F4807F02BF18
:1002C000013015F4C03F0130F0BC0138704700BF69
:1002D00081F0004102E000BF83F0004330B54FEAF7
:1002E00041044FEA430594EA050F08BF90EA020F64
:1002F0001FBF54EA000C55EA020C7FEA645C7FEAF7
:10030000655C00F0E2804FEA5454D4EB5555B8BF19
:100310006D420CDD2C4480EA020281EA030382EA8A
:10032000000083EA010180EA020281EA0303362D1C
:1003300088BF30BD11F0004F4FEA01314FF4801CEF
:100340004CEA113102D0404261EB410113F0004F01
:100350004FEA03334CEA133302D0524263EB4303B8
:1003600094EA050F00F0A780A4F10104D5F1200E56
:100370000DDB02FA0EFC22FA05F2801841F10001B1
:1003800003FA0EF2801843FA05F359410EE0A5F185
:1003900020050EF1200E012A03FA0EFC28BF4CF0B6
:1003A000020C43FA05F3C01851EBE37101F000456C
:1003B00007D54FF0000EDCF1000C7EEB00006EEB79
:1003C0000101B1F5801F1BD3B1F5001F0CD3490803
:1003D0005FEA30004FEA3C0C04F101044FEA44525A
:1003E00012F5800F80F09A80BCF1004F08BF5FEAE1
:1003F000500C50F1000041EB045141EA050130BDC1
:100400005FEA4C0C404141EB0101013C28BFB1F5D2
:10041000801FE9D291F0000F04BF01460020B1FA1D
:1004200081F308BF2033A3F10B03B3F120020CDAF0
:100430000C3208DD02F1140CC2F10C0201FA0CF0CE
:1004400021FA02F10CE002F11402D8BFC2F1200C33
:1004500001FA02F120FA0CFCDCBF41EA0C019040E9
:10046000E41AA2BF01EB0451294330BD6FEA040432
:100470001F3C1CDA0C340EDC04F11404C4F120021D
:1004800020FA04F001FA02F340EA030021FA04F32F
:1004900045EA030130BDC4F10C04C4F1200220FA86
:1004A00002F001FA04F340EA0300294630BD21FAC4
:1004B00004F0294630BD94F0000F83F4801306BF8A
:1004C00081F480110134013D4EE77FEA645C18BF7E
:1004D0007FEA655C29D094EA050F08BF90EA020F15
:1004E00005D054EA000C04BF1946104630BD91EA0D
:1004F000030F1EBF0021002030BD5FEA545C05D110
:100500004000494128BF41F0004130BD14F580044E
:100510003CBF01F5801130BD01F0004545F0FE41C2
:1005200041F470014FF0000030BD7FEA645C1ABFF7
:10053000194610467FEA655C1CBF0B46024650EA2E
:10054000013406BF52EA033591EA030F41F400215A
:1005500030BD00BF90F0000F04BF0021704730B5E0
:100560004FF4806404F132044FF000054FF00001B5
:1005700050E700BF90F0000F04BF0021704730B576
:100580004FF4806404F1320410F0004548BF40424B
:100590004FF000013EE700BF42004FEAE2014FEAA0
:1005A00031014FEA02701FBF12F07F4393F07F4F7B
:1005B00081F06051704732F07F4208BF704793F07E
:1005C0007F4F04BF41F40021704730B54FF4607491
:1005D00001F0004521F000411CE700BF50EA010294
:1005E00008BF704730B54FF000050AE050EA01023D
:1005F00008BF704730B511F0004502D5404261EBAD
:1006000041014FF4806404F132045FEA915C3FF4ED
:10061000D8AE4FF003025FEADC0C18BF03325FEA8A
:10062000DC0C18BF033202EBDC02C2F1200300FA3B
:1006300003FC20FA02F001FA03FE40EA0E0021FA60
:1006400002F11444BDE600BF70B54FF0FF0C4CF44E
:10065000E06C1CEA11541DBF1CEA135594EA0C0F00
:1006600095EA0C0F00F0DEF82C4481EA030621EA3B
:100670004C5123EA4C5350EA013518BF52EA033576
:1006800041F4801143F4801338D0A0FB02CE4FF028
:100690000005E1FB02E506F00042E0FB03E54FF058
:1006A0000006E1FB03569CF0000F18BF4EF0010E50
:1006B000A4F1FF04B6F5007F64F5407404D25FEA4C
:1006C0004E0E6D4146EB060642EAC62141EA5551FF
:1006D0004FEAC52040EA5E504FEACE2EB4F1FD0C41
:1006E00088BFBCF5E06F1ED8BEF1004F08BF5FEABF
:1006F000500E50F1000041EB045170BD06F0004671
:1007000046EA010140EA020081EA0301B4EB5C041D
:10071000C2BFD4EB0C0541EA045170BD41F4801115
:100720004FF0000E013C00F3AB8014F1360FDEBF3A
:10073000002001F0004170BDC4F10004203C35DA16
:100740000C341BDC04F11404C4F1200500FA05F399
:1007500020FA04F001FA05F240EA020001F000423A
:1007600021F0004110EBD37021FA04F642EB0601B0
:100770005EEA430E08BF20EAD37070BDC4F10C04DA
:10078000C4F1200500FA04F320FA05F001FA04F29E
:1007900040EA020001F0004110EBD37041F100018A
:1007A0005EEA430E08BF20EAD37070BDC4F1200595
:1007B00000FA05F24EEA020E20FA04F301FA05F2FD
:1007C00043EA020321FA04F001F0004121FA04F2A5
:1007D00020EA020000EBD3705EEA430E08BF20EA75
:1007E000D37070BD94F0000F0FD101F000464000AF
:1007F00041EB010111F4801F08BF013CF7D041EA31
:10080000060195F0000F18BF704703F00046520034
:1008100043EB030313F4801F08BF013DF7D043EA05
:100820000603704794EA0C0F0CEA135518BF95EABB
:100830000C0F0CD050EA410618BF52EA4306D1D142
:1008400081EA030101F000414FF0000070BD50EA61
:10085000410606BF1046194652EA430619D094EAEB
:100860000C0F02D150EA013613D195EA0C0F05D1D5
:1008700052EA03361CBF104619460AD181EA030129
:1008800001F0004141F0FE4141F470014FF00000E1
:1008900070BD41F0FE4141F4780170BD70B54FF07C
:1008A000FF0C4CF4E06C1CEA11541DBF1CEA1355FC
:1008B00094EA0C0F95EA0C0F00F0A7F8A4EB0504DE
:1008C00081EA030E52EA03354FEA013100F08880D5
:1008D0004FEA03334FF0805545EA131343EA12639E
:1008E0004FEA022245EA111545EA10654FEA002653
:1008F0000EF000419D4208BF964244F1FD0404F50C
:10090000407402D25B084FEA3202B61A65EB030567
:100910005B084FEA32024FF480104FF4002CB6EB24
:10092000020E75EB030E22BFB61A754640EA0C00A4
:100930005B084FEA3202B6EB020E75EB030E22BFE4
:10094000B61A754640EA5C005B084FEA3202B6EB25
:10095000020E75EB030E22BFB61A754640EA9C00E4
:100960005B084FEA3202B6EB020E75EB030E22BFB4
:10097000B61A754640EADC0055EA060E18D04FEA72
:10098000051545EA16754FEA06164FEAC30343EA12
:1009900052734FEAC2025FEA1C1CC0D111F4801FDF
:1009A0000BD141EA00014FF000004FF0004CB6E7D8
:1009B00011F4801F04BF01430020B4F1FD0C88BF77
:1009C000BCF5E06F3FF6AFAEB5EB030C04BFB6EB82
:1009D000020C5FEA500C50F1000041EB045170BD75
:1009E0000EF0004E4EEA113114EB5C04C2BFD4EBA2
:1009F0000C0541EA045170BD41F480114FF0000E26
:100A0000013C90E645EA060E8DE60CEA135594EAA1
:100A10000C0F08BF95EA0C0F3FF43BAF94EA0C0FA4
:100A20000AD150EA01347FF434AF95EA0C0F7FF419
:100A300025AF104619462CE795EA0C0F06D152EA6D
:100A400003353FF4FDAE1046194622E750EA410651
:100A500018BF52EA43067FF4C5AE50EA41047FF462
:100A60000DAF52EA43057FF4EBAE12E74FF0FF3CC7
:100A700006E000BF4FF0010C02E000BF4FF0010C98
:100A80004DF804CD4FEA410C7FEA6C5C4FEA430C11
:100A900018BF7FEA6C5C1BD001B050EA410C0CBF60
:100AA00052EA430C91EA030F02BF90EA020F0020C2
:100AB000704710F1000F91EA030F58BF994208BF29
:100AC00090422CBFD8176FEAE37040F001007047E6
:100AD0004FEA410C7FEA6C5C02D150EA013C07D13D
:100AE0004FEA430C7FEA6C5CD6D152EA033CD3D088
:100AF0005DF8040B704700BF8446104662468C4682
:100B00001946634600E000BF01B5FFF7B7FF0028B4
:100B100048BF10F1000F01BD4DF808EDFFF7F4FFDD
:100B20000CBF012000205DF808FB00BF4DF808ED68
:100B3000FFF7EAFF34BF012000205DF808FB00BF8B
:100B40004DF808EDFFF7E0FF94BF012000205DF8AD
:100B500008FB00BF4DF808EDFFF7CEFF94BF012062
:100B600000205DF808FB00BF4DF808EDFFF7C4FF5B
:100B700034BF012000205DF808FB00BF4FEA410CA4
:100B80007FEA6C5C02D150EA013C0AD14FEA430C87
:100B90007FEA6C5C02D152EA033C02D14FF00000C4
:100BA00070474FF0010070474FEA410212F5001202
:100BB00015D211D56FF47873B3EB625212D94FEAA4
:100BC000C12343F0004343EA505311F0004F23FA8E
:100BD00002F018BF404270474FF00000704750EAE3
:100BE000013005D111F0004008BF6FF000407047A0
:100BF0004FF00000704700BF4A0011D212F50012FA
:100C000011D20DD56FF47873B3EB62520ED44FEA64
:100C1000C12343F0004343EA505323FA02F07047E4
:100C20004FF00000704750EA013002D14FF0FF3022
:100C300070474FF0000070474FEA4102B2F1E043C5
:100C400024BFB3F5001CDCF1FE5C0DD901F0004CB3
:100C50004FEAC0024CEA5070B2F1004F40EB830003
:100C600008BF20F00100704711F0804F21D113F12F
:100C70003872BCBF01F00040704741F480114FEA68
:100C80005252C2F11802C2F1200C10FA0CF320FAF1
:100C900002F018BF40F001004FEAC1234FEAD3230E
:100CA00003FA0CFC40EA0C0023FA02F34FEA430378
:100CB000CCE77FEA625307D150EA01331EBF4FF001
:100CC000FE4040F44000704701F0004040F0FE401C
:100CD00040F40000704700BF80F0004002E000BF19
:100CE00081F0004142001FBF5FEA410392EA030F17
:100CF0007FEA226C7FEA236C6AD04FEA1262D2EB61
:100D00001363C1BFD218414048404140B8BF5B4265
:100D1000192B88BF704710F0004F40F4000020F0FE
:100D20007F4018BF404211F0004F41F4000121F014
:100D30007F4118BF494292EA030F3FD0A2F101025E
:100D400041FA03FC10EB0C00C3F1200301FA03F19C
:100D500000F0004302D5494260EB4000B0F5000FBF
:100D600013D3B0F1807F06D340084FEA310102F17E
:100D70000102FE2A51D2B1F1004F40EBC25008BF30
:100D800020F0010040EA03007047490040EB0000FA
:100D9000013A28BFB0F5000FEDD2B0FA80FCACF1FB
:100DA000080CB2EB0C0200FA0CF0AABF00EBC25028
:100DB00052421843BCBFD0401843704792F0000F16
:100DC00081F4000106BF80F400000132013BB5E769
:100DD0004FEA41037FEA226C18BF7FEA236C21D0DF
:100DE00092EA030F04D092F0000F08BF0846704744
:100DF00090EA010F1CBF0020704712F07F4F04D112
:100E0000400028BF40F00040704712F100723CBF24
:100E100000F50000704700F0004343F0FE4040F44E
:100E2000000070477FEA226216BF08467FEA23630C
:100E30000146420206BF5FEA412390EA010F40F4F7
:100E4000800070474FF0000304E000BF10F0004343
:100E500048BF40425FEA000C08BF704743F096432A
:100E600001464FF000001CE050EA010208BF704745
:100E70004FF000030AE000BF50EA010208BF7047CC
:100E800011F0004302D5404261EB41015FEA010CE1
:100E900002BF84460146002043F0B64308BFA3F1D9
:100EA0008053A3F50003BCFA8CF2083AA3EBC253BB
:100EB00010DB01FA02FC634400FA02FCC2F12002DA
:100EC000BCF1004F20FA02F243EB020008BF20F011
:100ED0000100704702F1200201FA02FCC2F1200277
:100EE00050EA4C0021FA02F243EB020008BF20EA6C
:100EF000DC70704753B94AB9002908BF00281CBFED
:100F00004FF0FF314FF0FF3000F0A4B9ADF1080C05
:100F10006DE904CE00F03CF8DDF804E0DDE90223E1
:100F200004B0704738B50022002304460D46FFF791
:100F3000FDFD28B920462946BDE8384000F00AB832
:100F4000204605F1004100F005F8404261EB410107
:100F500038BD00BFD0B50C4B002206460F46FFF748
:100F600073FBFFF749FE0446FFF7F4FA074B002234
:100F7000FFF76AFB02460B4630463946FFF7ACF9ED
:100F8000FFF73AFE2146D0BD0000F03D0000F041E1
:100F90002DE9F047089D04468C46002B40F08380E5
:100FA0008A42174647D9B2FA82F242B1C2F1200012
:100FB00024FA00F09140974040EA010C94404FEA37
:100FC0001748230CBCFBF8F61FFA87FE08FB16C176
:100FD00043EA014306FB0EF1994209D9FB1806F1D9
:100FE000FF3080F01981994240F21681023E3B4465
:100FF0005B1AA4B2B3FBF8F008FB103344EA0344D5
:1010000000FB0EFEA64509D93C1900F1FF3380F024
:101010000581A64540F2028102383C4440EA064080
:10102000A4EB0E0400261DB1D4400023C5E9004303
:101030003146BDE8F08702B9FFDEB2FA82F2002A3B
:1010400050D1CB1B4FEA174E1FFA87F80126B3FB8E
:10105000FEFC210C0EFB1C3341EA034108FB0CF3A0
:101060008B4207D979180CF1FF3002D28B4200F283
:10107000E9808446C91AA3B2B1FBFEF00EFB101141
:1010800043EA014408FB00F8A04507D93C1900F1E8
:10109000FF3302D2A04500F2D9801846A4EB080421
:1010A00040EA0C40BFE78B4209D9002D00F0B18027
:1010B0000026C5E9000130463146BDE8F087B3FAA5
:1010C00083F6002E4AD18B4202D3824200F2B880CE
:1010D000841A61EB030101208C46002DA8D0C5E9DC
:1010E000004CA5E7C2F1200320FA03F6974001FA6D
:1010F00002F04FEA174ED9403043030CB1FBFEF625
:101100001FFA87F80EFB161143EA014306FB08F1AC
:10111000994204FA02F409D9FB1806F1FF3C80F069
:101120008D80994240F28A80023E3B445B1A81B234
:10113000B3FBFEF00EFB103341EA034100FB08F362
:101140008B4207D9791800F1FF3C73D28B4271D9D9
:1011500002383944CB1A40EA064678E7C6F1200C3B
:1011600003FA06F422FA0CF31C4320FA0CF701FAF6
:1011700006F34FEA144E21FA0CF11F433B0CB1FB6E
:10118000FEF91FFA84F80EFB191143EA014109FB2D
:1011900008FA8A4502FA06F200FA06F308D961183D
:1011A00009F1FF3048D28A4546D9A9F10209214404
:1011B000A1EB0A01BFB2B1FBFEF00EFB101147EA32
:1011C000014700FB08F8B84507D9E71900F1FF31DE
:1011D0002ED2B8452CD90238274440EA0940A7EB63
:1011E0000807A0FB02894F45C64649461AD317D0C7
:1011F0005DB1B3EB0E0267EB010707FA0CFCF2409E
:101200004CEA0202F740C5E9002700263146BDE856
:10121000F0872E4628460BE70646E9E61846FDE627
:101220004345E5D2B8EB020E69EB04010138DFE774
:101230000846D2E760468DE78146B9E7664675E71E
:1012400030464AE7ACF1020C394413E702383C441B
:1012500024E700BF704700BF30B595B034220021AD
:1012600007A807F0E0FE0024029403940494059478
:1012700006940094194B1A6C42F080521A641B6C4D
:1012800003F080530093009B0194154B1A6842F4BD
:1012900040421A601B6803F440430193019B0225FE
:1012A000079501230A9310230B930D950E940F932A
:1012B000C023109311951295139507A806F0B6FE5A
:1012C0000F230293039504944FF4805305930694DF
:1012D000032102A806F0D6FD15B030BD003802404B
:1012E0000070004030B585B007F02EFCFFF7B4FF6A
:1012F00000F0C4FF01F0FAF801F0A2FC01F02CFCB0
:1013000001F038F901F01AF801F062FA01F092FAEE
:1013100001F0C4FA01F0C8F904F010FB01F07CFD03
:1013200001F0F0FE01F0CAFD02F024F871E004F0D3
:10133000C9F803F08FFE02F0F3F8002004F078FB08
:10134000002004F011FB002461E004F011F80020FB
:1013500000F0BCFE012004F037FC9FED420A04F0CF
:101360005DFC40F6B83007F01BFCE2E7002000F01F
:10137000ADFE002004F022FC012004F025FC9FEDCE
:101380003A0A04F055FC42F2107007F009FCD0E76D
:1013900000F016FCCDE741F2883007F001FCC8E709
:1013A000002000F093FE012004F00EFC00F08AFD06
:1013B000BFE704F061F9BCE72C4D2D4C2B462246CB
:1013C0000521084602F092F90023029301230193BC
:1013D000284B009305231A462946204603F018FDA2
:1013E000A7E7254D01224FF46451284607F0C8F8BD
:1013F0004FF42F7007F0D4FB00224FF464512846BD
:1014000007F0BEF84FF4967007F0CAFB0134022CC7
:10141000E7DD03F071FF03F023FE0F2889D801A355
:1014200053F820F02F1300084B1300086D13000829
:101430009113000897130008A11300083313000844
:10144000B3130008331300083313000833130008E4
:101450003313000833130008331300083313000854
:10146000B9130008EC51B83DD053FB4124020020D1
:101470002406002000000020000002407047000009
:1014800008B501F001FD034A1388C31A108018B291
:1014900008BD00BF1400002008B501F0FBFC034AA2
:1014A0001388C31A108018B208BD00BF12000020B4
:1014B00008B52DED028BFFF7E3FF07EE900AF8EE7B
:1014C000E77A9FED2B7A67EE877ADFED2A8A87EE3F
:1014D000A88AFFF7E1FF07EE900AF8EEE77A9FEDA2
:1014E000267A67EE877A87EEA87ADFED246A68EEBF
:1014F000267A234BC3ED007A27EE267A214B83ED23
:10150000007A214BD3ED006AF4EEE67AF1EE10FAA0
:1015100017DDC3ED007A1D4BD3ED006AB4EEE67A19
:10152000F1EE10FA18DD83ED007A77EE877AB6EEE9
:10153000007A67EE877A164BC3ED007ABDEC028B1A
:1015400008BD144BD3ED006AF4EEE67AF1EE10FA22
:10155000E1D5C3ED007ADEE70F4BD3ED006AB4EEC0
:10156000E67AF1EE10FAE0D583ED007ADDE700BF10
:101570007B59C4C500C07F447B59C4452F50D23B22
:101580009C0A0020900A0020A00A0020940A002053
:10159000800A0020A40A0020980A0020014B93ED45
:1015A000000A70479C0A0020014B93ED000A704727
:1015B000A00A0020014B93ED000A7047A40A002006
:1015C000014B93ED000A7047940A00200023044A5F
:1015D0001360044A1360044A1360044A136070479E
:1015E000A40A0020A00A0020980A0020940A0020E3
:1015F000014B93ED000A7047800A002000000000B4
:1016000038B52DED028B3A4B1A883A4BA3FB0213E7
:10161000DB0803EB8303A2EB43039CB2FFF7E8FF75
:10162000354A02EBC40484ED000A01F0EBFD84EDC1
:10163000010ADFED327AB0EE677A0023092B0DD86C
:101640002D4A02EBC302D2ED006A37EE267AD2EDC4
:10165000016A77EEA67A01339BB2EFE7F2EE046AF5
:10166000C7EE268A87EEA68AB5EEC08AF1EE10FA9A
:1016700030D4F6EE007AB4EEE78AF1EE10FA4CBF01
:10168000012300230BB19FED1D8A18EE100AFEF70F
:1016900083FF15A3D3E90023FEF7D6FF0022184BE2
:1016A000FEF7D2FF04460D4618EE900AFEF774FFCF
:1016B00022462B46FEF712FEFFF7BEFA114B1860CA
:1016C000114B83ED008A0A4A138801331380BDEC65
:1016D000028B38BDFEEE007AB4EEE78AF1EE10FA26
:1016E000CCBF01230023CDE77B14AE47E17A843FD2
:1016F000240A0020CDCCCCCC280A00200000000019
:101700000000E03F840A0020780A0020014B93ED9E
:10171000000A7047840A0020014B93ED000A7047CD
:10172000780A00200000000070B5FFF7EFFF10EE10
:10173000100AFEF731FF0BA3D3E90023FEF784FF65
:1017400004460D46064E3068FEF726FF22462B461D
:10175000FEF7C4FDFFF770FA306070BDAFF3008094
:101760007C0A0020FCA9F1D24D62503F014B93ED61
:10177000000A70477C0A0020014B83ED000A704785
:101780007C0A002008B501F059FD024B83ED000AE8
:1017900008BD00BF8C0A0020014B93ED000A704782
:1017A0008C0A00200000000070B50D4B1868FEF791
:1017B000F3FE09A3D3E90023FEF746FF04460D46D6
:1017C000084E3068FEF7E8FE22462B46FEF786FDFF
:1017D000FFF732FA306070BDFCA9F1D24D62503F84
:1017E0008C0A0020880A002008B5FFF7CBFFFFF71E
:1017F0009BFFFFF7D9FF08BD014B93ED000A70472F
:10180000880A0020014B83ED000A7047880A0020F7
:10181000014B93ED000A7047B40A0020014B93ED91
:10182000000A7047B00A002070B52DED048B04F05B
:10183000D1F9B0EE409AFFF769FF39EE409A04F013
:10184000CFF9F0EE408AFFF7A7FF78EEC08A19EED5
:10185000100AFEF7A1FE2AA3D3E90023FEF7F4FE47
:1018600004460D46204E3068FEF796FE22462B4673
:10187000FEF734FDFFF7E0F908EE100A306018EECD
:10188000900AFEF789FE16A3D3E90023FEF7DCFEDB
:1018900004460D46154E3068FEF77EFE22462B4666
:1018A000FEF71CFDFFF7C8F907EE900A30609FEDC8
:1018B000100A29EE009A38EE098A9FED0E0A68EEAA
:1018C000808A77EEA88A78EE287A0B4BC3ED007AEF
:1018D00038EE688A094B83ED008ABDEC048B70BD3D
:1018E000FCA9F1D23DC9823FA80A0020AC0A002021
:1018F000D1222B40AD2FB23EB40A0020B00A002006
:101900008B6CE7FBB935A43F0023024A1360024AFF
:1019100013607047A80A0020AC0A002000000000F5
:101920002DE9F04F2DED088B85B0002001F060FE11
:1019300057EC106B032001F05BFE55EC104B7DA3C0
:10194000D3E9002330463946FEF7C6FC06460F466B
:101950007AA3D3E9002320462946FEF7BDFC0446BE
:101960000D4602460B4630463946FEF7B7FC804628
:10197000894632463B4620462946FEF7ADFC71A318
:10198000D3E90023FEF78AFF06460F466FA3D3E98B
:10199000002340464946FEF757FE614CD4E9002338
:1019A000FEF79CFC41EC1B0BC4E900014EA3D3E9FC
:1019B000002330463946FEF747FE5A4CD4E900234F
:1019C000FEF78CFC41EC1A0BC4E9000148A3D3E9F3
:1019D000002340464946FEF737FE04460D4646A31F
:1019E000D3E9002330463946FEF72EFECDE9020149
:1019F000DFF860B1DBE90023CDE9008940464946C4
:101A0000FEF76AFC3EA3D3E90023FEF71DFEDFF8D4
:101A10004891D9E90023FEF761FC3BA3D3E90023F9
:101A2000FEF73CFF41EC190BDFF830A1DAE90023A7
:101A300030463946FEF750FC35A3D3E90023FEF7C4
:101A400003FEDFF81C81D8E90023FEF747FC32A330
:101A5000D3E90023FEF722FF41EC180B22462B4668
:101A600051EC1B0BFEF73AFC53EC192BFEF736FC3E
:101A700004460D46DDE9022351EC1A0BFEF72EFC5D
:101A800053EC182BFEF72AFCCDE9020102460B4667
:101A900020462946FEF722FC0022234BFEF7D4FD08
:101AA000FFF7CAF8214B1860DDE9022320462946DA
:101AB000FEF712FC00221C4BFEF7C6FDFFF7BCF838
:101AC0001B4B18609DED007B8BED007BCAE9006726
:101AD00089ED009B88ED008B05B0BDEC088BBDE85F
:101AE000F08F00BFAFF3008060E5D0229BA5643F7C
:101AF00000000000631A5F40000000E08A9E194069
:101B000000000060A2AB5340C1CAA1852062F03F33
:101B100000000000236C22407368916D81B6F03F95
:101B2000C80A0020E00A00200000E03FF40A00207C
:101B3000F00A002000000060BC74833F000000E059
:101B40004F8D873F000000E0BED5A23F08AC1C5A75
:101B5000D4DF9A3FD00A0020C00A0020E80A002003
:101B6000D80A0020014B93ED000A7047F40A0020C8
:101B7000014B93ED000A7047F00A00200022002379
:101B80000949C1E900230949C1E900230849C1E91C
:101B900000230849C1E900230749C1E90023074997
:101BA000C1E90023704700BFC80A0020E00A0020F6
:101BB000D00A0020E80A0020C00A0020D80A00202D
:101BC000F8B5012000F082FA454B00221A8022E08D
:101BD000032001F00DFD53EC102B3BA1D1E90001D6
:101BE000FEF77AFB064601F1004730E0002001F0E5
:101BF000FFFC53EC102B36A1D1E90001FEF76CFB82
:101C0000044601F100453EE0354B00221A80344B7A
:101C10001B88632B4AD8032001F0EAFC53EC102BFD
:101C200029A1D1E90001FEF757FB00220023FEF7AE
:101C30007DFF0028CCD1032001F0DAFC53EC102BFF
:101C400021A1D1E90001FEF747FB06460F4600201F
:101C500001F0CEFC53EC102B1DA1D1E90001FEF7E1
:101C60003BFB00220023FEF761FF0028BED10020CD
:101C700001F0BEFC53EC102B15A1D1E90001FEF7D9
:101C80002BFB04460D4622462B4630463946FEF7CE
:101C90006BFF08B134463D460FA3D3E9002320462D
:101CA0002946FEF761FF0028B1D0ADE703F0A4FF9D
:101CB000FFF762FD03F0ACFFFFF7A4FD002000F08A
:101CC00005FAF8BDAFF30080000000E04F8D873FBC
:101CD00000000060BC74833F613255302AA9333F55
:101CE000B80A0020054A138801339BB21380642B85
:101CF00002D9134664221A80704700BFB80A002038
:101D000008B5FFF70DFEFFF7EDFF08BD08B52DED97
:101D1000028B03F06BFFB0EE408A03F06DFF38EEEC
:101D2000408AB5EEC08AF1EE10FA13D403F05EFFDC
:101D3000B0EE408A03F060FF38EE408ADFED0E7AA5
:101D4000B4EEE78AF1EE10FA4CBF01200020BDECA2
:101D5000028B08BD03F04AFFB0EE408A03F04CFF4F
:101D600038EE408ADFED057AB4EEE78AF1EE10FA3C
:101D7000CCBF01200020EAE717B7513917B751B996
:101D800008B52DED028B03F03DFFB0EE408A03F065
:101D90003FFF38EE408AB5EEC08AF1EE10FA13D458
:101DA00003F030FFB0EE408A03F032FF38EE408A95
:101DB000DFED0E7AB4EEE78AF1EE10FA4CBF0120A7
:101DC0000020BDEC028B08BD03F01CFFB0EE408A82
:101DD00003F01EFF38EE408ADFED057AB4EEE78AA5
:101DE000F1EE10FACCBF01200020EAE70AD7A33BAE
:101DF0000AD7A3BB08B5002003F0DAFE002003F0E9
:101E0000E3FE9FED040A03F009FFFFF77FFF0028C0
:101E1000FBD008BD22727A3C08B5002003F0C8FE52
:101E2000002003F0D1FE9FED040A03F0F7FEFFF758
:101E30006DFF0028FBD008BDEC51383D08B50020EF
:101E400003F0B6FE012003F0BFFE9FED040A03F08D
:101E5000E5FEFFF75BFF0028FBD008BDEC51383DE5
:101E600008B5002003F0A4FE002003F0ADFE9FEDB6
:101E7000040A03F0D3FEFFF749FF0028FBD008BD9A
:101E8000EC51B83D08B5012003F098FE9FED040A1F
:101E900003F0CEFEFFF774FF0028FBD008BD00BFA3
:101EA000DA0FC9BF08B5002003F088FE9FED040AD1
:101EB00003F0BEFEFFF764FF0028FBD008BD00BFA3
:101EC000DA0FC93F08B5002003F078FE9FED040A41
:101ED00003F0AEFEFFF754FF0028FBD008BD00BFA3
:101EE000DA0F4940014B00221A707047FB0A0020AC
:101EF0000023034A1370034A1370034A1370704798
:101F0000F80A0020FA0A0020F90A0020014B0122F9
:101F10001A707047F80A0020014B01221A707047AE
:101F2000FA0A0020014B01221A707047F90A0020BA
:101F300008B5094B1B784BB1074B1B78012B08D018
:101F4000054B01221A70FFF7D3FF08BDFFF764FFAE
:101F5000F2E7FFF785FFF3E7FB0A002008B5134B14
:101F60001B783BB9124B1B78012B0DD0FFF78AFF72
:101F7000FFF752FF0D4B1B78012B08D00B4B0122B2
:101F80001A70FFF7B5FF08BDFFF71AFEEEE7FFF77F
:101F900055FF074B1B78012B04D0FFF773FFFFF7AA
:101FA0003BFFEBE7FFF70CFEF7E700BFFB0A002063
:101FB000F80A002008B5134B1B783BB9124B1B786D
:101FC000012B0DD0FFF76EFFFFF726FF0D4B1B789F
:101FD000012B08D00B4B01221A70FFF789FF08BDB7
:101FE000FFF7EEFDEEE7FFF729FF074B1B78012B0C
:101FF00004D0FFF757FFFFF70FFFEBE7FFF7E0FD18
:10200000F7E700BFFB0A0020F80A002008B52B4BB9
:102010001B783BB92A4B1B78012B0DD0FFF752FFE1
:10202000FFF7FAFE254B1B78012B20D0234B012212
:102030001A70FFF75DFF08BDFFF7C2FD214B1B784B
:10204000012B06D0204B1B78012B09D0FFF73AFF5C
:10205000E6E7FFF717FFFFF7B3FDFFF713FFDFE733
:10206000FFF720FFFFF7ACFDFFF71CFFD8E7FFF7F6
:10207000E5FE134B1B78012B04D0FFF723FFFFF77E
:10208000CBFED3E7FFF79CFD0E4B1B78012B06D050
:102090000D4B1B78012B09D0FFF714FFEFE7FFF77B
:1020A000F1FEFFF78DFDFFF7EDFEE8E7FFF7FAFE23
:1020B000FFF786FDFFF7F6FEE1E700BFFB0A002011
:1020C000F80A0020FA0A0020F90A0020014B1870D3
:1020D000704700BFFC0A002008B5FFF799FB044BCE
:1020E00083ED000AFFF79AFB024B83ED000A08BD5F
:1020F000080B0020040B002008B5FFF733FD044B4C
:1021000083ED000AFFF734FD024B83ED000A08BDA2
:10211000080B0020040B00200023024A1360024A2F
:1021200013607047080B0020040B00200023024AB4
:102130001360024A13607047080B0020040B002054
:1021400008B5094B1B78012B08D0022B09D013B11D
:10215000FFF7ECFF01E0FFF7BFFF08BDFFF7CCFF83
:10216000FBE7FFF7D9FFF8E7FC0A002008B5064BAC
:102170001B7813B1012B03D008BDFFF7FFFCFBE771
:10218000FFF7C2FBF8E700BFFC0A002008B52DED01
:10219000028B114B93ED008A00F02CFEC8EE007A02
:1021A0009FED0E8A67EE887AFDEEE77A0C4B17EE0C
:1021B000902A1A800B4BD3ED008A00F01BFEC8EE6C
:1021C000807A67EE887AFDEEE77A074B17EE902A61
:1021D0001A80BDEC028B08BD080B002000007A4479
:1021E000000B0020040B0020FE0A00200C4BB3F96A
:1021F0000030002B0BDD2833094A1380094BB3F95B
:102200000030002B07DD2833064A138070472D3B32
:10221000034A1380F2E72D3B024A1380704700BF48
:10222000000B0020FE0A002008B5054BB3F90000A2
:1022300003F09AFB034BB3F9000003F0F9FB08BD70
:10224000FE0A0020000B002008B5FFF779FFFFF71A
:102250008DFFFFF79BFFFFF7C9FFFFF7E5FFFFF7D4
:1022600085FF08BD014BB3F900007047000B00204B
:10227000014BB3F900007047FE0A00202DE9F0433E
:1022800089B000240394049405940694079401945F
:10229000274B1A6B42F001021A631A6B02F001021B
:1022A0000192019A02941A6B42F002021A631B6BAC
:1022B00003F002030293029B1E4D224643F6F011E7
:1022C000284606F05DF9DFF8708022464FF4805111
:1022D000404606F055F9F02303930127049705942F
:1022E0000326069603A9284606F06AF84FF002096D
:1022F000CDF80C900494059403A9404606F060F8CC
:102300004FF48053039304970594069603A940461F
:1023100006F056F84FF4645303930497CDF81490E5
:10232000069603A9284606F04BF809B0BDE8F083ED
:1023300000380240000002400004024000B585B0B1
:10234000002300930193029303933048304A0260C4
:102350004FF480324260836001220261037680F88C
:1023600020304FF04051C1624FF000718162C36074
:102370000521C16180F83020436103F0C9FE0028C7
:1023800031D108230093012301930323029369466B
:102390001E4803F0D5FF48BB00230093022301939E
:1023A00069461A4803F0CCFF18BB012300930323AE
:1023B00001936946154803F0C3FFE8B9022300936F
:1023C000042301936946114803F0BAFFB8B9032307
:1023D00000930523019369460C4803F0B1FF88B9C7
:1023E00005B05DF804FBFFF749F8CAE7FFF746F8C8
:1023F000D2E7FFF743F8D8E7FFF740F8DEE7FFF74B
:102400003DF8E4E7FFF73AF8EAE700BF1CBB01201C
:102410000020014070B588B0002303930493059316
:1024200006930793026803F1804303F590339A42C1
:1024300001D008B070BD04460025009503F58C332B
:102440005A6C42F480725A645A6C02F480720092A0
:10245000009A01951A6B42F001021A631A6B02F09E
:1024600001020192019A02951A6B42F002021A636C
:102470001B6B03F002030293029B0F2303930326BB
:102480000496059503A9154805F09AFF01230393C7
:102490000496059503A9124805F092FF1148124BC6
:1024A000036045608560C5604FF4806303614FF44D
:1024B000006343614FF4005383614FF48073C36141
:1024C0004FF440330362456206F0E0F818B9054B5B
:1024D000A3639C63ADE7FEF7D1FFF8E7000002407D
:1024E0000004024064BB01201064024010B582B0B9
:1024F000002400941E4B1A6B42F400121A631A6BEC
:1025000002F400120092009A01941A6B42F48002C5
:102510001A631B6B03F480030193019B224621463F
:102520000E2006F093FA0E2006F0C4FA2246214649
:102530000F2006F08BFA0F2006F0BCFA2246214647
:10254000382006F083FA382006F0B4FA224601213A
:10255000392006F07BFA392006F0ACFA2246012138
:102560003A2006F073FA3A2006F0A4FA02B010BD41
:102570000038024008B50F480F4B03604FF48273D8
:10258000436000238360C360022202610122426132
:102590004FF4007282612022C2610362436283624F
:1025A0000A23C36204F062F800B908BDFEF766FFB3
:1025B000FBE700BFC4BB01200038004030B589B044
:1025C0000023039304930593069307930268304B0B
:1025D0009A4201D009B030BD04460025019503F5AB
:1025E00000331A6C42F480421A641A6C02F480427E
:1025F0000192019A02951A6B42F002021A631B6B58
:1026000003F002030293029B4FF4604303930223FF
:1026100004930595032306930523079303A91D48F7
:1026200005F0CEFE1C481D4B036045608560C5600B
:102630004FF48063036145618561C5614FF40033E8
:102640000362456206F022F8D8B9134BE3649C6339
:102650001348144B03600023436040228260C36030
:102660004FF48062026143618361C3614FF40032C1
:102670000262436206F00AF830B9094BA3649C6316
:10268000A8E7FEF7FBFEE0E7FEF7F8FEF5E700BF80
:1026900000380040000402401CBC01205860024089
:1026A0007CBC01207060024010B596B000241294EA
:1026B0001394149415941094119409940A940B94FF
:1026C0000C940D940E940F942022214601A806F03C
:1026D000AAFC3D483D4B0360446084604FF6FF1305
:1026E000C36004614461846104F0BCFD002850D1E2
:1026F0004FF48053129312A9334804F030FF00289E
:102700004AD1314804F0E2FD002848D12E4804F0B7
:10271000C3FD002846D100231093119310A92A4825
:1027200005F032F8002840D16023099301230A9371
:1027300000220B920C920D920E920F9209A9224840
:1027400004F093FE002833D141F658330A93042253
:1027500009A91D4804F089FE68BB302309934FF492
:10276000B4530A93082209A9174804F04FFE28BB66
:102770000023019302930393049305934FF40052B3
:102780000692089301A9104805F021F8C8B916B0BF
:1027900010BDFEF773FEABE7FEF770FEB1E7FEF784
:1027A0006DFEB3E7FEF76AFEB5E7FEF767FEBBE72F
:1027B000FEF764FEC8E7FEF761FECEE7FEF75EFEB9
:1027C000D6E7FEF75BFEE2E780BE01200000014095
:1027D00000B58DB000230193029315484FF080425D
:1027E0000260436083604FF6FF72C26003618361E1
:1027F0000322039204930122059206930793089300
:1028000009920A930B9303A904F07AFD50B90023AF
:102810000193029301A9064804F0B6FF28B90DB050
:102820005DF804FBFEF72AFEF1E7FEF727FEF6E768
:10283000D0BE012000B58DB000230193029315484E
:10284000154A0260436083604FF6FF72C260036105
:102850008361032203920493012205920693079356
:10286000089309920A930B9303A904F049FD50B908
:1028700000230193029301A9064804F085FF28B9BB
:102880000DB05DF804FBFEF7F9FDF1E7FEF7F6FD8C
:10289000F6E700BFE4BD01200004004000B583B0AE
:1028A0000023009301930F480F4A02600322426005
:1028B000836045F6BF52C260836104F0D3FC50B917
:1028C0000023009301936946064804F05DFF28B990
:1028D00003B05DF804FBFEF7D1FDF1E7FEF7CEFD96
:1028E000F6E700BF40BE01200010004010B584B0E4
:1028F0000368404A934207D03F4A934258D03F4A28
:10290000934262D004B010BD04460023019302F547
:102910009C32516C41F001015164526C02F0010291
:102920000192019A3648374A02604FF04062426095
:1029300040228260C3604FF4806202614FF4006203
:1029400042614FF4005282614FF48072C2614FF4D1
:1029500000320262436205F099FE18BB284B6362A5
:102960009C632948294B03604FF040634360402338
:1029700083600023C3604FF4806202614FF4006201
:1029800042614FF4005282614FF48072C2614FF491
:1029900000320262436205F079FE30B91A4BA3623D
:1029A0009C63AFE7FEF76AFDD8E7FEF767FDF5E742
:1029B00000230293164B1A6C42F004021A641B6C3B
:1029C00003F004030293029B9CE700220392104B46
:1029D000196C41F0100119641B6C03F01003039390
:1029E000039B0221362006F031F8362006F062F80B
:1029F00088E700BF000001400008004000100040D0
:102A0000DCBC01202864024084BD012040640240F7
:102A10000038024070B58AB00023059306930793EF
:102A2000089309930368B3F1804F04D02F4A93426F
:102A30003AD00AB070BD0024009403F50E331A6C2E
:102A400042F001021A641A6C02F001020092009A2C
:102A500001941A6B42F001021A631A6B02F0010230
:102A60000192019A02941A6B42F002021A631B6BE4
:102A700003F002030293029B4FF4004305930226E6
:102A80000696079408940125099505A9184805F0AC
:102A900097FC08230593069607940894099505A9C1
:102AA000144805F08DFCC4E700220392124B196C08
:102AB00041F002011964196C01F0020103910399BC
:102AC0000492196B41F0020119631B6B03F00203BE
:102AD0000493049B302305930223069307920892E4
:102AE000099305A9034805F06BFCA2E70004004028
:102AF00000000240000402400038024000B587B0E8
:102B00000023019302930393049305930268104BEF
:102B10009A4202D007B05DF804FB0021009103F552
:102B20000C331A6B42F002021A631B6B03F00203B0
:102B30000093009B4FF4707301930223029303915F
:102B400003220492059301A9024805F039FCE1E74C
:102B5000000800400004024000B58FB000230A9333
:102B60000B930C930D930893099301930293039392
:102B700004930593069307932F48304A02604360FD
:102B8000836040F2BF32C2600361836104F06AFB7C
:102B9000002839D14FF480530A930AA9264804F03B
:102BA000DEFC002833D1244804F090FB002831D10A
:102BB00000230893099308A91F4804F0E5FD60BBB2
:102BC00070230193002202920392059201A91A48F0
:102BD00004F04BFC20BB04220DEB0201164804F06C
:102BE00044FC00BB082201A9134804F03EFCE8B9EC
:102BF0000C2201A9104804F038FCD0B90E48FFF7A8
:102C00007DFF0FB05DF804FBFEF738FCC2E7FEF76E
:102C100035FCC8E7FEF732FCCAE7FEF72FFCCFE72A
:102C2000FEF72CFCD7E7FEF729FCDBE7FEF726FCD6
:102C3000DEE7FEF723FCE1E73CBD01200008004091
:102C400008B50A480A4B03604FF461334360002320
:102C50008360C36003610C2242618361C36104F03D
:102C6000AFFF00B908BDFEF709FCFBE710BF01206C
:102C70000010014000B589B000230393049305932D
:102C800006930793026803F1804303F588339A4261
:102C900002D009B05DF804FB0021019103F59433E3
:102CA0005A6C42F010025A645A6C02F010020192FF
:102CB000019A02911A6B42F001021A631B6B03F036
:102CC00001030293029B4FF4C06303930223049316
:102CD00001230593032306930723079303A90248BF
:102CE00005F06EFBD5E700BF000002407047FEE72D
:102CF000FEE7FEE7FEE770477047704708B505F04E
:102D00003DFF08BD08B5024805F074FD08BD00BFD1
:102D10001CBC012008B5024805F06CFD08BD00BFD1
:102D20007CBC012008B5054804F07BF900F02AFBC3
:102D300000F0A6FA00F04AFB08BD00BF40BE01202B
:102D400008B5024805F056FD08BD00BF64BB012070
:102D500008B5024805F04EFD08BD00BFDCBC0120EF
:102D600008B5024805F046FD08BD00BF84BD01203E
:102D700082B0002100910B4B5A6C42F480425A649D
:102D80005A6C02F480420092009A01911A6C42F04F
:102D900080521A641B6C03F080530193019B02B0B4
:102DA000704700BF003802400F49D1F8883043F423
:102DB0007003C1F888300D4B1A6842F001021A60A6
:102DC000002098601A6822F0847222F480321A601F
:102DD000074A5A601A6822F480221A60D8604FF0BD
:102DE00000638B60704700BF00ED00E000380240D8
:102DF0001030002408B500F0E7FB07EE900AF8EE6B
:102E0000E77AB1EE080A67EE807A9FED020A27EEB4
:102E1000800A08BD0000803910B5084C23680021E5
:102E2000986807F0CBF823680021586807F0C6F8C7
:102E300023680021D86807F0C1F810BD2C000020DD
:102E400000B583B08DF8070001231A460DF1070184
:102E5000024804F0E4FE03B05DF804FB10BF01205B
:102E600000B583B0022038B10A2301220DF1070119
:102E7000044804F044FFF6E79DF8070003B05DF84E
:102E800004FB00BF10BF01204FF08043586A80B29E
:102E900070470000014B586A80B270470004004040
:102EA000024B47F6FE725A62704700BF00040040B2
:102EB0004FF0804347F6FE725A62704708B53C21D6
:102EC000054804F03FFC3C21044804F03BFCFFF7BC
:102ED000E7FFFFF7EDFF08BDD0BE0120E4BD0120F4
:102EE000084B5B6AA3F5FF437E3B07EE903AF8EE92
:102EF000E77A9FED050A67EE807A9FED040A87EE78
:102F0000800A704700040040DA0FC94000C07F44C7
:102F10004FF080435B6AC3F5FF437E3307EE903A80
:102F2000F8EEE77A9FED040A67EE807A9FED030AD8
:102F300087EE800A704700BFDA0FC94000C07F44A7
:102F400038B504460D4621F0004100221B4BFDF729
:102F5000EDFD90B100221A4B20462946FDF7FAFDFF
:102F600070B10022164B20462946FDF7B7F941EC17
:102F7000100B0AF07DFB55EC104B2046294638BD5E
:102F80000022104B20462946FDF7EEFD40B10022FD
:102F9000002320462946FDF757FB04460D46ECE783
:102FA0000022074B20462946FDF796F941EC100B0D
:102FB0000AF0DEFA55EC104BDFE700BF00003043AB
:102FC0000000E03F0000E0BF2DE9F84305460F4652
:102FD00016469846D1F8009000244C450EDA35F894
:102FE0001400FDF7B7FA0022174BFDF72DFB174A27
:102FF00002EBC402C2E900010134EEE7D7F8009009
:1030000000254D450ADA114C04EBC50494ED000B84
:103010000AF0B2FB84ED000B0135F2E73D68C8F819
:10302000005000240BE0094B03EBC403D3E900017B
:10303000FFF786FFFDF7E0FD26F814000134A542F6
:10304000F1DCBDE8F88300BF0000A03F100B0020BA
:1030500030B585B08DF8071000F07F008DF80F00B7
:103060000E4C00224FF48051204605F089FA0C4D99
:1030700001231A460DF10F01284603F037FB012307
:103080001A460DF10701284603F030FB01224FF4E8
:103090008051204605F074FA05B030BD00040240AE
:1030A000C4BB012030B583B060F07F008DF807000D
:1030B0000F4C00224FF48051204605F061FA0D4D6F
:1030C00001231A460DF10701284603F00FFB0123E7
:1030D0001A460DF10601284603F0F6FC01224FF4D2
:1030E0008051204605F04CFA9DF8060003B030BD33
:1030F00000040240C4BB012008B50020FFF7D2FF46
:1031000008BD000008B5642005F04AFDFFF7F4FF94
:10311000FFF7F2FFE02803D01E4806F0B1FEFBE700
:10312000642005F03DFD10210320FFF791FF0120F1
:1031300005F036FD01210620FFF78AFF642005F027
:103140002FFD20217F20FFF783FF642005F028FD5D
:1031500007210120FFF77CFF012005F021FD0D2153
:103160001420FFF775FF012005F01AFD00217F20D4
:10317000FFF76EFF642005F013FD00224FF480512D
:10318000054805F0FDF90D23044A0549054803F0FB
:103190004FFD08BD50DD000800040240182B002040
:1031A0001C000020C4BB012038B5104D01224FF493
:1031B0008051284605F0E4F90D4CE278237943EA82
:1031C00002230C4A1380E27A237B43EA02230A4A51
:1031D000138000224FF48051284605F0D1F90D23C9
:1031E00022460649064803F023FD38BD000402408C
:1031F000182B0020122B0020162B00201C00002072
:10320000C4BB0120094BB3F90030094AB2F90020D0
:103210009B1A07EE903AF8EEE77A9FED060A67EE02
:10322000807A9FED050A27EE800A7047122B002056
:10323000102B00200AE81C41000080390B4BB3F929
:1032400000300B4AB2F900209B1A07EE903AF8EED4
:10325000E77A9FED087AC7EE876A9FED077AC6EE98
:10326000877A9FED060A20EE670A7047162B00202A
:10327000142B00201904864100003443DA0F494022
:1032800008B5FEF715F9FEF7BBF901F0DDFE0128E0
:1032900000D008BD01F0E4FE01380E28F9D801A3E2
:1032A00053F820F0E1320008FB3200081533000823
:1032B0002F330008353300084F330008553300081A
:1032C00093320008933200089332000893320008CA
:1032D0009332000893320008933200085B330008F1
:1032E00002F04CF8FEF780FA02F06EFEFEF79CFA50
:1032F000FEF706FDFEF7A8FFCBE702F03FF8FEF76A
:1033000073FA02F061FEFEF78FFAFEF7F9FCFEF7A2
:103310009BFFBEE702F032F8FEF766FA02F054FEB9
:10332000FEF782FAFEF7ECFCFEF78EFFB1E702F043
:1033300025F8AEE702F022F8FEF756FA02F044FE56
:10334000FEF772FAFEF7DCFCFEF77EFFA1E702F063
:1033500015F89EE702F012F89BE702F00FF8FEF76F
:1033600043FA02F031FEFEF75FFAFEF7C9FCFEF702
:103370006BFF8EE708B5024803F03BFE08BD00BFB7
:1033800040BE012008B50C4B1B685A6A0B4B1A60F3
:103390000B4B18685968013041F100011860596001
:1033A000FDF762FD06EE900A9FED067AC6EE877A7B
:1033B000054BC3ED007A08BD40BE0120382B00202C
:1033C000302B002000007A44282B00200A4B19687B
:1033D0004B6A0A4A12689A1A4FF47A7303FB02F393
:1033E000CA6AB3FBF2F3064A1360064A11688B42BD
:1033F00038BF0B461360704740BE0120382B0020B9
:103400003C2B0020402B0020014B1888704700BF48
:103410003C2B0020014B1888704700BF402B002038
:10342000014B93ED000A7047282B00200E4B1B78B0
:10343000012B10D0022B12D04BB15A1C0B4B83FB2B
:10344000021303EB4303D31A074A13707047084A69
:1034500090211180F1E7064A60211180EDE7044ACE
:1034600000211180E9E700BF502B0020565555552B
:10347000542B002010B500210B4B19800B4B1980E9
:103480000B4B19700B4C23686FF001021A61204638
:1034900004F004F90421204604F000F90821204634
:1034A00004F0DCF810BD00BF522B0020542B00208C
:1034B000502B002080BE012038B5124C124A00214A
:1034C000A06A05F085FA114D01232A461049606A69
:1034D00005F042F901232A460E49A06A05F03CF99D
:1034E00005220D490D4802F03FFE2368DA6842F4D8
:1034F000C062DA605A6C42F400425A64FFF7BAFFC5
:1035000038BD00BF80BE01202D34000814000240E9
:10351000542B0020522B0020442B00201CBB0120E8
:1035200010B50C4C0021204604F0D8F804212046A8
:1035300004F0D4F80821204604F0D0F8A06A05F081
:1035400045F9606A05F042F90022F021024805F0D1
:1035500017F810BD80BE012000000240154B1A78FC
:103560000232154B83FB021303EB4303D31A012BE7
:1035700011D0022B16D003B17047104B1988104A96
:10358000118059880F4A118099889180D9881181BA
:103590001B8993817047094A51880A4B59801289C7
:1035A000DA817047054A9188064BD980D2885A81C2
:1035B000E2E700BF502B002056555555442B002004
:1035C0004E2B0020582B0020014B1888704700BF5D
:1035D0004E2B0020044A02EB80035B8832F8200067
:1035E000181A00B2704700BF582B002000000000DE
:1035F0002DE9F8432DED028B0446FFF7EBFF05465E
:10360000FCF7B8FF642D30DD41EC100BECB1002667
:103610000027B046B946032C1FD00AF0EBF853EC54
:10362000102B40464946FDF739F932463B46FCF738
:1036300053FE02460B4643EC182B00220023FDF7F5
:1036400075FAA0B19FED0E8B11E011A7D7E90067C5
:103650000FF24409D9E90089DDE711A7D7E900672E
:103660000FF23409D9E90089D7E79FED078BB0EE57
:10367000480AF0EE680ABDEC028BBDE8F88300BF93
:1036800000000000000000000AD7A3703D0AB73F09
:1036900090A0F831E6AEB53F666666666666E63FC0
:1036A000CBA145B6F3FDB43FF0B58BB00D48C28950
:1036B000838944890189C58887884688008808905D
:1036C0000796361A069605970495ED1B0395029109
:1036D0000194641A0094D11A034806F0D1FB0BB090
:1036E000F0BD00BF582B00205CDD00082DE9F84339
:1036F00004468846174699464FF4806200213846B2
:1037000005F091FC611E8C4200D20021002426E0CD
:1037100004EB4012BB5C43F00103BB5416E004EB26
:103720004012BB5C43F00203BB5412E04201BB5C9D
:1037300043F00403BB540EE03B5D43F008033B55EC
:103740002846B0420ADA621C8A42E1D0451CB542E2
:10375000E5D0002CEAD00028F2D1EDE701348C420C
:1037600006DA08F1FF36B04500D200260020E8E76F
:103770003B7843F002033B7097F8203043F0080396
:1037800087F820304FF480623946484605F03DFC0A
:103790003B7843F0010389F800307B7843F0040361
:1037A00089F80130BDE8F8832DE9F04F89B08246F1
:1037B000934618460593179B9DF8602002920122BC
:1037C0000A708BF800209AF8002003920270002201
:1037D0000192D146DDF850A0B8E10132AA420CDADC
:1037E0000C78985C8442F8D19BF800409818407A95
:1037F0008442F2D101200190EFE7019A002A40F0C3
:10380000A38199F800809BF8004004940D786A1E0B
:10381000560104EB4212013A1598825CB8F1070F89
:1038200053D8012000FA08F0C0B21040139F97F857
:1038300000E070454BD099F801C0BCF1070F56D895
:10384000012000FA0CF0C0B21040864551D099F822
:103850000270072F60D80120B840C0B210408645E2
:103860005CD099F803600696072E66D80120B04018
:10387000C0B20240964562D0039A02F1040EBEF136
:10388000FF0F01D94FF0FF0E059A1278AEEB020040
:10389000864500D2002000F003009AF800E09AF874
:1038A000016004969AF8026007969AF803607045E2
:1038B00058D0049CA04200F0B880079CA04200F0C1
:1038C0008E80B04260D000223FE10020ADE7601C56
:1038D000FF2800D9FF203044169F384410F8010C0F
:1038E000029FB842A7D2CDF80C800290A3E7002037
:1038F000AAE7681CFF2800D9FF200138049F07EBC6
:103900004010169F384410F8010C029FB8429ED216
:10391000CDF80CC002909AE700209FE7601E844219
:1039200000D200203044169E304410F8010C029E54
:10393000B04296D20397029093E7002099E76A1E5F
:10394000954200D20022013A049800EB42121698E8
:10395000024412F8012C029882428DD206980390FC
:10396000029289E7424500F08980624500F08C8030
:10397000BA4200F08F800698824200F091800D706C
:103980008BF800400022E0E00432FF2A00F2C280FF
:10399000013A504202F0030200F0030058BF4242D5
:1039A000D2B2059802700C789BF8000099F800508C
:1039B000AA4200F0B18099F80150AA4200F0B2800A
:1039C00099F80250AA4200F0B38099F80350AA4235
:1039D00000F0B4800C708BF800000022B5E00432D7
:1039E000FF2A7DD8023A504202F0030200F00300A1
:1039F00058BF4242D2B2059802700C789BF8000082
:103A000099F80050AA426DD099F80150AA426FD09F
:103A100099F80250AA4271D099F80350AA4273D083
:103A20000C708BF8000000228FE00432FF2A3DD892
:103A30000132FF2A00D9FF22504202F0030200F0B7
:103A4000030058BF4242D2B2059802700C789BF82E
:103A5000000099F80050AA422AD099F80150AA42D1
:103A60002CD099F80250AA422ED099F80350AA42BD
:103A700030D00C708BF80000002266E00134FF2C7F
:103A800000D9FF24E4B270E70135FF2D00D9FF25EE
:103A9000EDB26DE7601E844200D20020C4B26AE736
:103AA0006A1E954200D20022D5B268E7FF22BFE726
:103AB0000130FF2800D9FF20C0B2CEE70134FF2C2F
:103AC00000D9FF24E4B2CCE7451EA84200D200256D
:103AD000E8B2CAE7621E944200D20022D4B2C8E71C
:103AE000FF227FE70130FF2800D9FF20C0B28BE71B
:103AF0000134FF2C00D9FF24E4B289E7451EA84217
:103B000000D20025E8B287E7621E944200D200226C
:103B1000D4B285E7FF223BE70130FF2800D9FF2020
:103B2000C0B248E70134FF2C00D9FF24E4B247E7D4
:103B3000451EA84200D20025E8B246E7621E944224
:103B400000D20022D4B245E701221AB9129A1578A0
:103B5000002243E609B0BDE8F08F30B404789C42FF
:103B60000AD044789C420ED084789C4212D0C2780D
:103B70009A4216D030BC704714780134FF2C00D91B
:103B8000FF241470EDE70C780134FF2C00D9FF24DA
:103B90000C70E9E715786C1EA54200D20024147061
:103BA000E5E70A78531E9A4200D200230B70E1E742
:103BB0002DE9F04FADF5805D87B004460D460DF55B
:103BC000825108680DF582510C310F68591E8B42E5
:103BD00000D20021531E9A4200D2002303FB01F3BE
:103BE000FF2B00D9FF235A1E934200D200225FFA16
:103BF00082F80DF5825310331B6883F80080002390
:103C0000B3F5806F03DA07F803800133F8E70DF5A9
:103C1000825304331E78002209E083185B7A815CAA
:103C2000013903EB4113013B0021F9540132B24247
:103C3000F3DB43E10133A9B9B3F5806F12DAFA5C23
:103C4000B242F7D109F101005A1CDFF884C22CF806
:103C50001920B0F5806F02DA13468146EBE7814602
:103C60000121E8E7B9F1000F0FDD0DF580531433A2
:103C7000C3F80090002399450ADD954A32F91310E4
:103C8000944A22F813100133F5E74FF00009ECE7EE
:103C90000DF580531033C3F800900023994508DDDB
:103CA0008C4A32F81320013A8B4921F81320013352
:103CB000F4E70DF60C030DF501620DF5805110319E
:103CC000854801F019FFDDF80CA8002203E00DF291
:103CD0000C418B54013252450EDA0DF5016333F875
:103CE00012300133B3F5803F01D34FF6FF739BB21F
:103CF000FF2BECD9FF23EAE70023994507DD75493F
:103D000031F81320013A21F813200133F5E70DF6BD
:103D10000C030DF501620DF5805114316D48FFF76C
:103D200053F9DDF80C08002202E003A98B5401329C
:103D300082420EDA0DF5016333F812300133B3F528
:103D4000803F01D34FF6FF739BB2FF2BEDD9FF23CA
:103D5000EBE7BAF1000F05DBBAF1FF0F04DD4FF01E
:103D6000FF0A01E04FF0000A1AF0FF0F00F0A180F7
:103D70005FFA8AFE00213AE0002257E00CF10102CE
:103D8000FF2A00D9FF2292440AF1FF3A17F80A20CD
:103D9000904550D1721C07F80A20012200924AE097
:103DA000002251E009F10102FF2A00D9FF22013A65
:103DB0000CEB4212013A17F802A0D04549D106F1A6
:103DC000010A07F802A00122009242E0002249E025
:103DD000023BFA5C90454AD1721CFA5401230093CD
:103DE00045E0002318402B78984247D001317145B7
:103DF00054DA94F800B003AB13F8019009F1FF33E3
:103E00004FEA431A0DF20C4212F801C00CEB4313B7
:103E10000DF58252083212681A4412F8010CBBF1F7
:103E2000070FA9D8012202FA0BF2D2B2024095F88C
:103E300000B05A45A2D094F801A0BAF1070FAFD84C
:103E4000012202FA0AF2D2B2024095F800A05245CD
:103E5000A8D094F802A0BAF1070FB7D8012202FA4D
:103E60000AF2D2B2024095F800A05245B0D0E278F2
:103E7000072AB6D801239340DBB2B3E7A9F10209C0
:103E80000CEB491C0CF1FF3C17F80C309845ADD1F8
:103E9000731C07F80C3001230093A7E70136F6B234
:103EA000019B4BB9B04507D301994FF000094B4630
:103EB000C1E601230193F3E7009B23B100230193A3
:103EC0001E460093ECE70DF5805D07B0BDE8F08F6E
:103ED0007C3300207C430020702B00202DE9F04F24
:103EE000ADF24C4D08900B9115460C93DDF87044E3
:103EF000DDF87494DDF878A49DF87C3409939DF87E
:103F000080340A93DDF88484DDF888B4DDF88C64AD
:103F10009DF890340D931F4600230693079700F0F9
:103F200018BC00208DF844048DF840048DF8450439
:103F30008DF841048DF846048DF842048DF847044D
:103F40008DF84304FFF746FB07460320FFF742FBCB
:103F50003B46034403EBD3735B10CF4F3B800220FF
:103F6000FFF738FBCD4B18800120FFF733FBCC4B1C
:103F70001880B7F90020CB4BB3F900309A4200F318
:103F800028829AF8003003F003020B9949780DF566
:103F90008960024402F8081CC04AB2F90010C24A03
:103FA000B2F90020914213DD0133FF2B00D9FF232A
:103FB0005A4203F0030302F0030258BF5342089A27
:103FC00052780DF589610B4403F8042CFDF7A4FF2A
:103FD0009AF80020531CFF2B00D9FF23594203F00D
:103FE000030301F0030158BF4B420B9949780DF5CB
:103FF0008960034403F8081CA94BB3F90010AB4BCC
:10400000B3F90030994213DDD31CFF2B00D9FF23F5
:104010005A4203F0030302F0030258BF5342089AC6
:1040200052780DF589610B4403F8042CFDF77AFFF3
:104030009AF800300333FF2B00D9FF235A4203F0D4
:10404000030302F0030258BF53420B9A52780DF556
:1040500089610B4403F8082C2A78531CFF2B00D9E4
:10406000FF23072A00F2C38101219140C9B2013B1D
:104070000DF58962134413F8043C01FB03F1FF2999
:1040800000D9FF212278013A5201894B1A6099F830
:1040900000301344013B87480360C9B218F803009D
:1040A000014308F803102978481CFF2800D9FF2095
:1040B000072900F29E814FF0010C0CFA01F1C9B200
:1040C00001380DF58967384410F8080C01FB00F140
:1040D000FF2900D9FF21C9B21BF8030001430BF8E7
:1040E00003106978481CFF2800D9FF20072900F237
:1040F00082814FF0010C0CFA01F1C9B201380DF5C3
:104100008967384410F8040C01FB00F1FF2900D93D
:10411000FF21C9B218F80300014308F803106978B9
:10412000481CFF2800D9FF20072900F266814FF0C4
:10413000010C0CFA01F1C9B201380DF58967384458
:1041400010F8080C01FB00F1FF2900D9FF21C9B2CA
:104150001BF8030001430BF80310A978481CFF2843
:1041600000D9FF20072900F24A814FF0010C0CFA18
:1041700001F1C9B201380DF58967384410F8040C13
:1041800001FB00F1FF2900D9FF21C9B218F8030093
:10419000014308F80310A978481CFF2800D9FF2024
:1041A000072900F22E814FF0010C0CFA01F1C9B27F
:1041B00001380DF58967384410F8080C01FB00F14F
:1041C000FF2900D9FF21C9B21BF8030001430BF8F6
:1041D0000310E978481CFF2800D9FF20072900F2C6
:1041E00012814FF0010C0CFA01F1C9B201380DF542
:1041F0008967384410F8040C01FB00F1FF2900D94D
:10420000FF21C9B218F80300014308F80310E97848
:10421000481CFF2800D9FF20072900F2F6804FF044
:10422000010C0CFA01F1C9B201380DF58967384467
:1042300010F8080C01FB00F1FF2900D9FF21C9B2D9
:104240001BF8030001430BF80310099B591E8B4216
:1042500000D2002199F800308B4254DAA8782978EE
:104260000131FF2900D9FF21072800F2D0804FF04B
:10427000010C0CFA00F0C0B201390DF58967394420
:1042800011F8041C00FB01F1FF2900D9FF210133C3
:10429000FF2B11D9FF230FE0682B00206C2B00208F
:1042A0006A2B00201E000020220000202000002099
:1042B00074330020783300201344013B18F80300C6
:1042C000C9B2014308F80310A87829780131FF2901
:1042D00000D9FF21072800F29C804FF0010C0CFA56
:1042E00000F0C0B201390DF58967394411F8081C96
:1042F00000FB01F1FF2900D9FF211BF80300C9B21F
:1043000001430BF803100A9B591E8B4200D2002177
:1043100023788B424BDAE87869780131FF2900D99C
:10432000FF21072877D84FF0010C0CFA00F0C0B23B
:1043300001390DF58967394411F8041C00FB01F1BE
:10434000FF2900D9FF210133FF2B00D9FF2399F862
:1043500000C0013B58010CEB4313013B18F803C0AC
:10436000C9B24CEA010108F80310EB786978013111
:10437000FF2900D9FF21072B4FD84FF0010C0CFA71
:1043800003F3DBB201390DF58967394411F8081CD4
:1043900003FB01F3FF2B00D9FF2399F80010084419
:1043A00001381BF80010DBB20B430BF8003099F812
:1043B0000010012971D92878AB780133FF2B00D97F
:1043C000FF2307282BD84FF0010C0CFA00F0C0B2E5
:1043D00026E09AF8003003F00303089A52780DF5AE
:1043E00089610B4403F8042CFDF790FDC9E5002119
:1043F0003DE6002164E6002180E600219CE60021E4
:10440000B8E60021D4E60021F0E600210CE7002008
:1044100032E7002066E700208AE70023B2E70020A9
:10442000013B0DF589673B4413F8043C00FB03F0A6
:10443000FF2800D9FF204B1E994200D200231344CD
:10444000013B18F80310C0B2084308F803002878AD
:10445000AB780133FF2B00D9FF23072803D80121B4
:104460008140C9B200E00021013B0DF589600344A1
:1044700013F8083C01FB03F3FF2B00D9FF2399F845
:104480000000411E884200D200210A44013A1BF874
:104490000210DBB20B430BF802302178012940F205
:1044A0005D816878EB780133FF2B00D9FF23072863
:1044B00003D801228240D2B200E00022013B0DF578
:1044C0008960034413F8043C02FB03F2FF2A00D97D
:1044D000FF22481E814200D2002099F800300138A6
:1044E00003EB4013013B18F80310D2B20A4308F85B
:1044F00003206978EB780133FF2B00D9FF230729CC
:1045000003D801228A40D2B200E00022013B0DF51F
:1045100089610B4413F8083C02FB03F3FF2B00D91D
:10452000FF232278511E8A4200D2002199F80020F0
:10453000013902EB4112013A1BF80210DBB20B43C6
:104540000BF802300AE10133BB420CDA2178F25C4D
:104550009142F8D199F80010F218527A9142F2D1B2
:1045600001220692EFE70797069B002B2FD10DF152
:104570003F03049310AB0393CDF808800D9B019388
:1045800000960A9B099A08992846FFF711FB2A789A
:10459000072A3BD801239340DBB2B24A126818F8CD
:1045A00002201A4234D199F800300133FF2B00D990
:1045B000FF23AD4A12681344013B10AAD35C9DF857
:1045C0003F20934231D28DF83F302A7821E0FDF729
:1045D00035FCFEF7A5FFA54C01224FF4645120469F
:1045E00003F0CEFF4FF42F7004F0DAFA00224FF4FC
:1045F0006451204603F0C4FF4FF4967004F0D0FAE3
:10460000FEF75AFF0DF24C4DBDE8F08F0023C4E7D2
:10461000069A95F801E0BEF1070F08D84FF0010C9B
:104620000CFA0EFC5FFA8CFC03E0069AF1E74FF0FF
:10463000000C99F8000021784B1E00EB4313434413
:1046400013F8013C13EA0C0F10D10131FF2900D9F6
:10465000FF21013900EB4111013910AB5B5C9DF882
:104660003F108B4202D28DF83F30724695F802C05F
:10467000BCF1070F04D8012101FA0CF1C9B200E026
:10468000002199F800002378013B00EB43134344D9
:1046900013F8013C0B4210D1431E984200D2002374
:1046A000714909680B44013B10A9CB5C9DF83F1090
:1046B0008B4202D28DF83F30624695F803E0BEF19E
:1046C000070F04D8012000FA0EF0C0B200E000206D
:1046D00099F8001094F800C00CF1FF3301EB43137C
:1046E000434413F8013C03420FD10CF1FF339C45C6
:1046F00000D20023013B01EB4311013910AB595C9F
:104700009DF83F30994200D272460432FF2A00D908
:10471000FF229AF80030D31A9A4200D200235A425C
:1047200003F0030302F0030258BF5342DBB20C98BC
:10473000017842788DF83F200746807897F803C0CB
:104740008B4210D09A4200F0958083425AD0634544
:1047500029D0474B1B78002B3FF4E3AB0023444A9E
:104760001370079FF0E6FDF7E3FB9AF800202B7823
:104770009A4200F0AE809AF800206B789A4200F0DE
:10478000B1809AF80020AB789A4200F0B2809AF893
:104790000020EB789A42DCD12278531E9A4200D254
:1047A00000232370D5E7FDF705FC9AF800300433A9
:1047B000FF2B00F2DD80013B5A4203F0030302F0BD
:1047C000030258BF5342DBB28AF800302A78934282
:1047D00000F0D0809AF800206B789A4200F0D380E5
:1047E0009AF80020AB789A4200F0D4809AF8002022
:1047F000EB789A42ADD12278531E9A4200D2002320
:104800002370A6E7FDF702FC9AF800300433FF2B73
:1048100000F29380023B5A4203F0030302F00302CA
:1048200058BF5342DBB28AF800302A78934200F036
:1048300086809AF800206B789A4200F089809AF876
:104840000020AB789A4200F08A809AF80020EB783A
:104850009A427FF47EAF2278531E9A4200D2002300
:10486000237076E778330020743300200000024084
:1048700070330020FDF772FB9AF800300433FF2BF1
:1048800040D80133FF2B00D9FF235A4203F0030322
:1048900002F0030258BF5342DBB28AF800302A7894
:1048A000934231D09AF800206B789A4235D09AF82A
:1048B0000020AB789A4237D09AF80020EB789A42E1
:1048C0007FF447AF2278531E9A4200D20023237010
:1048D0003FE799F800300133FF2B00D9FF2389F817
:1048E000003048E723780133FF2B00D9FF232370E2
:1048F00047E799F80020531E9A4200D2002389F816
:10490000003044E7FF23BCE799F800300133FF2B68
:1049100000D9FF2389F80030C4E723780133FF2B47
:1049200000D9FF232370C2E799F80020531E9A4252
:1049300000D2002389F80030BEE7FF236AE799F828
:1049400000300133FF2B00D9FF2389F8003070E7D6
:1049500023780133FF2B00D9FF2323706FE799F8E9
:104960000020531E9A4200D2002389F800306CE7E1
:10497000FF2320E799F800300133FF2B00D9FF23F4
:1049800089F8003026E723780133FF2B00D9FF2375
:10499000237025E799F80020531E9A4200D2002385
:1049A00089F8003022E700BF2DE9F04FADF5C15D79
:1049B00083B00D46164605930DF5C25310331C788F
:1049C0000DF5C25314331B780DF5C252183211681D
:1049D0000DF5C2521C32D2F800900DF5C3520432CC
:1049E000D2F800B05A1E934200D20022631E9C42AD
:1049F00000D2002303FB02F3FF2B00D9FF235A1E32
:104A0000934200D20022D3B203930DF5C352083271
:104A1000126814461A4623700023B3F5806F03DA38
:104A20000BF803200133F8E7007800220AE08B1826
:104A30005B7A8C5C013C03EB4413013B00240BF8D4
:104A4000034001328242F2DB002301930493CAE166
:104A50000133A9B9B3F5806F12DA1BF8032001986E
:104A60008242F5D1781C5A1CC64C24F81720B0F5A8
:104A7000806F02DA13460746EBE707460121E8E7B5
:104A8000002F05DD0DF5C15304331F60002308E03E
:104A90000027F7E7BB4A32F91310BB4A22F813107C
:104AA00001339F42F6DC0DF5C1531F6000239F4286
:104AB00009DDB54A32F81320013A0DF5815121F88C
:104AC00013200133F3E70DF61C030DF502620DF51B
:104AD000C1510DF5815001F00FF8DDF81C4800229E
:104AE00003E00DF21C418B540132A2420EDA0DF5A7
:104AF000026333F812300133B3F5803F01D34FF630
:104B0000FF739BB2FF2BECD9FF23EAE700239F4200
:104B100007DD9D4931F81320013A21F813200133B4
:104B2000F5E70DF61C030DF502620DF5C1510431D8
:104B30009548FEF749FADDF81C08002202E007A9B3
:104B40008B54013282420EDA0DF5026333F81230D3
:104B50000133B3F5803F01D34FF6FF739BB2FF2BB8
:104B6000EDD9FF23EBE7002102940DF5C353043385
:104B7000C3F800B0DDF814B057E0002219F80CE0DB
:104B80001EEA020F14BF4FF001084FF0000896F81C
:104B900000E0F04566D06A78072A00F28F804FF077
:104BA000010C0CFA02FC5FFA8CFC5A1E19F802E0A8
:104BB0001EEA0C0F14BF4FF001084FF0000896F8E2
:104BC00000E0F0457DD095F802C0BCF1070F00F27F
:104BD000AC804FF0010E0EFA0CFC5FFA8CFC19F859
:104BE00002E01EEA0C0F14BF4FF001084FF000085E
:104BF00096F800E0F04500F09B80EB78072B00F280
:104C0000BF804FF0010C0CFA03F3DBB219F802C0BD
:104C10001CEA030F14BF4FF0010E4FF0000E96F880
:104C200000C0E64500F0B2800131029B994280F25B
:104C3000D1802A78481C80B2013807AB1F5C7B1EEC
:104C40004FEA431A0DF21C4C1CF8000000EB431312
:104C500003F1FF3C072A90D84FF0010E0EFA02F242
:104C6000D2B28BE70DF5C354246814F80CC01CEACB
:104C7000020F14BF4FF0010C4FF0000C9BF8012005
:104C8000944588D1421CFF2A00D9FF2292440AF1A0
:104C9000FF3A0DF5C3520432126812F80A20039C41
:104CA00094427FF478AF019A01320DF5C354043475
:104CB000246804F80A20012204926CE74FF0000CEB
:104CC00073E70DF5C354246814F802E01EEA0C0FD4
:104CD00014BF4FF0010E4FF0000E9BF801C0E645E7
:104CE0007FF471AF07F1010CBCF1FF0F01D94FF058
:104CF000FF0C0CF1FF3C00EB4C1C0CF1FF3C0DF5E4
:104D0000C3540434246814F80CE0039C74457FF405
:104D10005AAF019C04F1010E0DF5C354043424680C
:104D200004F80CE0012404944DE74FF0000C56E722
:104D30000DF5C354246814F802E01EEA0C0F14BFEA
:104D40004FF0010E4FF0000E9BF801C0E6457FF4D6
:104D500054AF023B0DF5C3540434246814F803C067
:104D6000039C64457FF449AF019C04F1010C0DF5EF
:104D7000C3540434246804F803C0012304933CE7BB
:104D8000002343E77C3B00207C4B00200DF5C354FF
:104D90002468A25C1A4214BF012200229BF8013051
:104DA0009A427FF441AF023F00EB471001380DF506
:104DB000C35304331B681B5C039A9A427FF434AFDD
:104DC000019B01330DF5C3520432126813540123C1
:104DD000049329E70DF5C3530433D3F800B0019BC6
:104DE0000133DBB201930DF5C35308331B681B7805
:104DF000019A934203D300210F460B4629E6049BF8
:104E0000002B7FF421AE0DF5C15D03B0BDE8F08F3E
:104E10002DE9F04FADF2644D07460D469046994698
:104E2000DDF888449DF88C649DF890A48DF85C644E
:104E30000023112B07DC0DF58C621A44002102F8C7
:104E4000181C0133F5E700228DF8442401238DF866
:104E5000453402208DF8460403218DF847148DF85F
:104E600040248DF841348DF842048DF843148DF8B8
:104E70003C248DF83D348DF838248DF83934BAF15E
:104E8000000F07D0BAF1010F00F0AD800DF2644DB4
:104E9000BDE8F08FFCF7AEFF01238DF834340DF13F
:104EA000300B8DF8303000235A460DF234410DF2AC
:104EB0004440FEF752FEFDF73BF89DF844240BAB4F
:104EC0008DF82C200896079406950597CDF810903C
:104ED000CDF80C800293CDF804B00DF2344300936A
:104EE0000DF588630DF244420DF587610DF23C40EB
:104EF000FEF7F4FF4FF47A7003F052FE3DE08DF8B8
:104F000048C48DF8510401218DF8331089B99642B7
:104F10000FDD02F10903E05C14F802C00CF1FF336D
:104F200000EB43132B4413F8013C0F2BE7D1013264
:104F3000ECE79DF83330012B24D1FCF7D3FF01239C
:104F4000404A137008930DF58963079306950597FA
:104F5000CDF81090CDF80C800BAB02930CAB019305
:104F60000DF2344300930DF588630DF244420DF5C4
:104F700087610DF23C40FEF7B1FF00228DF833202F
:104F80001146C3E74FF47A7003F00AFE01268DF84C
:104F900048648DF85164FCF7A5FF2A4B1E700896F3
:104FA0000DF58963079306950597CDF81090CDF818
:104FB0000C800BAB02930CAB01930DF234430093C6
:104FC0000DF588630DF244420DF587610DF23C400A
:104FD000FEF784FFFCF7F4FDFCF774FFBEEE000A59
:104FE00000F01CFE4EE70DF23C4A0DF1330BCDF8FC
:104FF00018B00DAE0596049503970294CDF8049071
:10500000CDF800800DF5876352460DF244410DF254
:105010005C40FFF7C9FC9BF80030069305940496AA
:1050200003970DF588630293CDF804A00DF25C435D
:1050300000930BAB0CAA0DF234410DF24440FEF785
:10504000B3FB23E770330020014B1878704700BF93
:105050007F530020014B00221A7070477F530020BD
:10506000014B1878704700BF7D530020014B18702A
:10507000704700BF7D53002010B5FCF78FFAB5EEE6
:10508000400AF1EE10FAF8D1FCF7A0FAC82003F0BC
:1050900087FDFCF789FADFED827AB4EEE70AF1EEDC
:1050A00010FA03DD7F4A137801331370FCF782FA9C
:1050B000DFED7D7AB4EEE70AF1EE10FA03D5794A16
:1050C0001378013B1370774A137803F00F031370C2
:1050D000764A1278934211D00F2B0FD8DFE803F0F5
:1050E000081523313F4D5B69778593A1AFBDCBD9BF
:1050F00000224FF464516E4803F042FA694B18786D
:105100006A4B1870FFF7B2FF10BD694C00224FF4D4
:10511000C851204603F034FA01224FF400512046D2
:1051200003F02EFAEAE7624C00224FF424512046A5
:1051300003F026FA01224FF48051204603F020FAB2
:10514000DCE75B4C00224FF41061204603F018FAB4
:1051500001224FF44051204603F012FACEE7544C9E
:1051600000224FF44451204603F00AFA01224FF482
:105170000061204603F004FAC0E74D4C00224FF4D2
:105180008851204603F0FCF901224FF420512046BB
:1051900003F0F6F9B2E7464C00224FF404512046E2
:1051A00003F0EEF901224FF4C051204603F0E8F974
:1051B000A4E73F4C00224FF48071204603F0E0F951
:1051C00001224FF46051204603F0DAF996E7384C9B
:1051D00000224FF46051204603F0D2F901224FF42F
:1051E0008071204603F0CCF988E7314C00224FF45F
:1051F000C051204603F0C4F901224FF40451204667
:1052000003F0BEF97AE72A4C00224FF420512046E1
:1052100003F0B6F901224FF48851204603F0B0F9AB
:105220006CE7234C00224FF40061204603F0A8F9FC
:1052300001224FF44451204603F0A2F95EE71C4CD2
:1052400000224FF44051204603F09AF901224FF416
:105250001061204603F094F950E7154C00224FF4FA
:105260008051204603F08CF901224FF4245120464E
:1052700003F086F942E70E4C00224FF4005120461D
:1052800003F07EF901224FF4C851204603F078F96B
:1052900034E701224FF46451054803F071F92DE71A
:1052A000CDCCCC3D7C530020CDCCCCBD7E5300205A
:1052B0000000024008B5FCF783F9DFED057AB4EE93
:1052C000E70AF1EE10FA01DD012008BD0020FCE73D
:1052D000CDCCCC3D08B50320FEF77CF940F2DB5382
:1052E0009842F8DD4FF4FA7003F05AFC014B0122AA
:1052F0001A7008BD7F53002038B50023184A137078
:10530000184A1370184A1370FEF70AF9144B1B78E9
:1053100033B9FFF7B1FEFFF7CDFF114B1870F5E77A
:10532000002415E0114D01224FF46451284603F08A
:1053300027F94FF42F7003F033FC00224FF464512F
:10534000284603F01DF94FF4967003F029FC013450
:10535000012CE7DDFEF7B0F8FFF7BCFF38BD00BF5A
:10536000805300207F5300207C5300200000024027
:10537000014B00221A8070478253002010B54E4B1B
:105380001A884E4CA4FB023442F20F739A420AD898
:10539000E40804EB8403A2EB43039BB223B1464A27
:1053A00013880133138010BD07EE902AF8EE677A58
:1053B000434B5C2202FB0434C4ED007A00F016FC7F
:1053C00084ED010A00F018FC84ED020AFCF7CEF926
:1053D00084ED030A00F0FEFB84ED040AFCF708F9F3
:1053E00084ED050AFCF792F984ED060AFDF70AFF41
:1053F00084ED070AFCF790F984ED080A00F002FC3E
:1054000084ED090A00F004FC84ED0A0AFCF7F4F9C3
:1054100084ED0B0A00F0E4FB84ED0C0AFCF7BCF908
:1054200084ED0D0AFCF71EFF07EE900AF8EEE77A0E
:10543000C4ED0E7AFCF71CFF07EE900AF8EEE77A4F
:10544000C4ED0F7A0320FEF7C5F807EE900AF8EED8
:10545000E77AC4ED107A0020FEF7BCF807EE900A58
:10546000F8EEE77AC4ED117A0220FEF7B3F807EE02
:10547000900AF8EEE77AC4ED127A0120FEF7AAF856
:1054800007EE900AF8EEE77AC4ED137A0320FEF7F0
:10549000AFF851EC100BFBF7CFFB20650020FEF7B7
:1054A000A7F851EC100BFBF7C7FB6065FDF7A2FCFA
:1054B00084ED160A73E700BF82530020CDCCCCCC1C
:1054C0008453002070B5664804F0DAFC0026B6F577
:1054D0007A7F80F0C380634B5C2404FB0634206831
:1054E000FBF75AF802460B465F4D284604F0C8FC0D
:1054F0006068FBF751F802460B46284604F0C0FCF2
:10550000A068FBF749F802460B46284604F0B8FCB1
:10551000E068FBF741F802460B46284604F0B0FC71
:105520002069FBF739F802460B46284604F0A8FC30
:105530006069FBF731F802460B46284604F0A0FCF0
:10554000A069FBF729F802460B46284604F098FCB0
:10555000E069FBF721F802460B46284604F090FC70
:10556000206AFBF719F802460B46284604F088FC2F
:10557000606AFBF711F802460B46284604F080FCEF
:10558000A06AFBF709F802460B46284604F078FCAF
:10559000E06AFBF701F802460B46284604F070FC6F
:1055A000206BFAF7F9FF02460B46284604F068FC28
:1055B000606BFAF7F1FF02460B46284604F060FCE8
:1055C000A06BFAF7E9FF02460B46284604F058FCA8
:1055D000E06BFAF7E1FF02460B46284604F050FC68
:1055E000206CFAF7D9FF02460B46284604F048FC27
:1055F000606CFAF7D1FF02460B46284604F040FCE7
:10560000A06CFAF7C9FF02460B46284604F038FCA6
:10561000E06CFAF7C1FF02460B46284604F030FC66
:10562000206DFAF7B9FF02460B46284604F028FC25
:10563000606DFAF7B1FF02460B46284604F020FCE5
:10564000A06DFAF7A9FF02460B46084804F018FCC3
:10565000074804F09BFC0136B6B238E770BD00BFC6
:10566000A4DD000884530020ECDE0008F0DE000812
:10567000F4DE0008000000002DE9F04F2DED028B54
:105680002DED02AB85B0FDF70BFCFDF711FC0024FE
:1056900036E00320FDF7ACFF53EC102B94A1D1E9C9
:1056A0000001FAF719FE029001F100430393FEE0B6
:1056B0000020FDF79DFF53EC102B8FA1D1E90001D5
:1056C000FAF70AFE804601F10049CDE90089DDE9DB
:1056D00002238B4804F0D4FB0B34A4B2894B1B6823
:1056E000986803F063FB4FF4FA7003F059FA1B213A
:1056F000854804F0C5FB22461B21844804F0C0FB0A
:10570000FDF78EFE10EE100AFAF746FF02460B4632
:105710007F4804F0B5FBFDF777FE07EE900AF8EE40
:10572000677AB2EE048A87EE88AAFDF773FE07EE69
:10573000900AF8EE677AC7EE888A1AEE100AFAF72E
:105740002BFF06460F4618EE900AFAF725FFCDE923
:10575000000132463B466F4804F092FB4FF0000ACE
:105760004FF0000BCDE900AB52465B466A4804F0AF
:1057700087FBFDF7B5FBDFED69AAC0EE2A8A9FED36
:1057800068AA68EE8A8AFDF7C3FB80EE2A8A28EEB3
:105790000A8A18EE900AFAF7FFFE06460F4618EE40
:1057A000100AFAF7F9FECDE9000132463B465D48A2
:1057B00004F066FBFBF71CFF10EE106AFDF73EFDE0
:1057C00010EE105A3046FAF7E7FE06460F46284616
:1057D000FAF7E2FECDE9000132463B46524804F0BA
:1057E0004FFBFDF707FB10EE100AFAF7D5FE024655
:1057F0000B464E4804F044FB0320FDF7EBFE054644
:105800000220FDF7E7FE06460120FDF7E3FE07460E
:105810000020FDF7DFFE00903B4632462946444813
:1058200004F02EFBFDF740FF0320FDF7E1FE57ECEF
:10583000106B0020FDF7DCFE8DED000B32463B4681
:105840003C4804F01DFBFDF7DDFC10EE106AFDF78F
:10585000F5FC10EE105A3046FAF79EFE06460F464B
:105860002846FAF799FECDE9000132463B46324818
:1058700004F006FB0320FDF7BBFE53EC102B1CA12C
:10588000D1E90001FAF728FD52465B46FBF74EF9D5
:1058900000287FF4FEAE0320FDF7AAFE53EC102B88
:1058A00013A1D1E90001FAF717FDCDE902010020AB
:1058B000FDF79EFE53EC102B0FA1D1E90001FAF782
:1058C0000BFD00220023FBF731F900287FF4F0AE36
:1058D0000020FDF78DFE53EC102B07A1D1E900014C
:1058E000FAF7FAFC80468946EFE600BFAFF3008086
:1058F000000000E04F8D873F00000060BC74833FD4
:1059000098E000082C000020C8E00008D0E0000863
:10591000F8DE000810DF00083CDF0008DA0F49401D
:105920000000344368DF000894DF0008D4DF00087B
:10593000ECDF000830E0000864E0000810B5094C16
:105940000021204601F0AAFE0421204601F0A6FE17
:105950000821204601F0A2FE0C21204601F09EFE07
:1059600010BD00BF3CBD012008B52D4B188000289C
:10597000B8BF404280B240F2B63398421BD81D28CF
:105980002AD802F043FB4009264BA3FB0030C00994
:10599000C0EB00135B002448A0FB03239B09013BE1
:1059A0001F4AB2F90020002A2CDD204A12689363B6
:1059B0000023536308BD02F029FB4009194BA3FBE8
:1059C0000023D80940F2B63303FB00F3164AA2FBCA
:1059D00003239B09013BE3E702F018FB4009114B4D
:1059E000A3FB0023D8090E4BB3F90030002B07DBD3
:1059F00003FB00F30C4AA2FB03239B09013BCFE707
:105A00005B42F5E7002A05DB084B1B6800229A631E
:105A10005A63CFE7054A1268002191635363C9E7CF
:105A2000E4BA0120C55A7C0AD34D62103CBD012066
:105A300008B52D4B18800028B8BF404280B240F214
:105A4000B63398421BD81D282AD802F0DFFA400945
:105A5000264BA3FB0030C009C0EB00135B002448B9
:105A6000A0FB03239B09013B1F4AB2F90020002A37
:105A70002CDD204A1268D3630023136408BD02F0B2
:105A8000C5FA4009194BA3FB0023D80940F2B633ED
:105A900003FB00F3164AA2FB03239B09013BE3E748
:105AA00002F0B4FA4009114BA3FB0023D8090E4BB6
:105AB000B3F90030002B07DB03FB00F30C4AA2FB19
:105AC00003239B09013BCFE75B42F5E7002A05DB97
:105AD000084B1B680022DA631A64CFE7054A126894
