:020000040800F2
:1000000000000520A9900008293100082B310008C4
:100010002D3100082F3100083131000800000000A8
:100020000000000000000000000000003331000864
:100030003531000800000000373100083931000870
:10004000F9900008F9900008F9900008F99000086C
:10005000F9900008F9900008F9900008F99000085C
:10006000F9900008F9900008F9900008F99000084C
:10007000F9900008F990000841310008513100085A
:10008000F9900008F9900008F9900008F99000082C
:10009000F9900008F9900008F9900008F99000081C
:1000A000F9900008F9900008F9900008F99000080C
:1000B000F9900008F9900008F9900008F9900008FC
:1000C000F9900008F9900008F9900008F9900008EC
:1000D000F9900008F9900008F9900008F9900008DC
:1000E000F9900008F9900008F9900008F9900008CC
:1000F000F9900008F9900008F9900008F9900008BC
:10010000F9900008F9900008F9900008F9900008AB
:10011000F9900008F990000861310008F990000892
:100120007D3100088D3100089D310008F9900008EC
:10013000F9900008F9900008F9900008F99000087B
:10014000F9900008F9900008F9900008F99000086B
:10015000F9900008F9900008F9900008F99000085B
:10016000F9900008F9900008F9900008F99000084B
:10017000F9900008F990000800000000000000005D
:10018000F9900008F9900008F9900008F99000082B
:10019000F9900008F990000800000000F9900008AC
:1001A000F9900008F990000800000000000000002D
:1001B000F99000080000000000000000F99000081D
:1001C000F9900008F9900008F9900008F9900008EB
:0801D000F9900008F990000805
:1001E00010B5054C237833B9044B13B10448AFF371
:1001F00000800123237010BD0802002000000000D1
:10020000FCE1000808B5034B1BB103490348AFF3F9
:10021000008008BD000000000C020020FCE1000886
:10022000034613F8012B002AFBD1181A0138704736
:1002300001F0FF01102A2BDB10F0070F08D010F897
:10024000013B013A8B422DD010F0070F42B3F6D19B
:10025000F0B441EA012141EA014122F007047FF0B4
:1002600000070023F0E80256083C85EA010586EA0B
:10027000010685FA47F5A3FA87F586FA47F6A5FA47
:1002800087F68EB9EED1F0BC01F0FF0102F0070253
:1002900032B110F8013B013A83EA010313B1F8D1FE
:1002A0000020704701387047002D06BF35460338DF
:1002B000073815F0010F07D1013015F4807F02BF18
:1002C000013015F4C03F0130F0BC0138704700BF69
:1002D00081F0004102E000BF83F0004330B54FEAF7
:1002E00041044FEA430594EA050F08BF90EA020F64
:1002F0001FBF54EA000C55EA020C7FEA645C7FEAF7
:10030000655C00F0E2804FEA5454D4EB5555B8BF19
:100310006D420CDD2C4480EA020281EA030382EA8A
:10032000000083EA010180EA020281EA0303362D1C
:1003300088BF30BD11F0004F4FEA01314FF4801CEF
:100340004CEA113102D0404261EB410113F0004F01
:100350004FEA03334CEA133302D0524263EB4303B8
:1003600094EA050F00F0A780A4F10104D5F1200E56
:100370000DDB02FA0EFC22FA05F2801841F10001B1
:1003800003FA0EF2801843FA05F359410EE0A5F185
:1003900020050EF1200E012A03FA0EFC28BF4CF0B6
:1003A000020C43FA05F3C01851EBE37101F000456C
:1003B00007D54FF0000EDCF1000C7EEB00006EEB79
:1003C0000101B1F5801F1BD3B1F5001F0CD3490803
:1003D0005FEA30004FEA3C0C04F101044FEA44525A
:1003E00012F5800F80F09A80BCF1004F08BF5FEAE1
:1003F000500C50F1000041EB045141EA050130BDC1
:100400005FEA4C0C404141EB0101013C28BFB1F5D2
:10041000801FE9D291F0000F04BF01460020B1FA1D
:1004200081F308BF2033A3F10B03B3F120020CDAF0
:100430000C3208DD02F1140CC2F10C0201FA0CF0CE
:1004400021FA02F10CE002F11402D8BFC2F1200C33
:1004500001FA02F120FA0CFCDCBF41EA0C019040E9
:10046000E41AA2BF01EB0451294330BD6FEA040432
:100470001F3C1CDA0C340EDC04F11404C4F120021D
:1004800020FA04F001FA02F340EA030021FA04F32F
:1004900045EA030130BDC4F10C04C4F1200220FA86
:1004A00002F001FA04F340EA0300294630BD21FAC4
:1004B00004F0294630BD94F0000F83F4801306BF8A
:1004C00081F480110134013D4EE77FEA645C18BF7E
:1004D0007FEA655C29D094EA050F08BF90EA020F15
:1004E00005D054EA000C04BF1946104630BD91EA0D
:1004F000030F1EBF0021002030BD5FEA545C05D110
:100500004000494128BF41F0004130BD14F580044E
:100510003CBF01F5801130BD01F0004545F0FE41C2
:1005200041F470014FF0000030BD7FEA645C1ABFF7
:10053000194610467FEA655C1CBF0B46024650EA2E
:10054000013406BF52EA033591EA030F41F400215A
:1005500030BD00BF90F0000F04BF0021704730B5E0
:100560004FF4806404F132044FF000054FF00001B5
:1005700050E700BF90F0000F04BF0021704730B576
:100580004FF4806404F1320410F0004548BF40424B
:100590004FF000013EE700BF42004FEAE2014FEAA0
:1005A00031014FEA02701FBF12F07F4393F07F4F7B
:1005B00081F06051704732F07F4208BF704793F07E
:1005C0007F4F04BF41F40021704730B54FF4607491
:1005D00001F0004521F000411CE700BF50EA010294
:1005E00008BF704730B54FF000050AE050EA01023D
:1005F00008BF704730B511F0004502D5404261EBAD
:1006000041014FF4806404F132045FEA915C3FF4ED
:10061000D8AE4FF003025FEADC0C18BF03325FEA8A
:10062000DC0C18BF033202EBDC02C2F1200300FA3B
:1006300003FC20FA02F001FA03FE40EA0E0021FA60
:1006400002F11444BDE600BF70B54FF0FF0C4CF44E
:10065000E06C1CEA11541DBF1CEA135594EA0C0F00
:1006600095EA0C0F00F0DEF82C4481EA030621EA3B
:100670004C5123EA4C5350EA013518BF52EA033576
:1006800041F4801143F4801338D0A0FB02CE4FF028
:100690000005E1FB02E506F00042E0FB03E54FF058
:1006A0000006E1FB03569CF0000F18BF4EF0010E50
:1006B000A4F1FF04B6F5007F64F5407404D25FEA4C
:1006C0004E0E6D4146EB060642EAC62141EA5551FF
:1006D0004FEAC52040EA5E504FEACE2EB4F1FD0C41
:1006E00088BFBCF5E06F1ED8BEF1004F08BF5FEABF
:1006F000500E50F1000041EB045170BD06F0004671
:1007000046EA010140EA020081EA0301B4EB5C041D
:10071000C2BFD4EB0C0541EA045170BD41F4801115
:100720004FF0000E013C00F3AB8014F1360FDEBF3A
:10073000002001F0004170BDC4F10004203C35DA16
:100740000C341BDC04F11404C4F1200500FA05F399
:1007500020FA04F001FA05F240EA020001F000423A
:1007600021F0004110EBD37021FA04F642EB0601B0
:100770005EEA430E08BF20EAD37070BDC4F10C04DA
:10078000C4F1200500FA04F320FA05F001FA04F29E
:1007900040EA020001F0004110EBD37041F100018A
:1007A0005EEA430E08BF20EAD37070BDC4F1200595
:1007B00000FA05F24EEA020E20FA04F301FA05F2FD
:1007C00043EA020321FA04F001F0004121FA04F2A5
:1007D00020EA020000EBD3705EEA430E08BF20EA75
:1007E000D37070BD94F0000F0FD101F000464000AF
:1007F00041EB010111F4801F08BF013CF7D041EA31
:10080000060195F0000F18BF704703F00046520034
:1008100043EB030313F4801F08BF013DF7D043EA05
:100820000603704794EA0C0F0CEA135518BF95EABB
:100830000C0F0CD050EA410618BF52EA4306D1D142
:1008400081EA030101F000414FF0000070BD50EA61
:10085000410606BF1046194652EA430619D094EAEB
:100860000C0F02D150EA013613D195EA0C0F05D1D5
:1008700052EA03361CBF104619460AD181EA030129
:1008800001F0004141F0FE4141F470014FF00000E1
:1008900070BD41F0FE4141F4780170BD70B54FF07C
:1008A000FF0C4CF4E06C1CEA11541DBF1CEA1355FC
:1008B00094EA0C0F95EA0C0F00F0A7F8A4EB0504DE
:1008C00081EA030E52EA03354FEA013100F08880D5
:1008D0004FEA03334FF0805545EA131343EA12639E
:1008E0004FEA022245EA111545EA10654FEA002653
:1008F0000EF000419D4208BF964244F1FD0404F50C
:10090000407402D25B084FEA3202B61A65EB030567
:100910005B084FEA32024FF480104FF4002CB6EB24
:10092000020E75EB030E22BFB61A754640EA0C00A4
:100930005B084FEA3202B6EB020E75EB030E22BFE4
:10094000B61A754640EA5C005B084FEA3202B6EB25
:10095000020E75EB030E22BFB61A754640EA9C00E4
:100960005B084FEA3202B6EB020E75EB030E22BFB4
:10097000B61A754640EADC0055EA060E18D04FEA72
:10098000051545EA16754FEA06164FEAC30343EA12
:1009900052734FEAC2025FEA1C1CC0D111F4801FDF
:1009A0000BD141EA00014FF000004FF0004CB6E7D8
:1009B00011F4801F04BF01430020B4F1FD0C88BF77
:1009C000BCF5E06F3FF6AFAEB5EB030C04BFB6EB82
:1009D000020C5FEA500C50F1000041EB045170BD75
:1009E0000EF0004E4EEA113114EB5C04C2BFD4EBA2
:1009F0000C0541EA045170BD41F480114FF0000E26
:100A0000013C90E645EA060E8DE60CEA135594EAA1
:100A10000C0F08BF95EA0C0F3FF43BAF94EA0C0FA4
:100A20000AD150EA01347FF434AF95EA0C0F7FF419
:100A300025AF104619462CE795EA0C0F06D152EA6D
:100A400003353FF4FDAE1046194622E750EA410651
:100A500018BF52EA43067FF4C5AE50EA41047FF462
:100A60000DAF52EA43057FF4EBAE12E74FF0FF3CC7
:100A700006E000BF4FF0010C02E000BF4FF0010C98
:100A80004DF804CD4FEA410C7FEA6C5C4FEA430C11
:100A900018BF7FEA6C5C1BD001B050EA410C0CBF60
:100AA00052EA430C91EA030F02BF90EA020F0020C2
:100AB000704710F1000F91EA030F58BF994208BF29
:100AC00090422CBFD8176FEAE37040F001007047E6
:100AD0004FEA410C7FEA6C5C02D150EA013C07D13D
:100AE0004FEA430C7FEA6C5CD6D152EA033CD3D088
:100AF0005DF8040B704700BF8446104662468C4682
:100B00001946634600E000BF01B5FFF7B7FF0028B4
:100B100048BF10F1000F01BD4DF808EDFFF7F4FFDD
:100B20000CBF012000205DF808FB00BF4DF808ED68
:100B3000FFF7EAFF34BF012000205DF808FB00BF8B
:100B40004DF808EDFFF7E0FF94BF012000205DF8AD
:100B500008FB00BF4DF808EDFFF7CEFF94BF012062
:100B600000205DF808FB00BF4DF808EDFFF7C4FF5B
:100B700034BF012000205DF808FB00BF4FEA410CA4
:100B80007FEA6C5C02D150EA013C0AD14FEA430C87
:100B90007FEA6C5C02D152EA033C02D14FF00000C4
:100BA00070474FF0010070474FEA410212F5001202
:100BB00015D211D56FF47873B3EB625212D94FEAA4
:100BC000C12343F0004343EA505311F0004F23FA8E
:100BD00002F018BF404270474FF00000704750EAE3
:100BE000013005D111F0004008BF6FF000407047A0
:100BF0004FF00000704700BF4A0011D212F50012FA
:100C000011D20DD56FF47873B3EB62520ED44FEA64
:100C1000C12343F0004343EA505323FA02F07047E4
:100C20004FF00000704750EA013002D14FF0FF3022
:100C300070474FF0000070474FEA4102B2F1E043C5
:100C400024BFB3F5001CDCF1FE5C0DD901F0004CB3
:100C50004FEAC0024CEA5070B2F1004F40EB830003
:100C600008BF20F00100704711F0804F21D113F12F
:100C70003872BCBF01F00040704741F480114FEA68
:100C80005252C2F11802C2F1200C10FA0CF320FAF1
:100C900002F018BF40F001004FEAC1234FEAD3230E
:100CA00003FA0CFC40EA0C0023FA02F34FEA430378
:100CB000CCE77FEA625307D150EA01331EBF4FF001
:100CC000FE4040F44000704701F0004040F0FE401C
:100CD00040F40000704700BF80F0004002E000BF19
:100CE00081F0004142001FBF5FEA410392EA030F17
:100CF0007FEA226C7FEA236C6AD04FEA1262D2EB61
:100D00001363C1BFD218414048404140B8BF5B4265
:100D1000192B88BF704710F0004F40F4000020F0FE
:100D20007F4018BF404211F0004F41F4000121F014
:100D30007F4118BF494292EA030F3FD0A2F101025E
:100D400041FA03FC10EB0C00C3F1200301FA03F19C
:100D500000F0004302D5494260EB4000B0F5000FBF
:100D600013D3B0F1807F06D340084FEA310102F17E
:100D70000102FE2A51D2B1F1004F40EBC25008BF30
:100D800020F0010040EA03007047490040EB0000FA
:100D9000013A28BFB0F5000FEDD2B0FA80FCACF1FB
:100DA000080CB2EB0C0200FA0CF0AABF00EBC25028
:100DB00052421843BCBFD0401843704792F0000F16
:100DC00081F4000106BF80F400000132013BB5E769
:100DD0004FEA41037FEA226C18BF7FEA236C21D0DF
:100DE00092EA030F04D092F0000F08BF0846704744
:100DF00090EA010F1CBF0020704712F07F4F04D112
:100E0000400028BF40F00040704712F100723CBF24
:100E100000F50000704700F0004343F0FE4040F44E
:100E2000000070477FEA226216BF08467FEA23630C
:100E30000146420206BF5FEA412390EA010F40F4F7
:100E4000800070474FF0000304E000BF10F0004343
:100E500048BF40425FEA000C08BF704743F096432A
:100E600001464FF000001CE050EA010208BF704745
:100E70004FF000030AE000BF50EA010208BF7047CC
:100E800011F0004302D5404261EB41015FEA010CE1
:100E900002BF84460146002043F0B64308BFA3F1D9
:100EA0008053A3F50003BCFA8CF2083AA3EBC253BB
:100EB00010DB01FA02FC634400FA02FCC2F12002DA
:100EC000BCF1004F20FA02F243EB020008BF20F011
:100ED0000100704702F1200201FA02FCC2F1200277
:100EE00050EA4C0021FA02F243EB020008BF20EA6C
:100EF000DC70704753B94AB9002908BF00281CBFED
:100F00004FF0FF314FF0FF3000F0A4B9ADF1080C05
:100F10006DE904CE00F03CF8DDF804E0DDE90223E1
:100F200004B0704738B50022002304460D46FFF791
:100F3000FDFD28B920462946BDE8384000F00AB832
:100F4000204605F1004100F005F8404261EB410107
:100F500038BD00BFD0B50C4B002206460F46FFF748
:100F600073FBFFF749FE0446FFF7F4FA074B002234
:100F7000FFF76AFB02460B4630463946FFF7ACF9ED
:100F8000FFF73AFE2146D0BD0000F03D0000F041E1
:100F90002DE9F047089D04468C46002B40F08380E5
:100FA0008A42174647D9B2FA82F242B1C2F1200012
:100FB00024FA00F09140974040EA010C94404FEA37
:100FC0001748230CBCFBF8F61FFA87FE08FB16C176
:100FD00043EA014306FB0EF1994209D9FB1806F1D9
:100FE000FF3080F01981994240F21681023E3B4465
:100FF0005B1AA4B2B3FBF8F008FB103344EA0344D5
:1010000000FB0EFEA64509D93C1900F1FF3380F024
:101010000581A64540F2028102383C4440EA064080
:10102000A4EB0E0400261DB1D4400023C5E9004303
:101030003146BDE8F08702B9FFDEB2FA82F2002A3B
:1010400050D1CB1B4FEA174E1FFA87F80126B3FB8E
:10105000FEFC210C0EFB1C3341EA034108FB0CF3A0
:101060008B4207D979180CF1FF3002D28B4200F283
:10107000E9808446C91AA3B2B1FBFEF00EFB101141
:1010800043EA014408FB00F8A04507D93C1900F1E8
:10109000FF3302D2A04500F2D9801846A4EB080421
:1010A00040EA0C40BFE78B4209D9002D00F0B18027
:1010B0000026C5E9000130463146BDE8F087B3FAA5
:1010C00083F6002E4AD18B4202D3824200F2B880CE
:1010D000841A61EB030101208C46002DA8D0C5E9DC
:1010E000004CA5E7C2F1200320FA03F6974001FA6D
:1010F00002F04FEA174ED9403043030CB1FBFEF625
:101100001FFA87F80EFB161143EA014306FB08F1AC
:10111000994204FA02F409D9FB1806F1FF3C80F069
:101120008D80994240F28A80023E3B445B1A81B234
:10113000B3FBFEF00EFB103341EA034100FB08F362
:101140008B4207D9791800F1FF3C73D28B4271D9D9
:1011500002383944CB1A40EA064678E7C6F1200C3B
:1011600003FA06F422FA0CF31C4320FA0CF701FAF6
:1011700006F34FEA144E21FA0CF11F433B0CB1FB6E
:10118000FEF91FFA84F80EFB191143EA014109FB2D
:1011900008FA8A4502FA06F200FA06F308D961183D
:1011A00009F1FF3048D28A4546D9A9F10209214404
:1011B000A1EB0A01BFB2B1FBFEF00EFB101147EA32
:1011C000014700FB08F8B84507D9E71900F1FF31DE
:1011D0002ED2B8452CD90238274440EA0940A7EB63
:1011E0000807A0FB02894F45C64649461AD317D0C7
:1011F0005DB1B3EB0E0267EB010707FA0CFCF2409E
:101200004CEA0202F740C5E9002700263146BDE856
:10121000F0872E4628460BE70646E9E61846FDE627
:101220004345E5D2B8EB020E69EB04010138DFE774
:101230000846D2E760468DE78146B9E7664675E71E
:1012400030464AE7ACF1020C394413E702383C441B
:1012500024E700BF704700BF30B595B034220021AD
:1012600007A808F050F9002402940394049405940C
:1012700006940094194B1A6C42F080521A641B6C4D
:1012800003F080530093009B0194154B1A6842F4BD
:1012900040421A601B6803F440430193019B0225FE
:1012A000079501230A9310230B930D950E940F932A
:1012B000C023109311951295139507A807F026F9EE
:1012C0000F230293039504944FF4805305930694DF
:1012D000032102A807F046F815B030BD00380240DF
:1012E0000070004030B585B007F09EFEFFF7B4FFF8
:1012F00001F0E2F901F018FB01F0C0FE01F04AFE36
:1013000001F056FB01F038FA01F080FC01F0B0FC6E
:1013100001F0E2FC01F0E6FB04F082FD01F09AFF2F
:1013200002F00EF901F0E8FF02F054FA80E004F058
:1013300021FB04F0EBF802F023FB002004F0EAFDAF
:10134000002004F083FD002470E004F06DFA00201A
:1013500001F056F8012004F0A9FE9FED4A0A04F0BE
:10136000CFFE41F2883007F08BFEE2E7002001F06B
:1013700047F8002004F094FE012004F097FE9FED52
:10138000420A04F0C7FE42F2107007F079FED0E77F
:1013900000F0AAFDCDE741F2883007F071FEC8E702
:1013A000002001F02DF8012004F080FE00F024FF61
:1013B000BFE7022001F024F8012004F077FE9FED42
:1013C000310A04F09DFE41F2883007F059FEB0E783
:1013D00004F096FBADE72D4D2D4C2B462246052102
:1013E000084602F0DFFB0023029309230193294BF7
:1013F000009305231A462946204603F065FF98E727
:10140000254D01224FF46451284607F029FB4FF483
:101410002F7007F035FE00224FF46451284607F084
:101420001FFB4FF4967007F02BFE0134022CE7DD12
:1014300004F0BEF904F070F80F283FF67AAF01A36C
:1014400053F820F02F1300084B1300086D13000809
:101450009113000897130008A1130008B3130008A4
:10146000D1130008331300083313000833130008A6
:101470003313000833130008331300083313000834
:10148000D7130008AE47213FD053FB412402002070
:1014900024060020000000200000024070470000E9
:1014A00008B501F00FFF034A1388C31A108018B261
:1014B00008BD00BF1400002008B501F009FF034A71
:1014C0001388C31A108018B208BD00BF1200002094
:1014D00008B52DED028BFFF7E3FF07EE900AF8EE5B
:1014E000E77A9FED2B7A67EE877ADFED2A8A87EE1F
:1014F000A88AFFF7E1FF07EE900AF8EEE77A9FED82
:10150000267A67EE877A87EEA87ADFED246A68EE9E
:10151000267A234BC3ED007A27EE267A214B83ED02
:10152000007A214BD3ED006AF4EEE67AF1EE10FA80
:1015300017DDC3ED007A1D4BD3ED006AB4EEE67AF9
:10154000F1EE10FA18DD83ED007A77EE877AB6EEC9
:10155000007A67EE877A164BC3ED007ABDEC028BFA
:1015600008BD144BD3ED006AF4EEE67AF1EE10FA02
:10157000E1D5C3ED007ADEE70F4BD3ED006AB4EEA0
:10158000E67AF1EE10FAE0D583ED007ADDE700BFF0
:101590007B59C4C500C07F447B59C4452F50D23B02
:1015A0009C0A0020900A0020A00A0020940A002033
:1015B000800A0020A40A0020980A0020014B93ED25
:1015C000000A70479C0A0020014B93ED000A704707
:1015D000A00A0020014B93ED000A7047A40A0020E6
:1015E000014B93ED000A7047940A00200023044A3F
:1015F0001360044A1360044A1360044A136070477E
:10160000A40A0020A00A0020980A0020940A0020C2
:10161000014B93ED000A7047800A00200000000093
:1016200038B52DED028B3A4B1A883A4BA3FB0213C7
:10163000DB0803EB8303A2EB43039CB2FFF7E8FF55
:10164000354A02EBC40484ED000A01F0F9FF84ED91
:10165000010ADFED327AB0EE677A0023092B0DD84C
:101660002D4A02EBC302D2ED006A37EE267AD2EDA4
:10167000016A77EEA67A01339BB2EFE7F2EE046AD5
:10168000C7EE268A87EEA68AB5EEC08AF1EE10FA7A
:1016900030D4F6EE007AB4EEE78AF1EE10FA4CBFE1
:1016A000012300230BB19FED1D8A18EE100AFEF7EF
:1016B00073FF15A3D3E90023FEF7C6FF0022184BE2
:1016C000FEF7C2FF04460D4618EE900AFEF764FFCF
:1016D00022462B46FEF702FEFFF7AEFA114B1860CA
:1016E000114B83ED008A0A4A138801331380BDEC45
:1016F000028B38BDFEEE007AB4EEE78AF1EE10FA06
:10170000CCBF01230023CDE77B14AE47E17A843FB1
:10171000240A0020CDCCCCCC280A002000000000F8
:101720000000E03F840A0020780A0020014B93ED7E
:10173000000A7047840A002070B5FFF7F7FF10EE2B
:10174000100AFEF729FF0BA3D3E90023FEF77CFF65
:1017500004460D46064E3068FEF71EFF22462B4615
:10176000FEF7BCFDFFF768FA306070BDAFF3008094
:101770007C0A0020FCA9F1D24D62503F014B93ED51
:10178000000A70477C0A0020014B83ED000A704775
:101790007C0A002008B501F06FFF024B83ED000AC0
:1017A00008BD00BF8C0A0020014B93ED000A704772
:1017B0008C0A00200000000070B50D4B1868FEF781
:1017C000EBFE09A3D3E90023FEF73EFF04460D46D6
:1017D000084E3068FEF7E0FE22462B46FEF77EFDFF
:1017E000FFF72AFA306070BDFCA9F1D24D62503F7C
:1017F0008C0A0020880A002008B5FFF7CBFFFFF70E
:101800009BFFFFF7D9FF08BD014B93ED000A70471E
:10181000880A0020014B83ED000A7047880A0020E7
:10182000014B93ED000A7047B40A0020014B93ED81
:10183000000A7047B00A002070B52DED048B04F04B
:101840003BFCF0EE408AFFF771FF78EEC08A04F0AF
:1018500039FCB0EE408AFFF7A7FF38EE408A18EE59
:10186000900AFEF799FE28A3D3E90023FEF7ECFEC9
:1018700004460D461E4E3068FEF78EFE22462B466D
:10188000FEF72CFDFFF7D8F909EE100A306018EECC
:10189000100AFEF781FE14A3D3E90023FEF7D4FE5D
:1018A00004460D46134E3068FEF776FE22462B4660
:1018B000FEF714FDFFF7C0F907EE900A30609FEDC8
:1018C0000E0A68EE808A79EE288A9FED0C0A28EECF
:1018D000008A37EE888A0A4BC3ED008A094B83EDF4
:1018E000008ABDEC048B70BDFCA9F1D23DC9823FDA
:1018F000A80A0020AC0A0020D1222B40AD2FB23E16
:10190000B40A0020B00A00208B6CE7FBB935A43F75
:101910000023024A1360024A13607047A80A00209D
:10192000AC0A00200000000010B5094C2068FEF74A
:1019300033FE05A3D3E90023FEF786FEFFF77CF90B
:10194000206010BDAFF30080AE47E17A14AEEF3FE8
:10195000AC0A0020000000000D4B1B7873B90D4B42
:1019600007A1D1E90001C3E900010B4B06A1D1E9B0
:101970000001C3E90001064B01221A70704700BF45
:10198000E2AB1DC539EA983F1442075DC2A1973FFB
:10199000300B0020200B0020280B002008B5044B42
:1019A000D3E90001FFF748F900EE100A08BD00BFB7
:1019B000280B002008B5044BD3E90001FFF73CF9E0
:1019C00000EE100A08BD00BF200B0020014B188854
:1019D000704700BF1A0B0020014B1888704700BFEA
:1019E0001E0B0020014B1878704700BF1600002026
:1019F000F8B5012002F01EF80546022002F01AF8A0
:101A0000424BB3F90020AA1A002AB8BF5242404BF9
:101A1000B3F90010411A0029B8BF49423D4B1F8855
:101A20003D4BA3FB0743DB0803EB8303A7EB430317
:101A30009BB23A4C24F8231004EB83035A80002312
:101A400019461C46092B0CD8344A32F8236034441A
:101A500024B202EB83025288114409B201339BB2D3
:101A6000F0E707EE904AF8EEE77AB2EE047AC7EEB6
:101A7000876A07EE901AF8EEE77A87EE876A0137F1
:101A8000244B1F80F0EE087AB4EEE76AF1EE10FA0C
:101A90001CDD234B4FF4C8721A80F0EE087AF4EE86
:101AA000E76AF1EE10FA15DD1E4B4FF4C8721A808A
:101AB0001B4BB3F90030AB4210DA1A4AB2F90020DE
:101AC00082420BDA184B02221A700CE0144B64228B
:101AD0001A80E2E7134B64221A80E9E7AB4207DA87
:101AE000114B01221A70094B1D80094B1880F8BD5B
:101AF0000C4BB3F90030834203DA0B4B00221A700F
:101B0000F1E7094B03221A70EDE700BF180B002024
:101B10001C0B0020B80A0020CDCCCCCCBC0A002085
:101B20001A0B00201E0B00201600002000000000F1
:101B3000F8B52D4B1B78012B05D0022B2AD0B3B161
:101B40009FED270BF8BD294BD3E90045012001F09B
:101B50007FFF53EC102B20462946FEF7BDFB0022E9
:101B60004FF04043FEF770FD41EC100BEAE7204BCD
:101B7000D3E90045022001F06BFF53EC102B204607
:101B80002946FEF7A9FB02460B46FEF7A7FB41ECF0
:101B9000100BD7E7164BD3E90045022001F058FFA0
:101BA00053EC102B20462946FEF796FB04460D46C3
:101BB0000E4BD3E90067012001F04AFF53EC102BD4
:101BC00030463946FEF788FB02460B46204629463A
:101BD000FEF782FB41EC100BB4E700BFAFF30080CF
:101BE000000000000000000016000020200B002074
:101BF000280B002038B52DED028BFFF799FF51EC33
:101C0000100B0022124BFEF71FFD04460D46FFF796
:101C1000FFFCDFED108A60EE288AFFF7F5FDB0EEDD
:101C2000408A04F067FA38EE408A68EE887A17EE48
:101C3000900AFEF7B1FC02460B4620462946FEF705
:101C40004DFBFEF7F9FF044B1860BDEC028B38BD6D
:101C50000000594000000000380B0020014B93EDBC
:101C6000000A7047380B00202DE9F04F2DED088B4E
:101C700087B0002001F0ECFE57EC106B032001F060
:101C8000E7FE55EC104B74A3D3E9002330463946E8
:101C9000FEF722FB06460F4671A3D3E90023204638
:101CA0002946FEF719FB04460D4602460B46304610
:101CB0003946FEF713FB8046894632463B462046AE
:101CC0002946FEF709FB68A3D3E90023FEF7E6FDEA
:101CD00006460F4666A3D3E9002340464946FEF771
:101CE000B3FC594CD4E90023FEF7F8FA41EC1B0B86
:101CF000C4E9000146A3D3E9002330463946FEF784
:101D0000A3FC524CD4E90023FEF7E8FA41EC1A0B8D
:101D1000C4E9000140A3D3E9002340464946FEF749
:101D200093FC04460D463EA3D3E9002330463946D2
:101D3000FEF78AFCCDE90201DFF83CB1DBE90023C4
:101D4000CDE9008940464946FEF7C6FA36A3D3E9F5
:101D50000023FEF779FCDFF82491D9E90023FEF790
:101D6000BDFA33A3D3E90023FEF798FD41EC190B2C
:101D7000DFF80CA1DAE9002330463946FEF7ACFA69
:101D80002DA3D3E90023FEF75FFCDFF8F880D8E944
:101D90000023FEF7A3FA2AA3D3E90023FEF77EFD72
:101DA00041EC180B22462B4651EC1B0BFEF796FA22
:101DB00053EC192BFEF792FACDE90401DDE9022379
:101DC00051EC1A0BFEF78AFA53EC182BFEF786FA41
:101DD00004460D46DDE90401FEF72EFF1C4B18609A
:101DE00020462946FEF728FF1A4B18609DED007B20
:101DF0008BED007BCAE9006789ED009B88ED008BC5
:101E000007B0BDEC088BBDE8F08F00BFAFF30080DA
:101E100060E5D0229BA5643F00000000631A5F408C
:101E2000000000E08A9E194000000060A2AB534011
:101E3000C1CAA1852062F03F00000000236C22404F
:101E40007368916D81B6F03FF00A0020080B002006
:101E50003C0B0020340B002000000060BC74833F6A
:101E6000000000E04F8D873F000000E0BED5A23F9C
:101E700008AC1C5AD4DF9A3FF80A0020E80A002078
:101E8000100B0020000B0020014B93ED000A70475F
:101E90003C0B0020014B93ED000A7047340B0020EF
:101EA000002200230949C1E900230949C1E90023AF
:101EB0000849C1E900230849C1E900230749C1E9EC
:101EC00000230749C1E90023704700BFF00A002042
:101ED000080B0020F80A0020100B0020E80A002060
:101EE000000B002000000000F8B5012000F088FA87
:101EF000454B00221A8022E0032001F0A9FD53EC9B
:101F0000102B3BA1D1E90001FEF7E6F9064601F1ED
:101F1000004730E0002001F09BFD53EC102B36A170
:101F2000D1E90001FEF7D8F9044601F100453EE091
:101F3000354B00221A80344B1B88632B4AD8032070
:101F400001F086FD53EC102B29A1D1E90001FEF729
:101F5000C3F900220023FEF7E9FD0028CCD10320BD
:101F600001F076FD53EC102B21A1D1E90001FEF721
:101F7000B3F906460F46002001F06AFD53EC102B22
:101F80001DA1D1E90001FEF7A7F900220023FEF709
:101F9000CDFD0028BED1002001F05AFD53EC102BDE
:101FA00015A1D1E90001FEF797F904460D46224636
:101FB0002B4630463946FEF7D7FD08B134463D463C
:101FC0000FA3D3E9002320462946FEF7CDFD0028C4
:101FD000B1D0ADE704F082F8FFF7D6FB04F08AF841
:101FE000FFF718FC002000F00BFAF8BDAFF30080FB
:101FF000000000E04F8D873F00000060BC74833F0D
:10200000613255302AA9333FE40A0020054A13887B
:1020100001339BB21380642B02D9134664221A80C9
:10202000704700BFE40A002008B5FFF795FCFFF7F2
:10203000DFFCFFF7DFFDFFF717FEFFF7E7FF08BD47
:1020400008B52DED028B04F043F8B0EE408A04F0A1
:1020500045F838EE408AB5EEC08AF1EE10FA13D496
:1020600004F036F8B0EE408A04F038F838EE408AD2
:10207000DFED0E7AB4EEE78AF1EE10FA4CBF0120E4
:102080000020BDEC028B08BD04F022F8B0EE408ABF
:1020900004F024F838EE408ADFED057AB4EEE78AE2
:1020A000F1EE10FACCBF01200020EAE717B7513952
:1020B00017B751B908B52DED028B04F015F8B0EE45
:1020C000408A04F017F838EE408AB5EEC08AF1EE87
:1020D00010FA13D404F008F8B0EE408A04F00AF8BD
:1020E00038EE408ADFED0E7AB4EEE78AF1EE10FAB0
:1020F0004CBF01200020BDEC028B08BD03F0F4FFB3
:10210000B0EE408A03F0F6FF38EE408ADFED057A44
:10211000B4EEE78AF1EE10FACCBF01200020EAE726
:102120000AD7A33B0AD7A3BB08B5002003F0B2FF30
:10213000002003F0BBFF9FED040A03F0E1FFFFF76F
:102140007FFF0028FBD008BD22727A3C08B5002032
:1021500003F0A0FF002003F0A9FF9FED040A03F0A5
:10216000CFFFFFF76DFF0028FBD008BDEC51383DD5
:1021700008B5002003F08EFF012003F097FF9FEDCC
:10218000040A03F0BDFFFFF75BFF0028FBD008BD8A
:10219000EC51383D08B5002003F07CFF002003F02F
:1021A00085FF9FED040A03F0ABFFFFF749FF00280E
:1021B000FBD008BDEC51B83D08B5012003F070FF1D
:1021C0009FED040A03F0A6FFFFF774FF0028FBD081
:1021D00008BD00BFDA0FC9BF08B5002003F060FFDB
:1021E0009FED040A03F096FFFFF764FF0028FBD081
:1021F00008BD00BFDA0FC93F08B5002003F050FF4B
:102200009FED040A03F086FFFFF754FF0028FBD080
:1022100008BD00BFDA0F4940014B00221A70704719
:10222000430B00200023034A1370034A1370034A30
:1022300013707047400B0020420B0020410B002020
:10224000014B01221A707047400B0020014B012204
:102250001A707047420B0020014B01221A70704720
:10226000410B002008B5094B1B784BB1074B1B787D
:10227000012B08D0054B01221A70FFF7D3FF08BDD0
:10228000FFF764FFF2E7FFF785FFF3E7430B00205A
:1022900008B5134B1B783BB9124B1B78012B0DD0A3
:1022A000FFF78AFFFFF752FF0D4B1B78012B08D079
:1022B0000B4B01221A70FFF7B5FF08BDFFF714FEA4
:1022C000EEE7FFF755FF074B1B78012B04D0FFF714
:1022D00073FFFFF73BFFEBE7FFF706FEF7E700BFF3
:1022E000430B0020400B002008B5134B1B783BB973
:1022F000124B1B78012B0DD0FFF76EFFFFF726FF67
:102300000D4B1B78012B08D00B4B01221A70FFF7E5
:1023100089FF08BDFFF7E8FDEEE7FFF729FF074B50
:102320001B78012B04D0FFF757FFFFF70FFFEBE7F8
:10233000FFF7DAFDF7E700BF430B0020400B00205A
:1023400008B52B4B1B783BB92A4B1B78012B0DD0C2
:10235000FFF752FFFFF7FAFE254B1B78012B20D029
:10236000234B01221A70FFF75DFF08BDFFF7BCFD8C
:10237000214B1B78012B06D0204B1B78012B09D059
:10238000FFF73AFFE6E7FFF717FFFFF7ADFDFFF7AF
:1023900013FFDFE7FFF720FFFFF7A6FDFFF71CFFA6
:1023A000D8E7FFF7E5FE134B1B78012B04D0FFF7AE
:1023B00023FFFFF7CBFED3E7FFF796FD0E4B1B780D
:1023C000012B06D00D4B1B78012B09D0FFF714FF12
:1023D000EFE7FFF7F1FEFFF787FDFFF7EDFEE8E718
:1023E000FFF7FAFEFFF780FDFFF7F6FEE1E700BF1B
:1023F000430B0020400B0020420B0020410B00202B
:10240000014B1870704700BF440B002008B5FFF760
:1024100007FA044B83ED000AFFF708FA024B83ED3D
:10242000000A08BD580B00204C0B002008B5FFF730
:102430002BFD044B83ED000AFFF72CFD024B83EDCF
:10244000000A08BD580B00204C0B002000000000C3
:1024500038B5FFF7C7FA03280DD8DFE800F0020D02
:102460001840FFF7DDF9284B83ED000AFFF7F6FB74
:10247000264B83ED000A38BDFFF7D2F9224B83EDDE
:10248000000AFFF7EBFB214B83ED000AF3E7FFF7B0
:10249000C7F91D4B83ED000AFFF7E0FB10EE100AB1
:1024A000FEF77AF814A3D3E90023FEF7CDF804462B
:1024B0000D46FFF7BBF910EE100AFEF76DF810A3FA
:1024C000D3E90023FEF7C0F802460B462046294612
:1024D000FDF704FFFEF7B0FB0C4B1860CBE7FFF7EE
:1024E0009FF9094B83ED000AFFF7A0F9074B83ED35
:1024F000000AC0E7AFF30080333333333333D33FC5
:10250000666666666666E63F580B00204C0B002048
:102510000023024A1360024A13607047540B0020E4
:10252000500B002008B5094B1B78012B08D0022B5B
:1025300009D013B1FFF7ECFF01E0FFF767FF08BD1B
:10254000FFF774FFFBE7FFF783FFF8E7440B00207A
:1025500008B50C4B1B78012B06D0022B07D003B11A
:1025600008BDFFF79DFCFBE7FFF7D2F9F8E7FFF79F
:1025700039FA032802D1FFF793FCF1E7FFF7D4F90A
:10258000F9E700BF440B00200B4BD3ED007A0B4B57
:1025900093ED006A37EE867AF6EE006A27EE267A29
:1025A000074B83ED007A77EEC67A67EEA67A054B85
:1025B000C3ED007A704700BF580B00204C0B002081
:1025C000540B0020500B002008B52DED028B114B51
:1025D00093ED008A00F02CFEC8EE007A9FED0E8A83
:1025E00067EE887AFDEEE77A0C4B17EE902A1A8098
:1025F0000B4BD3ED008A00F01BFEC8EE807A67EE2D
:10260000887AFDEEE77A074B17EE902A1A80BDEC28
:10261000028B08BD540B002000007A44480B0020B8
:10262000500B0020460B00200C4BB3F90030002B60
:102630000BDD2833094A1380094BB3F90030002B16
:1026400007DD2833064A138070472D3B034A138069
:10265000F2E72D3B024A1380704700BF480B002071
:10266000460B002008B5054BB3F9000003F0EEFB64
:10267000034BB3F9000003F04DFC08BD460B0020EE
:10268000480B002008B5FFF74DFFFFF761FFFFF78C
:102690007BFFFFF799FFFFF7C7FFFFF7E3FF08BDD9
:1026A000014BB3F900007047480B0020014BB3F910
:1026B00000007047460B00202DE9F04389B000244C
:1026C000039404940594069407940194274B1A6B81
:1026D00042F001021A631A6B02F001020192019AA0
:1026E00002941A6B42F002021A631B6B03F002039E
:1026F0000293029B1E4D224643F6F011284606F037
:10270000AFF9DFF8708022464FF48051404606F062
:10271000A7F9F0230393012704970594032606964F
:1027200003A9284606F0BCF84FF00209CDF80C903A
:102730000494059403A9404606F0B2F84FF4805380
:10274000039304970594069603A9404606F0A8F85B
:102750004FF4645303930497CDF81490069603A99D
:10276000284606F09DF809B0BDE8F0830038024025
:10277000000002400004024000B585B00023009331
:102780000193029303933048304A02604FF4803241
:102790004260836001220261037680F820304FF0AE
:1027A0004051C1624FF000718162C3600521C16177
:1027B00080F83020436103F01BFF002831D108234B
:1027C0000093012301930323029369461E4804F0FA
:1027D00027F848BB002300930223019369461A4857
:1027E00004F01EF818BB01230093032301936946EC
:1027F000154804F015F8E8B9022300930423019367
:102800006946114804F00CF8B8B903230093052376
:10281000019369460C4804F003F888B905B05DF8E7
:1028200004FBFEF73BFECAE7FEF738FED2E7FEF7F1
:1028300035FED8E7FEF732FEDEE7FEF72FFEE4E7CF
:10284000FEF72CFEEAE700BF8CFD032000200140CC
:1028500070B588B000230393049305930693079300
:10286000026803F1804303F590339A4201D008B027
:1028700070BD04460025009503F58C335A6C42F474
:1028800080725A645A6C02F480720092009A019528
:102890001A6B42F001021A631A6B02F001020192F4
:1028A000019A02951A6B42F002021A631B6B03F045
:1028B00002030293029B0F230393032604960595BC
:1028C00003A9154805F0ECFF012303930496059531
:1028D00003A9124805F0E4FF1148124B036045605C
:1028E0008560C5604FF4806303614FF4006343610A
:1028F0004FF4005383614FF48073C3614FF440334E
:102900000362456206F032F918B9054BA3639C6374
:10291000ADE7FEF7C3FDF8E7000002400004024007
:10292000D4FD03201064024010B582B0002400944E
:102930001E4B1A6B42F400121A631A6B02F4001257
:102940000092009A01941A6B42F480021A631B6B86
:1029500003F480030193019B224621460E2006F0DA
:10296000E5FA0E2006F016FB224621460F2006F05F
:10297000DDFA0F2006F00EFB22462146382006F035
:10298000D5FA382006F006FB22460121392006F050
:10299000CDFA392006F0FEFA224601213A2006F04F
:1029A000C5FA3A2006F0F6FA02B010BD003802402F
:1029B00008B50F480F4B03604FF482734360002348
:1029C0008360C36002220261012242614FF40072FF
:1029D00082612022C2610362436283620A23C3626E
:1029E00004F0B4F800B908BDFEF758FDFBE700BFDE
:1029F00034FE03200038004030B589B00023039333
:102A000004930593069307930268304B9A4201D0D2
:102A100009B030BD04460025019503F500331A6C5A
:102A200042F480421A641A6C02F480420192019AC4
:102A300002951A6B42F002021A631B6B03F0020349
:102A40000293029B4FF46043039302230493059582
:102A5000032306930523079303A91D4805F020FFD0
:102A60001C481D4B036045608560C5604FF4806362
:102A7000036145618561C5614FF4003303624562BE
:102A800006F074F8D8B9134BE3649C631348144BF5
:102A900003600023436040228260C3604FF4806281
:102AA000026143618361C3614FF400320262436299
:102AB00006F05CF830B9094BA3649C63A8E7FEF705
:102AC000EDFCE0E7FEF7EAFCF5E700BF0038004068
:102AD000000402408CFE032058600240ECFE0320FC
:102AE0007060024010B596B00024129413941494B0
:102AF00015941094119409940A940B940C940D94C9
:102B00000E940F942022214601A806F0FCFC3D48BB
:102B10003D4B0360446084604FF6FF13C360046163
:102B20004461846104F00EFE002850D14FF48053BC
:102B3000129312A9334804F082FF00284AD1314889
:102B400004F034FE002848D12E4804F015FE002879
:102B500046D100231093119310A92A4805F084F858
:102B6000002840D16023099301230A9300220B928D
:102B70000C920D920E920F9209A9224804F0E5FEE4
:102B8000002833D141F658330A93042209A91D487D
:102B900004F0DBFE68BB302309934FF4B4530A936F
:102BA000082209A9174804F0A1FE28BB00230193BD
:102BB00002930393049305934FF4005206920893F3
:102BC00001A9104805F073F8C8B916B010BDFEF79A
:102BD00065FCABE7FEF762FCB1E7FEF75FFCB3E72D
:102BE000FEF75CFCB5E7FEF759FCBBE7FEF756FCC9
:102BF000C8E7FEF753FCCEE7FEF750FCD6E7FEF73A
:102C00004DFCE2E7F00004200000014000B58DB06B
:102C100000230193029315484FF080420260436005
:102C200083604FF6FF72C2600361836103220392E7
:102C300004930122059206930793089309920A933D
:102C40000B9303A904F0CCFD50B900230193029328
:102C500001A9064805F008F828B90DB05DF804FB95
:102C6000FEF71CFCF1E7FEF719FCF6E74001042033
:102C700000B58DB00023019302931548154A0260F8
:102C8000436083604FF6FF72C26003618361032279
:102C900003920493012205920693079308930992E5
:102CA0000A930B9303A904F09BFD50B900230193F1
:102CB000029301A9064804F0D7FF28B90DB05DF8CA
:102CC00004FBFEF7EBFBF1E7FEF7E8FBF6E700BFDE
:102CD000540004200004004000B583B0002300939A
:102CE00001930F480F4A026003224260836045F659
:102CF000BF52C260836104F025FD50B900230093E8
:102D000001936946064804F0AFFF28B903B05DF8A7
:102D100004FBFEF7C3FBF1E7FEF7C0FBF6E700BFDD
:102D2000B00004200010004010B584B00368404A91
:102D3000934207D03F4A934258D03F4A934262D0D1
:102D400004B010BD04460023019302F59C32516C7F
:102D500041F001015164526C02F001020192019AAA
:102D60003648374A02604FF040624260402282603B
:102D7000C3604FF4806202614FF4006242614FF41D
:102D8000005282614FF48072C2614FF400320262DD
:102D9000436205F0EBFE18BB284B63629C63294835
:102DA000294B03604FF0406343604023836000235E
:102DB000C3604FF4806202614FF4006242614FF4DD
:102DC000005282614FF48072C2614FF4003202629D
:102DD000436205F0CBFE30B91A4BA3629C63AFE7A8
:102DE000FEF75CFBD8E7FEF759FBF5E700230293FB
:102DF000164B1A6C42F004021A641B6C03F00403B5
:102E00000293029B9CE700220392104B196C41F045
:102E1000100119641B6C03F010030393039B022140
:102E2000362006F083F8362006F0B4F888E700BFB5
:102E30000000014000080040001000404CFF03204B
:102E400028640240F4FF032040640240003802403E
:102E500070B58AB0002305930693079308930993EE
:102E60000368B3F1804F04D02F4A93423AD00AB09E
:102E700070BD0024009403F50E331A6C42F0010279
:102E80001A641A6C02F001020092009A01941A6B03
:102E900042F001021A631A6B02F001020192019AD8
:102EA00002941A6B42F002021A631B6B03F00203D6
:102EB0000293029B4FF40043059302260696079463
:102EC00008940125099505A9184805F0E9FC08238F
:102ED0000593069607940894099505A9144805F0EA
:102EE000DFFCC4E700220392124B196C41F002018F
:102EF0001964196C01F00201039103990492196B92
:102F000041F0020119631B6B03F002030493049B5D
:102F1000302305930223069307920892099305A98B
:102F2000034805F0BDFCA2E7000400400000024099
:102F3000000402400038024000B587B0002301932E
:102F400002930393049305930268104B9A4202D0B4
:102F500007B05DF804FB0021009103F50C331A6BF8
:102F600042F002021A631B6B03F002030093009B02
:102F70004FF470730193022302930391032204928E
:102F8000059301A9024805F08BFCE1E70008004029
:102F90000004024000B58FB000230A930B930C93FA
:102FA0000D9308930993019302930393049305935C
:102FB000069307932F48304A02604360836040F2D3
:102FC000BF32C2600361836104F0BCFB002839D1C9
:102FD0004FF480530A930AA9264804F030FD0028D4
:102FE00033D1244804F0E2FB002831D100230893B8
:102FF000099308A91F4804F037FE60BB70230193B2
:10300000002202920392059201A91A4804F09DFC45
:1030100020BB04220DEB0201164804F096FC00BB15
:10302000082201A9134804F090FCE8B90C2201A978
:10303000104804F08AFCD0B90E48FFF77DFF0FB0AE
:103040005DF804FBFEF72AFAC2E7FEF727FAC8E7A5
:10305000FEF724FACAE7FEF721FACFE7FEF71EFAD9
:10306000D7E7FEF71BFADBE7FEF718FADEE7FEF715
:1030700015FAE1E7ACFF03200008004008B50A4854
:103080000A4B03604FF46133436000238360C360E5
:1030900003610C2242618361C36105F001F800B94C
:1030A00008BDFEF7FBF9FBE780010420001001409A
:1030B00000B589B000230393049305930693079307
:1030C000026803F1804303F588339A4202D009B0C5
:1030D0005DF804FB0021019103F594335A6C42F032
:1030E00010025A645A6C02F010020192019A029185
:1030F0001A6B42F001021A631B6B03F00103029387
:10310000029B4FF4C06303930223049301230593AE
:10311000032306930723079303A9024805F0C0FB86
:10312000D5E700BF000002407047FEE7FEE7FEE77C
:10313000FEE770477047704708B505F08FFF08BD80
:1031400008B5024805F0C6FD08BD00BF8CFE03208F
:1031500008B5024805F0BEFD08BD00BFECFE032027
:1031600008B5054804F0CDF900F03CFB00F0A6FAE4
:1031700000F05CFB08BD00BFB000042008B50248A9
:1031800005F0A8FD08BD00BFD4FD032008B5024826
:1031900005F0A0FD08BD00BF4CFF032008B50248A4
:1031A00005F098FD08BD00BFF4FF032082B00021A8
:1031B00000910B4B5A6C42F480425A645A6C02F4F0
:1031C00080420092009A01911A6C42F080521A6477
:1031D0001B6C03F080530193019B02B0704700BF4A
:1031E000003802400F49D1F8883043F47003C1F829
:1031F00088300D4B1A6842F001021A600020986076
:103200001A6822F0847222F480321A60074A5A60E7
:103210001A6822F480221A60D8604FF000638B6035
:10322000704700BF00ED00E000380240103000247D
:1032300008B500F0F9FB07EE900AF8EEE77AB1EE78
:10324000080A67EE807A9FED020A27EE800A08BD21
:103250000000803910B5084C23680021986807F0F9
:103260001DF923680021586807F018F92368002128
:10327000D86807F013F910BD2C00002000B583B00A
:103280008DF8070001231A460DF10701024804F0EA
:1032900036FF03B05DF804FB8001042000B583B065
:1032A000022038B10A2301220DF10701044804F07D
:1032B00096FFF6E79DF8070003B05DF804FB00BF3A
:1032C000800104204FF08043586A80B270470000AC
:1032D000014B586A80B2704700040040024B47F629
:1032E000FE725A62704700BF000400404FF08043F6
:1032F00047F6FE725A62704708B53C21054804F053
:1033000091FC3C21044804F08DFCFFF7E7FFFFF738
:10331000EDFF08BD4001042054000420084B5B6A07
:10332000A3F5FF437E3B07EE903AF8EEE77A9FED78
:10333000050A67EE807A9FED040A87EE800A7047DF
:1033400000040040DA0FC94000C07F444FF08043C2
:103350005B6AC3F5FF437E3307EE903AF8EEE77AF7
:103360009FED040A67EE807A9FED030A87EE800ADC
:10337000704700BFDA0FC94000C07F4438B504462B
:103380000D4621F0004100221B4BFDF7CFFB90B111
:1033900000221A4B20462946FDF7DCFB70B10022C3
:1033A000164B20462946FCF799FF41EC100B0AF01A
:1033B000CFFB55EC104B2046294638BD0022104B60
:1033C00020462946FDF7D0FB40B1002200232046CD
:1033D0002946FDF739F904460D46ECE70022074B74
:1033E00020462946FCF778FF41EC100B0AF030FB31
:1033F00055EC104BDFE700BF000030430000E03F1A
:103400000000E0BF2DE9F84305460F4616469846F2
:10341000D1F8009000244C450EDA35F81400FDF781
:1034200099F80022174BFDF70FF9174A02EBC40277
:10343000C2E900010134EEE7D7F8009000254D45C0
:103440000ADA114C04EBC50494ED000B0AF004FCFD
:1034500084ED000B0135F2E73D68C8F80050002408
:103460000BE0094B03EBC403D3E90001FFF786FF30
:10347000FDF7C2FB26F814000134A542F1DCBDE8DB
:10348000F88300BF0000A03F600B002030B585B07E
:103490008DF8071000F07F008DF80F000E4C002211
:1034A0004FF48051204605F0DBFA0C4D01231A46FB
:1034B0000DF10F01284603F089FB01231A460DF197
:1034C0000701284603F082FB01224FF48051204679
:1034D00005F0C6FA05B030BD0004024034FE0320FA
:1034E00030B583B060F07F008DF807000F4C0022EC
:1034F0004FF48051204605F0B3FA0D4D01231A46D2
:103500000DF10701284603F061FB01231A460DF176
:103510000601284603F048FD01224FF48051204661
:1035200005F09EFA9DF8060003B030BD000402408D
:1035300034FE032008B50020FFF7D2FF08BD0000CD
:1035400008B5642005F09CFDFFF7F4FFFFF7F2FFDC
:10355000E02803D01E4806F003FFFBE7642005F0D7
:103560008FFD10210320FFF791FF012005F088FD5A
:1035700001210620FFF78AFF642005F081FD20214C
:103580007F20FFF783FF642005F07AFD07210120EB
:10359000FFF77CFF012005F073FD0D211420FFF7DC
:1035A00075FF012005F06CFD00217F20FFF76EFF05
:1035B000642005F065FD00224FF48051054805F0B8
:1035C0004FFA0D23044A0549054803F0A1FD08BD43
:1035D00030E2000800040240682B00201C0000209C
:1035E00034FE032038B5104D01224FF48051284697
:1035F00005F036FA0D4CE278237943EA02230C4AAF
:103600001380E27A237B43EA02230A4A13800022D2
:103610004FF48051284605F023FA0D23224606492F
:10362000064803F075FD38BD00040240682B0020F9
:10363000622B0020662B00201C00002034FE03209B
:10364000094BB3F90030094AB2F900209B1A07EE82
:10365000903AF8EEE77A9FED060A67EE807A9FEDE2
:10366000050A27EE800A7047622B0020602B00209D
:103670000AE81C41000080390B4BB3F900300B4ABB
:10368000B2F900209B1A07EE903AF8EEE77A9FED28
:10369000087AC7EE876A9FED077AC6EE877A9FEDB4
:1036A000060A20EE670A7047662B0020642B002074
:1036B0001904864100003443DA0F494008B5FDF78C
:1036C00007FFFDF7ADFF01F01BFF012800D008BD8B
:1036D00001F022FF01380E28F9D801A353F820F099
:1036E0001D37000837370008513700086B370008CE
:1036F000713700088B370008A5370008CF3600085F
:10370000CF360008CF360008CF360008CF36000885
:10371000CF360008CF360008BB37000802F08AF821
:10372000FEF76AF802F0C0FEFEF786F8FEF77CFCB2
:10373000FEF7A8FFCBE702F07DF8FEF75DF802F098
:10374000B3FEFEF779F8FEF76FFCFEF79BFFBEE7CE
:1037500002F070F8FEF750F802F0A6FEFEF76CF8E3
:10376000FEF762FCFEF78EFFB1E702F063F8AEE70A
:1037700002F060F8FEF740F802F096FEFEF75CF803
:10378000FEF752FCFEF77EFFA1E702F053F8FEF7CA
:1037900033F802F089FEFEF74FF8FEF745FCFEF71E
:1037A00071FF94E702F046F8FEF726F802F07CFE7F
:1037B000FEF742F8FEF738FC89E702F03BF8FEF727
:1037C0001BF802F071FEFEF737F8FEF72DFCFEF74E
:1037D00059FF7CE708B5024803F07BFE08BD00BF37
:1037E000B000042008B50C4B1B685A6A0B4B1A60DA
:1037F0000B4B18685968013041F10001186059609D
:10380000FDF732FB06EE900A9FED067AC6EE877A48
:10381000054BC3ED007A08BDB0000420882B0020C2
:10382000802B002000007A44782B00200A4B196876
:103830004B6A0A4A12689A1A4FF47A7303FB02F32E
:10384000CA6AB3FBF2F3064A1360064A11688B4258
:1038500038BF0B4613607047B0000420882B00204F
:103860008C2B0020902B0020014B1888704700BF44
:103870008C2B0020014B1888704700BF902B002034
:10388000014B93ED000A7047782B00200E4B1B78FC
:10389000012B10D0022B12D04BB15A1C0B4B83FBC7
:1038A000021303EB4303D31A074A13707047084A05
:1038B00090211180F1E7064A60211180EDE7044A6A
:1038C00000211180E9E700BFA02B00205655555577
:1038D000A42B002010B500210B4B19800B4B198035
:1038E0000B4B19700B4C23686FF001021A612046D4
:1038F00004F044F90421204604F040F90821204650
:1039000004F01CF910BD00BFA22B0020A42B002046
:10391000A02B0020F000042038B5124C124A0021E0
:10392000A06A05F0C5FA114D01232A461049606AC4
:1039300005F082F901232A460E49A06A05F07CF9B8
:1039400005220D490D4802F07FFE2368DA6842F433
:10395000C062DA605A6C42F400425A64FFF7BAFF60
:1039600038BD00BFF00004208D380008140002406C
:10397000A42B0020A22B0020942B00208CFD0320E0
:1039800010B50C4C0021204604F018F90421204603
:1039900004F014F90821204604F010F9A06A05F09B
:1039A00085F9606A05F082F90022F021024805F0ED
:1039B00057F810BDF000042000000240154B1A78A3
:1039C0000232154B83FB021303EB4303D31A012B83
:1039D00011D0022B16D003B17047104B1988104A32
:1039E000118059880F4A118099889180D988118156
:1039F0001B8993817047094A51880A4B5980128963
:103A0000DA817047054A9188064BD980D2885A815D
:103A1000E2E700BFA02B002056555555942B0020FF
:103A20009E2B0020A82B0020014B1888704700BF58
:103A30009E2B0020044A02EB80035B8832F82000B2
:103A4000181A00B2704700BFA82B00200000000029
:103A50002DE9F8430446FFF7EDFF0546FCF78AFD24
:103A600041EC100B44B1032C06D0013CE4B2012C14
:103A70002AD90024002548E0642D43DDA4B10026A6
:103A80000027B046B946032C16D00AF023F953ECB0
:103A9000102B40464946FCF701FF32463B46FCF7F7
:103AA0001BFC04460D4630E01FA7D7E900670FF264
:103AB0008009D9E90089E6E71FA7D7E900670FF277
:103AC0007009D9E90089E0E7642D03DC1CA5D5E97C
:103AD00000451AE00AF0FEF851EC100B1AA3D3E9E6
:103AE0000023FCF7B1FD1AA3D3E90023FCF7F4FB94
:103AF00002460B4618A1D1E90001FCF7EDFB044694
:103B00000D4602E014A5D5E9004500220023204619
:103B10002946FDF70BF818B945EC104BBDE8F883C2
:103B200000240025F8E700BF90A0F831E6AEB53FCD
:103B3000666666666666E63FCBA145B6F3FDB43FB2
:103B40009A9999999999A93FB81E85EB51B88E3FDA
:103B5000D9CEF753E3A59B3F0AD7A3703D0AB73FE1
:103B6000F0B58BB00D48C289838944890189C58825
:103B700087884688008808900796361A0696059723
:103B80000495ED1B039502910194641A0094D11AD7
:103B9000034806F0E5FB0BB0F0BD00BFA82B0020EA
:103BA0003CE200082DE9F84304468846174699464A
:103BB0004FF480620021384605F0A5FC611E8C425E
:103BC00000D20021002426E004EB4012BB5C43F04D
:103BD0000103BB5416E004EB4012BB5C43F002034C
:103BE000BB5412E04201BB5C43F00403BB540EE043
:103BF0003B5D43F008033B552846B0420ADA621C9D
:103C00008A42E1D0451CB542E5D0002CEAD000281C
:103C1000F2D1EDE701348C4206DA08F1FF36B04507
:103C200000D200260020E8E73B7843F002033B7017
:103C300097F8203043F0080387F820304FF4806273
:103C40003946484605F051FC3B7843F0010389F8BA
:103C500000307B7843F0040389F80130BDE8F88335
:103C60002DE9F04F89B08246934618460593179B7D
:103C70009DF86020029201220A708BF800209AF8C9
:103C800000200392027000220192D146DDF850A07C
:103C9000B8E10132AA420CDA0C78985C8442F8D17F
:103CA0009BF800409818407A8442F2D1012001909C
:103CB000EFE7019A002A40F0A38199F800809BF871
:103CC000004004940D786A1E560104EB4212013A3A
:103CD0001598825CB8F1070F53D8012000FA08F05C
:103CE000C0B21040139F97F800E070454BD099F890
:103CF00001C0BCF1070F56D8012000FA0CF0C0B289
:103D00001040864551D099F80270072F60D80120E5
:103D1000B840C0B2104086455CD099F80360069662
:103D2000072E66D80120B040C0B20240964562D04E
:103D3000039A02F1040EBEF1FF0F01D94FF0FF0EFE
:103D4000059A1278AEEB0200864500D2002000F002
:103D500003009AF800E09AF8016004969AF802606D
:103D600007969AF80360704558D0049CA04200F072
:103D7000B880079CA04200F08E80B04260D0002244
:103D80003FE10020ADE7601CFF2800D9FF20304450
:103D9000169F384410F8010C029FB842A7D2CDF804
:103DA0000C800290A3E70020AAE7681CFF2800D936
:103DB000FF200138049F07EB4010169F384410F88D
:103DC000010C029FB8429ED2CDF80CC002909AE737
:103DD00000209FE7601E844200D200203044169EDF
:103DE000304410F8010C029EB04296D20397029024
:103DF00093E7002099E76A1E954200D20022013A1B
:103E0000049800EB42121698024412F8012C029812
:103E100082428DD206980390029289E7424500F0D3
:103E20008980624500F08C80BA4200F08F8006984D
:103E3000824200F091800D708BF800400022E0E09B
:103E40000432FF2A00F2C280013A504202F003021B
:103E500000F0030058BF4242D2B2059802700C78BD
:103E60009BF8000099F80050AA4200F0B18099F840
:103E70000150AA4200F0B28099F80250AA4200F024
:103E8000B38099F80350AA4200F0B4800C708BF80C
:103E900000000022B5E00432FF2A7DD8023A5042E9
:103EA00002F0030200F0030058BF4242D2B205986C
:103EB00002700C789BF8000099F80050AA426DD06F
:103EC00099F80150AA426FD099F80250AA4271D0D5
:103ED00099F80350AA4273D00C708BF800000022AE
:103EE0008FE00432FF2A3DD80132FF2A00D9FF2299
:103EF000504202F0030200F0030058BF4242D2B227
:103F0000059802700C789BF8000099F80050AA42BE
:103F10002AD099F80150AA422CD099F80250AA420E
:103F20002ED099F80350AA4230D00C708BF80000C4
:103F3000002266E00134FF2C00D9FF24E4B270E7D0
:103F40000135FF2D00D9FF25EDB26DE7601E8442DB
:103F500000D20020C4B26AE76A1E954200D2002255
:103F6000D5B268E7FF22BFE70130FF2800D9FF2064
:103F7000C0B2CEE70134FF2C00D9FF24E4B2CCE775
:103F8000451EA84200D20025E8B2CAE7621E94424C
:103F900000D20022D4B2C8E7FF227FE70130FF2819
:103FA00000D9FF20C0B28BE70134FF2C00D9FF24D9
:103FB000E4B289E7451EA84200D20025E8B287E7AF
:103FC000621E944200D20022D4B285E7FF223BE772
:103FD0000130FF2800D9FF20C0B248E70134FF2C90
:103FE00000D9FF24E4B247E7451EA84200D20025CD
:103FF000E8B246E7621E944200D20022D4B245E7FE
:1040000001221AB9129A1578002243E609B0BDE8D8
:10401000F08F30B404789C420AD044789C420ED091
:1040200084789C4212D0C2789A4216D030BC704735
:1040300014780134FF2C00D9FF241470EDE70C78BC
:104040000134FF2C00D9FF240C70E9E715786C1EB1
:10405000A54200D200241470E5E70A78531E9A4264
:1040600000D200230B70E1E72DE9F04FADF5805D44
:1040700087B004460D460DF5825108680DF5825152
:104080000C310F68591E8B4200D20021531E9A42F8
:1040900000D2002303FB01F3FF2B00D9FF235A1E9C
:1040A000934200D200225FFA82F80DF5825310335A
:1040B0001B6883F800800023B3F5806F03DA07F8EC
:1040C00003800133F8E70DF5825304331E78002294
:1040D00009E083185B7A815C013903EB4113013BF2
:1040E0000021F9540132B242F3DB43E10133A9B9B3
:1040F000B3F5806F12DAFA5CB242F7D109F1010030
:104100005A1CDFF884C22CF81920B0F5806F02DA4F
:1041100013468146EBE781460121E8E7B9F1000F3C
:104120000FDD0DF580531433C3F80090002399453B
:104130000ADD954A32F91310944A22F8131001331C
:10414000F5E74FF00009ECE70DF580531033C3F8A5
:1041500000900023994508DD8C4A32F81320013A7B
:104160008B4921F813200133F4E70DF60C030DF50C
:1041700001620DF580511031854801F02FFFDDF807
:104180000CA8002203E00DF20C418B540132524581
:104190000EDA0DF5016333F812300133B3F5803FC9
:1041A00001D34FF6FF739BB2FF2BECD9FF23EAE755
:1041B0000023994507DD754931F81320013A21F8AC
:1041C00013200133F5E70DF60C030DF501620DF533
:1041D000805114316D48FFF715F9DDF80C08002205
:1041E00002E003A98B54013282420EDA0DF501631D
:1041F00033F812300133B3F5803F01D34FF6FF732C
:104200009BB2FF2BEDD9FF23EBE7BAF1000F05DBE3
:10421000BAF1FF0F04DD4FF0FF0A01E04FF0000A92
:104220001AF0FF0F00F0A1805FFA8AFE00213AE049
:10423000002257E00CF10102FF2A00D9FF2292442C
:104240000AF1FF3A17F80A20904550D1721C07F87E
:104250000A20012200924AE0002251E009F1010205
:10426000FF2A00D9FF22013A0CEB4212013A17F85B
:1042700002A0D04549D106F1010A07F802A00122A7
:10428000009242E0002249E0023BFA5C90454AD1AC
:10429000721CFA540123009345E0002318402B7848
:1042A000984247D00131714554DA94F800B003AB1D
:1042B00013F8019009F1FF334FEA431A0DF20C4253
:1042C00012F801C00CEB43130DF58252083212684C
:1042D0001A4412F8010CBBF1070FA9D8012202FA07
:1042E0000BF2D2B2024095F800B05A45A2D094F831
:1042F00001A0BAF1070FAFD8012202FA0AF2D2B236
:10430000024095F800A05245A8D094F802A0BAF156
:10431000070FB7D8012202FA0AF2D2B2024095F88A
:1043200000A05245B0D0E278072AB6D801239340C6
:10433000DBB2B3E7A9F102090CEB491C0CF1FF3C1D
:1043400017F80C309845ADD1731C07F80C300123D9
:104350000093A7E70136F6B2019B4BB9B04507D3EE
:1043600001994FF000094B46C1E601230193F3E7A1
:10437000009B23B1002301931E460093ECE70DF54B
:10438000805D07B0BDE8F08FCC330020CC43002027
:10439000C02B00202DE9F04FADF24C4D08900B9151
:1043A00015460C93DDF87044DDF87494DDF878A4BC
:1043B0009DF87C3409939DF880340A93DDF8848459
:1043C000DDF888B4DDF88C649DF890340D931F46B9
:1043D00000230693079700F018BC00208DF84404D2
:1043E0008DF840048DF845048DF841048DF846049D
:1043F0008DF842048DF847048DF84304FFF71AFB4B
:1044000007460320FFF716FB3B46034403EBD37339
:104410005B10CF4F3B800220FFF70CFBCD4B188089
:104420000120FFF707FBCC4B1880B7F90020CB4BDE
:10443000B3F900309A4200F328829AF8003003F072
:1044400003020B9949780DF58960024402F8081CB3
:10445000C04AB2F90010C24AB2F90020914213DDFD
:104460000133FF2B00D9FF235A4203F0030302F06C
:10447000030258BF5342089A52780DF589610B44E4
:1044800003F8042CFDF7E2FE9AF80020531CFF2BE2
:1044900000D9FF23594203F0030301F0030158BF81
:1044A0004B420B9949780DF58960034403F8081CC9
:1044B000A94BB3F90010AB4BB3F90030994213DDAF
:1044C000D31CFF2B00D9FF235A4203F0030302F051
:1044D000030258BF5342089A52780DF589610B4484
:1044E00003F8042CFDF7B8FE9AF800300333FF2BD5
:1044F00000D9FF235A4203F0030302F0030258BF1E
:1045000053420B9A52780DF589610B4403F8082C3D
:104510002A78531CFF2B00D9FF23072A00F2C381FE
:1045200001219140C9B2013B0DF58962134413F892
:10453000043C01FB03F1FF2900D9FF212278013A55
:104540005201894B1A6099F800301344013B8748A7
:104550000360C9B218F80300014308F80310297872
:10456000481CFF2800D9FF20072900F29E814FF048
:10457000010C0CFA01F1C9B201380DF58967384414
:1045800010F8080C01FB00F1FF2900D9FF21C9B286
:104590001BF8030001430BF803106978481CFF283F
:1045A00000D9FF20072900F282814FF0010C0CFA9C
:1045B00001F1C9B201380DF58967384410F8040CCF
:1045C00001FB00F1FF2900D9FF21C9B218F803004F
:1045D000014308F803106978481CFF2800D9FF2020
:1045E000072900F266814FF0010C0CFA01F1C9B203
:1045F00001380DF58967384410F8080C01FB00F10B
:10460000FF2900D9FF21C9B21BF8030001430BF8B1
:104610000310A978481CFF2800D9FF20072900F2C1
:104620004A814FF0010C0CFA01F1C9B201380DF5C5
:104630008967384410F8040C01FB00F1FF2900D908
:10464000FF21C9B218F80300014308F80310A97844
:10465000481CFF2800D9FF20072900F22E814FF0C7
:10466000010C0CFA01F1C9B201380DF58967384423
:1046700010F8080C01FB00F1FF2900D9FF21C9B295
:104680001BF8030001430BF80310E978481CFF28CE
:1046900000D9FF20072900F212814FF0010C0CFA1B
:1046A00001F1C9B201380DF58967384410F8040CDE
:1046B00001FB00F1FF2900D9FF21C9B218F803005E
:1046C000014308F80310E978481CFF2800D9FF20AF
:1046D000072900F2F6804FF0010C0CFA01F1C9B283
:1046E00001380DF58967384410F8080C01FB00F11A
:1046F000FF2900D9FF21C9B21BF8030001430BF8C1
:104700000310099B591E8B4200D2002199F80030FA
:104710008B4254DAA87829780131FF2900D9FF218A
:10472000072800F2D0804FF0010C0CFA00F0C0B264
:1047300001390DF58967394411F8041C00FB01F1BA
:10474000FF2900D9FF210133FF2B11D9FF230FE0EF
:10475000B82B0020BC2B0020BA2B00201E0000200C
:104760002200002020000020C4330020C833002095
:104770001344013B18F80300C9B2014308F80310C1
:10478000A87829780131FF2900D9FF21072800F2F4
:104790009C804FF0010C0CFA00F0C0B201390DF50D
:1047A0008967394411F8081C00FB01F1FF2900D981
:1047B000FF211BF80300C9B201430BF803100A9B49
:1047C000591E8B4200D2002123788B424BDAE878C5
:1047D00069780131FF2900D9FF21072877D84FF0E8
:1047E000010C0CFA00F0C0B201390DF589673944AB
:1047F00011F8041C00FB01F1FF2900D9FF2101334E
:10480000FF2B00D9FF2399F800C0013B58010CEBA6
:104810004313013B18F803C0C9B24CEA010108F880
:104820000310EB7869780131FF2900D9FF21072BAC
:104830004FD84FF0010C0CFA03F3DBB201390DF540
:104840008967394411F8081C03FB01F3FF2B00D9D9
:10485000FF2399F80010084401381BF80010DBB260
:104860000B430BF8003099F80010012971D9287812
:10487000AB780133FF2B00D9FF2307282BD84FF04B
:10488000010C0CFA00F0C0B226E09AF8003003F0F8
:104890000303089A52780DF589610B4403F8042C40
:1048A000FDF7CEFCC9E500213DE6002164E60021CC
:1048B00080E600219CE60021B8E60021D4E6002134
:1048C000F0E600210CE7002032E7002066E7002038
:1048D0008AE70023B2E70020013B0DF589673B44DE
:1048E00013F8043C00FB03F0FF2800D9FF204B1E07
:1048F000994200D200231344013B18F80310C0B2C0
:10490000084308F803002878AB780133FF2B00D95F
:10491000FF23072803D801218140C9B200E000210C
:10492000013B0DF58960034413F8083C01FB03F3D8
:10493000FF2B00D9FF2399F80000411E884200D2C6
:1049400000210A44013A1BF80210DBB20B430BF8BA
:1049500002302178012940F25D816878EB780133DB
:10496000FF2B00D9FF23072803D801228240D2B2AF
:1049700000E00022013B0DF58960034413F8043C7C
:1049800002FB03F2FF2A00D9FF22481E814200D217
:10499000002099F80030013803EB4013013B18F870
:1049A0000310D2B20A4308F803206978EB78013388
:1049B000FF2B00D9FF23072903D801228A40D2B256
:1049C00000E00022013B0DF589610B4413F8083C1F
:1049D00002FB03F3FF2B00D9FF232278511E8A42EA
:1049E00000D2002199F80020013902EB4112013A6E
:1049F0001BF80210DBB20B430BF802300AE1013363
:104A0000BB420CDA2178F25C9142F8D199F800109F
:104A1000F218527A9142F2D101220692EFE70797FB
:104A2000069B002B2FD10DF13F03049310AB039392
:104A3000CDF808800D9B019300960A9B099A08996E
:104A40002846FFF711FB2A78072A3BD80123934019
:104A5000DBB2B24A126818F802201A4234D199F82F
:104A600000300133FF2B00D9FF23AD4A12681344F5
:104A7000013B10AAD35C9DF83F20934231D28DF8C0
:104A80003F302A7821E0FDF773FBFEF779FFA54C54
:104A900001224FF46451204603F0E2FF4FF42F70DF
:104AA00004F0EEFA00224FF46451204603F0D8FFE0
:104AB0004FF4967004F0E4FAFEF72EFF0DF24C4D21
:104AC000BDE8F08F0023C4E7069A95F801E0BEF137
:104AD000070F08D84FF0010C0CFA0EFC5FFA8CFCA3
:104AE00003E0069AF1E74FF0000C99F800002178F6
:104AF0004B1E00EB4313434413F8013C13EA0C0F25
:104B000010D10131FF2900D9FF21013900EB4111FA
:104B1000013910AB5B5C9DF83F108B4202D28DF8DF
:104B20003F30724695F802C0BCF1070F04D801214E
:104B300001FA0CF1C9B200E0002199F800002378D5
:104B4000013B00EB4313434413F8013C0B4210D1EB
:104B5000431E984200D20023714909680B44013B6F
:104B600010A9CB5C9DF83F108B4202D28DF83F30EC
:104B7000624695F803E0BEF1070F04D8012000FA61
:104B80000EF0C0B200E0002099F8001094F800C0C8
:104B90000CF1FF3301EB4313434413F8013C034290
:104BA0000FD10CF1FF339C4500D20023013B01EBF8
:104BB0004311013910AB595C9DF83F30994200D246
:104BC00072460432FF2A00D9FF229AF80030D31A25
:104BD0009A4200D200235A4203F0030302F0030278
:104BE00058BF5342DBB20C98017842788DF83F20D1
:104BF0000746807897F803C08B4210D09A4200F0A5
:104C0000958083425AD0634529D0474B1B78002BAF
:104C10003FF4E3AB0023444A1370079FF0E6FDF72F
:104C200021FB9AF800202B789A4200F0AE809AF887
:104C300000206B789A4200F0B1809AF80020AB789F
:104C40009A4200F0B2809AF80020EB789A42DCD1C8
:104C50002278531E9A4200D200232370D5E7FDF735
:104C600043FB9AF800300433FF2B00F2DD80013B58
:104C70005A4203F0030302F0030258BF5342DBB26F
:104C80008AF800302A78934200F0D0809AF8002009
:104C90006B789A4200F0D3809AF80020AB789A4261
:104CA00000F0D4809AF80020EB789A42ADD12278B7
:104CB000531E9A4200D200232370A6E7FDF740FB63
:104CC0009AF800300433FF2B00F29380023B5A42E3
:104CD00003F0030302F0030258BF5342DBB28AF829
:104CE00000302A78934200F086809AF800206B7892
:104CF0009A4200F089809AF80020AB789A4200F03E
:104D00008A809AF80020EB789A427FF47EAF22786E
:104D1000531E9A4200D20023237076E7C833002046
:104D2000C433002000000240C0330020FDF7B0FA79
:104D30009AF800300433FF2B40D80133FF2B00D901
:104D4000FF235A4203F0030302F0030258BF534209
:104D5000DBB28AF800302A78934231D09AF80020EA
:104D60006B789A4235D09AF80020AB789A4237D0C7
:104D70009AF80020EB789A427FF447AF2278531ECE
:104D80009A4200D2002323703FE799F800300133A4
:104D9000FF2B00D9FF2389F8003048E7237801333F
:104DA000FF2B00D9FF23237047E799F80020531EFB
:104DB0009A4200D2002389F8003044E7FF23BCE781
:104DC00099F800300133FF2B00D9FF2389F8003018
:104DD000C4E723780133FF2B00D9FF232370C2E7F8
:104DE00099F80020531E9A4200D2002389F800301F
:104DF000BEE7FF236AE799F800300133FF2B00D9A3
:104E0000FF2389F8003070E723780133FF2B00D9A6
:104E1000FF2323706FE799F80020531E9A4200D2B7
:104E2000002389F800306CE7FF2320E799F8003071
:104E30000133FF2B00D9FF2389F8003026E72378C0
:104E40000133FF2B00D9FF23237025E799F80020B9
:104E5000531E9A4200D2002389F8003022E700BF97
:104E60002DE9F04FADF5C15D83B00D4616460593B3
:104E70000DF5C25310331C780DF5C25314331B7853
:104E80000DF5C252183211680DF5C2521C32D2F81B
:104E900000900DF5C3520432D2F800B05A1E93426E
:104EA00000D20022631E9C4200D2002303FB02F3C7
:104EB000FF2B00D9FF235A1E934200D20022D3B207
:104EC00003930DF5C3520832126814461A46237034
:104ED0000023B3F5806F03DA0BF803200133F8E702
:104EE000007800220AE08B185B7A8C5C013C03EBB3
:104EF0004413013B00240BF8034001328242F2DBF1
:104F0000002301930493CAE10133A9B9B3F5806F7B
:104F100012DA1BF8032001988242F5D1781C5A1C42
:104F2000C64C24F81720B0F5806F02DA1346074606
:104F3000EBE707460121E8E7002F05DD0DF5C1533A
:104F400004331F60002308E00027F7E7BB4A32F96B
:104F50001310BB4A22F8131001339F42F6DC0DF503
:104F6000C1531F6000239F4209DDB54A32F8132068
:104F7000013A0DF5815121F813200133F3E70DF6C5
:104F80001C030DF502620DF5C1510DF5815001F0C4
:104F900025F8DDF81C48002203E00DF21C418B547B
:104FA0000132A2420EDA0DF5026333F812300133FA
:104FB000B3F5803F01D34FF6FF739BB2FF2BECD9C3
:104FC000FF23EAE700239F4207DD9D4931F81320C4
:104FD000013A21F813200133F5E70DF61C030DF516
:104FE00002620DF5C15104319548FEF70BFADDF868
:104FF0001C08002202E007A98B54013282420EDA1B
:105000000DF5026333F812300133B3F5803F01D35D
:105010004FF6FF739BB2FF2BEDD9FF23EBE7002187
:1050200002940DF5C3530433C3F800B0DDF814B097
:1050300057E0002219F80CE01EEA020F14BF4FF0EF
:1050400001084FF0000896F800E0F04566D06A7855
:10505000072A00F28F804FF0010C0CFA02FC5FFA75
:105060008CFC5A1E19F802E01EEA0C0F14BF4FF018
:1050700001084FF0000896F800E0F0457DD095F863
:1050800002C0BCF1070F00F2AC804FF0010E0EFA27
:105090000CFC5FFA8CFC19F802E01EEA0C0F14BF3E
:1050A0004FF001084FF0000896F800E0F04500F0DE
:1050B0009B80EB78072B00F2BF804FF0010C0CFABD
:1050C00003F3DBB219F802C01CEA030F14BF4FF060
:1050D000010E4FF0000E96F800C0E64500F0B280D9
:1050E0000131029B994280F2D1802A78481C80B21B
:1050F000013807AB1F5C7B1E4FEA431A0DF21C4CB4
:105100001CF8000000EB431303F1FF3C072A90D882
:105110004FF0010E0EFA02F2D2B28BE70DF5C35436
:10512000246814F80CC01CEA020F14BF4FF0010CE5
:105130004FF0000C9BF80120944588D1421CFF2AB7
:1051400000D9FF2292440AF1FF3A0DF5C35204320E
:10515000126812F80A20039C94427FF478AF019AF7
:1051600001320DF5C3540434246804F80A200122E6
:1051700004926CE74FF0000C73E70DF5C3542468FC
:1051800014F802E01EEA0C0F14BF4FF0010E4FF0AE
:10519000000E9BF801C0E6457FF471AF07F1010CEA
:1051A000BCF1FF0F01D94FF0FF0C0CF1FF3C00EBFD
:1051B0004C1C0CF1FF3C0DF5C3540434246814F866
:1051C0000CE0039C74457FF45AAF019C04F1010E7E
:1051D0000DF5C3540434246804F80CE0012404944D
:1051E0004DE74FF0000C56E70DF5C354246814F852
:1051F00002E01EEA0C0F14BF4FF0010E4FF0000E3C
:105200009BF801C0E6457FF454AF023B0DF5C35453
:105210000434246814F803C0039C64457FF449AF48
:10522000019C04F1010C0DF5C3540434246804F806
:1052300003C0012304933CE7002343E7CC3B002059
:10524000CC4B00200DF5C3542468A25C1A4214BF55
:10525000012200229BF801309A427FF441AF023FC5
:1052600000EB471001380DF5C35304331B681B5C7A
:10527000039A9A427FF434AF019B01330DF5C35278
:105280000432126813540123049329E70DF5C35324
:105290000433D3F800B0019B0133DBB201930DF569
:1052A000C35308331B681B78019A934203D3002130
:1052B0000F460B4629E6049B002B7FF421AE0DF52B
:1052C000C15D03B0BDE8F08F2DE9F04FADF2644D44
:1052D00007460D4690469946DDF888449DF88C6453
:1052E0009DF890A48DF85C640023112B07DC0DF56C
:1052F0008C621A44002102F8181C0133F5E70022E1
:105300008DF8442401238DF8453402208DF846049D
:1053100003218DF847148DF840248DF841348DF821
:1053200042048DF843148DF83C248DF83D348DF8FB
:1053300038248DF83934BAF1000F07D0BAF1010FD3
:1053400000F0AD800DF2644DBDE8F08FFCF7ECFE8F
:1053500001238DF834340DF1300B8DF830300023FB
:105360005A460DF234410DF24440FEF752FEFCF76E
:1053700079FF9DF844240BAB8DF82C2008960794F8
:1053800006950597CDF81090CDF80C800293CDF8D6
:1053900004B00DF2344300930DF588630DF24442DE
:1053A0000DF587610DF23C40FEF7F4FF4FF47A7083
:1053B00003F066FE3DE08DF848C48DF851040121EC
:1053C0008DF8331089B996420FDD02F10903E05CD4
:1053D00014F802C00CF1FF3300EB43132B4413F815
:1053E000013C0F2BE7D10132ECE79DF83330012B64
:1053F00024D1FCF711FF0123404A137008930DF5E7
:105400008963079306950597CDF81090CDF80C8029
:105410000BAB02930CAB01930DF2344300930DF5EB
:1054200088630DF244420DF587610DF23C40FEF7B2
:10543000B1FF00228DF833201146C3E74FF47A7094
:1054400003F01EFE01268DF848648DF85164FCF7C8
:10545000E3FE2A4B1E7008960DF5896307930695A7
:105460000597CDF81090CDF80C800BAB02930CABE8
:1054700001930DF2344300930DF588630DF244421D
:105480000DF587610DF23C40FEF784FFFCF72CFD23
:10549000FCF7B2FEBEEE000A00F032FE4EE70DF25F
:1054A0003C4A0DF1330BCDF818B00DAE05960495BE
:1054B00003970294CDF80490CDF800800DF5876332
:1054C00052460DF244410DF25C40FFF7C9FC9BF8D7
:1054D000003006930594049603970DF588630293B4
:1054E000CDF804A00DF25C4300930BAB0CAA0DF2B7
:1054F00034410DF24440FEF7B3FB23E7C0330020F4
:10550000014B1878704700BFCF530020014B002299
:105510001A707047CF530020014B1878704700BFB6
:10552000CD530020014B1870704700BFCD530020B1
:1055300010B5FCF743F8B5EE400AF1EE10FAF8D1D9
:10554000FCF754F8C82003F09BFDFCF73DF8DFEDB5
:10555000827AB4EEE70AF1EE10FA03DD7F4A13789F
:1055600001331370FCF736F8DFED7D7AB4EEE70A0D
:10557000F1EE10FA03D5794A1378013B1370774A9C
:10558000137803F00F031370764A1278934211D008
:105590000F2B0FD8DFE803F0081523313F4D5B696F
:1055A000778593A1AFBDCBD900224FF464516E48EB
:1055B00003F056FA694B18786A4B1870FFF7B2FF80
:1055C00010BD694C00224FF4C851204603F048FA40
:1055D00001224FF40051204603F042FAEAE7624C00
:1055E00000224FF42451204603F03AFA01224FF4EE
:1055F0008051204603F034FADCE75B4C00224FF484
:105600001061204603F02CFA01224FF4405120464D
:1056100003F026FACEE7544C00224FF444512046C2
:1056200003F01EFA01224FF40061204603F018FA3D
:10563000C0E74D4C00224FF48851204603F010FA89
:1056400001224FF42051204603F00AFAB2E7464CFB
:1056500000224FF40451204603F002FA01224FF4D5
:10566000C051204603F0FCF9A4E73F4C00224FF460
:105670008071204603F0F4F901224FF46051204676
:1056800003F0EEF996E7384C00224FF460512046C3
:1056900003F0E6F901224FF48071204603F0E0F9AF
:1056A00088E7314C00224FF4C051204603F0D8F96E
:1056B00001224FF40451204603F0D2F97AE72A4C34
:1056C00000224FF42051204603F0CAF901224FF482
:1056D0008851204603F0C4F96CE7234C00224FF4B4
:1056E0000061204603F0BCF901224FF444512046EA
:1056F00003F0B6F95EE71C4C00224FF440512046FF
:1057000003F0AEF901224FF41061204603F0A8F92E
:1057100050E7154C00224FF48051204603F0A0F9C9
:1057200001224FF42451204603F09AF942E70E4C2F
:1057300000224FF40051204603F092F901224FF469
:10574000C851204603F08CF934E701224FF464512C
:10575000054803F085F92DE7CDCCCC3DCC53002096
:10576000CDCCCCBDCE5300200000024008B5FBF7E5
:1057700037FFDFED057AB4EEE70AF1EE10FA01DD4E
:10578000012008BD0020FCE7CDCCCC3D08B50320AE
:10579000FEF750F940F2DB539842F8DD4FF4FA700F
:1057A00003F06EFC014B01221A7008BDCF5300209C
:1057B00038B50023184A1370184A1370184A13702A
:1057C000FEF7DEF8144B1B7833B9FFF7B1FEFFF795
:1057D000CDFF114B1870F5E7002415E0114D0122A3
:1057E0004FF46451284603F03BF94FF42F7003F057
:1057F00047FC00224FF46451284603F031F94FF47E
:10580000967003F03DFC0134012CE7DDFEF784F8CF
:10581000FFF7BCFF38BD00BFD0530020CF5300209E
:10582000CC53002000000240014B00221A80704738
:10583000D2530020F8B54D4B1D8840F6B7339D423A
:1058400000D9F8BD07EE905AF8EE677A484E05EB9E
:10585000850406EB0414C4ED007AFBF78FFF84ED9A
:10586000010AFBF763FF84ED020AFCF719FF07EE5C
:10587000900AF8EEE77AC4ED037AFCF717FF07EE1B
:10588000900AF8EEE77AC4ED047A0320FEF7D2F826
:1058900007EE900AF8EEE77AC4ED057A0020FEF7ED
:1058A000C9F807EE900AF8EEE77AC4ED067A02200E
:1058B000FEF7C0F807EE900AF8EEE77AC4ED077A33
:1058C0000120FEF7B7F807EE900AF8EEE77AC4ED8C
:1058D000087A0320FEF7BCF851EC100BFBF7ACF98B
:1058E00060620020FEF7B4F851EC100BFBF7A4F94E
:1058F000A0620220FEF7ACF851EC100BFBF79CF90C
:10590000E0620120FEF7A4F851EC100BFBF794F9CC
:105910002063FCF743F884ED0D0AFCF74BF884EDA7
:105920000E0AFCF759F807EE900AF8EE677AC4ED14
:105930000F7AFCF74BF807EE900AF8EE677AC4EDA1
:10594000107AFCF78BF984ED110AFCF74BF807EE9F
:10595000900AF8EE677AC4ED127AFDF769FC84EDDF
:10596000130A024A1388013313806AE7D2530020D6
:10597000D45300202DE9F0415B4804F0F1FC0026EF
:1059800040F6B7339E4200F2AC80584F06EB8604D7
:1059900007EB04142068FAF7FFFD02460B46544D4E
:1059A000284604F0DDFC6068FAF7F6FD02460B4677
:1059B000284604F0D5FCA068FAF7EEFD02460B4637
:1059C000284604F0CDFCE068FAF7E6FD02460B46F7
:1059D000284604F0C5FC2069FAF7DEFD02460B46B6
:1059E000284604F0BDFC6069FAF7D6FD02460B4676
:1059F000284604F0B5FCA069FAF7CEFD02460B4636
:105A0000284604F0ADFCE069FAF7C6FD02460B46F5
:105A1000284604F0A5FC206AFAF7BEFD02460B46B4
:105A2000284604F09DFC606AFAF7B6FD02460B4674
:105A3000284604F095FCA06AFAF7AEFD02460B4634
:105A4000284604F08DFCE06AFAF7A6FD02460B46F4
:105A5000284604F085FC206BFAF79EFD02460B46B3
:105A6000284604F07DFC606BFAF796FD02460B4673
:105A7000284604F075FCA06BFAF78EFD02460B4633
:105A8000284604F06DFCE06BFAF786FD02460B46F3
:105A9000284604F065FC206CFAF77EFD02460B46B2
:105AA000284604F05DFC606CFAF776FD02460B4672
:105AB000284604F055FCA06CFAF76EFD02460B4632
:105AC000284604F04DFCE06CFAF766FD02460B46F2
:105AD000084804F045FC084804F0C8FC0136B6B29A
