:020000040800F2
:1000000000000520698F0008ED2F0008EF2F000881
:10001000F12F0008F32F0008F52F00080000000062
:10002000000000000000000000000000F72F0008A2
:10003000F92F000800000000FB2F0008FD2F00082A
:10004000B98F0008B98F0008B98F0008B98F000870
:10005000B98F0008B98F0008B98F0008B98F000860
:10006000B98F0008B98F0008B98F0008B98F000850
:10007000B98F0008B98F0008053000081530000856
:10008000B98F0008B98F0008B98F0008B98F000830
:10009000B98F0008B98F0008B98F0008B98F000820
:1000A000B98F0008B98F0008B98F0008B98F000810
:1000B000B98F0008B98F0008B98F0008B98F000800
:1000C000B98F0008B98F0008B98F0008B98F0008F0
:1000D000B98F0008B98F0008B98F0008B98F0008E0
:1000E000B98F0008B98F0008B98F0008B98F0008D0
:1000F000B98F0008B98F0008B98F0008B98F0008C0
:10010000B98F0008B98F0008B98F0008B98F0008AF
:10011000B98F0008B98F000825300008B98F000892
:10012000413000085130000861300008B98F0008E4
:10013000B98F0008B98F0008B98F0008B98F00087F
:10014000B98F0008B98F0008B98F0008B98F00086F
:10015000B98F0008B98F0008B98F0008B98F00085F
:10016000B98F0008B98F0008B98F0008B98F00084F
:10017000B98F0008B98F00080000000000000000DF
:10018000B98F0008B98F0008B98F0008B98F00082F
:10019000B98F0008B98F000800000000B98F00086F
:1001A000B98F0008B98F00080000000000000000AF
:1001B000B98F00080000000000000000B98F00089F
:1001C000B98F0008B98F0008B98F0008B98F0008EF
:0801D000B98F0008B98F000887
:1001E00010B5054C237833B9044B13B10448AFF371
:1001F00000800123237010BD0802002000000000D1
:10020000BCE0000808B5034B1BB103490348AFF33A
:10021000008008BD000000000C020020BCE00008C7
:10022000034613F8012B002AFBD1181A0138704736
:1002300001F0FF01102A2BDB10F0070F08D010F897
:10024000013B013A8B422DD010F0070F42B3F6D19B
:10025000F0B441EA012141EA014122F007047FF0B4
:1002600000070023F0E80256083C85EA010586EA0B
:10027000010685FA47F5A3FA87F586FA47F6A5FA47
:1002800087F68EB9EED1F0BC01F0FF0102F0070253
:1002900032B110F8013B013A83EA010313B1F8D1FE
:1002A0000020704701387047002D06BF35460338DF
:1002B000073815F0010F07D1013015F4807F02BF18
:1002C000013015F4C03F0130F0BC0138704700BF69
:1002D00081F0004102E000BF83F0004330B54FEAF7
:1002E00041044FEA430594EA050F08BF90EA020F64
:1002F0001FBF54EA000C55EA020C7FEA645C7FEAF7
:10030000655C00F0E2804FEA5454D4EB5555B8BF19
:100310006D420CDD2C4480EA020281EA030382EA8A
:10032000000083EA010180EA020281EA0303362D1C
:1003300088BF30BD11F0004F4FEA01314FF4801CEF
:100340004CEA113102D0404261EB410113F0004F01
:100350004FEA03334CEA133302D0524263EB4303B8
:1003600094EA050F00F0A780A4F10104D5F1200E56
:100370000DDB02FA0EFC22FA05F2801841F10001B1
:1003800003FA0EF2801843FA05F359410EE0A5F185
:1003900020050EF1200E012A03FA0EFC28BF4CF0B6
:1003A000020C43FA05F3C01851EBE37101F000456C
:1003B00007D54FF0000EDCF1000C7EEB00006EEB79
:1003C0000101B1F5801F1BD3B1F5001F0CD3490803
:1003D0005FEA30004FEA3C0C04F101044FEA44525A
:1003E00012F5800F80F09A80BCF1004F08BF5FEAE1
:1003F000500C50F1000041EB045141EA050130BDC1
:100400005FEA4C0C404141EB0101013C28BFB1F5D2
:10041000801FE9D291F0000F04BF01460020B1FA1D
:1004200081F308BF2033A3F10B03B3F120020CDAF0
:100430000C3208DD02F1140CC2F10C0201FA0CF0CE
:1004400021FA02F10CE002F11402D8BFC2F1200C33
:1004500001FA02F120FA0CFCDCBF41EA0C019040E9
:10046000E41AA2BF01EB0451294330BD6FEA040432
:100470001F3C1CDA0C340EDC04F11404C4F120021D
:1004800020FA04F001FA02F340EA030021FA04F32F
:1004900045EA030130BDC4F10C04C4F1200220FA86
:1004A00002F001FA04F340EA0300294630BD21FAC4
:1004B00004F0294630BD94F0000F83F4801306BF8A
:1004C00081F480110134013D4EE77FEA645C18BF7E
:1004D0007FEA655C29D094EA050F08BF90EA020F15
:1004E00005D054EA000C04BF1946104630BD91EA0D
:1004F000030F1EBF0021002030BD5FEA545C05D110
:100500004000494128BF41F0004130BD14F580044E
:100510003CBF01F5801130BD01F0004545F0FE41C2
:1005200041F470014FF0000030BD7FEA645C1ABFF7
:10053000194610467FEA655C1CBF0B46024650EA2E
:10054000013406BF52EA033591EA030F41F400215A
:1005500030BD00BF90F0000F04BF0021704730B5E0
:100560004FF4806404F132044FF000054FF00001B5
:1005700050E700BF90F0000F04BF0021704730B576
:100580004FF4806404F1320410F0004548BF40424B
:100590004FF000013EE700BF42004FEAE2014FEAA0
:1005A00031014FEA02701FBF12F07F4393F07F4F7B
:1005B00081F06051704732F07F4208BF704793F07E
:1005C0007F4F04BF41F40021704730B54FF4607491
:1005D00001F0004521F000411CE700BF50EA010294
:1005E00008BF704730B54FF000050AE050EA01023D
:1005F00008BF704730B511F0004502D5404261EBAD
:1006000041014FF4806404F132045FEA915C3FF4ED
:10061000D8AE4FF003025FEADC0C18BF03325FEA8A
:10062000DC0C18BF033202EBDC02C2F1200300FA3B
:1006300003FC20FA02F001FA03FE40EA0E0021FA60
:1006400002F11444BDE600BF70B54FF0FF0C4CF44E
:10065000E06C1CEA11541DBF1CEA135594EA0C0F00
:1006600095EA0C0F00F0DEF82C4481EA030621EA3B
:100670004C5123EA4C5350EA013518BF52EA033576
:1006800041F4801143F4801338D0A0FB02CE4FF028
:100690000005E1FB02E506F00042E0FB03E54FF058
:1006A0000006E1FB03569CF0000F18BF4EF0010E50
:1006B000A4F1FF04B6F5007F64F5407404D25FEA4C
:1006C0004E0E6D4146EB060642EAC62141EA5551FF
:1006D0004FEAC52040EA5E504FEACE2EB4F1FD0C41
:1006E00088BFBCF5E06F1ED8BEF1004F08BF5FEABF
:1006F000500E50F1000041EB045170BD06F0004671
:1007000046EA010140EA020081EA0301B4EB5C041D
:10071000C2BFD4EB0C0541EA045170BD41F4801115
:100720004FF0000E013C00F3AB8014F1360FDEBF3A
:10073000002001F0004170BDC4F10004203C35DA16
:100740000C341BDC04F11404C4F1200500FA05F399
:1007500020FA04F001FA05F240EA020001F000423A
:1007600021F0004110EBD37021FA04F642EB0601B0
:100770005EEA430E08BF20EAD37070BDC4F10C04DA
:10078000C4F1200500FA04F320FA05F001FA04F29E
:1007900040EA020001F0004110EBD37041F100018A
:1007A0005EEA430E08BF20EAD37070BDC4F1200595
:1007B00000FA05F24EEA020E20FA04F301FA05F2FD
:1007C00043EA020321FA04F001F0004121FA04F2A5
:1007D00020EA020000EBD3705EEA430E08BF20EA75
:1007E000D37070BD94F0000F0FD101F000464000AF
:1007F00041EB010111F4801F08BF013CF7D041EA31
:10080000060195F0000F18BF704703F00046520034
:1008100043EB030313F4801F08BF013DF7D043EA05
:100820000603704794EA0C0F0CEA135518BF95EABB
:100830000C0F0CD050EA410618BF52EA4306D1D142
:1008400081EA030101F000414FF0000070BD50EA61
:10085000410606BF1046194652EA430619D094EAEB
:100860000C0F02D150EA013613D195EA0C0F05D1D5
:1008700052EA03361CBF104619460AD181EA030129
:1008800001F0004141F0FE4141F470014FF00000E1
:1008900070BD41F0FE4141F4780170BD70B54FF07C
:1008A000FF0C4CF4E06C1CEA11541DBF1CEA1355FC
:1008B00094EA0C0F95EA0C0F00F0A7F8A4EB0504DE
:1008C00081EA030E52EA03354FEA013100F08880D5
:1008D0004FEA03334FF0805545EA131343EA12639E
:1008E0004FEA022245EA111545EA10654FEA002653
:1008F0000EF000419D4208BF964244F1FD0404F50C
:10090000407402D25B084FEA3202B61A65EB030567
:100910005B084FEA32024FF480104FF4002CB6EB24
:10092000020E75EB030E22BFB61A754640EA0C00A4
:100930005B084FEA3202B6EB020E75EB030E22BFE4
:10094000B61A754640EA5C005B084FEA3202B6EB25
:10095000020E75EB030E22BFB61A754640EA9C00E4
:100960005B084FEA3202B6EB020E75EB030E22BFB4
:10097000B61A754640EADC0055EA060E18D04FEA72
:10098000051545EA16754FEA06164FEAC30343EA12
:1009900052734FEAC2025FEA1C1CC0D111F4801FDF
:1009A0000BD141EA00014FF000004FF0004CB6E7D8
:1009B00011F4801F04BF01430020B4F1FD0C88BF77
:1009C000BCF5E06F3FF6AFAEB5EB030C04BFB6EB82
:1009D000020C5FEA500C50F1000041EB045170BD75
:1009E0000EF0004E4EEA113114EB5C04C2BFD4EBA2
:1009F0000C0541EA045170BD41F480114FF0000E26
:100A0000013C90E645EA060E8DE60CEA135594EAA1
:100A10000C0F08BF95EA0C0F3FF43BAF94EA0C0FA4
:100A20000AD150EA01347FF434AF95EA0C0F7FF419
:100A300025AF104619462CE795EA0C0F06D152EA6D
:100A400003353FF4FDAE1046194622E750EA410651
:100A500018BF52EA43067FF4C5AE50EA41047FF462
:100A60000DAF52EA43057FF4EBAE12E74FF0FF3CC7
:100A700006E000BF4FF0010C02E000BF4FF0010C98
:100A80004DF804CD4FEA410C7FEA6C5C4FEA430C11
:100A900018BF7FEA6C5C1BD001B050EA410C0CBF60
:100AA00052EA430C91EA030F02BF90EA020F0020C2
:100AB000704710F1000F91EA030F58BF994208BF29
:100AC00090422CBFD8176FEAE37040F001007047E6
:100AD0004FEA410C7FEA6C5C02D150EA013C07D13D
:100AE0004FEA430C7FEA6C5CD6D152EA033CD3D088
:100AF0005DF8040B704700BF8446104662468C4682
:100B00001946634600E000BF01B5FFF7B7FF0028B4
:100B100048BF10F1000F01BD4DF808EDFFF7F4FFDD
:100B20000CBF012000205DF808FB00BF4DF808ED68
:100B3000FFF7EAFF34BF012000205DF808FB00BF8B
:100B40004DF808EDFFF7E0FF94BF012000205DF8AD
:100B500008FB00BF4DF808EDFFF7CEFF94BF012062
:100B600000205DF808FB00BF4DF808EDFFF7C4FF5B
:100B700034BF012000205DF808FB00BF4FEA410CA4
:100B80007FEA6C5C02D150EA013C0AD14FEA430C87
:100B90007FEA6C5C02D152EA033C02D14FF00000C4
:100BA00070474FF0010070474FEA410212F5001202
:100BB00015D211D56FF47873B3EB625212D94FEAA4
:100BC000C12343F0004343EA505311F0004F23FA8E
:100BD00002F018BF404270474FF00000704750EAE3
:100BE000013005D111F0004008BF6FF000407047A0
:100BF0004FF00000704700BF4A0011D212F50012FA
:100C000011D20DD56FF47873B3EB62520ED44FEA64
:100C1000C12343F0004343EA505323FA02F07047E4
:100C20004FF00000704750EA013002D14FF0FF3022
:100C300070474FF0000070474FEA4102B2F1E043C5
:100C400024BFB3F5001CDCF1FE5C0DD901F0004CB3
:100C50004FEAC0024CEA5070B2F1004F40EB830003
:100C600008BF20F00100704711F0804F21D113F12F
:100C70003872BCBF01F00040704741F480114FEA68
:100C80005252C2F11802C2F1200C10FA0CF320FAF1
:100C900002F018BF40F001004FEAC1234FEAD3230E
:100CA00003FA0CFC40EA0C0023FA02F34FEA430378
:100CB000CCE77FEA625307D150EA01331EBF4FF001
:100CC000FE4040F44000704701F0004040F0FE401C
:100CD00040F40000704700BF80F0004002E000BF19
:100CE00081F0004142001FBF5FEA410392EA030F17
:100CF0007FEA226C7FEA236C6AD04FEA1262D2EB61
:100D00001363C1BFD218414048404140B8BF5B4265
:100D1000192B88BF704710F0004F40F4000020F0FE
:100D20007F4018BF404211F0004F41F4000121F014
:100D30007F4118BF494292EA030F3FD0A2F101025E
:100D400041FA03FC10EB0C00C3F1200301FA03F19C
:100D500000F0004302D5494260EB4000B0F5000FBF
:100D600013D3B0F1807F06D340084FEA310102F17E
:100D70000102FE2A51D2B1F1004F40EBC25008BF30
:100D800020F0010040EA03007047490040EB0000FA
:100D9000013A28BFB0F5000FEDD2B0FA80FCACF1FB
:100DA000080CB2EB0C0200FA0CF0AABF00EBC25028
:100DB00052421843BCBFD0401843704792F0000F16
:100DC00081F4000106BF80F400000132013BB5E769
:100DD0004FEA41037FEA226C18BF7FEA236C21D0DF
:100DE00092EA030F04D092F0000F08BF0846704744
:100DF00090EA010F1CBF0020704712F07F4F04D112
:100E0000400028BF40F00040704712F100723CBF24
:100E100000F50000704700F0004343F0FE4040F44E
:100E2000000070477FEA226216BF08467FEA23630C
:100E30000146420206BF5FEA412390EA010F40F4F7
:100E4000800070474FF0000304E000BF10F0004343
:100E500048BF40425FEA000C08BF704743F096432A
:100E600001464FF000001CE050EA010208BF704745
:100E70004FF000030AE000BF50EA010208BF7047CC
:100E800011F0004302D5404261EB41015FEA010CE1
:100E900002BF84460146002043F0B64308BFA3F1D9
:100EA0008053A3F50003BCFA8CF2083AA3EBC253BB
:100EB00010DB01FA02FC634400FA02FCC2F12002DA
:100EC000BCF1004F20FA02F243EB020008BF20F011
:100ED0000100704702F1200201FA02FCC2F1200277
:100EE00050EA4C0021FA02F243EB020008BF20EA6C
:100EF000DC70704753B94AB9002908BF00281CBFED
:100F00004FF0FF314FF0FF3000F0A4B9ADF1080C05
:100F10006DE904CE00F03CF8DDF804E0DDE90223E1
:100F200004B0704738B50022002304460D46FFF791
:100F3000FDFD28B920462946BDE8384000F00AB832
:100F4000204605F1004100F005F8404261EB410107
:100F500038BD00BFD0B50C4B002206460F46FFF748
:100F600073FBFFF749FE0446FFF7F4FA074B002234
:100F7000FFF76AFB02460B4630463946FFF7ACF9ED
:100F8000FFF73AFE2146D0BD0000F03D0000F041E1
:100F90002DE9F047089D04468C46002B40F08380E5
:100FA0008A42174647D9B2FA82F242B1C2F1200012
:100FB00024FA00F09140974040EA010C94404FEA37
:100FC0001748230CBCFBF8F61FFA87FE08FB16C176
:100FD00043EA014306FB0EF1994209D9FB1806F1D9
:100FE000FF3080F01981994240F21681023E3B4465
:100FF0005B1AA4B2B3FBF8F008FB103344EA0344D5
:1010000000FB0EFEA64509D93C1900F1FF3380F024
:101010000581A64540F2028102383C4440EA064080
:10102000A4EB0E0400261DB1D4400023C5E9004303
:101030003146BDE8F08702B9FFDEB2FA82F2002A3B
:1010400050D1CB1B4FEA174E1FFA87F80126B3FB8E
:10105000FEFC210C0EFB1C3341EA034108FB0CF3A0
:101060008B4207D979180CF1FF3002D28B4200F283
:10107000E9808446C91AA3B2B1FBFEF00EFB101141
:1010800043EA014408FB00F8A04507D93C1900F1E8
:10109000FF3302D2A04500F2D9801846A4EB080421
:1010A00040EA0C40BFE78B4209D9002D00F0B18027
:1010B0000026C5E9000130463146BDE8F087B3FAA5
:1010C00083F6002E4AD18B4202D3824200F2B880CE
:1010D000841A61EB030101208C46002DA8D0C5E9DC
:1010E000004CA5E7C2F1200320FA03F6974001FA6D
:1010F00002F04FEA174ED9403043030CB1FBFEF625
:101100001FFA87F80EFB161143EA014306FB08F1AC
:10111000994204FA02F409D9FB1806F1FF3C80F069
:101120008D80994240F28A80023E3B445B1A81B234
:10113000B3FBFEF00EFB103341EA034100FB08F362
:101140008B4207D9791800F1FF3C73D28B4271D9D9
:1011500002383944CB1A40EA064678E7C6F1200C3B
:1011600003FA06F422FA0CF31C4320FA0CF701FAF6
:1011700006F34FEA144E21FA0CF11F433B0CB1FB6E
:10118000FEF91FFA84F80EFB191143EA014109FB2D
:1011900008FA8A4502FA06F200FA06F308D961183D
:1011A00009F1FF3048D28A4546D9A9F10209214404
:1011B000A1EB0A01BFB2B1FBFEF00EFB101147EA32
:1011C000014700FB08F8B84507D9E71900F1FF31DE
:1011D0002ED2B8452CD90238274440EA0940A7EB63
:1011E0000807A0FB02894F45C64649461AD317D0C7
:1011F0005DB1B3EB0E0267EB010707FA0CFCF2409E
:101200004CEA0202F740C5E9002700263146BDE856
:10121000F0872E4628460BE70646E9E61846FDE627
:101220004345E5D2B8EB020E69EB04010138DFE774
:101230000846D2E760468DE78146B9E7664675E71E
:1012400030464AE7ACF1020C394413E702383C441B
:1012500024E700BF704700BF30B595B034220021AD
:1012600007A808F0B0F800240294039404940594AD
:1012700006940094194B1A6C42F080521A641B6C4D
:1012800003F080530093009B0194154B1A6842F4BD
:1012900040421A601B6803F440430193019B0225FE
:1012A000079501230A9310230B930D950E940F932A
:1012B000C023109311951295139507A807F086F88F
:1012C0000F230293039504944FF4805305930694DF
:1012D000032102A806F0A6FF15B030BD0038024079
:1012E0000070004030B585B007F0FEFDFFF7B4FF99
:1012F00001F044F901F07AFA01F022FE01F0ACFDB0
:1013000001F0B8FA01F09AF901F0E2FB01F012FCE9
:1013100001F044FC01F048FB04F0E0FC01F0FCFEAD
:1013200002F070F801F04AFF02F0AEF980E004F03C
:101330008BFA04F043F802F07DFA002004F048FD37
:10134000002004F0E1FC002470E004F0C5F9002066
:1013500000F0E6FF012004F007FE9FED4A0A04F0CA
:101360002DFE41F2883007F0EBFDE2E7002000F0AF
:10137000D7FF002004F0F2FD012004F0F5FD9FED01
:10138000420A04F025FE42F2107007F0D9FDD0E7C2
:1013900000F03AFDCDE741F2883007F0D1FDC8E713
:1013A000002000F0BDFF012004F0DEFD00F0B4FEDF
:1013B000BFE7022000F0B4FF012004F0D5FD9FED4F
:1013C000310A04F0FBFD41F2883007F0B9FDB0E7C7
:1013D00004F022FBADE72D4D2D4C2B462246052176
:1013E000084602F037FB0023029309230193294B9F
:1013F000009305231A462946204603F0BDFE98E7D0
:10140000254D01224FF46451284607F089FA4FF424
:101410002F7007F095FD00224FF46451284607F025
:101420007FFA4FF4967007F08BFD0134022CE7DD54
:1014300004F016F903F0C8FF0F283FF67AAF01A3B6
:1014400053F820F02F1300084B1300086D13000809
:101450009113000897130008A1130008B3130008A4
:10146000D1130008331300083313000833130008A6
:101470003313000833130008331300083313000834
:10148000D7130008AE47213FD053FB412402002070
:1014900024060020000000200000024070470000E9
:1014A00008B501F071FE034A1388C31A108018B200
:1014B00008BD00BF1400002008B501F06BFE034A10
:1014C0001388C31A108018B208BD00BF1200002094
:1014D00008B52DED028BFFF7E3FF07EE900AF8EE5B
:1014E000E77A9FED2B7A67EE877ADFED2A8A87EE1F
:1014F000A88AFFF7E1FF07EE900AF8EEE77A9FED82
:10150000267A67EE877A87EEA87ADFED246A68EE9E
:10151000267A234BC3ED007A27EE267A214B83ED02
:10152000007A214BD3ED006AF4EEE67AF1EE10FA80
:1015300017DDC3ED007A1D4BD3ED006AB4EEE67AF9
:10154000F1EE10FA18DD83ED007A77EE877AB6EEC9
:10155000007A67EE877A164BC3ED007ABDEC028BFA
:1015600008BD144BD3ED006AF4EEE67AF1EE10FA02
:10157000E1D5C3ED007ADEE70F4BD3ED006AB4EEA0
:10158000E67AF1EE10FAE0D583ED007ADDE700BFF0
:101590007B59C4C500C07F447B59C4452F50D23B02
:1015A0009C0A0020900A0020A00A0020940A002033
:1015B000800A0020A40A0020980A0020014B93ED25
:1015C000000A70479C0A0020014B93ED000A704707
:1015D000A00A0020014B93ED000A7047A40A0020E6
:1015E000014B93ED000A7047940A00200023044A3F
:1015F0001360044A1360044A1360044A136070477E
:10160000A40A0020A00A0020980A0020940A0020C2
:10161000014B93ED000A7047800A00200000000093
:1016200038B52DED028B3A4B1A883A4BA3FB0213C7
:10163000DB0803EB8303A2EB43039CB2FFF7E8FF55
:10164000354A02EBC40484ED000A01F05BFF84ED2F
:10165000010ADFED327AB0EE677A0023092B0DD84C
:101660002D4A02EBC302D2ED006A37EE267AD2EDA4
:10167000016A77EEA67A01339BB2EFE7F2EE046AD5
:10168000C7EE268A87EEA68AB5EEC08AF1EE10FA7A
:1016900030D4F6EE007AB4EEE78AF1EE10FA4CBFE1
:1016A000012300230BB19FED1D8A18EE100AFEF7EF
:1016B00073FF15A3D3E90023FEF7C6FF0022184BE2
:1016C000FEF7C2FF04460D4618EE900AFEF764FFCF
:1016D00022462B46FEF702FEFFF7AEFA114B1860CA
:1016E000114B83ED008A0A4A138801331380BDEC45
:1016F000028B38BDFEEE007AB4EEE78AF1EE10FA06
:10170000CCBF01230023CDE77B14AE47E17A843FB1
:10171000240A0020CDCCCCCC280A002000000000F8
:101720000000E03F840A0020780A0020014B93ED7E
:10173000000A7047840A0020014B93ED000A7047AD
:10174000780A00200000000070B5FFF7EFFF10EEF0
:10175000100AFEF721FF0BA3D3E90023FEF774FF65
:1017600004460D46064E3068FEF716FF22462B460D
:10177000FEF7B4FDFFF760FA306070BDAFF3008094
:101780007C0A0020FCA9F1D24D62503F014B93ED41
:10179000000A70477C0A0020014B83ED000A704765
:1017A0007C0A002008B501F0C9FE024B83ED000A57
:1017B00008BD00BF8C0A0020014B93ED000A704762
:1017C0008C0A00200000000070B50D4B1868FEF771
:1017D000E3FE09A3D3E90023FEF736FF04460D46D6
:1017E000084E3068FEF7D8FE22462B46FEF776FDFF
:1017F000FFF722FA306070BDFCA9F1D24D62503F74
:101800008C0A0020880A002008B5FFF7CBFFFFF7FD
:101810009BFFFFF7D9FF08BD014B93ED000A70470E
:10182000880A0020014B83ED000A7047880A0020D7
:10183000014B93ED000A7047B40A0020014B93ED71
:10184000000A7047B00A002070B52DED048B04F03B
:1018500091FBF0EE408AFFF769FF78EEC08A04F052
:101860008FFBB0EE408AFFF7A7FF38EE408A18EEF4
:10187000900AFEF791FE28A3D3E90023FEF7E4FEC9
:1018800004460D461E4E3068FEF786FE22462B4665
:10189000FEF724FDFFF7D0F909EE100A306018EECC
:1018A000100AFEF779FE14A3D3E90023FEF7CCFE5D
:1018B00004460D46134E3068FEF76EFE22462B4658
:1018C000FEF70CFDFFF7B8F907EE900A30609FEDC8
:1018D0000E0A68EE808A79EE288A9FED0C0A28EEBF
:1018E000008A37EE888A0A4BC3ED008A094B83EDE4
:1018F000008ABDEC048B70BDFCA9F1D23DC9823FCA
:10190000A80A0020AC0A0020D1222B40AD2FB23E05
:10191000B40A0020B00A00208B6CE7FBB935A43F65
:101920000023024A1360024A13607047A80A00208D
:10193000AC0A002008B5002200230E49D1E90001BD
:10194000FFF7EAF838B1002200230B49D1E9000182
:10195000FFF7E2F800B908BD012001F0D1FF054B07
:1019600083ED000B022001F0CBFF034B83ED000B56
:10197000F1E700BF080B0020100B0020014B187886
:10198000704700BF1600002010B5012001F0ACFF29
:101990000446022001F0A8FF1B4BB3F90020A21A55
:1019A000002AB8BF524212B2184BB3F90030C31A22
:1019B000002BB8BF5B421BB2022A0DDD4FF4C87288
:1019C000022B0BDD4FF4C873A24209DD834207DD11
:1019D0000F4B02221A7008E06422F1E76423F3E758
:1019E000A24207DD0A4B01221A70074B1C80074BED
:1019F000188010BD834203DD054B00221A70F4E706
:101A0000034B03221A70F0E7F00A0020F20A0020CC
:101A10001600002000000000F8B52D4B1B78012BAC
:101A200005D0022B2AD0B3B19FED270BF8BD294B6F
:101A3000D3E90045012001F063FF53EC102B204651
:101A40002946FEF749FC00224FF04043FEF7FCFD1B
:101A500041EC100BEAE7204BD3E90045022001F0EE
:101A60004FFF53EC102B20462946FEF735FC02466B
:101A70000B46FEF733FC41EC100BD7E7164BD3E9CE
:101A80000045022001F03CFF53EC102B2046294674
:101A9000FEF722FC04460D460E4BD3E900670120F9
:101AA00001F02EFF53EC102B30463946FEF714FCA4
:101AB00002460B4620462946FEF70EFC41EC100B71
:101AC000B4E700BFAFF3008000000000000000009A
:101AD00016000020080B0020100B00200000000062
:101AE0002DE9F84FFFF798FF55EC104B1BA3D3E9F6
:101AF000002310EE100A2946FEF7A6FD804689460F
:101B0000DFF870B0DBE9002320462946FEF7E4FB4E
:101B100014A3D3E90023FEF797FDDFF85CA0DAE910
:101B20000023FEF7DBFB11A3D3E90023FEF7B6FE8B
:101B300006460F4602460B4640464946FEF7CEFB98
:101B4000FFF77AF8044B1860CBE90045CAE9006753
:101B5000BDE8F88FAFF300801C0B00203F231F501F
:101B6000472B853FAF4BD32CFCC85C40AE2BEE52CD
:101B700091B4F43F000B0020F80A0020014B93EDD4
:101B8000000A70471C0B00202DE9F04F2DED088B4B
:101B900087B0002001F0B4FE57EC106B032001F079
:101BA000AFFE55EC104B74A3D3E900233046394601
:101BB000FEF792FB06460F4671A3D3E900232046A9
:101BC0002946FEF789FB04460D4602460B46304681
:101BD0003946FEF783FB8046894632463B4620461F
:101BE0002946FEF779FB68A3D3E90023FEF756FEEA
:101BF00006460F4666A3D3E9002340464946FEF752
:101C000023FD594CD4E90023FEF768FB41EC1B0B84
:101C1000C4E9000146A3D3E9002330463946FEF764
:101C200013FD524CD4E90023FEF758FB41EC1A0B8C
:101C3000C4E9000140A3D3E9002340464946FEF72A
:101C400003FD04460D463EA3D3E900233046394642
:101C5000FEF7FAFCCDE90201DFF83CB1DBE9002335
:101C6000CDE9008940464946FEF736FB36A3D3E965
:101C70000023FEF7E9FCDFF82491D9E90023FEF701
:101C80002DFB33A3D3E90023FEF708FE41EC190B2B
:101C9000DFF80CA1DAE9002330463946FEF71CFBD9
:101CA0002DA3D3E90023FEF7CFFCDFF8F880D8E9B5
:101CB0000023FEF713FB2AA3D3E90023FEF7EEFD72
:101CC00041EC180B22462B4651EC1B0BFEF706FB92
:101CD00053EC192BFEF702FBCDE90401DDE90223E9
:101CE00051EC1A0BFEF7FAFA53EC182BFEF7F6FA42
:101CF00004460D46DDE90401FEF79EFF1C4B18600B
:101D000020462946FEF798FF1A4B18609DED007B90
:101D10008BED007BCAE9006789ED009B88ED008BA5
:101D200007B0BDEC088BBDE8F08F00BFAFF30080BB
:101D300060E5D0229BA5643F00000000631A5F406D
:101D4000000000E08A9E194000000060A2AB5340F2
:101D5000C1CAA1852062F03F00000000236C224030
:101D60007368916D81B6F03FC80A0020E00A002038
:101D7000200B0020180B002000000060BC74833F83
:101D8000000000E04F8D873F000000E0BED5A23F7D
:101D900008AC1C5AD4DF9A3FD00A0020C00A0020A9
:101DA000E80A0020D80A0020014B93ED000A704792
:101DB000200B0020014B93ED000A7047180B002008
:101DC000002200230949C1E900230949C1E9002390
:101DD0000849C1E900230849C1E900230749C1E9CD
:101DE00000230749C1E90023704700BFC80A00204B
:101DF000E00A0020D00A0020E80A0020C00A0020E3
:101E0000D80A002000000000F8B5012000F088FA90
:101E1000454B00221A8022E0032001F071FD53ECB3
:101E2000102B3BA1D1E90001FEF756FA064601F15D
:101E3000004730E0002001F063FD53EC102B36A189
:101E4000D1E90001FEF748FA044601F100453EE001
:101E5000354B00221A80344B1B88632B4AD8032051
:101E600001F04EFD53EC102B29A1D1E90001FEF742
:101E700033FA00220023FEF759FE0028CCD10320BC
:101E800001F03EFD53EC102B21A1D1E90001FEF73A
:101E900023FA06460F46002001F032FD53EC102BCA
:101EA0001DA1D1E90001FEF717FA00220023FEF779
:101EB0003DFE0028BED1002001F022FD53EC102B86
:101EC00015A1D1E90001FEF707FA04460D462246A6
:101ED0002B4630463946FEF747FE08B134463D46AC
:101EE0000FA3D3E9002320462946FEF73DFE002834
:101EF000B1D0ADE704F050F8FFF74EFC04F058F80D
:101F0000FFF790FC002000F00BFAF8BDAFF3008063
:101F1000000000E04F8D873F00000060BC74833FED
:101F2000613255302AA9333FB80A0020054A138888
:101F300001339BB21380642B02D9134664221A80AA
:101F4000704700BFB80A002008B5FFF7F3FCFFF7A1
:101F50001BFDFFF7C5FDFFF717FEFFF7E7FF08BD05
:101F600008B52DED028B04F011F8B0EE408A04F0B4
:101F700013F838EE408AB5EEC08AF1EE10FA13D4A9
:101F800004F004F8B0EE408A04F006F838EE408A17
:101F9000DFED0E7AB4EEE78AF1EE10FA4CBF0120C5
:101FA0000020BDEC028B08BD03F0F0FFB0EE408ACC
:101FB00003F0F2FF38EE408ADFED057AB4EEE78AEF
:101FC000F1EE10FACCBF01200020EAE717B7513933
:101FD00017B751B908B52DED028B03F0E3FFB0EE52
:101FE000408A03F0E5FF38EE408AB5EEC08AF1EE94
:101FF00010FA13D403F0D6FFB0EE408A03F0D8FFF6
:1020000038EE408ADFED0E7AB4EEE78AF1EE10FA90
:102010004CBF01200020BDEC028B08BD03F0C2FFC5
:10202000B0EE408A03F0C4FF38EE408ADFED057A57
:10203000B4EEE78AF1EE10FACCBF01200020EAE707
:102040000AD7A33B0AD7A3BB08B5002003F080FF43
:10205000002003F089FF9FED040A03F0AFFFFFF7B4
:102060007FFF0028FBD008BD22727A3C08B5002013
:1020700003F06EFF002003F077FF9FED040A03F0EA
:102080009DFFFFF76DFF0028FBD008BDEC51383DE8
:1020900008B5002003F05CFF012003F065FF9FED11
:1020A000040A03F08BFFFFF75BFF0028FBD008BD9D
:1020B000EC51383D08B5002003F04AFF002003F042
:1020C00053FF9FED040A03F079FFFFF749FF002853
:1020D000FBD008BDEC51B83D08B5012003F03EFF30
:1020E0009FED040A03F074FFFFF774FF0028FBD094
:1020F00008BD00BFDA0FC9BF08B5002003F02EFFEE
:102100009FED040A03F064FFFFF764FF0028FBD093
:1021100008BD00BFDA0FC93F08B5002003F01EFF5D
:102120009FED040A03F054FFFFF754FF0028FBD093
:1021300008BD00BFDA0F4940014B00221A707047FA
:10214000270B00200023034A1370034A1370034A2D
:1021500013707047240B0020260B0020250B002055
:10216000014B01221A707047240B0020014B012201
:102170001A707047260B0020014B01221A7070471D
:10218000250B002008B5094B1B784BB1074B1B787A
:10219000012B08D0054B01221A70FFF7D3FF08BDB1
:1021A000FFF764FFF2E7FFF785FFF3E7270B002057
:1021B00008B5134B1B783BB9124B1B78012B0DD084
:1021C000FFF78AFFFFF752FF0D4B1B78012B08D05A
:1021D0000B4B01221A70FFF7B5FF08BDFFF714FE85
:1021E000EEE7FFF755FF074B1B78012B04D0FFF7F5
:1021F00073FFFFF73BFFEBE7FFF706FEF7E700BFD4
:10220000270B0020240B002008B5134B1B783BB98B
:10221000124B1B78012B0DD0FFF76EFFFFF726FF47
:102220000D4B1B78012B08D00B4B01221A70FFF7C6
:1022300089FF08BDFFF7E8FDEEE7FFF729FF074B31
:102240001B78012B04D0FFF757FFFFF70FFFEBE7D9
:10225000FFF7DAFDF7E700BF270B0020240B002073
:1022600008B52B4B1B783BB92A4B1B78012B0DD0A3
:10227000FFF752FFFFF7FAFE254B1B78012B20D00A
:10228000234B01221A70FFF75DFF08BDFFF7BCFD6D
:10229000214B1B78012B06D0204B1B78012B09D03A
:1022A000FFF73AFFE6E7FFF717FFFFF7ADFDFFF790
:1022B00013FFDFE7FFF720FFFFF7A6FDFFF71CFF87
:1022C000D8E7FFF7E5FE134B1B78012B04D0FFF78F
:1022D00023FFFFF7CBFED3E7FFF796FD0E4B1B78EE
:1022E000012B06D00D4B1B78012B09D0FFF714FFF3
:1022F000EFE7FFF7F1FEFFF787FDFFF7EDFEE8E7F9
:10230000FFF7FAFEFFF780FDFFF7F6FEE1E700BFFB
:10231000270B0020240B0020260B0020250B00207B
:10232000014B1870704700BF280B002008B5FFF75D
:102330007FFA044B83ED000AFFF780FA024B83ED2E
:10234000000A08BD3C0B0020300B002008B5FFF749
:102350002BFD044B83ED000AFFF72CFD024B83EDB0
:10236000000A08BD3C0B0020300B002008B5FFF729
:1023700005FB03280DD8DFE800F0020D1823FFF756
:1023800057FA154B83ED000AFFF7F8FB134B83ED6B
:10239000000A08BDFFF74CFA0F4B83ED000AFFF768
:1023A000EDFB0E4B83ED000AF3E7FFF741FA0A4B12
:1023B00083ED000AFFF7E2FB084B83ED000AE8E734
:1023C000FFF736FA044B83ED000AFFF737FA034BA9
:1023D00083ED000ADDE700BF3C0B0020300B00203E
:1023E0000023024A1360024A13607047380B002032
:1023F000340B002008B5094B1B78012B08D0022BA9
:1024000009D013B1FFF7ECFF01E0FFF78FFF08BD24
:10241000FFF79CFFFBE7FFF7A9FFF8E7280B002079
:1024200008B5084B1B78012B06D0022B07D003B14F
:1024300008BDFFF7C5FCFBE7FFF772FAF8E7FFF707
:10244000BFFCF5E7280B00200B4BD3ED007A0B4BBC
:1024500093ED006A37EE867AF6EE006A27EE267A6A
:10246000074B83ED007A77EEC67A67EEA67A054BC6
:10247000C3ED007A704700BF3C0B0020300B0020FA
:10248000380B0020340B002008B52DED028B114BCA
:1024900093ED008A00F02EFEC8EE007A9FED0E8AC2
:1024A00067EE887AFDEEE77A0C4B17EE902A1A80D9
:1024B0000B4BD3ED008A00F01DFEC8EE807A67EE6C
:1024C000887AFDEEE77A074B17EE902A1A80BDEC6A
:1024D000028B08BD380B002000007A442C0B002032
:1024E000340B00202A0B00200C4BB3F90030002BDA
:1024F0000BDD2833094A1380094BB3F90030002B58
:1025000007DD2833064A138070472D3B034A1380AA
:10251000F2E72D3B024A1380704700BF2C0B0020CE
:102520002A0B002008B5054BB3F9000003F0ECFBC3
:10253000034BB3F9000003F04BFC08BD2A0B00204D
:102540002C0B002008B5FFF755FFFFF769FFFFF7D9
:102550007BFFFFF799FFFFF7C7FFFFF7E3FFFFF7E9
:102560005FFF08BD014BB3F9000070472C0B002042
:10257000014BB3F9000070472A0B00202DE9F0430E
:1025800089B000240394049405940694079401945C
:10259000274B1A6B42F001021A631A6B02F0010218
:1025A0000192019A02941A6B42F002021A631B6BA9
:1025B00003F002030293029B1E4D224643F6F011E4
:1025C000284606F0ADF9DFF8708022464FF48051BE
:1025D000404606F0A5F9F0230393012704970594DC
:1025E0000326069603A9284606F0BAF84FF002091A
:1025F000CDF80C900494059403A9404606F0B0F879
:102600004FF48053039304970594069603A940461C
:1026100006F0A6F84FF4645303930497CDF8149092
:10262000069603A9284606F09BF809B0BDE8F0839A
:1026300000380240000002400004024000B585B0AE
:10264000002300930193029303933048304A0260C1
:102650004FF480324260836001220261037680F889
:1026600020304FF04051C1624FF000718162C36071
:102670000521C16180F83020436103F019FF002873
:1026800031D1082300930123019303230293694668
:102690001E4804F025F848BB002300930223019351
:1026A00069461A4804F01CF818BB01230093032361
:1026B00001936946154804F013F8E8B90223009322
:1026C000042301936946114804F00AF8B8B90323BA
:1026D00000930523019369460C4804F001F888B97A
:1026E00005B05DF804FBFEF7D9FECAE7FEF7D6FE9B
:1026F000D2E7FEF7D3FED8E7FEF7D0FEDEE7FEF71F
:10270000CDFEE4E7FEF7CAFEEAE700BF8CDA01205F
:102710000020014070B588B0002303930493059313
:1027200006930793026803F1804303F590339A42BE
:1027300001D008B070BD04460025009503F58C3328
:102740005A6C42F480725A645A6C02F4807200929D
:10275000009A01951A6B42F001021A631A6B02F09B
:1027600001020192019A02951A6B42F002021A6369
:102770001B6B03F002030293029B0F2303930326B8
:102780000496059503A9154805F0EAFF0123039374
:102790000496059503A9124805F0E2FF1148124B73
:1027A000036045608560C5604FF4806303614FF44A
:1027B000006343614FF4005383614FF48073C3613E
:1027C0004FF440330362456206F030F918B9054B07
:1027D000A3639C63ADE7FEF761FEF8E700000240EB
:1027E00000040240D4DA01201064024010B582B027
:1027F000002400941E4B1A6B42F400121A631A6BE9
:1028000002F400120092009A01941A6B42F48002C2
:102810001A631B6B03F480030193019B224621463C
:102820000E2006F0E3FA0E2006F014FB22462146A5
:102830000F2006F0DBFA0F2006F00CFB22462146A3
:10284000382006F0D3FA382006F004FB2246012196
:10285000392006F0CBFA392006F0FCFA2246012195
:102860003A2006F0C3FA3A2006F0F4FA02B010BD9E
:102870000038024008B50F480F4B03604FF48273D5
:10288000436000238360C36002220261012242612F
:102890004FF4007282612022C2610362436283624C
:1028A0000A23C36204F0B2F800B908BDFEF7F6FDD2
:1028B000FBE700BF34DB01200038004030B589B0B1
:1028C0000023039304930593069307930268304B08
:1028D0009A4201D009B030BD04460025019503F5A8
:1028E00000331A6C42F480421A641A6C02F480427B
:1028F0000192019A02951A6B42F002021A631B6B55
:1029000003F002030293029B4FF4604303930223FC
:1029100004930595032306930523079303A91D48F4
:1029200005F01EFF1C481D4B036045608560C560B7
:102930004FF48063036145618561C5614FF40033E5
:102940000362456206F072F8D8B9134BE3649C63E6
:102950001348144B03600023436040228260C3602D
:102960004FF48062026143618361C3614FF40032BE
:102970000262436206F05AF830B9094BA3649C63C3
:10298000A8E7FEF78BFDE0E7FEF788FDF5E700BF5F
:1029900000380040000402408CDB012058600240F7
:1029A000ECDB01207060024010B596B00024129458
:1029B0001394149415941094119409940A940B94FC
:1029C0000C940D940E940F942022214601A806F039
:1029D000FAFC3D483D4B0360446084604FF6FF13B2
:1029E000C36004614461846104F00CFE002850D18E
:1029F0004FF48053129312A9334804F080FF00284B
:102A00004AD1314804F032FE002848D12E4804F063
:102A100013FE002846D100231093119310A92A48D1
:102A200005F082F8002840D16023099301230A931E
:102A300000220B920C920D920E920F9209A922483D
:102A400004F0E3FE002833D141F658330A93042200
:102A500009A91D4804F0D9FE68BB302309934FF43F
:102A6000B4530A93082209A9174804F09FFE28BB13
:102A70000023019302930393049305934FF40052B0
:102A80000692089301A9104805F071F8C8B916B06C
:102A900010BDFEF703FDABE7FEF700FDB1E7FEF763
:102AA000FDFCB3E7FEF7FAFCB5E7FEF7F7FCBBE782
:102AB000FEF7F4FCC8E7FEF7F1FCCEE7FEF7EEFC0C
:102AC000D6E7FEF7EBFCE2E7F0DD01200000014075
:102AD00000B58DB000230193029315484FF080425A
:102AE0000260436083604FF6FF72C26003618361DE
:102AF00003220392049301220592069307930893FD
:102B000009920A930B9303A904F0CAFD50B900235C
:102B10000193029301A9064805F006F828B90DB003
:102B20005DF804FBFEF7BAFCF1E7FEF7B7FCF6E749
:102B300040DE012000B58DB00023019302931548BB
:102B4000154A0260436083604FF6FF72C260036102
:102B50008361032203920493012205920693079353
:102B6000089309920A930B9303A904F099FD50B9B5
:102B700000230193029301A9064804F0D5FF28B968
:102B80000DB05DF804FBFEF789FCF1E7FEF786FC6B
:102B9000F6E700BF54DD01200004004000B583B01B
:102BA0000023009301930F480F4A02600322426002
:102BB000836045F6BF52C260836104F023FD50B9C3
:102BC0000023009301936946064804F0ADFF28B93D
:102BD00003B05DF804FBFEF761FCF1E7FEF75EFC75
:102BE000F6E700BFB0DD01200010004010B584B052
:102BF0000368404A934207D03F4A934258D03F4A25
:102C0000934262D004B010BD04460023019302F544
:102C10009C32516C41F001015164526C02F001028E
:102C20000192019A3648374A02604FF04062426092
:102C300040228260C3604FF4806202614FF4006200
:102C400042614FF4005282614FF48072C2614FF4CE
:102C500000320262436205F0E9FE18BB284B636252
:102C60009C632948294B03604FF040634360402335
:102C700083600023C3604FF4806202614FF40062FE
:102C800042614FF4005282614FF48072C2614FF48E
:102C900000320262436205F0C9FE30B91A4BA362EA
:102CA0009C63AFE7FEF7FAFBD8E7FEF7F7FBF5E723
:102CB00000230293164B1A6C42F004021A641B6C38
:102CC00003F004030293029B9CE700220392104B43
:102CD000196C41F0100119641B6C03F0100303938D
:102CE000039B0221362006F081F8362006F0B2F868
:102CF00088E700BF000001400008004000100040CD
:102D00004CDC012028640240F4DC012040640240D5
:102D10000038024070B58AB00023059306930793EC
:102D2000089309930368B3F1804F04D02F4A93426C
:102D30003AD00AB070BD0024009403F50E331A6C2B
:102D400042F001021A641A6C02F001020092009A29
:102D500001941A6B42F001021A631A6B02F001022D
:102D60000192019A02941A6B42F002021A631B6BE1
:102D700003F002030293029B4FF4004305930226E3
:102D80000696079408940125099505A9184805F0A9
:102D9000E7FC08230593069607940894099505A96E
:102DA000144805F0DDFCC4E700220392124B196CB5
:102DB00041F002011964196C01F0020103910399B9
:102DC0000492196B41F0020119631B6B03F00203BB
:102DD0000493049B302305930223069307920892E1
:102DE000099305A9034805F0BBFCA2E700040040D5
:102DF00000000240000402400038024000B587B0E5
:102E00000023019302930393049305930268104BEC
:102E10009A4202D007B05DF804FB0021009103F54F
:102E20000C331A6B42F002021A631B6B03F00203AD
:102E30000093009B4FF4707301930223029303915C
:102E400003220492059301A9024805F089FCE1E7F9
:102E5000000800400004024000B58FB000230A9330
:102E60000B930C930D93089309930193029303938F
:102E700004930593069307932F48304A02604360FA
:102E8000836040F2BF32C2600361836104F0BAFB29
:102E9000002839D14FF480530A930AA9264804F038
:102EA0002EFD002833D1244804F0E0FB002831D166
:102EB00000230893099308A91F4804F035FE60BB5E
:102EC00070230193002202920392059201A91A48ED
:102ED00004F09BFC20BB04220DEB0201164804F019
:102EE00094FC00BB082201A9134804F08EFCE8B949
:102EF0000C2201A9104804F088FCD0B90E48FFF755
:102F00007DFF0FB05DF804FBFEF7C8FAC2E7FEF7DD
:102F1000C5FAC8E7FEF7C2FACAE7FEF7BFFACFE77D
:102F2000FEF7BCFAD7E7FEF7B9FADBE7FEF7B6FA29
:102F3000DEE7FEF7B3FAE1E7ACDC01200008004071
:102F400008B50A480A4B03604FF46133436000231D
:102F50008360C36003610C2242618361C36104F03A
:102F6000FFFF00B908BDFEF799FAFBE780DE0120FC
:102F70000010014000B589B000230393049305932A
:102F800006930793026803F1804303F588339A425E
:102F900002D009B05DF804FB0021019103F59433E0
:102FA0005A6C42F010025A645A6C02F010020192FC
:102FB000019A02911A6B42F001021A631B6B03F033
:102FC00001030293029B4FF4C06303930223049313
:102FD00001230593032306930723079303A90248BC
:102FE00005F0BEFBD5E700BF000002407047FEE7DA
:102FF000FEE7FEE7FEE770477047704708B505F04B
:103000008DFF08BD08B5024805F0C4FD08BD00BF2E
:103010008CDB012008B5024805F0BCFD08BD00BFEF
:10302000ECDB012008B5054804F0CBF900F034FBD7
:1030300000F0A6FA00F054FB08BD00BFB0DD01208F
:1030400008B5024805F0A6FD08BD00BFD4DA01208E
:1030500008B5024805F09EFD08BD00BF4CDC01200C
:1030600008B5024805F096FD08BD00BFF4DC01205C
:1030700082B0002100910B4B5A6C42F480425A649A
:103080005A6C02F480420092009A01911A6C42F04C
:1030900080521A641B6C03F080530193019B02B0B1
:1030A000704700BF003802400F49D1F8883043F420
:1030B0007003C1F888300D4B1A6842F001021A60A3
:1030C000002098601A6822F0847222F480321A601C
:1030D000074A5A601A6822F480221A60D8604FF0BA
:1030E00000638B60704700BF00ED00E000380240D5
:1030F0001030002408B500F0F1FB07EE900AF8EE5E
:10310000E77AB1EE080A67EE807A9FED020A27EEB1
:10311000800A08BD0000803910B5084C23680021E2
:10312000986807F01BF923680021586807F016F922
:1031300023680021D86807F011F910BD2C00002089
:1031400000B583B08DF8070001231A460DF1070181
:10315000024804F034FF03B05DF804FB80DE012078
:1031600000B583B0022038B10A2301220DF1070116
:10317000044804F094FFF6E79DF8070003B05DF8FB
:1031800004FB00BF80DE01204FF08043586A80B20C
:1031900070470000014B586A80B27047000400403D
:1031A000024B47F6FE725A62704700BF00040040AF
:1031B0004FF0804347F6FE725A62704708B53C21D3
:1031C000054804F08FFC3C21044804F08BFCFFF719
:1031D000E7FFFFF7EDFF08BD40DE012054DD0120D1
:1031E000084B5B6AA3F5FF437E3B07EE903AF8EE8F
:1031F000E77A9FED050A67EE807A9FED040A87EE75
:10320000800A704700040040DA0FC94000C07F44C4
:103210004FF080435B6AC3F5FF437E3307EE903A7D
:10322000F8EEE77A9FED040A67EE807A9FED030AD5
:1032300087EE800A704700BFDA0FC94000C07F44A4
:1032400038B504460D4621F0004100221B4BFDF726
:103250006DFC90B100221A4B20462946FDF77AFCFE
:1032600070B10022164B20462946FDF737F841EC95
:10327000100B0AF0CDFB55EC104B2046294638BD0B
:103280000022104B20462946FDF76EFC40B100227B
:10329000002320462946FDF7D7F904460D46ECE702
:1032A0000022074B20462946FDF716F841EC100B8B
:1032B0000AF02EFB55EC104BDFE700BF0000304357
:1032C0000000E03F0000E0BF2DE9F84305460F464F
:1032D00016469846D1F8009000244C450EDA35F891
:1032E0001400FDF737F90022174BFDF7ADF9174A27
:1032F00002EBC402C2E900010134EEE7D7F8009006
:1033000000254D450ADA114C04EBC50494ED000B81
:103310000AF002FC84ED000B0135F2E73D68C8F8C5
:10332000005000240BE0094B03EBC403D3E9000178
:10333000FFF786FFFDF760FC26F814000134A54274
:10334000F1DCBDE8F88300BF0000A03F400B002087
:1033500030B585B08DF8071000F07F008DF80F00B4
:103360000E4C00224FF48051204605F0D9FA0C4D46
:1033700001231A460DF10F01284603F087FB0123B4
:103380001A460DF10701284603F080FB01224FF495
:103390008051204605F0C4FA05B030BD000402405B
:1033A00034DB012030B583B060F07F008DF807007A
:1033B0000F4C00224FF48051204605F0B1FA0D4D1C
:1033C00001231A460DF10701284603F05FFB012394
:1033D0001A460DF10601284603F046FD01224FF47E
:1033E0008051204605F09CFA9DF8060003B030BDE0
:1033F0000004024034DB012008B50020FFF7D2FFB3
:1034000008BD000008B5642005F09AFDFFF7F4FF41
:10341000FFF7F2FFE02803D01E4806F001FFFBE7AC
:10342000642005F08DFD10210320FFF791FF01209E
:1034300005F086FD01210620FFF78AFF642005F0D4
:103440007FFD20217F20FFF783FF642005F078FDBA
:1034500007210120FFF77CFF012005F071FD0D2100
:103460001420FFF775FF012005F06AFD00217F2081
:10347000FFF76EFF642005F063FD00224FF48051DA
:10348000054805F04DFA0D23044A0549054803F0A7
:103490009FFD08BDF0E0000800040240482B00201A
:1034A0001C00002034DB012038B5104D01224FF400
:1034B0008051284605F034FA0D4CE278237943EA2E
:1034C00002230C4A1380E27A237B43EA02230A4A4E
:1034D000138000224FF48051284605F021FA0D2375
:1034E00022460649064803F073FD38BD0004024039
:1034F000482B0020422B0020462B00201C000020DF
:1035000034DB0120094BB3F90030094AB2F900203D
:103510009B1A07EE903AF8EEE77A9FED060A67EEFF
:10352000807A9FED050A27EE800A7047422B002023
:10353000402B00200AE81C41000080390B4BB3F9F6
:1035400000300B4AB2F900209B1A07EE903AF8EED1
:10355000E77A9FED087AC7EE876A9FED077AC6EE95
:10356000877A9FED060A20EE670A7047462B0020F7
:10357000442B00201904864100003443DA0F4940EF
:1035800008B5FDF7A5FFFEF74BF801F011FF012884
:1035900000D008BD01F018FF01380E28F9D801A3AA
:1035A00053F820F0E1350008FB3500081536000817
:1035B0002F360008353600084F36000869360008F7
:1035C00093350008933500089335000893350008BB
:1035D0009335000893350008933500086F360008CE
:1035E00002F080F8FEF710F902F0BEFEFEF72CF9AB
:1035F000FEF7AAFCFEF7A6FFCBE702F073F8FEF792
:1036000003F902F0B1FEFEF71FF9FEF79DFCFEF78D
:1036100099FFBEE702F066F8FEF7F6F802F0A4FEA6
:10362000FEF712F9FEF790FCFEF78CFFB1E702F00F
:1036300059F8AEE702F056F8FEF7E6F802F094FE0D
:10364000FEF702F9FEF780FCFEF77CFFA1E702F02F
:1036500049F8FEF7D9F802F087FEFEF7F5F8FEF715
:1036600073FCFEF76FFF94E702F03CF891E702F07D
:1036700039F8FEF7C9F802F077FEFEF7E5F8FEF735
:1036800063FCFEF75FFF84E708B5024803F081FEA4
:1036900008BD00BFB0DD012008B50C4B1B685A6A9D
:1036A0000B4B1A600B4B18685968013041F100014F
:1036B00018605960FDF7D8FB06EE900A9FED067A78
:1036C000C6EE877A054BC3ED007A08BDB0DD012058
:1036D000682B0020602B002000007A44582B00202B
:1036E0000A4B19684B6A0A4A12689A1A4FF47A739D
:1036F00003FB02F3CA6AB3FBF2F3064A1360064AFD
:1037000011688B4238BF0B4613607047B0DD012053
:10371000682B00206C2B0020702B0020014B188898
:10372000704700BF6C2B0020014B1888704700BF0A
:10373000702B0020014B93ED000A7047582B00209E
:103740000E4B1B78012B10D0022B12D04BB15A1C00
:103750000B4B83FB021303EB4303D31A074A13708B
:103760007047084A90211180F1E7064A60211180D4
:10377000EDE7044A00211180E9E700BF802B00201B
:1037800056555555842B002010B500210B4B198040
:103790000B4B19800B4B19700B4C23686FF0010217
:1037A0001A61204604F04AF90421204604F046F943
:1037B0000821204604F022F910BD00BF822B002012
:1037C000842B0020802B0020F0DD012038B5124C26
:1037D000124A0021A06A05F0CBFA114D01232A46B6
:1037E0001049606A05F088F901232A460E49A06A4B
:1037F00005F082F905220D490D4802F085FE236887
:10380000DA6842F4C062DA605A6C42F400425A64E8
:10381000FFF7BAFF38BD00BFF0DD012041370008D7
:1038200014000240842B0020822B0020742B0020E7
:103830008CDA012010B50C4C0021204604F01EF952
:103840000421204604F01AF90821204604F016F954
:10385000A06A05F08BF9606A05F088F90022F02172
:10386000024805F05DF810BDF0DD012000000240C7
:10387000154B1A780232154B83FB021303EB4303FB
:10388000D31A012B11D0022B16D003B17047104B65
:103890001988104A118059880F4A1180998891809F
:1038A000D98811811B8993817047094A51880A4B35
:1038B00059801289DA817047054A9188064BD98070
:1038C000D2885A81E2E700BF802B0020565555551B
:1038D000742B00207E2B0020882B0020014B1888A1
:1038E000704700BF7E2B0020044A02EB80035B88F8
:1038F00032F82000181A00B2704700BF882B002051
:103900002DE9F8430446FFF7EFFF0546FCF732FECA
:1039100041EC100B44B1032C06D0013CE4B2012C65
:103920002AD90024002548E0642D43DDA4B10026F7
:103930000027B046B946032C16D00AF02BF953ECF9
:10394000102B40464946FCF7A9FF32463B46FCF7A0
:10395000C3FC04460D4630E01FA7D7E900670FF20D
:103960008009D9E90089E6E71FA7D7E900670FF2C8
:103970007009D9E90089E0E7642D03DC1CA5D5E9CD
:1039800000451AE00AF006F951EC100B1AA3D3E92E
:103990000023FCF759FE1AA3D3E90023FCF79CFC93
:1039A00002460B4618A1D1E90001FCF795FC04463C
:1039B0000D4602E014A5D5E900450022002320466B
:1039C0002946FDF7B3F818B945EC104BBDE8F8836C
:1039D00000240025F8E700BF90A0F831E6AEB53F1F
:1039E000666666666666E63FCBA145B6F3FDB43F04
:1039F0000AD7A3703D0AA73FB81E85EB51B88E3F8A
:103A0000D9CEF753E3A59B3F0AD7A3703D0AB73F32
:103A1000F0B58BB00D48C289838944890189C58876
:103A200087884688008808900796361A0696059774
:103A30000495ED1B039502910194641A0094D11A28
:103A4000034806F0EDFB0BB0F0BD00BF882B002053
:103A5000FCE000082DE9F8430446884617469946DD
:103A60004FF480620021384605F0ADFC611E8C42A7
:103A700000D20021002426E004EB4012BB5C43F09E
:103A80000103BB5416E004EB4012BB5C43F002039D
:103A9000BB5412E04201BB5C43F00403BB540EE094
:103AA0003B5D43F008033B552846B0420ADA621CEE
:103AB0008A42E1D0451CB542E5D0002CEAD000286E
:103AC000F2D1EDE701348C4206DA08F1FF36B04559
:103AD00000D200260020E8E73B7843F002033B7069
:103AE00097F8203043F0080387F820304FF48062C5
:103AF0003946484605F059FC3B7843F0010389F804
:103B000000307B7843F0040389F80130BDE8F88386
:103B10002DE9F04F89B08246934618460593179BCE
:103B20009DF86020029201220A708BF800209AF81A
:103B300000200392027000220192D146DDF850A0CD
:103B4000B8E10132AA420CDA0C78985C8442F8D1D0
:103B50009BF800409818407A8442F2D101200190ED
:103B6000EFE7019A002A40F0A38199F800809BF8C2
:103B7000004004940D786A1E560104EB4212013A8B
:103B80001598825CB8F1070F53D8012000FA08F0AD
:103B9000C0B21040139F97F800E070454BD099F8E1
:103BA00001C0BCF1070F56D8012000FA0CF0C0B2DA
:103BB0001040864551D099F80270072F60D8012037
:103BC000B840C0B2104086455CD099F803600696B4
:103BD000072E66D80120B040C0B20240964562D0A0
:103BE000039A02F1040EBEF1FF0F01D94FF0FF0E50
:103BF000059A1278AEEB0200864500D2002000F054
:103C000003009AF800E09AF8016004969AF80260BE
:103C100007969AF80360704558D0049CA04200F0C3
:103C2000B880079CA04200F08E80B04260D0002295
:103C30003FE10020ADE7601CFF2800D9FF203044A1
:103C4000169F384410F8010C029FB842A7D2CDF855
:103C50000C800290A3E70020AAE7681CFF2800D987
:103C6000FF200138049F07EB4010169F384410F8DE
:103C7000010C029FB8429ED2CDF80CC002909AE788
:103C800000209FE7601E844200D200203044169E30
:103C9000304410F8010C029EB04296D20397029075
:103CA00093E7002099E76A1E954200D20022013A6C
:103CB000049800EB42121698024412F8012C029864
:103CC00082428DD206980390029289E7424500F025
:103CD0008980624500F08C80BA4200F08F8006989F
:103CE000824200F091800D708BF800400022E0E0ED
:103CF0000432FF2A00F2C280013A504202F003026D
:103D000000F0030058BF4242D2B2059802700C780E
:103D10009BF8000099F80050AA4200F0B18099F891
:103D20000150AA4200F0B28099F80250AA4200F075
:103D3000B38099F80350AA4200F0B4800C708BF85D
:103D400000000022B5E00432FF2A7DD8023A50423A
:103D500002F0030200F0030058BF4242D2B20598BD
:103D600002700C789BF8000099F80050AA426DD0C0
:103D700099F80150AA426FD099F80250AA4271D026
:103D800099F80350AA4273D00C708BF800000022FF
:103D90008FE00432FF2A3DD80132FF2A00D9FF22EA
:103DA000504202F0030200F0030058BF4242D2B278
:103DB000059802700C789BF8000099F80050AA4210
:103DC0002AD099F80150AA422CD099F80250AA4260
:103DD0002ED099F80350AA4230D00C708BF8000016
:103DE000002266E00134FF2C00D9FF24E4B270E722
:103DF0000135FF2D00D9FF25EDB26DE7601E84422D
:103E000000D20020C4B26AE76A1E954200D20022A6
:103E1000D5B268E7FF22BFE70130FF2800D9FF20B5
:103E2000C0B2CEE70134FF2C00D9FF24E4B2CCE7C6
:103E3000451EA84200D20025E8B2CAE7621E94429D
:103E400000D20022D4B2C8E7FF227FE70130FF286A
:103E500000D9FF20C0B28BE70134FF2C00D9FF242A
:103E6000E4B289E7451EA84200D20025E8B287E700
:103E7000621E944200D20022D4B285E7FF223BE7C3
:103E80000130FF2800D9FF20C0B248E70134FF2CE1
:103E900000D9FF24E4B247E7451EA84200D200251E
:103EA000E8B246E7621E944200D20022D4B245E74F
:103EB00001221AB9129A1578002243E609B0BDE82A
:103EC000F08F30B404789C420AD044789C420ED0E3
:103ED00084789C4212D0C2789A4216D030BC704787
:103EE00014780134FF2C00D9FF241470EDE70C780E
:103EF0000134FF2C00D9FF240C70E9E715786C1E03
:103F0000A54200D200241470E5E70A78531E9A42B5
:103F100000D200230B70E1E72DE9F04FADF5805D95
:103F200087B004460D460DF5825108680DF58251A3
:103F30000C310F68591E8B4200D20021531E9A4249
:103F400000D2002303FB01F3FF2B00D9FF235A1EED
:103F5000934200D200225FFA82F80DF582531033AB
:103F60001B6883F800800023B3F5806F03DA07F83D
:103F700003800133F8E70DF5825304331E780022E5
:103F800009E083185B7A815C013903EB4113013B43
:103F90000021F9540132B242F3DB43E10133A9B904
:103FA000B3F5806F12DAFA5CB242F7D109F1010081
:103FB0005A1CDFF884C22CF81920B0F5806F02DAA1
:103FC00013468146EBE781460121E8E7B9F1000F8E
:103FD0000FDD0DF580531433C3F80090002399458D
:103FE0000ADD954A32F91310944A22F8131001336E
:103FF000F5E74FF00009ECE70DF580531033C3F8F7
:1040000000900023994508DD8C4A32F81320013ACC
:104010008B4921F813200133F4E70DF60C030DF55D
:1040200001620DF580511031854801F035FFDDF852
:104030000CA8002203E00DF20C418B5401325245D2
:104040000EDA0DF5016333F812300133B3F5803F1A
:1040500001D34FF6FF739BB2FF2BECD9FF23EAE7A6
:104060000023994507DD754931F81320013A21F8FD
:1040700013200133F5E70DF60C030DF501620DF584
:10408000805114316D48FFF71FF9DDF80C0800224C
:1040900002E003A98B54013282420EDA0DF501636E
:1040A00033F812300133B3F5803F01D34FF6FF737D
:1040B0009BB2FF2BEDD9FF23EBE7BAF1000F05DB35
:1040C000BAF1FF0F04DD4FF0FF0A01E04FF0000AE4
:1040D0001AF0FF0F00F0A1805FFA8AFE00213AE09B
:1040E000002257E00CF10102FF2A00D9FF2292447E
:1040F0000AF1FF3A17F80A20904550D1721C07F8D0
:104100000A20012200924AE0002251E009F1010256
:10411000FF2A00D9FF22013A0CEB4212013A17F8AC
:1041200002A0D04549D106F1010A07F802A00122F8
:10413000009242E0002249E0023BFA5C90454AD1FD
:10414000721CFA540123009345E0002318402B7899
:10415000984247D00131714554DA94F800B003AB6E
:1041600013F8019009F1FF334FEA431A0DF20C42A4
:1041700012F801C00CEB43130DF58252083212689D
:104180001A4412F8010CBBF1070FA9D8012202FA58
:104190000BF2D2B2024095F800B05A45A2D094F882
:1041A00001A0BAF1070FAFD8012202FA0AF2D2B287
:1041B000024095F800A05245A8D094F802A0BAF1A8
:1041C000070FB7D8012202FA0AF2D2B2024095F8DC
:1041D00000A05245B0D0E278072AB6D80123934018
:1041E000DBB2B3E7A9F102090CEB491C0CF1FF3C6F
:1041F00017F80C309845ADD1731C07F80C3001232B
:104200000093A7E70136F6B2019B4BB9B04507D33F
:1042100001994FF000094B46C1E601230193F3E7F2
:10422000009B23B1002301931E460093ECE70DF59C
:10423000805D07B0BDE8F08FAC330020AC430020B8
:10424000A02B00202DE9F04FADF24C4D08900B91C2
:1042500015460C93DDF87044DDF87494DDF878A40D
:104260009DF87C3409939DF880340A93DDF88484AA
:10427000DDF888B4DDF88C649DF890340D931F460A
:1042800000230693079700F018BC00208DF8440423
:104290008DF840048DF845048DF841048DF84604EE
:1042A0008DF842048DF847048DF84304FFF71CFB9A
:1042B00007460320FFF718FB3B46034403EBD37389
:1042C0005B10CF4F3B800220FFF70EFBCD4B1880D9
:1042D0000120FFF709FBCC4B1880B7F90020CB4B2E
:1042E000B3F900309A4200F328829AF8003003F0C4
:1042F00003020B9949780DF58960024402F8081C05
:10430000C04AB2F90010C24AB2F90020914213DD4E
:104310000133FF2B00D9FF235A4203F0030302F0BD
:10432000030258BF5342089A52780DF589610B4435
:1043300003F8042CFDF71AFF9AF80020531CFF2BFA
:1043400000D9FF23594203F0030301F0030158BFD2
:104350004B420B9949780DF58960034403F8081C1A
:10436000A94BB3F90010AB4BB3F90030994213DD00
:10437000D31CFF2B00D9FF235A4203F0030302F0A2
:10438000030258BF5342089A52780DF589610B44D5
:1043900003F8042CFDF7F0FE9AF800300333FF2BEE
:1043A00000D9FF235A4203F0030302F0030258BF6F
:1043B00053420B9A52780DF589610B4403F8082C8F
:1043C0002A78531CFF2B00D9FF23072A00F2C38150
:1043D00001219140C9B2013B0DF58962134413F8E4
:1043E000043C01FB03F1FF2900D9FF212278013AA7
:1043F0005201894B1A6099F800301344013B8748F9
:104400000360C9B218F80300014308F803102978C3
:10441000481CFF2800D9FF20072900F29E814FF099
:10442000010C0CFA01F1C9B201380DF58967384465
:1044300010F8080C01FB00F1FF2900D9FF21C9B2D7
:104440001BF8030001430BF803106978481CFF2890
:1044500000D9FF20072900F282814FF0010C0CFAED
:1044600001F1C9B201380DF58967384410F8040C20
:1044700001FB00F1FF2900D9FF21C9B218F80300A0
:10448000014308F803106978481CFF2800D9FF2071
:10449000072900F266814FF0010C0CFA01F1C9B254
:1044A00001380DF58967384410F8080C01FB00F15C
:1044B000FF2900D9FF21C9B21BF8030001430BF803
:1044C0000310A978481CFF2800D9FF20072900F213
:1044D0004A814FF0010C0CFA01F1C9B201380DF517
:1044E0008967384410F8040C01FB00F1FF2900D95A
:1044F000FF21C9B218F80300014308F80310A97896
:10450000481CFF2800D9FF20072900F22E814FF018
:10451000010C0CFA01F1C9B201380DF58967384474
:1045200010F8080C01FB00F1FF2900D9FF21C9B2E6
:104530001BF8030001430BF80310E978481CFF281F
:1045400000D9FF20072900F212814FF0010C0CFA6C
:1045500001F1C9B201380DF58967384410F8040C2F
:1045600001FB00F1FF2900D9FF21C9B218F80300AF
:10457000014308F80310E978481CFF2800D9FF2000
:10458000072900F2F6804FF0010C0CFA01F1C9B2D4
:1045900001380DF58967384410F8080C01FB00F16B
:1045A000FF2900D9FF21C9B21BF8030001430BF812
:1045B0000310099B591E8B4200D2002199F800304C
:1045C0008B4254DAA87829780131FF2900D9FF21DC
:1045D000072800F2D0804FF0010C0CFA00F0C0B2B6
:1045E00001390DF58967394411F8041C00FB01F10C
:1045F000FF2900D9FF210133FF2B11D9FF230FE041
:10460000982B00209C2B00209A2B00201E000020BD
:104610002200002020000020A4330020A833002026
:104620001344013B18F80300C9B2014308F8031012
:10463000A87829780131FF2900D9FF21072800F245
:104640009C804FF0010C0CFA00F0C0B201390DF55E
:104650008967394411F8081C00FB01F1FF2900D9D2
:10466000FF211BF80300C9B201430BF803100A9B9A
:10467000591E8B4200D2002123788B424BDAE87816
:1046800069780131FF2900D9FF21072877D84FF039
:10469000010C0CFA00F0C0B201390DF589673944FC
:1046A00011F8041C00FB01F1FF2900D9FF2101339F
:1046B000FF2B00D9FF2399F800C0013B58010CEBF8
:1046C0004313013B18F803C0C9B24CEA010108F8D2
:1046D0000310EB7869780131FF2900D9FF21072BFE
:1046E0004FD84FF0010C0CFA03F3DBB201390DF592
:1046F0008967394411F8081C03FB01F3FF2B00D92B
:10470000FF2399F80010084401381BF80010DBB2B1
:104710000B430BF8003099F80010012971D9287863
:10472000AB780133FF2B00D9FF2307282BD84FF09C
:10473000010C0CFA00F0C0B226E09AF8003003F049
:104740000303089A52780DF589610B4403F8042C91
:10475000FDF706FDC9E500213DE6002164E60021E4
:1047600080E600219CE60021B8E60021D4E6002185
:10477000F0E600210CE7002032E7002066E7002089
:104780008AE70023B2E70020013B0DF589673B442F
:1047900013F8043C00FB03F0FF2800D9FF204B1E58
:1047A000994200D200231344013B18F80310C0B211
:1047B000084308F803002878AB780133FF2B00D9B1
:1047C000FF23072803D801218140C9B200E000215E
:1047D000013B0DF58960034413F8083C01FB03F32A
:1047E000FF2B00D9FF2399F80000411E884200D218
:1047F00000210A44013A1BF80210DBB20B430BF80C
:1048000002302178012940F25D816878EB7801332C
:10481000FF2B00D9FF23072803D801228240D2B200
:1048200000E00022013B0DF58960034413F8043CCD
:1048300002FB03F2FF2A00D9FF22481E814200D268
:10484000002099F80030013803EB4013013B18F8C1
:104850000310D2B20A4308F803206978EB780133D9
:10486000FF2B00D9FF23072903D801228A40D2B2A7
:1048700000E00022013B0DF589610B4413F8083C70
:1048800002FB03F3FF2B00D9FF232278511E8A423B
:1048900000D2002199F80020013902EB4112013ABF
:1048A0001BF80210DBB20B430BF802300AE10133B4
:1048B000BB420CDA2178F25C9142F8D199F80010F1
:1048C000F218527A9142F2D101220692EFE707974D
:1048D000069B002B2FD10DF13F03049310AB0393E4
:1048E000CDF808800D9B019300960A9B099A0899C0
:1048F0002846FFF711FB2A78072A3BD8012393406B
:10490000DBB2B24A126818F802201A4234D199F880
:1049100000300133FF2B00D9FF23AD4A1268134446
:10492000013B10AAD35C9DF83F20934231D28DF811
:104930003F302A7821E0FDF7ABFBFEF77BFFA54C6B
:1049400001224FF46451204603F0EAFF4FF42F7028
:1049500004F0F6FA00224FF46451204603F0E0FF21
:104960004FF4967004F0ECFAFEF730FF0DF24C4D68
:10497000BDE8F08F0023C4E7069A95F801E0BEF188
:10498000070F08D84FF0010C0CFA0EFC5FFA8CFCF4
:1049900003E0069AF1E74FF0000C99F80000217847
:1049A0004B1E00EB4313434413F8013C13EA0C0F76
:1049B00010D10131FF2900D9FF21013900EB41114C
:1049C000013910AB5B5C9DF83F108B4202D28DF831
:1049D0003F30724695F802C0BCF1070F04D80121A0
:1049E00001FA0CF1C9B200E0002199F80000237827
:1049F000013B00EB4313434413F8013C0B4210D13D
:104A0000431E984200D20023714909680B44013BC0
:104A100010A9CB5C9DF83F108B4202D28DF83F303D
:104A2000624695F803E0BEF1070F04D8012000FAB2
:104A30000EF0C0B200E0002099F8001094F800C019
:104A40000CF1FF3301EB4313434413F8013C0342E1
:104A50000FD10CF1FF339C4500D20023013B01EB49
:104A60004311013910AB595C9DF83F30994200D297
:104A700072460432FF2A00D9FF229AF80030D31A76
:104A80009A4200D200235A4203F0030302F00302C9
:104A900058BF5342DBB20C98017842788DF83F2022
:104AA0000746807897F803C08B4210D09A4200F0F6
:104AB000958083425AD0634529D0474B1B78002B01
:104AC0003FF4E3AB0023444A1370079FF0E6FDF781
:104AD00059FB9AF800202B789A4200F0AE809AF8A1
:104AE00000206B789A4200F0B1809AF80020AB78F1
:104AF0009A4200F0B2809AF80020EB789A42DCD11A
:104B00002278531E9A4200D200232370D5E7FDF786
:104B10007BFB9AF800300433FF2B00F2DD80013B71
:104B20005A4203F0030302F0030258BF5342DBB2C0
:104B30008AF800302A78934200F0D0809AF800205A
:104B40006B789A4200F0D3809AF80020AB789A42B2
:104B500000F0D4809AF80020EB789A42ADD1227808
:104B6000531E9A4200D200232370A6E7FDF778FB7C
:104B70009AF800300433FF2B00F29380023B5A4234
:104B800003F0030302F0030258BF5342DBB28AF87A
:104B900000302A78934200F086809AF800206B78E3
:104BA0009A4200F089809AF80020AB789A4200F08F
:104BB0008A809AF80020EB789A427FF47EAF2278C0
:104BC000531E9A4200D20023237076E7A8330020B8
:104BD000A433002000000240A0330020FDF7E8FAD3
:104BE0009AF800300433FF2B40D80133FF2B00D953
:104BF000FF235A4203F0030302F0030258BF53425B
:104C0000DBB28AF800302A78934231D09AF800203B
:104C10006B789A4235D09AF80020AB789A4237D018
:104C20009AF80020EB789A427FF447AF2278531E1F
:104C30009A4200D2002323703FE799F800300133F5
:104C4000FF2B00D9FF2389F8003048E72378013390
:104C5000FF2B00D9FF23237047E799F80020531E4C
:104C60009A4200D2002389F8003044E7FF23BCE7D2
:104C700099F800300133FF2B00D9FF2389F8003069
:104C8000C4E723780133FF2B00D9FF232370C2E749
:104C900099F80020531E9A4200D2002389F8003070
:104CA000BEE7FF236AE799F800300133FF2B00D9F4
:104CB000FF2389F8003070E723780133FF2B00D9F8
:104CC000FF2323706FE799F80020531E9A4200D209
:104CD000002389F800306CE7FF2320E799F80030C3
:104CE0000133FF2B00D9FF2389F8003026E7237812
:104CF0000133FF2B00D9FF23237025E799F800200B
:104D0000531E9A4200D2002389F8003022E700BFE8
:104D10002DE9F04FADF5C15D83B00D461646059304
:104D20000DF5C25310331C780DF5C25314331B78A4
:104D30000DF5C252183211680DF5C2521C32D2F86C
:104D400000900DF5C3520432D2F800B05A1E9342BF
:104D500000D20022631E9C4200D2002303FB02F318
:104D6000FF2B00D9FF235A1E934200D20022D3B258
:104D700003930DF5C3520832126814461A46237085
:104D80000023B3F5806F03DA0BF803200133F8E753
:104D9000007800220AE08B185B7A8C5C013C03EB04
:104DA0004413013B00240BF8034001328242F2DB42
:104DB000002301930493CAE10133A9B9B3F5806FCD
:104DC00012DA1BF8032001988242F5D1781C5A1C94
:104DD000C64C24F81720B0F5806F02DA1346074658
:104DE000EBE707460121E8E7002F05DD0DF5C1538C
:104DF00004331F60002308E00027F7E7BB4A32F9BD
:104E00001310BB4A22F8131001339F42F6DC0DF554
:104E1000C1531F6000239F4209DDB54A32F81320B9
:104E2000013A0DF5815121F813200133F3E70DF616
:104E30001C030DF502620DF5C1510DF5815001F015
:104E40002BF8DDF81C48002203E00DF21C418B54C6
:104E50000132A2420EDA0DF5026333F8123001334B
:104E6000B3F5803F01D34FF6FF739BB2FF2BECD914
:104E7000FF23EAE700239F4207DD9D4931F8132015
:104E8000013A21F813200133F5E70DF61C030DF567
:104E900002620DF5C15104319548FEF715FADDF8AF
:104EA0001C08002202E007A98B54013282420EDA6C
:104EB0000DF5026333F812300133B3F5803F01D3AF
:104EC0004FF6FF739BB2FF2BEDD9FF23EBE70021D9
:104ED00002940DF5C3530433C3F800B0DDF814B0E9
:104EE00057E0002219F80CE01EEA020F14BF4FF041
:104EF00001084FF0000896F800E0F04566D06A78A7
:104F0000072A00F28F804FF0010C0CFA02FC5FFAC6
:104F10008CFC5A1E19F802E01EEA0C0F14BF4FF069
:104F200001084FF0000896F800E0F0457DD095F8B4
:104F300002C0BCF1070F00F2AC804FF0010E0EFA78
:104F40000CFC5FFA8CFC19F802E01EEA0C0F14BF8F
:104F50004FF001084FF0000896F800E0F04500F02F
:104F60009B80EB78072B00F2BF804FF0010C0CFA0E
:104F700003F3DBB219F802C01CEA030F14BF4FF0B1
:104F8000010E4FF0000E96F800C0E64500F0B2802A
:104F90000131029B994280F2D1802A78481C80B26C
:104FA000013807AB1F5C7B1E4FEA431A0DF21C4C05
:104FB0001CF8000000EB431303F1FF3C072A90D8D4
:104FC0004FF0010E0EFA02F2D2B28BE70DF5C35488
:104FD000246814F80CC01CEA020F14BF4FF0010C37
:104FE0004FF0000C9BF80120944588D1421CFF2A09
:104FF00000D9FF2292440AF1FF3A0DF5C352043260
:10500000126812F80A20039C94427FF478AF019A48
:1050100001320DF5C3540434246804F80A20012237
:1050200004926CE74FF0000C73E70DF5C35424684D
:1050300014F802E01EEA0C0F14BF4FF0010E4FF0FF
:10504000000E9BF801C0E6457FF471AF07F1010C3B
:10505000BCF1FF0F01D94FF0FF0C0CF1FF3C00EB4E
:105060004C1C0CF1FF3C0DF5C3540434246814F8B7
:105070000CE0039C74457FF45AAF019C04F1010ECF
:105080000DF5C3540434246804F80CE0012404949E
:105090004DE74FF0000C56E70DF5C354246814F8A3
:1050A00002E01EEA0C0F14BF4FF0010E4FF0000E8D
:1050B0009BF801C0E6457FF454AF023B0DF5C354A5
:1050C0000434246814F803C0039C64457FF449AF9A
:1050D000019C04F1010C0DF5C3540434246804F858
:1050E00003C0012304933CE7002343E7AC3B0020CB
:1050F000AC4B00200DF5C3542468A25C1A4214BFC7
:10510000012200229BF801309A427FF441AF023F16
:1051100000EB471001380DF5C35304331B681B5CCB
:10512000039A9A427FF434AF019B01330DF5C352C9
:105130000432126813540123049329E70DF5C35375
:105140000433D3F800B0019B0133DBB201930DF5BA
:10515000C35308331B681B78019A934203D3002181
:105160000F460B4629E6049B002B7FF421AE0DF57C
:10517000C15D03B0BDE8F08F2DE9F04FADF2644D95
:1051800007460D4690469946DDF888449DF88C64A4
:105190009DF890A48DF85C640023112B07DC0DF5BD
:1051A0008C621A44002102F8181C0133F5E7002232
:1051B0008DF8442401238DF8453402208DF84604EF
:1051C00003218DF847148DF840248DF841348DF873
:1051D00042048DF843148DF83C248DF83D348DF84D
:1051E00038248DF83934BAF1000F07D0BAF1010F25
:1051F00000F0AD800DF2644DBDE8F08FFCF724FFA8
:1052000001238DF834340DF1300B8DF8303000234C
:105210005A460DF234410DF24440FEF752FEFCF7BF
:10522000B1FF9DF844240BAB8DF82C200896079411
:1052300006950597CDF81090CDF80C800293CDF827
:1052400004B00DF2344300930DF588630DF244422F
:105250000DF587610DF23C40FEF7F4FF4FF47A70D4
:1052600003F06EFE3DE08DF848C48DF85104012135
:105270008DF8331089B996420FDD02F10903E05C25
:1052800014F802C00CF1FF3300EB43132B4413F866
:10529000013C0F2BE7D10132ECE79DF83330012BB5
:1052A00024D1FCF749FF0123404A137008930DF500
:1052B0008963079306950597CDF81090CDF80C807B
:1052C0000BAB02930CAB01930DF2344300930DF53D
:1052D00088630DF244420DF587610DF23C40FEF704
:1052E000B1FF00228DF833201146C3E74FF47A70E6
:1052F00003F026FE01268DF848648DF85164FCF712
:105300001BFF2A4B1E7008960DF5896307930695BF
:105310000597CDF81090CDF80C800BAB02930CAB39
:1053200001930DF2344300930DF588630DF244426E
:105330000DF587610DF23C40FEF784FFFCF764FD3C
:10534000FCF7EAFEBEEE000A00F038FE4EE70DF272
:105350003C4A0DF1330BCDF818B00DAE059604950F
:1053600003970294CDF80490CDF800800DF5876383
:1053700052460DF244410DF25C40FFF7C9FC9BF828
:10538000003006930594049603970DF58863029305
:10539000CDF804A00DF25C4300930BAB0CAA0DF208
:1053A00034410DF24440FEF7B3FB23E7A033002065
:1053B000014B1878704700BFAF530020014B00220B
:1053C0001A707047AF530020014B1878704700BF28
:1053D000AD530020014B1870704700BFAD53002043
:1053E00010B5FCF7EBF8B5EE400AF1EE10FAF8D183
:1053F000FCF7FCF8C82003F0A3FDFCF7E5F8DFEDAF
:10540000827AB4EEE70AF1EE10FA03DD7F4A1378F0
:1054100001331370FCF7DEF8DFED7D7AB4EEE70AB6
:10542000F1EE10FA03D5794A1378013B1370774AED
:10543000137803F00F031370764A1278934211D059
:105440000F2B0FD8DFE803F0081523313F4D5B69C0
:10545000778593A1AFBDCBD900224FF464516E483C
:1054600003F05EFA694B18786A4B1870FFF7B2FFC9
:1054700010BD694C00224FF4C851204603F050FA89
:1054800001224FF40051204603F04AFAEAE7624C49
:1054900000224FF42451204603F042FA01224FF437
:1054A0008051204603F03CFADCE75B4C00224FF4CD
:1054B0001061204603F034FA01224FF44051204697
:1054C00003F02EFACEE7544C00224FF4445120460C
:1054D00003F026FA01224FF40061204603F020FA7F
:1054E000C0E74D4C00224FF48851204603F018FAD3
:1054F00001224FF42051204603F012FAB2E7464C45
:1055000000224FF40451204603F00AFA01224FF41E
:10551000C051204603F004FAA4E73F4C00224FF4A8
:105520008071204603F0FCF901224FF460512046BF
:1055300003F0F6F996E7384C00224FF4605120460C
:1055400003F0EEF901224FF48071204603F0E8F9F0
:1055500088E7314C00224FF4C051204603F0E0F9B7
:1055600001224FF40451204603F0DAF97AE72A4C7D
:1055700000224FF42051204603F0D2F901224FF4CB
:105580008851204603F0CCF96CE7234C00224FF4FD
:105590000061204603F0C4F901224FF44451204633
:1055A00003F0BEF95EE71C4C00224FF44051204648
:1055B00003F0B6F901224FF41061204603F0B0F970
:1055C00050E7154C00224FF48051204603F0A8F913
:1055D00001224FF42451204603F0A2F942E70E4C79
:1055E00000224FF40051204603F09AF901224FF4B3
:1055F000C851204603F094F934E701224FF4645176
:10560000054803F08DF92DE7CDCCCC3DAC530020FF
:10561000CDCCCCBDAE5300200000024008B5FBF756
:10562000DFFFDFED057AB4EEE70AF1EE10FA01DDF7
:10563000012008BD0020FCE7CDCCCC3D08B50320FF
:10564000FEF752F940F2DB539842F8DD4FF4FA705E
:1056500003F076FC014B01221A7008BDAF53002005
:1056600038B50023184A1370184A1370184A13707B
:10567000FEF7E0F8144B1B7833B9FFF7B1FEFFF7E4
:10568000CDFF114B1870F5E7002415E0114D0122F4
:105690004FF46451284603F043F94FF42F7003F0A0
:1056A0004FFC00224FF46451284603F039F94FF4BF
:1056B000967003F045FC0134012CE7DDFEF786F817
:1056C000FFF7BCFF38BD00BFB0530020AF53002030
:1056D000AC53002000000240014B00221A807047AA
:1056E000B253002010B5554B1A88554CA4FB023418
:1056F00041F287339A4209D8A40804EB8403D31AF1
:105700009BB223B14D4A13880133138010BD07EEBD
:10571000902AF8EE677A4B4B642202FB0434C4ED06
:10572000007A00F033FC84ED010A00F035FC84EDD2
:10573000020AFCF72BF884ED030A00F01BFC84ED51
:10574000040AFBF765FF84ED050AFBF7EFFF84ED24
:10575000060AFDF7D7FE84ED070AFBF7EDFF84ED9F
:10576000080A00F01FFC84ED090A00F021FC84ED1A
:105770000A0AFCF751F884ED0B0A00F001FC84EDF5
:105780000C0AFCF719F884ED0D0AFCF7EBFE07EEA6
:10579000900AF8EEE77AC4ED0E7AFCF7E9FE07EE20
:1057A000900AF8EEE77AC4ED0F7A0320FEF79CF832
:1057B00007EE900AF8EEE77AC4ED107A0020FEF7C3
:1057C00093F807EE900AF8EEE77AC4ED117A02201A
:1057D000FEF78AF807EE900AF8EEE77AC4ED127A3F
:1057E0000120FEF781F807EE900AF8EEE77AC4EDA3
:1057F000137A0320FEF784F851EC100BFBF71CFA28
:1058000020650020FEF77CF851EC100BFBF714FA32
:1058100060650220FEF774F851EC100BFBF70CFAF0
:10582000A0650120FEF76CF851EC100BFBF704FAB1
:10583000E065FDF75FFC84ED180A63E7B2530020D2
:10584000CDCCCCCCB453002070B56E4804F0E8FC4D
:105850000026B6F57A7F80F0D3806B4B642404FB7E
:1058600006342068FAF798FE02460B46674D284634
:1058700004F0D6FC6068FAF78FFE02460B46284615
:1058800004F0CEFCA068FAF787FE02460B462846D5
:1058900004F0C6FCE068FAF77FFE02460B46284695
:1058A00004F0BEFC2069FAF777FE02460B46284654
:1058B00004F0B6FC6069FAF76FFE02460B46284614
:1058C00004F0AEFCA069FAF767FE02460B462846D4
:1058D00004F0A6FCE069FAF75FFE02460B46284694
:1058E00004F09EFC206AFAF757FE02460B46284653
:1058F00004F096FC606AFAF74FFE02460B46284613
:1059000004F08EFCA06AFAF747FE02460B462846D2
:1059100004F086FCE06AFAF73FFE02460B46284692
:1059200004F07EFC206BFAF737FE02460B46284651
:1059300004F076FC606BFAF72FFE02460B46284611
:1059400004F06EFCA06BFAF727FE02460B462846D1
:1059500004F066FCE06BFAF71FFE02460B46284691
:1059600004F05EFC206CFAF717FE02460B46284650
:1059700004F056FC606CFAF70FFE02460B46284610
:1059800004F04EFCA06CFAF707FE02460B462846D0
:1059900004F046FCE06CFAF7FFFD02460B46284691
:1059A00004F03EFC206DFAF7F7FD02460B46284650
:1059B00004F036FC606DFAF7EFFD02460B46284610
:1059C00004F02EFCA06DFAF7E7FD02460B462846D0
:1059D00004F026FCE06DFAF7DFFD02460B46284690
:1059E00004F01EFC206EFAF7D7FD02460B4608486D
:1059F00004F016FC074804F099FC0136B6B228E71B
:105A000070BD00BF44E10008B4530020A0E20008CC
:105A1000A4E20008A8E200082DE9F04F2DED028B6A
:105A20002DED02AB85B0FDF7BBFBFDF7C1FB0024FC
:105A300036E00320FDF764FF53EC102B94A1D1E96D
:105A40000001FAF749FC029001F100430393FEE0E4
:105A50000020FDF755FF53EC102B8FA1D1E9000179
:105A6000FAF73AFC804601F10049CDE90089DDE909
:105A700002238B4804F0D4FB0B34A4B2894B1B687F
:105A8000986803F063FB4FF4FA7003F059FA1B2196
:105A9000854804F0C5FB22461B21844804F0C0FB66
:105AA000FDF748FE10EE100AFAF776FD02460B46A7
:105AB0007F4804F0B5FBFDF731FE07EE900AF8EEE3
:105AC000677AB2EE048A87EE88AAFDF72DFE07EE0C
:105AD000900AF8EE677AC7EE888A1AEE100AFAF78B
