:020000040800F2
:100000000000052001980008453700084737000820
:10001000493700084B3700084D3700080000000042
:100020000000000000000000000000004F37000842
:10003000513700080000000053370008553700080A
:1000400051980008519800085198000851980008EC
:1000500051980008519800085198000851980008DC
:1000600051980008519800085198000851980008CC
:1000700051980008519800085D3700086D37000856
:1000800051980008519800085198000851980008AC
:10009000519800085198000851980008519800089C
:1000A000519800085198000851980008519800088C
:1000B000519800085198000851980008519800087C
:1000C000519800085198000851980008519800086C
:1000D000519800085198000851980008519800085C
:1000E000519800085198000851980008519800084C
:1000F000519800085198000851980008519800083C
:10010000519800085198000851980008519800082B
:1001100051980008519800087D3700085198000850
:1001200099370008A9370008B93700085198000826
:1001300051980008519800085198000851980008FB
:1001400051980008519800085198000851980008EB
:1001500051980008519800085198000851980008DB
:1001600051980008519800085198000851980008CB
:10017000519800085198000800000000000000009D
:1001800051980008519800085198000851980008AB
:10019000519800085198000800000000519800088C
:1001A000519800085198000800000000000000006D
:1001B000519800080000000000000000519800085D
:1001C000519800085198000851980008519800086B
:0801D000519800085198000845
:1001E00010B5054C237833B9044B13B10448AFF371
:1001F00000800123237010BD1004002000000000C7
:1002000054E9000808B5034B1BB103490348AFF399
:10021000008008BD000000001404002054E900081C
:10022000034613F8012B002AFBD1181A0138704736
:1002300001F0FF01102A2BDB10F0070F08D010F897
:10024000013B013A8B422DD010F0070F42B3F6D19B
:10025000F0B441EA012141EA014122F007047FF0B4
:1002600000070023F0E80256083C85EA010586EA0B
:10027000010685FA47F5A3FA87F586FA47F6A5FA47
:1002800087F68EB9EED1F0BC01F0FF0102F0070253
:1002900032B110F8013B013A83EA010313B1F8D1FE
:1002A0000020704701387047002D06BF35460338DF
:1002B000073815F0010F07D1013015F4807F02BF18
:1002C000013015F4C03F0130F0BC0138704700BF69
:1002D00081F0004102E000BF83F0004330B54FEAF7
:1002E00041044FEA430594EA050F08BF90EA020F64
:1002F0001FBF54EA000C55EA020C7FEA645C7FEAF7
:10030000655C00F0E2804FEA5454D4EB5555B8BF19
:100310006D420CDD2C4480EA020281EA030382EA8A
:10032000000083EA010180EA020281EA0303362D1C
:1003300088BF30BD11F0004F4FEA01314FF4801CEF
:100340004CEA113102D0404261EB410113F0004F01
:100350004FEA03334CEA133302D0524263EB4303B8
:1003600094EA050F00F0A780A4F10104D5F1200E56
:100370000DDB02FA0EFC22FA05F2801841F10001B1
:1003800003FA0EF2801843FA05F359410EE0A5F185
:1003900020050EF1200E012A03FA0EFC28BF4CF0B6
:1003A000020C43FA05F3C01851EBE37101F000456C
:1003B00007D54FF0000EDCF1000C7EEB00006EEB79
:1003C0000101B1F5801F1BD3B1F5001F0CD3490803
:1003D0005FEA30004FEA3C0C04F101044FEA44525A
:1003E00012F5800F80F09A80BCF1004F08BF5FEAE1
:1003F000500C50F1000041EB045141EA050130BDC1
:100400005FEA4C0C404141EB0101013C28BFB1F5D2
:10041000801FE9D291F0000F04BF01460020B1FA1D
:1004200081F308BF2033A3F10B03B3F120020CDAF0
:100430000C3208DD02F1140CC2F10C0201FA0CF0CE
:1004400021FA02F10CE002F11402D8BFC2F1200C33
:1004500001FA02F120FA0CFCDCBF41EA0C019040E9
:10046000E41AA2BF01EB0451294330BD6FEA040432
:100470001F3C1CDA0C340EDC04F11404C4F120021D
:1004800020FA04F001FA02F340EA030021FA04F32F
:1004900045EA030130BDC4F10C04C4F1200220FA86
:1004A00002F001FA04F340EA0300294630BD21FAC4
:1004B00004F0294630BD94F0000F83F4801306BF8A
:1004C00081F480110134013D4EE77FEA645C18BF7E
:1004D0007FEA655C29D094EA050F08BF90EA020F15
:1004E00005D054EA000C04BF1946104630BD91EA0D
:1004F000030F1EBF0021002030BD5FEA545C05D110
:100500004000494128BF41F0004130BD14F580044E
:100510003CBF01F5801130BD01F0004545F0FE41C2
:1005200041F470014FF0000030BD7FEA645C1ABFF7
:10053000194610467FEA655C1CBF0B46024650EA2E
:10054000013406BF52EA033591EA030F41F400215A
:1005500030BD00BF90F0000F04BF0021704730B5E0
:100560004FF4806404F132044FF000054FF00001B5
:1005700050E700BF90F0000F04BF0021704730B576
:100580004FF4806404F1320410F0004548BF40424B
:100590004FF000013EE700BF42004FEAE2014FEAA0
:1005A00031014FEA02701FBF12F07F4393F07F4F7B
:1005B00081F06051704732F07F4208BF704793F07E
:1005C0007F4F04BF41F40021704730B54FF4607491
:1005D00001F0004521F000411CE700BF50EA010294
:1005E00008BF704730B54FF000050AE050EA01023D
:1005F00008BF704730B511F0004502D5404261EBAD
:1006000041014FF4806404F132045FEA915C3FF4ED
:10061000D8AE4FF003025FEADC0C18BF03325FEA8A
:10062000DC0C18BF033202EBDC02C2F1200300FA3B
:1006300003FC20FA02F001FA03FE40EA0E0021FA60
:1006400002F11444BDE600BF70B54FF0FF0C4CF44E
:10065000E06C1CEA11541DBF1CEA135594EA0C0F00
:1006600095EA0C0F00F0DEF82C4481EA030621EA3B
:100670004C5123EA4C5350EA013518BF52EA033576
:1006800041F4801143F4801338D0A0FB02CE4FF028
:100690000005E1FB02E506F00042E0FB03E54FF058
:1006A0000006E1FB03569CF0000F18BF4EF0010E50
:1006B000A4F1FF04B6F5007F64F5407404D25FEA4C
:1006C0004E0E6D4146EB060642EAC62141EA5551FF
:1006D0004FEAC52040EA5E504FEACE2EB4F1FD0C41
:1006E00088BFBCF5E06F1ED8BEF1004F08BF5FEABF
:1006F000500E50F1000041EB045170BD06F0004671
:1007000046EA010140EA020081EA0301B4EB5C041D
:10071000C2BFD4EB0C0541EA045170BD41F4801115
:100720004FF0000E013C00F3AB8014F1360FDEBF3A
:10073000002001F0004170BDC4F10004203C35DA16
:100740000C341BDC04F11404C4F1200500FA05F399
:1007500020FA04F001FA05F240EA020001F000423A
:1007600021F0004110EBD37021FA04F642EB0601B0
:100770005EEA430E08BF20EAD37070BDC4F10C04DA
:10078000C4F1200500FA04F320FA05F001FA04F29E
:1007900040EA020001F0004110EBD37041F100018A
:1007A0005EEA430E08BF20EAD37070BDC4F1200595
:1007B00000FA05F24EEA020E20FA04F301FA05F2FD
:1007C00043EA020321FA04F001F0004121FA04F2A5
:1007D00020EA020000EBD3705EEA430E08BF20EA75
:1007E000D37070BD94F0000F0FD101F000464000AF
:1007F00041EB010111F4801F08BF013CF7D041EA31
:10080000060195F0000F18BF704703F00046520034
:1008100043EB030313F4801F08BF013DF7D043EA05
:100820000603704794EA0C0F0CEA135518BF95EABB
:100830000C0F0CD050EA410618BF52EA4306D1D142
:1008400081EA030101F000414FF0000070BD50EA61
:10085000410606BF1046194652EA430619D094EAEB
:100860000C0F02D150EA013613D195EA0C0F05D1D5
:1008700052EA03361CBF104619460AD181EA030129
:1008800001F0004141F0FE4141F470014FF00000E1
:1008900070BD41F0FE4141F4780170BD70B54FF07C
:1008A000FF0C4CF4E06C1CEA11541DBF1CEA1355FC
:1008B00094EA0C0F95EA0C0F00F0A7F8A4EB0504DE
:1008C00081EA030E52EA03354FEA013100F08880D5
:1008D0004FEA03334FF0805545EA131343EA12639E
:1008E0004FEA022245EA111545EA10654FEA002653
:1008F0000EF000419D4208BF964244F1FD0404F50C
:10090000407402D25B084FEA3202B61A65EB030567
:100910005B084FEA32024FF480104FF4002CB6EB24
:10092000020E75EB030E22BFB61A754640EA0C00A4
:100930005B084FEA3202B6EB020E75EB030E22BFE4
:10094000B61A754640EA5C005B084FEA3202B6EB25
:10095000020E75EB030E22BFB61A754640EA9C00E4
:100960005B084FEA3202B6EB020E75EB030E22BFB4
:10097000B61A754640EADC0055EA060E18D04FEA72
:10098000051545EA16754FEA06164FEAC30343EA12
:1009900052734FEAC2025FEA1C1CC0D111F4801FDF
:1009A0000BD141EA00014FF000004FF0004CB6E7D8
:1009B00011F4801F04BF01430020B4F1FD0C88BF77
:1009C000BCF5E06F3FF6AFAEB5EB030C04BFB6EB82
:1009D000020C5FEA500C50F1000041EB045170BD75
:1009E0000EF0004E4EEA113114EB5C04C2BFD4EBA2
:1009F0000C0541EA045170BD41F480114FF0000E26
:100A0000013C90E645EA060E8DE60CEA135594EAA1
:100A10000C0F08BF95EA0C0F3FF43BAF94EA0C0FA4
:100A20000AD150EA01347FF434AF95EA0C0F7FF419
:100A300025AF104619462CE795EA0C0F06D152EA6D
:100A400003353FF4FDAE1046194622E750EA410651
:100A500018BF52EA43067FF4C5AE50EA41047FF462
:100A60000DAF52EA43057FF4EBAE12E74FF0FF3CC7
:100A700006E000BF4FF0010C02E000BF4FF0010C98
:100A80004DF804CD4FEA410C7FEA6C5C4FEA430C11
:100A900018BF7FEA6C5C1BD001B050EA410C0CBF60
:100AA00052EA430C91EA030F02BF90EA020F0020C2
:100AB000704710F1000F91EA030F58BF994208BF29
:100AC00090422CBFD8176FEAE37040F001007047E6
:100AD0004FEA410C7FEA6C5C02D150EA013C07D13D
:100AE0004FEA430C7FEA6C5CD6D152EA033CD3D088
:100AF0005DF8040B704700BF8446104662468C4682
:100B00001946634600E000BF01B5FFF7B7FF0028B4
:100B100048BF10F1000F01BD4DF808EDFFF7F4FFDD
:100B20000CBF012000205DF808FB00BF4DF808ED68
:100B3000FFF7EAFF34BF012000205DF808FB00BF8B
:100B40004DF808EDFFF7E0FF94BF012000205DF8AD
:100B500008FB00BF4DF808EDFFF7CEFF94BF012062
:100B600000205DF808FB00BF4DF808EDFFF7C4FF5B
:100B700034BF012000205DF808FB00BF4FEA410CA4
:100B80007FEA6C5C02D150EA013C0AD14FEA430C87
:100B90007FEA6C5C02D152EA033C02D14FF00000C4
:100BA00070474FF0010070474FEA410212F5001202
:100BB00015D211D56FF47873B3EB625212D94FEAA4
:100BC000C12343F0004343EA505311F0004F23FA8E
:100BD00002F018BF404270474FF00000704750EAE3
:100BE000013005D111F0004008BF6FF000407047A0
:100BF0004FF00000704700BF4A0011D212F50012FA
:100C000011D20DD56FF47873B3EB62520ED44FEA64
:100C1000C12343F0004343EA505323FA02F07047E4
:100C20004FF00000704750EA013002D14FF0FF3022
:100C300070474FF0000070474FEA4102B2F1E043C5
:100C400024BFB3F5001CDCF1FE5C0DD901F0004CB3
:100C50004FEAC0024CEA5070B2F1004F40EB830003
:100C600008BF20F00100704711F0804F21D113F12F
:100C70003872BCBF01F00040704741F480114FEA68
:100C80005252C2F11802C2F1200C10FA0CF320FAF1
:100C900002F018BF40F001004FEAC1234FEAD3230E
:100CA00003FA0CFC40EA0C0023FA02F34FEA430378
:100CB000CCE77FEA625307D150EA01331EBF4FF001
:100CC000FE4040F44000704701F0004040F0FE401C
:100CD00040F40000704700BF80F0004002E000BF19
:100CE00081F0004142001FBF5FEA410392EA030F17
:100CF0007FEA226C7FEA236C6AD04FEA1262D2EB61
:100D00001363C1BFD218414048404140B8BF5B4265
:100D1000192B88BF704710F0004F40F4000020F0FE
:100D20007F4018BF404211F0004F41F4000121F014
:100D30007F4118BF494292EA030F3FD0A2F101025E
:100D400041FA03FC10EB0C00C3F1200301FA03F19C
:100D500000F0004302D5494260EB4000B0F5000FBF
:100D600013D3B0F1807F06D340084FEA310102F17E
:100D70000102FE2A51D2B1F1004F40EBC25008BF30
:100D800020F0010040EA03007047490040EB0000FA
:100D9000013A28BFB0F5000FEDD2B0FA80FCACF1FB
:100DA000080CB2EB0C0200FA0CF0AABF00EBC25028
:100DB00052421843BCBFD0401843704792F0000F16
:100DC00081F4000106BF80F400000132013BB5E769
:100DD0004FEA41037FEA226C18BF7FEA236C21D0DF
:100DE00092EA030F04D092F0000F08BF0846704744
:100DF00090EA010F1CBF0020704712F07F4F04D112
:100E0000400028BF40F00040704712F100723CBF24
:100E100000F50000704700F0004343F0FE4040F44E
:100E2000000070477FEA226216BF08467FEA23630C
:100E30000146420206BF5FEA412390EA010F40F4F7
:100E4000800070474FF0000304E000BF10F0004343
:100E500048BF40425FEA000C08BF704743F096432A
:100E600001464FF000001CE050EA010208BF704745
:100E70004FF000030AE000BF50EA010208BF7047CC
:100E800011F0004302D5404261EB41015FEA010CE1
:100E900002BF84460146002043F0B64308BFA3F1D9
:100EA0008053A3F50003BCFA8CF2083AA3EBC253BB
:100EB00010DB01FA02FC634400FA02FCC2F12002DA
:100EC000BCF1004F20FA02F243EB020008BF20F011
:100ED0000100704702F1200201FA02FCC2F1200277
:100EE00050EA4C0021FA02F243EB020008BF20EA6C
:100EF000DC70704753B94AB9002908BF00281CBFED
:100F00004FF0FF314FF0FF3000F0A4B9ADF1080C05
:100F10006DE904CE00F03CF8DDF804E0DDE90223E1
:100F200004B0704738B50022002304460D46FFF791
:100F3000FDFD28B920462946BDE8384000F00AB832
:100F4000204605F1004100F005F8404261EB410107
:100F500038BD00BFD0B50C4B002206460F46FFF748
:100F600073FBFFF749FE0446FFF7F4FA074B002234
:100F7000FFF76AFB02460B4630463946FFF7ACF9ED
:100F8000FFF73AFE2146D0BD0000F03D0000F041E1
:100F90002DE9F047089D04468C46002B40F08380E5
:100FA0008A42174647D9B2FA82F242B1C2F1200012
:100FB00024FA00F09140974040EA010C94404FEA37
:100FC0001748230CBCFBF8F61FFA87FE08FB16C176
:100FD00043EA014306FB0EF1994209D9FB1806F1D9
:100FE000FF3080F01981994240F21681023E3B4465
:100FF0005B1AA4B2B3FBF8F008FB103344EA0344D5
:1010000000FB0EFEA64509D93C1900F1FF3380F024
:101010000581A64540F2028102383C4440EA064080
:10102000A4EB0E0400261DB1D4400023C5E9004303
:101030003146BDE8F08702B9FFDEB2FA82F2002A3B
:1010400050D1CB1B4FEA174E1FFA87F80126B3FB8E
:10105000FEFC210C0EFB1C3341EA034108FB0CF3A0
:101060008B4207D979180CF1FF3002D28B4200F283
:10107000E9808446C91AA3B2B1FBFEF00EFB101141
:1010800043EA014408FB00F8A04507D93C1900F1E8
:10109000FF3302D2A04500F2D9801846A4EB080421
:1010A00040EA0C40BFE78B4209D9002D00F0B18027
:1010B0000026C5E9000130463146BDE8F087B3FAA5
:1010C00083F6002E4AD18B4202D3824200F2B880CE
:1010D000841A61EB030101208C46002DA8D0C5E9DC
:1010E000004CA5E7C2F1200320FA03F6974001FA6D
:1010F00002F04FEA174ED9403043030CB1FBFEF625
:101100001FFA87F80EFB161143EA014306FB08F1AC
:10111000994204FA02F409D9FB1806F1FF3C80F069
:101120008D80994240F28A80023E3B445B1A81B234
:10113000B3FBFEF00EFB103341EA034100FB08F362
:101140008B4207D9791800F1FF3C73D28B4271D9D9
:1011500002383944CB1A40EA064678E7C6F1200C3B
:1011600003FA06F422FA0CF31C4320FA0CF701FAF6
:1011700006F34FEA144E21FA0CF11F433B0CB1FB6E
:10118000FEF91FFA84F80EFB191143EA014109FB2D
:1011900008FA8A4502FA06F200FA06F308D961183D
:1011A00009F1FF3048D28A4546D9A9F10209214404
:1011B000A1EB0A01BFB2B1FBFEF00EFB101147EA32
:1011C000014700FB08F8B84507D9E71900F1FF31DE
:1011D0002ED2B8452CD90238274440EA0940A7EB63
:1011E0000807A0FB02894F45C64649461AD317D0C7
:1011F0005DB1B3EB0E0267EB010707FA0CFCF2409E
:101200004CEA0202F740C5E9002700263146BDE856
:10121000F0872E4628460BE70646E9E61846FDE627
:101220004345E5D2B8EB020E69EB04010138DFE774
:101230000846D2E760468DE78146B9E7664675E71E
:1012400030464AE7ACF1020C394413E702383C441B
:1012500024E700BF704700BF30B595B034220021AD
:1012600007A808F0FCFC002402940394049405945D
:1012700006940094194B1A6C42F080521A641B6C4D
:1012800003F080530093009B0194154B1A6842F4BD
:1012900040421A601B6803F440430193019B0225FE
:1012A000079501230A9310230B930D950E940F932A
:1012B000C023109311951295139507A807F0D2FC3F
:1012C0000F230293039504944FF4805305930694DF
:1012D000032102A807F0F2FB15B030BD0038024030
:1012E0000070004030B585B008F04AFAFFF7B4FF4F
:1012F00001F0F0FC01F026FE02F0CEF902F058F900
:1013000001F064FE01F046FD01F08EFF01F0BEFF2A
:1013100001F0F0FF01F0F4FE05F0DAF802F0A8FAAF
:1013200002F01CFC02F0F6FA02F0A0FDC1E004F0AD
:101330007DFE04F031FC02F06FFE002005F042F962
:10134000002005F0DBF80024B1E004F0B1FD00203E
:1013500001F006FB012005F00DFA9FED6B0A05F088
:1013600045FA41F2883008F037FAE2E704F0A0FDD0
:10137000012005F0FFF90024642C0BDC20B205F0FD
:1013800021F9604200B205F0B9F8052008F024FA0E
:101390000134F1E7642414F1640F0BDB20B205F093
:1013A00011F9604200B205F0A9F8052008F014FA1E
:1013B000013CF0E76FF06304002CBADA20B205F0CC
:1013C00001F9604200B205F099F8052008F004FA2E
:1013D0000134F1E700F0A8FFABE7012005F0CAF9FE
:1013E00001F054F94FF4FA7008F0F6F901F05EF9E3
:1013F0004FF4FA7008F0F0F99BE7022001F0B0FA20
:1014000001F0DCF801F0ECF801F018F901F016F940
:10141000002001F0A5FA01F011F901F00FF901F037
:10142000F1F886E7022001F09BFA01F0C7F801F01D
:10143000D7F801F003F901F001F9002001F090FA6A
:1014400001F07AF901F0FAF801F0F8F801F0DAF8B1
:101450006FE704F0EDFE6CE72C4D2D4C2B46224639
:101460000A21084602F0EAFE0023029301230193B9
:10147000284B00930A231A462946204604F06AFAAC
:1014800057E7254D01224FF46451284607F094FE9A
:101490004FF42F7008F0A0F900224FF46451284651
:1014A00007F08AFE4FF4967008F096F90134022C8A
:1014B000E7DD04F0C1FC04F075FB0F283FF639AFFF
:1014C00001A353F820F000BF2F1300084B130008AE
:1014D0006D130008D5130008DB130008FB13000888
:1014E00025140008531400083313000833130008B0
:1014F00033130008331300083313000833130008B4
:101500003313000859140008AE47213F2C04002073
:101510002C0800200000002000000240704700005E
:101520001C4A82FB0032C317C3EB62131BB210F1DB
:10153000630F03DA184B93ED000A704740F61B4225
:10154000904203DD144B93ED1F0A7047114981FB54
:101550000021C217C2EB6112642101FB120000B22C
:10156000591C0D4A02EB810191ED007A02EB8303D5
:10157000D3ED007A37EE677A9FED086AC7EE066A08
:1015800007EE100AB8EEC70A20EE260A37EE800AE8
:10159000704700BF1F85EB51940000200000C84237
:1015A0001C4A82FB0032C317C3EB62131BB210F15B
:1015B000630F03DA184B93ED000A704740F61B42A5
:1015C000904203DD144B93ED1F0A7047114981FBD4
:1015D0000021C217C2EB6112642101FB120000B2AC
:1015E000591C0D4A02EB810191ED007A02EB830355
:1015F000D3ED007A37EE677A9FED086AC7EE066A88
:1016000007EE100AB8EEC70A20EE260A37EE800A67
:10161000704700BF1F85EB51140000200000C84236
:1016200008B50346002813DB5B1110F11F0F12DA17
:101630001F4B1868FEF7B0FF02460B461AA1D1E90E
:101640000001FEF749FEFFF7F7FA00EE100A08BDA9
:1016500000F11F03E8E7B0F5FC6F03DB144BD3F890
:10166000FC00E7E7424200F01F0002F01F0258BFF3
:101670005042591C0E4A02EB8101D1ED007A02EB77
:10168000830393ED007A77EEC77ADFED0A6A67EE9F
:10169000A66A07EE900AF8EEE77A67EEA67A77EE8A
:1016A000277A17EE900AC5E70AD7A3703D0AB73F1D
:1016B000140100200000003D08B502F011F9034AB2
:1016C0001388C31A108018B208BD00BF160200208C
:1016D00008B502F00BF9034A1388C31A108018B238
:1016E00008BD00BF1402002008B52DED028BFFF7E6
:1016F000E3FF07EE900AF8EEE77A9FED2B7A67EEAC
:10170000877ADFED2A8A87EEA88AFFF7E1FF07EEE6
:10171000900AF8EEE77A9FED267A67EE877A87EEF1
:10172000A87ADFED246A68EE267A234BC3ED007AAF
:1017300027EE267A214B83ED007A214BD3ED006A08
:10174000F4EEE67AF1EE10FA17DDC3ED007A1D4BE8
:10175000D3ED006AB4EEE67AF1EE10FA18DD83ED0F
:10176000007A77EE877AB6EE007A67EE877A164BC4
:10177000C3ED007ABDEC028B08BD144BD3ED006ABB
:10178000F4EEE67AF1EE10FAE1D5C3ED007ADEE789
:101790000F4BD3ED006AB4EEE67AF1EE10FAE0D525
:1017A00083ED007ADDE700BF7B59C4C500C07F44EC
:1017B0007B59C4452A89CF3BA80C00209C0C0020F3
:1017C000AC0C0020A00C0020880C0020B00C0020E5
:1017D000A40C0020014B93ED000A7047A80C0020D8
:1017E000014B93ED000A7047AC0C0020014B93EDC8
:1017F000000A7047B00C0020014B93ED000A7047BF
:10180000A00C00200023044A1360044A1360044A19
:101810001360044A13607047B00C0020AC0C002029
:10182000A40C0020A00C0020014B93ED000A70478F
:10183000880C00200000000038B52DED028B3A4BDB
:101840001A883A4BA3FB0213DB0803EB8303A2EBDA
:1018500043039CB2FFF7E8FF354A02EBC40484ED72
:10186000000A02F031FA84ED010ADFED327AB0EEBF
:10187000677A0023092B0DD82D4A02EBC302D2ED63
:10188000006A37EE267AD2ED016A77EEA67A013346
:101890009BB2EFE7F2EE046AC7EE268A87EEA68ACD
:1018A000B5EEC08AF1EE10FA30D4F6EE007AB4EE5E
:1018B000E78AF1EE10FA4CBF012300230BB19FED34
:1018C0001D8A18EE100AFEF767FE15A3D3E9002360
:1018D000FEF7BAFE0022184BFEF7B6FE04460D4690
:1018E00018EE900AFEF758FE22462B46FEF7F6FC4D
:1018F000FFF7A2F9114B1860114B83ED008A0A4AD9
:10190000138801331380BDEC028B38BDFEEE007AE4
:10191000B4EEE78AF1EE10FACCBF01230023CDE745
:101920007B14AE47E17A843F2C0C0020CDCCCCCC8C
:10193000300C0020000000000000E03F8C0C002074
:10194000800C0020014B93ED000A70478C0C0020A6
:10195000014B93ED000A7047800C0020000000004E
:1019600070B5FFF7EFFF10EE100AFEF715FE0BA3A0
:10197000D3E90023FEF768FE04460D46064E3068A4
:10198000FEF70AFE22462B46FEF7A8FCFFF754F9A5
:10199000306070BDAFF30080840C0020FCA9F1D250
:1019A0004D62503F014B93ED000A7047840C0020BC
:1019B000014B83ED000A7047840C002000000000FA
:1019C00070B502F09DF910EE100AFEF7E5FD13A3C5
:1019D000D3E90023FEF738FE04460D460C4E96ED83
:1019E000007ADFED0C7A67EE277A17EE900AFEF7A1
:1019F000D3FD02460B4620462946FEF76FFCFFF753
:101A00001BF9054B1860306070BD00BFAFF300805C
:101A1000900C0020A7BB913E980C002051FF2F9AFC
:101A200045E4E63F014B93ED000A7047980C002017
:101A300070B50D4B1868FEF7AFFD09A3D3E900237D
:101A4000FEF702FE04460D46084E3068FEF7A4FD80
:101A500022462B46FEF742FCFFF7EEF8306070BDE1
:101A6000FCA9F1D24D62503F980C0020940C00204C
:101A700008B5FFF7A5FFFFF773FFFFF7D9FF08BD14
:101A8000014B93ED000A7047940C0020014B83ED4D
:101A9000000A7047940C0020014B93ED000A704738
:101AA000C40C0020014B93ED000A7047C00C0020CD
:101AB00070B52DED048B04F069FEF0EE408AFFF75F
:101AC00041FF78EEC08A04F067FEB0EE408AFFF76F
:101AD000A9FF38EE408A18EE900AFEF75DFD5AA382
:101AE000D3E90023FEF7B0FD04460D464E4E3068A4
:101AF000FEF752FD22462B46FEF7F0FBFFF79CF85F
:101B000009EE100A306018EE100AFEF745FD3CA3FE
:101B1000D3E90023FEF798FD04460D46434E306896
:101B2000FEF73AFD22462B46FEF7D8FBFFF784F876
:101B300007EE900A30609FED3E0A68EE808A79EEEB
:101B4000288A9FED3C0A28EE008A37EE888A04F046
:101B500023FE394ED6ED007A70EE677A17EE900AC2
:101B6000FEF71AFD28A3D3E90023FEF76DFDFFF76A
:101B700063F807EE100ADFED317A67EE277A17EE89
:101B8000900AFEF709FD04460D4604F005FE10EE2E
:101B9000100AFEF701FD1EA3D3E90023FEF754FD52
:101BA00002460B4620462946FEF798FBFFF744F80D
:101BB000234BC3ED008AFEF7EFFC17A3D3E9002304
:101BC000FEF742FD04460D4618EE100AFEF7E4FC4F
:101BD00013A3D3E90023FEF737FD02460B46204648
:101BE0002946FEF77BFBFFF727F8164B186004F039
:101BF000D3FD86ED000ABDEC048B70BDAFF3008011
:101C00007B14AE47C148793FFCA9F1D24D62503FE9
:101C10007B14AE47E17AA43F333333333333D33FBE
:101C2000666666666666E63FB40C0020BC0C002063
:101C30005A64A541AD2FB23EB80C002000007A4591
:101C4000C40C0020C00C002077BE9F1A8FB8B93F8B
:101C50000023024A1360024A13607047B40C00204C
:101C6000BC0C00200000000010B5094C2068FEF7F5
:101C700093FC05A3D3E90023FEF7E6FCFEF7DCFFA7
:101C8000206010BDAFF30080AE47E17A14AEEF3FA5
:101C9000BC0C0020000000000D4B1B7873B90D4BED
:101CA00007A1D1E90001C3E900010B4B06A1D1E96D
:101CB0000001C3E90001064B01221A70704700BF02
:101CC000E2AB1DC539EA983F1442075DC2A1973FB8
:101CD000D80D0020C80D0020D00D002008B5044B01
:101CE000D3E90001FEF7A8FF00EE100A08BD00BF0F
:101CF000D00D002008B5044BD3E90001FEF79CFF8E
:101D000000EE100A08BD00BFC80D0020014B187876
:101D1000704700BF180200202DE9F0472DED028B1F
:101D200082B0012002F0D2F9FFF77AFC10EE100A1F
:101D3000FEF732FC04460D46CDE90045022002F0D4
:101D4000C5F9FFF76DFC10EE100AFEF725FC41EC1B
:101D5000180B6D4BD3E9002320462946FEF7BCFA49
:101D600004460D4600220023FEF7E0FE00283ED187
:101D7000664BD3E9002351EC180BFEF7ADFA06468B
:101D80000F4600220023FEF7D1FE002833D1604B1E
:101D9000B3F800A05F4BA3FB0A23DB0803EB83032C
:101DA000AAEB43039BB25C4A02EB0313C3E900674F
:101DB000C3E90245002400260027B046B946092C95
:101DC0001DD8554D05EB0415D5E90023404649467D
:101DD000FEF784FA80468946D5E902233046394623
:101DE000FEF77CFA06460F460134A4B2E7E705F198
:101DF00000431D46BCE707F100431F46C7E700222A
:101E0000464B40464946FEF749FD04460D46002232
:101E1000424B30463946FEF741FD0AF1010A3C4B80
:101E2000A3F800A032A3D3E90023FEF79DFE48B338
:101E30003B4B31A1D1E90001C3E900012CA3D3E957
:101E4000002320462946FEF78FFE10B3354B2AA10A
:101E5000D1E90001C3E90001314BD3E90045DDE9D7
:101E6000002320462946FEF77FFEC8B153EC182B0D
:101E70002C49D1E90001FEF777FE88B12A4B0222F6
:101E80001A7017E0264B1EA1D1E90001C3E9000139
:101E9000D4E7244B1AA1D1E90001C3E90001DBE733
:101EA000DDE9002320462946FEF75EFE78B11E4B91
:101EB00001221A70144B9DED007B83ED007B134BC8
:101EC00083ED008B02B0BDEC028BBDE8F08753ECD4
:101ED000182B1449D1E90001FEF746FE18B1124B48
:101EE00000221A70E6E7104B03221A70E2E700BFE7
:101EF000D2FBC6D79E59123FBA1E85EB51B88E3F12
:101F0000EC51B81E85EBA13FA80D0020B80D0020B4
:101F1000C80C0020CDCCCCCCD00C0020000024403C
:101F2000B00D0020C00D00201802002000000000AD
:101F3000F8B5394B1B78012B05D0022B36D0E3B115
:101F40009FED330BF8BD354BD3E90045012002F07E
:101F5000BDF8FFF765FB10EE100AFEF71DFB024609
:101F60000B4620462946FEF7B7F900224FF04043C2
:101F7000FEF76AFB41EC100BE4E7294BD3E900457F
:101F8000022002F0A3F8FFF74BFB10EE100AFEF759
:101F900003FB02460B4620462946FEF79DF9024602
:101FA0000B46FEF79BF941EC100BCBE71C4BD3E93A
:101FB0000045022002F08AF8FFF732FB10EE100A0B
:101FC000FEF7EAFA02460B4620462946FEF784F958
:101FD00004460D46114BD3E90067012002F076F864
:101FE000FFF71EFB10EE100AFEF7D6FA02460B466C
:101FF00030463946FEF770F902460B462046294620
:10200000FEF76AF941EC100B9CE700BFAFF30080CC
:10201000000000000000000018020020C80D002091
:10202000D00D002038B52DED028BFFF781FF51EC6C
:10203000100B0022114BFEF707FB04460D46FFF77D
:10204000F3FBF1EE408AFFF71BFDB0EE408A04F08F
:10205000C7FB38EE408A68EE887A17EE900AFEF7E2
:102060009BFA02460B4620462946FEF737F9FEF753
:10207000E3FD034B1860BDEC028B38BD00006940E6
:10208000E00D0020014B93ED000A7047E00D0020A9
:102090002DE9F04F2DED088B87B0002002F016F8E7
:1020A000FFF77EFA10EE100AFEF776FA06460F46A4
:1020B000032002F00BF8FFF733FA10EE100AFEF7D8
:1020C0006BFA04460D4674A3D3E900233046394623
:1020D000FEF702F906460F4671A3D3E90023204616
:1020E0002946FEF7F9F804460D4602460B463046EF
:1020F0003946FEF7F3F88046894632463B4620468D
:102100002946FEF7E9F868A3D3E90023FEF7C6FBEA
:1021100006460F4666A3D3E9002340464946FEF72C
:1021200093FA594CD4E90023FEF7D8F841EC1B0B85
:10213000C4E9000146A3D3E9002330463946FEF73F
:1021400083FA524CD4E90023FEF7C8F841EC1A0B8D
:10215000C4E9000140A3D3E9002340464946FEF705
:1021600073FA04460D463EA3D3E9002330463946B0
:10217000FEF76AFACDE90201DFF83CB1DBE90023A2
:10218000CDE9008940464946FEF7A6F836A3D3E9D3
:102190000023FEF759FADFF82491D9E90023FEF76E
:1021A0009DF833A3D3E90023FEF778FB41EC190B2C
:1021B000DFF80CA1DAE9002330463946FEF78CF847
:1021C0002DA3D3E90023FEF73FFADFF8F880D8E922
:1021D0000023FEF783F82AA3D3E90023FEF75EFB72
:1021E00041EC180B22462B4651EC1B0BFEF776F800
:1021F00053EC192BFEF772F8CDE90401DDE9022357
:1022000051EC1A0BFEF76AF853EC182BFEF766F840
:1022100004460D46DDE90401FEF70EFD1C4B186077
:1022200020462946FEF708FD1A4B18609DED007BFD
:102230008BED007BCAE9006789ED009B88ED008B80
:1022400007B0BDEC088BBDE8F08F00BFAFF3008096
:1022500060E5D0229BA5643F00000000C6344940E1
:10226000000000E08A9E194000000060A2AB5340CD
:10227000C1CAA1852062F03F00000000236C22400B
:102280007368916D81B6F03F800D0020980D00209D
:10229000E40D0020DC0D00202F6EA301BC05823F61
:1022A000000000C0E1E9853F000000E0BED5A23F8C
:1022B00008AC1C5AD4DF9A3F880D0020780D00200E
:1022C000A00D0020900D0020014B93ED000A7047F7
:1022D000E40D0020014B93ED000A7047DC0D002057
:1022E000002200230949C1E900230949C1E900236B
:1022F0000849C1E900230849C1E900230749C1E9A8
:1023000000230749C1E90023704700BF800D00206A
:10231000980D0020880D0020A00D0020780D0020D1
:10232000900D002000000000F8B5012000F018FB1F
:102330000023534A1380534A13802AE0032001F0FC
:10234000C5FEFFF7EDF8DFED507A77EEC07AF1EEDB
:10235000677A17EE900A35E0002001F0B7FEFFF72C
:102360001FF910EE100AFEF717F902460B4640A1BE
:10237000D1E90001FDF7B0FF044601F100454DE051
:102380003F4B1B88C72B5FD83E4B1B88B3F5FA7FAA
:102390005AD2032001F09AFEFFF7C2F8DFED3A7A35
:1023A00077EEC07AF5EEC07AF1EE10FAC6D40320CB
:1023B00001F08CFEFFF7B4F8DFED337A77EEC07AE8
:1023C00017EE900AFEF7E8F806460F46002001F0E7
:1023D0007DFEFFF7E5F810EE100AFEF7DDF8024685
:1023E0000B4623A1D1E90001FDF776FF002200236F
:1023F000FEF79CFB0028AFD1002001F067FEFFF73D
:10240000CFF810EE100AFEF7C7F802460B4618A1E7
:10241000D1E90001FDF760FF04460D4632463B4618
:1024200020462946FEF782FB08B134463D4612A3FA
:10243000D3E9002320462946FEF796FB00289FD0CB
:102440000F4B00221A809BE704F0ACF9FFF7B0FABB
:1024500004F0C0F9FFF71AFB04F0A4F904F0A8F99E
:1024600004F0B8F904F0AAF9002000F079FAF8BDF8
:102470002F6EA301BC05823F2D431CEBE2362A3FA1
:10248000700D0020720D00200E4F2F3C0B4B1A8850
:10249000013292B21A800A490B8801339BB20B8039
:1024A000C82A02D9054AC8211180B3F5FA7F03D999
:1024B000034B4FF4FA721A80704700BF700D002072
:1024C000720D002008B5FFF7E7FBFFF725FCFFF7CB
:1024D000A9FDFFF7DDFDFFF7D9FF08BD08B52DED1C
:1024E000028B04F05FF9B0EE408AFFF75BFA38EE3A
:1024F000408AB5EEC08AF1EE10FA4CBF01200020F0
:10250000BDEC028B08BD08B52DED028B04F04AF935
:10251000B0EE408AFFF746FA38EE408A04F036F90A
:10252000F0EE408A04F032F968EE808AB0EE087A64
:10253000C8EE877AB4EEE78AF1EE10FA4CBF0120BC
:102540000020BDEC028B08BD08B52DED028B04F018
:1025500041F9B0EE408A04F043F938EE408AB5EE16
:10256000C08AF1EE10FA13D404F034F9B0EE408AC8
:1025700004F036F938EE408ADFED0E7AB4EEE78AE1
:10258000F1EE10FA4CBF01200020BDEC028B08BD1B
:1025900004F020F9B0EE408A04F022F938EE408AC7
:1025A000DFED057AB4EEE78AF1EE10FACCBF012038
:1025B0000020EAE76F12833A6F1283BA08B5002051
:1025C00004F0CCF8002004F0D5F89FED040A04F0E4
:1025D0000DF9FFF783FF0028FBD008BD22727A3C7B
:1025E00008B5002004F0BAF8002004F0C3F89FED0D
:1025F000040A04F0FBF8FFF771FF0028FBD008BDC8
:10260000EC51383D08B5002004F0A8F8012004F092
:10261000B1F89FED090A04F0E9F8012004F0B0F8E0
:10262000FFF771FF0028FBD0002004F0A9F8642018
:1026300007F0D2F808BD00BFEC51383D08B50020C6
:1026400004F08CF8002004F095F89FED040A04F0E3
:10265000CDF8FFF743FF0028FBD008BDEC51B83D93
:1026600008B52DED028BB0EE408A002004F076F81C
:10267000002004F07FF8B0EE480A04F0B7F8FFF746
:102680002DFF0028FBD0BDEC028B08BD08B5012052
:1026900004F06AF89FED040A04F0B2F8FFF754FF63
:1026A0000028FBD008BD00BFDA0FC9BF08B5002065
:1026B00004F05AF89FED040A04F0A2F8FFF744FF73
:1026C0000028FBD008BD00BFDA0FC93F08B50020C5
:1026D00004F04AF89FED040A04F092F8FFF734FF83
:1026E0000028FBD008BD00BFDA0F4940014B002293
:1026F0001A707047EB0D00200023034A1370034A41
:102700001370034A13707047E80D0020EA0D002093
:10271000E90D0020014B01221A707047E80D0020DE
:10272000014B01221A707047EA0D0020014B012273
:102730001A707047E90D002008B52DED028B9FED52
:10274000098AB0EE480AFFF78BFFFFF79FFF9FED66
:10275000060A04F04BF8B0EE480AFFF781FFBDEC23
:10276000028B08BD5839343C68B36A3D08B52DED7D
:10277000028B9FED098AB0EE480AFFF771FFFFF761
:1027800095FF9FED060A04F031F8B0EE480AFFF716
:1027900067FFBDEC028B08BD5839343C68B36A3D15
:1027A00008B50F4B1B784BB10D4B1B78012B0ED08E
:1027B0000B4B01221A70FFF79FFF08BD022000F0AB
:1027C000CFF8FFF70DFF002000F0CAF8ECE7022079
:1027D00000F0C6F8FFF732FF002000F0C1F8E7E78D
:1027E000EB0D002008B5104B1B786BB90F4B1B7815
:1027F000012B13D0FFF74AFF022000F0B1F8FFF7DA
:10280000EFFE002000F0ACF8074B1B78012B08D03E
:10281000054B01221A70FFF76FFF08BDFFF784FD1B
:10282000E8E7FFF789FFF3E7EB0D0020E80D002054
:1028300008B5104B1B786BB90F4B1B78012B13D0CD
:10284000FFF734FF022000F08BF8FFF7C9FE0020ED
:1028500000F086F8074B1B78012B08D0054B0122AE
:102860001A70FFF749FF08BDFFF75EFDE8E7FFF7C5
:102870007DFFF3E7EB0D0020E80D002008B5344B99
:102880001B786BB9334B1B78012B13D0FFF71EFF5E
:10289000022000F065F8FFF7A3FE002000F060F8CA
:1028A0002B4B1B78012B20D0294B01221A70FFF7EC
:1028B00023FF08BDFFF738FD274B1B78012B06D0FF
:1028C000264B1B78012B09D0FFF700FFE0E7FFF74D
:1028D000DDFEFFF729FDFFF7D9FED9E7FFF7E6FE9A
:1028E000FFF722FDFFF7E2FED2E7022000F038F802
:1028F000FFF788FE002000F033F8164B1B78012B01
:102900000AD0FFF7E3FE022000F02AF8FFF768FE86
:10291000002000F025F8C7E7FFF706FD0E4B1B78F7
:10292000012B06D00D4B1B78012B09D0FFF7CEFEF3
:10293000E9E7FFF7ABFEFFF7F7FCFFF7A7FEE2E7DB
:10294000FFF7B4FEFFF7F0FCFFF7B0FEDBE700BFD8
:10295000EB0D0020E80D0020EA0D0020E90D00201D
:10296000014B1870704700BFEC0D002008B5FFF751
:1029700093F8044B83ED000AFFF794F8024B83EDC4
:10298000000A08BD000E0020F40D002008B5FFF776
:102990009BFC044B83ED000AFFF79CFC024B83ED8C
:1029A000000A08BD000E0020F40D00200000000009
:1029B00038B5FEF739FF10EE100AFDF7EDFD56A30E
:1029C000D3E90023FEF7D0F8002800F08C80FFF751
:1029D0009DF9032800F29180DFE800F0022A527A84
:1029E000FFF75AF84A4B83ED000AFFF74BFB10EE56
:1029F000100AFDF7D1FD42A3D3E90023FDF724FE21
:102A000004460D46FFF74EF810EE100AFDF7C4FD20
:102A10003DA3D3E90023FDF717FE02460B462046EF
:102A20002946FDF75BFCFEF707F93A4B186064E0B6
:102A3000FFF732F8364B83ED000AFFF723FB10EE69
:102A4000100AFDF7A9FD2EA3D3E90023FDF7FCFD35
:102A500004460D46FFF726F810EE100AFDF79CFD20
:102A600029A3D3E90023FDF7EFFD02460B462046DC
:102A70002946FDF733FCFEF7DFF8264B18603CE0F3
:102A8000FFF70AF8224B83ED000AFFF7FBFA10EE7E
:102A9000100AFDF781FD1AA3D3E90023FDF7D4FD49
:102AA00004460D46FEF7FEFF10EE100AFDF774FD1A
:102AB00015A3D3E90023FDF7C7FD02460B462046C8
:102AC0002946FDF70BFCFEF7B7F8124B186014E02F
:102AD000FEF7E2FF0E4B83ED000AFEF7E3FF0D4B1E
:102AE00083ED000A09E0FEF7D7FF094B83ED000AEA
:102AF000FEF7D8FF074B83ED000A38BDAFF3008027
:102B0000333333333333D33F666666666666E63FF8
:102B1000000E0020F40D00209A9999999999B93FD7
:102B20000023024A1360024A13607047FC0D002024
:102B3000F80D002008B5094B1B78012B08D0022B9B
:102B400009D013B1FFF7ECFF01E0FFF70FFF08BD5D
:102B5000FFF71CFFFBE7FFF72BFFF8E7EC0D00206A
:102B600008B5154B1B78012B06D0022B07D003B1FB
:102B700008BDFFF7B5FBFBE7FFF76AF8F8E7FEF7DC
:102B800053FE10EE100AFDF707FD09A3D3E9002359
:102B9000FDF7EAFF10B9FFF7A3FBE9E7FFF7B6F887
:102BA0000328F8D0FFF760F8F5E700BFAFF3008027
:102BB0009A9999999999B93FEC0D00200B4BD3ED57
:102BC000007A0B4B93ED006A37EE867AF6EE006AD8
:102BD00027EE267A074B83ED007A77EEC67A67EE0A
:102BE000A67A054BC3ED007A704700BF000E0020A7
:102BF000F40D0020FC0D0020F80D002008B52DED8F
:102C0000028B114B93ED008A00F020FEC8EE007A93
:102C10009FED0E8A67EE887AFDEEE77A0C4B17EE91
:102C2000902A1A800B4BD3ED008A00F00FFEC8EEFD
:102C3000807A67EE887AFDEEE77A074B17EE902AE6
:102C40001A80BDEC028B08BDFC0D002000007A4408
:102C5000F00D0020F80D0020EE0D00200C4BB3F914
:102C60000030002B0BDD1433094A1380094BB3F9F4
:102C70000030002B07DD1433064A13807047193BE0
:102C8000034A1380F2E7193B024A1380704700BFE2
:102C9000F00D0020EE0D002008B5054BB3F9000043
:102CA00003F02CFC034BB3F9000003F08BFC08BDD0
:102CB000EE0D0020F00D002008B5FFF73BFFFFF7F9
:102CC0004FFFFFF77BFFFFF799FFFFF7C7FFFFF706
:102CD000E3FF08BD2DE9F04389B000240394049478
:102CE0000594069407940194274B1A6B42F0010255
:102CF0001A631A6B02F001020192019A02941A6B94
:102D000042F002021A631B6B03F002030293029B60
:102D10001E4D224643F6F011284606F04DFADFF824
:102D2000708022464FF48051404606F045FAF02369
:102D300003930127049705940326069603A92846C2
:102D400006F05AF94FF00209CDF80C90049405945E
:102D500003A9404606F050F94FF4805303930497BB
:102D60000594069603A9404606F046F94FF46453CD
:102D700003930497CDF81490069603A9284606F00D
:102D80003BF909B0BDE8F083003802400000024082
:102D90000004024000B585B0002300930193029324
:102DA00003933048304A02604FF4803242608360BF
:102DB00001220261037680F820304FF04051C16259
:102DC0004FF000718162C3600521C16180F830203D
:102DD000436103F0B9FF002831D108230093012398
:102DE00001930323029369461E4804F0C5F848BBCB
:102DF000002300930223019369461A4804F0BCF8AB
:102E000018BB01230093032301936946154804F07E
:102E1000B3F8E8B9022300930423019369461148EB
:102E200004F0AAF8B8B90323009305230193694677
:102E30000C4804F0A1F888B905B05DF804FBFEF772
:102E40006DFBCAE7FEF76AFBD2E7FEF767FBD8E740
:102E5000FEF764FBDEE7FEF761FBE4E7FEF75EFBEF
:102E6000EAE700BF380C02200020014070B588B0AE
:102E7000002303930493059306930793026803F1D9
:102E8000804303F590339A4201D008B070BD0446E8
:102E90000025009503F58C335A6C42F480725A6415
:102EA0005A6C02F480720092009A01951A6B42F0FB
:102EB00001021A631A6B02F001020192019A029553
:102EC0001A6B42F002021A631B6B03F002030293B7
:102ED000029B0F23039303260496059503A9154827
:102EE00006F08AF8012303930496059503A9124876
:102EF00006F082F81148124B036045608560C5609A
:102F00004FF4806303614FF4006343614FF4005357
:102F100083614FF48073C3614FF4403303624562B1
:102F200006F0D0F918B9054BA3639C63ADE7FEF733
:102F3000F5FAF8E70000024000040240800C02208D
:102F40001064024010B582B0002400941E4B1A6B2E
:102F500042F400121A631A6B02F400120092009AF3
:102F600001941A6B42F480021A631B6B03F4800312
:102F70000193019B224621460E2006F083FB0E2082
:102F800006F0B4FB224621460F2006F07BFB0F2003
:102F900006F0ACFB22462146382006F073FB3820B1
:102FA00006F0A4FB22460121392006F06BFB3920F4
:102FB00006F09CFB224601213A2006F063FB3A20F2
:102FC00006F094FB02B010BD0038024008B50F486F
:102FD0000F4B03604FF48273436000238360C36030
:102FE00002220261012242614FF4007282612022BA
:102FF000C2610362436283620A23C36204F052F92E
:1030000000B908BDFEF78AFAFBE700BFE00C02201A
:103010000038004030B589B0002303930493059332
:10302000069307930268304B9A4201D009B030BD35
:1030300004460025019503F500331A6C42F48042E2
:103040001A641A6C02F480420192019A02951A6B7A
:1030500042F002021A631B6B03F002030293029B0D
:103060004FF46043039302230493059503230693CF
:103070000523079303A91D4805F0BEFF1C481D4BFF
:10308000036045608560C5604FF4806303614561FE
:103090008561C5614FF400330362456206F012F9A1
:1030A000D8B9134BE3649C631348144B03600023AB
:1030B000436040228260C3604FF4806202614361DA
:1030C0008361C3614FF400320262436206F0FAF892
:1030D00030B9094BA3649C63A8E7FEF71FFAE0E749
:1030E000FEF71CFAF5E700BF00380040000402407C
:1030F000380D022058600240980D02207060024096
:1031000010B596B00024129413941494159410944E
:10311000119409940A940B940C940D940E940F94AA
:103120002022214601A806F09AFD3D483D4B036050
:10313000446084604FF6FF13C3600461446184619E
:1031400004F0ACFE002850D14FF48053129312A922
:10315000334805F020F800284AD1314804F0D2FE67
:10316000002848D12E4804F0B3FE002846D10023A1
:103170001093119310A92A4805F022F9002840D194
:103180006023099301230A9300220B920C920D9263
:103190000E920F9209A9224804F083FF002833D130
:1031A00041F658330A93042209A91D4804F079FF17
:1031B00068BB302309934FF4B4530A93082209A93A
:1031C000174804F03FFF28BB0023019302930393A9
:1031D000049305934FF400520692089301A91048F6
:1031E00005F011F9C8B916B010BDFEF797F9ABE7B5
:1031F000FEF794F9B1E7FEF791F9B3E7FEF78EF920
:10320000B5E7FEF78BF9BBE7FEF788F9C8E7FEF7ED
:1032100085F9CEE7FEF782F9D6E7FEF77FF9E2E718
:103220009C0F02200000014000B58DB000230193E7
:10323000029315484FF080420260436083604FF66E
:10324000FF72C2600361836103220392049301222F
:10325000059206930793089309920A930B9303A987
:1032600004F06AFE50B900230193029301A90648B5
:1032700005F0A6F828B90DB05DF804FBFEF74EF98D
:10328000F1E7FEF74BF9F6E7EC0F022000B58DB041
:103290000023019302931548154A0260436083603E
:1032A0004FF6FF72C26003618361032203920493AD
:1032B0000122059206930793089309920A930B93B0
:1032C00003A904F039FE50B900230193029301A928
:1032D000064805F075F828B90DB05DF804FBFEF757
:1032E0001DF9F1E7FEF71AF9F6E700BF000F02201B
:1032F0000004004000B583B00023009301930F4801
:103300000F4A026003224260836045F6BF52C260EA
:10331000836104F0C3FD50B9002300930193694613
:10332000064805F04DF828B903B05DF804FBFEF738
:10333000F5F8F1E7FEF7F2F8F6E700BF5C0F0220C0
:103340000010004010B584B00368404A934207D093
:103350003F4A934258D03F4A934262D004B010BDD6
:1033600004460023019302F59C32516C41F00101A7
:103370005164526C02F001020192019A3648374AB8
:1033800002604FF04062426040228260C3604FF4AE
:10339000806202614FF4006242614FF40052826128
:1033A0004FF48072C2614FF400320262436205F052
:1033B00089FF18BB284B63629C632948294B036033
:1033C0004FF040634360402383600023C3604FF4A9
:1033D000806202614FF4006242614FF400528261E8
:1033E0004FF48072C2614FF400320262436205F012
:1033F00069FF30B91A4BA3629C63AFE7FEF78EF802
:10340000D8E7FEF78BF8F5E700230293164B1A6C0A
:1034100042F004021A641B6C03F004030293029B43
:103420009CE700220392104B196C41F010011964C3
:103430001B6C03F010030393039B0221362006F05C
:1034400021F9362006F052F988E700BF000001405C
:103450000008004000100040F80D022028640240DF
:10346000A00E0220406402400038024070B58AB0CD
:103470000023059306930793089309930368B3F118
:10348000804F04D02F4A93423AD00AB070BD002436
:10349000009403F50E331A6C42F001021A641A6CA0
:1034A00002F001020092009A01941A6B42F00102AC
:1034B0001A631A6B02F001020192019A02941A6BCC
:1034C00042F002021A631B6B03F002030293029B99
:1034D0004FF40043059302260696079408940125AD
:1034E000099505A9184805F087FD08230593069658
:1034F00007940894099505A9144805F07DFDC4E7D3
:1035000000220392124B196C41F002011964196CEC
:1035100001F00201039103990492196B41F0020139
:1035200019631B6B03F002030493049B3023059380
:103530000223069307920892099305A9034805F010
:103540005BFDA2E7000400400000024000040240CE
:103550000038024000B587B0002301930293039323
:10356000049305930268104B9A4202D007B05DF8AD
:1035700004FB0021009103F50C331A6B42F00202A8
:103580001A631B6B03F002030093009B4FF47073EC
:10359000019302230293039103220492059301A94C
:1035A000024805F029FDE1E7000800400004024060
:1035B00000B58FB000230A930B930C930D930893DF
:1035C000099301930293039304930593069307933E
:1035D0002F48304A02604360836040F2BF32C260CD
:1035E0000361836104F05AFC002839D14FF4805301
:1035F0000A930AA9264804F0CEFD002833D12448B6
:1036000004F080FC002831D100230893099308A915
:103610001F4804F0D5FE60BB702301930022029284
:103620000392059201A91A4804F03BFD20BB042235
:103630000DEB0201164804F034FD00BB082201A97D
:10364000134804F02EFDE8B90C2201A9104804F03B
:1036500028FDD0B90E48FFF77DFF0FB05DF804FBE1
:10366000FDF75CFFC2E7FDF759FFC8E7FDF756FF1E
:10367000CAE7FDF753FFCFE7FDF750FFD7E7FDF7A8
:103680004DFFDBE7FDF74AFFDEE7FDF747FFE1E728
:10369000580E02200008004008B50A480A4B036093
:1036A0004FF46133436000238360C36003610C22E5
:1036B00042618361C36105F09FF800B908BDFDF761
:1036C0002DFFFBE72C1002200010014000B589B04F
:1036D000002303930493059306930793026803F171
:1036E000804303F588339A4202D009B05DF804FBA9
:1036F0000021019103F594335A6C42F010025A6490
:103700005A6C02F010020192019A02911A6B42F077
:1037100001021A631B6B03F001030293029B4FF437
:10372000C0630393022304930123059303230693A9
:103730000723079303A9024805F05EFCD5E700BF05
:10374000000002407047FEE7FEE7FEE7FEE7704735
:103750007047704708B506F02DF808BD08B5024857
:1037600005F064FE08BD00BF380D022008B5024810
:1037700005F05CFE08BD00BF980D022008B50548A5
:1037800004F06BFA00F07AFB00F0DCFA00F09AFB30
:1037900008BD00BF5C0F022008B5024805F046FED8
:1037A00008BD00BF800C022008B5024805F03EFEAF
:1037B00008BD00BFF80D022008B5024805F036FE2E
:1037C00008BD00BFA00E022082B0002100910B4B6B
:1037D0005A6C42F480425A645A6C02F4804200925D
:1037E000009A01911A6C42F080521A641B6C03F02B
:1037F00080530193019B02B0704700BF0038024024
:103800000F49D1F8883043F47003C1F888300D4B6C
:103810001A6842F001021A60002098601A6822F0CB
:10382000847222F480321A60074A5A601A6822F4BD
:1038300080221A60D8604FF000638B60704700BF31
:1038400000ED00E0003802401030002408B500F020
:1038500037FC07EE900AF8EE677AB1EE080A67EED9
:10386000807A9FED020A27EE800A08BD00008039A9
:1038700010B5084C23680021986807F0BBF923684D
:103880000021586807F0B6F923680021D86807F0CE
:10389000B1F910BD3802002000B583B08DF80700E3
:1038A00001231A460DF10701024804F0D4FF03B0CA
:1038B0005DF804FB2C10022000B583B0022038B163
:1038C0000A2301220DF10701044805F034F8F6E758
:1038D0009DF8070003B05DF804FB00BF2C10022028
:1038E0004FF08043586A80B270470000014B586A1D
:1038F00080B2704700040040024B47F6FE725A62E5
:10390000704700BF000400404FF0804347F6FE724E
:103910005A62704708B53C21054804F02FFD3C2150
:10392000044804F02BFDFFF7E7FFFFF7EDFF08BDAC
:10393000EC0F0220000F0220084B5B6AA3F5FF4347
:103940007E3B07EE903AF8EEE77A9FED050A67EEC8
:10395000807A9FED040A87EE800A704700040040D9
:10396000DA0FC94000C07F444FF080435B6AC3F563
:10397000FF437E3307EE903AF8EEE77A9FED040AB4
:1039800067EE807A9FED030A87EE800A704700BFDA
:10399000DA0FC94000C07F4438B504460D4621F017
:1039A000004100221B4BFDF7C1F890B100221A4BD9
:1039B00020462946FDF7CEF870B10022164B20466E
:1039C0002946FCF78BFC41EC100B0AF06DFC55EC22
:1039D000104B2046294638BD0022104B2046294670
:1039E000FDF7C2F840B10022002320462946FCF72B
:1039F0002BFE04460D46ECE70022074B20462946E5
:103A0000FCF76AFC41EC100B0AF0CEFB55EC104BB6
:103A1000DFE700BF000030430000E03F0000E0BFF0
:103A20002DE9F84305460F4616469846D1F8009012
:103A300000244C450EDA35F81400FCF78BFD00220B
:103A4000174BFCF701FE174A02EBC402C2E9000162
:103A50000134EEE7D7F8009000254D450ADA114C05
:103A600004EBC50494ED000B0AF0A2FC84ED000BFE
:103A70000135F2E73D68C8F8005000240BE0094B1F
:103A800003EBC403D3E90001FFF786FFFDF7B4F8A9
:103A900026F814000134A542F1DCBDE8F88300BF2C
:103AA0000000A03F080E002030B585B08DF807104B
:103AB00000F07F008DF80F000E4C00224FF4805173
:103AC000204605F079FB0C4D01231A460DF10F013C
:103AD000284603F027FC01231A460DF1070128466A
:103AE00003F020FC01224FF48051204605F064FBD6
:103AF00005B030BD00040240E00C022030B583B0B8
:103B000060F07F008DF807000F4C00224FF48051C9
:103B1000204605F051FB0D4D01231A460DF107011A
:103B2000284603F0FFFB01231A460DF10601284643
:103B300003F0E6FD01224FF48051204605F03CFBE6
:103B40009DF8060003B030BD00040240E00C0220E6
:103B500008B50020FFF7D2FF08BD000008B56420BB
:103B600005F03AFEFFF7F4FFFFF7F2FFE02803D07D
:103B70001E4806F0A1FFFBE7642005F02DFE102192
:103B80000320FFF791FF012005F026FE012106200A
:103B9000FFF78AFF642005F01FFE20217F20FFF73A
:103BA00083FF642005F018FE07210120FFF77CFF4A
:103BB000012005F011FE0D211420FFF775FF0120F3
:103BC00005F00AFE00217F20FFF76EFF642005F05C
:103BD00003FE00224FF48051054805F0EDFA0D2355
:103BE000044A0549054803F03FFE08BD88E900087E
:103BF00000040240102E002020020020E00C0220D1
:103C000038B5104D01224FF48051284605F0D4FA02
:103C10000D4CE278237943EA02230C4A1380E27ABE
:103C2000237B43EA02230A4A138000224FF4805187
:103C3000284605F0C1FA0D2322460649064803F03E
:103C400013FE38BD00040240102E00200A2E002072
:103C50000E2E002020020020E00C022010B50024CF
:103C6000B4F57A7F11DA012005F0B6FD114A138808
:103C7000114909880B441380104A13881049098898
:103C80000B441380013424B2EAE70A49B1F9003049
:103C90000C4A82FB0340DB17C3EBA0130B800749E0
:103CA000B1F9003082FB0302DB17C3EBA2130B80D8
:103CB00010BD00BF082E00200A2E00200C2E002070
:103CC0000E2E0020D34D6210094BB3F90030094A83
:103CD000B2F900209B1A07EE903AF8EEE77A9FEDD2
:103CE000060A67EE807A9FED050A27EE800A704784
:103CF0000A2E0020082E00200AE81C41000080390E
:103D00000B4BB3F900300B4AB2F900209B1A07EEB7
:103D1000903AF8EEE77A9FED087AC7EE876A9FED52
:103D2000077AC6EE877A9FED060A20EE670A70478B
:103D30000E2E00200C2E00206666864100003443C3
:103D4000DA0F494008B5FDF7CFFC01F01FFF01284D
:103D500000D008BDFDF770FD01F024FF01380E28EA
:103D6000F7D801A353F820F0A53D0008BF3D000897
:103D7000D53D0008EF3D0008093E0008233E00083D
:103D80003D3E0008533D0008533D0008533D0008E8
:103D9000533D0008533D0008533D0008533D0008C3
:103DA000533E000802F08AF8FDF762FE02F028FF99
:103DB000FDF77EFEFEF786FBFEF77EFFC9E702F009
:103DC0007DF8FDF755FE02F01BFFFDF771FEFEF7D3
:103DD00079FBBEE702F072F8FDF74AFE02F010FF31
:103DE000FDF766FEFEF76EFBFEF766FFB1E702F039
:103DF00065F8FDF73DFE02F003FFFDF759FEFEF703
:103E000061FBFEF759FFA4E702F058F8FDF730FE1A
:103E100002F0F6FEFDF74CFEFEF754FBFEF74CFFFA
:103E200097E702F04BF8FDF723FE02F0E9FEFDF7FD
:103E30003FFEFEF747FBFEF73FFF8AE702F03EF842
:103E4000FDF716FE02F0DCFEFDF732FEFEF73AFB50
:103E50007FE702F033F8FDF70BFE02F0D1FEFDF72D
:103E600027FEFEF72FFBFEF727FF72E708B5024893
:103E700003F0DBFE08BD00BF5C0F022008B50C4B51
:103E80001B685A6A0B4B1A600B4B18685968013053
:103E900041F1000118605960FCF7E6FF06EE900A58
:103EA0009FED067AC6EE877A054BC3ED007A08BD12
:103EB0005C0F0220302E0020282E002000007A44C3
:103EC000202E00200A4B19684B6A0A4A12689A1A77
:103ED0004FF47A7303FB02F3CA6AB3FBF2F3064AA8
:103EE0001360064A11688B4238BF0B461360704757
:103EF0005C0F0220302E0020342E0020382E0020AF
:103F0000014B1888704700BF342E0020014B1888E1
:103F1000704700BF382E0020014B93ED000A704718
:103F2000202E00200E4B1B78012B10D0022B12D01C
:103F30004BB15A1C0B4B83FB021303EB4303D31A05
:103F4000074A13707047084A90211180F1E7064A2A
:103F500060211180EDE7044A00211180E9E700BFEC
:103F6000482E0020565555554C2E002010B50021E6
:103F70000B4B19800B4B19800B4B19700B4C2368A2
:103F80006FF001021A61204604F0A4F904212046D2
:103F900004F0A0F90821204604F07CF910BD00BF10
:103FA0004A2E00204C2E0020482E00209C0F02207C
:103FB00038B5124C124A0021A06A05F025FB114DBC
:103FC00001232A461049606A05F0E2F901232A46D6
:103FD0000E49A06A05F0DCF905220D490D4802F0F2
:103FE000DFFE2368DA6842F4C062DA605A6C42F499
:103FF00000425A64FFF7BAFF38BD00BF9C0F022091
:10400000253F0008140002404C2E00204A2E0020BC
:104010003C2E0020380C022010B50C4C002120460C
:1040200004F078F90421204604F074F908212046B0
:1040300004F070F9A06A05F0E5F9606A05F0E2F9AC
:104040000022F021024805F0B7F810BD9C0F0220B5
:1040500000000240154B1A780232154B83FB021305
:1040600003EB4303D31A012B11D0022B16D003B15B
:104070007047104B1988104A118059880F4A1180D7
:1040800099889180D98811811B8993817047094A49
:1040900051880A4B59801289DA817047054A918804
:1040A000064BD980D2885A81E2E700BF482E002013
:1040B000565555553C2E0020462E0020502E0020EF
:1040C000014B1888704700BF462E0020044A02EBBF
:1040D00080035B8832F82000181A00B2704700BFD6
:1040E000502E0020000000002DE9F8430446FFF7A1
:1040F000EDFF0546FCF73EFA41EC100B44B1032CF2
:1041000006D0013CE4B2012C2AD90024002548E065
:10411000642D43DDA4B100260027B046B946032C28
:1041200016D00AF083F953EC102B40464946FCF7B1
:10413000B5FB32463B46FCF7CFF804460D4630E06F
:104140001FA7D7E900670FF28009D9E90089E6E7E0
:104150001FA7D7E900670FF27009D9E90089E0E7E6
:10416000642D03DC1CA5D5E900451AE00AF05EF9D0
:1041700051EC100B1AA3D3E90023FCF765FA1AA33C
:10418000D3E90023FCF7A8F802460B4618A1D1E9B1
:104190000001FCF7A1F804460D4602E014A5D5E99C
:1041A00000450022002320462946FCF7BFFC18B931
:1041B00045EC104BBDE8F88300240025F8E700BF6C
:1041C00090A0F831E6AEB53F666666666666E63F85
:1041D000CBA145B6F3FDB43F9A9999999999A93F16
:1041E000B81E85EB51B88E3FD9CEF753E3A59B3F60
:1041F0000AD7A3703D0AB73FF0B58BB00D48C2890E
:10420000838944890189C588878846880088089001
:104210000796361A069605970495ED1B03950291AD
:104220000194641A0094D11A034806F045FC0BB0BF
:10423000F0BD00BF502E002094E900082DE9F8439E
:1042400004468846174699464FF480620021384656
:1042500005F005FD611E8C4200D20021002426E0FD
:1042600004EB4012BB5C43F00103BB5416E004EBCB
:104270004012BB5C43F00203BB5412E04201BB5C42
:1042800043F00403BB540EE03B5D43F008033B5591
:104290002846B0420ADA621C8A42E1D0451CB54287
:1042A000E5D0002CEAD00028F2D1EDE701348C42B1
:1042B00006DA08F1FF36B04500D200260020E8E714
:1042C0003B7843F002033B7097F8203043F008033B
:1042D00087F820304FF480623946484605F0B1FC3B
:1042E0003B7843F0010389F800307B7843F0040306
:1042F00089F80130BDE8F8832DE9F04F89B0824696
:10430000934618460593179B9DF860200292012260
:104310000A708BF800209AF80020039202700022A5
:104320000192D146DDF850A0B8E10132AA420CDA80
:104330000C78985C8442F8D19BF800409818407A39
:104340008442F2D101200190EFE7019A002A40F067
:10435000A38199F800809BF8004004940D786A1EB0
:10436000560104EB4212013A1598825CB8F1070F2E
:1043700053D8012000FA08F0C0B21040139F97F8FC
:1043800000E070454BD099F801C0BCF1070F56D83A
:10439000012000FA0CF0C0B21040864551D099F8C7
:1043A0000270072F60D80120B840C0B21040864587
:1043B0005CD099F803600696072E66D80120B040BD
:1043C000C0B20240964562D0039A02F1040EBEF1DB
:1043D000FF0F01D94FF0FF0E059A1278AEEB0200E5
:1043E000864500D2002000F003009AF800E09AF819
:1043F000016004969AF8026007969AF80360704587
:1044000058D0049CA04200F0B880079CA04200F065
:104410008E80B04260D000223FE10020ADE7601CFA
:10442000FF2800D9FF203044169F384410F8010CB3
:10443000029FB842A7D2CDF80C800290A3E70020DB
:10444000AAE7681CFF2800D9FF200138049F07EB6A
:104450004010169F384410F8010C029FB8429ED2BB
:10446000CDF80CC002909AE700209FE7601E8442BE
:1044700000D200203044169E304410F8010C029EF9
:10448000B04296D20397029093E7002099E76A1E04
:10449000954200D20022013A049800EB421216988D
:1044A000024412F8012C029882428DD206980390A1
:1044B000029289E7424500F08980624500F08C80D5
:1044C000BA4200F08F800698824200F091800D7011
:1044D0008BF800400022E0E00432FF2A00F2C280A4
:1044E000013A504202F0030200F0030058BF42427A
:1044F000D2B2059802700C789BF8000099F8005031
:10450000AA4200F0B18099F80150AA4200F0B280AE
:1045100099F80250AA4200F0B38099F80350AA42D9
:1045200000F0B4800C708BF800000022B5E004327B
:10453000FF2A7DD8023A504202F0030200F0030045
:1045400058BF4242D2B2059802700C789BF8000026
:1045500099F80050AA426DD099F80150AA426FD044
:1045600099F80250AA4271D099F80350AA4273D028
:104570000C708BF8000000228FE00432FF2A3DD837
:104580000132FF2A00D9FF22504202F0030200F05C
:10459000030058BF4242D2B2059802700C789BF8D3
:1045A000000099F80050AA422AD099F80150AA4276
:1045B0002CD099F80250AA422ED099F80350AA4262
:1045C00030D00C708BF80000002266E00134FF2C24
:1045D00000D9FF24E4B270E70135FF2D00D9FF2593
:1045E000EDB26DE7601E844200D20020C4B26AE7DB
:1045F0006A1E954200D20022D5B268E7FF22BFE7CB
:104600000130FF2800D9FF20C0B2CEE70134FF2CD3
:1046100000D9FF24E4B2CCE7451EA84200D2002511
:10462000E8B2CAE7621E944200D20022D4B2C8E7C0
:10463000FF227FE70130FF2800D9FF20C0B28BE7BF
:104640000134FF2C00D9FF24E4B289E7451EA842BB
:1046500000D20025E8B287E7621E944200D2002211
:10466000D4B285E7FF223BE70130FF2800D9FF20C5
:10467000C0B248E70134FF2C00D9FF24E4B247E779
:10468000451EA84200D20025E8B246E7621E9442C9
:1046900000D20022D4B245E701221AB9129A157845
:1046A000002243E609B0BDE8F08F30B404789C42A4
:1046B0000AD044789C420ED084789C4212D0C278B2
:1046C0009A4216D030BC704714780134FF2C00D9C0
:1046D000FF241470EDE70C780134FF2C00D9FF247F
:1046E0000C70E9E715786C1EA54200D20024147006
:1046F000E5E70A78531E9A4200D200230B70E1E7E7
:104700002DE9F04FADF5805D87B004460D460DF5FF
:10471000825108680DF582510C310F68591E8B4289
:1047200000D20021531E9A4200D2002303FB01F362
:10473000FF2B00D9FF235FFA83F80DF58253103366
:104740001B6883F800800023B3F5806F03DA07F855
:1047500003800133F8E70DF5825304331E780022FD
:1047600009E083185B7A815C013903EB4113013B5B
:104770000021F9540132B242F3DB46E10133A9B919
:10478000B3F5806F12DAFA5CB242F7D109F1010099
:104790005A1CDFF88CC22CF81920B0F5806F02DAB1
:1047A00013468146EBE781460121E8E7B9F1000FA6
:1047B0000FDD0DF580531433C3F8009000239945A5
:1047C0000ADD974A32F91310964A22F81310013382
:1047D000F5E74FF00009ECE70DF580531033C3F80F
:1047E00000900023994508DD8E4A32F81320013AE3
:1047F0008D4921F813200133F4E70DF60C030DF574
:1048000001620DF580511031874801F04BFFDDF852
:104810000CA8002203E00DF20C418B5401325245EA
:104820000EDA0DF5016333F812300133B3F5803F32
:1048300001D34FF6FF739BB2FF2BECD9FF23EAE7BE
:104840000023994507DD774931F81320013A21F813
:1048500013200133F5E70DF60C030DF501620DF59C
:10486000805114316F48FFF7DBF8DDF80C080022A7
:1048700002E003A98B54013282420EDA0DF5016386
:1048800033F812300133B3F5803F01D34FF6FF7395
:104890009BB2FF2BEDD9FF23EBE7BAF1000F05DB4D
:1048A000BAF1FF0F04DD4FF0FF0A01E04FF0000AFC
:1048B0001AF0FF0F00F0A4805FFA8AFE00213AE0B0
:1048C000002257E00CF10102FF2A00D9FF22924496
:1048D0000AF1FF3A17F80A20904550D1721C07F8E8
:1048E0000A20012200924AE0002251E009F101026F
:1048F000FF2A00D9FF22013A0CEB4212013A17F8C5
:1049000002A0D04549D106F1010A07F802A0012210
:10491000009242E0002249E0023BFA5C90454AD115
:10492000721CFA540123009345E0002318402B78B1
:10493000984247D00131714554DA94F800B003AB86
:1049400013F8019009F1FF334FEA431A0DF20C42BC
:1049500012F801C00CEB43130DF5825208321268B5
:104960001A4412F8010CBBF1070FA9D8012202FA70
:104970000BF2D2B2024095F800B05A45A2D094F89A
:1049800001A0BAF1070FAFD8012202FA0AF2D2B29F
:10499000024095F800A05245A8D094F802A0BAF1C0
:1049A000070FB7D8012202FA0AF2D2B2024095F8F4
:1049B00000A05245B0D0E278072AB6D80123934030
:1049C000DBB2B3E7A9F102090CEB491C0CF1FF3C87
:1049D00017F80C309845ADD1731C07F80C30012343
:1049E0000093A7E70136F6B2019B63B908F1FF33E4
:1049F000DBB2B34207D301994FF000094B46BEE644
:104A000001230193F0E7009B23B1002301931E468D
:104A10000093E9E70DF5805D07B0BDE8F08F00BFBA
:104A20006C3600206C460020602E00202DE9F04FEF
:104A3000ADF24C4D08900B9115460C93DDF8704487
:104A4000DDF87494DDF878A49DF87C3409939DF822
:104A500080340A93DDF88484DDF888B4DDF88C6452
:104A60009DF890340D931F4600230693079700F09E
:104A700012BC00208DF844048DF840048DF84504E4
:104A80008DF841048DF846048DF842048DF84704F2
:104A90008DF84304FFF71AFB07460320FFF716FBC8
:104AA0003B46034403EBD3735B10CC4F3B600220C7
:104AB000FFF70CFBCA4B18600120FFF707FBC94B3F
:104AC00018603A68C84B1B689A4200F324829AF82F
:104AD000003003F003020B9949780DF58960024418
:104AE00002F8081CBE4A1168C04A1268914213DDE0
:104AF0000133FF2B00D9FF235A4203F0030302F0D6
:104B0000030258BF5342089A52780DF589610B444D
:104B100003F8042CFDF704FE9AF80020531CFF2B29
:104B200000D9FF23594203F0030301F0030158BFEA
:104B30004B420B9949780DF58960034403F8081C32
:104B4000A84B1968AA4B1B68994213DDD31CFF2B95
:104B500000D9FF235A4203F0030302F0030258BFB7
:104B60005342089A52780DF589610B4403F8042CDE
:104B7000FDF7DCFD9AF800300333FF2B00D9FF234B
:104B80005A4203F0030302F0030258BF53420B9A48
:104B900052780DF589610B4403F8082C2A78531CD0
:104BA000FF2B00D9FF23072A00F2C3810121914086
:104BB000C9B2013B0DF58962134413F8043C01FBB3
:104BC00003F1FF2900D9FF212278013A5201894BD4
:104BD0001A6099F800301344013B87480360C9B25A
:104BE00018F80300014308F803102978481CFF282F
:104BF00000D9FF20072900F29E814FF0010C0CFA2A
:104C000001F1C9B201380DF58967384410F8080C74
:104C100001FB00F1FF2900D9FF21C9B21BF80300F5
:104C200001430BF803106978481CFF2800D9FF20C6
:104C3000072900F282814FF0010C0CFA01F1C9B290
:104C400001380DF58967384410F8040C01FB00F1B8
:104C5000FF2900D9FF21C9B218F80300014308F861
:104C600003106978481CFF2800D9FF20072900F2AB
:104C700066814FF0010C0CFA01F1C9B201380DF553
:104C80008967384410F8080C01FB00F1FF2900D9AE
:104C9000FF21C9B21BF8030001430BF80310A978E8
:104CA000481CFF2800D9FF20072900F24A814FF055
:104CB000010C0CFA01F1C9B201380DF589673844CD
:104CC00010F8040C01FB00F1FF2900D9FF21C9B243
:104CD00018F80300014308F80310A978481CFF28BE
:104CE00000D9FF20072900F22E814FF0010C0CFAA9
:104CF00001F1C9B201380DF58967384410F8080C84
:104D000001FB00F1FF2900D9FF21C9B21BF8030004
:104D100001430BF80310E978481CFF2800D9FF2055
:104D2000072900F212814FF0010C0CFA01F1C9B20F
:104D300001380DF58967384410F8040C01FB00F1C7
:104D4000FF2900D9FF21C9B218F80300014308F870
:104D50000310E978481CFF2800D9FF20072900F23A
:104D6000F6804FF0010C0CFA01F1C9B201380DF5D3
:104D70008967384410F8080C01FB00F1FF2900D9BD
:104D8000FF21C9B21BF8030001430BF80310099B74
:104D9000591E8B4200D2002199F800308B4254DA20
:104DA000A87829780131FF2900D9FF21072800F2CE
:104DB000D0804FF0010C0CFA00F0C0B201390DF5B3
:104DC0008967394411F8041C00FB01F1FF2900D95F
:104DD000FF210133FF2B11D9FF230FE06C56002078
:104DE0007456002070560020240200202C0200205F
:104DF0002802002064360020683600201344013B5E
:104E000018F80300C9B2014308F80310A8782978FC
:104E10000131FF2900D9FF21072800F29C804FF0C3
:104E2000010C0CFA00F0C0B201390DF58967394464
:104E300011F8081C00FB01F1FF2900D9FF211BF824
:104E40000300C9B201430BF803100A9B591E8B42A1
:104E500000D2002123788B424BDAE878697801315F
:104E6000FF2900D9FF21072877D84FF0010C0CFA51
:104E700000F0C0B201390DF58967394411F8041CFE
:104E800000FB01F1FF2900D9FF210133FF2B00D9DD
:104E9000FF2399F800C0013B58010CEB4313013B81
:104EA00018F803C0C9B24CEA010108F80310EB7806
:104EB00069780131FF2900D9FF21072B4FD84FF026
:104EC000010C0CFA03F3DBB201390DF589673944A3
:104ED00011F8081C03FB01F3FF2B00D9FF2399F8FD
:104EE0000010084401381BF80010DBB20B430BF82C
:104EF000003099F80010012971D92878AB78013376
:104F0000FF2B00D9FF2307282BD84FF0010C0CFAF8
:104F100000F0C0B226E09AF8003003F00303089ACC
:104F200052780DF589610B4403F8042CFDF7F2FB70
:104F3000CDE500213DE6002164E6002180E6002168
:104F40009CE60021B8E60021D4E60021F0E600212D
:104F50000CE7002032E7002066E700208AE7002304
:104F6000B2E70020013B0DF589673B4413F8043C90
:104F700000FB03F0FF2800D9FF204B1E994200D20E
:104F800000231344013B18F80310C0B2084308F88B
:104F900003002878AB780133FF2B00D9FF230728C3
:104FA00003D801218140C9B200E00021013B0DF589
:104FB0008960034413F8083C01FB03F3FF2B00D97D
:104FC000FF2399F80000411E884200D200210A44C4
:104FD000013A1BF80210DBB20B430BF802302178C8
:104FE000012940F25D816878EB780133FF2B00D90D
:104FF000FF23072803D801228240D2B200E000221A
:10500000013B0DF58960034413F8043C02FB03F2F5
:10501000FF2A00D9FF22481E814200D2002099F8C1
:105020000030013803EB4013013B18F80310D2B2F3
:105030000A4308F803206978EB780133FF2B00D985
:10504000FF23072903D801228A40D2B200E00022C0
:10505000013B0DF589610B4413F8083C02FB03F397
:10506000FF2B00D9FF232278511E8A4200D2002153
:1050700099F80020013902EB4112013A1BF80210A5
:10508000DBB20B430BF802300AE10133BB420CDA0E
:105090002178F25C9142F8D199F80010F218527A16
:1050A0009142F2D101220692EFE70797069B002B6F
:1050B0002FD10DF13F03049310AB0393CDF808807B
:1050C0000D9B019300960A9B099A08992846FFF7C1
:1050D00017FB2A78072A3BD801239340DBB2B24A58
:1050E000126818F802201A4234D199F800300133BE
:1050F000FF2B00D9FF23AD4A12681344013B10AACD
:10510000D35C9DF83F20934231D28DF83F302A780E
:1051100021E0FDF777FAFEF77FFFA54C01224FF45F
:105120006451204604F048F84FF42F7004F054FB0B
:1051300000224FF46451204604F03EF84FF496707C
:1051400004F04AFBFEF734FF0DF24C4DBDE8F08F42
:105150000023C4E7069A95F801E0BEF1070F08D8CE
:105160004FF0010C0CFA0EFC5FFA8CFC03E0069A7F
:10517000F1E74FF0000C99F8000021784B1E00EB8E
:105180004313434413F8013C13EA0C0F10D10131CF
:10519000FF2900D9FF21013900EB4111013910AB82
:1051A0005B5C9DF83F108B4202D28DF83F30724617
:1051B00095F802C0BCF1070F04D8012101FA0CF1E7
:1051C000C9B200E0002199F800002378013B00EB10
:1051D0004313434413F8013C0B4210D1431E984241
:1051E00000D20023714909680B44013B10A9CB5C34
:1051F0009DF83F108B4202D28DF83F30624695F801
:1052000003E0BEF1070F04D8012000FA0EF0C0B28F
:1052100000E0002099F8001094F800C00CF1FF3372
:1052200001EB4313434413F8013C03420FD10CF14B
:10523000FF339C4500D20023013B01EB43110139B0
:1052400010AB595C9DF83F30994200D2724604324F
:10525000FF2A00D9FF229AF80030D31A9A4200D2CE
:1052600000235A4203F0030302F0030258BF5342E3
:10527000DBB20C98017842788DF83F2007468078A1
:1052800097F803C08B4210D09A4200F09580834279
:105290005AD0634529D0474B1B78002B3FF4E9AB2C
:1052A0000023444A1370079FF0E6FDF779FA9AF855
:1052B00000202B789A4200F0AE809AF800206B789C
:1052C0009A4200F0B1809AF80020AB789A4200F040
:1052D000B2809AF80020EB789A42DCD12278531EF3
:1052E0009A4200D200232370D5E7FDF7A1FA9AF87D
:1052F00000300433FF2B00F2DD80013B5A4203F003
:10530000030302F0030258BF5342DBB28AF80030B5
:105310002A78934200F0D0809AF800206B789A4265
:1053200000F0D3809AF80020AB789A4200F0D48045
:105330009AF80020EB789A42ADD12278531E9A4217
:1053400000D200232370A6E7FDF798FA9AF8003000
:105350000433FF2B00F29380023B5A4203F0030315
:1053600002F0030258BF5342DBB28AF800302A78B9
:10537000934200F086809AF800206B789A4200F001
:1053800089809AF80020AB789A4200F08A809AF8D7
:105390000020EB789A427FF47EAF2278531E9A4227
:1053A00000D20023237076E76836002064360020A0
:1053B0000000024060360020FDF714FA9AF8003031
:1053C0000433FF2B40D80133FF2B00D9FF235A426F
:1053D00003F0030302F0030258BF5342DBB28AF822
:1053E00000302A78934231D09AF800206B789A42A4
:1053F00035D09AF80020AB789A4237D09AF800203E
:10540000EB789A427FF447AF2278531E9A4200D23B
:10541000002323703FE799F800300133FF2B00D9B8
:10542000FF2389F8003048E723780133FF2B00D9A8
:10543000FF23237047E799F80020531E9A4200D2B9
:10544000002389F8003044E7FF23BCE799F80030D7
:105450000133FF2B00D9FF2389F80030C4E72378FC
:105460000133FF2B00D9FF232370C2E799F80020F6
:10547000531E9A4200D2002389F80030BEE7FF2372
:105480006AE799F800300133FF2B00D9FF2389F830
:10549000003070E723780133FF2B00D9FF232370FE
:1054A0006FE799F80020531E9A4200D2002389F832
:1054B00000306CE7FF2320E799F800300133FF2B21
:1054C00000D9FF2389F8003026E723780133FF2B2A
:1054D00000D9FF23237025E799F80020531E9A4234
:1054E00000D2002389F8003022E700BF2DE9F04FF9
:1054F000ADF5C15D83B00D46164605930DF5C2535B
:1055000010331C780DF5C25314331B780DF5C252BD
:10551000183211680DF5C2521C32D2F800900DF508
:10552000C3520432D2F800B05A1E934200D2002275
:10553000631E9C4200D2002303FB02F3FF2B00D921
:10554000FF235A1E934200D20022D3B203930DF5DB
:10555000C3520832126814461A4623700023B3F56A
:10556000806F03DA0BF803200133F8E7007800229C
:105570000AE08B185B7A8C5C013C03EB4413013B23
:1055800000240BF8034001328242F2DB0023019336
:105590000493CAE10133A9B9B3F5806F12DA1BF89D
:1055A000032001988242F5D1781C5A1CC64C24F87D
:1055B0001720B0F5806F02DA13460746EBE707467F
:1055C0000121E8E7002F05DD0DF5C15304331F600D
:1055D000002308E00027F7E7BB4A32F91310BB4A63
:1055E00022F8131001339F42F6DC0DF5C1531F6002
:1055F00000239F4209DDB54A32F81320013A0DF528
:10560000815121F813200133F3E70DF61C030DF54A
:1056100002620DF5C1510DF5815001F043F8DDF83E
:105620001C48002203E00DF21C418B540132A242BF
:105630000EDA0DF5026333F812300133B3F5803F13
:1056400001D34FF6FF739BB2FF2BECD9FF23EAE7A0
:1056500000239F4207DD9D4931F81320013A21F8CC
:1056600013200133F5E70DF61C030DF502620DF56D
:10567000C15104319548FEF7D3F9DDF81C0800222A
:1056800002E007A98B54013282420EDA0DF5026363
:1056900033F812300133B3F5803F01D34FF6FF7377
:1056A0009BB2FF2BEDD9FF23EBE7002102940DF510
:1056B000C3530433C3F800B0DDF814B057E0002240
:1056C00019F80CE01EEA020F14BF4FF001084FF06A
:1056D000000896F800E0F04566D06A78072A00F2E4
:1056E0008F804FF0010C0CFA02FC5FFA8CFC5A1E02
:1056F00019F802E01EEA0C0F14BF4FF001084FF03A
:10570000000896F800E0F0457DD095F802C0BCF1A5
:10571000070F00F2AC804FF0010E0EFA0CFC5FFA9E
:105720008CFC19F802E01EEA0C0F14BF4FF00108C0
:105730004FF0000896F800E0F04500F09B80EB7811
:10574000072B00F2BF804FF0010C0CFA03F3DBB221
:1057500019F802C01CEA030F14BF4FF0010E4FF0FE
:10576000000E96F800C0E64500F0B2800131029BC1
:10577000994280F2D1802A78481C80B2013807AB68
:105780001F5C7B1E4FEA431A0DF21C4C1CF80000F4
:1057900000EB431303F1FF3C072A90D84FF0010EB2
:1057A0000EFA02F2D2B28BE70DF5C354246814F856
:1057B0000CC01CEA020F14BF4FF0010C4FF0000C9C
:1057C0009BF80120944588D1421CFF2A00D9FF2272
:1057D00092440AF1FF3A0DF5C3520432126812F8EE
:1057E0000A20039C94427FF478AF019A01320DF5B0
:1057F000C3540434246804F80A20012204926CE79C
:105800004FF0000C73E70DF5C354246814F802E060
:105810001EEA0C0F14BF4FF0010E4FF0000E9BF864
:1058200001C0E6457FF471AF07F1010CBCF1FF0F39
:1058300001D94FF0FF0C0CF1FF3C00EB4C1C0CF1BC
:10584000FF3C0DF5C3540434246814F80CE0039CA9
:1058500074457FF45AAF019C04F1010E0DF5C35459
:105860000434246804F80CE0012404944DE74FF05C
:10587000000C56E70DF5C354246814F802E01EEA44
:105880000C0F14BF4FF0010E4FF0000E9BF801C03B
:10589000E6457FF454AF023B0DF5C354043424684D
:1058A00014F803C0039C64457FF449AF019C04F1E4
:1058B000010C0DF5C3540434246804F803C001231B
:1058C00004933CE7002343E76C3E00206C4E00202D
:1058D0000DF5C3542468A25C1A4214BF01220022B1
:1058E0009BF801309A427FF441AF023F00EB471032
:1058F00001380DF5C35304331B681B5C039A9A42AD
:105900007FF434AF019B01330DF5C35204321268AA
:1059100013540123049329E70DF5C3530433D3F83B
:1059200000B0019B0133DBB201930DF5C353083383
:105930001B681B78019A934203D300210F460B4644
:1059400029E6049B002B7FF421AE0DF5C15D03B069
:10595000BDE8F08F2DE9F04FADF25C4D06460D46E7
:1059600090469946DDF880449DF884749DF888A49B
:105970008DF854740023112B07DC0DF58B621A444B
:10598000002102F8181C0133F5E700228DF83C24B1
:1059900001238DF83D3402208DF83E0403218DF85B
:1059A0003F148DF838248DF839348DF83A048DF889
:1059B0003B148DF834248DF835348DF830248DF86F
:1059C0003134BAF1000F07D0BAF1010F00F0A9800D
:1059D0000DF25C4DBDE8F08FFCF7F0FD0123684A45
:1059E0001370DFF8A4B18BF8003000235A466449E5
:1059F0000DF23C40FEF759FEFCF7D2FE9DF83C2428
:105A00000BAB8DF82C200897079406950596CDF8DA
:105A10001090CDF80C800293CDF804B0584A009253
:105A20000DF587630DF23C420DF586610DF23440B1
:105A3000FEF7FCFF4FF47A7003F0CEFE3CE08DF8E9
:105A400040C48DF8490401218DF82F1089B997427F
:105A50000FDD02F10903E05C14F802C00CF1FF3322
:105A600000EB43132B4413F8013C0F2BE7D1013219
:105A7000ECE79DF82F30012B23D1FCF737FE0123F3
:105A8000404A137008930DF58863079306950596B1
:105A9000CDF81090CDF80C800BAB02933A4B0193EC
:105AA000374B00930DF587630DF23C420DF586618F
:105AB0000DF23440FEF7BAFF00228DF82F20114678
:105AC000C4E74FF47A7003F087FE01278DF8407425
:105AD0008DF84974FCF70AFE2A4B1F7008970DF5E4
