:020000040800F2
:1000000000000520018B0008E52C0008E72C000803
:10001000E92C0008EB2C0008ED2C00080000000083
:10002000000000000000000000000000EF2C0008AD
:10003000F12C000800000000F32C0008F52C00084B
:10004000518B0008518B0008518B0008518B000820
:10005000518B0008518B0008518B0008518B000810
:10006000518B0008518B0008518B0008518B000800
:10007000518B0008518B0008FD2C00080D2D000845
:10008000518B0008518B0008518B0008518B0008E0
:10009000518B0008518B0008518B0008518B0008D0
:1000A000518B0008518B0008518B0008518B0008C0
:1000B000518B0008518B0008518B0008518B0008B0
:1000C000518B0008518B0008518B0008518B0008A0
:1000D000518B0008518B0008518B0008518B000890
:1000E000518B0008518B0008518B0008518B000880
:1000F000518B0008518B0008518B0008518B000870
:10010000518B0008518B0008518B0008518B00085F
:10011000518B0008518B00081D2D0008518B0008E1
:10012000392D0008492D0008592D0008518B000871
:10013000518B0008518B0008518B0008518B00082F
:10014000518B0008518B0008518B0008518B00081F
:10015000518B0008518B0008518B0008518B00080F
:10016000518B0008518B0008518B0008518B0008FF
:10017000518B0008518B00080000000000000000B7
:10018000518B0008518B0008518B0008518B0008DF
:10019000518B0008518B000800000000518B0008B3
:1001A000518B0008518B0008000000000000000087
:1001B000518B00080000000000000000518B000877
:1001C000518B0008518B0008518B0008518B00089F
:0801D000518B0008518B00085F
:1001E00010B5054C237833B9044B13B10448AFF371
:1001F00000800123237010BD0802002000000000D1
:1002000054DC000808B5034B1BB103490348AFF3A6
:10021000008008BD000000000C02002054DC000833
:10022000034613F8012B002AFBD1181A0138704736
:1002300001F0FF01102A2BDB10F0070F08D010F897
:10024000013B013A8B422DD010F0070F42B3F6D19B
:10025000F0B441EA012141EA014122F007047FF0B4
:1002600000070023F0E80256083C85EA010586EA0B
:10027000010685FA47F5A3FA87F586FA47F6A5FA47
:1002800087F68EB9EED1F0BC01F0FF0102F0070253
:1002900032B110F8013B013A83EA010313B1F8D1FE
:1002A0000020704701387047002D06BF35460338DF
:1002B000073815F0010F07D1013015F4807F02BF18
:1002C000013015F4C03F0130F0BC0138704700BF69
:1002D00081F0004102E000BF83F0004330B54FEAF7
:1002E00041044FEA430594EA050F08BF90EA020F64
:1002F0001FBF54EA000C55EA020C7FEA645C7FEAF7
:10030000655C00F0E2804FEA5454D4EB5555B8BF19
:100310006D420CDD2C4480EA020281EA030382EA8A
:10032000000083EA010180EA020281EA0303362D1C
:1003300088BF30BD11F0004F4FEA01314FF4801CEF
:100340004CEA113102D0404261EB410113F0004F01
:100350004FEA03334CEA133302D0524263EB4303B8
:1003600094EA050F00F0A780A4F10104D5F1200E56
:100370000DDB02FA0EFC22FA05F2801841F10001B1
:1003800003FA0EF2801843FA05F359410EE0A5F185
:1003900020050EF1200E012A03FA0EFC28BF4CF0B6
:1003A000020C43FA05F3C01851EBE37101F000456C
:1003B00007D54FF0000EDCF1000C7EEB00006EEB79
:1003C0000101B1F5801F1BD3B1F5001F0CD3490803
:1003D0005FEA30004FEA3C0C04F101044FEA44525A
:1003E00012F5800F80F09A80BCF1004F08BF5FEAE1
:1003F000500C50F1000041EB045141EA050130BDC1
:100400005FEA4C0C404141EB0101013C28BFB1F5D2
:10041000801FE9D291F0000F04BF01460020B1FA1D
:1004200081F308BF2033A3F10B03B3F120020CDAF0
:100430000C3208DD02F1140CC2F10C0201FA0CF0CE
:1004400021FA02F10CE002F11402D8BFC2F1200C33
:1004500001FA02F120FA0CFCDCBF41EA0C019040E9
:10046000E41AA2BF01EB0451294330BD6FEA040432
:100470001F3C1CDA0C340EDC04F11404C4F120021D
:1004800020FA04F001FA02F340EA030021FA04F32F
:1004900045EA030130BDC4F10C04C4F1200220FA86
:1004A00002F001FA04F340EA0300294630BD21FAC4
:1004B00004F0294630BD94F0000F83F4801306BF8A
:1004C00081F480110134013D4EE77FEA645C18BF7E
:1004D0007FEA655C29D094EA050F08BF90EA020F15
:1004E00005D054EA000C04BF1946104630BD91EA0D
:1004F000030F1EBF0021002030BD5FEA545C05D110
:100500004000494128BF41F0004130BD14F580044E
:100510003CBF01F5801130BD01F0004545F0FE41C2
:1005200041F470014FF0000030BD7FEA645C1ABFF7
:10053000194610467FEA655C1CBF0B46024650EA2E
:10054000013406BF52EA033591EA030F41F400215A
:1005500030BD00BF90F0000F04BF0021704730B5E0
:100560004FF4806404F132044FF000054FF00001B5
:1005700050E700BF90F0000F04BF0021704730B576
:100580004FF4806404F1320410F0004548BF40424B
:100590004FF000013EE700BF42004FEAE2014FEAA0
:1005A00031014FEA02701FBF12F07F4393F07F4F7B
:1005B00081F06051704732F07F4208BF704793F07E
:1005C0007F4F04BF41F40021704730B54FF4607491
:1005D00001F0004521F000411CE700BF50EA010294
:1005E00008BF704730B54FF000050AE050EA01023D
:1005F00008BF704730B511F0004502D5404261EBAD
:1006000041014FF4806404F132045FEA915C3FF4ED
:10061000D8AE4FF003025FEADC0C18BF03325FEA8A
:10062000DC0C18BF033202EBDC02C2F1200300FA3B
:1006300003FC20FA02F001FA03FE40EA0E0021FA60
:1006400002F11444BDE600BF70B54FF0FF0C4CF44E
:10065000E06C1CEA11541DBF1CEA135594EA0C0F00
:1006600095EA0C0F00F0DEF82C4481EA030621EA3B
:100670004C5123EA4C5350EA013518BF52EA033576
:1006800041F4801143F4801338D0A0FB02CE4FF028
:100690000005E1FB02E506F00042E0FB03E54FF058
:1006A0000006E1FB03569CF0000F18BF4EF0010E50
:1006B000A4F1FF04B6F5007F64F5407404D25FEA4C
:1006C0004E0E6D4146EB060642EAC62141EA5551FF
:1006D0004FEAC52040EA5E504FEACE2EB4F1FD0C41
:1006E00088BFBCF5E06F1ED8BEF1004F08BF5FEABF
:1006F000500E50F1000041EB045170BD06F0004671
:1007000046EA010140EA020081EA0301B4EB5C041D
:10071000C2BFD4EB0C0541EA045170BD41F4801115
:100720004FF0000E013C00F3AB8014F1360FDEBF3A
:10073000002001F0004170BDC4F10004203C35DA16
:100740000C341BDC04F11404C4F1200500FA05F399
:1007500020FA04F001FA05F240EA020001F000423A
:1007600021F0004110EBD37021FA04F642EB0601B0
:100770005EEA430E08BF20EAD37070BDC4F10C04DA
:10078000C4F1200500FA04F320FA05F001FA04F29E
:1007900040EA020001F0004110EBD37041F100018A
:1007A0005EEA430E08BF20EAD37070BDC4F1200595
:1007B00000FA05F24EEA020E20FA04F301FA05F2FD
:1007C00043EA020321FA04F001F0004121FA04F2A5
:1007D00020EA020000EBD3705EEA430E08BF20EA75
:1007E000D37070BD94F0000F0FD101F000464000AF
:1007F00041EB010111F4801F08BF013CF7D041EA31
:10080000060195F0000F18BF704703F00046520034
:1008100043EB030313F4801F08BF013DF7D043EA05
:100820000603704794EA0C0F0CEA135518BF95EABB
:100830000C0F0CD050EA410618BF52EA4306D1D142
:1008400081EA030101F000414FF0000070BD50EA61
:10085000410606BF1046194652EA430619D094EAEB
:100860000C0F02D150EA013613D195EA0C0F05D1D5
:1008700052EA03361CBF104619460AD181EA030129
:1008800001F0004141F0FE4141F470014FF00000E1
:1008900070BD41F0FE4141F4780170BD70B54FF07C
:1008A000FF0C4CF4E06C1CEA11541DBF1CEA1355FC
:1008B00094EA0C0F95EA0C0F00F0A7F8A4EB0504DE
:1008C00081EA030E52EA03354FEA013100F08880D5
:1008D0004FEA03334FF0805545EA131343EA12639E
:1008E0004FEA022245EA111545EA10654FEA002653
:1008F0000EF000419D4208BF964244F1FD0404F50C
:10090000407402D25B084FEA3202B61A65EB030567
:100910005B084FEA32024FF480104FF4002CB6EB24
:10092000020E75EB030E22BFB61A754640EA0C00A4
:100930005B084FEA3202B6EB020E75EB030E22BFE4
:10094000B61A754640EA5C005B084FEA3202B6EB25
:10095000020E75EB030E22BFB61A754640EA9C00E4
:100960005B084FEA3202B6EB020E75EB030E22BFB4
:10097000B61A754640EADC0055EA060E18D04FEA72
:10098000051545EA16754FEA06164FEAC30343EA12
:1009900052734FEAC2025FEA1C1CC0D111F4801FDF
:1009A0000BD141EA00014FF000004FF0004CB6E7D8
:1009B00011F4801F04BF01430020B4F1FD0C88BF77
:1009C000BCF5E06F3FF6AFAEB5EB030C04BFB6EB82
:1009D000020C5FEA500C50F1000041EB045170BD75
:1009E0000EF0004E4EEA113114EB5C04C2BFD4EBA2
:1009F0000C0541EA045170BD41F480114FF0000E26
:100A0000013C90E645EA060E8DE60CEA135594EAA1
:100A10000C0F08BF95EA0C0F3FF43BAF94EA0C0FA4
:100A20000AD150EA01347FF434AF95EA0C0F7FF419
:100A300025AF104619462CE795EA0C0F06D152EA6D
:100A400003353FF4FDAE1046194622E750EA410651
:100A500018BF52EA43067FF4C5AE50EA41047FF462
:100A60000DAF52EA43057FF4EBAE12E74FF0FF3CC7
:100A700006E000BF4FF0010C02E000BF4FF0010C98
:100A80004DF804CD4FEA410C7FEA6C5C4FEA430C11
:100A900018BF7FEA6C5C1BD001B050EA410C0CBF60
:100AA00052EA430C91EA030F02BF90EA020F0020C2
:100AB000704710F1000F91EA030F58BF994208BF29
:100AC00090422CBFD8176FEAE37040F001007047E6
:100AD0004FEA410C7FEA6C5C02D150EA013C07D13D
:100AE0004FEA430C7FEA6C5CD6D152EA033CD3D088
:100AF0005DF8040B704700BF8446104662468C4682
:100B00001946634600E000BF01B5FFF7B7FF0028B4
:100B100048BF10F1000F01BD4DF808EDFFF7F4FFDD
:100B20000CBF012000205DF808FB00BF4DF808ED68
:100B3000FFF7EAFF34BF012000205DF808FB00BF8B
:100B40004DF808EDFFF7E0FF94BF012000205DF8AD
:100B500008FB00BF4DF808EDFFF7CEFF94BF012062
:100B600000205DF808FB00BF4DF808EDFFF7C4FF5B
:100B700034BF012000205DF808FB00BF4FEA410CA4
:100B80007FEA6C5C02D150EA013C0AD14FEA430C87
:100B90007FEA6C5C02D152EA033C02D14FF00000C4
:100BA00070474FF0010070474FEA410212F5001202
:100BB00015D211D56FF47873B3EB625212D94FEAA4
:100BC000C12343F0004343EA505311F0004F23FA8E
:100BD00002F018BF404270474FF00000704750EAE3
:100BE000013005D111F0004008BF6FF000407047A0
:100BF0004FF00000704700BF4A0011D212F50012FA
:100C000011D20DD56FF47873B3EB62520ED44FEA64
:100C1000C12343F0004343EA505323FA02F07047E4
:100C20004FF00000704750EA013002D14FF0FF3022
:100C300070474FF0000070474FEA4102B2F1E043C5
:100C400024BFB3F5001CDCF1FE5C0DD901F0004CB3
:100C50004FEAC0024CEA5070B2F1004F40EB830003
:100C600008BF20F00100704711F0804F21D113F12F
:100C70003872BCBF01F00040704741F480114FEA68
:100C80005252C2F11802C2F1200C10FA0CF320FAF1
:100C900002F018BF40F001004FEAC1234FEAD3230E
:100CA00003FA0CFC40EA0C0023FA02F34FEA430378
:100CB000CCE77FEA625307D150EA01331EBF4FF001
:100CC000FE4040F44000704701F0004040F0FE401C
:100CD00040F40000704700BF80F0004002E000BF19
:100CE00081F0004142001FBF5FEA410392EA030F17
:100CF0007FEA226C7FEA236C6AD04FEA1262D2EB61
:100D00001363C1BFD218414048404140B8BF5B4265
:100D1000192B88BF704710F0004F40F4000020F0FE
:100D20007F4018BF404211F0004F41F4000121F014
:100D30007F4118BF494292EA030F3FD0A2F101025E
:100D400041FA03FC10EB0C00C3F1200301FA03F19C
:100D500000F0004302D5494260EB4000B0F5000FBF
:100D600013D3B0F1807F06D340084FEA310102F17E
:100D70000102FE2A51D2B1F1004F40EBC25008BF30
:100D800020F0010040EA03007047490040EB0000FA
:100D9000013A28BFB0F5000FEDD2B0FA80FCACF1FB
:100DA000080CB2EB0C0200FA0CF0AABF00EBC25028
:100DB00052421843BCBFD0401843704792F0000F16
:100DC00081F4000106BF80F400000132013BB5E769
:100DD0004FEA41037FEA226C18BF7FEA236C21D0DF
:100DE00092EA030F04D092F0000F08BF0846704744
:100DF00090EA010F1CBF0020704712F07F4F04D112
:100E0000400028BF40F00040704712F100723CBF24
:100E100000F50000704700F0004343F0FE4040F44E
:100E2000000070477FEA226216BF08467FEA23630C
:100E30000146420206BF5FEA412390EA010F40F4F7
:100E4000800070474FF0000304E000BF10F0004343
:100E500048BF40425FEA000C08BF704743F096432A
:100E600001464FF000001CE050EA010208BF704745
:100E70004FF000030AE000BF50EA010208BF7047CC
:100E800011F0004302D5404261EB41015FEA010CE1
:100E900002BF84460146002043F0B64308BFA3F1D9
:100EA0008053A3F50003BCFA8CF2083AA3EBC253BB
:100EB00010DB01FA02FC634400FA02FCC2F12002DA
:100EC000BCF1004F20FA02F243EB020008BF20F011
:100ED0000100704702F1200201FA02FCC2F1200277
:100EE00050EA4C0021FA02F243EB020008BF20EA6C
:100EF000DC70704753B94AB9002908BF00281CBFED
:100F00004FF0FF314FF0FF3000F0A4B9ADF1080C05
:100F10006DE904CE00F03CF8DDF804E0DDE90223E1
:100F200004B0704738B50022002304460D46FFF791
:100F3000FDFD28B920462946BDE8384000F00AB832
:100F4000204605F1004100F005F8404261EB410107
:100F500038BD00BFD0B50C4B002206460F46FFF748
:100F600073FBFFF749FE0446FFF7F4FA074B002234
:100F7000FFF76AFB02460B4630463946FFF7ACF9ED
:100F8000FFF73AFE2146D0BD0000F03D0000F041E1
:100F90002DE9F047089D04468C46002B40F08380E5
:100FA0008A42174647D9B2FA82F242B1C2F1200012
:100FB00024FA00F09140974040EA010C94404FEA37
:100FC0001748230CBCFBF8F61FFA87FE08FB16C176
:100FD00043EA014306FB0EF1994209D9FB1806F1D9
:100FE000FF3080F01981994240F21681023E3B4465
:100FF0005B1AA4B2B3FBF8F008FB103344EA0344D5
:1010000000FB0EFEA64509D93C1900F1FF3380F024
:101010000581A64540F2028102383C4440EA064080
:10102000A4EB0E0400261DB1D4400023C5E9004303
:101030003146BDE8F08702B9FFDEB2FA82F2002A3B
:1010400050D1CB1B4FEA174E1FFA87F80126B3FB8E
:10105000FEFC210C0EFB1C3341EA034108FB0CF3A0
:101060008B4207D979180CF1FF3002D28B4200F283
:10107000E9808446C91AA3B2B1FBFEF00EFB101141
:1010800043EA014408FB00F8A04507D93C1900F1E8
:10109000FF3302D2A04500F2D9801846A4EB080421
:1010A00040EA0C40BFE78B4209D9002D00F0B18027
:1010B0000026C5E9000130463146BDE8F087B3FAA5
:1010C00083F6002E4AD18B4202D3824200F2B880CE
:1010D000841A61EB030101208C46002DA8D0C5E9DC
:1010E000004CA5E7C2F1200320FA03F6974001FA6D
:1010F00002F04FEA174ED9403043030CB1FBFEF625
:101100001FFA87F80EFB161143EA014306FB08F1AC
:10111000994204FA02F409D9FB1806F1FF3C80F069
:101120008D80994240F28A80023E3B445B1A81B234
:10113000B3FBFEF00EFB103341EA034100FB08F362
:101140008B4207D9791800F1FF3C73D28B4271D9D9
:1011500002383944CB1A40EA064678E7C6F1200C3B
:1011600003FA06F422FA0CF31C4320FA0CF701FAF6
:1011700006F34FEA144E21FA0CF11F433B0CB1FB6E
:10118000FEF91FFA84F80EFB191143EA014109FB2D
:1011900008FA8A4502FA06F200FA06F308D961183D
:1011A00009F1FF3048D28A4546D9A9F10209214404
:1011B000A1EB0A01BFB2B1FBFEF00EFB101147EA32
:1011C000014700FB08F8B84507D9E71900F1FF31DE
:1011D0002ED2B8452CD90238274440EA0940A7EB63
:1011E0000807A0FB02894F45C64649461AD317D0C7
:1011F0005DB1B3EB0E0267EB010707FA0CFCF2409E
:101200004CEA0202F740C5E9002700263146BDE856
:10121000F0872E4628460BE70646E9E61846FDE627
:101220004345E5D2B8EB020E69EB04010138DFE774
:101230000846D2E760468DE78146B9E7664675E71E
:1012400030464AE7ACF1020C394413E702383C441B
:1012500024E700BF704700BF30B595B034220021AD
:1012600007A807F07CFE00240294039404940594DC
:1012700006940094194B1A6C42F080521A641B6C4D
:1012800003F080530093009B0194154B1A6842F4BD
:1012900040421A601B6803F440430193019B0225FE
:1012A000079501230A9310230B930D950E940F932A
:1012B000C023109311951295139507A806F052FEBE
:1012C0000F230293039504944FF4805305930694DF
:1012D000032102A806F072FD15B030BD00380240AF
:1012E00000700040F0B585B007F0CAFBFFF7B4FF0F
:1012F00000F0C0FF01F0F6F801F09EFC01F028FCC0
:1013000001F034F901F016F801F05EFA01F08EFAFE
:1013100001F0C0FA01F0C4F904F0ACFA01F078FD74
:1013200001F0ECFE01F0C6FD02F016F868E004F0F2
:1013300067F803F02FFE02F0E5F8002004F014FB3C
:10134000002004F0ADFA002458E003F0B1FF0020C3
:1013500000F0B8FE012004F0D3FB9FED3E0A04F03C
:10136000F9FB40F6B83007F0B7FBE2E7002000F0E9
:10137000A9FE002004F0BEFB012004F0C1FB9FED9C
:10138000360A04F0F1FB40F6B83007F0A5FBD0E7D1
:1013900000F016FCCDE704F00BF9CAE72F4D304CF6
:1013A000304F314E2B4622463978307802F08EF994
:1013B00000232E4A137002932D4B1B7801932D4B63
:1013C00000933B7832782946204603F0C7FCB0E70B
:1013D000294D01224FF46451284607F06DF84FF46F
:1013E0002F7007F079FB00224FF46451284607F074
:1013F00063F84FF4967007F06FFB0134022CE7DDC1
:1014000003F01AFF03F0CCFD0F2892D801A353F884
:1014100020F000BF2F1300084B1300086D130008C5
:101420009113000833130008331300083313000826
:101430009713000833130008331300083313000810
:101440003313000833130008331300083313000864
:101450009D130008EC51B83DDA0FC93F10B70120C9
:1014600010B30120160000201700002024020020E5
:10147000000000200400002000000240704700002F
:1014800008B501F0FDFC034A1388C31A108018B296
:1014900008BD00BF1A00002008B501F0F7FC034AA0
:1014A0001388C31A108018B208BD00BF18000020AE
:1014B00008B52DED028BFFF7E3FF07EE900AF8EE7B
:1014C000E77A9FED2B7A67EE877ADFED2A8A87EE3F
:1014D000A88AFFF7E1FF07EE900AF8EEE77A9FEDA2
:1014E000267A67EE877A87EEA87ADFED246A68EEBF
:1014F000267A234BC3ED007A27EE267A214B83ED23
:10150000007A214BD3ED006AF4EEE67AF1EE10FAA0
:1015100017DDC3ED007A1D4BD3ED006AB4EEE67A19
:10152000F1EE10FA18DD83ED007A77EE877AB6EEE9
:10153000007A67EE877A164BC3ED007ABDEC028B1A
:1015400008BD144BD3ED006AF4EEE67AF1EE10FA22
:10155000E1D5C3ED007ADEE70F4BD3ED006AB4EEC0
:10156000E67AF1EE10FAE0D583ED007ADDE700BF10
:101570007B59C4C500C07F447B59C4452F50D23B22
:101580009C02002090020020A00200209402002073
:1015900080020020A402002098020020014B93ED5D
:1015A000000A70479C020020014B93ED000A70472F
:1015B000A0020020014B93ED000A7047A402002016
:1015C000014B93ED000A7047940200200023044A67
:1015D0001360044A1360044A1360044A136070479E
:1015E000A4020020A0020020980200209402002003
:1015F000014B93ED000A70478002002000000000BC
:1016000038B52DED028B3A4B1A883A4BA3FB0213E7
:10161000DB0803EB8303A2EB43039CB2FFF7E8FF75
:10162000354A02EBC40484ED000A01F0E7FD84EDC5
:10163000010ADFED327AB0EE677A0023092B0DD86C
:101640002D4A02EBC302D2ED006A37EE267AD2EDC4
:10165000016A77EEA67A01339BB2EFE7F2EE046AF5
:10166000C7EE268A87EEA68AB5EEC08AF1EE10FA9A
:1016700030D4F6EE007AB4EEE78AF1EE10FA4CBF01
:10168000012300230BB19FED1D8A18EE100AFEF70F
:1016900083FF15A3D3E90023FEF7D6FF0022184BE2
:1016A000FEF7D2FF04460D4618EE900AFEF774FFCF
:1016B00022462B46FEF712FEFFF7BEFA114B1860CA
:1016C000114B83ED008A0A4A138801331380BDEC65
:1016D000028B38BDFEEE007AB4EEE78AF1EE10FA26
:1016E000CCBF01230023CDE77B14AE47E17A843FD2
:1016F00026020020CDCCCCCC280200200000000027
:101700000000E03F8402002078020020014B93EDAE
:10171000000A704784020020014B93ED000A7047D5
:10172000780200200000000070B5FFF7EFFF10EE18
:10173000100AFEF731FF0BA3D3E90023FEF784FF65
:1017400004460D46064E3068FEF726FF22462B461D
:10175000FEF7C4FDFFF770FA306070BDAFF3008094
:101760007C020020FCA9F1D24D62503F014B93ED69
:10177000000A70477C020020014B83ED000A70478D
:101780007C02002008B501F055FD024B83ED000AF4
:1017900008BD00BF8C020020014B93ED000A70478A
:1017A0008C0200200000000070B50D4B1868FEF799
:1017B000F3FE09A3D3E90023FEF746FF04460D46D6
:1017C000084E3068FEF7E8FE22462B46FEF786FDFF
:1017D000FFF732FA306070BDFCA9F1D24D62503F84
:1017E0008C0200208802002008B5FFF7CBFFFFF72E
:1017F0009BFFFFF7D9FF08BD014B93ED000A70472F
:1018000088020020014B83ED000A70478802002007
:10181000014B93ED000A7047B4020020014B93ED99
:10182000000A7047B002002070B52DED048B04F063
:101830006DF9B0EE409AFFF769FF39EE409A04F077
:101840006BF9F0EE408AFFF7A7FF78EEC08A19EE39
:10185000100AFEF7A1FE2AA3D3E90023FEF7F4FE47
:1018600004460D46204E3068FEF796FE22462B4673
:10187000FEF734FDFFF7E0F908EE100A306018EECD
:10188000900AFEF789FE16A3D3E90023FEF7DCFEDB
:1018900004460D46154E3068FEF77EFE22462B4666
:1018A000FEF71CFDFFF7C8F907EE900A30609FEDC8
:1018B000100A29EE009A38EE098A9FED0E0A68EEAA
:1018C000808A77EEA88A78EE287A0B4BC3ED007AEF
:1018D00038EE688A094B83ED008ABDEC048B70BD3D
:1018E000FCA9F1D23DC9823FA8020020AC02002031
:1018F000D1222B40AD2FB23EB4020020B002002016
:101900008B6CE7FBB935A43F0023024A1360024AFF
:1019100013607047A8020020AC0200200000000005
:101920002DE9F04F2DED088B85B0002001F050FE21
:1019300057EC106B032001F04BFE55EC104B7DA3D0
:10194000D3E9002330463946FEF7C6FC06460F466B
:101950007AA3D3E9002320462946FEF7BDFC0446BE
:101960000D4602460B4630463946FEF7B7FC804628
:10197000894632463B4620462946FEF7ADFC71A318
:10198000D3E90023FEF78AFF06460F466FA3D3E98B
:10199000002340464946FEF757FE614CD4E9002338
:1019A000FEF79CFC41EC1B0BC4E900014EA3D3E9FC
:1019B000002330463946FEF747FE5A4CD4E900234F
:1019C000FEF78CFC41EC1A0BC4E9000148A3D3E9F3
:1019D000002340464946FEF737FE04460D4646A31F
:1019E000D3E9002330463946FEF72EFECDE9020149
:1019F000DFF860B1DBE90023CDE9008940464946C4
:101A0000FEF76AFC3EA3D3E90023FEF71DFEDFF8D4
:101A10004891D9E90023FEF761FC3BA3D3E90023F9
:101A2000FEF73CFF41EC190BDFF830A1DAE90023A7
:101A300030463946FEF750FC35A3D3E90023FEF7C4
:101A400003FEDFF81C81D8E90023FEF747FC32A330
:101A5000D3E90023FEF722FF41EC180B22462B4668
:101A600051EC1B0BFEF73AFC53EC192BFEF736FC3E
:101A700004460D46DDE9022351EC1A0BFEF72EFC5D
:101A800053EC182BFEF72AFCCDE9020102460B4667
:101A900020462946FEF722FC0022234BFEF7D4FD08
:101AA000FFF7CAF8214B1860DDE9022320462946DA
:101AB000FEF712FC00221C4BFEF7C6FDFFF7BCF838
:101AC0001B4B18609DED007B8BED007BCAE9006726
:101AD00089ED009B88ED008B05B0BDEC088BBDE85F
:101AE000F08F00BFAFF3008060E5D0229BA5643F7C
:101AF00000000000631A5F40000000E08A9E194069
:101B000000000060A2AB5340C1CAA1852062F03F33
:101B100000000000236C22407368916D81B6F03F95
:101B2000C8020020E00200200000E03FF402002094
:101B3000F002002000000060BC74833F000000E061
:101B40004F8D873F000000E0BED5A23F08AC1C5A75
:101B5000D4DF9A3FD0020020C0020020E80200201B
:101B6000D8020020014B93ED000A7047F4020020D8
:101B7000014B93ED000A7047F00200200022002381
:101B80000949C1E900230949C1E900230849C1E91C
:101B900000230849C1E900230749C1E90023074997
:101BA000C1E90023704700BFC8020020E002002006
:101BB000D0020020E8020020C0020020D80200204D
:101BC000F8B5012000F07EFA454B00221A8022E091
:101BD000032001F0FDFC53EC102B3BA1D1E90001E7
:101BE000FEF77AFB064601F1004730E0002001F0E5
:101BF000EFFC53EC102B36A1D1E90001FEF76CFB92
:101C0000044601F100453EE0354B00221A80344B7A
:101C10001B88632B4AD8032001F0DAFC53EC102B0D
:101C200029A1D1E90001FEF757FB00220023FEF7AE
:101C30007DFF0028CCD1032001F0CAFC53EC102B0F
:101C400021A1D1E90001FEF747FB06460F4600201F
:101C500001F0BEFC53EC102B1DA1D1E90001FEF7F1
:101C60003BFB00220023FEF761FF0028BED10020CD
:101C700001F0AEFC53EC102B15A1D1E90001FEF7E9
:101C80002BFB04460D4622462B4630463946FEF7CE
:101C90006BFF08B134463D460FA3D3E9002320462D
:101CA0002946FEF761FF0028B1D0ADE703F040FF01
:101CB000FFF762FD03F048FFFFF7A4FD002000F0EE
:101CC00001FAF8BDAFF30080000000E04F8D873FC0
:101CD00000000060BC74833F613255302AA9333F55
:101CE000B8020020054A138801339BB21380642B8D
:101CF00002D9134664221A80704700BFB802002040
:101D000008B5FFF70DFEFFF7EDFF08BD08B52DED97
:101D1000028B03F007FFB0EE408A03F009FF38EEB4
:101D2000408AB5EEC08AF1EE10FA13D403F0FAFE41
:101D3000B0EE408A03F0FCFE38EE408ADFED0E7A0A
:101D4000B4EEE78AF1EE10FA4CBF01200020BDECA2
:101D5000028B08BD03F0E6FEB0EE408A03F0E8FE19
:101D600038EE408ADFED057AB4EEE78AF1EE10FA3C
:101D7000CCBF01200020EAE717B7513917B751B996
:101D800008B52DED028B03F0D9FEB0EE408A03F0CA
:101D9000DBFE38EE408AB5EEC08AF1EE10FA13D4BD
:101DA00003F0CCFEB0EE408A03F0CEFE38EE408A5F
:101DB000DFED0E7AB4EEE78AF1EE10FA4CBF0120A7
:101DC0000020BDEC028B08BD03F0B8FEB0EE408AE7
:101DD00003F0BAFE38EE408ADFED057AB4EEE78A0A
:101DE000F1EE10FACCBF01200020EAE70AD7A33BAE
:101DF0000AD7A3BB08B5002003F076FE002003F04D
:101E00007FFE9FED040A03F0A5FEFFF77FFF002889
:101E1000FBD008BD22727A3C08B5002003F064FEB6
:101E2000002003F06DFE9FED040A03F093FEFFF720
:101E30006DFF0028FBD008BDEC51383D08B50020EF
:101E400003F052FE012003F05BFE9FED040A03F055
:101E500081FEFFF75BFF0028FBD008BDEC51383D49
:101E600008B5002003F040FE002003F049FE9FED7E
:101E7000040A03F06FFEFFF749FF0028FBD008BDFE
:101E8000EC51B83D08B5012003F034FE9FED040A83
:101E900003F06AFEFFF774FF0028FBD008BD00BF07
:101EA000DA0FC9BF08B5002003F024FE9FED040A35
:101EB00003F05AFEFFF764FF0028FBD008BD00BF07
:101EC000DA0FC93F08B59FED060A03F04DFE9FEDFE
:101ED000050A03F049FEFFF753FF0028FBD008BDB9
:101EE00000000000DA0F4940014B00221A707047D1
:101EF000FB0200200023034A1370034A1370034AB5
:101F000013707047F8020020FA020020F902002046
:101F1000014B01221A707047F8020020014B012288
:101F20001A707047FA020020014B01221A707047A4
:101F3000F902002008B5094B1B784BB1074B1B7801
:101F4000012B08D0054B01221A70FFF7D3FF08BD03
:101F5000FFF762FFF2E7FFF783FFF3E7FB020020E2
:101F600008B5134B1B783BB9124B1B78012B0DD0D6
:101F7000FFF788FFFFF750FF0D4B1B78012B08D0B0
:101F80000B4B01221A70FFF7B5FF08BDFFF718FED3
:101F9000EEE7FFF753FF074B1B78012B04D0FFF749
:101FA00071FFFFF739FFEBE7FFF70AFEF7E700BF26
:101FB000FB020020F802002008B5134B1B783BB948
:101FC000124B1B78012B0DD0FFF76CFFFFF724FF9E
:101FD0000D4B1B78012B08D00B4B01221A70FFF719
:101FE00089FF08BDFFF7ECFDEEE7FFF727FF074B82
:101FF0001B78012B04D0FFF755FFFFF70DFFEBE730
:10200000FFF7DEFDF7E700BFFB020020F80200202B
:1020100008B5284B1B783BB9274B1B78012B0DD0FB
:10202000FFF750FFFFF7F8FE224B1B78012B1DD066
:10203000204B01221A70FFF75DFF08BDFFF7C0FDBE
:102040001E4B1B78012B0AD01D4B1B78012BE9D1AD
:10205000FFF728FFFFF7B4FDFFF724FFE2E7FFF7E4
:1020600011FFFFF7ADFDFFF70DFFDBE7FFF7E6FE22
:10207000114B1B78012B04D0FFF724FFFFF7CCFE98
:10208000D6E7FFF79DFD0D4B1B78012B0AD00C4BBB
:102090001B78012BF2D1FFF705FFFFF791FDFFF74A
:1020A00001FFEBE7FFF7EEFEFFF78AFDFFF7EAFE21
:1020B000E4E700BFFB020020F8020020FA02002043
:1020C000F9020020014B1870704700BFFC0200208D
:1020D00008B5FFF79DFB044B83ED000AFFF79EFB5D
:1020E000024B83ED000A08BD080300200403002012
:1020F00008B5FFF737FD044B83ED000AFFF738FD05
:10210000024B83ED000A08BD0803002004030020F1
:102110000023024A1360024A13607047080300203C
:10212000040300200023024A1360024A1360704730
:10213000080300200403002008B5094B1B78012B7D
:1021400008D0022B09D013B1FFF7ECFF01E0FFF735
:10215000BFFF08BDFFF7CCFFFBE7FFF7D9FFF8E7AC
:10216000FC02002008B5064B1B7813B1012B03D0ED
:1021700008BDFFF703FDFBE7FFF7C6FBF8E700BF6D
:10218000FC02002008B52DED028B114B93ED008A67
:1021900000F02CFEC8EE007A9FED0E8A67EE887A7A
:1021A000FDEEE77A0C4B17EE902A1A800B4BD3ED1D
:1021B000008A00F01BFEC8EE807A67EE887AFDEE9A
:1021C000E77A074B17EE902A1A80BDEC028B08BD08
:1021D0000803002000007A440003002004030020CC
:1021E000FE0200200C4BB3F90030002B0BDD28332E
:1021F000094A1380094BB3F90030002B07DD28335F
:10220000064A138070472D3B034A1380F2E72D3BAB
:10221000024A1380704700BF00030020FE02002026
:1022200008B5054BB3F9000003F03AFB034BB3F9D3
:10223000000003F099FB08BDFE020020000300200F
:1022400008B5FFF779FFFFF78DFFFFF79BFFFFF75B
:10225000C9FFFFF7E5FFFFF785FF08BD014BB3F9A5
:102260000000704700030020014BB3F900007047E5
:10227000FE0200202DE9F04389B000240394049469
:102280000594069407940194274B1A6B42F00102BF
:102290001A631A6B02F001020192019A02941A6BFE
:1022A00042F002021A631B6B03F002030293029BCB
:1022B0001E4D224643F6F011284606F0FDF8DFF8E1
:1022C000708022464FF48051404606F0F5F8F02326
:1022D00003930127049705940326069603A928462D
:1022E00006F00AF84FF00209CDF80C90049405941A
:1022F00003A9404606F000F84FF480530393049777
:102300000594069603A9404605F0F6FF4FF4645382
:1023100003930497CDF81490069603A9284605F078
:10232000EBFF09B0BDE8F083003802400000024036
:102330000004024000B585B000230093019302938E
:1023400003933048304A02604FF480324260836029
:1023500001220261037680F820304FF04051C162C3
:102360004FF000718162C3600521C16180F83020A7
:10237000436103F069FE002831D108230093012353
:1023800001930323029369461E4803F075FF48BB7F
:10239000002300930223019369461A4803F06CFF5F
:1023A00018BB01230093032301936946154803F0EA
:1023B00063FFE8B90223009304230193694611489F
:1023C00003F05AFFB8B9032300930523019369462C
:1023D0000C4803F051FF88B905B05DF804FBFFF726
:1023E0004DF8CAE7FFF74AF8D2E7FFF747F8D8E712
:1023F000FFF744F8DEE7FFF741F8E4E7FFF73EF8C0
:10240000EAE700BF10BB01200020014070B588B092
:10241000002303930493059306930793026803F143
:10242000804303F590339A4201D008B070BD044652
:102430000025009503F58C335A6C42F480725A647F
:102440005A6C02F480720092009A01951A6B42F065
:1024500001021A631A6B02F001020192019A0295BD
:102460001A6B42F002021A631B6B03F00203029321
:10247000029B0F23039303260496059503A9154891
:1024800005F03AFF012303930496059503A912482A
:1024900005F032FF1148124B036045608560C5604E
:1024A0004FF4806303614FF4006343614FF40053C2
:1024B00083614FF48073C3614FF44033036245621C
:1024C00006F080F818B9054BA3639C63ADE7FEF7EF
:1024D000D5FFF8E7000002400004024058BB01208D
:1024E0001064024010B582B0002400941E4B1A6B99
:1024F00042F400121A631A6B02F400120092009A5E
:1025000001941A6B42F480021A631B6B03F480037C
:102510000193019B224621460E2006F033FA0E203D
:1025200006F064FA224621460F2006F02BFA0F200F
:1025300006F05CFA22462146382006F023FA3820BD
:1025400006F054FA22460121392006F01BFA392000
:1025500006F04CFA224601213A2006F013FA3A20FE
:1025600006F044FA02B010BD0038024008B50F482A
:102570000F4B03604FF48273436000238360C3609A
:1025800002220261012242614FF400728261202224
:10259000C2610362436283620A23C36204F002F8E9
:1025A00000B908BDFEF76AFFFBE700BFB8BB01201A
:1025B0000038004030B589B000230393049305939D
:1025C000069307930268304B9A4201D009B030BDA0
:1025D00004460025019503F500331A6C42F480424D
:1025E0001A641A6C02F480420192019A02951A6BE5
:1025F00042F002021A631B6B03F002030293029B78
:102600004FF4604303930223049305950323069339
:102610000523079303A91D4805F06EFE1C481D4BBA
:10262000036045608560C5604FF480630361456168
:102630008561C5614FF400330362456205F0C2FF56
:10264000D8B9134BE3649C631348144B0360002315
:10265000436040228260C3604FF480620261436144
:102660008361C3614FF400320262436205F0AAFF46
:1026700030B9094BA3649C63A8E7FEF7FFFEE0E7CF
:10268000FEF7FCFEF5E700BF003800400004024002
:1026900010BC01205860024070BC012070600240F4
:1026A00010B596B0002412941394149415941094B9
:1026B000119409940A940B940C940D940E940F9415
:1026C0002022214601A806F04AFC3D483D4B03600C
:1026D000446084604FF6FF13C36004614461846109
:1026E00004F05CFD002850D14FF48053129312A9DE
:1026F000334804F0D0FE00284AD1314804F082FD6E
:10270000002848D12E4804F063FD002846D100235C
:102710001093119310A92A4804F0D2FF002840D149
:102720006023099301230A9300220B920C920D92CD
:102730000E920F9209A9224804F033FE002833D1EB
:1027400041F658330A93042209A91D4804F029FED2
:1027500068BB302309934FF4B4530A93082209A9A4
:10276000174804F0EFFD28BB002301930293039365
:10277000049305934FF400520692089301A9104860
:1027800004F0C1FFC8B916B010BDFEF777FEABE785
:10279000FEF774FEB1E7FEF771FEB3E7FEF76EFEDB
:1027A000B5E7FEF76BFEBBE7FEF768FEC8E7FEF78E
:1027B00065FECEE7FEF762FED6E7FEF75FFEE2E7D4
:1027C00074BE01200000014000B58DB000230193CC
:1027D000029315484FF080420260436083604FF6D9
:1027E000FF72C2600361836103220392049301229A
:1027F000059206930793089309920A930B9303A9F2
:1028000004F01AFD50B900230193029301A9064870
:1028100004F056FF28B90DB05DF804FBFEF72EFE5C
:10282000F1E7FEF72BFEF6E7C4BE012000B58DB040
:102830000023019302931548154A026043608360A8
:102840004FF6FF72C2600361836103220392049317
:102850000122059206930793089309920A930B931A
:1028600003A904F0E9FC50B900230193029301A9E4
:10287000064804F025FF28B90DB05DF804FBFEF70B
:10288000FDFDF1E7FEF7FAFDF6E700BFD8BD012038
:102890000004004000B583B00023009301930F486B
:1028A0000F4A026003224260836045F6BF52C26055
:1028B000836104F073FC50B90023009301936946CF
:1028C000064804F0FDFE28B903B05DF804FBFEF7EE
:1028D000D5FDF1E7FEF7D2FDF6E700BF34BE0120DB
:1028E0000010004010B584B00368404A934207D0FE
:1028F0003F4A934258D03F4A934262D004B010BD41
:1029000004460023019302F59C32516C41F0010111
:102910005164526C02F001020192019A3648374A22
:1029200002604FF04062426040228260C3604FF418
:10293000806202614FF4006242614FF40052826192
:102940004FF48072C2614FF400320262436205F0BC
:1029500039FE18BB284B63629C632948294B0360EE
:102960004FF040634360402383600023C3604FF413
:10297000806202614FF4006242614FF40052826152
:102980004FF48072C2614FF400320262436205F07C
:1029900019FE30B91A4BA3629C63AFE7FEF76EFDD8
:1029A000D8E7FEF76BFDF5E700230293164B1A6C90
:1029B00042F004021A641B6C03F004030293029BAE
:1029C0009CE700220392104B196C41F0100119642E
:1029D0001B6C03F010030393039B0221362005F0C8
:1029E000D1FF362006F002F888E700BF0000014062
:1029F0000008004000100040D0BC012028640240C4
:102A000078BD0120406402400038024070B58AB0B1
:102A10000023059306930793089309930368B3F182
:102A2000804F04D02F4A93423AD00AB070BD0024A0
:102A3000009403F50E331A6C42F001021A641A6C0A
:102A400002F001020092009A01941A6B42F0010216
:102A50001A631A6B02F001020192019A02941A6B36
:102A600042F002021A631B6B03F002030293029B03
:102A70004FF4004305930226069607940894012517
:102A8000099505A9184805F037FC08230593069613
:102A900007940894099505A9144805F02DFCC4E78E
:102AA00000220392124B196C41F002011964196C57
:102AB00001F00201039103990492196B41F00201A4
:102AC00019631B6B03F002030493049B30230593EB
:102AD0000223069307920892099305A9034805F07B
:102AE0000BFCA2E70004004000000240000402408A
:102AF0000038024000B587B000230193029303938E
:102B0000049305930268104B9A4202D007B05DF817
:102B100004FB0021009103F50C331A6B42F0020212
:102B20001A631B6B03F002030093009B4FF4707356
:102B3000019302230293039103220492059301A9B6
:102B4000024805F0D9FBE1E700080040000402401C
:102B500000B58FB000230A930B930C930D93089349
:102B600009930193029303930493059306930793A8
:102B70002F48304A02604360836040F2BF32C26037
:102B80000361836104F00AFB002839D14FF48053BC
:102B90000A930AA9264804F07EFC002833D1244871
:102BA00004F030FB002831D100230893099308A9D1
:102BB0001F4804F085FD60BB702301930022029240
:102BC0000392059201A91A4804F0EBFB20BB0422F2
:102BD0000DEB0201164804F0E4FB00BB082201A93A
:102BE000134804F0DEFBE8B90C2201A9104804F0F8
:102BF000D8FBD0B90E48FFF77DFF0FB05DF804FB9E
:102C0000FEF73CFCC2E7FEF739FCC8E7FEF736FCEE
:102C1000CAE7FEF733FCCFE7FEF730FCD7E7FEF755
:102C20002DFCDBE7FEF72AFCDEE7FEF727FCE1E7F9
:102C300030BD01200008004008B50A480A4B036077
:102C40004FF46133436000238360C36003610C224F
:102C500042618361C36104F04FFF00B908BDFEF714
:102C60000DFCFBE704BF01200010014000B589B056
:102C7000002303930493059306930793026803F1DB
:102C8000804303F588339A4202D009B05DF804FB13
:102C90000021019103F594335A6C42F010025A64FA
:102CA0005A6C02F010020192019A02911A6B42F0E2
:102CB00001021A631B6B03F001030293029B4FF4A2
:102CC000C063039302230493012305930323069314
:102CD0000723079303A9024805F00EFBD5E700BFC1
:102CE000000002407047FEE7FEE7FEE7FEE77047A0
:102CF0007047704708B505F0DDFE08BD08B502480D
:102D000005F014FD08BD00BF10BC012008B5024845
:102D100005F00CFD08BD00BF70BC012008B50548DA
:102D200004F01BF900F020FB00F0A6FA00F040FBD5
:102D300008BD00BF34BE012008B5024805F0F6FC0E
:102D400008BD00BF58BB012008B5024805F0EEFCE5
:102D500008BD00BFD0BC012008B5024805F0E6FC64
:102D600008BD00BF78BD012082B0002100910B4B4F
:102D70005A6C42F480425A645A6C02F480420092C7
:102D8000009A01911A6C42F080521A641B6C03F095
:102D900080530193019B02B0704700BF003802408E
:102DA0000F49D1F8883043F47003C1F888300D4BD7
:102DB0001A6842F001021A60002098601A6822F036
:102DC000847222F480321A60074A5A601A6822F428
:102DD00080221A60D8604FF000638B60704700BF9C
:102DE00000ED00E0003802401030002408B500F08B
:102DF000DDFB07EE900AF8EEE77AB1EE080A67EE1F
:102E0000807A9FED020A27EE800A08BD0000803913
:102E100010B5084C23680021986807F06BF8236808
:102E20000021586807F066F823680021D86807F089
:102E300061F810BD3000002000B583B08DF80700A8
:102E400001231A460DF10701024804F084FE03B085
:102E50005DF804FB04BF012000B583B0022038B147
:102E60000A2301220DF10701044804F0E4FEF6E70D
:102E70009DF8070003B05DF804FB00BF04BF01200C
:102E80004FF08043586A80B270470000014B586A87
:102E900080B2704700040040024B47F6FE725A624F
:102EA000704700BF000400404FF0804347F6FE72B9
:102EB0005A62704708B53C21054804F0DFFB3C210D
:102EC000044804F0DBFBFFF7E7FFFFF7EDFF08BD69
:102ED000C4BE0120D8BD0120084B5B6AA3F5FF43A7
:102EE0007E3B07EE903AF8EEE77A9FED050A67EE33
:102EF000807A9FED040A87EE800A70470004004044
:102F0000DA0FC94000C07F444FF080435B6AC3F5CD
:102F1000FF437E3307EE903AF8EEE77A9FED040A1E
:102F200067EE807A9FED030A87EE800A704700BF44
:102F3000DA0FC94000C07F4438B504460D4621F081
:102F4000004100221B4BFDF7F1FD90B100221A4B0E
:102F500020462946FDF7FEFD70B10022164B2046A3
:102F60002946FDF7BBF941EC100B0AF01DFB55ECAF
:102F7000104B2046294638BD0022104B20462946DA
:102F8000FDF7F2FD40B10022002320462946FDF75F
:102F90005BFB04460D46ECE70022074B2046294622
:102FA000FDF79AF941EC100B0AF07EFA55EC104B44
:102FB000DFE700BF000030430000E03F0000E0BF5B
:102FC0002DE9F84305460F4616469846D1F800907D
:102FD00000244C450EDA35F81400FDF7BBFA002248
:102FE000174BFDF731FB174A02EBC402C2E900019F
:102FF0000134EEE7D7F8009000254D450ADA114C70
:1030000004EBC50494ED000B0AF052FB84ED000BB9
:103010000135F2E73D68C8F8005000240BE0094B89
:1030200003EBC403D3E90001FFF786FFFDF7E4FDDE
:1030300026F814000134A542F1DCBDE8F88300BF96
:103040000000A03F1003002030B585B08DF80710B8
:1030500000F07F008DF80F000E4C00224FF48051DD
:10306000204605F029FA0C4D01231A460DF10F01F7
:10307000284603F0D7FA01231A460DF10701284626
:1030800003F0D0FA01224FF48051204605F014FAE3
:1030900005B030BD00040240B8BB012030B583B09C
:1030A00060F07F008DF807000F4C00224FF4805134
:1030B000204605F001FA0D4D01231A460DF10701D6
:1030C000284603F0AFFA01231A460DF106012846FF
:1030D00003F096FC01224FF48051204605F0ECF9F4
:1030E0009DF8060003B030BD00040240B8BB0120CB
:1030F00008B50020FFF7D2FF08BD000008B5642026
:1031000005F0EAFCFFF7F4FFFFF7F2FFE02803D039
:103110001E4806F051FEFBE7642005F0DDFC10219F
:103120000320FFF791FF012005F0D6FC01210620C6
:10313000FFF78AFF642005F0CFFC20217F20FFF7F6
:1031400083FF642005F0C8FC07210120FFF77CFF06
:10315000012005F0C1FC0D211420FFF775FF0120AF
:1031600005F0BAFC00217F20FFF76EFF642005F018
:10317000B3FC00224FF48051054805F09DF90D2362
:10318000044A0549054803F0EFFC08BD88DC000847
:10319000000402401823002020000020B8BB0120BA
:1031A00038B5104D01224FF48051284605F084F9BE
:1031B0000D4CE278237943EA02230C4A1380E27A29
:1031C000237B43EA02230A4A138000224FF48051F2
:1031D000284605F071F90D2322460649064803F0FA
:1031E000C3FC38BD00040240182300201223002035
:1031F0001623002020000020B8BB0120094BB3F9A2
:103200000030094AB2F900209B1A07EE903AF8EE16
:10321000E77A9FED060A67EE807A9FED050A27EEB2
:10322000800A704712230020102300200AE81C4166
:10323000000080390B4BB3F900300B4AB2F9002083
:103240009B1A07EE903AF8EEE77A9FED087AC7EE00
:10325000876A9FED077AC6EE877A9FED060A20EE11
:10326000670A7047162300201423002019048641A2
:1032700000003443DA0F494008B5FEF719F9FEF7AC
:10328000BFF901F081FE012800D008BD01F088FEE1
:1032900001380E28F9D801A353F820F0D9320008DC
:1032A000F33200080D330008273300082D330008DF
:1032B00033330008393300088B3200088B320008A2
:1032C0008B3200088B3200088B3200088B320008EA
:1032D0008B3200083F33000801F0F0FFFEF784FA5C
:1032E00002F00EFEFEF7A0FAFEF70AFDFEF7A8FFB9
:1032F000CBE701F0E3FFFEF777FA02F001FEFEF7FD
:1033000093FAFEF7FDFCFEF79BFFBEE701F0D6FF48
:10331000FEF76AFA02F0F4FDFEF786FAFEF7F0FC1B
:10332000FEF78EFFB1E701F0C9FFAEE701F0C6FF7F
:10333000ABE701F0C3FFA8E701F0C0FFA5E701F08C
:10334000BDFFFEF751FA02F0DBFDFEF76DFAFEF766
:10335000D7FCFEF775FF98E708B5024803F0E5FDD6
:1033600008BD00BF34BE012008B50C4B1B685A6A6B
:103370000B4B1A600B4B18685968013041F1000182
:1033800018605960FDF770FD06EE900A9FED067A11
:10339000C6EE877A054BC3ED007A08BD34BE012026
:1033A000382300203023002000007A442823002006
:1033B0000A4B19684B6A0A4A12689A1A4FF47A73D0
:1033C00003FB02F3CA6AB3FBF2F3064A1360064A30
:1033D00011688B4238BF0B461360704734BE012022
:1033E000382300203C23002040230020014B188874
:1033F000704700BF3C230020014B1888704700BF76
:1034000040230020014B93ED000A70472823002041
:103410000E4B1B78012B10D0022B12D04BB15A1C33
:103420000B4B83FB021303EB4303D31A074A1370BE
:103430007047084A90211180F1E7064A6021118007
:10344000EDE7044A00211180E9E700BF5023002086
:10345000565555555423002010B500210B4B1980AB
:103460000B4B19800B4B19700B4C23686FF001024A
:103470001A61204604F0AEF80421204604F0AAF8B0
:103480000821204604F086F810BD00BF522300201A
:10349000542300205023002074BE012038B5124C64
:1034A000124A0021A06A05F02FFA114D01232A4685
:1034B0001049606A05F0ECF801232A460E49A06A1B
:1034C00005F0E6F805220D490D4802F0E9FD2368F4
:1034D000DA6842F4C062DA605A6C42F400425A641C
:1034E000FFF7BAFF38BD00BF74BE012011340008D9
:1034F00014000240542300205223002044230020C3
:1035000010BB012010B50C4C0021204604F082F8BD
:103510000421204604F07EF80821204604F07AF8C1
:10352000A06A05F0EFF8606A05F0ECF80022F021DF
:10353000024804F0C1FF10BD74BE0120000002402B
:10354000154B1A780232154B83FB021303EB43032E
:10355000D31A012B11D0022B16D003B17047104B98
:103560001988104A118059880F4A118099889180D2
:10357000D98811811B8993817047094A51880A4B68
:1035800059801289DA817047054A9188064BD980A3
:10359000D2885A81E2E700BF502300205655555586
:1035A000442300204E23002058230020014B18887C
:1035B000704700BF4E230020044A02EB80035B8863
:1035C00032F82000181A00B2704700BF58230020BC
:1035D0002DE9F8432DED028B0446FFF7EDFF05467C
:1035E000FCF7C8FF642D30DD41EC100BECB1002678
:1035F0000027B046B946032C1FD00AF097F853ECC9
:10360000102B40464946FDF749F932463B46FCF748
:1036100063FE02460B4643EC182B00220023FDF705
:1036200085FAA0B19FED0E8B11E011A7D7E90067D5
:103630000FF24409D9E90089DDE711A7D7E900674E
:103640000FF23409D9E90089D7E79FED078BB0EE77
:10365000480AF0EE680ABDEC028BBDE8F88300BFB3
:1036600000000000000000000AD7A3703D0AB73F29
:1036700090A0F831E6AEB53F666666666666E63FE0
:10368000CBA145B6F3FDB43FF0B58BB00D48C28970
:10369000838944890189C58887884688008808907D
:1036A0000796361A069605970495ED1B0395029129
:1036B0000194641A0094D11A034806F07DFB0BB004
:1036C000F0BD00BF5823002094DC00082DE9F8432A
:1036D00004468846174699464FF4806200213846D2
:1036E00005F03DFC611E8C4200D20021002426E042
:1036F00004EB4012BB5C43F00103BB5416E004EB47
:103700004012BB5C43F00203BB5412E04201BB5CBD
:1037100043F00403BB540EE03B5D43F008033B550C
:103720002846B0420ADA621C8A42E1D0451CB54202
:10373000E5D0002CEAD00028F2D1EDE701348C422C
:1037400006DA08F1FF36B04500D200260020E8E78F
:103750003B7843F002033B7097F8203043F00803B6
:1037600087F820304FF480623946484605F0E9FB7F
:103770003B7843F0010389F800307B7843F0040381
:1037800089F80130BDE8F8832DE9F04F89B0824611
:10379000934618460593179B9DF8602002920122DC
:1037A0000A708BF800209AF8002003920270002221
:1037B0000192D146DDF850A0B8E10132AA420CDAFC
:1037C0000C78985C8442F8D19BF800409818407AB5
:1037D0008442F2D101200190EFE7019A002A40F0E3
:1037E000A38199F800809BF8004004940D786A1E2C
:1037F000560104EB4212013A1598825CB8F1070FAA
:1038000053D8012000FA08F0C0B21040139F97F877
:1038100000E070454BD099F801C0BCF1070F56D8B5
:10382000012000FA0CF0C0B21040864551D099F842
:103830000270072F60D80120B840C0B21040864502
:103840005CD099F803600696072E66D80120B04038
:10385000C0B20240964562D0039A02F1040EBEF156
:10386000FF0F01D94FF0FF0E059A1278AEEB020060
:10387000864500D2002000F003009AF800E09AF894
:10388000016004969AF8026007969AF80360704502
:1038900058D0049CA04200F0B880079CA04200F0E1
:1038A0008E80B04260D000223FE10020ADE7601C76
:1038B000FF2800D9FF203044169F384410F8010C2F
:1038C000029FB842A7D2CDF80C800290A3E7002057
:1038D000AAE7681CFF2800D9FF200138049F07EBE6
:1038E0004010169F384410F8010C029FB8429ED237
:1038F000CDF80CC002909AE700209FE7601E84423A
:1039000000D200203044169E304410F8010C029E74
:10391000B04296D20397029093E7002099E76A1E7F
:10392000954200D20022013A049800EB4212169808
:10393000024412F8012C029882428DD2069803901C
:10394000029289E7424500F08980624500F08C8050
:10395000BA4200F08F800698824200F091800D708C
:103960008BF800400022E0E00432FF2A00F2C2801F
:10397000013A504202F0030200F0030058BF4242F5
:10398000D2B2059802700C789BF8000099F80050AC
:10399000AA4200F0B18099F80150AA4200F0B2802A
:1039A00099F80250AA4200F0B38099F80350AA4255
:1039B00000F0B4800C708BF800000022B5E00432F7
:1039C000FF2A7DD8023A504202F0030200F00300C1
:1039D00058BF4242D2B2059802700C789BF80000A2
:1039E00099F80050AA426DD099F80150AA426FD0C0
:1039F00099F80250AA4271D099F80350AA4273D0A4
:103A00000C708BF8000000228FE00432FF2A3DD8B2
:103A10000132FF2A00D9FF22504202F0030200F0D7
:103A2000030058BF4242D2B2059802700C789BF84E
:103A3000000099F80050AA422AD099F80150AA42F1
:103A40002CD099F80250AA422ED099F80350AA42DD
:103A500030D00C708BF80000002266E00134FF2C9F
:103A600000D9FF24E4B270E70135FF2D00D9FF250E
:103A7000EDB26DE7601E844200D20020C4B26AE756
:103A80006A1E954200D20022D5B268E7FF22BFE746
:103A90000130FF2800D9FF20C0B2CEE70134FF2C4F
:103AA00000D9FF24E4B2CCE7451EA84200D200258D
:103AB000E8B2CAE7621E944200D20022D4B2C8E73C
:103AC000FF227FE70130FF2800D9FF20C0B28BE73B
:103AD0000134FF2C00D9FF24E4B289E7451EA84237
:103AE00000D20025E8B287E7621E944200D200228D
:103AF000D4B285E7FF223BE70130FF2800D9FF2041
:103B0000C0B248E70134FF2C00D9FF24E4B247E7F4
:103B1000451EA84200D20025E8B246E7621E944244
:103B200000D20022D4B245E701221AB9129A1578C0
:103B3000002243E609B0BDE8F08F30B404789C421F
:103B40000AD044789C420ED084789C4212D0C2782D
:103B50009A4216D030BC704714780134FF2C00D93B
:103B6000FF241470EDE70C780134FF2C00D9FF24FA
:103B70000C70E9E715786C1EA54200D20024147081
:103B8000E5E70A78531E9A4200D200230B70E1E762
:103B90002DE9F04FADF5805D87B004460D460DF57B
:103BA000825108680DF582510C310F68591E8B4205
:103BB00000D20021531E9A4200D2002303FB01F3DE
:103BC000FF2B00D9FF235A1E934200D200225FFA36
:103BD00082F80DF5825310331B6883F800800023B0
:103BE000B3F5806F03DA07F803800133F8E70DF5CA
:103BF000825304331E78002209E083185B7A815CCB
:103C0000013903EB4113013B0021F9540132B24267
:103C1000F3DB43E10133A9B9B3F5806F12DAFA5C43
:103C2000B242F7D109F101005A1CDFF884C22CF826
:103C30001920B0F5806F02DA13468146EBE7814622
:103C40000121E8E7B9F1000F0FDD0DF580531433C2
:103C5000C3F80090002399450ADD954A32F9131004
:103C6000944A22F813100133F5E74FF00009ECE70E
:103C70000DF580531033C3F800900023994508DDFB
:103C80008C4A32F81320013A8B4921F81320013372
:103C9000F4E70DF60C030DF501620DF580511031BE
:103CA000854801F0C5FEDDF80CA8002203E00DF206
:103CB0000C418B54013252450EDA0DF5016333F895
:103CC00012300133B3F5803F01D34FF6FF739BB23F
:103CD000FF2BECD9FF23EAE70023994507DD75495F
:103CE00031F81320013A21F813200133F5E70DF6DE
:103CF0000C030DF501620DF5805114316D48FFF78D
:103D00005FF9DDF80C08002202E003A98B540132B0
:103D100082420EDA0DF5016333F812300133B3F548
:103D2000803F01D34FF6FF739BB2FF2BEDD9FF23EA
:103D3000EBE7BAF1000F05DBBAF1FF0F04DD4FF03E
:103D4000FF0A01E04FF0000A1AF0FF0F00F0A18017
:103D50005FFA8AFE00213AE0002257E00CF10102EE
:103D6000FF2A00D9FF2292440AF1FF3A17F80A20ED
:103D7000904550D1721C07F80A20012200924AE0B7
:103D8000002251E009F10102FF2A00D9FF22013A85
:103D90000CEB4212013A17F802A0D04549D106F1C6
:103DA000010A07F802A00122009242E0002249E045
:103DB000023BFA5C90454AD1721CFA5401230093ED
:103DC00045E0002318402B78984247D001317145D7
:103DD00054DA94F800B003AB13F8019009F1FF3303
:103DE0004FEA431A0DF20C4212F801C00CEB4313D8
:103DF0000DF58252083212681A4412F8010CBBF118
:103E0000070FA9D8012202FA0BF2D2B2024095F8AC
:103E100000B05A45A2D094F801A0BAF1070FAFD86C
:103E2000012202FA0AF2D2B2024095F800A05245ED
:103E3000A8D094F802A0BAF1070FB7D8012202FA6D
:103E40000AF2D2B2024095F800A05245B0D0E27812
:103E5000072AB6D801239340DBB2B3E7A9F10209E0
:103E60000CEB491C0CF1FF3C17F80C309845ADD118
:103E7000731C07F80C3001230093A7E70136F6B254
:103E8000019B4BB9B04507D301994FF000094B4650
:103E9000C1E601230193F3E7009B23B100230193C3
:103EA0001E460093ECE70DF5805D07B0BDE8F08F8E
:103EB000702B0020703B0020702300202DE9F04F74
:103EC000ADF24C4D0990079114460C93DDF87074D7
:103ED000DDF874949DF87C340A939DF880340B933C
:103EE000DDF88464DDF88884DDF88CA49DF89034D6
:103EF0000D939B46002308930EE1DDF878341B7880
:103F000003F00303099A52780DF589610B4403F815
:103F1000042CFDF7FDFF2EE10023A5E10023C6E1FF
:103F20000023E0E10023F8E1002312E200232AE26B
:103F3000002344E200235CE2002180E20021ADE2A4
:103F40000021D0E20021F4E2002317E3002337E34D
:103F500000225EE3002381E301335B450EDA39780A
:103F60001AF803209142F7D199F800100AEB0302E6
:103F7000527A9142F0D101220892EDE7089B5BBB97
:103F80000DF13F03049310AB039302960D9B019335
:103F9000CDF800A00B9B0A9A09992046FFF7F8FD7F
:103FA0002278072A1ED801239340DBB2725D1A42A1
:103FB0001AD199F800300133FF2B00D9FF23069A5C
:103FC0001344013B10AAD35C9DF83F20934216D2C4
:103FD0008DF83F30227808E0FDF730FF0DF24C4DB0
:103FE000BDE8F08F0023E1E7089A94F801C0BCF126
:103FF000070F06D8012505FA0CF5EDB202E0089A84
:10400000F3E7002599F8000039784B1E00EB4313C5
:10401000334413F8013C2B4210D10131FF2900D960
:10402000FF21013900EB4111013910AB5B5C9DF8B8
:104030003F108B4202D28DF83F306246A578072DA3
:1040400003D80121A940C9B200E0002199F800007D
:104050003B78013B00EB4313334413F8013C0B4224
:104060000FD1431E984200D2002306990B44013B16
:1040700010A9CB5C9DF83F108B4202D28DF83F30E7
:104080002A4694F803C0BCF1070F04D8012000FAB7
:104090000CF0C0B200E0002099F800103D786B1ED3
:1040A00001EB4313334413F8013C03420ED16B1E62
:1040B0009D4200D20023013B01EB4311013910ABBB
:1040C000595C9DF83F30994200D262460432FF2A83
:1040D00000D9FF22DDF878341B78D31A9A4200D237
:1040E00000235A4203F0030302F0030258BF534275
:1040F000DBB20C9D29786A788DF83F20A878ED789E
:104100008B4200F0C9829A4200F05583834200F04E
:104110001D83AB4200F0E58200208DF844048DF849
:1041200040048DF845048DF841048DF846048DF85F
:1041300042048DF847048DF84304FFF73DFA054625
:104140000320FFF739FA054405EBD5756B10CA4D0E
:104150002B800220FFF730FAC84B18800120FFF7B0
:104160002BFAC74B1880B5F90020C64BB3F90030C5
:104170009A423FF7C2AEDDF878341B7803F00302B1
:10418000079949780DF58960024402F8081CBB4A7A
:10419000B2F90010BC4AB2F90020914213DD01339C
:1041A000FF2B00D9FF235A4203F0030302F003025E
:1041B00058BF5342099A52780DF589610B4403F8B0
:1041C000042CFDF7ABFEDDF878341A78531CFF2B76
:1041D00000D9FF23594203F0030301F0030158BF44
:1041E0004B42079949780DF58960034403F8081C90
:1041F000A34BB3F90010A54BB3F90030994213DD7E
:10420000D31CFF2B00D9FF235A4203F0030302F013
:10421000030258BF5342099A52780DF589610B4445
:1042200003F8042CFDF780FEDDF878341B780333A7
:10423000FF2B00D9FF235A4203F0030302F00302CD
:1042400058BF5342079A52780DF589610B4403F821
:10425000082C21784A1CFF2A00D9FF2207293FF6A3
:104260005BAE01238B40DBB2013A0DF589610A4454
:1042700012F8042C03FB02F3FF2B00D9FF233A783A
:10428000013A5101069199F8005005EB4215013DA4
:10429000DBB2725D1343735521784A1CFF2A00D9A3
:1042A000FF2207293FF63AAE01238B40DBB2013AE9
:1042B0000DF589610A4412F8082C03FB02F3FF2B69
:1042C00000D9FF23DBB218F80520134308F80530A6
:1042D00061784A1CFF2A00D9FF2207293FF620AE49
:1042E00001238B40DBB2013A0DF589610A4412F8D3
:1042F000042C03FB02F3FF2B00D9FF23DBB2725D1A
:104300001343735561784A1CFF2A00D9FF220729FD
:104310003FF608AE01238B40DBB2013A0DF589610F
:104320000A4412F8082C03FB02F3FF2B00D9FF23E9
:10433000DBB218F80520134308F80530A1784A1CB1
:10434000FF2A00D9FF2207293FF6EEAD01238B405B
:10435000DBB2013A0DF589610A4412F8042C03FB23
:1043600002F3FF2B00D9FF23DBB2725D13437355B9
:10437000A1784A1CFF2A00D9FF2207293FF6D6ADB3
:1043800001238B40DBB2013A0DF589610A4412F832
:10439000082C03FB02F3FF2B00D9FF23DBB218F834
:1043A0000520134308F80530E1784A1CFF2A00D99C
:1043B000FF2207293FF6BCAD01238B40DBB2013A57
:1043C0000DF589610A4412F8042C03FB02F3FF2B5C
:1043D00000D9FF23DBB2725D13437355E1784A1CA9
:1043E000FF2A00D9FF2207293FF6A4AD01238B4005
:1043F000DBB2013A0DF589610A4412F8082C03FB7F
:1044000002F3FF2B00D9FF23DBB218F8052013437A
:1044100008F805300A9B5A1E934200D2002299F8F0
:10442000003093424BDAA07822780132FF2A00D97B
:10443000FF2207283FF680AD01218140C9B2013A31
:104440000DF58960024412F8042C01FB02F2FF2AE8
:1044500000D9FF220133FF2B00D9FF2306990B441B
:10446000013BF15CD2B20A43F254A07822780132C7
:10447000FF2A0DD9FF220BE0682300206C230020C7
:104480006A230020220000202600002024000020B3
:1044900007283FF653AD01218140C9B2013A0DF51D
:1044A0008960024412F8082C01FB02F2FF2A00D9AD
:1044B000FF2218F80310D2B20A4308F803200B9B1E
:1044C0005A1E934200D200223B78934246DAE078AB
:1044D00062780132FF2A00D9FF2207283FF630AD6B
:1044E00001218140C9B2013A0DF58960024412F8F8
:1044F000042C01FB02F1FF2900D9FF210133FF2B1E
:1045000000D9FF2399F80000013B5A0100EB431347
:10451000013BF05CC9B20143F154E07863780133A8
:10452000FF2B00D9FF2307283FF60CAD0121814066
:10453000C9B2013B0DF58960034413F8083C01FB47
:1045400003F3FF2B00D9FF2399F800100A44013A26
:1045500018F80210DBB20B4308F8023099F800108B
:10456000012947D92078A2780132FF2A00D9FF22F9
:1045700007283FF6E9AC01238340DBB2013A0DF591
:104580008960024412F8042C03FB02F3FF2B00D9CC
:10459000FF234A1E914200D2002206990A44013AA2
:1045A000B15CDBB20B43B3542178A2780132FF2A0D
:1045B00000D9FF2207293FF6C9AC01238B40DBB2AB
:1045C000013A0DF589610A4412F8082C03FB02F345
:1045D000FF2B00D9FF2399F800104A1E914200D208
:1045E000002206990A44013A18F80210DBB20B4384
:1045F00008F80230397801294CD96078E378013322
:10460000FF2B00D9FF2307283FF6A2AC01228240EE
:10461000D2B2013B0DF58960034413F8043C02FB60
:1046200003F2FF2A00D9FF22481E814200D2002057
:1046300099F80030013803EB4013013BF15CD2B232
:104640000A43F2546178E2780132FF2A00D9FF224E
:1046500007293FF67FAC01238B40DBB2013A0DF511
:1046600089610A4412F8082C03FB02F3FF2B00D9DE
:10467000FF233A78511E8A4200D2002199F8002087
:10468000013902EB4112013A18F80210DBB20B4378
:1046900008F80230002360E4FDF74CFCDDF87834C4
:1046A0001A7823789A4200F0BA80DDF878341A78C4
:1046B00063789A4200F0BC80DDF878341A78A378E9
:1046C0009A4200F0BC80DDF878341A78E3789A4298
:1046D0007FF422AD3A78531E9A4200D200233B70F9
:1046E0001AE5FDF769FCDDF878341B780433FF2BFD
:1046F00000F2E480013B5A4203F0030302F003029C
:1047000058BF5342DBB2DDF878241370227893420D
:1047100000F0D680DDF878341A7863789A4200F099
:10472000D880DDF878341A78A3789A4200F0D880DF
:10473000DDF878341A78E3789A427FF4EDAC3A7871
:10474000531E9A4200D200233B70E5E4FDF760FC63
:10475000DDF878341B780433FF2B00F29480023BA1
:104760005A4203F0030302F0030258BF5342DBB284
:10477000DDF8782413702278934200F08680DDF80B
:1047800078341A7863789A4200F08880DDF87834BB
:104790001A78A3789A4200F08880DDF878341A7885
:1047A000E3789A427FF4B8AC3A78531E9A4200D22A
:1047B00000233B70B0E4FDF7D3FBDDF878341B78C1
:1047C0000433FF2B44D80133FF2B00D9FF235A4277
:1047D00003F0030302F0030258BF5342DBB2DDF8DB
:1047E000782413702278934234D0DDF878341A7824
:1047F00063789A4237D0DDF878341A78A3789A42F1
:1048000038D0DDF878341A78E3789A427FF484ACB3
:104810003A78531E9A4200D200233B707CE499F808
:1048200000300133FF2B00D9FF2389F800303CE72B
:104830003B780133FF2B00D9FF233B703CE799F80D
:104840000020531E9A4200D2002389F800303AE734
:10485000FF23B8E799F800300133FF2B00D9FF237D
:1048600089F80030C1E73B780133FF2B00D9FF23E3
:104870003B70C0E799F80020531E9A4200D20023F3
:1048800089F80030BDE7FF2369E799F8003001336C
:10489000FF2B00D9FF2389F8003070E73B78013304
:1048A000FF2B00D9FF233B7070E799F80020531EBF
:1048B0009A4200D2002389F800306EE7FF2319E7FF
:1048C00099F800300133FF2B00D9FF2389F800301D
:1048D00020E73B780133FF2B00D9FF233B7020E713
:1048E00099F80020531E9A4200D2002389F8003024
:1048F0001EE700BF2DE9F04FADF5C15D83B00D4659
:10490000164605930DF5C25310331C780DF5C253AE
:1049100014331B780DF5C252183211680DF5C252CE
:104920001C32D2F800900DF5C3520432D2F800B018
:104930005A1E934200D20022631E9C4200D20023E2
:1049400003FB02F3FF2B00D9FF235A1E934200D230
:104950000022D3B203930DF5C352083212681446F5
:104960001A4623700023B3F5806F03DA0BF8032097
:104970000133F8E7007800220AE08B185B7A8C5C40
:10498000013C03EB4413013B00240BF803400132CC
:104990008242F2DB002301930493CAE10133A9B9F7
:1049A000B3F5806F12DA1BF8032001988242F5D12B
:1049B000781C5A1CC64C24F81720B0F5806F02DA18
:1049C00013460746EBE707460121E8E7002F05DD20
:1049D0000DF5C15304331F60002308E00027F7E7FB
:1049E000BB4A32F91310BB4A22F8131001339F421D
:1049F000F6DC0DF5C1531F6000239F4209DDB54A67
:104A000032F81320013A0DF5815121F813200133BA
:104A1000F3E70DF61C030DF502620DF5C1510DF51E
:104A2000815001F005F8DDF81C48002203E00DF28A
:104A30001C418B540132A2420EDA0DF5026333F8A9
:104A400012300133B3F5803F01D34FF6FF739BB2B1
:104A5000FF2BECD9FF23EAE700239F4207DD9D49A6
:104A600031F81320013A21F813200133F5E70DF650
:104A70001C030DF502620DF5C15104319548FEF796
:104A80009FFADDF81C08002202E007A98B540132CE
:104A900082420EDA0DF5026333F812300133B3F5BA
:104AA000803F01D34FF6FF739BB2FF2BEDD9FF235D
:104AB000EBE7002102940DF5C3530433C3F800B0B3
:104AC000DDF814B057E0002219F80CE01EEA020FDE
:104AD00014BF4FF001084FF0000896F800E0F045D1
:104AE00066D06A78072A00F28F804FF0010C0CFA2A
:104AF00002FC5FFA8CFC5A1E19F802E01EEA0C0F49
:104B000014BF4FF001084FF0000896F800E0F045A0
:104B10007DD095F802C0BCF1070F00F2AC804FF0D9
:104B2000010E0EFA0CFC5FFA8CFC19F802E01EEA8A
:104B30000C0F14BF4FF001084FF0000896F800E08A
:104B4000F04500F09B80EB78072B00F2BF804FF020
:104B5000010C0CFA03F3DBB219F802C01CEA030FD4
:104B600014BF4FF0010E4FF0000E96F800C0E6455E
:104B700000F0B2800131029B994280F2D1802A7804
:104B8000481C80B2013807AB1F5C7B1E4FEA431AFA
:104B90000DF21C4C1CF8000000EB431303F1FF3C2A
:104BA000072A90D84FF0010E0EFA02F2D2B28BE72C
:104BB0000DF5C354246814F80CC01CEA020F14BF8E
:104BC0004FF0010C4FF0000C9BF80120944588D168
:104BD000421CFF2A00D9FF2292440AF1FF3A0DF548
:104BE000C3520432126812F80A20039C94427FF4E4
:104BF00078AF019A01320DF5C3540434246804F8E7
:104C00000A20012204926CE74FF0000C73E70DF5C7
:104C1000C354246814F802E01EEA0C0F14BF4FF0CE
:104C2000010E4FF0000E9BF801C0E6457FF471AF16
:104C300007F1010CBCF1FF0F01D94FF0FF0C0CF193
:104C4000FF3C00EB4C1C0CF1FF3C0DF5C35404344D
:104C5000246814F80CE0039C74457FF45AAF019C5F
:104C600004F1010E0DF5C3540434246804F80CE07B
:104C7000012404944DE74FF0000C56E70DF5C354A2
:104C8000246814F802E01EEA0C0F14BF4FF0010E66
:104C90004FF0000E9BF801C0E6457FF454AF023B95
:104CA0000DF5C3540434246814F803C0039C644510
:104CB0007FF449AF019C04F1010C0DF5C354043499
:104CC000246804F803C0012304933CE7002343E76E
:104CD00070330020704300200DF5C3542468A25C9B
:104CE0001A4214BF012200229BF801309A427FF43D
:104CF00041AF023F00EB471001380DF5C3530433B9
:104D00001B681B5C039A9A427FF434AF019B01330A
:104D10000DF5C3520432126813540123049329E79A
:104D20000DF5C3530433D3F800B0019B0133DBB25C
:104D300001930DF5C35308331B681B78019A934206
:104D400003D300210F460B4629E6049B002B7FF47A
:104D500021AE0DF5C15D03B0BDE8F08F2DE9F04F38
:104D6000ADF2644D07460D4690469946DDF88844FD
:104D70009DF88C649DF890A48DF85C640023112B41
:104D800007DC0DF58C621A44002102F8181C01336F
:104D9000F5E700228DF8442401238DF845340220E4
:104DA0008DF8460403218DF847148DF840248DF8C2
:104DB00041348DF842048DF843148DF83C248DF86D
:104DC0003D348DF838248DF83934BAF1000F07D00E
:104DD000BAF1010F00F0A9800DF2644DBDE8F08F2B
:104DE000FDF708F801238DF834340DF1300B8DF800
:104DF000303000235A460DF234410DF24440FEF7A4
:104E00009CFEFDF797F89DF844240BAB8DF82C2001
:104E10000896079406950597CDF81090CDF80C806C
:104E20000293CDF804B00DF2344300930DF588637E
:104E30000DF244420DF587610DF23C40FFF73EF85C
:104E40004FF47A7003F048FE3BE08DF848C48DF8CB
:104E5000510401218DF8331089B996420FDD02F11A
:104E60000903E05C14F802C00CF1FF3300EB4313BC
:104E70002B4413F8013C0F2BE7D10132ECE79DF8EE
:104E80003330012B22D1FDF72FF8012308930DF5C4
:104E90008963079306950597CDF81090CDF80C809F
:104EA0000BAB02930CAB01930DF2344300930DF561
:104EB00088630DF244420DF587610DF23C40FEF728
:104EC000FDFF00228DF833201146C5E74FF47A70BC
:104ED00003F002FE01268DF848648DF85164FDF759
:104EE00003F808960DF58963079306950597CDF8A5
:104EF0001090CDF80C800BAB02930CAB01930DF22C
:104F0000344300930DF588630DF244420DF587613B
:104F10000DF23C40FEF7D2FFFCF752FEFCF7D2FF49
:104F2000BEEE000A00F016FE52E70DF23C4A0DF10B
:104F3000330BCDF818B00DAE059604950397029487
:104F4000CDF80490CDF800800DF5876352460DF240
:104F500044410DF25C40FFF7CDFC9BF80030069316
:104F60000594049603970DF588630293CDF804A089
:104F70000DF25C4300930BAB0CAA0DF234410DF221
:104F80004440FEF701FC27E7014B1878704700BF4B
:104F9000734B0020014B00221A707047734B0020A6
:104FA000014B1878704700BF714B0020014B1870FF
:104FB000704700BF714B002010B5FCF7EFFAB5EE5B
:104FC000400AF1EE10FAF8D1FCF700FBC82003F01C
:104FD00083FDFCF7E9FADFED827AB4EEE70AF1EE41
:104FE00010FA03DD7F4A137801331370FCF7E2FAFD
:104FF000DFED7D7AB4EEE70AF1EE10FA03D5794AD7
:105000001378013B1370774A137803F00F03137082
:10501000764A1278934211D00F2B0FD8DFE803F0B5
:10502000081523313F4D5B69778593A1AFBDCBD97F
:1050300000224FF464516E4803F03EFA694B187831
:105040006A4B1870FFF7B2FF10BD694C00224FF495
:10505000C851204603F030FA01224FF40051204697
:1050600003F02AFAEAE7624C00224FF4245120466A
:1050700003F022FA01224FF48051204603F01CFA7B
:10508000DCE75B4C00224FF41061204603F014FA79
:1050900001224FF44051204603F00EFACEE7544C63
:1050A00000224FF44451204603F006FA01224FF447
:1050B0000061204603F000FAC0E74D4C00224FF497
:1050C0008851204603F0F8F901224FF42051204680
:1050D00003F0F2F9B2E7464C00224FF404512046A7
:1050E00003F0EAF901224FF4C051204603F0E4F93D
:1050F000A4E73F4C00224FF48071204603F0DCF916
:1051000001224FF46051204603F0D6F996E7384C5F
:1051100000224FF46051204603F0CEF901224FF4F3
:105120008071204603F0C8F988E7314C00224FF423
:10513000C051204603F0C0F901224FF4045120462B
:1051400003F0BAF97AE72A4C00224FF420512046A6
:1051500003F0B2F901224FF48851204603F0ACF974
:105160006CE7234C00224FF40061204603F0A4F9C1
:1051700001224FF44451204603F09EF95EE71C4C97
:1051800000224FF44051204603F096F901224FF4DB
:105190001061204603F090F950E7154C00224FF4BF
:1051A0008051204603F088F901224FF42451204613
:1051B00003F082F942E70E4C00224FF400512046E2
:1051C00003F07AF901224FF4C851204603F074F934
:1051D00034E701224FF46451054803F06DF92DE7DF
:1051E000CDCCCC3D704B0020CDCCCCBD724B002043
:1051F0000000024008B5FCF7E3F9DFED057AB4EEF4
:10520000E70AF1EE10FA01DD012008BD0020FCE7FD
:10521000CDCCCC3D08B50320FEF7CEF940F2DB53F0
:105220009842F8DD4FF4FA7003F056FC014B01226E
:105230001A7008BD734B002038B50023184A13704C
:10524000184A1370184A1370FEF75CF9144B1B7858
:1052500033B9FFF7B1FEFFF7CDFF114B1870F5E73B
:10526000002415E0114D01224FF46451284603F04B
:1052700023F94FF42F7003F02FFC00224FF46451F8
:10528000284603F019F94FF4967003F025FC013419
:10529000012CE7DDFEF702F9FFF7BCFF38BD00BFC8
:1052A000744B0020734B0020704B00200000024024
:1052B000014B00221A807047764B002010B54D4BF1
:1052C0001A884D4CA4FB023441F287339A4209D824
:1052D000A40804EB8403D31A9BB223B1454A138874
:1052E0000133138010BD07EE902AF8EE677A434B26
:1052F0005C2202FB0434C4ED007A00F013FC84ED60
:10530000010A00F015FC84ED020AFCF72FFA84ED87
:10531000030A00F0FBFB84ED040AFCF769F984ED55
:10532000050AFCF7F3F984ED060AFDF767FF84ED43
:10533000070AFCF7F1F984ED080A00F0FFFB84EDA1
:10534000090A00F001FC84ED0A0AFCF755FA84ED25
:105350000B0A00F0E1FB84ED0C0AFCF71DFA84ED6A
:105360000D0AFCF77BFF07EE900AF8EEE77AC4ED32
:105370000E7AFCF779FF07EE900AF8EEE77AC4EDB3
:105380000F7A0320FEF718F907EE900AF8EEE77A95
:10539000C4ED107A0020FEF70FF907EE900AF8EE40
:1053A000E77AC4ED117A0220FEF706F907EE900ABB
:1053B000F8EEE77AC4ED127A0120FEF7FDF807EE69
:1053C000900AF8EEE77AC4ED137A0320FEF700F9AD
:1053D00051EC100BFBF730FC20650020FEF7F8F8CD
:1053E00051EC100BFBF728FC6065FDF7FFFC84ED2A
:1053F000160A73E7764B0020CDCCCCCC784B00203E
:1054000070B5664804F0D8FC0026B6F57A7F80F0C7
:10541000C380634B5C2404FB06342068FBF7BCF8B4
:1054200002460B465F4D284604F0C6FC6068FBF759
:10543000B3F802460B46284604F0BEFCA068FBF712
:10544000ABF802460B46284604F0B6FCE068FBF7D2
:10545000A3F802460B46284604F0AEFC2069FBF791
:105460009BF802460B46284604F0A6FC6069FBF751
:1054700093F802460B46284604F09EFCA069FBF711
:105480008BF802460B46284604F096FCE069FBF7D1
:1054900083F802460B46284604F08EFC206AFBF790
:1054A0007BF802460B46284604F086FC606AFBF750
:1054B00073F802460B46284604F07EFCA06AFBF710
:1054C0006BF802460B46284604F076FCE06AFBF7D0
:1054D00063F802460B46284604F06EFC206BFBF78F
:1054E0005BF802460B46284604F066FC606BFBF74F
:1054F00053F802460B46284604F05EFCA06BFBF70F
:105500004BF802460B46284604F056FCE06BFBF7CE
:1055100043F802460B46284604F04EFC206CFBF78D
:105520003BF802460B46284604F046FC606CFBF74D
:1055300033F802460B46284604F03EFCA06CFBF70D
:105540002BF802460B46284604F036FCE06CFBF7CD
:1055500023F802460B46284604F02EFC206DFBF78C
:105560001BF802460B46284604F026FC606DFBF74C
:1055700013F802460B46284604F01EFCA06DFBF70C
:105580000BF802460B46084804F016FC074804F0E6
:1055900099FC0136B6B238E770BD00BFDCDC00080C
:1055A000784B002024DE000828DE00082CDE0008EE
:1055B0002DE9F04F2DED028B2DED02AB85B0FDF7FF
:1055C0006BFCFDF771FC002436E00320FEF700F8C9
:1055D00053EC102B94A1D1E90001FAF77DFE029063
:1055E00001F100430393FEE00020FDF7F1FF53ECCF
:1055F000102B8FA1D1E90001FAF76EFE804601F170
:105600000049CDE90089DDE902238B4804F0D4FB91
:105610000B34A4B2894B1B68986803F063FB4FF40A
:10562000FA7003F059FA1B21854804F0C5FB2246A5
:105630001B21844804F0C0FBFDF7E4FE10EE100AC5
:10564000FAF7AAFF02460B467F4804F0B5FBFDF7C8
:10565000CDFE07EE900AF8EE677AB2EE048A87EE86
:1056600088AAFDF7C9FE07EE900AF8EE677AC7EE42
:10567000888A1AEE100AFAF78FFF06460F4618EED0
:10568000900AFAF789FFCDE9000132463B466F48A0
:1056900004F092FB4FF0000A4FF0000BCDE900AB95
:1056A00052465B466A4804F087FBFDF715FCDFEDC8
:1056B00069AAC0EE2A8A9FED68AA68EE8A8AFDF779
:1056C00023FC80EE2A8A28EE0A8A18EE900AFAF75E
:1056D00063FF06460F4618EE100AFAF75DFFCDE9A4
:1056E000000132463B465D4804F066FBFBF780FF55
:1056F00010EE106AFDF79EFD10EE105A3046FAF7D4
:105700004BFF06460F462846FAF746FFCDE9000153
:1057100032463B46524804F04FFBFDF767FB10EE64
:10572000100AFAF739FF02460B464E4804F044FBD4
:105730000320FDF741FF05460220FDF73DFF064629
:105740000120FDF739FF07460020FDF735FF0090E7
:105750003B4632462946444804F02EFBFDF794FFB1
:105760000320FDF735FF57EC106B0020FDF730FFED
:105770008DED000B32463B463C4804F01DFBFDF727
:105780003DFD10EE106AFDF755FD10EE105A304643
:10579000FAF702FF06460F462846FAF7FDFECDE966
:1057A000000132463B46324804F006FB0320FDF779
:1057B0000FFF53EC102B1CA1D1E90001FAF78CFD6F
:1057C00052465B46FBF7B2F900287FF4FEAE032099
:1057D000FDF7FEFE53EC102B13A1D1E90001FAF7FF
:1057E0007BFDCDE902010020FDF7F2FE53EC102B0A
:1057F0000FA1D1E90001FAF76FFD00220023FBF7AA
:1058000095F900287FF4F0AE0020FDF7E1FE53EC9F
:10581000102B07A1D1E90001FAF75EFD8046894609
:10582000EFE600BFAFF30080000000E04F8D873F40
:1058300000000060BC74833FD0DF0008300000200F
:1058400000E0000808E0000830DE000848DE00083C
:1058500074DE0008DA0F494000003443A0DE00087F
:10586000CCDE00080CDF000824DF000868DF000839
:105870009CDF000810B5094C0021204601F0AAFE6B
:105880000421204601F0A6FE0821204601F0A2FED8
:105890000C21204601F09EFE10BD00BF30BD01204E
:1058A00008B52D4B18800028B8BF404280B240F2A6
:1058B000B63398421BD81D282AD802F043FB400972
:1058C000264BA3FB0030C009C0EB00135B0024484B
:1058D000A0FB03239B09013B1F4AB2F90020002AC9
:1058E0002CDD204A126893630023536308BD02F045
:1058F00029FB4009194BA3FB0023D80940F2B6331A
:1059000003FB00F3164AA2FB03239B09013BE3E7D9
:1059100002F018FB4009114BA3FB0023D8090E4BE2
:10592000B3F90030002B07DB03FB00F30C4AA2FBAA
:1059300003239B09013BCFE75B42F5E7002A05DB28
:10594000084B1B6800229A635A63CFE7054A126826
:10595000002191635363C9E7D8B20120C55A7C0A7C
:10596000D34D621030BD012008B52D4B18800028A2
:10597000B8BF404280B240F2B63398421BD81D28CF
:105980002AD802F0DFFA4009264BA3FB0030C009F9
:10599000C0EB00135B002448A0FB03239B09013BE1
:1059A0001F4AB2F90020002A2CDD204A1268D36376
:1059B0000023136408BD02F0C5FA4009194BA3FB8C
:1059C0000023D80940F2B63303FB00F3164AA2FBCA
:1059D00003239B09013BE3E702F0B4FA4009114BB2
:1059E000A3FB0023D8090E4BB3F90030002B07DBD3
:1059F00003FB00F30C4AA2FB03239B09013BCFE707
:105A00005B42F5E7002A05DB084B1B680022DA63DE
:105A10001A64CFE7054A12680021D1631364C9E70D
:105A2000DAB20120C55A7C0AD34D621030BD012084
:105A300010B4B1F900401C60B1F900400023A3424A
:105A400007DA30F8131001F01F0122F813100133A8
:105A5000F5E75DF8044B704770B50C461646002517
:105A6000B54207DAFDF7F8F9214601F8010B0135D7
:105A70000C46F5E7304670BD70B50C46164600255D
:105A8000B54205DA14F8010BFDF7D6F90135F7E751
:105A9000304670BD4FF0FF3070474FF400534B60FD
:105AA00000207047012070470020704708B503466A
:105AB0000B4A126842B10A4A106803446A4693428C
:105AC00006D8074A136008BD054A06491160F2E787
:105AD00003F040F80C2303604FF0FF30F3E700BF02
