:020000040800F2
:1000000000000520D1910008593200085B32000839
:100010005D3200085F320008613200080000000015
:100020000000000000000000000000006332000833
:1000300065320008000000006732000869320008DD
:1000400021920008219200082192000821920008C4
:1000500021920008219200082192000821920008B4
:1000600021920008219200082192000821920008A4
:1000700021920008219200087132000881320008A4
:100080002192000821920008219200082192000884
:100090002192000821920008219200082192000874
:1000A0002192000821920008219200082192000864
:1000B0002192000821920008219200082192000854
:1000C0002192000821920008219200082192000844
:1000D0002192000821920008219200082192000834
:1000E0002192000821920008219200082192000824
:1000F0002192000821920008219200082192000814
:100100002192000821920008219200082192000803
:1001100021920008219200089132000821920008E3
:10012000AD320008BD320008CD320008219200082F
:1001300021920008219200082192000821920008D3
:1001400021920008219200082192000821920008C3
:1001500021920008219200082192000821920008B3
:1001600021920008219200082192000821920008A3
:100170002192000821920008000000000000000009
:100180002192000821920008219200082192000883
:10019000219200082192000800000000219200082E
:1001A00021920008219200080000000000000000D9
:1001B00021920008000000000000000021920008C9
:1001C0002192000821920008219200082192000843
:0801D0002192000821920008B1
:1001E00010B5054C237833B9044B13B10448AFF371
:1001F00000800123237010BD0802002000000000D1
:1002000024E3000808B5034B1BB103490348AFF3CF
:10021000008008BD000000000C02002024E300085C
:10022000034613F8012B002AFBD1181A0138704736
:1002300001F0FF01102A2BDB10F0070F08D010F897
:10024000013B013A8B422DD010F0070F42B3F6D19B
:10025000F0B441EA012141EA014122F007047FF0B4
:1002600000070023F0E80256083C85EA010586EA0B
:10027000010685FA47F5A3FA87F586FA47F6A5FA47
:1002800087F68EB9EED1F0BC01F0FF0102F0070253
:1002900032B110F8013B013A83EA010313B1F8D1FE
:1002A0000020704701387047002D06BF35460338DF
:1002B000073815F0010F07D1013015F4807F02BF18
:1002C000013015F4C03F0130F0BC0138704700BF69
:1002D00081F0004102E000BF83F0004330B54FEAF7
:1002E00041044FEA430594EA050F08BF90EA020F64
:1002F0001FBF54EA000C55EA020C7FEA645C7FEAF7
:10030000655C00F0E2804FEA5454D4EB5555B8BF19
:100310006D420CDD2C4480EA020281EA030382EA8A
:10032000000083EA010180EA020281EA0303362D1C
:1003300088BF30BD11F0004F4FEA01314FF4801CEF
:100340004CEA113102D0404261EB410113F0004F01
:100350004FEA03334CEA133302D0524263EB4303B8
:1003600094EA050F00F0A780A4F10104D5F1200E56
:100370000DDB02FA0EFC22FA05F2801841F10001B1
:1003800003FA0EF2801843FA05F359410EE0A5F185
:1003900020050EF1200E012A03FA0EFC28BF4CF0B6
:1003A000020C43FA05F3C01851EBE37101F000456C
:1003B00007D54FF0000EDCF1000C7EEB00006EEB79
:1003C0000101B1F5801F1BD3B1F5001F0CD3490803
:1003D0005FEA30004FEA3C0C04F101044FEA44525A
:1003E00012F5800F80F09A80BCF1004F08BF5FEAE1
:1003F000500C50F1000041EB045141EA050130BDC1
:100400005FEA4C0C404141EB0101013C28BFB1F5D2
:10041000801FE9D291F0000F04BF01460020B1FA1D
:1004200081F308BF2033A3F10B03B3F120020CDAF0
:100430000C3208DD02F1140CC2F10C0201FA0CF0CE
:1004400021FA02F10CE002F11402D8BFC2F1200C33
:1004500001FA02F120FA0CFCDCBF41EA0C019040E9
:10046000E41AA2BF01EB0451294330BD6FEA040432
:100470001F3C1CDA0C340EDC04F11404C4F120021D
:1004800020FA04F001FA02F340EA030021FA04F32F
:1004900045EA030130BDC4F10C04C4F1200220FA86
:1004A00002F001FA04F340EA0300294630BD21FAC4
:1004B00004F0294630BD94F0000F83F4801306BF8A
:1004C00081F480110134013D4EE77FEA645C18BF7E
:1004D0007FEA655C29D094EA050F08BF90EA020F15
:1004E00005D054EA000C04BF1946104630BD91EA0D
:1004F000030F1EBF0021002030BD5FEA545C05D110
:100500004000494128BF41F0004130BD14F580044E
:100510003CBF01F5801130BD01F0004545F0FE41C2
:1005200041F470014FF0000030BD7FEA645C1ABFF7
:10053000194610467FEA655C1CBF0B46024650EA2E
:10054000013406BF52EA033591EA030F41F400215A
:1005500030BD00BF90F0000F04BF0021704730B5E0
:100560004FF4806404F132044FF000054FF00001B5
:1005700050E700BF90F0000F04BF0021704730B576
:100580004FF4806404F1320410F0004548BF40424B
:100590004FF000013EE700BF42004FEAE2014FEAA0
:1005A00031014FEA02701FBF12F07F4393F07F4F7B
:1005B00081F06051704732F07F4208BF704793F07E
:1005C0007F4F04BF41F40021704730B54FF4607491
:1005D00001F0004521F000411CE700BF50EA010294
:1005E00008BF704730B54FF000050AE050EA01023D
:1005F00008BF704730B511F0004502D5404261EBAD
:1006000041014FF4806404F132045FEA915C3FF4ED
:10061000D8AE4FF003025FEADC0C18BF03325FEA8A
:10062000DC0C18BF033202EBDC02C2F1200300FA3B
:1006300003FC20FA02F001FA03FE40EA0E0021FA60
:1006400002F11444BDE600BF70B54FF0FF0C4CF44E
:10065000E06C1CEA11541DBF1CEA135594EA0C0F00
:1006600095EA0C0F00F0DEF82C4481EA030621EA3B
:100670004C5123EA4C5350EA013518BF52EA033576
:1006800041F4801143F4801338D0A0FB02CE4FF028
:100690000005E1FB02E506F00042E0FB03E54FF058
:1006A0000006E1FB03569CF0000F18BF4EF0010E50
:1006B000A4F1FF04B6F5007F64F5407404D25FEA4C
:1006C0004E0E6D4146EB060642EAC62141EA5551FF
:1006D0004FEAC52040EA5E504FEACE2EB4F1FD0C41
:1006E00088BFBCF5E06F1ED8BEF1004F08BF5FEABF
:1006F000500E50F1000041EB045170BD06F0004671
:1007000046EA010140EA020081EA0301B4EB5C041D
:10071000C2BFD4EB0C0541EA045170BD41F4801115
:100720004FF0000E013C00F3AB8014F1360FDEBF3A
:10073000002001F0004170BDC4F10004203C35DA16
:100740000C341BDC04F11404C4F1200500FA05F399
:1007500020FA04F001FA05F240EA020001F000423A
:1007600021F0004110EBD37021FA04F642EB0601B0
:100770005EEA430E08BF20EAD37070BDC4F10C04DA
:10078000C4F1200500FA04F320FA05F001FA04F29E
:1007900040EA020001F0004110EBD37041F100018A
:1007A0005EEA430E08BF20EAD37070BDC4F1200595
:1007B00000FA05F24EEA020E20FA04F301FA05F2FD
:1007C00043EA020321FA04F001F0004121FA04F2A5
:1007D00020EA020000EBD3705EEA430E08BF20EA75
:1007E000D37070BD94F0000F0FD101F000464000AF
:1007F00041EB010111F4801F08BF013CF7D041EA31
:10080000060195F0000F18BF704703F00046520034
:1008100043EB030313F4801F08BF013DF7D043EA05
:100820000603704794EA0C0F0CEA135518BF95EABB
:100830000C0F0CD050EA410618BF52EA4306D1D142
:1008400081EA030101F000414FF0000070BD50EA61
:10085000410606BF1046194652EA430619D094EAEB
:100860000C0F02D150EA013613D195EA0C0F05D1D5
:1008700052EA03361CBF104619460AD181EA030129
:1008800001F0004141F0FE4141F470014FF00000E1
:1008900070BD41F0FE4141F4780170BD70B54FF07C
:1008A000FF0C4CF4E06C1CEA11541DBF1CEA1355FC
:1008B00094EA0C0F95EA0C0F00F0A7F8A4EB0504DE
:1008C00081EA030E52EA03354FEA013100F08880D5
:1008D0004FEA03334FF0805545EA131343EA12639E
:1008E0004FEA022245EA111545EA10654FEA002653
:1008F0000EF000419D4208BF964244F1FD0404F50C
:10090000407402D25B084FEA3202B61A65EB030567
:100910005B084FEA32024FF480104FF4002CB6EB24
:10092000020E75EB030E22BFB61A754640EA0C00A4
:100930005B084FEA3202B6EB020E75EB030E22BFE4
:10094000B61A754640EA5C005B084FEA3202B6EB25
:10095000020E75EB030E22BFB61A754640EA9C00E4
:100960005B084FEA3202B6EB020E75EB030E22BFB4
:10097000B61A754640EADC0055EA060E18D04FEA72
:10098000051545EA16754FEA06164FEAC30343EA12
:1009900052734FEAC2025FEA1C1CC0D111F4801FDF
:1009A0000BD141EA00014FF000004FF0004CB6E7D8
:1009B00011F4801F04BF01430020B4F1FD0C88BF77
:1009C000BCF5E06F3FF6AFAEB5EB030C04BFB6EB82
:1009D000020C5FEA500C50F1000041EB045170BD75
:1009E0000EF0004E4EEA113114EB5C04C2BFD4EBA2
:1009F0000C0541EA045170BD41F480114FF0000E26
:100A0000013C90E645EA060E8DE60CEA135594EAA1
:100A10000C0F08BF95EA0C0F3FF43BAF94EA0C0FA4
:100A20000AD150EA01347FF434AF95EA0C0F7FF419
:100A300025AF104619462CE795EA0C0F06D152EA6D
:100A400003353FF4FDAE1046194622E750EA410651
:100A500018BF52EA43067FF4C5AE50EA41047FF462
:100A60000DAF52EA43057FF4EBAE12E74FF0FF3CC7
:100A700006E000BF4FF0010C02E000BF4FF0010C98
:100A80004DF804CD4FEA410C7FEA6C5C4FEA430C11
:100A900018BF7FEA6C5C1BD001B050EA410C0CBF60
:100AA00052EA430C91EA030F02BF90EA020F0020C2
:100AB000704710F1000F91EA030F58BF994208BF29
:100AC00090422CBFD8176FEAE37040F001007047E6
:100AD0004FEA410C7FEA6C5C02D150EA013C07D13D
:100AE0004FEA430C7FEA6C5CD6D152EA033CD3D088
:100AF0005DF8040B704700BF8446104662468C4682
:100B00001946634600E000BF01B5FFF7B7FF0028B4
:100B100048BF10F1000F01BD4DF808EDFFF7F4FFDD
:100B20000CBF012000205DF808FB00BF4DF808ED68
:100B3000FFF7EAFF34BF012000205DF808FB00BF8B
:100B40004DF808EDFFF7E0FF94BF012000205DF8AD
:100B500008FB00BF4DF808EDFFF7CEFF94BF012062
:100B600000205DF808FB00BF4DF808EDFFF7C4FF5B
:100B700034BF012000205DF808FB00BF4FEA410CA4
:100B80007FEA6C5C02D150EA013C0AD14FEA430C87
:100B90007FEA6C5C02D152EA033C02D14FF00000C4
:100BA00070474FF0010070474FEA410212F5001202
:100BB00015D211D56FF47873B3EB625212D94FEAA4
:100BC000C12343F0004343EA505311F0004F23FA8E
:100BD00002F018BF404270474FF00000704750EAE3
:100BE000013005D111F0004008BF6FF000407047A0
:100BF0004FF00000704700BF4A0011D212F50012FA
:100C000011D20DD56FF47873B3EB62520ED44FEA64
:100C1000C12343F0004343EA505323FA02F07047E4
:100C20004FF00000704750EA013002D14FF0FF3022
:100C300070474FF0000070474FEA4102B2F1E043C5
:100C400024BFB3F5001CDCF1FE5C0DD901F0004CB3
:100C50004FEAC0024CEA5070B2F1004F40EB830003
:100C600008BF20F00100704711F0804F21D113F12F
:100C70003872BCBF01F00040704741F480114FEA68
:100C80005252C2F11802C2F1200C10FA0CF320FAF1
:100C900002F018BF40F001004FEAC1234FEAD3230E
:100CA00003FA0CFC40EA0C0023FA02F34FEA430378
:100CB000CCE77FEA625307D150EA01331EBF4FF001
:100CC000FE4040F44000704701F0004040F0FE401C
:100CD00040F40000704700BF80F0004002E000BF19
:100CE00081F0004142001FBF5FEA410392EA030F17
:100CF0007FEA226C7FEA236C6AD04FEA1262D2EB61
:100D00001363C1BFD218414048404140B8BF5B4265
:100D1000192B88BF704710F0004F40F4000020F0FE
:100D20007F4018BF404211F0004F41F4000121F014
:100D30007F4118BF494292EA030F3FD0A2F101025E
:100D400041FA03FC10EB0C00C3F1200301FA03F19C
:100D500000F0004302D5494260EB4000B0F5000FBF
:100D600013D3B0F1807F06D340084FEA310102F17E
:100D70000102FE2A51D2B1F1004F40EBC25008BF30
:100D800020F0010040EA03007047490040EB0000FA
:100D9000013A28BFB0F5000FEDD2B0FA80FCACF1FB
:100DA000080CB2EB0C0200FA0CF0AABF00EBC25028
:100DB00052421843BCBFD0401843704792F0000F16
:100DC00081F4000106BF80F400000132013BB5E769
:100DD0004FEA41037FEA226C18BF7FEA236C21D0DF
:100DE00092EA030F04D092F0000F08BF0846704744
:100DF00090EA010F1CBF0020704712F07F4F04D112
:100E0000400028BF40F00040704712F100723CBF24
:100E100000F50000704700F0004343F0FE4040F44E
:100E2000000070477FEA226216BF08467FEA23630C
:100E30000146420206BF5FEA412390EA010F40F4F7
:100E4000800070474FF0000304E000BF10F0004343
:100E500048BF40425FEA000C08BF704743F096432A
:100E600001464FF000001CE050EA010208BF704745
:100E70004FF000030AE000BF50EA010208BF7047CC
:100E800011F0004302D5404261EB41015FEA010CE1
:100E900002BF84460146002043F0B64308BFA3F1D9
:100EA0008053A3F50003BCFA8CF2083AA3EBC253BB
:100EB00010DB01FA02FC634400FA02FCC2F12002DA
:100EC000BCF1004F20FA02F243EB020008BF20F011
:100ED0000100704702F1200201FA02FCC2F1200277
:100EE00050EA4C0021FA02F243EB020008BF20EA6C
:100EF000DC70704753B94AB9002908BF00281CBFED
:100F00004FF0FF314FF0FF3000F0A4B9ADF1080C05
:100F10006DE904CE00F03CF8DDF804E0DDE90223E1
:100F200004B0704738B50022002304460D46FFF791
:100F3000FDFD28B920462946BDE8384000F00AB832
:100F4000204605F1004100F005F8404261EB410107
:100F500038BD00BFD0B50C4B002206460F46FFF748
:100F600073FBFFF749FE0446FFF7F4FA074B002234
:100F7000FFF76AFB02460B4630463946FFF7ACF9ED
:100F8000FFF73AFE2146D0BD0000F03D0000F041E1
:100F90002DE9F047089D04468C46002B40F08380E5
:100FA0008A42174647D9B2FA82F242B1C2F1200012
:100FB00024FA00F09140974040EA010C94404FEA37
:100FC0001748230CBCFBF8F61FFA87FE08FB16C176
:100FD00043EA014306FB0EF1994209D9FB1806F1D9
:100FE000FF3080F01981994240F21681023E3B4465
:100FF0005B1AA4B2B3FBF8F008FB103344EA0344D5
:1010000000FB0EFEA64509D93C1900F1FF3380F024
:101010000581A64540F2028102383C4440EA064080
:10102000A4EB0E0400261DB1D4400023C5E9004303
:101030003146BDE8F08702B9FFDEB2FA82F2002A3B
:1010400050D1CB1B4FEA174E1FFA87F80126B3FB8E
:10105000FEFC210C0EFB1C3341EA034108FB0CF3A0
:101060008B4207D979180CF1FF3002D28B4200F283
:10107000E9808446C91AA3B2B1FBFEF00EFB101141
:1010800043EA014408FB00F8A04507D93C1900F1E8
:10109000FF3302D2A04500F2D9801846A4EB080421
:1010A00040EA0C40BFE78B4209D9002D00F0B18027
:1010B0000026C5E9000130463146BDE8F087B3FAA5
:1010C00083F6002E4AD18B4202D3824200F2B880CE
:1010D000841A61EB030101208C46002DA8D0C5E9DC
:1010E000004CA5E7C2F1200320FA03F6974001FA6D
:1010F00002F04FEA174ED9403043030CB1FBFEF625
:101100001FFA87F80EFB161143EA014306FB08F1AC
:10111000994204FA02F409D9FB1806F1FF3C80F069
:101120008D80994240F28A80023E3B445B1A81B234
:10113000B3FBFEF00EFB103341EA034100FB08F362
:101140008B4207D9791800F1FF3C73D28B4271D9D9
:1011500002383944CB1A40EA064678E7C6F1200C3B
:1011600003FA06F422FA0CF31C4320FA0CF701FAF6
:1011700006F34FEA144E21FA0CF11F433B0CB1FB6E
:10118000FEF91FFA84F80EFB191143EA014109FB2D
:1011900008FA8A4502FA06F200FA06F308D961183D
:1011A00009F1FF3048D28A4546D9A9F10209214404
:1011B000A1EB0A01BFB2B1FBFEF00EFB101147EA32
:1011C000014700FB08F8B84507D9E71900F1FF31DE
:1011D0002ED2B8452CD90238274440EA0940A7EB63
:1011E0000807A0FB02894F45C64649461AD317D0C7
:1011F0005DB1B3EB0E0267EB010707FA0CFCF2409E
:101200004CEA0202F740C5E9002700263146BDE856
:10121000F0872E4628460BE70646E9E61846FDE627
:101220004345E5D2B8EB020E69EB04010138DFE774
:101230000846D2E760468DE78146B9E7664675E71E
:1012400030464AE7ACF1020C394413E702383C441B
:1012500024E700BF704700BF30B595B034220021AD
:1012600007A808F0E4F90024029403940494059478
:1012700006940094194B1A6C42F080521A641B6C4D
:1012800003F080530093009B0194154B1A6842F4BD
:1012900040421A601B6803F440430193019B0225FE
:1012A000079501230A9310230B930D950E940F932A
:1012B000C023109311951295139507A807F0BAF95A
:1012C0000F230293039504944FF4805305930694DF
:1012D000032102A807F0DAF815B030BD003802404B
:1012E0000070004030B585B007F032FFFFF7B4FF63
:1012F00001F07AFA01F0B0FB01F058FF01F0E2FED4
:1013000001F0EEFB01F0D0FA01F018FD01F048FD0C
:1013100001F07AFD01F07EFC04F016FE02F032F8D6
:1013200002F0A6F902F080F802F0ECFA80E004F096
:10133000B7FB04F083F902F0BBFB002004F07EFE53
:10134000002004F017FE002470E004F005FB0020EC
:1013500001F0B6F8012004F03DFF9FED4A0A04F0C9
:1013600063FF41F2883007F01FFFE2E7002001F041
:10137000A7F8002004F028FF012004F02BFF9FEDC8
:10138000420A04F05BFF42F2107007F00DFFD0E755
:1013900000F00AFECDE741F2883007F005FFC8E70C
:1013A000002001F08DF8012004F014FF00F084FF0C
:1013B000BFE7022001F084F8012004F00BFF9FED4D
:1013C000310A04F031FF41F2883007F0EDFEB0E75A
:1013D00004F02AFCADE72D4D2D4C2B46224605216D
:1013E000084602F077FC0023029309230193294B5E
:1013F000009305231A462946204603F0FDFF98E78F
:10140000254D01224FF46451284607F0BDFB4FF4EF
:101410002F7007F0C9FE00224FF46451284607F0F0
:10142000B3FB4FF4967007F0BFFE0134022CE7DDEA
:1014300004F056FA04F008F90F283FF67AAF01A33A
:1014400053F820F02F1300084B1300086D13000809
:101450009113000897130008A1130008B3130008A4
:10146000D1130008331300083313000833130008A6
:101470003313000833130008331300083313000834
:10148000D7130008AE47213FD053FB412402002070
:1014900024060020000000200000024070470000E9
:1014A00008B501F0A7FF034A1388C31A108018B2C9
:1014B00008BD00BF1400002008B501F0A1FF034AD9
:1014C0001388C31A108018B208BD00BF1200002094
:1014D00008B52DED028BFFF7E3FF07EE900AF8EE5B
:1014E000E77A9FED2B7A67EE877ADFED2A8A87EE1F
:1014F000A88AFFF7E1FF07EE900AF8EEE77A9FED82
:10150000267A67EE877A87EEA87ADFED246A68EE9E
:10151000267A234BC3ED007A27EE267A214B83ED02
:10152000007A214BD3ED006AF4EEE67AF1EE10FA80
:1015300017DDC3ED007A1D4BD3ED006AB4EEE67AF9
:10154000F1EE10FA18DD83ED007A77EE877AB6EEC9
:10155000007A67EE877A164BC3ED007ABDEC028BFA
:1015600008BD144BD3ED006AF4EEE67AF1EE10FA02
:10157000E1D5C3ED007ADEE70F4BD3ED006AB4EEA0
:10158000E67AF1EE10FAE0D583ED007ADDE700BFF0
:101590007B59C4C500C07F447B59C4452F50D23B02
:1015A0009C0A0020900A0020A00A0020940A002033
:1015B000800A0020A40A0020980A0020014B93ED25
:1015C000000A70479C0A0020014B93ED000A704707
:1015D000A00A0020014B93ED000A7047A40A0020E6
:1015E000014B93ED000A7047940A00200023044A3F
:1015F0001360044A1360044A1360044A136070477E
:10160000A40A0020A00A0020980A0020940A0020C2
:10161000014B93ED000A7047800A00200000000093
:1016200038B52DED028B3A4B1A883A4BA3FB0213C7
:10163000DB0803EB8303A2EB43039CB2FFF7E8FF55
:10164000354A02EBC40484ED000A02F091F884EDFF
:10165000010ADFED327AB0EE677A0023092B0DD84C
:101660002D4A02EBC302D2ED006A37EE267AD2EDA4
:10167000016A77EEA67A01339BB2EFE7F2EE046AD5
:10168000C7EE268A87EEA68AB5EEC08AF1EE10FA7A
:1016900030D4F6EE007AB4EEE78AF1EE10FA4CBFE1
:1016A000012300230BB19FED1D8A18EE100AFEF7EF
:1016B00073FF15A3D3E90023FEF7C6FF0022184BE2
:1016C000FEF7C2FF04460D4618EE900AFEF764FFCF
:1016D00022462B46FEF702FEFFF7AEFA114B1860CA
:1016E000114B83ED008A0A4A138801331380BDEC45
:1016F000028B38BDFEEE007AB4EEE78AF1EE10FA06
:10170000CCBF01230023CDE77B14AE47E17A843FB1
:10171000240A0020CDCCCCCC280A002000000000F8
:101720000000E03F840A0020780A0020014B93ED7E
:10173000000A7047840A002070B5FFF7F7FF10EE2B
:10174000100AFEF729FF0BA3D3E90023FEF77CFF65
:1017500004460D46064E3068FEF71EFF22462B4615
:10176000FEF7BCFDFFF768FA306070BDAFF3008094
:101770007C0A0020FCA9F1D24D62503F014B93ED51
:10178000000A70477C0A0020014B83ED000A704775
:101790007C0A002008B502F007F8024B83ED000A2E
:1017A00008BD00BF8C0A0020014B93ED000A704772
:1017B0008C0A00200000000070B50D4B1868FEF781
:1017C000EBFE09A3D3E90023FEF73EFF04460D46D6
:1017D000084E3068FEF7E0FE22462B46FEF77EFDFF
:1017E000FFF72AFA306070BDFCA9F1D24D62503F7C
:1017F0008C0A0020880A002008B5FFF7CBFFFFF70E
:101800009BFFFFF7D9FF08BD014B93ED000A70471E
:10181000880A0020014B83ED000A7047880A0020E7
:10182000014B93ED000A7047B40A0020014B93ED81
:10183000000A7047B00A002070B52DED048B04F04B
:10184000CFFCF0EE408AFFF771FF78EEC08A04F01B
:10185000CDFCB0EE408AFFF7A7FF38EE408A18EEC5
:10186000900AFEF799FE28A3D3E90023FEF7ECFEC9
:1018700004460D461E4E3068FEF78EFE22462B466D
:10188000FEF72CFDFFF7D8F909EE100A306018EECC
:10189000100AFEF781FE14A3D3E90023FEF7D4FE5D
:1018A00004460D46134E3068FEF776FE22462B4660
:1018B000FEF714FDFFF7C0F907EE900A30609FEDC8
:1018C0000E0A68EE808A79EE288A9FED0C0A28EECF
:1018D000008A37EE888A0A4BC3ED008A094B83EDF4
:1018E000008ABDEC048B70BDFCA9F1D23DC9823FDA
:1018F000A80A0020AC0A0020D1222B40AD2FB23E16
:10190000B40A0020B00A00208B6CE7FBB935A43F75
:101910000023024A1360024A13607047A80A00209D
:10192000AC0A00200000000010B5094C2068FEF74A
:1019300033FE05A3D3E90023FEF786FEFFF77CF90B
:10194000206010BDAFF30080AE47E17A14AEEF3FE8
:10195000AC0A0020000000000D4B1B7873B90D4B42
:1019600007A1D1E90001C3E900010B4B06A1D1E9B0
:101970000001C3E90001064B01221A70704700BF45
:10198000E2AB1DC539EA983F1442075DC2A1973FFB
:10199000C80B0020B80B0020C00B002008B5044B7A
:1019A000D3E90001FFF748F900EE100A08BD00BFB7
:1019B000C00B002008B5044BD3E90001FFF73CF948
:1019C00000EE100A08BD00BFB80B0020014B93EDDC
:1019D000000B7047A00B0020014B93ED000B7047EC
:1019E000B00B0020014B1878704700BF1600002094
:1019F0002DE9F0472DED028B82B0012002F0C0F8F6
:101A000055EC104B8DED000B022002F0B9F8B0EE52
:101A1000408AF0EE608A6E4BD3E9002320462946C7
:101A2000FEF75AFC04460D4600220023FFF77EF81D
:101A300000283ED1674BD3E9002351EC180BFEF789
:101A40004BFC06460F4600220023FFF76FF80028E4
:101A500033D1614BB3F800A0604BA3FB0A23DB0832
:101A600003EB8303AAEB43039BB25D4A02EB031330
:101A7000C3E90067C3E90245002400260027B046F9
:101A8000B946092C1DD8564D05EB0415D5E90023A0
:101A900040464946FEF722FC80468946D5E90223A6
:101AA00030463946FEF71AFC06460F460134A4B20A
:101AB000E7E705F100431D46BCE707F100431F4679
:101AC000C7E70022474B40464946FEF7E7FE04467B
:101AD0000D460022434B30463946FEF7DFFE0AF141
:101AE000010A3D4BA3F800A033A3D3E90023FFF77D
:101AF0003BF848B33C4B32A1D1E90001C3E90001F6
:101B00002DA3D3E9002320462946FFF72DF810B373
:101B1000364B2BA1D1E90001C3E90001324BD3E9D7
:101B20000045DDE9002320462946FFF71DF8C8B12E
:101B300053EC182B2D49D1E90001FFF715F888B1B6
:101B40002B4B02221A7017E0274B1FA1D1E900018D
:101B5000C3E90001D4E7254B1BA1D1E90001C3E98A
:101B60000001DBE7DDE9002320462946FEF7FCFF04
:101B700078B11F4B01221A70154B9DED007B83ED50
:101B8000007B144B83ED008B02B0BDEC028BBDE8F3
:101B9000F08753EC182B1549D1E90001FEF7E4FF5B
:101BA00018B1134B00221A70E6E7114B03221A708A
:101BB000E2E700BFAFF30080D2FBC6D79E59123FC9
:101BC000BA1E85EB51B88E3FEC51B81E85EBA13F94
:101BD000980B0020A80B0020B80A0020CDCCCCCC5C
:101BE000C00A002000002440A00B0020B00B002001
:101BF0001600002000000000F8B52D4B1B78012BCB
:101C000005D0022B2AD0B3B19FED270BF8BD294B8D
:101C1000D3E90045012001F0B3FF53EC102B20461F
:101C20002946FEF759FB00224FF04043FEF70CFD1A
:101C300041EC100BEAE7204BD3E90045022001F00C
:101C40009FFF53EC102B20462946FEF745FB02462A
:101C50000B46FEF743FB41EC100BD7E7164BD3E9DD
:101C60000045022001F08CFF53EC102B2046294642
:101C7000FEF732FB04460D460E4BD3E90067012008
:101C800001F07EFF53EC102B30463946FEF724FB63
:101C900002460B4620462946FEF71EFB41EC100B80
:101CA000B4E700BFAFF300800000000000000000B8
:101CB00016000020B80B0020C00B002038B52DED19
:101CC000028BFFF799FF51EC100B0022114BFEF72E
:101CD000BBFC04460D46FFF79BFCF1EE408AFFF784
:101CE00093FDB0EE408A04F099FA38EE408A68EE2F
:101CF000887A17EE900AFEF74FFC02460B46204604
:101D00002946FEF7EBFAFEF797FF034B1860BDEC90
:101D1000028B38BD00006940D00B0020014B93EDD1
:101D2000000A7047D00B00202DE9F04F2DED088BF5
:101D300087B0002001F024FF57EC106B032001F066
:101D40001FFF55EC104B74A3D3E9002330463946EE
:101D5000FEF7C2FA06460F4671A3D3E900232046D8
:101D60002946FEF7B9FA04460D4602460B463046B0
:101D70003946FEF7B3FA8046894632463B4620464E
:101D80002946FEF7A9FA68A3D3E90023FEF786FDEA
:101D900006460F4666A3D3E9002340464946FEF7B0
:101DA00053FC594CD4E90023FEF798FA41EC1B0B85
:101DB000C4E9000146A3D3E9002330463946FEF7C3
:101DC00043FC524CD4E90023FEF788FA41EC1A0B8D
:101DD000C4E9000140A3D3E9002340464946FEF789
:101DE00033FC04460D463EA3D3E900233046394672
:101DF000FEF72AFCCDE90201DFF83CB1DBE9002364
:101E0000CDE9008940464946FEF766FA36A3D3E994
:101E10000023FEF719FCDFF82491D9E90023FEF72F
:101E20005DFA33A3D3E90023FEF738FD41EC190B2B
:101E3000DFF80CA1DAE9002330463946FEF74CFA08
:101E40002DA3D3E90023FEF7FFFBDFF8F880D8E9E4
:101E50000023FEF743FA2AA3D3E90023FEF71EFD71
:101E600041EC180B22462B4651EC1B0BFEF736FAC1
:101E700053EC192BFEF732FACDE90401DDE9022318
:101E800051EC1A0BFEF72AFA53EC182BFEF726FA40
:101E900004460D46DDE90401FEF7CEFE1C4B18603A
:101EA00020462946FEF7C8FE1A4B18609DED007BC0
:101EB0008BED007BCAE9006789ED009B88ED008B04
:101EC00007B0BDEC088BBDE8F08F00BFAFF300801A
:101ED00060E5D0229BA5643F00000000631A5F40CC
:101EE000000000E08A9E194000000060A2AB534051
:101EF000C1CAA1852062F03F00000000236C22408F
:101F00007368916D81B6F03F700B0020880B002044
:101F1000D40B0020CC0B002000000060BC74833F79
:101F2000000000E04F8D873F000000E0BED5A23FDB
:101F300008AC1C5AD4DF9A3F780B0020680B0020B5
:101F4000900B0020800B0020014B93ED000A70479E
:101F5000D40B0020014B93ED000A7047CC0B0020FE
:101F6000002200230949C1E900230949C1E90023EE
:101F70000849C1E900230849C1E900230749C1E92B
:101F800000230749C1E90023704700BF700B002000
:101F9000880B0020780B0020900B0020680B00209D
:101FA000800B002000000000F8B5012000F088FA46
:101FB000454B00221A8022E0032001F0E1FD53ECA2
:101FC000102B3BA1D1E90001FEF786F9064601F18D
:101FD000004730E0002001F0D3FD53EC102B36A178
:101FE000D1E90001FEF778F9044601F100453EE031
:101FF000354B00221A80344B1B88632B4AD80320B0
:1020000001F0BEFD53EC102B29A1D1E90001FEF730
:1020100063F900220023FEF789FD0028CCD10320BC
:1020200001F0AEFD53EC102B21A1D1E90001FEF728
:1020300053F906460F46002001F0A2FD53EC102B89
:102040001DA1D1E90001FEF747F900220023FEF7A8
:102050006DFD0028BED1002001F092FD53EC102B45
:1020600015A1D1E90001FEF737F904460D462246D5
:102070002B4630463946FEF777FD08B134463D46DB
:102080000FA3D3E9002320462946FEF76DFD002863
:10209000B1D0ADE704F0B6F8FFF776FB04F0BEF878
:1020A000FFF7B8FB002000F00BFAF8BDAFF300809B
:1020B000000000E04F8D873F00000060BC74833F4C
:1020C000613255302AA9333F600B0020054A13883E
:1020D00001339BB21380642B02D9134664221A8009
:1020E000704700BF600B002008B5FFF735FCFFF715
:1020F0007FFCFFF7E3FDFFF717FEFFF7E7FF08BDE3
:1021000008B52DED028B04F077F8B0EE408A04F0AC
:1021100079F838EE408AB5EEC08AF1EE10FA13D4A1
:1021200004F06AF8B0EE408A04F06CF838EE408AA9
:10213000DFED0E7AB4EEE78AF1EE10FA4CBF012023
:102140000020BDEC028B08BD04F056F8B0EE408ACA
:1021500004F058F838EE408ADFED057AB4EEE78AED
:10216000F1EE10FACCBF01200020EAE717B7513991
:1021700017B751B908B52DED028B04F049F8B0EE50
:10218000408A04F04BF838EE408AB5EEC08AF1EE92
:1021900010FA13D404F03CF8B0EE408A04F03EF894
:1021A00038EE408ADFED0E7AB4EEE78AF1EE10FAEF
:1021B0004CBF01200020BDEC028B08BD04F028F8C4
:1021C000B0EE408A04F02AF838EE408ADFED057A56
:1021D000B4EEE78AF1EE10FACCBF01200020EAE766
:1021E0000AD7A33B0AD7A3BB08B5002003F0E6FF3C
:1021F000002003F0EFFF9FED040A04F015F8FFF74D
:102200007FFF0028FBD008BD22727A3C08B5002071
:1022100003F0D4FF002003F0DDFF9FED040A04F07B
:1022200003F8FFF76DFF0028FBD008BDEC51383DE7
:1022300008B5002003F0C2FF012003F0CBFF9FEDA3
:10224000040A03F0F1FFFFF75BFF0028FBD008BD95
:10225000EC51383D08B5002003F0B0FF002003F03A
:10226000B9FF9FED040A03F0DFFFFFF749FF0028E5
:10227000FBD008BDEC51B83D08B5012003F0A4FF28
:102280009FED040A03F0DAFFFFF774FF0028FBD08C
:1022900008BD00BFDA0FC9BF08B5002003F094FFE6
:1022A0009FED040A03F0CAFFFFF764FF0028FBD08C
:1022B00008BD00BFDA0FC93F08B5002003F084FF56
:1022C0009FED040A03F0BAFFFFF754FF0028FBD08C
:1022D00008BD00BFDA0F4940014B00221A70704759
:1022E000DB0B00200023034A1370034A1370034AD8
:1022F00013707047D80B0020DA0B0020D90B002098
:10230000014B01221A707047D80B0020014B0122AB
:102310001A707047DA0B0020014B01221A707047C7
:10232000D90B002008B5094B1B784BB1074B1B7824
:10233000012B08D0054B01221A70FFF7D3FF08BD0F
:10234000FFF764FFF2E7FFF785FFF3E7DB0B002001
:1023500008B5134B1B783BB9124B1B78012B0DD0E2
:10236000FFF78AFFFFF752FF0D4B1B78012B08D0B8
:102370000B4B01221A70FFF7B5FF08BDFFF714FEE3
:10238000EEE7FFF755FF074B1B78012B04D0FFF753
:1023900073FFFFF73BFFEBE7FFF706FEF7E700BF32
:1023A000DB0B0020D80B002008B5134B1B783BB982
:1023B000124B1B78012B0DD0FFF76EFFFFF726FFA6
:1023C0000D4B1B78012B08D00B4B01221A70FFF725
:1023D00089FF08BDFFF7E8FDEEE7FFF729FF074B90
:1023E0001B78012B04D0FFF757FFFFF70FFFEBE738
:1023F000FFF7DAFDF7E700BFDB0B0020D80B00206A
:1024000008B52B4B1B783BB92A4B1B78012B0DD001
:10241000FFF752FFFFF7FAFE254B1B78012B20D068
:10242000234B01221A70FFF75DFF08BDFFF7BCFDCB
:10243000214B1B78012B06D0204B1B78012B09D098
:10244000FFF73AFFE6E7FFF717FFFFF7ADFDFFF7EE
:1024500013FFDFE7FFF720FFFFF7A6FDFFF71CFFE5
:10246000D8E7FFF7E5FE134B1B78012B04D0FFF7ED
:1024700023FFFFF7CBFED3E7FFF796FD0E4B1B784C
:10248000012B06D00D4B1B78012B09D0FFF714FF51
:10249000EFE7FFF7F1FEFFF787FDFFF7EDFEE8E757
:1024A000FFF7FAFEFFF780FDFFF7F6FEE1E700BF5A
:1024B000DB0B0020D80B0020DA0B0020D90B00200A
:1024C000014B1870704700BFDC0B002008B5FFF708
:1024D000A7F9044B83ED000AFFF7A8F9024B83ED3F
:1024E000000A08BDF00B0020E40B002008B5FFF740
:1024F0002BFD044B83ED000AFFF72CFD024B83ED0F
:10250000000A08BDF00B0020E40B002000000000D2
:1025100038B5FFF767FA03282AD8DFE800F0022A67
:10252000527AFFF77DF9444B83ED000AFFF7F6FB83
:1025300010EE100AFEF730F83BA3D3E90023FEF7B4
:1025400083F804460D46FFF771F910EE100AFEF706
:1025500023F837A3D3E90023FEF776F802460B46AB
:1025600020462946FDF7BAFEFEF766FB334B18609E
:1025700038BDFFF755F9304B83ED000AFFF7CEFB6E
:1025800010EE100AFEF708F827A3D3E90023FEF7A0
:102590005BF804460D46FFF749F910EE100AFDF707
:1025A000FBFF23A3D3E90023FEF74EF802460B46B8
:1025B00020462946FDF792FEFEF73EFB1F4B1860B2
:1025C000D6E7FFF72DF91C4B83ED000AFFF7A6FBBA
:1025D00010EE100AFDF7E0FF13A3D3E90023FEF786
:1025E00033F804460D46FFF721F910EE100AFDF707
:1025F000D3FF0FA3D3E90023FEF726F802460B46CC
:1026000020462946FDF76AFEFEF716FB0B4B1860C5
:10261000AEE7FFF705F9084B83ED000AFFF706F96F
:10262000064B83ED000AA3E7333333333333D33F11
:10263000666666666666E63FF00B0020E40B0020E7
:102640000023024A1360024A13607047EC0B00201B
:10265000E80B002008B5094B1B78012B08D0022B92
:1026600009D013B1FFF7ECFF01E0FFF72FFF08BD22
:10267000FFF73CFFFBE7FFF74BFFF8E7DC0B002021
:1026800008B50C4B1B78012B06D0022B07D003B1E9
:1026900008BDFFF765FCFBE7FFF73AF9F8E7FFF73E
:1026A000A1F9032802D1FFF75BFCF1E7FFF73CF942
:1026B000F9E700BFDC0B00200B4BD3ED007A0B4B8E
:1026C00093ED006A37EE867AF6EE006A27EE267AF8
:1026D000074B83ED007A77EEC67A67EEA67A054B54
:1026E000C3ED007A704700BFF00B0020E40B002020
:1026F000EC0B0020E80B002008B52DED028B114BF0
:1027000093ED008A00F02CFEC8EE007A9FED0E8A51
:1027100067EE887AFDEEE77A0C4B17EE902A1A8066
:102720000B4BD3ED008A00F01BFEC8EE807A67EEFB
:10273000887AFDEEE77A074B17EE902A1A80BDECF7
:10274000028B08BDEC0B002000007A44E00B002057
:10275000E80B0020DE0B00200C4BB3F90030002BFF
:102760000BDD2833094A1380094BB3F90030002BE5
:1027700007DD2833064A138070472D3B034A138038
:10278000F2E72D3B024A1380704700BFE00B0020A8
:10279000DE0B002008B5054BB3F9000003F0EAFB9F
:1027A000034BB3F9000003F049FC08BDDE0B002029
:1027B000E00B002008B5FFF74DFFFFF761FFFFF7C3
:1027C0007BFFFFF799FFFFF7C7FFFFF7E3FF08BDA8
:1027D000014BB3F900007047E00B0020014BB3F947
:1027E00000007047DE0B00202DE9F04389B0002483
:1027F000039404940594069407940194274B1A6B50
:1028000042F001021A631A6B02F001020192019A6E
:1028100002941A6B42F002021A631B6B03F002036C
:102820000293029B1E4D224643F6F011284606F005
:10283000ABF9DFF8708022464FF48051404606F035
:10284000A3F9F02303930127049705940326069622
:1028500003A9284606F0B8F84FF00209CDF80C900D
:102860000494059403A9404606F0AEF84FF4805353
:10287000039304970594069603A9404606F0A4F82E
:102880004FF4645303930497CDF81490069603A96C
:10289000284606F099F809B0BDE8F08300380240F8
:1028A000000002400004024000B585B00023009300
:1028B0000193029303933048304A02604FF4803210
:1028C0004260836001220261037680F820304FF07D
:1028D0004051C1624FF000718162C3600521C16146
:1028E00080F83020436103F017FF002831D108231E
:1028F0000093012301930323029369461E4804F0C9
:1029000023F848BB002300930223019369461A4829
:1029100004F01AF818BB01230093032301936946BE
:10292000154804F011F8E8B9022300930423019339
:102930006946114804F008F8B8B903230093052349
:10294000019369460C4803F0FFFF88B905B05DF8B4
:1029500004FBFEF7A3FDCAE7FEF7A0FDD2E7FEF7F2
:102960009DFDD8E7FEF79AFDDEE7FEF797FDE4E769
:10297000FEF794FDEAE700BF24FE0320002001409B
:1029800070B588B0002303930493059306930793CF
:10299000026803F1804303F590339A4201D008B0F6
:1029A00070BD04460025009503F58C335A6C42F443
:1029B00080725A645A6C02F480720092009A0195F7
:1029C0001A6B42F001021A631A6B02F001020192C3
:1029D000019A02951A6B42F002021A631B6B03F014
:1029E00002030293029B0F2303930326049605958B
:1029F00003A9154805F0E8FF012303930496059504
:102A000003A9124805F0E0FF1148124B036045602E
:102A10008560C5604FF4806303614FF400634361D8
:102A20004FF4005383614FF48073C3614FF440331C
:102A30000362456206F02EF918B9054BA3639C6347
:102A4000ADE7FEF72BFDF8E700000240000402406E
:102A50006CFE03201064024010B582B00024009484
:102A60001E4B1A6B42F400121A631A6B02F4001226
:102A70000092009A01941A6B42F480021A631B6B55
:102A800003F480030193019B224621460E2006F0A9
:102A9000E1FA0E2006F012FB224621460F2006F036
:102AA000D9FA0F2006F00AFB22462146382006F00C
:102AB000D1FA382006F002FB22460121392006F027
:102AC000C9FA392006F0FAFA224601213A2006F026
:102AD000C1FA3A2006F0F2FA02B010BD0038024006
:102AE00008B50F480F4B03604FF482734360002317
:102AF0008360C36002220261012242614FF40072CE
:102B000082612022C2610362436283620A23C3623C
:102B100004F0B0F800B908BDFEF7C0FCFBE700BF49
:102B2000CCFE03200038004030B589B00023039369
:102B300004930593069307930268304B9A4201D0A1
:102B400009B030BD04460025019503F500331A6C29
:102B500042F480421A641A6C02F480420192019A93
:102B600002951A6B42F002021A631B6B03F0020318
:102B70000293029B4FF46043039302230493059551
:102B8000032306930523079303A91D4805F01CFFA3
:102B90001C481D4B036045608560C5604FF4806331
:102BA000036145618561C5614FF40033036245628D
:102BB00006F070F8D8B9134BE3649C631348144BC8
:102BC00003600023436040228260C3604FF4806250
:102BD000026143618361C3614FF400320262436268
:102BE00006F058F830B9094BA3649C63A8E7FEF7D8
:102BF00055FCE0E7FEF752FCF5E700BF0038004067
:102C00000004024024FF03205860024084FF032098
:102C10007060024010B596B000241294139414947E
:102C200015941094119409940A940B940C940D9497
:102C30000E940F942022214601A806F0F8FC3D488E
:102C40003D4B0360446084604FF6FF13C360046132
:102C50004461846104F00AFE002850D14FF480538F
:102C6000129312A9334804F07EFF00284AD131485C
:102C700004F030FE002848D12E4804F011FE002850
:102C800046D100231093119310A92A4805F080F82B
:102C9000002840D16023099301230A9300220B925C
:102CA0000C920D920E920F9209A9224804F0E1FEB7
:102CB000002833D141F658330A93042209A91D484C
:102CC00004F0D7FE68BB302309934FF4B4530A9342
:102CD000082209A9174804F09DFE28BB0023019390
:102CE00002930393049305934FF4005206920893C2
:102CF00001A9104805F06FF8C8B916B010BDFEF76D
:102D0000CDFBABE7FEF7CAFBB1E7FEF7C7FBB3E7C6
:102D1000FEF7C4FBB5E7FEF7C1FBBBE7FEF7BEFB62
:102D2000C8E7FEF7BBFBCEE7FEF7B8FBD6E7FEF73A
:102D3000B5FBE2E7880104200000014000B58DB03A
:102D400000230193029315484FF0804202604360D4
:102D500083604FF6FF72C2600361836103220392B6
:102D600004930122059206930793089309920A930C
:102D70000B9303A904F0C8FD50B9002301930293FB
:102D800001A9064805F004F828B90DB05DF804FB68
:102D9000FEF784FBF1E7FEF781FBF6E7D80104209C
:102DA00000B58DB00023019302931548154A0260C7
:102DB000436083604FF6FF72C26003618361032248
:102DC00003920493012205920693079308930992B4
:102DD0000A930B9303A904F097FD50B900230193C4
:102DE000029301A9064804F0D3FF28B90DB05DF89D
:102DF00004FBFEF753FBF1E7FEF750FBF6E700BFDD
:102E0000EC0004200004004000B583B000230093D0
:102E100001930F480F4A026003224260836045F627
:102E2000BF52C260836104F021FD50B900230093BA
:102E300001936946064804F0ABFF28B903B05DF87A
:102E400004FBFEF72BFBF1E7FEF728FBF6E700BFDC
:102E5000480104200010004010B584B00368404AC7
:102E6000934207D03F4A934258D03F4A934262D0A0
:102E700004B010BD04460023019302F59C32516C4E
:102E800041F001015164526C02F001020192019A79
:102E90003648374A02604FF040624260402282600A
:102EA000C3604FF4806202614FF4006242614FF4EC
:102EB000005282614FF48072C2614FF400320262AC
:102EC000436205F0E7FE18BB284B63629C63294808
:102ED000294B03604FF0406343604023836000232D
:102EE000C3604FF4806202614FF4006242614FF4AC
:102EF000005282614FF48072C2614FF4003202626C
:102F0000436205F0C7FE30B91A4BA3629C63AFE77A
:102F1000FEF7C4FAD8E7FEF7C1FAF5E700230293FB
:102F2000164B1A6C42F004021A641B6C03F0040383
:102F30000293029B9CE700220392104B196C41F014
:102F4000100119641B6C03F010030393039B02210F
:102F5000362006F07FF8362006F0B0F888E700BF8C
:102F6000000001400008004000100040E4FF032082
:102F7000286402408C000420406402400038024073
:102F800070B58AB0002305930693079308930993BD
:102F90000368B3F1804F04D02F4A93423AD00AB06D
:102FA00070BD0024009403F50E331A6C42F0010248
:102FB0001A641A6C02F001020092009A01941A6BD2
:102FC00042F001021A631A6B02F001020192019AA7
:102FD00002941A6B42F002021A631B6B03F00203A5
:102FE0000293029B4FF40043059302260696079432
:102FF00008940125099505A9184805F0E5FC082362
:103000000593069607940894099505A9144805F0B8
:10301000DBFCC4E700220392124B196C41F0020161
:103020001964196C01F00201039103990492196B60
:1030300041F0020119631B6B03F002030493049B2C
:10304000302305930223069307920892099305A95A
:10305000034805F0B9FCA2E700040040000002406C
:10306000000402400038024000B587B000230193FD
:1030700002930393049305930268104B9A4202D083
:1030800007B05DF804FB0021009103F50C331A6BC7
:1030900042F002021A631B6B03F002030093009BD1
:1030A0004FF470730193022302930391032204925D
:1030B000059301A9024805F087FCE1E700080040FC
:1030C0000004024000B58FB000230A930B930C93C9
:1030D0000D9308930993019302930393049305932B
:1030E000069307932F48304A02604360836040F2A2
:1030F000BF32C2600361836104F0B8FB002839D19C
:103100004FF480530A930AA9264804F02CFD0028A6
:1031100033D1244804F0DEFB002831D1002308938A
:10312000099308A91F4804F033FE60BB7023019384
:10313000002202920392059201A91A4804F099FC18
:1031400020BB04220DEB0201164804F092FC00BBE8
:10315000082201A9134804F08CFCE8B90C2201A94B
:10316000104804F086FCD0B90E48FFF77DFF0FB081
:103170005DF804FBFEF792F9C2E7FEF78FF9C8E7A6
:10318000FEF78CF9CAE7FEF789F9CFE7FEF786F973
:10319000D7E7FEF783F9DBE7FEF780F9DEE7FEF716
:1031A0007DF9E1E7440004200008004008B50A4822
:1031B0000A4B03604FF46133436000238360C360B4
:1031C00003610C2242618361C36104F0FDFF00B919
:1031D00008BDFEF763F9FBE7180204200010014068
:1031E00000B589B0002303930493059306930793D6
:1031F000026803F1804303F588339A4202D009B094
:103200005DF804FB0021019103F594335A6C42F000
:1032100010025A645A6C02F010020192019A029153
:103220001A6B42F001021A631B6B03F00103029355
:10323000029B4FF4C063039302230493012305937D
:10324000032306930723079303A9024805F0BCFB59
:10325000D5E700BF000002407047FEE7FEE7FEE74B
:10326000FEE770477047704708B505F08BFF08BD53
:1032700008B5024805F0C2FD08BD00BF24FF0320C9
:1032800008B5024805F0BAFD08BD00BF84FF032061
:1032900008B5054804F0C9F900F03CFB00F0A6FAB7
:1032A00000F05CFB08BD00BF4801042008B50248DF
:1032B00005F0A4FD08BD00BF6CFE032008B5024860
:1032C00005F09CFD08BD00BFE4FF032008B50248DF
:1032D00005F094FD08BD00BF8C00042082B00021E1
:1032E00000910B4B5A6C42F480425A645A6C02F4BF
:1032F00080420092009A01911A6C42F080521A6446
:103300001B6C03F080530193019B02B0704700BF18
:10331000003802400F49D1F8883043F47003C1F8F7
:1033200088300D4B1A6842F001021A600020986044
:103330001A6822F0847222F480321A60074A5A60B6
:103340001A6822F480221A60D8604FF000638B6004
:10335000704700BF00ED00E000380240103000244C
:1033600008B500F0F9FB07EE900AF8EEE77AB1EE47
:10337000080A67EE807A9FED020A27EE800A08BDF0
:103380000000803910B5084C23680021986807F0C8
:1033900019F923680021586807F014F923680021FF
:1033A000D86807F00FF910BD2C00002000B583B0DD
:1033B0008DF8070001231A460DF10701024804F0B9
:1033C00032FF03B05DF804FB1802042000B583B09F
:1033D000022038B10A2301220DF10701044804F04C
:1033E00092FFF6E79DF8070003B05DF804FB00BF0D
:1033F000180204204FF08043586A80B270470000E2
:10340000014B586A80B2704700040040024B47F6F7
:10341000FE725A62704700BF000400404FF08043C4
:1034200047F6FE725A62704708B53C21054804F021
:103430008DFC3C21044804F089FCFFF7E7FFFFF70F
:10344000EDFF08BDD8010420EC000420084B5B6AA6
:10345000A3F5FF437E3B07EE903AF8EEE77A9FED47
:10346000050A67EE807A9FED040A87EE800A7047AE
:1034700000040040DA0FC94000C07F444FF0804391
:103480005B6AC3F5FF437E3307EE903AF8EEE77AC6
:103490009FED040A67EE807A9FED030A87EE800AAB
:1034A000704700BFDA0FC94000C07F4438B50446FA
:1034B0000D4621F0004100221B4BFDF737FB90B178
:1034C00000221A4B20462946FDF744FB70B100222A
:1034D000164B20462946FCF701FF41EC100B0AF081
:1034E000CBFB55EC104B2046294638BD0022104B33
:1034F00020462946FDF738FB40B100220023204634
:103500002946FDF7A1F804460D46ECE70022074BDB
:1035100020462946FCF7E0FE41EC100B0AF02CFB9C
:1035200055EC104BDFE700BF000030430000E03FE8
:103530000000E0BF2DE9F84305460F4616469846C1
:10354000D1F8009000244C450EDA35F81400FDF750
:1035500001F80022174BFDF777F8174A02EBC40277
:10356000C2E900010134EEE7D7F8009000254D458F
:103570000ADA114C04EBC50494ED000B0AF000FCD0
:1035800084ED000B0135F2E73D68C8F800500024D7
:103590000BE0094B03EBC403D3E90001FFF786FFFF
:1035A000FDF72AFB26F814000134A542F1DCBDE842
:1035B000F88300BF0000A03FF80B002030B585B0B5
:1035C0008DF8071000F07F008DF80F000E4C0022E0
:1035D0004FF48051204605F0D7FA0C4D01231A46CE
:1035E0000DF10F01284603F085FB01231A460DF16A
:1035F0000701284603F07EFB01224FF4805120464C
:1036000005F0C2FA05B030BD00040240CCFE032034
:1036100030B583B060F07F008DF807000F4C0022BA
:103620004FF48051204605F0AFFA0D4D01231A46A4
:103630000DF10701284603F05DFB01231A460DF149
:103640000601284603F044FD01224FF48051204634
:1036500005F09AFA9DF8060003B030BD0004024060
:10366000CCFE032008B50020FFF7D2FF08BD000004
:1036700008B5642005F098FDFFF7F4FFFFF7F2FFAF
:10368000E02803D01E4806F0FFFEFBE7642005F0AB
:103690008BFD10210320FFF791FF012005F084FD31
:1036A00001210620FFF78AFF642005F07DFD20211F
:1036B0007F20FFF783FF642005F076FD07210120BE
:1036C000FFF77CFF012005F06FFD0D211420FFF7AF
:1036D00075FF012005F068FD00217F20FFF76EFFD8
:1036E000642005F061FD00224FF48051054805F08B
:1036F0004BFA0D23044A0549054803F09DFD08BD1A
:1037000058E3000800040240002C00201C000020A8
:10371000CCFE032038B5104D01224FF480512846CD
:1037200005F032FA0D4CE278237943EA02230C4A81
:103730001380E27A237B43EA02230A4A13800022A1
:103740004FF48051284605F01FFA0D232246064902
:10375000064803F071FD38BD00040240002C002033
:10376000FA2B0020FE2B00201C000020CCFE0320A2
:10377000094BB3F90030094AB2F900209B1A07EE51
:10378000903AF8EEE77A9FED060A67EE807A9FEDB1
:10379000050A27EE800A7047FA2B0020F82B00203C
:1037A0000AE81C41000080390B4BB3F900300B4A8A
:1037B000B2F900209B1A07EE903AF8EEE77A9FEDF7
:1037C000087AC7EE876A9FED077AC6EE877A9FED83
:1037D000060A20EE670A7047FE2B0020FC2B002013
:1037E0001904864100003443DA0F494008B5FDF75B
:1037F0006FFEFDF715FF01F01BFF012800D008BD8B
:1038000001F022FF01380E28F9D801A353F820F067
:103810004D38000867380008813800089B380008D8
:10382000A1380008BB380008D5380008FF37000869
:10383000FF370008FF370008FF370008FF37000890
:10384000FF370008FF370008EB38000802F08AF85D
:10385000FDF7D2FF02F0BCFEFDF7EEFFFEF744FCE1
:10386000FEF7A8FFCBE702F07DF8FDF7C5FF02F0F9
:10387000AFFEFDF7E1FFFEF737FCFEF79BFFBEE76B
:1038800002F070F8FDF7B8FF02F0A2FEFDF7D4FFDA
:10389000FEF72AFCFEF78EFFB1E702F063F8AEE711
:1038A00002F060F8FDF7A8FF02F092FEFDF7C4FFFA
:1038B000FEF71AFCFEF77EFFA1E702F053F8FDF7D2
:1038C0009BFF02F085FEFDF7B7FFFEF70DFCFEF74C
:1038D00071FF94E702F046F8FDF78EFF02F078FEE4
:1038E000FDF7AAFFFEF700FC89E702F03BF8FDF7C1
:1038F00083FF02F06DFEFDF79FFFFEF7F5FBFEF77D
:1039000059FF7CE708B5024803F077FE08BD00BF09
:103910004801042008B50C4B1B685A6A0B4B1A600F
:103920000B4B18685968013041F10001186059606B
:10393000FDF79AFA06EE900A9FED067AC6EE877AB0
:10394000054BC3ED007A08BD48010420202C00205F
:10395000182C002000007A44102C00200A4B196813
:103960004B6A0A4A12689A1A4FF47A7303FB02F3FD
:10397000CA6AB3FBF2F3064A1360064A11688B4227
:1039800038BF0B461360704748010420202C0020EC
:10399000242C0020282C0020014B1888704700BFE1
:1039A000242C0020014B1888704700BF282C0020D1
:1039B000014B93ED000A7047102C00200E4B1B7832
:1039C000012B10D0022B12D04BB15A1C0B4B83FB96
:1039D000021303EB4303D31A074A13707047084AD4
:1039E00090211180F1E7064A60211180EDE7044A39
:1039F00000211180E9E700BF382C002056555555AD
:103A00003C2C002010B500210B4B19800B4B19806A
:103A10000B4B19700B4C23686FF001021A612046A2
:103A200004F040F90421204604F03CF90821204626
:103A300004F018F910BD00BF3A2C00203C2C0020E7
:103A4000382C00208801042038B5124C124A00217D
:103A5000A06A05F0C1FA114D01232A461049606A97
:103A600005F07EF901232A460E49A06A05F078F98F
:103A700005220D490D4802F07BFE2368DA6842F406
:103A8000C062DA605A6C42F400425A64FFF7BAFF2F
:103A900038BD00BF88010420BD3900081400024071
:103AA0003C2C00203A2C00202C2C002024FE03204B
:103AB00010B50C4C0021204604F014F904212046D6
:103AC00004F010F90821204604F00CF9A06A05F072
:103AD00081F9606A05F07EF90022F021024805F0C4
:103AE00053F810BD8801042000000240154B1A78DD
:103AF0000232154B83FB021303EB4303D31A012B52
:103B000011D0022B16D003B17047104B1988104A00
:103B1000118059880F4A118099889180D988118124
:103B20001B8993817047094A51880A4B5980128931
:103B3000DA817047054A9188064BD980D2885A812C
:103B4000E2E700BF382C0020565555552C2C00209C
:103B5000362C0020402C0020014B1888704700BFF5
:103B6000362C0020044A02EB80035B8832F82000E8
:103B7000181A00B2704700BF402C0020000000005F
:103B80002DE9F8430446FFF7EDFF0546FCF7F2FC8C
:103B900041EC100B44B1032C06D0013CE4B2012CE3
:103BA0002AD90024002548E0642D43DDA4B1002675
:103BB0000027B046B946032C16D00AF01FF953EC83
:103BC000102B40464946FCF769FE32463B46FCF75F
:103BD00083FB04460D4630E01FA7D7E900670FF2CC
:103BE0008009D9E90089E6E71FA7D7E900670FF246
:103BF0007009D9E90089E0E7642D03DC1CA5D5E94B
:103C000000451AE00AF0FAF851EC100B1AA3D3E9B8
:103C10000023FCF719FD1AA3D3E90023FCF75CFB92
:103C200002460B4618A1D1E90001FCF755FB0446FA
:103C30000D4602E014A5D5E90045002200232046E8
:103C40002946FCF773FF18B945EC104BBDE8F88323
:103C500000240025F8E700BF90A0F831E6AEB53F9C
:103C6000666666666666E63FCBA145B6F3FDB43F81
:103C70009A9999999999A93FB81E85EB51B88E3FA9
:103C8000D9CEF753E3A59B3F0AD7A3703D0AB73FB0
:103C9000F0B58BB00D48C289838944890189C588F4
:103CA00087884688008808900796361A06960597F2
:103CB0000495ED1B039502910194641A0094D11AA6
:103CC000034806F0E1FB0BB0F0BD00BF402C002024
:103CD00064E300082DE9F8430446884617469946F0
:103CE0004FF480620021384605F0A1FC611E8C4231
:103CF00000D20021002426E004EB4012BB5C43F01C
:103D00000103BB5416E004EB4012BB5C43F002031A
:103D1000BB5412E04201BB5C43F00403BB540EE011
:103D20003B5D43F008033B552846B0420ADA621C6B
:103D30008A42E1D0451CB542E5D0002CEAD00028EB
:103D4000F2D1EDE701348C4206DA08F1FF36B045D6
:103D500000D200260020E8E73B7843F002033B70E6
:103D600097F8203043F0080387F820304FF4806242
:103D70003946484605F04DFC3B7843F0010389F88D
:103D800000307B7843F0040389F80130BDE8F88304
:103D90002DE9F04F89B08246934618460593179B4C
:103DA0009DF86020029201220A708BF800209AF898
:103DB00000200392027000220192D146DDF850A04B
:103DC000B8E10132AA420CDA0C78985C8442F8D14E
:103DD0009BF800409818407A8442F2D1012001906B
:103DE000EFE7019A002A40F0A38199F800809BF840
:103DF000004004940D786A1E560104EB4212013A09
:103E00001598825CB8F1070F53D8012000FA08F02A
:103E1000C0B21040139F97F800E070454BD099F85E
:103E200001C0BCF1070F56D8012000FA0CF0C0B257
:103E30001040864551D099F80270072F60D80120B4
:103E4000B840C0B2104086455CD099F80360069631
:103E5000072E66D80120B040C0B20240964562D01D
:103E6000039A02F1040EBEF1FF0F01D94FF0FF0ECD
:103E7000059A1278AEEB0200864500D2002000F0D1
:103E800003009AF800E09AF8016004969AF802603C
:103E900007969AF80360704558D0049CA04200F041
:103EA000B880079CA04200F08E80B04260D0002213
:103EB0003FE10020ADE7601CFF2800D9FF2030441F
:103EC000169F384410F8010C029FB842A7D2CDF8D3
:103ED0000C800290A3E70020AAE7681CFF2800D905
:103EE000FF200138049F07EB4010169F384410F85C
:103EF000010C029FB8429ED2CDF80CC002909AE706
:103F000000209FE7601E844200D200203044169EAD
:103F1000304410F8010C029EB04296D203970290F2
:103F200093E7002099E76A1E954200D20022013AE9
:103F3000049800EB42121698024412F8012C0298E1
:103F400082428DD206980390029289E7424500F0A2
:103F50008980624500F08C80BA4200F08F8006981C
:103F6000824200F091800D708BF800400022E0E06A
:103F70000432FF2A00F2C280013A504202F00302EA
:103F800000F0030058BF4242D2B2059802700C788C
:103F90009BF8000099F80050AA4200F0B18099F80F
:103FA0000150AA4200F0B28099F80250AA4200F0F3
:103FB000B38099F80350AA4200F0B4800C708BF8DB
:103FC00000000022B5E00432FF2A7DD8023A5042B8
:103FD00002F0030200F0030058BF4242D2B205983B
:103FE00002700C789BF8000099F80050AA426DD03E
:103FF00099F80150AA426FD099F80250AA4271D0A4
:1040000099F80350AA4273D00C708BF8000000227C
:104010008FE00432FF2A3DD80132FF2A00D9FF2267
:10402000504202F0030200F0030058BF4242D2B2F5
:10403000059802700C789BF8000099F80050AA428D
:104040002AD099F80150AA422CD099F80250AA42DD
:104050002ED099F80350AA4230D00C708BF8000093
:10406000002266E00134FF2C00D9FF24E4B270E79F
:104070000135FF2D00D9FF25EDB26DE7601E8442AA
:1040800000D20020C4B26AE76A1E954200D2002224
:10409000D5B268E7FF22BFE70130FF2800D9FF2033
:1040A000C0B2CEE70134FF2C00D9FF24E4B2CCE744
:1040B000451EA84200D20025E8B2CAE7621E94421B
:1040C00000D20022D4B2C8E7FF227FE70130FF28E8
:1040D00000D9FF20C0B28BE70134FF2C00D9FF24A8
:1040E000E4B289E7451EA84200D20025E8B287E77E
:1040F000621E944200D20022D4B285E7FF223BE741
:104100000130FF2800D9FF20C0B248E70134FF2C5E
:1041100000D9FF24E4B247E7451EA84200D200259B
:10412000E8B246E7621E944200D20022D4B245E7CC
:1041300001221AB9129A1578002243E609B0BDE8A7
:10414000F08F30B404789C420AD044789C420ED060
:1041500084789C4212D0C2789A4216D030BC704704
:1041600014780134FF2C00D9FF241470EDE70C788B
:104170000134FF2C00D9FF240C70E9E715786C1E80
:10418000A54200D200241470E5E70A78531E9A4233
:1041900000D200230B70E1E72DE9F04FADF5805D13
:1041A00087B004460D460DF5825108680DF5825121
:1041B0000C310F68591E8B4200D20021531E9A42C7
:1041C00000D2002303FB01F3FF2B00D9FF235A1E6B
:1041D000934200D200225FFA82F80DF58253103329
:1041E0001B6883F800800023B3F5806F03DA07F8BB
:1041F00003800133F8E70DF5825304331E78002263
:1042000009E083185B7A815C013903EB4113013BC0
:104210000021F9540132B242F3DB43E10133A9B981
:10422000B3F5806F12DAFA5CB242F7D109F10100FE
:104230005A1CDFF884C22CF81920B0F5806F02DA1E
:1042400013468146EBE781460121E8E7B9F1000F0B
:104250000FDD0DF580531433C3F80090002399450A
:104260000ADD954A32F91310944A22F813100133EB
:10427000F5E74FF00009ECE70DF580531033C3F874
:1042800000900023994508DD8C4A32F81320013A4A
:104290008B4921F813200133F4E70DF60C030DF5DB
:1042A00001620DF580511031854801F02BFFDDF8DA
:1042B0000CA8002203E00DF20C418B540132524550
:1042C0000EDA0DF5016333F812300133B3F5803F98
:1042D00001D34FF6FF739BB2FF2BECD9FF23EAE724
:1042E0000023994507DD754931F81320013A21F87B
:1042F00013200133F5E70DF60C030DF501620DF502
:10430000805114316D48FFF715F9DDF80C080022D3
:1043100002E003A98B54013282420EDA0DF50163EB
:1043200033F812300133B3F5803F01D34FF6FF73FA
:104330009BB2FF2BEDD9FF23EBE7BAF1000F05DBB2
:10434000BAF1FF0F04DD4FF0FF0A01E04FF0000A61
:104350001AF0FF0F00F0A1805FFA8AFE00213AE018
:10436000002257E00CF10102FF2A00D9FF229244FB
:104370000AF1FF3A17F80A20904550D1721C07F84D
:104380000A20012200924AE0002251E009F10102D4
:10439000FF2A00D9FF22013A0CEB4212013A17F82A
:1043A00002A0D04549D106F1010A07F802A0012276
:1043B000009242E0002249E0023BFA5C90454AD17B
:1043C000721CFA540123009345E0002318402B7817
:1043D000984247D00131714554DA94F800B003ABEC
:1043E00013F8019009F1FF334FEA431A0DF20C4222
:1043F00012F801C00CEB43130DF58252083212681B
:104400001A4412F8010CBBF1070FA9D8012202FAD5
:104410000BF2D2B2024095F800B05A45A2D094F8FF
:1044200001A0BAF1070FAFD8012202FA0AF2D2B204
:10443000024095F800A05245A8D094F802A0BAF125
:10444000070FB7D8012202FA0AF2D2B2024095F859
:1044500000A05245B0D0E278072AB6D80123934095
:10446000DBB2B3E7A9F102090CEB491C0CF1FF3CEC
:1044700017F80C309845ADD1731C07F80C300123A8
:104480000093A7E70136F6B2019B4BB9B04507D3BD
:1044900001994FF000094B46C1E601230193F3E770
:1044A000009B23B1002301931E460093ECE70DF51A
:1044B000805D07B0BDE8F08F6434002064440020C4
:1044C000582C00202DE9F04FADF24C4D08900B9187
:1044D00015460C93DDF87044DDF87494DDF878A48B
:1044E0009DF87C3409939DF880340A93DDF8848428
:1044F000DDF888B4DDF88C649DF890340D931F4688
:1045000000230693079700F018BC00208DF84404A0
:104510008DF840048DF845048DF841048DF846046B
:104520008DF842048DF847048DF84304FFF71AFB19
:1045300007460320FFF716FB3B46034403EBD37308
:104540005B10CF4F3B800220FFF70CFBCD4B188058
:104550000120FFF707FBCC4B1880B7F90020CB4BAD
:10456000B3F900309A4200F328829AF8003003F041
:1045700003020B9949780DF58960024402F8081C82
:10458000C04AB2F90010C24AB2F90020914213DDCC
:104590000133FF2B00D9FF235A4203F0030302F03B
:1045A000030258BF5342089A52780DF589610B44B3
:1045B00003F8042CFDF7AAFE9AF80020531CFF2BE9
:1045C00000D9FF23594203F0030301F0030158BF50
:1045D0004B420B9949780DF58960034403F8081C98
:1045E000A94BB3F90010AB4BB3F90030994213DD7E
:1045F000D31CFF2B00D9FF235A4203F0030302F020
:10460000030258BF5342089A52780DF589610B4452
:1046100003F8042CFDF780FE9AF800300333FF2BDB
:1046200000D9FF235A4203F0030302F0030258BFEC
:1046300053420B9A52780DF589610B4403F8082C0C
:104640002A78531CFF2B00D9FF23072A00F2C381CD
:1046500001219140C9B2013B0DF58962134413F861
:10466000043C01FB03F1FF2900D9FF212278013A24
:104670005201894B1A6099F800301344013B874876
:104680000360C9B218F80300014308F80310297841
:10469000481CFF2800D9FF20072900F29E814FF017
:1046A000010C0CFA01F1C9B201380DF589673844E3
:1046B00010F8080C01FB00F1FF2900D9FF21C9B255
:1046C0001BF8030001430BF803106978481CFF280E
:1046D00000D9FF20072900F282814FF0010C0CFA6B
:1046E00001F1C9B201380DF58967384410F8040C9E
:1046F00001FB00F1FF2900D9FF21C9B218F803001E
:10470000014308F803106978481CFF2800D9FF20EE
:10471000072900F266814FF0010C0CFA01F1C9B2D1
:1047200001380DF58967384410F8080C01FB00F1D9
:10473000FF2900D9FF21C9B21BF8030001430BF880
:104740000310A978481CFF2800D9FF20072900F290
:104750004A814FF0010C0CFA01F1C9B201380DF594
:104760008967384410F8040C01FB00F1FF2900D9D7
:10477000FF21C9B218F80300014308F80310A97813
:10478000481CFF2800D9FF20072900F22E814FF096
:10479000010C0CFA01F1C9B201380DF589673844F2
:1047A00010F8080C01FB00F1FF2900D9FF21C9B264
:1047B0001BF8030001430BF80310E978481CFF289D
:1047C00000D9FF20072900F212814FF0010C0CFAEA
:1047D00001F1C9B201380DF58967384410F8040CAD
:1047E00001FB00F1FF2900D9FF21C9B218F803002D
:1047F000014308F80310E978481CFF2800D9FF207E
:10480000072900F2F6804FF0010C0CFA01F1C9B251
:1048100001380DF58967384410F8080C01FB00F1E8
:10482000FF2900D9FF21C9B21BF8030001430BF88F
:104830000310099B591E8B4200D2002199F80030C9
:104840008B4254DAA87829780131FF2900D9FF2159
:10485000072800F2D0804FF0010C0CFA00F0C0B233
:1048600001390DF58967394411F8041C00FB01F189
:10487000FF2900D9FF210133FF2B11D9FF230FE0BE
:10488000502C0020542C0020522C00201E00002010
:1048900022000020200000205C3400206034002032
:1048A0001344013B18F80300C9B2014308F8031090
:1048B000A87829780131FF2900D9FF21072800F2C3
:1048C0009C804FF0010C0CFA00F0C0B201390DF5DC
:1048D0008967394411F8081C00FB01F1FF2900D950
:1048E000FF211BF80300C9B201430BF803100A9B18
:1048F000591E8B4200D2002123788B424BDAE87894
:1049000069780131FF2900D9FF21072877D84FF0B6
:10491000010C0CFA00F0C0B201390DF58967394479
:1049200011F8041C00FB01F1FF2900D9FF2101331C
:10493000FF2B00D9FF2399F800C0013B58010CEB75
:104940004313013B18F803C0C9B24CEA010108F84F
:104950000310EB7869780131FF2900D9FF21072B7B
:104960004FD84FF0010C0CFA03F3DBB201390DF50F
:104970008967394411F8081C03FB01F3FF2B00D9A8
:10498000FF2399F80010084401381BF80010DBB22F
:104990000B430BF8003099F80010012971D92878E1
:1049A000AB780133FF2B00D9FF2307282BD84FF01A
:1049B000010C0CFA00F0C0B226E09AF8003003F0C7
:1049C0000303089A52780DF589610B4403F8042C0F
:1049D000FDF796FCC9E500213DE6002164E60021D3
:1049E00080E600219CE60021B8E60021D4E6002103
:1049F000F0E600210CE7002032E7002066E7002007
:104A00008AE70023B2E70020013B0DF589673B44AC
:104A100013F8043C00FB03F0FF2800D9FF204B1ED5
:104A2000994200D200231344013B18F80310C0B28E
:104A3000084308F803002878AB780133FF2B00D92E
:104A4000FF23072803D801218140C9B200E00021DB
:104A5000013B0DF58960034413F8083C01FB03F3A7
:104A6000FF2B00D9FF2399F80000411E884200D295
:104A700000210A44013A1BF80210DBB20B430BF889
:104A800002302178012940F25D816878EB780133AA
:104A9000FF2B00D9FF23072803D801228240D2B27E
:104AA00000E00022013B0DF58960034413F8043C4B
:104AB00002FB03F2FF2A00D9FF22481E814200D2E6
:104AC000002099F80030013803EB4013013B18F83F
:104AD0000310D2B20A4308F803206978EB78013357
:104AE000FF2B00D9FF23072903D801228A40D2B225
:104AF00000E00022013B0DF589610B4413F8083CEE
:104B000002FB03F3FF2B00D9FF232278511E8A42B8
:104B100000D2002199F80020013902EB4112013A3C
:104B20001BF80210DBB20B430BF802300AE1013331
:104B3000BB420CDA2178F25C9142F8D199F800106E
:104B4000F218527A9142F2D101220692EFE70797CA
:104B5000069B002B2FD10DF13F03049310AB039361
:104B6000CDF808800D9B019300960A9B099A08993D
:104B70002846FFF711FB2A78072A3BD801239340E8
:104B8000DBB2B24A126818F802201A4234D199F8FE
:104B900000300133FF2B00D9FF23AD4A12681344C4
:104BA000013B10AAD35C9DF83F20934231D28DF88F
:104BB0003F302A7821E0FDF73BFBFEF779FFA54C5B
:104BC00001224FF46451204603F0DEFF4FF42F70B2
:104BD00004F0EAFA00224FF46451204603F0D4FFB7
:104BE0004FF4967004F0E0FAFEF72EFF0DF24C4DF4
:104BF000BDE8F08F0023C4E7069A95F801E0BEF106
:104C0000070F08D84FF0010C0CFA0EFC5FFA8CFC71
:104C100003E0069AF1E74FF0000C99F800002178C4
:104C20004B1E00EB4313434413F8013C13EA0C0FF3
:104C300010D10131FF2900D9FF21013900EB4111C9
:104C4000013910AB5B5C9DF83F108B4202D28DF8AE
:104C50003F30724695F802C0BCF1070F04D801211D
:104C600001FA0CF1C9B200E0002199F800002378A4
:104C7000013B00EB4313434413F8013C0B4210D1BA
:104C8000431E984200D20023714909680B44013B3E
:104C900010A9CB5C9DF83F108B4202D28DF83F30BB
:104CA000624695F803E0BEF1070F04D8012000FA30
:104CB0000EF0C0B200E0002099F8001094F800C097
:104CC0000CF1FF3301EB4313434413F8013C03425F
:104CD0000FD10CF1FF339C4500D20023013B01EBC7
:104CE0004311013910AB595C9DF83F30994200D215
:104CF00072460432FF2A00D9FF229AF80030D31AF4
:104D00009A4200D200235A4203F0030302F0030246
:104D100058BF5342DBB20C98017842788DF83F209F
:104D20000746807897F803C08B4210D09A4200F073
:104D3000958083425AD0634529D0474B1B78002B7E
:104D40003FF4E3AB0023444A1370079FF0E6FDF7FE
:104D5000E9FA9AF800202B789A4200F0AE809AF88F
:104D600000206B789A4200F0B1809AF80020AB786E
:104D70009A4200F0B2809AF80020EB789A42DCD197
:104D80002278531E9A4200D200232370D5E7FDF704
:104D90000BFB9AF800300433FF2B00F2DD80013B5F
:104DA0005A4203F0030302F0030258BF5342DBB23E
:104DB0008AF800302A78934200F0D0809AF80020D8
:104DC0006B789A4200F0D3809AF80020AB789A4230
:104DD00000F0D4809AF80020EB789A42ADD1227886
:104DE000531E9A4200D200232370A6E7FDF708FB6A
:104DF0009AF800300433FF2B00F29380023B5A42B2
:104E000003F0030302F0030258BF5342DBB28AF8F7
:104E100000302A78934200F086809AF800206B7860
:104E20009A4200F089809AF80020AB789A4200F00C
:104E30008A809AF80020EB789A427FF47EAF22783D
:104E4000531E9A4200D20023237076E7603400207C
:104E50005C3400200000024058340020FDF778FA4E
:104E60009AF800300433FF2B40D80133FF2B00D9D0
:104E7000FF235A4203F0030302F0030258BF5342D8
:104E8000DBB28AF800302A78934231D09AF80020B9
:104E90006B789A4235D09AF80020AB789A4237D096
:104EA0009AF80020EB789A427FF447AF2278531E9D
:104EB0009A4200D2002323703FE799F80030013373
:104EC000FF2B00D9FF2389F8003048E7237801330E
:104ED000FF2B00D9FF23237047E799F80020531ECA
:104EE0009A4200D2002389F8003044E7FF23BCE750
:104EF00099F800300133FF2B00D9FF2389F80030E7
:104F0000C4E723780133FF2B00D9FF232370C2E7C6
:104F100099F80020531E9A4200D2002389F80030ED
:104F2000BEE7FF236AE799F800300133FF2B00D971
:104F3000FF2389F8003070E723780133FF2B00D975
:104F4000FF2323706FE799F80020531E9A4200D286
:104F5000002389F800306CE7FF2320E799F8003040
:104F60000133FF2B00D9FF2389F8003026E723788F
:104F70000133FF2B00D9FF23237025E799F8002088
:104F8000531E9A4200D2002389F8003022E700BF66
:104F90002DE9F04FADF5C15D83B00D461646059382
:104FA0000DF5C25310331C780DF5C25314331B7822
:104FB0000DF5C252183211680DF5C2521C32D2F8EA
:104FC00000900DF5C3520432D2F800B05A1E93423D
:104FD00000D20022631E9C4200D2002303FB02F396
:104FE000FF2B00D9FF235A1E934200D20022D3B2D6
:104FF00003930DF5C3520832126814461A46237003
:105000000023B3F5806F03DA0BF803200133F8E7D0
:10501000007800220AE08B185B7A8C5C013C03EB81
:105020004413013B00240BF8034001328242F2DBBF
:10503000002301930493CAE10133A9B9B3F5806F4A
:1050400012DA1BF8032001988242F5D1781C5A1C11
:10505000C64C24F81720B0F5806F02DA13460746D5
:10506000EBE707460121E8E7002F05DD0DF5C15309
:1050700004331F60002308E00027F7E7BB4A32F93A
:105080001310BB4A22F8131001339F42F6DC0DF5D2
:10509000C1531F6000239F4209DDB54A32F8132037
:1050A000013A0DF5815121F813200133F3E70DF694
:1050B0001C030DF502620DF5C1510DF5815001F093
:1050C00021F8DDF81C48002203E00DF21C418B544E
:1050D0000132A2420EDA0DF5026333F812300133C9
:1050E000B3F5803F01D34FF6FF739BB2FF2BECD992
:1050F000FF23EAE700239F4207DD9D4931F8132093
:10510000013A21F813200133F5E70DF61C030DF5E4
:1051100002620DF5C15104319548FEF70BFADDF836
:105120001C08002202E007A98B54013282420EDAE9
:105130000DF5026333F812300133B3F5803F01D32C
:105140004FF6FF739BB2FF2BEDD9FF23EBE7002156
:1051500002940DF5C3530433C3F800B0DDF814B066
:1051600057E0002219F80CE01EEA020F14BF4FF0BE
:1051700001084FF0000896F800E0F04566D06A7824
:10518000072A00F28F804FF0010C0CFA02FC5FFA44
:105190008CFC5A1E19F802E01EEA0C0F14BF4FF0E7
:1051A00001084FF0000896F800E0F0457DD095F832
:1051B00002C0BCF1070F00F2AC804FF0010E0EFAF6
:1051C0000CFC5FFA8CFC19F802E01EEA0C0F14BF0D
:1051D0004FF001084FF0000896F800E0F04500F0AD
:1051E0009B80EB78072B00F2BF804FF0010C0CFA8C
:1051F00003F3DBB219F802C01CEA030F14BF4FF02F
:10520000010E4FF0000E96F800C0E64500F0B280A7
:105210000131029B994280F2D1802A78481C80B2E9
:10522000013807AB1F5C7B1E4FEA431A0DF21C4C82
:105230001CF8000000EB431303F1FF3C072A90D851
:105240004FF0010E0EFA02F2D2B28BE70DF5C35405
:10525000246814F80CC01CEA020F14BF4FF0010CB4
:105260004FF0000C9BF80120944588D1421CFF2A86
:1052700000D9FF2292440AF1FF3A0DF5C3520432DD
:10528000126812F80A20039C94427FF478AF019AC6
:1052900001320DF5C3540434246804F80A200122B5
:1052A00004926CE74FF0000C73E70DF5C3542468CB
:1052B00014F802E01EEA0C0F14BF4FF0010E4FF07D
:1052C000000E9BF801C0E6457FF471AF07F1010CB9
:1052D000BCF1FF0F01D94FF0FF0C0CF1FF3C00EBCC
:1052E0004C1C0CF1FF3C0DF5C3540434246814F835
:1052F0000CE0039C74457FF45AAF019C04F1010E4D
:105300000DF5C3540434246804F80CE0012404941B
:105310004DE74FF0000C56E70DF5C354246814F820
:1053200002E01EEA0C0F14BF4FF0010E4FF0000E0A
:105330009BF801C0E6457FF454AF023B0DF5C35422
:105340000434246814F803C0039C64457FF449AF17
:10535000019C04F1010C0DF5C3540434246804F8D5
:1053600003C0012304933CE7002343E7643C00208F
:10537000644C00200DF5C3542468A25C1A4214BF8B
:10538000012200229BF801309A427FF441AF023F94
:1053900000EB471001380DF5C35304331B681B5C49
:1053A000039A9A427FF434AF019B01330DF5C35247
:1053B0000432126813540123049329E70DF5C353F3
:1053C0000433D3F800B0019B0133DBB201930DF538
:1053D000C35308331B681B78019A934203D30021FF
:1053E0000F460B4629E6049B002B7FF421AE0DF5FA
:1053F000C15D03B0BDE8F08F2DE9F04FADF2644D13
:1054000007460D4690469946DDF888449DF88C6421
:105410009DF890A48DF85C640023112B07DC0DF53A
:105420008C621A44002102F8181C0133F5E70022AF
:105430008DF8442401238DF8453402208DF846046C
:1054400003218DF847148DF840248DF841348DF8F0
:1054500042048DF843148DF83C248DF83D348DF8CA
:1054600038248DF83934BAF1000F07D0BAF1010FA2
:1054700000F0AD800DF2644DBDE8F08FFCF7B4FE96
:1054800001238DF834340DF1300B8DF830300023CA
:105490005A460DF234410DF24440FEF752FEFCF73D
:1054A00041FF9DF844240BAB8DF82C2008960794FF
:1054B00006950597CDF81090CDF80C800293CDF8A5
:1054C00004B00DF2344300930DF588630DF24442AD
:1054D0000DF587610DF23C40FEF7F4FF4FF47A7052
:1054E00003F062FE3DE08DF848C48DF851040121BF
:1054F0008DF8331089B996420FDD02F10903E05CA3
:1055000014F802C00CF1FF3300EB43132B4413F8E3
:10551000013C0F2BE7D10132ECE79DF83330012B32
:1055200024D1FCF7D9FE0123404A137008930DF5EE
:105530008963079306950597CDF81090CDF80C80F8
:105540000BAB02930CAB01930DF2344300930DF5BA
:1055500088630DF244420DF587610DF23C40FEF781
:10556000B1FF00228DF833201146C3E74FF47A7063
:1055700003F01AFE01268DF848648DF85164FCF79B
:10558000ABFE2A4B1E7008960DF5896307930695AE
:105590000597CDF81090CDF80C800BAB02930CABB7
:1055A00001930DF2344300930DF588630DF24442EC
:1055B0000DF587610DF23C40FEF784FFFCF7F4FC2B
:1055C000FCF77AFEBEEE000A00F02EFE4EE70DF26A
:1055D0003C4A0DF1330BCDF818B00DAE059604958D
:1055E00003970294CDF80490CDF800800DF5876301
:1055F00052460DF244410DF25C40FFF7C9FC9BF8A6
:10560000003006930594049603970DF58863029382
:10561000CDF804A00DF25C4300930BAB0CAA0DF285
:1056200034410DF24440FEF7B3FB23E75834002029
:10563000014B1878704700BF67540020014B0022CF
:105640001A70704767540020014B1878704700BFEC
:1056500065540020014B1870704700BF655400204E
:1056600010B5FBF7ABFFB5EE400AF1EE10FAF8D13A
:10567000FBF7BCFFC82003F097FDFBF7A5FFDFEDAC
:10568000827AB4EEE70AF1EE10FA03DD7F4A13786E
:1056900001331370FBF79EFFDFED7D7AB4EEE70A6E
:1056A000F1EE10FA03D5794A1378013B1370774A6B
:1056B000137803F00F031370764A1278934211D0D7
:1056C0000F2B0FD8DFE803F0081523313F4D5B693E
:1056D000778593A1AFBDCBD900224FF464516E48BA
:1056E00003F052FA694B18786A4B1870FFF7B2FF53
:1056F00010BD694C00224FF4C851204603F044FA13
:1057000001224FF40051204603F03EFAEAE7624CD2
:1057100000224FF42451204603F036FA01224FF4C0
:105720008051204603F030FADCE75B4C00224FF456
:105730001061204603F028FA01224FF44051204620
:1057400003F022FACEE7544C00224FF44451204695
:1057500003F01AFA01224FF40061204603F014FA14
:10576000C0E74D4C00224FF48851204603F00CFA5C
:1057700001224FF42051204603F006FAB2E7464CCE
:1057800000224FF40451204603F0FEF901224FF4A9
:10579000C051204603F0F8F9A4E73F4C00224FF433
:1057A0008071204603F0F0F901224FF46051204649
:1057B00003F0EAF996E7384C00224FF46051204696
:1057C00003F0E2F901224FF48071204603F0DCF986
:1057D00088E7314C00224FF4C051204603F0D4F941
:1057E00001224FF40451204603F0CEF97AE72A4C07
:1057F00000224FF42051204603F0C6F901224FF455
:105800008851204603F0C0F96CE7234C00224FF486
:105810000061204603F0B8F901224FF444512046BC
:1058200003F0B2F95EE71C4C00224FF440512046D1
:1058300003F0AAF901224FF41061204603F0A4F905
:1058400050E7154C00224FF48051204603F09CF99C
:1058500001224FF42451204603F096F942E70E4C02
:1058600000224FF40051204603F08EF901224FF43C
:10587000C851204603F088F934E701224FF46451FF
:10588000054803F081F92DE7CDCCCC3D64540020D0
:10589000CDCCCCBD665400200000024008B5FBF71B
:1058A0009FFEDFED057AB4EEE70AF1EE10FA01DDB6
:1058B000012008BD0020FCE7CDCCCC3D08B503207D
:1058C000FEF750F940F2DB539842F8DD4FF4FA70DE
:1058D00003F06AFC014B01221A7008BD67540020D6
:1058E00038B50023184A1370184A1370184A1370F9
:1058F000FEF7DEF8144B1B7833B9FFF7B1FEFFF764
:10590000CDFF114B1870F5E7002415E0114D012271
:105910004FF46451284603F037F94FF42F7003F029
:1059200043FC00224FF46451284603F02DF94FF454
:10593000967003F039FC0134012CE7DDFEF784F8A2
:10594000FFF7BCFF38BD00BF68540020675400203B
:105950006454002000000240014B00221A8070476E
:105960006A540020F8B54C4B1D8840F6B7339D4271
:1059700000D9F8BD07EE905AF8EE677A474E05EB6E
:10598000850406EB0414C4ED007AFBF7F7FE84ED02
:10599000010AFBF7CBFE84ED020AFCF719FF07EEC4
:1059A000900AF8EEE77AC4ED037AFCF717FF07EEEA
:1059B000900AF8EEE77AC4ED047A0320FEF7D2F8F5
:1059C00007EE900AF8EEE77AC4ED057A0020FEF7BC
:1059D000C9F807EE900AF8EEE77AC4ED067A0220DD
:1059E000FEF7C0F807EE900AF8EEE77AC4ED077A02
:1059F0000120FEF7B7F807EE900AF8EEE77AC4ED5B
:105A0000087A0320FEF7BCF851EC100BFBF714F9F1
:105A100060620020FEF7B4F851EC100BFBF70CF9B4
:105A2000A0620220FEF7ACF851EC100BFBF704F972
:105A3000E0620120FEF7A4F851EC100BFBF7FCF834
:105A40002063FBF7ABFF84ED0D0AFBF7B3FF84ED9A
:105A50000E0AFBF7C1FF51EC100BFBF7EDF8E0630A
:105A6000FBF7B4FF51EC100BFBF7E6F82064FCF7F2
:105A700055F984ED110AFBF7B5FF07EE900AF8EE31
:105A8000677AC4ED127AFDF76BFC84ED130A024AC3
:105A90001388013313806CE76A5400206C54002093
:105AA0002DE9F0415B4804F0EFFC002640F6B733E7
:105AB0009E4200F2AC80584F06EB860407EB0414BC
:105AC0002068FAF769FD02460B46544D284604F05B
:105AD000DBFC6068FAF760FD02460B46284604F0DE
