:020000040800F2
:1000000000000520718B0008392200083B220008FF
:100010003D2200083F2200084122000800000000A5
:100020000000000000000000000000004322000863
:10003000452200080000000047220008492200086D
:10004000C18B0008C18B0008C18B0008C18B000860
:10005000C18B0008C18B0008C18B0008C18B000850
:10006000C18B0008C18B0008C18B0008C18B000840
:10007000C18B0008C18B00085122000861220008D2
:10008000C18B0008C18B0008C18B0008C18B000820
:10009000C18B0008C18B0008C18B0008C18B000810
:1000A000C18B0008C18B0008C18B0008C18B000800
:1000B000C18B0008C18B0008C18B0008C18B0008F0
:1000C000C18B0008C18B0008C18B0008C18B0008E0
:1000D000C18B0008C18B0008C18B0008C18B0008D0
:1000E000C18B0008C18B0008C18B0008C18B0008C0
:1000F000C18B0008C18B0008C18B0008C18B0008B0
:10010000C18B0008C18B0008C18B0008C18B00089F
:10011000C18B0008C18B000871220008C18B000848
:100120008D2200089D220008AD220008C18B000826
:10013000C18B0008C18B0008C18B0008C18B00086F
:10014000C18B0008C18B0008C18B0008C18B00085F
:10015000C18B0008C18B0008C18B0008C18B00084F
:10016000C18B0008C18B0008C18B0008C18B00083F
:10017000C18B0008C18B00080000000000000000D7
:10018000C18B0008C18B0008C18B0008C18B00081F
:10019000C18B0008C18B000800000000C18B000863
:1001A000C18B0008C18B00080000000000000000A7
:1001B000C18B00080000000000000000C18B000897
:1001C000C18B0008C18B0008C18B0008C18B0008DF
:0801D000C18B0008C18B00087F
:1001E00010B5054C237833B9044B13B10448AFF371
:1001F00000800123237010BD0802002000000000D1
:10020000C4DC000808B5034B1BB103490348AFF336
:10021000008008BD000000000C020020C4DC0008C3
:10022000034613F8012B002AFBD1181A0138704736
:1002300001F0FF01102A2BDB10F0070F08D010F897
:10024000013B013A8B422DD010F0070F42B3F6D19B
:10025000F0B441EA012141EA014122F007047FF0B4
:1002600000070023F0E80256083C85EA010586EA0B
:10027000010685FA47F5A3FA87F586FA47F6A5FA47
:1002800087F68EB9EED1F0BC01F0FF0102F0070253
:1002900032B110F8013B013A83EA010313B1F8D1FE
:1002A0000020704701387047002D06BF35460338DF
:1002B000073815F0010F07D1013015F4807F02BF18
:1002C000013015F4C03F0130F0BC0138704700BF69
:1002D00081F0004102E000BF83F0004330B54FEAF7
:1002E00041044FEA430594EA050F08BF90EA020F64
:1002F0001FBF54EA000C55EA020C7FEA645C7FEAF7
:10030000655C00F0E2804FEA5454D4EB5555B8BF19
:100310006D420CDD2C4480EA020281EA030382EA8A
:10032000000083EA010180EA020281EA0303362D1C
:1003300088BF30BD11F0004F4FEA01314FF4801CEF
:100340004CEA113102D0404261EB410113F0004F01
:100350004FEA03334CEA133302D0524263EB4303B8
:1003600094EA050F00F0A780A4F10104D5F1200E56
:100370000DDB02FA0EFC22FA05F2801841F10001B1
:1003800003FA0EF2801843FA05F359410EE0A5F185
:1003900020050EF1200E012A03FA0EFC28BF4CF0B6
:1003A000020C43FA05F3C01851EBE37101F000456C
:1003B00007D54FF0000EDCF1000C7EEB00006EEB79
:1003C0000101B1F5801F1BD3B1F5001F0CD3490803
:1003D0005FEA30004FEA3C0C04F101044FEA44525A
:1003E00012F5800F80F09A80BCF1004F08BF5FEAE1
:1003F000500C50F1000041EB045141EA050130BDC1
:100400005FEA4C0C404141EB0101013C28BFB1F5D2
:10041000801FE9D291F0000F04BF01460020B1FA1D
:1004200081F308BF2033A3F10B03B3F120020CDAF0
:100430000C3208DD02F1140CC2F10C0201FA0CF0CE
:1004400021FA02F10CE002F11402D8BFC2F1200C33
:1004500001FA02F120FA0CFCDCBF41EA0C019040E9
:10046000E41AA2BF01EB0451294330BD6FEA040432
:100470001F3C1CDA0C340EDC04F11404C4F120021D
:1004800020FA04F001FA02F340EA030021FA04F32F
:1004900045EA030130BDC4F10C04C4F1200220FA86
:1004A00002F001FA04F340EA0300294630BD21FAC4
:1004B00004F0294630BD94F0000F83F4801306BF8A
:1004C00081F480110134013D4EE77FEA645C18BF7E
:1004D0007FEA655C29D094EA050F08BF90EA020F15
:1004E00005D054EA000C04BF1946104630BD91EA0D
:1004F000030F1EBF0021002030BD5FEA545C05D110
:100500004000494128BF41F0004130BD14F580044E
:100510003CBF01F5801130BD01F0004545F0FE41C2
:1005200041F470014FF0000030BD7FEA645C1ABFF7
:10053000194610467FEA655C1CBF0B46024650EA2E
:10054000013406BF52EA033591EA030F41F400215A
:1005500030BD00BF90F0000F04BF0021704730B5E0
:100560004FF4806404F132044FF000054FF00001B5
:1005700050E700BF90F0000F04BF0021704730B576
:100580004FF4806404F1320410F0004548BF40424B
:100590004FF000013EE700BF42004FEAE2014FEAA0
:1005A00031014FEA02701FBF12F07F4393F07F4F7B
:1005B00081F06051704732F07F4208BF704793F07E
:1005C0007F4F04BF41F40021704730B54FF4607491
:1005D00001F0004521F000411CE700BF50EA010294
:1005E00008BF704730B54FF000050AE050EA01023D
:1005F00008BF704730B511F0004502D5404261EBAD
:1006000041014FF4806404F132045FEA915C3FF4ED
:10061000D8AE4FF003025FEADC0C18BF03325FEA8A
:10062000DC0C18BF033202EBDC02C2F1200300FA3B
:1006300003FC20FA02F001FA03FE40EA0E0021FA60
:1006400002F11444BDE600BF70B54FF0FF0C4CF44E
:10065000E06C1CEA11541DBF1CEA135594EA0C0F00
:1006600095EA0C0F00F0DEF82C4481EA030621EA3B
:100670004C5123EA4C5350EA013518BF52EA033576
:1006800041F4801143F4801338D0A0FB02CE4FF028
:100690000005E1FB02E506F00042E0FB03E54FF058
:1006A0000006E1FB03569CF0000F18BF4EF0010E50
:1006B000A4F1FF04B6F5007F64F5407404D25FEA4C
:1006C0004E0E6D4146EB060642EAC62141EA5551FF
:1006D0004FEAC52040EA5E504FEACE2EB4F1FD0C41
:1006E00088BFBCF5E06F1ED8BEF1004F08BF5FEABF
:1006F000500E50F1000041EB045170BD06F0004671
:1007000046EA010140EA020081EA0301B4EB5C041D
:10071000C2BFD4EB0C0541EA045170BD41F4801115
:100720004FF0000E013C00F3AB8014F1360FDEBF3A
:10073000002001F0004170BDC4F10004203C35DA16
:100740000C341BDC04F11404C4F1200500FA05F399
:1007500020FA04F001FA05F240EA020001F000423A
:1007600021F0004110EBD37021FA04F642EB0601B0
:100770005EEA430E08BF20EAD37070BDC4F10C04DA
:10078000C4F1200500FA04F320FA05F001FA04F29E
:1007900040EA020001F0004110EBD37041F100018A
:1007A0005EEA430E08BF20EAD37070BDC4F1200595
:1007B00000FA05F24EEA020E20FA04F301FA05F2FD
:1007C00043EA020321FA04F001F0004121FA04F2A5
:1007D00020EA020000EBD3705EEA430E08BF20EA75
:1007E000D37070BD94F0000F0FD101F000464000AF
:1007F00041EB010111F4801F08BF013CF7D041EA31
:10080000060195F0000F18BF704703F00046520034
:1008100043EB030313F4801F08BF013DF7D043EA05
:100820000603704794EA0C0F0CEA135518BF95EABB
:100830000C0F0CD050EA410618BF52EA4306D1D142
:1008400081EA030101F000414FF0000070BD50EA61
:10085000410606BF1046194652EA430619D094EAEB
:100860000C0F02D150EA013613D195EA0C0F05D1D5
:1008700052EA03361CBF104619460AD181EA030129
:1008800001F0004141F0FE4141F470014FF00000E1
:1008900070BD41F0FE4141F4780170BD70B54FF07C
:1008A000FF0C4CF4E06C1CEA11541DBF1CEA1355FC
:1008B00094EA0C0F95EA0C0F00F0A7F8A4EB0504DE
:1008C00081EA030E52EA03354FEA013100F08880D5
:1008D0004FEA03334FF0805545EA131343EA12639E
:1008E0004FEA022245EA111545EA10654FEA002653
:1008F0000EF000419D4208BF964244F1FD0404F50C
:10090000407402D25B084FEA3202B61A65EB030567
:100910005B084FEA32024FF480104FF4002CB6EB24
:10092000020E75EB030E22BFB61A754640EA0C00A4
:100930005B084FEA3202B6EB020E75EB030E22BFE4
:10094000B61A754640EA5C005B084FEA3202B6EB25
:10095000020E75EB030E22BFB61A754640EA9C00E4
:100960005B084FEA3202B6EB020E75EB030E22BFB4
:10097000B61A754640EADC0055EA060E18D04FEA72
:10098000051545EA16754FEA06164FEAC30343EA12
:1009900052734FEAC2025FEA1C1CC0D111F4801FDF
:1009A0000BD141EA00014FF000004FF0004CB6E7D8
:1009B00011F4801F04BF01430020B4F1FD0C88BF77
:1009C000BCF5E06F3FF6AFAEB5EB030C04BFB6EB82
:1009D000020C5FEA500C50F1000041EB045170BD75
:1009E0000EF0004E4EEA113114EB5C04C2BFD4EBA2
:1009F0000C0541EA045170BD41F480114FF0000E26
:100A0000013C90E645EA060E8DE60CEA135594EAA1
:100A10000C0F08BF95EA0C0F3FF43BAF94EA0C0FA4
:100A20000AD150EA01347FF434AF95EA0C0F7FF419
:100A300025AF104619462CE795EA0C0F06D152EA6D
:100A400003353FF4FDAE1046194622E750EA410651
:100A500018BF52EA43067FF4C5AE50EA41047FF462
:100A60000DAF52EA43057FF4EBAE12E74FF0FF3CC7
:100A700006E000BF4FF0010C02E000BF4FF0010C98
:100A80004DF804CD4FEA410C7FEA6C5C4FEA430C11
:100A900018BF7FEA6C5C1BD001B050EA410C0CBF60
:100AA00052EA430C91EA030F02BF90EA020F0020C2
:100AB000704710F1000F91EA030F58BF994208BF29
:100AC00090422CBFD8176FEAE37040F001007047E6
:100AD0004FEA410C7FEA6C5C02D150EA013C07D13D
:100AE0004FEA430C7FEA6C5CD6D152EA033CD3D088
:100AF0005DF8040B704700BF8446104662468C4682
:100B00001946634600E000BF01B5FFF7B7FF0028B4
:100B100048BF10F1000F01BD4DF808EDFFF7F4FFDD
:100B20000CBF012000205DF808FB00BF4DF808ED68
:100B3000FFF7EAFF34BF012000205DF808FB00BF8B
:100B40004DF808EDFFF7E0FF94BF012000205DF8AD
:100B500008FB00BF4DF808EDFFF7CEFF94BF012062
:100B600000205DF808FB00BF4DF808EDFFF7C4FF5B
:100B700034BF012000205DF808FB00BF4FEA410CA4
:100B80007FEA6C5C02D150EA013C0AD14FEA430C87
:100B90007FEA6C5C02D152EA033C02D14FF00000C4
:100BA00070474FF0010070474FEA410212F5001202
:100BB00015D211D56FF47873B3EB625212D94FEAA4
:100BC000C12343F0004343EA505311F0004F23FA8E
:100BD00002F018BF404270474FF00000704750EAE3
:100BE000013005D111F0004008BF6FF000407047A0
:100BF0004FF00000704700BF4A0011D212F50012FA
:100C000011D20DD56FF47873B3EB62520ED44FEA64
:100C1000C12343F0004343EA505323FA02F07047E4
:100C20004FF00000704750EA013002D14FF0FF3022
:100C300070474FF0000070474FEA4102B2F1E043C5
:100C400024BFB3F5001CDCF1FE5C0DD901F0004CB3
:100C50004FEAC0024CEA5070B2F1004F40EB830003
:100C600008BF20F00100704711F0804F21D113F12F
:100C70003872BCBF01F00040704741F480114FEA68
:100C80005252C2F11802C2F1200C10FA0CF320FAF1
:100C900002F018BF40F001004FEAC1234FEAD3230E
:100CA00003FA0CFC40EA0C0023FA02F34FEA430378
:100CB000CCE77FEA625307D150EA01331EBF4FF001
:100CC000FE4040F44000704701F0004040F0FE401C
:100CD00040F40000704700BF80F0004002E000BF19
:100CE00081F0004142001FBF5FEA410392EA030F17
:100CF0007FEA226C7FEA236C6AD04FEA1262D2EB61
:100D00001363C1BFD218414048404140B8BF5B4265
:100D1000192B88BF704710F0004F40F4000020F0FE
:100D20007F4018BF404211F0004F41F4000121F014
:100D30007F4118BF494292EA030F3FD0A2F101025E
:100D400041FA03FC10EB0C00C3F1200301FA03F19C
:100D500000F0004302D5494260EB4000B0F5000FBF
:100D600013D3B0F1807F06D340084FEA310102F17E
:100D70000102FE2A51D2B1F1004F40EBC25008BF30
:100D800020F0010040EA03007047490040EB0000FA
:100D9000013A28BFB0F5000FEDD2B0FA80FCACF1FB
:100DA000080CB2EB0C0200FA0CF0AABF00EBC25028
:100DB00052421843BCBFD0401843704792F0000F16
:100DC00081F4000106BF80F400000132013BB5E769
:100DD0004FEA41037FEA226C18BF7FEA236C21D0DF
:100DE00092EA030F04D092F0000F08BF0846704744
:100DF00090EA010F1CBF0020704712F07F4F04D112
:100E0000400028BF40F00040704712F100723CBF24
:100E100000F50000704700F0004343F0FE4040F44E
:100E2000000070477FEA226216BF08467FEA23630C
:100E30000146420206BF5FEA412390EA010F40F4F7
:100E4000800070474FF0000304E000BF10F0004343
:100E500048BF40425FEA000C08BF704743F096432A
:100E600001464FF000001CE050EA010208BF704745
:100E70004FF000030AE000BF50EA010208BF7047CC
:100E800011F0004302D5404261EB41015FEA010CE1
:100E900002BF84460146002043F0B64308BFA3F1D9
:100EA0008053A3F50003BCFA8CF2083AA3EBC253BB
:100EB00010DB01FA02FC634400FA02FCC2F12002DA
:100EC000BCF1004F20FA02F243EB020008BF20F011
:100ED0000100704702F1200201FA02FCC2F1200277
:100EE00050EA4C0021FA02F243EB020008BF20EA6C
:100EF000DC70704753B94AB9002908BF00281CBFED
:100F00004FF0FF314FF0FF3000F0A4B9ADF1080C05
:100F10006DE904CE00F03CF8DDF804E0DDE90223E1
:100F200004B0704738B50022002304460D46FFF791
:100F3000FDFD28B920462946BDE8384000F00AB832
:100F4000204605F1004100F005F8404261EB410107
:100F500038BD00BFD0B50C4B002206460F46FFF748
:100F600073FBFFF749FE0446FFF7F4FA074B002234
:100F7000FFF76AFB02460B4630463946FFF7ACF9ED
:100F8000FFF73AFE2146D0BD0000F03D0000F041E1
:100F90002DE9F047089D04468C46002B40F08380E5
:100FA0008A42174647D9B2FA82F242B1C2F1200012
:100FB00024FA00F09140974040EA010C94404FEA37
:100FC0001748230CBCFBF8F61FFA87FE08FB16C176
:100FD00043EA014306FB0EF1994209D9FB1806F1D9
:100FE000FF3080F01981994240F21681023E3B4465
:100FF0005B1AA4B2B3FBF8F008FB103344EA0344D5
:1010000000FB0EFEA64509D93C1900F1FF3380F024
:101010000581A64540F2028102383C4440EA064080
:10102000A4EB0E0400261DB1D4400023C5E9004303
:101030003146BDE8F08702B9FFDEB2FA82F2002A3B
:1010400050D1CB1B4FEA174E1FFA87F80126B3FB8E
:10105000FEFC210C0EFB1C3341EA034108FB0CF3A0
:101060008B4207D979180CF1FF3002D28B4200F283
:10107000E9808446C91AA3B2B1FBFEF00EFB101141
:1010800043EA014408FB00F8A04507D93C1900F1E8
:10109000FF3302D2A04500F2D9801846A4EB080421
:1010A00040EA0C40BFE78B4209D9002D00F0B18027
:1010B0000026C5E9000130463146BDE8F087B3FAA5
:1010C00083F6002E4AD18B4202D3824200F2B880CE
:1010D000841A61EB030101208C46002DA8D0C5E9DC
:1010E000004CA5E7C2F1200320FA03F6974001FA6D
:1010F00002F04FEA174ED9403043030CB1FBFEF625
:101100001FFA87F80EFB161143EA014306FB08F1AC
:10111000994204FA02F409D9FB1806F1FF3C80F069
:101120008D80994240F28A80023E3B445B1A81B234
:10113000B3FBFEF00EFB103341EA034100FB08F362
:101140008B4207D9791800F1FF3C73D28B4271D9D9
:1011500002383944CB1A40EA064678E7C6F1200C3B
:1011600003FA06F422FA0CF31C4320FA0CF701FAF6
:1011700006F34FEA144E21FA0CF11F433B0CB1FB6E
:10118000FEF91FFA84F80EFB191143EA014109FB2D
:1011900008FA8A4502FA06F200FA06F308D961183D
:1011A00009F1FF3048D28A4546D9A9F10209214404
:1011B000A1EB0A01BFB2B1FBFEF00EFB101147EA32
:1011C000014700FB08F8B84507D9E71900F1FF31DE
:1011D0002ED2B8452CD90238274440EA0940A7EB63
:1011E0000807A0FB02894F45C64649461AD317D0C7
:1011F0005DB1B3EB0E0267EB010707FA0CFCF2409E
:101200004CEA0202F740C5E9002700263146BDE856
:10121000F0872E4628460BE70646E9E61846FDE627
:101220004345E5D2B8EB020E69EB04010138DFE774
:101230000846D2E760468DE78146B9E7664675E71E
:1012400030464AE7ACF1020C394413E702383C441B
:1012500024E700BF704700BF30B595B034220021AD
:1012600007A807F0B4FE00240294039404940594A4
:1012700006940094194B1A6C42F080521A641B6C4D
:1012800003F080530093009B0194154B1A6842F4BD
:1012900040421A601B6803F440430193019B0225FE
:1012A000079501230A9310230B930D950E940F932A
:1012B000C023109311951295139507A806F08AFE86
:1012C0000F230293039504944FF4805305930694DF
:1012D000032102A806F0AAFD15B030BD0038024077
:1012E00000700040F0B585B007F002FCFFF7B4FFD6
:1012F00000F06AFA00F0A0FB00F048FF00F0D2FE18
:1013000000F0DEFB00F0C0FA00F008FD00F038FD50
:1013100000F06AFD00F06EFC03F0AAFD01F022F877
:1013200001F096F901F070F801F0E6FAC0E003F080
:1013300061FB002003F014FE002003F0AFFD002449
:10134000B4E0704B01221A7004F0BAFCF1E76D4B67
:1013500001221A706C4B00221A7004F0E1FA04F0BA
:10136000E5FA03F08DFA9FED690A04F0E5FA4FF40F
:101370007A6007F0E9FBDCE7624B01221A70644BEC
:1013800000221A7004F0CCFA04F0D0FA03F078FAD4
:101390009FED600A04F0DAFA44F6206007F0D4FB0F
:1013A000C7E74FF4FA7007F0CFFB03F069FA642047
:1013B00003F0D6FD6FF0630003F070FD4FF4FA60A8
:1013C00007F0C2FBB5E73C2003F0CAFD3C2003F068
:1013D00065FDC82007F0B8FB03F052FA3C240AE090
:1013E000204603F0BDFD204603F058FD0A2007F01B
:1013F000ABFB0A3424B2C82CF2DD4FF4FA7007F0CC
:10140000A3FBC8240AE0204603F0AAFD204603F00F
:1014100045FD0A2007F098FB0A3C24B23B2CF2DC85
:101420004FF4FA7007F090FB83E7364B01221A70F5
:10143000394B00221A7042F2107007F085FB78E7F2
:10144000304B01221A7003F0AFFB72E7334D344C7E
:10145000344F354E2B4622463978307801F006FC61
:101460000023324A13700293314B1B780193314BA6
:1014700000933B7832782946204602F03FFF58E738
:101480002D4D01224FF46451284607F04DF84FF4DA
:101490002F7007F059FB00224FF46451284607F0E3
:1014A00043F84FF4967007F04FFB0134022CE7DD50
:1014B00003F09CF903F04EF80F283FF63AAF01A372
:1014C00053F820F02F130008431300084F130008AF
:1014D00079130008A3130008C71300082B14000891
:1014E00041140008331300083313000833130008B5
:1014F00033130008331300083313000833130008B4
:101500004D14000874B20120B8B201206666E63EB0
:10151000CCB20120DA0FC94075B2012008B7012012
:1015200008B301201600002017000020240200202C
:10153000000000200400002000000240704700006E
:1015400008B500F047FF034A1388C31A108018B289
:1015500008BD00BF1A00002008B500F041FF034A93
:101560001388C31A108018B208BD00BF18000020ED
:1015700008B52DED028BFFF7E3FF07EE900AF8EEBA
:10158000E77A9FED2B7A67EE877ADFED2A8A87EE7E
:10159000A88AFFF7E1FF07EE900AF8EEE77A9FEDE1
:1015A000267A67EE877A87EEA87ADFED246A68EEFE
:1015B000267A234BC3ED007A27EE267A214B83ED62
:1015C000007A214BD3ED006AF4EEE67AF1EE10FAE0
:1015D00017DDC3ED007A1D4BD3ED006AB4EEE67A59
:1015E000F1EE10FA18DD83ED007A77EE877AB6EE29
:1015F000007A67EE877A164BC3ED007ABDEC028B5A
:1016000008BD144BD3ED006AF4EEE67AF1EE10FA61
:10161000E1D5C3ED007ADEE70F4BD3ED006AB4EEFF
:10162000E67AF1EE10FAE0D583ED007ADDE700BF4F
:101630007B59C4C500C07F447B59C4452F50D23B61
:101640008C020020800200209002002084020020F2
:10165000780200209402002088020020014B93EDC4
:10166000000A70478C020020014B93ED000A70477E
:1016700090020020014B93ED000A70479402002075
:10168000014B93ED000A7047840200200023044AB6
:101690001360044A1360044A1360044A13607047DD
:1016A0009402002090020020880200208402002082
:1016B000014B93ED000A7047780200200000000003
:1016C00038B52DED028B3A4B1A883A4BA3FB021327
:1016D000DB0803EB8303A2EB43039CB2FFF7E8FFB5
:1016E000354A02EBC40484ED000A01F031F884EDC0
:1016F000010ADFED327AB0EE677A0023092B0DD8AC
:101700002D4A02EBC302D2ED006A37EE267AD2ED03
:10171000016A77EEA67A01339BB2EFE7F2EE046A34
:1017200087EE268A87EEA67AB5EEC07AF1EE10FA39
:101730002DD4F6EE007AB4EEE77AF1EE10FA4CBF53
:10174000012300230BB19FED1D7A17EE100AFEF75F
:1017500023FF15A3D3E90023FEF776FF0022184BE1
:10176000FEF772FF04460D4618EE100AFEF714FF4E
:1017700022462B46FEF7B2FDFFF75EFA114B1860CA
:101780000B4A138801331380BDEC028B38BDFEEE8B
:10179000007AB4EEE77AF1EE10FACCBF0123002311
:1017A000D0E700BFAFF300807B14AE47E17A843FFF
:1017B00026020020CDCCCCCC280200200000000066
:1017C0000000E03F7C0200202DE9F04389B00024B6
:1017D000039404940594069407940194274B1A6B80
:1017E00042F001021A631A6B02F001020192019A9F
:1017F00002941A6B42F002021A631B6B03F002039D
:101800000293029B1E4D224643F6F011284606F035
:101810008BFEDFF8708022464FF48051404606F080
:1018200083FEF0230393012704970594032606966D
:1018300003A9284606F098FD4FF00209CDF80C9058
:101840000494059403A9404606F08EFD4FF480539E
:10185000039304970594069603A9404606F084FD79
:101860004FF4645303930497CDF81490069603A99C
:10187000284606F079FD09B0BDE8F0830038024043
:10188000000002400004024000B585B00023009330
:101890000193029303933048304A02604FF4803240
:1018A0004260836001220261037680F820304FF0AD
:1018B0004051C1624FF000718162C3600521C16176
:1018C00080F83020436104F0F7FB002831D1082371
:1018D0000093012301930323029369461E4804F0F9
:1018E00003FD48BB002300930223019369461A4875
:1018F00004F0FAFC18BB012300930323019369460B
:10190000154804F0F1FCE8B9022300930423019385
:101910006946114804F0E8FCB8B903230093052395
:10192000019369460C4804F0DFFC88B905B05DF806
:1019300004FBFFF703FECAE7FFF700FED2E7FFF75D
:10194000FDFDD8E7FFF7FAFDDEE7FFF7F7FDE4E777
:10195000FFF7F4FDEAE700BF08BB012000200140CB
:1019600070B588B0002303930493059306930793FF
:10197000026803F1804303F590339A4201D008B026
:1019800070BD04460025009503F58C335A6C42F473
:1019900080725A645A6C02F480720092009A019527
:1019A0001A6B42F001021A631A6B02F001020192F3
:1019B000019A02951A6B42F002021A631B6B03F044
:1019C00002030293029B0F230393032604960595BB
:1019D00003A9154806F0C8FC012303930496059556
:1019E00003A9124806F0C0FC1148124B0360456081
:1019F0008560C5604FF4806303614FF40063436109
:101A00004FF4005383614FF48073C3614FF440334C
:101A10000362456206F00EFE18B9054BA3639C6392
:101A2000ADE7FFF78BFDF8E700000240000402403D
:101A300050BB01201064024010B582B00024009415
:101A40001E4B1A6B42F400121A631A6B02F4001256
:101A50000092009A01941A6B42F480021A631B6B85
:101A600003F480030193019B224621460E2006F0D9
:101A7000C1FF0E2006F0F2FF224621460F2006F09D
:101A8000B9FF0F2006F0EAFF22462146382006F073
:101A9000B1FF382006F0E2FF22460121392006F08E
:101AA000A9FF392006F0DAFF224601213A2006F08C
:101AB000A1FF3A2006F0D2FF02B010BD003802406C
:101AC00008B50F480F4B03604FF482734360002347
:101AD0008360C36002220261012242614FF40072FE
:101AE00082612022C2610362436283620A23C3626D
:101AF00004F090FD00B908BDFFF720FDFBE700BF33
:101B0000B0BB01200038004030B589B000230393FA
:101B100004930593069307930268304B9A4201D0D1
:101B200009B030BD04460025019503F500331A6C59
:101B300042F480421A641A6C02F480420192019AC3
:101B400002951A6B42F002021A631B6B03F0020348
:101B50000293029B4FF46043039302230493059581
:101B6000032306930523079303A91D4806F0FCFBF6
:101B70001C481D4B036045608560C5604FF4806361
:101B8000036145618561C5614FF4003303624562BD
:101B900006F050FDD8B9134BE3649C631348144B13
:101BA00003600023436040228260C3604FF4806280
:101BB000026143618361C3614FF400320262436298
:101BC00006F038FD30B9094BA3649C63A8E7FFF722
:101BD000B5FCE0E7FFF7B2FCF5E700BF00380040D6
:101BE0000004024008BC01205860024068BC01208B
:101BF0007060024010B596B00024129413941494AF
:101C000015941094119409940A940B940C940D94C7
:101C10000E940F942022214601A807F0D8F93D48E0
:101C20003D4B0360446084604FF6FF13C360046162
:101C30004461846105F0EAFA002850D14FF48053E2
:101C4000129312A9334805F05EFC00284AD13148AE
:101C500005F010FB002848D12E4805F0F1FA0028C5
:101C600046D100231093119310A92A4805F060FD76
:101C7000002840D16023099301230A9300220B928C
:101C80000C920D920E920F9209A9224805F0C1FB09
:101C9000002833D141F658330A93042209A91D487C
:101CA00005F0B7FB68BB302309934FF4B4530A9394
:101CB000082209A9174805F07DFB28BB00230193E2
:101CC00002930393049305934FF4005206920893F2
:101CD00001A9104805F04FFDC8B916B010BDFFF7B7
:101CE0002DFCABE7FFF72AFCB1E7FFF727FCB3E7D2
:101CF000FFF724FCB5E7FFF721FCBBE7FFF71EFC6D
:101D0000C8E7FFF71BFCCEE7FFF718FCD6E7FFF7A5
:101D100015FCE2E76CBE01200000014000B58DB06B
:101D200000230193029315484FF080420260436004
:101D300083604FF6FF72C2600361836103220392E6
:101D400004930122059206930793089309920A933C
:101D50000B9303A905F0A8FA50B90023019302934D
:101D600001A9064805F0E4FC28B90DB05DF804FBB4
:101D7000FFF7E4FBF1E7FFF7E1FBF6E7BCBE01206C
:101D800000B58DB00023019302931548154A0260F7
:101D9000436083604FF6FF72C26003618361032278
:101DA00003920493012205920693079308930992E4
:101DB0000A930B9303A905F077FA50B90023019316
:101DC000029301A9064805F0B3FC28B90DB05DF8EF
:101DD00004FBFFF7B3FBF1E7FFF7B0FBF6E700BF4B
:101DE000D0BD01200004004000B583B00023009363
:101DF00001930F480F4A026003224260836045F658
:101E0000BF52C260836105F001FA50B9002300930C
:101E100001936946064805F08BFC28B903B05DF8CC
:101E200004FBFFF78BFBF1E7FFF788FBF6E700BF4A
:101E30002CBE01200010004010B584B00368404A59
:101E4000934207D03F4A934258D03F4A934262D0D0
:101E500004B010BD04460023019302F59C32516C7E
:101E600041F001015164526C02F001020192019AA9
:101E70003648374A02604FF040624260402282603A
:101E8000C3604FF4806202614FF4006242614FF41C
:101E9000005282614FF48072C2614FF400320262DC
:101EA000436206F0C7FB18BB284B63629C6329485A
:101EB000294B03604FF0406343604023836000235D
:101EC000C3604FF4806202614FF4006242614FF4DC
:101ED000005282614FF48072C2614FF4003202629C
:101EE000436206F0A7FB30B91A4BA3629C63AFE7CD
:101EF000FFF724FBD8E7FFF721FBF5E70023029368
:101F0000164B1A6C42F004021A641B6C03F00403B3
:101F10000293029B9CE700220392104B196C41F044
:101F2000100119641B6C03F010030393039B02213F
:101F3000362006F05FFD362006F090FD88E700BFF2
:101F4000000001400008004000100040C8BC012013
:101F50002864024070BD0120406402400038024005
:101F600070B58AB0002305930693079308930993ED
:101F70000368B3F1804F04D02F4A93423AD00AB09D
:101F800070BD0024009403F50E331A6C42F0010278
:101F90001A641A6C02F001020092009A01941A6B02
:101FA00042F001021A631A6B02F001020192019AD7
:101FB00002941A6B42F002021A631B6B03F00203D5
:101FC0000293029B4FF40043059302260696079462
:101FD00008940125099505A9184806F0C5F90823B4
:101FE0000593069607940894099505A9144806F0E8
:101FF000BBF9C4E700220392124B196C41F00201B5
:102000001964196C01F00201039103990492196B90
:1020100041F0020119631B6B03F002030493049B5C
:10202000302305930223069307920892099305A98A
:10203000034806F099F9A2E70004004000000240BE
:10204000000402400038024000B587B0002301932D
:1020500002930393049305930268104B9A4202D0B3
:1020600007B05DF804FB0021009103F50C331A6BF7
:1020700042F002021A631B6B03F002030093009B01
:102080004FF470730193022302930391032204928D
:10209000059301A9024806F067F9E1E7000800404E
:1020A0000004024000B58FB000230A930B930C93F9
:1020B0000D9308930993019302930393049305935B
:1020C000069307932F48304A02604360836040F2D2
:1020D000BF32C2600361836105F098F8002839D1EE
:1020E0004FF480530A930AA9264805F00CFA0028F9
:1020F00033D1244805F0BEF8002831D100230893DD
:10210000099308A91F4805F013FB60BB70230193D6
:10211000002202920392059201A91A4805F079F96A
:1021200020BB04220DEB0201164805F072F900BB3A
:10213000082201A9134805F06CF9E8B90C2201A99D
:10214000104805F066F9D0B90E48FFF77DFF0FB0D3
:102150005DF804FBFFF7F2F9C2E7FFF7EFF9C8E714
:10216000FFF7ECF9CAE7FFF7E9F9CFE7FFF7E6F980
:10217000D7E7FFF7E3F9DBE7FFF7E0F9DEE7FFF783
:10218000DDF9E1E728BD01200008004008B50A4854
:102190000A4B03604FF46133436000238360C360E4
:1021A00003610C2242618361C36105F0DDFC00B96B
:1021B00008BDFFF7C3F9FBE7FCBE0120001001409A
:1021C00000B589B000230393049305930693079306
:1021D000026803F1804303F588339A4202D009B0C4
:1021E0005DF804FB0021019103F594335A6C42F031
:1021F00010025A645A6C02F010020192019A029184
:102200001A6B42F001021A631B6B03F00103029385
:10221000029B4FF4C06303930223049301230593AD
:10222000032306930723079303A9024806F09CF8AB
:10223000D5E700BF000002407047FEE7FEE7FEE77B
:10224000FEE770477047704708B506F06BFC08BDA5
:1022500008B5024806F0A2FA08BD00BF08BC01207C
:1022600008B5024806F09AFA08BD00BF68BC012014
:1022700008B5054804F0A9FE00F046FB00F0A6FAF8
:1022800000F066FB08BD00BF2CBE012008B5024867
:1022900006F084FA08BD00BF50BB012008B5024813
:1022A00006F07CFA08BD00BFC8BC012008B5024892
:1022B00006F074FA08BD00BF70BD012082B0002195
:1022C00000910B4B5A6C42F480425A645A6C02F4EF
:1022D00080420092009A01911A6C42F080521A6476
:1022E0001B6C03F080530193019B02B0704700BF49
:1022F000003802400F49D1F8883043F47003C1F828
:1023000088300D4B1A6842F001021A600020986074
:102310001A6822F0847222F480321A60074A5A60E6
:102320001A6822F480221A60D8604FF000638B6034
:10233000704700BF00ED00E000380240103000247C
:1023400008B500F003FC07EE900AF8EEE77AB1EE6C
:10235000080A67EE807A9FED020A27EE800A08BD20
:102360000000803910B5084C23680021986807F0F8
:10237000F9FD23680021586807F0F4FD2368002167
:10238000D86807F0EFFD10BD3000002000B583B025
:102390008DF8070001231A460DF10701024805F0E8
:1023A00012FC03B05DF804FBFCBE012000B583B055
:1023B000022038B10A2301220DF10701044805F07B
:1023C00072FCF6E79DF8070003B05DF804FB00BF60
:1023D000FCBE01204FF08043586A80B27047000075
:1023E000014B586A80B2704700040040024B47F628
:1023F000FE725A62704700BF000400404FF08043F5
:1024000047F6FE725A62704708B53C21054805F050
:102410006DF93C21044805F069F9FFF7E7FFFFF784
:10242000EDFF08BDBCBE0120D0BD0120084B5B6A9A
:10243000A3F5FF437E3B07EE903AF8EEE77A9FED77
:10244000050A67EE807A9FED040A87EE800A7047DE
:1024500000040040DA0FC94000C07F444FF08043C1
:102460005B6AC3F5FF437E3307EE903AF8EEE77AF6
:102470009FED040A67EE807A9FED030A87EE800ADB
:10248000704700BFDA0FC94000C07F4438B504462A
:102490000D4621F0004100221B4BFEF747FB90B197
:1024A00000221A4B20462946FEF754FB70B1002249
:1024B000164B20462946FDF711FF41EC100B0BF09F
:1024C000ABF855EC104B2046294638BD0022104B86
:1024D00020462946FEF748FB40B100220023204653
:1024E0002946FEF7B1F804460D46ECE70022074BFB
:1024F00020462946FDF7F0FE41EC100B0BF00CF8DE
:1025000055EC104BDFE700BF000030430000E03F18
:102510000000E0BF2DE9F84305460F4616469846F1
:10252000D1F8009000244C450EDA35F81400FEF77F
:1025300011F80022174BFEF787F8174A02EBC40286
:10254000C2E900010134EEE7D7F8009000254D45BF
:102550000ADA114C04EBC50494ED000B0BF0E0F823
:1025600084ED000B0135F2E73D68C8F80050002407
:102570000BE0094B03EBC403D3E90001FFF786FF2F
:10258000FEF73AFB26F814000134A542F1DCBDE861
:10259000F88300BF0000A03FA802002030B585B03E
:1025A0008DF8071000F07F008DF80F000E4C002210
:1025B0004FF48051204605F0B7FF0C4D01231A4619
:1025C0000DF10F01284604F065F801231A460DF1BC
:1025D0000701284604F05EF801224FF4805120469E
:1025E00005F0A2FF05B030BD00040240B0BB0120E1
:1025F00030B583B060F07F008DF807000F4C0022EB
:102600004FF48051204605F08FFF0D4D01231A46EF
:102610000DF10701284604F03DF801231A460DF19B
:102620000601284604F024FA01224FF48051204686
:1026300005F07AFF9DF8060003B030BD00040240AB
:10264000B0BB012008B50020FFF7D2FF08BD000095
:1026500008B5642006F078FAFFF7F4FFFFF7F2FF01
:10266000E02803D01E4807F0DFFBFBE7642006F0FC
:102670006BFA10210320FFF791FF012006F064FAA6
:1026800001210620FFF78AFF642006F05DFA202171
:102690007F20FFF783FF642006F056FA0721012010
:1026A000FFF77CFF012006F04FFA0D211420FFF701
:1026B00075FF012006F048FA00217F20FFF76EFF2A
:1026C000642006F041FA00224FF48051054805F0DD
:1026D0002BFF0D23044A0549054804F07DFA08BD87
:1026E000F8DC000800040240B02200202000002096
:1026F000B0BB012038B5104D01224FF4805128465F
:1027000005F012FF0D4CE278237943EA02230C4ACC
:102710001380E27A237B43EA02230A4A13800022D1
:102720004FF48051284605F0FFFE0D23224606494E
:10273000064804F051FA38BD00040240B0220020DF
:10274000AA220020AE22002020000020B0BB0120E1
:10275000094BB3F90030094AB2F900209B1A07EE81
:10276000903AF8EEE77A9FED060A67EE807A9FEDE1
:10277000050A27EE800A7047AA220020A82200201E
:102780000AE81C41000080390B4BB3F900300B4ABA
:10279000B2F900209B1A07EE903AF8EEE77A9FED27
:1027A000087AC7EE876A9FED077AC6EE877A9FEDB3
:1027B000060A20EE670A7047AE220020AC220020F5
:1027C0001904864100003443DA0F494008B5FEF78A
:1027D000CFFEFEF775FF01F0B7FE012800D008BD5F
:1027E00001F0B8FE01380E28F9D801A353F820F003
:1027F0002D2800084F2800086D2800088B280008A5
:102800009128000897280008B5280008DF2700084D
:10281000DF270008DF270008DF270008DF27000880
:10282000DF270008DF270008D728000802F02EF86D
:1028300003F09AFB02F054FC02F072FC02F070FD0F
:1028400002F0D2FD02F090FC02F03EFEC7E702F07B
:102850001DF802F045FC02F063FC02F061FD02F09D
:10286000C3FD02F081FC02F02FFEB8E702F00EF883
:1028700002F036FC02F054FC02F052FD02F0B4FD0E
:1028800002F072FC02F020FEA9E701F0FFFFA6E7CC
:1028900001F0FCFFA3E701F0F9FF02F021FC02F0D8
:1028A0003FFC02F03DFD02F09FFD02F05DFC02F0F6
:1028B0000BFE94E701F0EAFF03F056FB02F010FC78
:1028C00002F02EFC02F02CFD02F08EFD02F04CFC1A
:1028D00002F0FAFD83E701F0D9FF03F045FB02F0B7
:1028E000FFFB02F01DFC02F01BFD02F07DFD02F07B
:1028F0003BFC02F0E9FD72E708B5024804F04DFB2D
:1029000008BD00BF2CBE012008B50C4B1B685A6ADD
:102910000B4B1A600B4B18685968013041F10001EC
:1029200018605960FEF7A0FA06EE900A9FED067A4D
:10293000C6EE877A054BC3ED007A08BD2CBE012098
:10294000D0220020C822002000007A44C0220020AB
:102950000A4B19684B6A0A4A12689A1A4FF47A733A
:1029600003FB02F3CA6AB3FBF2F3064A1360064A9A
:1029700011688B4238BF0B46136070472CBE012094
:10298000D0220020D4220020D8220020014B188819
:10299000704700BFD4220020014B1888704700BF49
:1029A000D8220020014B93ED000A7047C02200207E
:1029B0000E4B1B78012B10D0022B12D04BB15A1C9E
:1029C0000B4B83FB021303EB4303D31A074A137029
:1029D0007047084A90211180F1E7064A6021118072
:1029E000EDE7044A00211180E9E700BFE82200205A
:1029F00056555555EC22002010B500210B4B19807F
:102A00000B4B19800B4B19700B4C23686FF00102B4
:102A10001A61204604F016FE0421204604F012FE3E
:102A20000821204604F0EEFD10BD00BFEA22002080
:102A3000EC220020E82200206CBE012038B5124CA8
:102A4000124A0021A06A05F097FF114D01232A4682
:102A50001049606A05F054FE01232A460E49A06A17
:102A600005F04EFE05220D490D4803F051FB236889
:102A7000DA6842F4C062DA605A6C42F400425A6486
:102A8000FFF7BAFF38BD00BF6CBE0120B1290008B6
:102A900014000240EC220020EA220020DC22002068
:102AA00008BB012010B50C4C0021204604F0EAFDC3
:102AB0000421204604F0E6FD0821204604F0E2FD52
:102AC000A06A05F057FE606A05F054FE0022F0216E
:102AD000024805F029FD10BD6CBE01200000024037
:102AE000154B1A780232154B83FB021303EB430399
:102AF000D31A012B11D0022B16D003B17047104B03
:102B00001988104A118059880F4A1180998891803C
:102B1000D98811811B8993817047094A51880A4BD2
:102B200059801289DA817047054A9188064BD9800D
:102B3000D2885A81E2E700BFE82200205655555559
:102B4000DC220020E6220020F0220020014B188821
:102B5000704700BFE6220020044A02EB80035B8836
:102B600032F82000181A00B2704700BFF02200208F
:102B70002DE9F8432DED028B0446FFF7EDFF0546E6
:102B8000FDF7F8FC642D30DD41EC100BECB10026B4
:102B90000027B046B946032C1FD00AF0FFFD53ECC6
:102BA000102B40464946FDF779FE32463B46FDF77D
:102BB00093FB02460B4643EC182B00220023FDF743
:102BC000B5FFA0B19FED0E8B11E011A7D7E900670B
:102BD0000FF24409D9E90089DDE711A7D7E90067B9
:102BE0000FF23409D9E90089D7E79FED078BB0EEE2
:102BF000480AF0EE680ABDEC028BBDE8F88300BF1E
:102C000000000000000000000AD7A3703D0AB73F93
:102C100090A0F831E6AEB53F666666666666E63F4A
:102C2000CBA145B6F3FDB43FF0B58BB00D48C289DA
:102C3000838944890189C5888788468800880890E7
:102C40000796361A069605970495ED1B0395029193
:102C50000194641A0094D11A034807F0E5F80BB008
:102C6000F0BD00BFF022002004DD00082DE9F8438C
:102C700004468846174699464FF48062002138463C
:102C800006F0A5F9611E8C4200D20021002426E046
:102C900004EB4012BB5C43F00103BB5416E004EBB1
:102CA0004012BB5C43F00203BB5412E04201BB5C28
:102CB00043F00403BB540EE03B5D43F008033B5577
:102CC0002846B0420ADA621C8A42E1D0451CB5426D
:102CD000E5D0002CEAD00028F2D1EDE701348C4297
:102CE00006DA08F1FF36B04500D200260020E8E7FA
:102CF0003B7843F002033B7097F8203043F0080321
:102D000087F820304FF480623946484606F051F982
:102D10003B7843F0010389F800307B7843F00403EB
:102D200089F80130BDE8F8832DE9F04F89B082467B
:102D3000934618460593179B9DF860200292012246
:102D40000A708BF800209AF800200392027000228B
:102D50000192D146DDF850A0B8E10132AA420CDA66
:102D60000C78985C8442F8D19BF800409818407A1F
:102D70008442F2D101200190EFE7019A002A40F04D
:102D8000A38199F800809BF8004004940D786A1E96
:102D9000560104EB4212013A1598825CB8F1070F14
:102DA00053D8012000FA08F0C0B21040139F97F8E2
:102DB00000E070454BD099F801C0BCF1070F56D820
:102DC000012000FA0CF0C0B21040864551D099F8AD
:102DD0000270072F60D80120B840C0B2104086456D
:102DE0005CD099F803600696072E66D80120B040A3
:102DF000C0B20240964562D0039A02F1040EBEF1C1
:102E0000FF0F01D94FF0FF0E059A1278AEEB0200CA
:102E1000864500D2002000F003009AF800E09AF8FE
:102E2000016004969AF8026007969AF8036070456C
:102E300058D0049CA04200F0B880079CA04200F04B
:102E40008E80B04260D000223FE10020ADE7601CE0
:102E5000FF2800D9FF203044169F384410F8010C99
:102E6000029FB842A7D2CDF80C800290A3E70020C1
:102E7000AAE7681CFF2800D9FF200138049F07EB50
:102E80004010169F384410F8010C029FB8429ED2A1
:102E9000CDF80CC002909AE700209FE7601E8442A4
:102EA00000D200203044169E304410F8010C029EDF
:102EB000B04296D20397029093E7002099E76A1EEA
:102EC000954200D20022013A049800EB4212169873
:102ED000024412F8012C029882428DD20698039087
:102EE000029289E7424500F08980624500F08C80BB
:102EF000BA4200F08F800698824200F091800D70F7
:102F00008BF800400022E0E00432FF2A00F2C28089
:102F1000013A504202F0030200F0030058BF42425F
:102F2000D2B2059802700C789BF8000099F8005016
:102F3000AA4200F0B18099F80150AA4200F0B28094
:102F400099F80250AA4200F0B38099F80350AA42BF
:102F500000F0B4800C708BF800000022B5E0043261
:102F6000FF2A7DD8023A504202F0030200F003002B
:102F700058BF4242D2B2059802700C789BF800000C
:102F800099F80050AA426DD099F80150AA426FD02A
:102F900099F80250AA4271D099F80350AA4273D00E
:102FA0000C708BF8000000228FE00432FF2A3DD81D
:102FB0000132FF2A00D9FF22504202F0030200F042
:102FC000030058BF4242D2B2059802700C789BF8B9
:102FD000000099F80050AA422AD099F80150AA425C
:102FE0002CD099F80250AA422ED099F80350AA4248
:102FF00030D00C708BF80000002266E00134FF2C0A
:1030000000D9FF24E4B270E70135FF2D00D9FF2578
:10301000EDB26DE7601E844200D20020C4B26AE7C0
:103020006A1E954200D20022D5B268E7FF22BFE7B0
:103030000130FF2800D9FF20C0B2CEE70134FF2CB9
:1030400000D9FF24E4B2CCE7451EA84200D20025F7
:10305000E8B2CAE7621E944200D20022D4B2C8E7A6
:10306000FF227FE70130FF2800D9FF20C0B28BE7A5
:103070000134FF2C00D9FF24E4B289E7451EA842A1
:1030800000D20025E8B287E7621E944200D20022F7
:10309000D4B285E7FF223BE70130FF2800D9FF20AB
:1030A000C0B248E70134FF2C00D9FF24E4B247E75F
:1030B000451EA84200D20025E8B246E7621E9442AF
:1030C00000D20022D4B245E701221AB9129A15782B
:1030D000002243E609B0BDE8F08F30B404789C428A
:1030E0000AD044789C420ED084789C4212D0C27898
:1030F0009A4216D030BC704714780134FF2C00D9A6
:10310000FF241470EDE70C780134FF2C00D9FF2464
:103110000C70E9E715786C1EA54200D200241470EB
:10312000E5E70A78531E9A4200D200230B70E1E7CC
:103130002DE9F04FADF5805D87B004460D460DF5E5
:10314000825108680DF582510C310F68591E8B426F
:1031500000D20021531E9A4200D2002303FB01F348
:10316000FF2B00D9FF235A1E934200D200225FFAA0
:1031700082F80DF5825310331B6883F8008000231A
:10318000B3F5806F03DA07F803800133F8E70DF534
:10319000825304331E78002209E083185B7A815C35
:1031A000013903EB4113013B0021F9540132B242D2
:1031B000F3DB43E10133A9B9B3F5806F12DAFA5CAE
:1031C000B242F7D109F101005A1CDFF884C22CF891
:1031D0001920B0F5806F02DA13468146EBE781468D
:1031E0000121E8E7B9F1000F0FDD0DF5805314332D
:1031F000C3F80090002399450ADD954A32F913106F
:10320000944A22F813100133F5E74FF00009ECE778
:103210000DF580531033C3F800900023994508DD65
:103220008C4A32F81320013A8B4921F813200133DC
:10323000F4E70DF60C030DF501620DF58051103128
:10324000854801F0EFFEDDF80CA8002203E00DF246
:103250000C418B54013252450EDA0DF5016333F8FF
:1032600012300133B3F5803F01D34FF6FF739BB2A9
:10327000FF2BECD9FF23EAE70023994507DD7549C9
:1032800031F81320013A21F813200133F5E70DF648
:103290000C030DF501620DF5805114316D48FFF7F7
:1032A00039F9DDF80C08002202E003A98B54013241
:1032B00082420EDA0DF5016333F812300133B3F5B3
:1032C000803F01D34FF6FF739BB2FF2BEDD9FF2355
:1032D000EBE7BAF1000F05DBBAF1FF0F04DD4FF0A9
:1032E000FF0A01E04FF0000A1AF0FF0F00F0A18082
:1032F0005FFA8AFE00213AE0002257E00CF1010259
:10330000FF2A00D9FF2292440AF1FF3A17F80A2057
:10331000904550D1721C07F80A20012200924AE021
:10332000002251E009F10102FF2A00D9FF22013AEF
:103330000CEB4212013A17F802A0D04549D106F130
:10334000010A07F802A00122009242E0002249E0AF
:10335000023BFA5C90454AD1721CFA540123009357
:1033600045E0002318402B78984247D00131714541
:1033700054DA94F800B003AB13F8019009F1FF336D
:103380004FEA431A0DF20C4212F801C00CEB431342
:103390000DF58252083212681A4412F8010CBBF182
:1033A000070FA9D8012202FA0BF2D2B2024095F817
:1033B00000B05A45A2D094F801A0BAF1070FAFD8D7
:1033C000012202FA0AF2D2B2024095F800A0524558
:1033D000A8D094F802A0BAF1070FB7D8012202FAD8
:1033E0000AF2D2B2024095F800A05245B0D0E2787D
:1033F000072AB6D801239340DBB2B3E7A9F102094B
:103400000CEB491C0CF1FF3C17F80C309845ADD182
:10341000731C07F80C3001230093A7E70136F6B2BE
:10342000019B4BB9B04507D301994FF000094B46BA
:10343000C1E601230193F3E7009B23B1002301932D
:103440001E460093ECE70DF5805D07B0BDE8F08FF8
:10345000082B0020083B0020082300202DE9F04F16
:10346000ADF24C4D08900B9114460C93DDF870743E
:10347000DDF874949DF87C3409939DF880340A93A8
:10348000DDF88464DDF88884DDF88CA49DF8903440
:103490000D939B4600230793FFE00023AEE100233A
:1034A000CFE10023E9E1002301E200231BE2002336
:1034B00033E200234DE2002365E2002189E200218E
:1034C000BDE20021E0E2002104E3002327E3002322
:1034D00047E300226EE3002391E301335B450EDAFC
:1034E00039781AF803209142F7D199F800100AEBC5
:1034F0000302527A9142F0D101220792EDE7079B35
:103500005BBB0DF13F03049310AB039302960D9B3D
:103510000193CDF800A00A9B099A08992046FFF76D
:1035200007FE2278072A1ED801239340DBB2725D82
:103530001A421AD199F800300133FF2B00D9FF232A
:10354000069A1344013B10AAD35C9DF83F20934296
:1035500016D28DF83F30227808E002F099FA0DF289
:103560004C4DBDE8F08F0023E1E7079A94F801C0C5
:10357000BCF1070F06D8012505FA0CF5EDB202E003
:10358000079AF3E7002599F8000039784B1E00EB05
:103590004313334413F8013C2B4210D10131FF296E
:1035A00000D9FF21013900EB4111013910AB5B5CFF
:1035B0009DF83F108B4202D28DF83F306246A578CD
:1035C000072D03D80121A940C9B200E0002199F8D4
:1035D00000003B78013B00EB4313334413F8013CFC
:1035E0000B420FD1431E984200D2002306990B4490
:1035F000013B10A9CB5C9DF83F108B4202D28DF8A5
:103600003F302A4694F803C0BCF1070F04D80120CC
:1036100000FA0CF0C0B200E0002099F800103D78EC
:103620006B1E01EB4313334413F8013C03420ED1EC
:103630006B1E9D4200D20023013B01EB4311013977
:1036400010AB595C9DF83F30994200D2624604327B
:10365000FF2A00D9FF22DDF878341B78D31A9A426A
:1036600000D200235A4203F0030302F0030258BFC2
:103670005342DBB20C9D29786A788DF83F20A878F8
:10368000ED788B4200F0D9829A4200F06583834244
:1036900000F02D83AB4200F0F58200208DF8440449
:1036A0008DF840048DF845048DF841048DF84604EA
:1036B0008DF842048DF847048DF84304FFF74CFA67
:1036C00005460320FFF748FA054405EBD5756B1056
:1036D000C84D2B800220FFF73FFAC74B188001200E
:1036E000FFF73AFAC54B1880B5F90020C44BB3F97F
:1036F00000309A420EDDDDF878341B7803F00303C6
:10370000089A52780DF589610B4403F8042CBD4BDF
:1037100001221A70DDF878341B7803F003010B9A4C
:1037200052780DF58965294401F8082CB249B1F9A0
:103730000050B549B1F900108D4214DD0133FF2B63
:1037400000D9FF23594203F0030301F0030158BFDE
:103750004B42089949780DF589652B4403F8041C00
:10376000AA4B01211970DDF8783419784B1CFF2B16
:1037700000D9FF235D4203F0030305F0030558BFA2
:103780006B420DF589652B4403F8082CA04BB3F967
:103790000030984214DDCB1CFF2B00D9FF23594287
:1037A00003F0030301F0030158BF4B420899497825
:1037B0000DF58960034403F8041C964B0121197030
:1037C000DDF878341B780333FF2B00D9FF235942EF
:1037D00003F0030301F0030158BF4B420DF589616B
:1037E0000B4403F8082C21784A1CFF2A00D9FF2239
:1037F00007293FF652AE01238B40DBB2013A0DF5AB
:1038000089610A4412F8042C03FB02F3FF2B00D950
:10381000FF233A78013A5101069199F8005005EBDF
:103820004215013DDBB2725D1343735521784A1C8A
:10383000FF2A00D9FF2207293FF631AE01238B4032
:10384000DBB2013A0DF589610A4412F8082C03FB3A
:1038500002F3FF2B00D9FF23DBB218F80520134336
:1038600008F8053061784A1CFF2A00D9FF22072991
:103870003FF617AE01238B40DBB2013A0DF58961AB
:103880000A4412F8042C03FB02F3FF2B00D9FF2398
:10389000DBB2725D1343735561784A1CFF2A00D96D
:1038A000FF2207293FF6FFAD01238B40DBB2013A2F
:1038B0000DF589610A4412F8082C03FB02F3FF2B73
:1038C00000D9FF23DBB218F80520134308F80530B0
:1038D000A1784A1CFF2A00D9FF2207293FF6E5AD4F
:1038E00001238B40DBB2013A0DF589610A4412F8DD
:1038F000042C03FB02F3FF2B00D9FF23DBB2725D24
:1039000013437355A1784A1CFF2A00D9FF220729C7
:103910003FF6CDAD01238B40DBB2013A0DF5896155
:103920000A4412F8082C03FB02F3FF2B00D9FF23F3
:10393000DBB218F80520134308F80530E1784A1C7B
:10394000FF2A00D9FF2207293FF6B3AD01238B40A0
:10395000DBB2013A0DF589610A4412F8042C03FB2D
:1039600002F3FF2B00D9FF23DBB2725D13437355C3
:10397000E1784A1CFF2A00D9FF2207293FF69BADB8
:1039800001238B40DBB2013A0DF589610A4412F83C
:10399000082C03FB02F3FF2B00D9FF23DBB218F83E
:1039A0000520134308F80530099B5A1E934200D2A4
:1039B000002299F80030934252DAA078227801323E
:1039C000FF2A00D9FF2207283FF677AD0121814069
:1039D000C9B2013A0DF58960024412F8042C01FBCA
:1039E00002F2FF2A00D9FF220133FF2B14D9FF2353
:1039F00012E000BF00230020042300200223002047
:103A0000220000203CBF0120260000203EBF0120F4
:103A1000240000203DBF012006990B44013BF15CCE
:103A2000D2B20A43F254A07822780132FF2A00D998
:103A3000FF2207283FF643AD01218140C9B2013A78
:103A40000DF58960024412F8082C01FB02F2FF2AEE
:103A500000D9FF2218F80310D2B20A4308F8032055
:103A60000A9B5A1E934200D200223B78934246DAC8
:103A7000E07862780132FF2A00D9FF2207283FF65A
:103A800020AD01218140C9B2013A0DF5896002449F
:103A900012F8042C01FB02F1FF2900D9FF210133A8
:103AA000FF2B00D9FF2399F80000013B5A0100EBDE
:103AB0004313013BF05CC9B20143F154E0786378F1
:103AC0000133FF2B00D9FF2307283FF6FCAC01216F
:103AD0008140C9B2013B0DF58960034413F8083CED
:103AE00001FB03F3FF2B00D9FF2399F800100A44D0
:103AF000013A18F80210DBB20B4308F8023099F8CB
:103B00000010012947D92078A2780132FF2A00D974
:103B1000FF2207283FF6D9AC01238340DBB2013AEC
:103B20000DF58960024412F8042C03FB02F3FF2B0D
:103B300000D9FF234A1E914200D2002206990A446E
:103B4000013AB15CDBB20B43B3542178A278013265
:103B5000FF2A00D9FF2207293FF6B9AC01238B4089
:103B6000DBB2013A0DF589610A4412F8082C03FB17
:103B700002F3FF2B00D9FF2399F800104A1E91424F
:103B800000D2002206990A44013A18F80210DBB26A
:103B90000B4308F80230397801294CD96078E37872
:103BA0000133FF2B00D9FF2307283FF692AC0122F7
:103BB0008240D2B2013B0DF58960034413F8043C06
:103BC00002FB03F2FF2A00D9FF22481E814200D2E5
:103BD000002099F80030013803EB4013013BF15C01
:103BE000D2B20A43F2546178E2780132FF2A00D956
:103BF000FF2207293FF66FAC01238B40DBB2013A6D
:103C00000DF589610A4412F8082C03FB02F3FF2B1F
:103C100000D9FF233A78511E8A4200D2002199F838
:103C20000020013902EB4112013A18F80210DBB210
:103C30000B4308F80230002350E402F029F8DDF8C5
:103C400078341A7823789A4200F0BA80DDF8783414
:103C50001A7863789A4200F0BC80DDF878341A78DC
:103C6000A3789A4200F0BC80DDF878341A78E378C3
:103C70009A427FF412AD3A78531E9A4200D2002342
:103C80003B700AE502F0EAF8DDF878341B7804337B
:103C9000FF2B00F2E480013B5A4203F0030302F0E1
:103CA000030258BF5342DBB2DDF878241370227848
:103CB000934200F0D680DDF878341A7863789A421F
:103CC00000F0D880DDF878341A78A3789A4200F0B2
:103CD000D880DDF878341A78E3789A427FF4DDAC46
:103CE0003A78531E9A4200D200233B70D5E402F08A
:103CF000E1F8DDF878341B780433FF2B00F2948070
:103D0000023B5A4203F0030302F0030258BF53423E
:103D1000DBB2DDF8782413702278934200F08680BD
:103D2000DDF878341A7863789A4200F08880DDF8FC
:103D300078341A78A3789A4200F08880DDF87834D5
:103D40001A78E3789A427FF4A8AC3A78531E9A42E4
:103D500000D200233B70A0E402F054F8DDF8783480
:103D60001B780433FF2B44D80133FF2B00D9FF23EA
:103D70005A4203F0030302F0030258BF5342DBB27E
:103D8000DDF8782413702278934234D0DDF878344B
:103D90001A7863789A4237D0DDF878341A78A378A5
:103DA0009A4238D0DDF878341A78E3789A427FF472
:103DB00074AC3A78531E9A4200D200233B706CE4F4
:103DC00099F800300133FF2B00D9FF2389F8003028
:103DD0003CE73B780133FF2B00D9FF233B703CE7E6
:103DE00099F80020531E9A4200D2002389F800302F
:103DF0003AE7FF23B8E799F800300133FF2B00D9E9
:103E0000FF2389F80030C1E73B780133FF2B00D94D
:103E1000FF233B70C0E799F80020531E9A4200D25E
:103E2000002389F80030BDE7FF2369E799F80030E7
:103E30000133FF2B00D9FF2389F8003070E73B786E
:103E40000133FF2B00D9FF233B7070E799F8002066
:103E5000531E9A4200D2002389F800306EE7FF23F8
:103E600019E799F800300133FF2B00D9FF2389F8B7
:103E7000003020E73B780133FF2B00D9FF233B7054
:103E800020E799F80020531E9A4200D2002389F8B7
:103E900000301EE72DE9F04FADF5C15D83B00D4652
:103EA000164605930DF5C25310331C780DF5C25319
:103EB00014331B780DF5C252183211680DF5C25239
:103EC0001C32D2F800900DF5C3520432D2F800B083
:103ED0005A1E934200D20022631E9C4200D200234D
:103EE00003FB02F3FF2B00D9FF235A1E934200D29B
:103EF0000022D3B203930DF5C35208321268144660
:103F00001A4623700023B3F5806F03DA0BF8032001
:103F10000133F8E7007800220AE08B185B7A8C5CAA
:103F2000013C03EB4413013B00240BF80340013236
:103F30008242F2DB002301930493CAE10133A9B961
:103F4000B3F5806F12DA1BF8032001988242F5D195
:103F5000781C5A1CC64C24F81720B0F5806F02DA82
:103F600013460746EBE707460121E8E7002F05DD8A
:103F70000DF5C15304331F60002308E00027F7E765
:103F8000BB4A32F91310BB4A22F8131001339F4287
:103F9000F6DC0DF5C1531F6000239F4209DDB54AD1
:103FA00032F81320013A0DF5815121F81320013325
:103FB000F3E70DF61C030DF502620DF5C1510DF589
:103FC000815001F02FF8DDF81C48002203E00DF2CB
:103FD0001C418B540132A2420EDA0DF5026333F814
:103FE00012300133B3F5803F01D34FF6FF739BB21C
:103FF000FF2BECD9FF23EAE700239F4207DD9D4911
:1040000031F81320013A21F813200133F5E70DF6BA
:104010001C030DF502620DF5C15104319548FEF700
:1040200079FADDF81C08002202E007A98B5401325E
:1040300082420EDA0DF5026333F812300133B3F524
:10404000803F01D34FF6FF739BB2FF2BEDD9FF23C7
:10405000EBE7002102940DF5C3530433C3F800B01D
:10406000DDF814B057E0002219F80CE01EEA020F48
:1040700014BF4FF001084FF0000896F800E0F0453B
:1040800066D06A78072A00F28F804FF0010C0CFA94
:1040900002FC5FFA8CFC5A1E19F802E01EEA0C0FB3
:1040A00014BF4FF001084FF0000896F800E0F0450B
:1040B0007DD095F802C0BCF1070F00F2AC804FF044
:1040C000010E0EFA0CFC5FFA8CFC19F802E01EEAF5
:1040D0000C0F14BF4FF001084FF0000896F800E0F5
:1040E000F04500F09B80EB78072B00F2BF804FF08B
:1040F000010C0CFA03F3DBB219F802C01CEA030F3F
:1041000014BF4FF0010E4FF0000E96F800C0E645C8
:1041100000F0B2800131029B994280F2D1802A786E
:10412000481C80B2013807AB1F5C7B1E4FEA431A64
:104130000DF21C4C1CF8000000EB431303F1FF3C94
:10414000072A90D84FF0010E0EFA02F2D2B28BE796
:104150000DF5C354246814F80CC01CEA020F14BFF8
:104160004FF0010C4FF0000C9BF80120944588D1D2
:10417000421CFF2A00D9FF2292440AF1FF3A0DF5B2
:10418000C3520432126812F80A20039C94427FF44E
:1041900078AF019A01320DF5C3540434246804F851
:1041A0000A20012204926CE74FF0000C73E70DF532
:1041B000C354246814F802E01EEA0C0F14BF4FF039
:1041C000010E4FF0000E9BF801C0E6457FF471AF81
:1041D00007F1010CBCF1FF0F01D94FF0FF0C0CF1FE
:1041E000FF3C00EB4C1C0CF1FF3C0DF5C3540434B8
:1041F000246814F80CE0039C74457FF45AAF019CCA
:1042000004F1010E0DF5C3540434246804F80CE0E5
:10421000012404944DE74FF0000C56E70DF5C3540C
:10422000246814F802E01EEA0C0F14BF4FF0010ED0
:104230004FF0000E9BF801C0E6457FF454AF023BFF
:104240000DF5C3540434246814F803C0039C64457A
:104250007FF449AF019C04F1010C0DF5C354043403
:10426000246804F803C0012304933CE7002343E7D8
:1042700008330020084300200DF5C3542468A25CD5
:104280001A4214BF012200229BF801309A427FF4A7
:1042900041AF023F00EB471001380DF5C353043323
:1042A0001B681B5C039A9A427FF434AF019B013375
:1042B0000DF5C3520432126813540123049329E705
:1042C0000DF5C3530433D3F800B0019B0133DBB2C7
:1042D00001930DF5C35308331B681B78019A934271
:1042E00003D300210F460B4629E6049B002B7FF4E5
:1042F00021AE0DF5C15D03B0BDE8F08F2DE9F04FA3
:10430000ADF2644D07460D4690469946DDF8884467
:104310009DF88C649DF890A48DF85C640023864A17
:104320001370864A1370864A1370112B07DC0DF543
:104330008C621A44002102F8181C0133F5E70022B0
:104340008DF8442401238DF8453402208DF846046D
:1043500003218DF847148DF840248DF841348DF8F1
:1043600042048DF843148DF83C248DF83D348DF8CB
:1043700038248DF83934BAF1000F07D0BAF1010FA3
:1043800000F0AB800DF2644DBDE8F08F01F010FB42
:1043900001238DF834340DF1300B8DF830300023CB
:1043A0005A460DF234410DF24440FEF796FE01F0FC
:1043B0006FFC9DF844240BAB8DF82C2008960794D5
:1043C00006950597CDF81090CDF80C800293CDF8A6
:1043D00004B00DF2344300930DF588630DF24442AE
:1043E0000DF587610DF23C40FFF738F84FF47A7015
:1043F00004F0AAFB3CE08DF848C48DF8510401217B
:104400008DF8331089B996420FDD02F10903E05CA3
:1044100014F802C00CF1FF3300EB43132B4413F8E4
:10442000013C0F2BE7D10132ECE79DF83330012B33
:1044300023D1444B00221A70012308930DF58963A0
:10444000079306950597CDF81090CDF80C800BAB2F
:1044500002930CAB01930DF2344300930DF5886386
:104460000DF244420DF587610DF23C40FEF7F6FF78
:1044700000228DF833201146C4E74FF47A7004F01F
:1044800063FB01238DF848348DF851342D4A002107
:10449000117008930DF58963079306950597CDF87C
:1044A0001090CDF80C800BAB02930CAB01930DF286
:1044B000344300930DF588630DF244420DF5876196
:1044C0000DF23C40FEF7CAFF01F0FAFB01F0B0FB31
:1044D000BEEE000A01F030FA50E70DF23C4A0DF151
:1044E000330BCDF818B00DAE0596049503970294E2
:1044F000CDF80490CDF800800DF5876352460DF29B
:1045000044410DF25C40FFF7C5FC9BF80030069378
:104510000594049603970DF588630293CDF804A0E3
:104520000DF25C4300930BAB0CAA0DF234410DF27B
:104530004440FEF7F9FB25E73CBF01203EBF0120C8
:104540003DBF0120CDB20120014B1878704700BF5C
:104550000B4B0020014B1878704700BF094B00201F
:10456000014B1870704700BF094B002010B5FDF7D4
:1045700075F8B5EE400AF1EE10FAF8D1FDF786F8BD
:10458000C82004F0E1FAFDF76FF8DFED827AB4EEAF
:10459000E70AF1EE10FA03DD7F4A13780133137056
:1045A000FDF768F8DFED7D7AB4EEE70AF1EE10FA78
:1045B00003D5794A1378013B1370774A137803F0D7
:1045C0000F031370764A1278934211D00F2B0FD835
:1045D000DFE803F0081523313F4D5B69778593A130
:1045E000AFBDCBD900224FF464516E4803F09CFF5D
:1045F000694B18786A4B1870FFF7B2FF10BD694C11
:1046000000224FF4C851204603F08EFF01224FF4E0
:104610000051204603F088FFEAE7624C00224FF485
:104620002451204603F080FF01224FF480512046A0
:1046300003F07AFFDCE75B4C00224FF41061204668
:1046400003F072FF01224FF44051204603F06CFF4B
:10465000CEE7544C00224FF44451204603F064FF4F
:1046600001224FF40061204603F05EFFC0E74D4C8D
:1046700000224FF48851204603F056FF01224FF4E8
:104680002051204603F050FFB2E7464C00224FF481
:104690000451204603F048FF01224FF4C051204648
:1046A00003F042FFA4E73F4C00224FF48071204604
:1046B00003F03AFF01224FF46051204603F034FF2B
:1046C00096E7384C00224FF46051204603F02CFF4F
:1046D00001224FF48071204603F026FF88E7314C19
:1046E00000224FF4C051204603F01EFF01224FF478
:1046F0000451204603F018FF7AE72A4C00224FF4B9
:104700002051204603F010FF01224FF4885120462B
:1047100003F00AFF6CE7234C00224FF400612046AF
:1047200003F002FF01224FF44451204603F0FCFE47
:104730005EE71C4C00224FF44051204603F0F4FE8B
:1047400001224FF41061204603F0EEFE50E7154CB5
:1047500000224FF48051204603F0E6FE01224FF480
:104760002451204603F0E0FE42E70E4C00224FF4B5
:104770000051204603F0D8FE01224FF4C8512046D4
:1047800003F0D2FE34E701224FF46451054803F0F0
:10479000CBFE2DE7CDCCCC3D084B0020CDCCCCBD05
:1047A0000A4B00200000024008B5FCF769FFDFED6E
:1047B000057AB4EEE70AF1EE10FA01DD012008BD3A
:1047C0000020FCE7CDCCCC3D08B50320FEF7C4F9B2
:1047D00040F2DB539842F8DD4FF4FA7004F0B4F97C
:1047E000014B01221A7008BD0B4B002038B5002385
:1047F0001D4A13701D4A13701D4A1370FEF752F9BB
:10480000194B1B7883B9FFF7B1FEFFF7CDFF164CAC
:104810002070FFF7C9FF0146164805F005FB217817
:10482000154805F001FBEBE7002415E0134D0122CC
:104830004FF46451284603F077FE4FF42F7004F0D4
:1048400083F900224FF46451284603F06DFE4FF4C3
:10485000967004F079F90134012CE7DDFEF7EEF8EB
:10486000FFF7B2FF38BD00BF0C4B00200B4B002000
:10487000084B00204CDD000858DD00080000024015
:10488000014B00221A8070470E4B002010B5494B97
:104890001A88494CA4FB023441F287339A4209D862
:1048A000A40804EB8403D31A9BB223B1414A1388B2
:1048B0000133138010BD07EE902AF8EE677A3F4B64
:1048C0005C2202FB0434C4ED007A3D4B1B6863603C
:1048D0003C4B1B68A3603C4B1B68E3603B4B1B6875
:1048E00023613B4B1B6863613A4B1B68A361FDF777
:1048F0002FFF84ED070A384B1B682362374B1B6878
:104900006362374B1B68A362364B1B68E362364B0E
:104910001B682363FDF738FF84ED0D0A334BB3F9B1
:10492000003007EE903AF8EEE77AC4ED0E7A304B9D
:10493000B3F9003007EE903AF8EEE77AC4ED0F7A5B
:104940000320FEF709F907EE900AF8EEE77AC4EDC6
:10495000107A0020FEF700F907EE900AF8EEE77AE9
:10496000C4ED117A0220FEF7F7F807EE900AF8EE90
:10497000E77AC4ED127A0120FEF7EEF807EE900A0E
:10498000F8EEE77AC4ED137A0320FEF7F1F851EC64
:10499000100BFCF751F920650020FEF7E9F851EC07
:1049A000100BFCF749F96065FDF7CAFC84ED160AA7
:1049B0007CE700BF0E4B0020CDCCCCCC104B0020B0
:1049C000E4B2012080B20120C4B20120ECB2012087
:1049D000A00200209C02002098020020E8B20120E2
:1049E00084B20120C8B20120F4B2012042BF0120EC
:1049F00040BF012070B5664805F016FA0026B6F5EE
:104A00007A7F80F0C380634B5C2404FB063420680B
:104A1000FBF7C2FD02460B465F4D284605F004FA3F
:104A20006068FBF7B9FD02460B46284605F0FCF925
:104A3000A068FBF7B1FD02460B46284605F0F4F9E5
:104A4000E068FBF7A9FD02460B46284605F0ECF9A5
:104A50002069FBF7A1FD02460B46284605F0E4F964
:104A60006069FBF799FD02460B46284605F0DCF924
:104A7000A069FBF791FD02460B46284605F0D4F9E4
:104A8000E069FBF789FD02460B46284605F0CCF9A4
:104A9000206AFBF781FD02460B46284605F0C4F963
:104AA000606AFBF779FD02460B46284605F0BCF923
:104AB000A06AFBF771FD02460B46284605F0B4F9E3
:104AC000E06AFBF769FD02460B46284605F0ACF9A3
:104AD000206BFBF761FD02460B46284605F0A4F962
:104AE000606BFBF759FD02460B46284605F09CF922
:104AF000A06BFBF751FD02460B46284605F094F9E2
:104B0000E06BFBF749FD02460B46284605F08CF9A1
:104B1000206CFBF741FD02460B46284605F084F960
:104B2000606CFBF739FD02460B46284605F07CF920
:104B3000A06CFBF731FD02460B46284605F074F9E0
:104B4000E06CFBF729FD02460B46284605F06CF9A0
:104B5000206DFBF721FD02460B46284605F064F95F
:104B6000606DFBF719FD02460B46284605F05CF91F
:104B7000A06DFBF711FD02460B46084805F054F9FD
:104B8000074805F0D7F90136B6B238E770BD00BF67
:104B90006CDD0008104B0020B4DE0008B8DE000811
:104BA000BCDE0008000000002DE9F04F2DED028B67
:104BB0002DED02AB85B0FDF719FCFDF71FFC0024BD
:104BC0003CE00320FDF7D4FF53EC102B94A1D1E976
:104BD0000001FBF781FB029001F10043039300E128
:104BE0000020FDF7C5FF53EC102B8FA1D1E9000188
:104BF000FBF772FB804601F10049CDE90089DDE950
:104C000002238B4805F010F90B34A4B2002000F009
:104C100045F9002000F0A4F9864B1B68986804F061
:104C200099F84FF4FA7003F08FFF1B21824805F0CA
:104C3000FBF822461B21814805F0F6F8FDF7B2FE8D
:104C400010EE100AFBF7A8FC02460B467C4805F064
:104C5000EBF8FDF79BFE07EE900AF8EE677AB2EEEE
:104C6000048A87EE88AAFDF797FE07EE900AF8EE11
:104C7000677AC7EE888A1AEE100AFBF78DFC0646A3
:104C80000F4618EE900AFBF787FCCDE9000132468B
:104C90003B466C4805F0C8F84FF0000A4FF0000B97
:104CA000CDE900AB52465B46674805F0BDF8FDF71D
:104CB000BDFBDFED66AAC0EE2A8A9FED65AA68EE0D
:104CC0008A8AFDF7CBFB80EE2A8A28EE0A8A18EE44
:104CD000900AFBF761FC06460F4618EE100AFBF738
:104CE0005BFCCDE9000132463B465A4805F09CF892
:104CF000594B1868FBF750FC06460F46FDF744FD7C
:104D000010EE100AFBF748FCCDE9000132463B46A5
:104D1000524805F089F8FDF713FB10EE100AFBF777
:104D20003BFC02460B464E4805F07EF80320FDF79B
:104D300013FF05460220FDF70FFF06460120FDF791
:104D40000BFF07460020FDF707FF00903B46324669
:104D50002946444805F068F8FDF766FF0320FDF793
:104D600007FF57EC106B0020FDF702FF8DED000BE5
:104D700032463B463C4805F057F8FDF7E9FC10EE9B
:104D8000106AFDF701FD10EE105A3046FBF704FCE7
:104D900006460F462846FBF7FFFBCDE900013246E9
:104DA0003B46324805F040F80320FDF7E1FE53ECA6
:104DB000102B1BA1D1E90001FBF78EFA52465B468E
:104DC000FBF7B4FE00287FF4FCAE0320FDF7D0FE15
:104DD00053EC102B12A1D1E90001FBF77DFACDE9CC
:104DE00002010020FDF7C4FE53EC102B0EA1D1E907
:104DF0000001FBF771FA00220023FBF797FE002861
:104E00007FF4EEAE0020FDF7B3FE53EC102B06A1AD
:104E1000D1E90001FBF760FA80468946EDE600BF64
:104E2000000000E04F8D873F00000060BC74833FAE
:104E300060E000083000002090E0000898E00008E2
:104E4000C0DE0008D8DE000804DF0008DA0F4940A1
:104E50000000344330DF0008A00200205CDF0008BF
:104E60009CDF0008B4DF0008F8DF00082CE0000831
:104E700010B5094C0021204602F0E4FB0421204635
:104E800002F0E0FB0821204602F0DCFB0C2120466A
:104E900002F0D8FB10BD00BF28BD012010B50446AC
:104EA0002B4B188080EAE073A3EBE0739BB240F2D7
:104EB000B632934218D81D2B27D803F07BF843094C
:104EC0002448A0FB0323DB09C3EB03135B00224A46
:104ED000A2FB03239B09013B002C2ADD1F4A126819
:104EE00093630023536310BD03F064F84009194B2A
:104EF000A3FB0023D80940F2B63303FB00F3164AA4
:104F0000A2FB03239B09013BE6E703F053F84009AA
:104F1000104BA3FB0023D809002C08DB234603FB1E
:104F200000F30D4AA2FB03239B09013BD4E7634234
:104F3000F5E7002C05DB094B1B6800229A635A63D6
:104F4000D1E7064A1268002191635363CBE700BFA3
:104F500040BF0120C55A7C0AD34D621028BD0120F4
:104F600010B504462B4B188080EAE073A3EBE07386
:104F70009BB240F2B632934218D81D2B27D803F0CB
:104F800019F843092448A0FB0323DB09C3EB0313EF
:104F90005B00224AA2FB03239B09013B002C2ADD74
:104FA0001F4A1268D3630023136410BD03F002F894
:104FB0004009194BA3FB0023D80940F2B63303FB89
:104FC00000F3164AA2FB03239B09013BE6E702F02C
:104FD000F1FF4009104BA3FB0023D809002C08DB8C
:104FE000234603FB00F30D4AA2FB03239B09013B6D
:104FF000D4E76342F5E7002C05DB094B1B68002270
:10500000DA631A64D1E7064A12680021D163136497
:10501000CBE700BF42BF0120C55A7C0AD34D6210C6
:1050200028BD012010B4B1F900401C60B1F9004066
:105030000023A34207DA30F8131001F01F0122F811
:1050400013100133F5E75DF8044B704770B50C465B
:1050500016460025B54207DAFDF7A8F9214601F802
:10506000010B01350C46F5E7304670BD70B50C46B6
:1050700016460025B54205DA14F8010BFDF786F94E
:105080000135F7E7304670BD4FF0FF3070474FF401
:1050900000534B600020704701207047002070478C
:1050A00008B503460B4A126842B10A4A1068034425
:1050B0006A46934206D8074A136008BD054A064966
:1050C0001160F2E703F07EFD0C2303604FF0FF3028
:1050D000F3E700BF70B2012058BF012000000000BC
:1050E00070B50D4B1868FBF757FA09A3D3E90023F5
:1050F000FBF7AAFA04460D46084E3068FBF74CFA57
:1051000022462B46FBF7EAF8FBF796FD306070BDB0
:10511000FCA9F1D24D62503F9C020020C4B2012094
:1051200070B5FDF731FB10EE100AFBF735FA0BA353
:10513000D3E90023FBF788FA04460D46064E306893
:10514000FBF72AFA22462B46FBF7C8F8FBF774FD5B
:10515000306070BDAFF30080C8B20120FCA9F1D26D
:105160004D62503F0000000070B52DED028B604B8A
:105170001868FBF711FA5CA3D3E90023FBF764FA84
:1051800004460D465B4E3068FBF706FA22462B4676
:10519000FBF7A4F8FBF750FD08EE100A3060564B01
:1051A0001868FBF7F9F950A3D3E90023FBF74CFA91
:1051B00004460D46514E3068FBF7EEF922462B4669
:1051C000FBF78CF8FBF738FD07EE900A30604C4B8C
:1051D0001B78002B36D0012B48D04A4B1B78002B74
:1051E00058D0012B6AD0434B1868FBF7D5F93EA382
:1051F000D3E90023FBF728FA04460D46424E3068F7
:10520000FBF7CAF922462B46FBF768F8FBF714FDBB
:1052100030603A4B1868FBF7BFF933A3D3E900239A
:10522000FBF712FA04460D46384E3068FBF7B4F926
:1052300022462B46FBF752F8FBF7FEFC3060BDEC34
:10524000028B70BDB5EEC08AF1EE10FA0AD49FED64
:10525000307AB4EEC78AF1EE10FABEDD254B83ED4D
:10526000007ABAE7234B00221A60B6E7B5EEC08A8F
:10527000F1EE10FA03DD1F4B00221A60ADE79FED3F
:10528000257AB4EEC78AF1EE10FAA6D5194B83ED54
:10529000007AA2E7F5EEC07AF1EE10FA0AD49FED9B
:1052A0001E7AF4EEC77AF1EE10FA9CDD134B83ED13
:1052B000007A98E7114B00221A6094E7F5EEC07A65
:1052C000F1EE10FA03DD0D4B00221A608BE79FED23
:1052D000137AF4EEC77AF1EE10FA84D5074B83ED1A
:1052E000007A80E7AFF30080FCA9F1D24D62503F15
:1052F00078B20120ECB201207CB20120F4B201208E
:10530000B8B20120CCB2012080B2012084B20120C9
:105310009A99993E9A9999BEDA0FC940DA0FC9C095
:10532000294BD3ED007A294B93ED007A284B93ED6E
:10533000006A284BD3ED006A274B1B782BB1012B59
:105340000AD00023254A13607047254B1B788BB386
:10535000012B32D1234BF5E7214B1B781BB1012BDD
:1053600015D00023EEE767EEA77A27EE077A77EEEF
:10537000C77AF0EE085A87EEA57A76EEC76AF4EEA1
:10538000C66AF1EE10FA1ADD4FF07F53DAE767EEE6
:10539000A77A27EE077A77EEC77AF0EE085A87EEFB
:1053A000A57A76EE876AF4EEC66AF1EE10FA08D5B1
:1053B0000C4BC7E74FF07F53C4E70023C2E7094B0C
:1053C000C0E74FF07F53BDE7ECB20120F0B20120FF
:1053D00080B20120E4B2012074B2012078B2012031
:1053E000B8B201200000C0BF38B52DED028B2E4BA6
:1053F00018682E4BD3ED008A2D4B93ED008A2D4B70
:105400001B783BB1012B25D000232B4A1360BDEC48
:10541000028B38BDFBF7C0F804460D460022274B2F
:10542000FBF712F902460B4620462946FBF70CF91A
:105430001BA3D3E90023FBF731FAFBF7FDFB07EED3
:10544000900A38EE678AB4EEE88AF1EE10FA21DDB0
:105450001B4BDAE7FBF7A0F804460D460022174B7A
:10546000FBF7F2F802460B4620462946FBF7ECF81C
:105470000BA3D3E90023FBF711FAFBF7DDFB07EEE3
:10548000900A38EE278AB4EEE88AF1EE10FA03D5D6
:105490000C4BBAE70B4BB8E7094BB6E7AFF300800C
:1054A00000000040FB211940F4B2012084B2012029
:1054B000E8B20120CCB201207CB201200000E03F24
:1054C000DA0FC940DA0FC9C02DE9F04F2DED088B76
:1054D00085B06B4B1B78002B4FD0694B1B78012B91
:1054E00000F0F280674B93ED008AFCF729FFC8EECD
:1054F000007A9FED658A67EE887A644CC4ED007A85
:10550000634BD3ED008AFCF71BFFC8EE807A67EE91
:10551000887A94ED007AB5EEC07AF1EE10FA40F395
:10552000AB81DFED5C6A37EE267A84ED007AF5EE2A
:10553000C07AF1EE10FA40F3A7819FED567A77EE2C
:10554000877A554BC3ED007A534BD3ED007AFDEECD
:10555000E77A17EE903A18B2FFF7A0FC4B4BD3ED69
:10556000007AFDEEE77A17EE903A18B2FFF7F8FCF2
:1055700005B0BDEC088BBDE8F08F484BD3ED007A49
:10558000474B93ED007A77EEC77A464CC4ED007A2C
:10559000454B93ED009AFDF7F7F839EE409AD4EDBC
:1055A000009A19EE900AFAF7F7FF2FA3D3E9002328
:1055B000FBF74AF804460D463C4E3068FAF7ECFF1C
:1055C00022462B46FAF78AFEFBF736FB08EE100A56
:1055D000306019EE100AFAF7DFFF25A3D3E90023A4
:1055E000FBF732F804460D46314E3068FAF7D4FF27
:1055F00022462B46FAF772FEFBF71EFB08EE900AD6
:1056000030602C4DD5ED007A79EE677A9FED2A7ADD
:1056100067EE877A294C94ED007A77EE877A17EE59
:10562000900AFAF7B9FF14A3D3E90023FBF736F980
:10563000FBF702FBDFED227A69EEA79A38EE298AA2
:10564000DFED207A69EE277A78EEA78A78EE287A5D
:1056500038EE688A0B4BC3ED007A0D4B83ED008A60
:1056600085ED009A206038E78B6CE7FBB935A43FE5
:10567000FCA9F1D23DC9823F5839B4C87652F33FF4
:1056800075B20120FCB2012000007A44C0B20120B2
:10569000F8B2012000002042BCB20120ECB201208F
:1056A0009C020020D0B20120F4B20120D4B201202B
:1056B000DCB20120E0B2012000000000D8B20120DD
:1056C000D1222B40AD2FB23E0020FDF751FA57EC0E
:1056D000106B0320FDF74CFA55EC104B84A3D3E973
:1056E000002330463946FAF7F7FD06460F4682A3F7
:1056F000D3E9002320462946FAF7EEFD04460D467D
:1057000002460B4630463946FAF7E8FD80468946A0
:1057100032463B4620462946FAF7DEFD78A3D3E918
:105720000023FBF7BBF806460F4677A3D3E9002317
:1057300040464946FAF788FF654CD4E90023FAF75A
:10574000CDFD41EC1B0BC4E9000153A3D3E90023B9
:1057500030463946FAF778FF5E4CD4E90023FAF771
:10576000BDFD41EC1A0BC4E900014DA3D3E90023B0
:1057700040464946FAF768FF04460D464AA3D3E976
:10578000002330463946FAF75FFFCDE90201DFF822
:1057900080B1DBE90023CDE9008940464946FAF7AC
:1057A0009BFD43A3D3E90023FAF74EFFDFF8649192
:1057B000D9E90023FAF792FD3FA3D3E90023FBF7D1
:1057C0006DF841EC190BDFF850A1DAE900233046FF
:1057D0003946FAF781FD3AA3D3E90023FAF734FFFB
:1057E000DFF83881D8E90023FAF778FD36A3D3E94A
:1057F0000023FBF753F841EC180B22462B4651ECE3
:105800001B0BFAF76BFD53EC192BFAF767FD0446F7
:105810000D46DDE9022351EC1A0BFAF75FFD53EC5C
:10582000182BFAF75BFDCDE9020102460B46204634
:105830002946FAF753FD0022274BFAF705FFFBF73D
:10584000FBF9264B1860DDE9022320462946FAF7CA
:1058500043FD0022204BFAF7F7FEFBF7EDF9204B52
:1058600018609DED007B8BED007BCAE9006789ED38
:10587000009B88ED008B35E6DFED1A6A37EE667A1D
:10588000194B83ED007A52E69FED167A77EEC77AD0
:10589000164BC3ED007A57E660E5D0229BA5643F26
:1058A00000000000631A5F40000000E08A9E19407B
:1058B00000000060A2AB5340C1CAA1852062F03F46
:1058C00000000000236C22407368916D81B6F03FA8
:1058D00090B20120A8B201200000E03FFCB20120FC
:1058E000F8B2012000003442C0B20120BCB2012055
:1058F00000000060BC74833F000000E04F8D873FD4
:10590000000000E0BED5A23F08AC1C5AD4DF9A3F8D
:1059100098B2012088B20120B0B20120A0B20120CB
:10592000014B00221A607047C4B20120014B0022D3
:105930001A607047C8B20120034BD3ED007A77EEAE
:10594000807AC3ED007A7047E4B20120034BD3EDB7
:10595000007A77EE807AC3ED007A7047E8B20120D2
:10596000014B00221A607047E4B20120014B002273
:105970001A607047E8B20120014B00221A6070479C
:1059800080B20120014B00221A60704784B20120CE
:105990000023034A1370034A1370034A13707047BD
:1059A0003CBF01203EBF01203DBF012000000000A0
:1059B00008B50023144A1370144A13709FED140A9B
:1059C000FFF7BAFF0BE0F1EE677A17EE900AFAF7ED
:1059D000E3FD0BA3D3E90023FBF7A8F868B90D4B4F
:1059E000D3ED007A0C4B93ED007A77EEC77AF5EEA3
:1059F000C07AF1EE10FAE8D5E5E708BDAFF3008014
:105A00002D431CEBE2362A3FB8B2012074B20120CC
:105A100022727A3CE4B2012080B201200000000032
:105A200008B50023144A1370144A13709FED140A2A
:105A3000FFF782FF0BE0F1EE677A17EE900AFAF7B4
:105A4000ABFD0BA3D3E90023FBF770F868B90D4B4E
:105A5000D3ED007A0C4B93ED007A77EEC77AF5EE32
:105A6000C07AF1EE10FAE8D5E5E708BDAFF30080A3
:105A70002D431CEBE2362A3FB8B2012074B201205C
:105A8000EC51383DE4B2012080B20120000000005A
:105A900008B5154B00221A70144B01221A709FEDA5
:105AA000140AFFF749FF0BE0F1EE677A17EE900A50
:105AB000FAF772FD0AA3D3E90023FBF737F868B9B8
:105AC0000C4BD3ED007A0C4B93ED007A77EEC77A4E
:105AD000F5EEC07AF1EE10FAE8D5E5E708BD00BFB3
