:020000040800F2
:1000000000000520E18B0008B51F0008B71F00089D
:10001000B91F0008BB1F0008BD1F0008000000003A
:10002000000000000000000000000000BF1F0008EA
:10003000C11F000800000000C31F0008C51F000802
:10004000318C0008318C0008318C0008318C00089C
:10005000318C0008318C0008318C0008318C00088C
:10006000318C0008318C0008318C0008318C00087C
:10007000318C0008318C0008CD1F0008DD1F0008FE
:10008000318C0008318C0008318C0008318C00085C
:10009000318C0008318C0008318C0008318C00084C
:1000A000318C0008318C0008318C0008318C00083C
:1000B000318C0008318C0008318C0008318C00082C
:1000C000318C0008318C0008318C0008318C00081C
:1000D000318C0008318C0008318C0008318C00080C
:1000E000318C0008318C0008318C0008318C0008FC
:1000F000318C0008318C0008318C0008318C0008EC
:10010000318C0008318C0008318C0008318C0008DB
:10011000318C0008318C0008ED1F0008318C00087C
:10012000092000081920000829200008318C000847
:10013000318C0008318C0008318C0008318C0008AB
:10014000318C0008318C0008318C0008318C00089B
:10015000318C0008318C0008318C0008318C00088B
:10016000318C0008318C0008318C0008318C00087B
:10017000318C0008318C00080000000000000000F5
:10018000318C0008318C0008318C0008318C00085B
:10019000318C0008318C000800000000318C000810
:1001A000318C0008318C00080000000000000000C5
:1001B000318C00080000000000000000318C0008B5
:1001C000318C0008318C0008318C0008318C00081B
:0801D000318C0008318C00089D
:1001E00010B5054C237833B9044B13B10448AFF371
:1001F00000800123237010BD0802002000000000D1
:1002000034DD000808B5034B1BB103490348AFF3C5
:10021000008008BD000000000C02002034DD000852
:10022000034613F8012B002AFBD1181A0138704736
:1002300001F0FF01102A2BDB10F0070F08D010F897
:10024000013B013A8B422DD010F0070F42B3F6D19B
:10025000F0B441EA012141EA014122F007047FF0B4
:1002600000070023F0E80256083C85EA010586EA0B
:10027000010685FA47F5A3FA87F586FA47F6A5FA47
:1002800087F68EB9EED1F0BC01F0FF0102F0070253
:1002900032B110F8013B013A83EA010313B1F8D1FE
:1002A0000020704701387047002D06BF35460338DF
:1002B000073815F0010F07D1013015F4807F02BF18
:1002C000013015F4C03F0130F0BC0138704700BF69
:1002D00081F0004102E000BF83F0004330B54FEAF7
:1002E00041044FEA430594EA050F08BF90EA020F64
:1002F0001FBF54EA000C55EA020C7FEA645C7FEAF7
:10030000655C00F0E2804FEA5454D4EB5555B8BF19
:100310006D420CDD2C4480EA020281EA030382EA8A
:10032000000083EA010180EA020281EA0303362D1C
:1003300088BF30BD11F0004F4FEA01314FF4801CEF
:100340004CEA113102D0404261EB410113F0004F01
:100350004FEA03334CEA133302D0524263EB4303B8
:1003600094EA050F00F0A780A4F10104D5F1200E56
:100370000DDB02FA0EFC22FA05F2801841F10001B1
:1003800003FA0EF2801843FA05F359410EE0A5F185
:1003900020050EF1200E012A03FA0EFC28BF4CF0B6
:1003A000020C43FA05F3C01851EBE37101F000456C
:1003B00007D54FF0000EDCF1000C7EEB00006EEB79
:1003C0000101B1F5801F1BD3B1F5001F0CD3490803
:1003D0005FEA30004FEA3C0C04F101044FEA44525A
:1003E00012F5800F80F09A80BCF1004F08BF5FEAE1
:1003F000500C50F1000041EB045141EA050130BDC1
:100400005FEA4C0C404141EB0101013C28BFB1F5D2
:10041000801FE9D291F0000F04BF01460020B1FA1D
:1004200081F308BF2033A3F10B03B3F120020CDAF0
:100430000C3208DD02F1140CC2F10C0201FA0CF0CE
:1004400021FA02F10CE002F11402D8BFC2F1200C33
:1004500001FA02F120FA0CFCDCBF41EA0C019040E9
:10046000E41AA2BF01EB0451294330BD6FEA040432
:100470001F3C1CDA0C340EDC04F11404C4F120021D
:1004800020FA04F001FA02F340EA030021FA04F32F
:1004900045EA030130BDC4F10C04C4F1200220FA86
:1004A00002F001FA04F340EA0300294630BD21FAC4
:1004B00004F0294630BD94F0000F83F4801306BF8A
:1004C00081F480110134013D4EE77FEA645C18BF7E
:1004D0007FEA655C29D094EA050F08BF90EA020F15
:1004E00005D054EA000C04BF1946104630BD91EA0D
:1004F000030F1EBF0021002030BD5FEA545C05D110
:100500004000494128BF41F0004130BD14F580044E
:100510003CBF01F5801130BD01F0004545F0FE41C2
:1005200041F470014FF0000030BD7FEA645C1ABFF7
:10053000194610467FEA655C1CBF0B46024650EA2E
:10054000013406BF52EA033591EA030F41F400215A
:1005500030BD00BF90F0000F04BF0021704730B5E0
:100560004FF4806404F132044FF000054FF00001B5
:1005700050E700BF90F0000F04BF0021704730B576
:100580004FF4806404F1320410F0004548BF40424B
:100590004FF000013EE700BF42004FEAE2014FEAA0
:1005A00031014FEA02701FBF12F07F4393F07F4F7B
:1005B00081F06051704732F07F4208BF704793F07E
:1005C0007F4F04BF41F40021704730B54FF4607491
:1005D00001F0004521F000411CE700BF50EA010294
:1005E00008BF704730B54FF000050AE050EA01023D
:1005F00008BF704730B511F0004502D5404261EBAD
:1006000041014FF4806404F132045FEA915C3FF4ED
:10061000D8AE4FF003025FEADC0C18BF03325FEA8A
:10062000DC0C18BF033202EBDC02C2F1200300FA3B
:1006300003FC20FA02F001FA03FE40EA0E0021FA60
:1006400002F11444BDE600BF70B54FF0FF0C4CF44E
:10065000E06C1CEA11541DBF1CEA135594EA0C0F00
:1006600095EA0C0F00F0DEF82C4481EA030621EA3B
:100670004C5123EA4C5350EA013518BF52EA033576
:1006800041F4801143F4801338D0A0FB02CE4FF028
:100690000005E1FB02E506F00042E0FB03E54FF058
:1006A0000006E1FB03569CF0000F18BF4EF0010E50
:1006B000A4F1FF04B6F5007F64F5407404D25FEA4C
:1006C0004E0E6D4146EB060642EAC62141EA5551FF
:1006D0004FEAC52040EA5E504FEACE2EB4F1FD0C41
:1006E00088BFBCF5E06F1ED8BEF1004F08BF5FEABF
:1006F000500E50F1000041EB045170BD06F0004671
:1007000046EA010140EA020081EA0301B4EB5C041D
:10071000C2BFD4EB0C0541EA045170BD41F4801115
:100720004FF0000E013C00F3AB8014F1360FDEBF3A
:10073000002001F0004170BDC4F10004203C35DA16
:100740000C341BDC04F11404C4F1200500FA05F399
:1007500020FA04F001FA05F240EA020001F000423A
:1007600021F0004110EBD37021FA04F642EB0601B0
:100770005EEA430E08BF20EAD37070BDC4F10C04DA
:10078000C4F1200500FA04F320FA05F001FA04F29E
:1007900040EA020001F0004110EBD37041F100018A
:1007A0005EEA430E08BF20EAD37070BDC4F1200595
:1007B00000FA05F24EEA020E20FA04F301FA05F2FD
:1007C00043EA020321FA04F001F0004121FA04F2A5
:1007D00020EA020000EBD3705EEA430E08BF20EA75
:1007E000D37070BD94F0000F0FD101F000464000AF
:1007F00041EB010111F4801F08BF013CF7D041EA31
:10080000060195F0000F18BF704703F00046520034
:1008100043EB030313F4801F08BF013DF7D043EA05
:100820000603704794EA0C0F0CEA135518BF95EABB
:100830000C0F0CD050EA410618BF52EA4306D1D142
:1008400081EA030101F000414FF0000070BD50EA61
:10085000410606BF1046194652EA430619D094EAEB
:100860000C0F02D150EA013613D195EA0C0F05D1D5
:1008700052EA03361CBF104619460AD181EA030129
:1008800001F0004141F0FE4141F470014FF00000E1
:1008900070BD41F0FE4141F4780170BD70B54FF07C
:1008A000FF0C4CF4E06C1CEA11541DBF1CEA1355FC
:1008B00094EA0C0F95EA0C0F00F0A7F8A4EB0504DE
:1008C00081EA030E52EA03354FEA013100F08880D5
:1008D0004FEA03334FF0805545EA131343EA12639E
:1008E0004FEA022245EA111545EA10654FEA002653
:1008F0000EF000419D4208BF964244F1FD0404F50C
:10090000407402D25B084FEA3202B61A65EB030567
:100910005B084FEA32024FF480104FF4002CB6EB24
:10092000020E75EB030E22BFB61A754640EA0C00A4
:100930005B084FEA3202B6EB020E75EB030E22BFE4
:10094000B61A754640EA5C005B084FEA3202B6EB25
:10095000020E75EB030E22BFB61A754640EA9C00E4
:100960005B084FEA3202B6EB020E75EB030E22BFB4
:10097000B61A754640EADC0055EA060E18D04FEA72
:10098000051545EA16754FEA06164FEAC30343EA12
:1009900052734FEAC2025FEA1C1CC0D111F4801FDF
:1009A0000BD141EA00014FF000004FF0004CB6E7D8
:1009B00011F4801F04BF01430020B4F1FD0C88BF77
:1009C000BCF5E06F3FF6AFAEB5EB030C04BFB6EB82
:1009D000020C5FEA500C50F1000041EB045170BD75
:1009E0000EF0004E4EEA113114EB5C04C2BFD4EBA2
:1009F0000C0541EA045170BD41F480114FF0000E26
:100A0000013C90E645EA060E8DE60CEA135594EAA1
:100A10000C0F08BF95EA0C0F3FF43BAF94EA0C0FA4
:100A20000AD150EA01347FF434AF95EA0C0F7FF419
:100A300025AF104619462CE795EA0C0F06D152EA6D
:100A400003353FF4FDAE1046194622E750EA410651
:100A500018BF52EA43067FF4C5AE50EA41047FF462
:100A60000DAF52EA43057FF4EBAE12E74FF0FF3CC7
:100A700006E000BF4FF0010C02E000BF4FF0010C98
:100A80004DF804CD4FEA410C7FEA6C5C4FEA430C11
:100A900018BF7FEA6C5C1BD001B050EA410C0CBF60
:100AA00052EA430C91EA030F02BF90EA020F0020C2
:100AB000704710F1000F91EA030F58BF994208BF29
:100AC00090422CBFD8176FEAE37040F001007047E6
:100AD0004FEA410C7FEA6C5C02D150EA013C07D13D
:100AE0004FEA430C7FEA6C5CD6D152EA033CD3D088
:100AF0005DF8040B704700BF8446104662468C4682
:100B00001946634600E000BF01B5FFF7B7FF0028B4
:100B100048BF10F1000F01BD4DF808EDFFF7F4FFDD
:100B20000CBF012000205DF808FB00BF4DF808ED68
:100B3000FFF7EAFF34BF012000205DF808FB00BF8B
:100B40004DF808EDFFF7E0FF94BF012000205DF8AD
:100B500008FB00BF4DF808EDFFF7CEFF94BF012062
:100B600000205DF808FB00BF4DF808EDFFF7C4FF5B
:100B700034BF012000205DF808FB00BF4FEA410CA4
:100B80007FEA6C5C02D150EA013C0AD14FEA430C87
:100B90007FEA6C5C02D152EA033C02D14FF00000C4
:100BA00070474FF0010070474FEA410212F5001202
:100BB00015D211D56FF47873B3EB625212D94FEAA4
:100BC000C12343F0004343EA505311F0004F23FA8E
:100BD00002F018BF404270474FF00000704750EAE3
:100BE000013005D111F0004008BF6FF000407047A0
:100BF0004FF00000704700BF4A0011D212F50012FA
:100C000011D20DD56FF47873B3EB62520ED44FEA64
:100C1000C12343F0004343EA505323FA02F07047E4
:100C20004FF00000704750EA013002D14FF0FF3022
:100C300070474FF0000070474FEA4102B2F1E043C5
:100C400024BFB3F5001CDCF1FE5C0DD901F0004CB3
:100C50004FEAC0024CEA5070B2F1004F40EB830003
:100C600008BF20F00100704711F0804F21D113F12F
:100C70003872BCBF01F00040704741F480114FEA68
:100C80005252C2F11802C2F1200C10FA0CF320FAF1
:100C900002F018BF40F001004FEAC1234FEAD3230E
:100CA00003FA0CFC40EA0C0023FA02F34FEA430378
:100CB000CCE77FEA625307D150EA01331EBF4FF001
:100CC000FE4040F44000704701F0004040F0FE401C
:100CD00040F40000704700BF80F0004002E000BF19
:100CE00081F0004142001FBF5FEA410392EA030F17
:100CF0007FEA226C7FEA236C6AD04FEA1262D2EB61
:100D00001363C1BFD218414048404140B8BF5B4265
:100D1000192B88BF704710F0004F40F4000020F0FE
:100D20007F4018BF404211F0004F41F4000121F014
:100D30007F4118BF494292EA030F3FD0A2F101025E
:100D400041FA03FC10EB0C00C3F1200301FA03F19C
:100D500000F0004302D5494260EB4000B0F5000FBF
:100D600013D3B0F1807F06D340084FEA310102F17E
:100D70000102FE2A51D2B1F1004F40EBC25008BF30
:100D800020F0010040EA03007047490040EB0000FA
:100D9000013A28BFB0F5000FEDD2B0FA80FCACF1FB
:100DA000080CB2EB0C0200FA0CF0AABF00EBC25028
:100DB00052421843BCBFD0401843704792F0000F16
:100DC00081F4000106BF80F400000132013BB5E769
:100DD0004FEA41037FEA226C18BF7FEA236C21D0DF
:100DE00092EA030F04D092F0000F08BF0846704744
:100DF00090EA010F1CBF0020704712F07F4F04D112
:100E0000400028BF40F00040704712F100723CBF24
:100E100000F50000704700F0004343F0FE4040F44E
:100E2000000070477FEA226216BF08467FEA23630C
:100E30000146420206BF5FEA412390EA010F40F4F7
:100E4000800070474FF0000304E000BF10F0004343
:100E500048BF40425FEA000C08BF704743F096432A
:100E600001464FF000001CE050EA010208BF704745
:100E70004FF000030AE000BF50EA010208BF7047CC
:100E800011F0004302D5404261EB41015FEA010CE1
:100E900002BF84460146002043F0B64308BFA3F1D9
:100EA0008053A3F50003BCFA8CF2083AA3EBC253BB
:100EB00010DB01FA02FC634400FA02FCC2F12002DA
:100EC000BCF1004F20FA02F243EB020008BF20F011
:100ED0000100704702F1200201FA02FCC2F1200277
:100EE00050EA4C0021FA02F243EB020008BF20EA6C
:100EF000DC70704753B94AB9002908BF00281CBFED
:100F00004FF0FF314FF0FF3000F0A4B9ADF1080C05
:100F10006DE904CE00F03CF8DDF804E0DDE90223E1
:100F200004B0704738B50022002304460D46FFF791
:100F3000FDFD28B920462946BDE8384000F00AB832
:100F4000204605F1004100F005F8404261EB410107
:100F500038BD00BFD0B50C4B002206460F46FFF748
:100F600073FBFFF749FE0446FFF7F4FA074B002234
:100F7000FFF76AFB02460B4630463946FFF7ACF9ED
:100F8000FFF73AFE2146D0BD0000F03D0000F041E1
:100F90002DE9F047089D04468C46002B40F08380E5
:100FA0008A42174647D9B2FA82F242B1C2F1200012
:100FB00024FA00F09140974040EA010C94404FEA37
:100FC0001748230CBCFBF8F61FFA87FE08FB16C176
:100FD00043EA014306FB0EF1994209D9FB1806F1D9
:100FE000FF3080F01981994240F21681023E3B4465
:100FF0005B1AA4B2B3FBF8F008FB103344EA0344D5
:1010000000FB0EFEA64509D93C1900F1FF3380F024
:101010000581A64540F2028102383C4440EA064080
:10102000A4EB0E0400261DB1D4400023C5E9004303
:101030003146BDE8F08702B9FFDEB2FA82F2002A3B
:1010400050D1CB1B4FEA174E1FFA87F80126B3FB8E
:10105000FEFC210C0EFB1C3341EA034108FB0CF3A0
:101060008B4207D979180CF1FF3002D28B4200F283
:10107000E9808446C91AA3B2B1FBFEF00EFB101141
:1010800043EA014408FB00F8A04507D93C1900F1E8
:10109000FF3302D2A04500F2D9801846A4EB080421
:1010A00040EA0C40BFE78B4209D9002D00F0B18027
:1010B0000026C5E9000130463146BDE8F087B3FAA5
:1010C00083F6002E4AD18B4202D3824200F2B880CE
:1010D000841A61EB030101208C46002DA8D0C5E9DC
:1010E000004CA5E7C2F1200320FA03F6974001FA6D
:1010F00002F04FEA174ED9403043030CB1FBFEF625
:101100001FFA87F80EFB161143EA014306FB08F1AC
:10111000994204FA02F409D9FB1806F1FF3C80F069
:101120008D80994240F28A80023E3B445B1A81B234
:10113000B3FBFEF00EFB103341EA034100FB08F362
:101140008B4207D9791800F1FF3C73D28B4271D9D9
:1011500002383944CB1A40EA064678E7C6F1200C3B
:1011600003FA06F422FA0CF31C4320FA0CF701FAF6
:1011700006F34FEA144E21FA0CF11F433B0CB1FB6E
:10118000FEF91FFA84F80EFB191143EA014109FB2D
:1011900008FA8A4502FA06F200FA06F308D961183D
:1011A00009F1FF3048D28A4546D9A9F10209214404
:1011B000A1EB0A01BFB2B1FBFEF00EFB101147EA32
:1011C000014700FB08F8B84507D9E71900F1FF31DE
:1011D0002ED2B8452CD90238274440EA0940A7EB63
:1011E0000807A0FB02894F45C64649461AD317D0C7
:1011F0005DB1B3EB0E0267EB010707FA0CFCF2409E
:101200004CEA0202F740C5E9002700263146BDE856
:10121000F0872E4628460BE70646E9E61846FDE627
:101220004345E5D2B8EB020E69EB04010138DFE774
:101230000846D2E760468DE78146B9E7664675E71E
:1012400030464AE7ACF1020C394413E702383C441B
:1012500024E700BF704700BF30B595B034220021AD
:1012600007A807F0ECFE002402940394049405946C
:1012700006940094194B1A6C42F080521A641B6C4D
:1012800003F080530093009B0194154B1A6842F4BD
:1012900040421A601B6803F440430193019B0225FE
:1012A000079501230A9310230B930D950E940F932A
:1012B000C023109311951295139507A806F0C2FE4E
:1012C0000F230293039504944FF4805305930694DF
:1012D000032102A806F0E2FD15B030BD003802403F
:1012E00000700040F0B585B007F03AFCFFF7B4FF9E
:1012F00000F028F900F05EFA00F006FE00F090FD24
:1013000000F09CFA00F07EF900F0C6FB00F0F6FB5E
:1013100000F028FC00F02CFB03F0E2FD00F0E0FE02
:1013200001F0B4F900F022FF01F004FBC0E003F08B
:101330009BFB002003F04CFE002003F0E7FD00249F
:10134000B4E0714B01221A7004F0F2FCF1E76E4B2D
:1013500001221A706D4B00221A7004F019FB04F080
:101360001DFB03F0C7FA9FED6A0A04F01DFB4FF462
:101370007A6007F021FCDCE7634B01221A70654BB1
:1013800000221A7004F004FB04F008FB03F0B2FA28
:101390009FED610A04F012FB44F6206007F00CFC9C
:1013A000C7E74FF4FA7007F007FC03F0A3FA6420D4
:1013B00003F00EFE6FF0630003F0A8FD4FF4FA6037
:1013C00007F0FAFBB5E73C2003F002FE3C2003F0F7
:1013D0009DFDC82007F0F0FB03F08CFA3C240AE0E6
:1013E000204603F0F5FD204603F090FD0A2007F0AB
:1013F000E3FB0A3424B2C82CF2DD4FF4FA7007F094
:10140000DBFBC8240AE0204603F0E2FD204603F09F
:101410007DFD0A2007F0D0FB0A3C24B23B2CF2DC15
:101420004FF4FA7007F0C8FB83E7374B01221A70BC
:101430003A4B00221A7042F2107007F0BDFB78E7B9
:10144000314B01221A7003F0E7FB72E7344D354C43
:10145000354F364E2B4622463978307801F026FC3F
:101460000023334A13700293324B1B780193324BA3
:1014700000933B7832782946204602F05FFF58E718
:101480002E4D01224FF46451284607F085F84FF4A1
:101490002F7007F091FB00224FF46451284607F0AB
:1014A0007BF84FF4967007F087FB0134022CE7DDE0
:1014B00003F0B2FB03F0DCF903F06CF80F283FF601
:1014C00038AF01A353F820F02F130008431300088E
:1014D0004F13000879130008A3130008C71300086E
:1014E0002B140008411400083313000833130008BC
:1014F00033130008331300083313000833130008B4
:10150000331300084D1400087CB20120C0B2012042
:101510006666E63ED4B20120DA0FC9407DB20120F2
:1015200010B7012010B30120160000201700002082
:1015300024020020000000200400002000000240DF
:10154000704700002DE9F04389B00024039404940F
:101550000594069407940194274B1A6B42F00102FC
:101560001A631A6B02F001020192019A02941A6B3B
:1015700042F002021A631B6B03F002030293029B08
:101580001E4D224643F6F011284607F005F8DFF815
:10159000708022464FF48051404606F0FDFFF02354
:1015A00003930127049705940326069603A928466A
:1015B00006F012FF4FF00209CDF80C900494059448
:1015C00003A9404606F008FF4FF4805303930497A5
:1015D0000594069603A9404606F0FEFE4FF46453B8
:1015E00003930497CDF81490069603A9284606F0B5
:1015F000F3FE09B0BDE8F08300380240000002406D
:101600000004024000B585B00023009301930293CB
:1016100003933048304A02604FF480324260836066
:1016200001220261037680F820304FF04051C16200
:101630004FF000718162C3600521C16180F83020E4
:10164000436104F071FD002831D108230093012388
:1016500001930323029369461E4804F07DFE48BBB4
:10166000002300930223019369461A4804F074FE94
:1016700018BB01230093032301936946154804F026
:101680006BFEE8B9022300930423019369461148D5
:1016900004F062FEB8B90323009305230193694661
:1016A0000C4804F059FE88B905B05DF804FBFFF75B
:1016B00047FFCAE7FFF744FFD2E7FFF741FFD8E74C
:1016C000FFF73EFFDEE7FFF73BFFE4E7FFF738FFFA
:1016D000EAE700BF10BB01200020014070B588B0D0
:1016E000002303930493059306930793026803F181
:1016F000804303F590339A4201D008B070BD044690
:101700000025009503F58C335A6C42F480725A64BC
:101710005A6C02F480720092009A01951A6B42F0A2
:1017200001021A631A6B02F001020192019A0295FA
:101730001A6B42F002021A631B6B03F0020302935E
:10174000029B0F23039303260496059503A91548CE
:1017500006F042FE012303930496059503A912485F
:1017600006F03AFE1148124B036045608560C56083
:101770004FF4806303614FF4006343614FF40053FF
:1017800083614FF48073C3614FF440330362456259
:1017900006F088FF18B9054BA3639C63ADE7FFF71C
:1017A000CFFEF8E7000002400004024058BB0120D1
:1017B0001064024010B582B0002400941E4B1A6BD6
:1017C00042F400121A631A6B02F400120092009A9B
:1017D00001941A6B42F480021A631B6B03F48003BA
:1017E0000193019B224621460E2007F03BF90E2073
:1017F00007F06CF9224621460F2007F033F90F203D
:1018000007F064F922462146382007F02BF93820EA
:1018100007F05CF922460121392007F023F939202D
:1018200007F054F9224601213A2007F01BF93A202B
:1018300007F04CF902B010BD0038024008B50F485F
:101840000F4B03604FF48273436000238360C360D7
:1018500002220261012242614FF400728261202261
:10186000C2610362436283620A23C36204F00AFF17
:1018700000B908BDFFF764FEFBE700BFB8BB01205D
:101880000038004030B589B00023039304930593DA
:10189000069307930268304B9A4201D009B030BDDD
:1018A00004460025019503F500331A6C42F480428A
:1018B0001A641A6C02F480420192019A02951A6B22
:1018C00042F002021A631B6B03F002030293029BB5
:1018D0004FF4604303930223049305950323069377
:1018E0000523079303A91D4806F076FD1C481D4BF0
:1018F000036045608560C5604FF4806303614561A6
:101900008561C5614FF400330362456206F0CAFE8B
:10191000D8B9134BE3649C631348144B0360002352
:10192000436040228260C3604FF480620261436181
:101930008361C3614FF400320262436206F0B2FE7B
:1019400030B9094BA3649C63A8E7FFF7F9FDE0E712
:10195000FFF7F6FDF5E700BF003800400004024045
:1019600010BC01205860024070BC01207060024031
:1019700010B596B0002412941394149415941094F6
:10198000119409940A940B940C940D940E940F9452
:101990002022214601A807F052FB3D483D4B036041
:1019A000446084604FF6FF13C36004614461846146
:1019B00005F064FC002850D14FF48053129312A913
:1019C000334805F0D8FD00284AD1314805F08AFC9B
:1019D000002848D12E4805F06BFC002846D1002392
:1019E0001093119310A92A4805F0DAFE002840D17F
:1019F0006023099301230A9300220B920C920D920B
:101A00000E920F9209A9224805F03BFD002833D120
:101A100041F658330A93042209A91D4805F031FD07
:101A200068BB302309934FF4B4530A93082209A9E1
:101A3000174805F0F7FC28BB00230193029303939A
:101A4000049305934FF400520692089301A910489D
:101A500005F0C9FEC8B916B010BDFFF771FDABE7C0
:101A6000FFF76EFDB1E7FFF76BFDB3E7FFF768FD2A
:101A7000B5E7FFF765FDBBE7FFF762FDC8E7FFF7D6
:101A80005FFDCEE7FFF75CFDD6E7FFF759FDE2E724
:101A900074BE01200000014000B58DB00023019309
:101AA000029315484FF080420260436083604FF616
:101AB000FF72C260036183610322039204930122D7
:101AC000059206930793089309920A930B9303A92F
:101AD00005F022FC50B900230193029301A90648A6
:101AE00005F05EFE28B90DB05DF804FBFFF728FD98
:101AF000F1E7FFF725FDF6E7C4BE012000B58DB084
:101B00000023019302931548154A026043608360E5
:101B10004FF6FF72C2600361836103220392049354
:101B20000122059206930793089309920A930B9357
:101B300003A905F0F1FB50B900230193029301A919
:101B4000064805F02DFE28B90DB05DF804FBFFF73F
:101B5000F7FCF1E7FFF7F4FCF6E700BFD8BD012082
:101B60000004004000B583B00023009301930F48A8
:101B70000F4A026003224260836045F6BF52C26092
:101B8000836105F07BFB50B9002300930193694604
:101B9000064805F005FE28B903B05DF804FBFFF721
:101BA000CFFCF1E7FFF7CCFCF6E700BF34BE012025
:101BB0000010004010B584B00368404A934207D03B
:101BC0003F4A934258D03F4A934262D004B010BD7E
:101BD00004460023019302F59C32516C41F001014F
:101BE0005164526C02F001020192019A3648374A60
:101BF00002604FF04062426040228260C3604FF456
:101C0000806202614FF4006242614FF400528261CF
:101C10004FF48072C2614FF400320262436206F0F8
:101C200041FD18BB284B63629C632948294B036024
:101C30004FF040634360402383600023C3604FF450
:101C4000806202614FF4006242614FF4005282618F
:101C50004FF48072C2614FF400320262436206F0B8
:101C600021FD30B91A4BA3629C63AFE7FFF768FC14
:101C7000D8E7FFF765FCF5E700230293164B1A6CD3
:101C800042F004021A641B6C03F004030293029BEB
:101C90009CE700220392104B196C41F0100119646B
:101CA0001B6C03F010030393039B0221362006F004
:101CB000D9FE362006F00AFF88E700BF0000014089
:101CC0000008004000100040D0BC01202864024001
:101CD00078BD0120406402400038024070B58AB0EF
:101CE0000023059306930793089309930368B3F1C0
:101CF000804F04D02F4A93423AD00AB070BD0024DE
:101D0000009403F50E331A6C42F001021A641A6C47
:101D100002F001020092009A01941A6B42F0010253
:101D20001A631A6B02F001020192019A02941A6B73
:101D300042F002021A631B6B03F002030293029B40
:101D40004FF4004305930226069607940894012554
:101D5000099505A9184806F03FFB08230593069648
:101D600007940894099505A9144806F035FBC4E7C3
:101D700000220392124B196C41F002011964196C94
:101D800001F00201039103990492196B41F00201E1
:101D900019631B6B03F002030493049B3023059328
:101DA0000223069307920892099305A9034806F0B7
:101DB00013FBA2E7000400400000024000040240C0
:101DC0000038024000B587B00023019302930393CB
:101DD000049305930268104B9A4202D007B05DF855
:101DE00004FB0021009103F50C331A6B42F0020250
:101DF0001A631B6B03F002030093009B4FF4707394
:101E0000019302230293039103220492059301A9F3
:101E1000024806F0E1FAE1E7000800400004024051
:101E200000B58FB000230A930B930C930D93089386
:101E300009930193029303930493059306930793E5
:101E40002F48304A02604360836040F2BF32C26074
:101E50000361836105F012FA002839D14FF48053F1
:101E60000A930AA9264805F086FB002833D12448A6
:101E700005F038FA002831D100230893099308A906
:101E80001F4805F08DFC60BB702301930022029275
:101E90000392059201A91A4805F0F3FA20BB042227
:101EA0000DEB0201164805F0ECFA00BB082201A96F
:101EB000134805F0E6FAE8B90C2201A9104805F02C
:101EC000E0FAD0B90E48FFF77DFF0FB05DF804FBD4
:101ED000FFF736FBC2E7FFF733FBC8E7FFF730FB3E
:101EE000CAE7FFF72DFBCFE7FFF72AFBD7E7FFF79E
:101EF00027FBDBE7FFF724FBDEE7FFF721FBE1E74A
:101F000030BD01200008004008B50A480A4B0360B4
:101F10004FF46133436000238360C36003610C228C
:101F200042618361C36105F057FE00B908BDFFF748
:101F300007FBFBE704BF01200010014000B589B09A
:101F4000002303930493059306930793026803F118
:101F5000804303F588339A4202D009B05DF804FB50
:101F60000021019103F594335A6C42F010025A6437
:101F70005A6C02F010020192019A02911A6B42F01F
:101F800001021A631B6B03F001030293029B4FF4DF
:101F9000C063039302230493012305930323069351
:101FA0000723079303A9024806F016FAD5E700BFF6
:101FB000000002407047FEE7FEE7FEE7FEE77047DD
:101FC0007047704708B506F0E5FD08BD08B5024842
:101FD00006F01CFC08BD00BF10BC012008B502487B
:101FE00006F014FC08BD00BF70BC012008B5054810
:101FF00005F023F800F0A6FC00F006FC00F0C6FC9B
:1020000008BD00BF34BE012008B5024806F0FEFB43
:1020100008BD00BF58BB012008B5024806F0F6FB1A
:1020200008BD00BFD0BC012008B5024806F0EEFB99
:1020300008BD00BF78BD012082B0002100910B4B8C
:102040005A6C42F480425A645A6C02F48042009204
:10205000009A01911A6C42F080521A641B6C03F0D2
:1020600080530193019B02B0704700BF00380240CB
:102070000F49D1F8883043F47003C1F888300D4B14
:102080001A6842F001021A60002098601A6822F073
:10209000847222F480321A60074A5A601A6822F465
:1020A00080221A60D8604FF000638B60704700BFD9
:1020B00000ED00E0003802401030002408B500F0C8
:1020C00063FD07EE900AF8EE677AB1EE080A67EE54
:1020D000807A9FED020A27EE800A08BD0000803951
:1020E00010B5084C23680021986807F073FF236837
:1020F0000021586807F06EFF23680021D86807F0B8
:1021000069FF10BD2C00002000B583B08DF80700DA
:1021100001231A460DF10701024805F08CFD03B0BA
:102120005DF804FB04BF012000B583B0022038B184
:102130000A2301220DF10701044805F0ECFDF6E742
:102140009DF8070003B05DF804FB00BF04BF012049
:10215000024B47F6FE725A62704700BF000400400F
:102160004FF0804347F6FE725A62704708B53C2133
:102170000A4805F0F3FA3C21094805F0EFFAFFF7A9
:10218000E7FFFFF7EDFF4FF080435A6A054B1A80D7
:10219000054B5A6A054B1A8008BD00BFC4BE01201A
:1021A000D8BD0120820200200004004080020020EF
:1021B000084B5B6AA3F5FF437E3B07EE903AF8EECF
:1021C000E77A9FED050A67EE807A9FED040A87EEB5
:1021D000800A704700040040DA0FC94000C07F4405
:1021E0004FF080435B6AC3F5FF437E3307EE903ABE
:1021F000F8EEE77A9FED040A67EE807A9FED030A16
:1022000087EE800A704700BFDA0FC94000C07F44E4
:102210004FF08043596A89B2544A526A92B21B699C
:1022200013F0010F63D1524B1B88CB1A06EE903A84
:102230004E4B1B6913F0010F6ED14E4B1B88D31A06
:1022400007EE103AF8EEE66ADFED4B7A66EEA76A23
:102250009FED4A6AC6EE867AB8EEC77ADFED486A25
:1022600027EE267AC7EE066A9FED467A27EE876A42
:10227000454B83ED006A26EE877A444B83ED007A66
:102280009FED437A67EE877A424BC3ED007A26EEE4
:10229000877A414B83ED007A404BD3ED006AF4EE30
:1022A000E67AF1EE10FA4BDDC3ED007A3C4BD3ED4C
:1022B000006AB4EEE67AF1EE10FA4CDD83ED007AB6
:1022C00077EE876AB6EE006A66EE866A354BC3ED36
:1022D000006A77EEC77ADFED346A87EEA67A334B71
:1022E00083ED007A224B1980224B1A807047204BD5
:1022F0001B8899420BD35B1A9BB25B4206EE903A65
:102300004FF08040036923F00103036190E7CB1A8B
:102310009BB206EE903AF3E7164B1B889A420AD31B
:102320009B1A9BB25B4207EE103A1048036923F0F8
:102330000103036186E7D31A9BB207EE103AF4E774
:102340001B4BD3ED006AF4EEE67AF1EE10FAADD550
:10235000C3ED007AAAE7174BD3ED006AB4EEE67A34
:10236000F1EE10FAACD583ED007AA9E70004004045
:1023700082020020800200207B59C4C500C07F4437
:102380007B59C445398E83407C02002078020020AE
:102390002F50D23BA002002090020020A402002077
:1023A000940200209C020020F7AD163DAC020020F4
:1023B000A80200209802002038B52DED028B3A4B80
:1023C0001A883A4BA3FB0213DB0803EB8303A2EB4F
:1023D00043039BB2364C04EBC304364B1B682360AB
:1023E00000F0D4F984ED010ADFED337AB0EE677ABC
:1023F0000023092B0DD82E4A02EBC302D2ED006A4E
:1024000037EE267AD2ED016A77EEA67A01339BB2D7
:10241000EFE7F2EE046AC7EE268A87EEA68AB5EEEB
:10242000C08AF1EE10FA30D4F6EE007AB4EEE78A04
:10243000F1EE10FA4CBF012300230BB19FED1E8A71
:1024400018EE100AFEF7A8F815A3D3E90023FEF74B
:10245000FBF80022194BFEF7F7F804460D4618EE7C
:10246000900AFEF799F822462B46FDF737FFFEF754
:10247000E3FB134B1860134B83ED008A0A4A138861
:1024800001331380BDEC028B38BDFEEE007AB4EE52
:10249000E78AF1EE10FACCBF01230023CDE700BF9D
:1024A0007B14AE47E17A843F8C020020CDCCCCCCAB
:1024B000280200209C020020000000000000E03FF5
:1024C000880200208402002038B504460D4621F021
:1024D000004100221B4BFEF729FB90B100221A4B52
:1024E00020462946FEF736FB70B10022164B2046E7
:1024F0002946FDF7F3FE41EC100B0BF0C5F855EC47
:10250000104B2046294638BD0022104B2046294654
:10251000FEF72AFB40B10022002320462946FEF7A1
:1025200093F804460D46ECE70022074B2046294667
:10253000FDF7D2FE41EC100B0BF026F855EC104BDA
:10254000DFE700BF000030430000E03F0000E0BFD5
:102550002DE9F84305460F4616469846D1F80090F7
:1025600000244C450EDA35F81400FDF7F3FF002285
:10257000174BFEF769F8174A02EBC402C2E90001E3
:102580000134EEE7D7F8009000254D450ADA114CEA
:1025900004EBC50494ED000B0BF0FAF884ED000B8E
:1025A0000135F2E73D68C8F8005000240BE0094B04
:1025B00003EBC403D3E90001FFF786FFFEF71CFB22
:1025C00026F814000134A542F1DCBDE8F88300BF11
:1025D0000000A03FB002002030B585B08DF8071094
:1025E00000F07F008DF80F000E4C00224FF4805158
:1025F000204605F0D1FF0C4D01231A460DF10F01C5
:10260000284604F07FF801231A460DF107012846F9
:1026100004F078F801224FF48051204605F0BCFF09
:1026200005B030BD00040240B8BB012030B583B016
:1026300060F07F008DF807000F4C00224FF48051AE
:10264000204605F0A9FF0D4D01231A460DF10701A3
:10265000284604F057F801231A460DF106012846D2
:1026600004F03EFA01224FF48051204605F094FF19
:102670009DF8060003B030BD00040240B8BB012045
:1026800008B50020FFF7D2FF08BD000008B56420A0
:1026900006F092FAFFF7F4FFFFF7F2FFE02803D00D
:1026A0001E4807F0F9FBFBE7642006F085FA1021CD
:1026B0000320FFF791FF012006F07EFA012106209A
:1026C000FFF78AFF642006F077FA20217F20FFF7CA
:1026D00083FF642006F070FA07210120FFF77CFFDA
:1026E000012006F069FA0D211420FFF775FF012083
:1026F00006F062FA00217F20FFF76EFF642006F0EB
:102700005BFA00224FF48051054805F045FF0D2388
:10271000044A0549054804F097FA08BD68DD000839
:1027200000040240B82200201C000020B8BB012099
:1027300038B5104D01224FF48051284605F02CFF8A
:102740000D4CE278237943EA02230C4A1380E27AA3
:10275000237B43EA02230A4A138000224FF480516C
:10276000284605F019FF0D2322460649064804F0C5
:102770006BFA38BD00040240B8220020B2220020CB
:10278000B62200201C000020B8BB0120094BB3F981
:102790000030094AB2F900209B1A07EE903AF8EE91
:1027A000E77A9FED060A67EE807A9FED050A27EE2D
:1027B000800A7047B2220020B02200200AE81C41A3
:1027C000000080390B4BB3F900300B4AB2F90020FE
:1027D0009B1A07EE903AF8EEE77A9FED087AC7EE7B
:1027E000876A9FED077AC6EE877A9FED060A20EE8C
:1027F000670A7047B6220020B422002019048641DF
:1028000000003443DA0F494008B5FFF701FDFFF738
:10281000D3FD01F0B9FE012800D008BD01F0BAFED9
:1028200001380E28F9D801A353F820F069280008D0
:102830008B280008A9280008C7280008CD28000810
:10284000D3280008F12800081B2800081B280008CE
:102850001B2800081B2800081B2800081B2800084C
:102860001B2800081329000802F04AF803F0B4FB03
:1028700002F06EFC02F08CFC02F08AFD02F0ECFD2E
:1028800002F0AAFC02F058FEC7E702F039F802F0A5
:102890005FFC02F07DFC02F07BFD02F0DDFD02F04A
:1028A0009BFC02F049FEB8E702F02AF802F050FC67
:1028B00002F06EFC02F06CFD02F0CEFD02F08CFC2A
:1028C00002F03AFEA9E702F01BF8A6E702F018F8BA
:1028D000A3E702F015F802F03BFC02F059FC02F00D
:1028E00057FD02F0B9FD02F077FC02F025FE94E7F7
:1028F00002F006F803F070FB02F02AFC02F048FC3C
:1029000002F046FD02F0A8FD02F066FC02F014FEA3
:1029100083E701F0F5FF03F05FFB02F019FC02F022
:1029200037FC02F035FD02F097FD02F055FC02F095
:1029300003FE72E708B5024804F067FB08BD00BF5C
:1029400034BE012008B50C4B1B685A6A0B4B1A6049
:102950000B4B18685968013041F10001186059604B
:10296000FEF782FA06EE900A9FED067AC6EE877AA7
:10297000054BC3ED007A08BD34BE0120D8220020EB
:10298000D022002000007A44C82200200A4B196897
:102990004B6A0A4A12689A1A4FF47A7303FB02F3DD
:1029A000CA6AB3FBF2F3064A1360064A11688B4207
:1029B00038BF0B461360704734BE0120D822002078
:1029C000DC220020E0220020014B1888704700BF65
:1029D000DC220020014B1888704700BFE022002055
:1029E000014B93ED000A7047C82200200E4B1B7864
:1029F000012B10D0022B12D04BB15A1C0B4B83FB76
:102A0000021303EB4303D31A074A13707047084AB3
:102A100090211180F1E7064A60211180EDE7044A18
:102A200000211180E9E700BFF022002056555555DE
:102A3000F422002010B500210B4B19800B4B19809C
:102A40000B4B19700B4C23686FF001021A61204682
:102A500004F030FE0421204604F02CFE082120461C
:102A600004F008FE10BD00BFF2220020F422002076
:102A7000F022002074BE012038B5124C124A002109
:102A8000A06A05F0B1FF114D01232A461049606A82
:102A900005F06EFE01232A460E49A06A05F068FE85
:102AA00005220D490D4803F06BFB2368DA6842F4F8
:102AB000C062DA605A6C42F400425A64FFF7BAFF0F
:102AC00038BD00BF74BE0120ED290008140002408B
:102AD000F4220020F2220020E422002010BB01207A
:102AE00010B50C4C0021204604F004FE04212046C1
:102AF00004F000FE0821204604F0FCFDA06A05F069
:102B000071FE606A05F06EFE0022F021024805F0B9
:102B100043FD10BD74BE012000000240154B1A7821
:102B20000232154B83FB021303EB4303D31A012B31
:102B300011D0022B16D003B17047104B1988104AE0
:102B4000118059880F4A118099889180D988118104
:102B50001B8993817047094A51880A4B5980128911
:102B6000DA817047054A9188064BD980D2885A810C
:102B7000E2E700BFF022002056555555E422002020
:102B8000EE220020F8220020014B1888704700BF79
:102B9000EE220020044A02EB80035B8832F820001A
:102BA000181A00B2704700BFF82200200000000091
:102BB0002DE9F8432DED028B0446FFF7EBFF0546A8
:102BC000FDF7D8FC642D30DD41EC100BECB1002694
:102BD0000027B046B946032C1FD00AF017FE53EC6D
:102BE000102B40464946FDF759FE32463B46FDF75D
:102BF00073FB02460B4643EC182B00220023FDF723
:102C000095FFA0B19FED0E8B11E011A7D7E90067EA
:102C10000FF24409D9E90089DDE711A7D7E9006778
:102C20000FF23409D9E90089D7E79FED078BB0EEA1
:102C3000480AF0EE680ABDEC028BBDE8F88300BFDD
:102C400000000000000000000AD7A3703D0AB73F53
:102C500090A0F831E6AEB53F666666666666E63F0A
:102C6000CBA145B6F3FDB43FF0B58BB00D48C2899A
:102C7000838944890189C5888788468800880890A7
:102C80000796361A069605970495ED1B0395029153
:102C90000194641A0094D11A034807F0FDF80BB0B0
:102CA000F0BD00BFF822002074DD00082DE9F843D4
:102CB00004468846174699464FF4806200213846FC
:102CC00006F0BDF9611E8C4200D20021002426E0EE
:102CD00004EB4012BB5C43F00103BB5416E004EB71
:102CE0004012BB5C43F00203BB5412E04201BB5CE8
:102CF00043F00403BB540EE03B5D43F008033B5537
:102D00002846B0420ADA621C8A42E1D0451CB5422C
:102D1000E5D0002CEAD00028F2D1EDE701348C4256
:102D200006DA08F1FF36B04500D200260020E8E7B9
:102D30003B7843F002033B7097F8203043F00803E0
:102D400087F820304FF480623946484606F069F92A
:102D50003B7843F0010389F800307B7843F00403AB
:102D600089F80130BDE8F8832DE9F04F89B082463B
:102D7000934618460593179B9DF860200292012206
:102D80000A708BF800209AF800200392027000224B
:102D90000192D146DDF850A0B8E10132AA420CDA26
:102DA0000C78985C8442F8D19BF800409818407ADF
:102DB0008442F2D101200190EFE7019A002A40F00D
:102DC000A38199F800809BF8004004940D786A1E56
:102DD000560104EB4212013A1598825CB8F1070FD4
:102DE00053D8012000FA08F0C0B21040139F97F8A2
:102DF00000E070454BD099F801C0BCF1070F56D8E0
:102E0000012000FA0CF0C0B21040864551D099F86C
:102E10000270072F60D80120B840C0B2104086452C
:102E20005CD099F803600696072E66D80120B04062
:102E3000C0B20240964562D0039A02F1040EBEF180
:102E4000FF0F01D94FF0FF0E059A1278AEEB02008A
:102E5000864500D2002000F003009AF800E09AF8BE
:102E6000016004969AF8026007969AF8036070452C
:102E700058D0049CA04200F0B880079CA04200F00B
:102E80008E80B04260D000223FE10020ADE7601CA0
:102E9000FF2800D9FF203044169F384410F8010C59
:102EA000029FB842A7D2CDF80C800290A3E7002081
:102EB000AAE7681CFF2800D9FF200138049F07EB10
:102EC0004010169F384410F8010C029FB8429ED261
:102ED000CDF80CC002909AE700209FE7601E844264
:102EE00000D200203044169E304410F8010C029E9F
:102EF000B04296D20397029093E7002099E76A1EAA
:102F0000954200D20022013A049800EB4212169832
:102F1000024412F8012C029882428DD20698039046
:102F2000029289E7424500F08980624500F08C807A
:102F3000BA4200F08F800698824200F091800D70B6
:102F40008BF800400022E0E00432FF2A00F2C28049
:102F5000013A504202F0030200F0030058BF42421F
:102F6000D2B2059802700C789BF8000099F80050D6
:102F7000AA4200F0B18099F80150AA4200F0B28054
:102F800099F80250AA4200F0B38099F80350AA427F
:102F900000F0B4800C708BF800000022B5E0043221
:102FA000FF2A7DD8023A504202F0030200F00300EB
:102FB00058BF4242D2B2059802700C789BF80000CC
:102FC00099F80050AA426DD099F80150AA426FD0EA
:102FD00099F80250AA4271D099F80350AA4273D0CE
:102FE0000C708BF8000000228FE00432FF2A3DD8DD
:102FF0000132FF2A00D9FF22504202F0030200F002
:10300000030058BF4242D2B2059802700C789BF878
:10301000000099F80050AA422AD099F80150AA421B
:103020002CD099F80250AA422ED099F80350AA4207
:1030300030D00C708BF80000002266E00134FF2CC9
:1030400000D9FF24E4B270E70135FF2D00D9FF2538
:10305000EDB26DE7601E844200D20020C4B26AE780
:103060006A1E954200D20022D5B268E7FF22BFE770
:103070000130FF2800D9FF20C0B2CEE70134FF2C79
:1030800000D9FF24E4B2CCE7451EA84200D20025B7
:10309000E8B2CAE7621E944200D20022D4B2C8E766
:1030A000FF227FE70130FF2800D9FF20C0B28BE765
:1030B0000134FF2C00D9FF24E4B289E7451EA84261
:1030C00000D20025E8B287E7621E944200D20022B7
:1030D000D4B285E7FF223BE70130FF2800D9FF206B
:1030E000C0B248E70134FF2C00D9FF24E4B247E71F
:1030F000451EA84200D20025E8B246E7621E94426F
:1031000000D20022D4B245E701221AB9129A1578EA
:10311000002243E609B0BDE8F08F30B404789C4249
:103120000AD044789C420ED084789C4212D0C27857
:103130009A4216D030BC704714780134FF2C00D965
:10314000FF241470EDE70C780134FF2C00D9FF2424
:103150000C70E9E715786C1EA54200D200241470AB
:10316000E5E70A78531E9A4200D200230B70E1E78C
:103170002DE9F04FADF5805D87B004460D460DF5A5
:10318000825108680DF582510C310F68591E8B422F
:1031900000D20021531E9A4200D2002303FB01F308
:1031A000FF2B00D9FF235A1E934200D200225FFA60
:1031B00082F80DF5825310331B6883F800800023DA
:1031C000B3F5806F03DA07F803800133F8E70DF5F4
:1031D000825304331E78002209E083185B7A815CF5
:1031E000013903EB4113013B0021F9540132B24292
:1031F000F3DB43E10133A9B9B3F5806F12DAFA5C6E
:10320000B242F7D109F101005A1CDFF884C22CF850
:103210001920B0F5806F02DA13468146EBE781464C
:103220000121E8E7B9F1000F0FDD0DF580531433EC
:10323000C3F80090002399450ADD954A32F913102E
:10324000944A22F813100133F5E74FF00009ECE738
:103250000DF580531033C3F800900023994508DD25
:103260008C4A32F81320013A8B4921F8132001339C
:10327000F4E70DF60C030DF501620DF580511031E8
:10328000854801F007FFDDF80CA8002203E00DF2ED
:103290000C418B54013252450EDA0DF5016333F8BF
:1032A00012300133B3F5803F01D34FF6FF739BB269
:1032B000FF2BECD9FF23EAE70023994507DD754989
:1032C00031F81320013A21F813200133F5E70DF608
:1032D0000C030DF501620DF5805114316D48FFF7B7
:1032E00037F9DDF80C08002202E003A98B54013203
:1032F00082420EDA0DF5016333F812300133B3F573
:10330000803F01D34FF6FF739BB2FF2BEDD9FF2314
:10331000EBE7BAF1000F05DBBAF1FF0F04DD4FF068
:10332000FF0A01E04FF0000A1AF0FF0F00F0A18041
:103330005FFA8AFE00213AE0002257E00CF1010218
:10334000FF2A00D9FF2292440AF1FF3A17F80A2017
:10335000904550D1721C07F80A20012200924AE0E1
:10336000002251E009F10102FF2A00D9FF22013AAF
:103370000CEB4212013A17F802A0D04549D106F1F0
:10338000010A07F802A00122009242E0002249E06F
:10339000023BFA5C90454AD1721CFA540123009317
:1033A00045E0002318402B78984247D00131714501
:1033B00054DA94F800B003AB13F8019009F1FF332D
:1033C0004FEA431A0DF20C4212F801C00CEB431302
:1033D0000DF58252083212681A4412F8010CBBF142
:1033E000070FA9D8012202FA0BF2D2B2024095F8D7
:1033F00000B05A45A2D094F801A0BAF1070FAFD897
:10340000012202FA0AF2D2B2024095F800A0524517
:10341000A8D094F802A0BAF1070FB7D8012202FA97
:103420000AF2D2B2024095F800A05245B0D0E2783C
:10343000072AB6D801239340DBB2B3E7A9F102090A
:103440000CEB491C0CF1FF3C17F80C309845ADD142
:10345000731C07F80C3001230093A7E70136F6B27E
:10346000019B4BB9B04507D301994FF000094B467A
:10347000C1E601230193F3E7009B23B100230193ED
:103480001E460093ECE70DF5805D07B0BDE8F08FB8
:10349000102B0020103B0020102300202DE9F04FBE
:1034A000ADF24C4D08900B9114460C93DDF87074FE
:1034B000DDF874949DF87C3409939DF880340A9368
:1034C000DDF88464DDF88884DDF88CA49DF8903400
:1034D0000D939B4600230793FFE00023AEE10023FA
:1034E000CFE10023E9E1002301E200231BE20023F6
:1034F00033E200234DE2002365E2002189E200214E
:10350000BDE20021E0E2002104E3002327E30023E1
:1035100047E300226EE3002391E301335B450EDABB
:1035200039781AF803209142F7D199F800100AEB84
:103530000302527A9142F0D101220792EDE7079BF4
:103540005BBB0DF13F03049310AB039302960D9BFD
:103550000193CDF800A00A9B099A08992046FFF72D
:1035600007FE2278072A1ED801239340DBB2725D42
:103570001A421AD199F800300133FF2B00D9FF23EA
:10358000069A1344013B10AAD35C9DF83F20934256
:1035900016D28DF83F30227808E002F0B1FA0DF231
:1035A0004C4DBDE8F08F0023E1E7079A94F801C085
:1035B000BCF1070F06D8012505FA0CF5EDB202E0C3
:1035C000079AF3E7002599F8000039784B1E00EBC5
:1035D0004313334413F8013C2B4210D10131FF292E
:1035E00000D9FF21013900EB4111013910AB5B5CBF
:1035F0009DF83F108B4202D28DF83F306246A5788D
:10360000072D03D80121A940C9B200E0002199F893
:1036100000003B78013B00EB4313334413F8013CBB
:103620000B420FD1431E984200D2002306990B444F
:10363000013B10A9CB5C9DF83F108B4202D28DF864
:103640003F302A4694F803C0BCF1070F04D801208C
:1036500000FA0CF0C0B200E0002099F800103D78AC
:103660006B1E01EB4313334413F8013C03420ED1AC
:103670006B1E9D4200D20023013B01EB4311013937
:1036800010AB595C9DF83F30994200D2624604323B
:10369000FF2A00D9FF22DDF878341B78D31A9A422A
:1036A00000D200235A4203F0030302F0030258BF82
:1036B0005342DBB20C9D29786A788DF83F20A878B8
:1036C000ED788B4200F0D9829A4200F06583834204
:1036D00000F02D83AB4200F0F58200208DF8440409
:1036E0008DF840048DF845048DF841048DF84604AA
:1036F0008DF842048DF847048DF84304FFF74AFA29
:1037000005460320FFF746FA054405EBD5756B1017
:10371000C84D2B800220FFF73DFAC74B18800120CF
:10372000FFF738FAC54B1880B5F90020C44BB3F940
:1037300000309A420EDDDDF878341B7803F0030385
:10374000089A52780DF589610B4403F8042CBD4B9F
:1037500001221A70DDF878341B7803F003010B9A0C
:1037600052780DF58965294401F8082CB249B1F960
:103770000050B549B1F900108D4214DD0133FF2B23
:1037800000D9FF23594203F0030301F0030158BF9E
:103790004B42089949780DF589652B4403F8041CC0
:1037A000AA4B01211970DDF8783419784B1CFF2BD6
:1037B00000D9FF235D4203F0030305F0030558BF62
:1037C0006B420DF589652B4403F8082CA04BB3F927
:1037D0000030984214DDCB1CFF2B00D9FF23594247
:1037E00003F0030301F0030158BF4B4208994978E5
:1037F0000DF58960034403F8041C964B01211970F0
:10380000DDF878341B780333FF2B00D9FF235942AE
:1038100003F0030301F0030158BF4B420DF589612A
:103820000B4403F8082C21784A1CFF2A00D9FF22F8
:1038300007293FF652AE01238B40DBB2013A0DF56A
:1038400089610A4412F8042C03FB02F3FF2B00D910
:10385000FF233A78013A5101069199F8005005EB9F
:103860004215013DDBB2725D1343735521784A1C4A
:10387000FF2A00D9FF2207293FF631AE01238B40F2
:10388000DBB2013A0DF589610A4412F8082C03FBFA
:1038900002F3FF2B00D9FF23DBB218F805201343F6
:1038A00008F8053061784A1CFF2A00D9FF22072951
:1038B0003FF617AE01238B40DBB2013A0DF589616B
:1038C0000A4412F8042C03FB02F3FF2B00D9FF2358
:1038D000DBB2725D1343735561784A1CFF2A00D92D
:1038E000FF2207293FF6FFAD01238B40DBB2013AEF
:1038F0000DF589610A4412F8082C03FB02F3FF2B33
:1039000000D9FF23DBB218F80520134308F805306F
:10391000A1784A1CFF2A00D9FF2207293FF6E5AD0E
:1039200001238B40DBB2013A0DF589610A4412F89C
:10393000042C03FB02F3FF2B00D9FF23DBB2725DE3
:1039400013437355A1784A1CFF2A00D9FF22072987
:103950003FF6CDAD01238B40DBB2013A0DF5896115
:103960000A4412F8082C03FB02F3FF2B00D9FF23B3
:10397000DBB218F80520134308F80530E1784A1C3B
:10398000FF2A00D9FF2207293FF6B3AD01238B4060
:10399000DBB2013A0DF589610A4412F8042C03FBED
:1039A00002F3FF2B00D9FF23DBB2725D1343735583
:1039B000E1784A1CFF2A00D9FF2207293FF69BAD78
:1039C00001238B40DBB2013A0DF589610A4412F8FC
:1039D000082C03FB02F3FF2B00D9FF23DBB218F8FE
:1039E0000520134308F80530099B5A1E934200D264
:1039F000002299F80030934252DAA07822780132FE
:103A0000FF2A00D9FF2207283FF677AD0121814028
:103A1000C9B2013A0DF58960024412F8042C01FB89
:103A200002F2FF2A00D9FF220133FF2B14D9FF2312
:103A300012E000BF082300200C2300200A230020EE
:103A40001E00002044BF01202200002046BF0120AC
:103A50002000002045BF012006990B44013BF15C8A
:103A6000D2B20A43F254A07822780132FF2A00D958
:103A7000FF2207283FF643AD01218140C9B2013A38
:103A80000DF58960024412F8082C01FB02F2FF2AAE
:103A900000D9FF2218F80310D2B20A4308F8032015
:103AA0000A9B5A1E934200D200223B78934246DA88
:103AB000E07862780132FF2A00D9FF2207283FF61A
:103AC00020AD01218140C9B2013A0DF5896002445F
:103AD00012F8042C01FB02F1FF2900D9FF21013368
:103AE000FF2B00D9FF2399F80000013B5A0100EB9E
:103AF0004313013BF05CC9B20143F154E0786378B1
:103B00000133FF2B00D9FF2307283FF6FCAC01212E
:103B10008140C9B2013B0DF58960034413F8083CAC
:103B200001FB03F3FF2B00D9FF2399F800100A448F
:103B3000013A18F80210DBB20B4308F8023099F88A
:103B40000010012947D92078A2780132FF2A00D934
:103B5000FF2207283FF6D9AC01238340DBB2013AAC
:103B60000DF58960024412F8042C03FB02F3FF2BCD
:103B700000D9FF234A1E914200D2002206990A442E
:103B8000013AB15CDBB20B43B3542178A278013225
:103B9000FF2A00D9FF2207293FF6B9AC01238B4049
:103BA000DBB2013A0DF589610A4412F8082C03FBD7
:103BB00002F3FF2B00D9FF2399F800104A1E91420F
:103BC00000D2002206990A44013A18F80210DBB22A
:103BD0000B4308F80230397801294CD96078E37832
:103BE0000133FF2B00D9FF2307283FF692AC0122B7
:103BF0008240D2B2013B0DF58960034413F8043CC6
:103C000002FB03F2FF2A00D9FF22481E814200D2A4
:103C1000002099F80030013803EB4013013BF15CC0
:103C2000D2B20A43F2546178E2780132FF2A00D915
:103C3000FF2207293FF66FAC01238B40DBB2013A2C
:103C40000DF589610A4412F8082C03FB02F3FF2BDF
:103C500000D9FF233A78511E8A4200D2002199F8F8
:103C60000020013902EB4112013A18F80210DBB2D0
:103C70000B4308F80230002350E402F041F8DDF86D
:103C800078341A7823789A4200F0BA80DDF87834D4
:103C90001A7863789A4200F0BC80DDF878341A789C
:103CA000A3789A4200F0BC80DDF878341A78E37883
:103CB0009A427FF412AD3A78531E9A4200D2002302
:103CC0003B700AE502F002F9DDF878341B78043322
:103CD000FF2B00F2E480013B5A4203F0030302F0A1
:103CE000030258BF5342DBB2DDF878241370227808
:103CF000934200F0D680DDF878341A7863789A42DF
:103D000000F0D880DDF878341A78A3789A4200F071
:103D1000D880DDF878341A78E3789A427FF4DDAC05
:103D20003A78531E9A4200D200233B70D5E402F049
:103D3000F9F8DDF878341B780433FF2B00F2948017
:103D4000023B5A4203F0030302F0030258BF5342FE
:103D5000DBB2DDF8782413702278934200F086807D
:103D6000DDF878341A7863789A4200F08880DDF8BC
:103D700078341A78A3789A4200F08880DDF8783495
:103D80001A78E3789A427FF4A8AC3A78531E9A42A4
:103D900000D200233B70A0E402F06CF8DDF8783428
:103DA0001B780433FF2B44D80133FF2B00D9FF23AA
:103DB0005A4203F0030302F0030258BF5342DBB23E
:103DC000DDF8782413702278934234D0DDF878340B
:103DD0001A7863789A4237D0DDF878341A78A37865
:103DE0009A4238D0DDF878341A78E3789A427FF432
:103DF00074AC3A78531E9A4200D200233B706CE4B4
:103E000099F800300133FF2B00D9FF2389F80030E7
:103E10003CE73B780133FF2B00D9FF233B703CE7A5
:103E200099F80020531E9A4200D2002389F80030EE
:103E30003AE7FF23B8E799F800300133FF2B00D9A8
:103E4000FF2389F80030C1E73B780133FF2B00D90D
:103E5000FF233B70C0E799F80020531E9A4200D21E
:103E6000002389F80030BDE7FF2369E799F80030A7
:103E70000133FF2B00D9FF2389F8003070E73B782E
:103E80000133FF2B00D9FF233B7070E799F8002026
:103E9000531E9A4200D2002389F800306EE7FF23B8
:103EA00019E799F800300133FF2B00D9FF2389F877
:103EB000003020E73B780133FF2B00D9FF233B7014
:103EC00020E799F80020531E9A4200D2002389F877
:103ED00000301EE72DE9F04FADF5C15D83B00D4612
:103EE000164605930DF5C25310331C780DF5C253D9
:103EF00014331B780DF5C252183211680DF5C252F9
:103F00001C32D2F800900DF5C3520432D2F800B042
:103F10005A1E934200D20022631E9C4200D200230C
:103F200003FB02F3FF2B00D9FF235A1E934200D25A
:103F30000022D3B203930DF5C3520832126814461F
:103F40001A4623700023B3F5806F03DA0BF80320C1
:103F50000133F8E7007800220AE08B185B7A8C5C6A
:103F6000013C03EB4413013B00240BF803400132F6
:103F70008242F2DB002301930493CAE10133A9B921
:103F8000B3F5806F12DA1BF8032001988242F5D155
:103F9000781C5A1CC64C24F81720B0F5806F02DA42
:103FA00013460746EBE707460121E8E7002F05DD4A
:103FB0000DF5C15304331F60002308E00027F7E725
:103FC000BB4A32F91310BB4A22F8131001339F4247
:103FD000F6DC0DF5C1531F6000239F4209DDB54A91
:103FE00032F81320013A0DF5815121F813200133E5
:103FF000F3E70DF61C030DF502620DF5C1510DF549
:10400000815001F047F8DDF81C48002203E00DF272
:104010001C418B540132A2420EDA0DF5026333F8D3
:1040200012300133B3F5803F01D34FF6FF739BB2DB
:10403000FF2BECD9FF23EAE700239F4207DD9D49D0
:1040400031F81320013A21F813200133F5E70DF67A
:104050001C030DF502620DF5C15104319548FEF7C0
:1040600077FADDF81C08002202E007A98B54013220
:1040700082420EDA0DF5026333F812300133B3F5E4
:10408000803F01D34FF6FF739BB2FF2BEDD9FF2387
:10409000EBE7002102940DF5C3530433C3F800B0DD
:1040A000DDF814B057E0002219F80CE01EEA020F08
:1040B00014BF4FF001084FF0000896F800E0F045FB
:1040C00066D06A78072A00F28F804FF0010C0CFA54
:1040D00002FC5FFA8CFC5A1E19F802E01EEA0C0F73
:1040E00014BF4FF001084FF0000896F800E0F045CB
:1040F0007DD095F802C0BCF1070F00F2AC804FF004
:10410000010E0EFA0CFC5FFA8CFC19F802E01EEAB4
:104110000C0F14BF4FF001084FF0000896F800E0B4
:10412000F04500F09B80EB78072B00F2BF804FF04A
:10413000010C0CFA03F3DBB219F802C01CEA030FFE
:1041400014BF4FF0010E4FF0000E96F800C0E64588
:1041500000F0B2800131029B994280F2D1802A782E
:10416000481C80B2013807AB1F5C7B1E4FEA431A24
:104170000DF21C4C1CF8000000EB431303F1FF3C54
:10418000072A90D84FF0010E0EFA02F2D2B28BE756
:104190000DF5C354246814F80CC01CEA020F14BFB8
:1041A0004FF0010C4FF0000C9BF80120944588D192
:1041B000421CFF2A00D9FF2292440AF1FF3A0DF572
:1041C000C3520432126812F80A20039C94427FF40E
:1041D00078AF019A01320DF5C3540434246804F811
:1041E0000A20012204926CE74FF0000C73E70DF5F2
:1041F000C354246814F802E01EEA0C0F14BF4FF0F9
:10420000010E4FF0000E9BF801C0E6457FF471AF40
:1042100007F1010CBCF1FF0F01D94FF0FF0C0CF1BD
:10422000FF3C00EB4C1C0CF1FF3C0DF5C354043477
:10423000246814F80CE0039C74457FF45AAF019C89
:1042400004F1010E0DF5C3540434246804F80CE0A5
:10425000012404944DE74FF0000C56E70DF5C354CC
:10426000246814F802E01EEA0C0F14BF4FF0010E90
:104270004FF0000E9BF801C0E6457FF454AF023BBF
:104280000DF5C3540434246814F803C0039C64453A
:104290007FF449AF019C04F1010C0DF5C3540434C3
:1042A000246804F803C0012304933CE7002343E798
:1042B00010330020104300200DF5C3542468A25C85
:1042C0001A4214BF012200229BF801309A427FF467
:1042D00041AF023F00EB471001380DF5C3530433E3
:1042E0001B681B5C039A9A427FF434AF019B013335
:1042F0000DF5C3520432126813540123049329E7C5
:104300000DF5C3530433D3F800B0019B0133DBB286
:1043100001930DF5C35308331B681B78019A934230
:1043200003D300210F460B4629E6049B002B7FF4A4
:1043300021AE0DF5C15D03B0BDE8F08F2DE9F04F62
:10434000ADF2644D07460D4690469946DDF8884427
:104350009DF88C649DF890A48DF85C640023864AD7
:104360001370864A1370864A1370112B07DC0DF503
:104370008C621A44002102F8181C0133F5E7002270
:104380008DF8442401238DF8453402208DF846042D
:1043900003218DF847148DF840248DF841348DF8B1
:1043A00042048DF843148DF83C248DF83D348DF88B
:1043B00038248DF83934BAF1000F07D0BAF1010F63
:1043C00000F0AB800DF2644DBDE8F08F01F028FBEA
:1043D00001238DF834340DF1300B8DF8303000238B
:1043E0005A460DF234410DF24440FEF796FE01F0BC
:1043F00087FC9DF844240BAB8DF82C20089607947D
:1044000006950597CDF81090CDF80C800293CDF865
:1044100004B00DF2344300930DF588630DF244426D
:104420000DF587610DF23C40FFF738F84FF47A70D4
:1044300004F0C2FB3CE08DF848C48DF85104012122
:104440008DF8331089B996420FDD02F10903E05C63
:1044500014F802C00CF1FF3300EB43132B4413F8A4
:10446000013C0F2BE7D10132ECE79DF83330012BF3
:1044700023D1444B00221A70012308930DF5896360
:10448000079306950597CDF81090CDF80C800BABEF
:1044900002930CAB01930DF2344300930DF5886346
:1044A0000DF244420DF587610DF23C40FEF7F6FF38
:1044B00000228DF833201146C4E74FF47A7004F0DF
:1044C0007BFB01238DF848348DF851342D4A0021AF
:1044D000117008930DF58963079306950597CDF83C
:1044E0001090CDF80C800BAB02930CAB01930DF246
:1044F000344300930DF588630DF244420DF5876156
:104500000DF23C40FEF7CAFF01F012FC01F0C8FBBF
:10451000BEEE000A01F048FA50E70DF23C4A0DF1F8
:10452000330BCDF818B00DAE0596049503970294A1
:10453000CDF80490CDF800800DF5876352460DF25A
:1045400044410DF25C40FFF7C5FC9BF80030069338
:104550000594049603970DF588630293CDF804A0A3
:104560000DF25C4300930BAB0CAA0DF234410DF23B
:104570004440FEF7F9FB25E744BF012046BF012078
:1045800045BF0120D5B20120014B1878704700BF0C
:10459000134B0020014B1878704700BF114B0020CF
:1045A000014B1870704700BF114B002010B58E4BA7
:1045B000D3ED007AF5EE407AF1EE10FAF7D18B4C9C
:1045C000002323608A4A13608A4A13608A4A136070
:1045D000C82004F0F1FA94ED007ADFED887AB4EEA9
:1045E000E77AF1EE10FA03DD854A13780133137090
:1045F0007F4B93ED007ADFED837AB4EEE77AF1EE4C
:1046000010FA03D57E4A1378013B13707C4A137865
:1046100003F00F0313707C4A1278934211D00F2BD2
:104620000FD8DFE803F0081523313F4D5B6977852C
:1046300093A1AFBDCBD900224FF46451734803F06E
:10464000ABFF6F4B1878704B1870FFF7A9FF10BDC8
:104650006E4C00224FF4C851204603F09DFF01220A
:104660004FF40051204603F097FFEAE7674C002221
:104670004FF42451204603F08FFF01224FF4805164
:10468000204603F089FFDCE7604C00224FF4106104
:10469000204603F081FF01224FF44051204603F0F1
:1046A0007BFFCEE7594C00224FF44451204603F0E3
:1046B00073FF01224FF40061204603F06DFFC0E755
:1046C000524C00224FF48851204603F065FF01222E
:1046D0004FF42051204603F05FFFB2E74B4C00221D
:1046E0004FF40451204603F057FF01224FF4C0510C
:1046F000204603F051FFA4E7444C00224FF48071A0
:10470000204603F049FF01224FF46051204603F098
:1047100043FF96E73D4C00224FF46051204603F0E2
:104720003BFF01224FF48071204603F035FF88E7FC
:10473000364C00224FF4C051204603F02DFF0122D9
:104740004FF40451204603F027FF7AE72F4C002254
:104750004FF42051204603F01FFF01224FF48851EF
:10476000204603F019FF6CE7284C00224FF400614B
:10477000204603F011FF01224FF44451204603F07C
:104780000BFF5EE7214C00224FF44051204603F01E
:1047900003FF01224FF41061204603F0FDFE50E7B5
:1047A0001A4C00224FF48051204603F0F5FE0122FE
:1047B0004FF42451204603F0EFFE42E7134C002251
:1047C0004FF40051204603F0E7FE01224FF4C85198
:1047D000204603F0E1FE34E701224FF464510B4818
:1047E00003F0DAFE2DE700BFA0020020A4020020A3
:1047F000A80200209402002098020020CDCCCC3DDD
:10480000104B0020CDCCCCBD124B0020000002404C
:1048100008B50B4BD3ED007A9FED0A7AF4EEC77A18
:10482000F1EE10FA01DD002008BD17EE900AFBF74B
:10483000B3FE02460B46044805F02EFB0120F3E7C9
:1048400094020020CDCCCC3DBCDD000808B503208F
:10485000FEF7A0F940F2DB539842F8DD4FF4FA700E
:1048600004F0AAF9014B01221A7008BD134B002075
:1048700038B500231A4A13701A4A13701A4A137073
:10488000FEF72EF9164B1B7853B9FFF78FFEFFF793
:10489000BFFF0146124B1870144805F0FDFAF1E70E
:1048A000002415E0124D01224FF46451284603F014
:1048B00073FE4FF42F7004F07FF900224FF464511F
:1048C000284603F069FE4FF4967004F075F9013440
:1048D000012CE7DDFEF7D0F8FFF7B8FF38BD00BFC9
:1048E000144B0020134B0020104B0020D8DD000893
:1048F00000000240014B00221A807047164B002036
:1049000010B5494B1A88494CA4FB023441F2873355
:104910009A4209D8A40804EB8403D31A9BB223B1AA
:10492000414A13880133138010BD07EE902AF8EE38
:10493000677A3F4B5C2202FB0434C4ED007A3D4BA6
:104940001B6863603C4B1B68A3603C4B1B68E360C7
:104950003B4B1B6823613B4B1B6863613A4B1B68F5
:10496000A361FDF713FF84ED070A384B1B68236230
:10497000374B1B686362374B1B68A362364B1B685F
:10498000E362364B1B682363FDF71CFF84ED0D0AC1
:10499000334BB3F9003007EE903AF8EEE77AC4ED06
:1049A0000E7A304BB3F9003007EE903AF8EEE77A22
:1049B000C4ED0F7A0320FEF7EDF807EE900AF8EE4B
:1049C000E77AC4ED107A0020FEF7E4F807EE900ACB
:1049D000F8EEE77AC4ED117A0220FEF7DBF807EE75
:1049E000900AF8EEE77AC4ED127A0120FEF7D2F8C9
:1049F00007EE900AF8EEE77AC4ED137A0320FEF78B
:104A0000D7F851EC100BFCF717F920650020FEF7E2
:104A1000CFF851EC100BFCF70FF96065FDF74EFB7A
:104A200084ED160A7CE700BF164B0020CDCCCCCC21
:104A3000184B0020ECB2012088B20120CCB201203A
:104A4000F4B201209C020020880200208402002091
:104A5000F0B201208CB20120D0B20120FCB20120C2
:104A60004ABF012048BF012070B5664805F014FA1E
:104A70000026B6F57A7F80F0C380634B5C2404FB8C
:104A800006342068FBF788FD02460B465F4D28463A
:104A900005F002FA6068FBF77FFD02460B462846E8
:104AA00005F0FAF9A068FBF777FD02460B462846A9
:104AB00005F0F2F9E068FBF76FFD02460B46284669
:104AC00005F0EAF92069FBF767FD02460B46284628
:104AD00005F0E2F96069FBF75FFD02460B462846E8
:104AE00005F0DAF9A069FBF757FD02460B462846A8
:104AF00005F0D2F9E069FBF74FFD02460B46284668
:104B000005F0CAF9206AFBF747FD02460B46284626
:104B100005F0C2F9606AFBF73FFD02460B462846E6
:104B200005F0BAF9A06AFBF737FD02460B462846A6
:104B300005F0B2F9E06AFBF72FFD02460B46284666
:104B400005F0AAF9206BFBF727FD02460B46284625
:104B500005F0A2F9606BFBF71FFD02460B462846E5
:104B600005F09AF9A06BFBF717FD02460B462846A5
:104B700005F092F9E06BFBF70FFD02460B46284665
:104B800005F08AF9206CFBF707FD02460B46284624
:104B900005F082F9606CFBF7FFFC02460B462846E5
:104BA00005F07AF9A06CFBF7F7FC02460B462846A5
:104BB00005F072F9E06CFBF7EFFC02460B46284665
:104BC00005F06AF9206DFBF7E7FC02460B46284624
:104BD00005F062F9606DFBF7DFFC02460B462846E4
:104BE00005F05AF9A06DFBF7D7FC02460B460848C2
:104BF00005F052F9074805F0D5F90136B6B238E7A5
:104C000070BD00BFECDD0008184B002034DF000849
:104C100038DF00083CDF00082DE9F04F2DED028B56
:104C20002DED02AB85B0FDF793FAFDF799FA00245C
:104C30003CE00320FDF7BCFF53EC102B94A1D1E91D
:104C40000001FBF749FB029001F10043039300E1EF
:104C50000020FDF7ADFF53EC102B8FA1D1E900012F
:104C6000FBF73AFB804601F10049CDE90089DDE917
:104C700002238B4805F010F90B34A4B2002000F099
:104C800045F9002000F0A4F9864B1B68986804F0F1
:104C900099F84FF4FA7003F08FFF1B21824805F05A
:104CA000FBF822461B21814805F0F6F8FDF798FE37
:104CB00010EE100AFBF770FC02460B467C4805F02C
:104CC000EBF8FDF781FE07EE900AF8EE677AB2EE98
:104CD000048A87EE88AAFDF77DFE07EE900AF8EEBB
:104CE000677AC7EE888A1AEE100AFBF755FC06466B
:104CF0000F4618EE900AFBF74FFCCDE90001324653
:104D00003B466C4805F0C8F84FF0000A4FF0000B26
:104D1000CDE900AB52465B46674805F0BDF8FDF7AC
:104D200047FADFED66AAC0EE2A8A9FED65AA68EE13
:104D30008A8AFDF755FA80EE2A8A28EE0A8A18EE4A
:104D4000900AFBF729FC06460F4618EE100AFBF7FF
:104D500023FCCDE9000132463B465A4805F09CF859
:104D6000594B1868FBF718FC06460F46FDF72AFD5D
:104D700010EE100AFBF710FCCDE9000132463B466D
:104D8000524805F089F8FDF799F910EE100AFBF783
:104D900003FC02460B464E4805F07EF80320FDF763
:104DA000F9FE05460220FDF7F5FE06460120FDF757
:104DB000F1FE07460020FDF7EDFE00903B4632462F
:104DC0002946444805F068F8FDF74EFF0320FDF73B
:104DD000EFFE57EC106B0020FDF7EAFE8DED000BA7
:104DE00032463B463C4805F057F8FDF7CFFC10EE45
:104DF000106AFDF7E7FC10EE105A3046FBF7CCFBCB
:104E000006460F462846FBF7C7FBCDE900013246B0
:104E10003B46324805F040F80320FDF7C9FE53EC4D
:104E2000102B1BA1D1E90001FBF756FA52465B4655
:104E3000FBF77CFE00287FF4FCAE0320FDF7B8FEF4
:104E400053EC102B12A1D1E90001FBF745FACDE993
:104E500002010020FDF7ACFE53EC102B0EA1D1E9AE
:104E60000001FBF739FA00220023FBF75FFE002860
:104E70007FF4EEAE0020FDF79BFE53EC102B06A155
:104E8000D1E90001FBF728FA80468946EDE600BF2C
:104E9000000000E04F8D873F00000060BC74833F3E
:104EA000E0E000082C00002010E1000818E10008F4
:104EB00040DF000858DF000884DF0008DA0F4940AF
:104EC00000003443B0DF00089C020020DCDF000853
:104ED0001CE0000834E0000878E00008ACE00008BE
:104EE00010B5094C0021204602F0E4FB04212046C5
:104EF00002F0E0FB0821204602F0DCFB0C212046FA
:104F000002F0D8FB10BD00BF30BD012010B5044633
:104F10002B4B188080EAE073A3EBE0739BB240F266
:104F2000B632934218D81D2B27D803F07BF84309DB
:104F30002448A0FB0323DB09C3EB03135B00224AD5
:104F4000A2FB03239B09013B002C2ADD1F4A1268A8
:104F500093630023536310BD03F064F84009194BB9
:104F6000A3FB0023D80940F2B63303FB00F3164A33
:104F7000A2FB03239B09013BE6E703F053F840093A
:104F8000104BA3FB0023D809002C08DB234603FBAE
:104F900000F30D4AA2FB03239B09013BD4E76342C4
:104FA000F5E7002C05DB094B1B6800229A635A6366
:104FB000D1E7064A1268002191635363CBE700BF33
:104FC00048BF0120C55A7C0AD34D621030BD012074
:104FD00010B504462B4B188080EAE073A3EBE07316
:104FE0009BB240F2B632934218D81D2B27D803F05B
:104FF00019F843092448A0FB0323DB09C3EB03137F
:105000005B00224AA2FB03239B09013B002C2ADD03
:105010001F4A1268D3630023136410BD03F002F823
:105020004009194BA3FB0023D80940F2B63303FB18
:1050300000F3164AA2FB03239B09013BE6E702F0BB
:10504000F1FF4009104BA3FB0023D809002C08DB1B
:10505000234603FB00F30D4AA2FB03239B09013BFC
:10506000D4E76342F5E7002C05DB094B1B680022FF
:10507000DA631A64D1E7064A12680021D163136427
:10508000CBE700BF4ABF0120C55A7C0AD34D62104E
:1050900030BD012010B4B1F900401C60B1F90040EE
:1050A0000023A34207DA30F8131001F01F0122F8A1
:1050B00013100133F5E75DF8044B704770B50C46EB
:1050C00016460025B54207DAFDF72EF8214601F80D
:1050D000010B01350C46F5E7304670BD70B50C4646
:1050E00016460025B54205DA14F8010BFDF70CF859
:1050F0000135F7E7304670BD4FF0FF3070474FF491
:1051000000534B600020704701207047002070471B
:1051100008B503460B4A126842B10A4A10680344B4
:105120006A46934206D8074A136008BD054A0649F5
:105130001160F2E703F07EFD0C2303604FF0FF30B7
:10514000F3E700BF78B2012060BF0120000000003B
:1051500070B50D4B1868FBF71FFA09A3D3E90023BC
:10516000FBF772FA04460D46084E3068FBF714FA56
:1051700022462B46FBF7B2F8FBF75EFD306070BDB0
:10518000FCA9F1D24D62503F88020020CCB2012030
:1051900070B5FDF717FB10EE100AFBF7FDF90BA336
:1051A000D3E90023FBF750FA04460D46064E30685B
:1051B000FBF7F2F922462B46FBF790F8FBF73CFD94
:1051C000306070BDAFF30080D0B20120FCA9F1D2F5
:1051D0004D62503F0000000070B52DED028B604B1A
:1051E0001868FBF7D9F95CA3D3E90023FBF72CFA85
:1051F00004460D465B4E3068FBF7CEF922462B463F
:10520000FBF76CF8FBF718FD08EE100A3060564B00
:105210001868FBF7C1F950A3D3E90023FBF714FA90
:1052200004460D46514E3068FBF7B6F922462B4630
:10523000FBF754F8FBF700FD07EE900A30604C4B8B
:105240001B78002B36D0012B48D04A4B1B78002B03
:1052500058D0012B6AD0434B1868FBF79DF93EA349
:10526000D3E90023FBF7F0F904460D46424E3068BF
:10527000FBF792F922462B46FBF730F8FBF7DCFCF4
:1052800030603A4B1868FBF787F933A3D3E9002362
:10529000FBF7DAF904460D46384E3068FBF77CF927
:1052A00022462B46FBF71AF8FBF7C6FC3060BDEC34
:1052B000028B70BDB5EEC08AF1EE10FA0AD49FEDF4
:1052C000307AB4EEC78AF1EE10FABEDD254B83EDDD
:1052D000007ABAE7234B00221A60B6E7B5EEC08A1F
:1052E000F1EE10FA03DD1F4B00221A60ADE79FEDCF
:1052F000257AB4EEC78AF1EE10FAA6D5194B83EDE4
:10530000007AA2E7F5EEC07AF1EE10FA0AD49FED2A
:105310001E7AF4EEC77AF1EE10FA9CDD134B83EDA2
:10532000007A98E7114B00221A6094E7F5EEC07AF4
:10533000F1EE10FA03DD0D4B00221A608BE79FEDB2
:10534000137AF4EEC77AF1EE10FA84D5074B83EDA9
:10535000007A80E7AFF30080FCA9F1D24D62503FA4
:1053600080B20120F4B2012084B20120FCB20120FD
:10537000C0B20120D4B2012088B201208CB2012039
:105380009A99993E9A9999BEDA0FC940DA0FC9C025
:10539000294BD3ED007A294B93ED007A284B93EDFE
:1053A000006A284BD3ED006A274B1B782BB1012BE9
:1053B0000AD00023254A13607047254B1B788BB316
:1053C000012B32D1234BF5E7214B1B781BB1012B6D
:1053D00015D00023EEE767EEA77A27EE077A77EE7F
:1053E000C77AF0EE085A87EEA57A76EEC76AF4EE31
:1053F000C66AF1EE10FA1ADD4FF07F53DAE767EE76
:10540000A77A27EE077A77EEC77AF0EE085A87EE8A
:10541000A57A76EE876AF4EEC66AF1EE10FA08D540
:105420000C4BC7E74FF07F53C4E70023C2E7094B9B
:10543000C0E74FF07F53BDE7F4B20120F8B201207E
:1054400088B20120ECB201207CB2012080B20120A0
:10545000C0B201200000C0BF38B52DED028B2E4B2D
:1054600018682E4BD3ED008A2D4B93ED008A2D4BFF
:105470001B783BB1012B25D000232B4A1360BDECD8
:10548000028B38BDFBF788F804460D460022274BF7
:10549000FBF7DAF802460B4620462946FBF7D4F81C
:1054A0001BA3D3E90023FBF7F9F9FBF7C5FB07EED4
:1054B000900A38EE678AB4EEE88AF1EE10FA21DD40
:1054C0001B4BDAE7FBF768F804460D460022174B42
:1054D000FBF7BAF802460B4620462946FBF7B4F81C
:1054E0000BA3D3E90023FBF7D9F9FBF7A5FB07EEE4
:1054F000900A38EE278AB4EEE88AF1EE10FA03D566
:105500000C4BBAE70B4BB8E7094BB6E7AFF300809B
:1055100000000040FB211940FCB201208CB20120A8
:10552000F0B20120D4B2012084B201200000E03F9B
:10553000DA0FC940DA0FC9C02DE9F04F2DED088B05
:1055400085B06B4B1B78002B4FD0694B1B78012B20
:1055500000F0F280674B93ED008AFCF7AFFDC8EED8
:10556000007A9FED658A67EE887A644CC4ED007A14
:10557000634BD3ED008AFCF7A1FDC8EE807A67EE9D
:10558000887A94ED007AB5EEC07AF1EE10FA40F325
:10559000AB81DFED5C6A37EE267A84ED007AF5EEBA
:1055A000C07AF1EE10FA40F3A7819FED567A77EEBC
:1055B000877A554BC3ED007A534BD3ED007AFDEE5D
:1055C000E77A17EE903A18B2FFF7A0FC4B4BD3EDF9
:1055D000007AFDEEE77A17EE903A18B2FFF7F8FC82
:1055E00005B0BDEC088BBDE8F08F484BD3ED007AD9
:1055F000474B93ED007A77EEC77A464CC4ED007ABC
:10560000454B93ED009AFDF7DDF839EE409AD4ED65
:10561000009A19EE900AFAF7BFFF2FA3D3E90023EF
:10562000FBF712F804460D463C4E3068FAF7B4FF1B
:1056300022462B46FAF752FEFBF7FEFA08EE100A56
:10564000306019EE100AFAF7A7FF25A3D3E900236B
:10565000FAF7FAFF04460D46314E3068FAF79CFF20
:1056600022462B46FAF73AFEFBF7E6FA08EE900AD6
:1056700030602C4DD5ED007A79EE677A9FED2A7A6D
:1056800067EE877A294C94ED007A77EE877A17EEE9
:10569000900AFAF781FF14A3D3E90023FBF7FEF881
:1056A000FBF7CAFADFED227A69EEA79A38EE298A6B
:1056B000DFED207A69EE277A78EEA78A78EE287AED
:1056C00038EE688A0B4BC3ED007A0D4B83ED008AF0
:1056D00085ED009A206038E78B6CE7FBB935A43F75
:1056E000FCA9F1D23DC9823F5839B4C87652F33F84
:1056F0007DB2012004B3012000007A44C8B2012029
:1057000000B3012000002042C4B20120F4B2012005
:1057100088020020D8B20120FCB20120DCB20120B6
:10572000E4B20120E8B2012000000000E0B2012054
:10573000D1222B40AD2FB23E0020FDF739FA57ECB5
:10574000106B0320FDF734FA55EC104B84A3D3E91A
:10575000002330463946FAF7BFFD06460F4682A3BE
:10576000D3E9002320462946FAF7B6FD04460D4644
:1057700002460B4630463946FAF7B0FD8046894668
:1057800032463B4620462946FAF7A6FD78A3D3E9E0
:105790000023FBF783F806460F4677A3D3E90023DF
:1057A00040464946FAF750FF654CD4E90023FAF722
:1057B00095FD41EC1B0BC4E9000153A3D3E9002381
:1057C00030463946FAF740FF5E4CD4E90023FAF739
:1057D00085FD41EC1A0BC4E900014DA3D3E9002378
:1057E00040464946FAF730FF04460D464AA3D3E93E
:1057F000002330463946FAF727FFCDE90201DFF8EA
:1058000080B1DBE90023CDE9008940464946FAF73B
:1058100063FD43A3D3E90023FAF716FFDFF8649191
:10582000D9E90023FAF75AFD3FA3D3E90023FBF798
:1058300035F841EC190BDFF850A1DAE900233046C6
:105840003946FAF749FD3AA3D3E90023FAF7FCFEFB
:10585000DFF83881D8E90023FAF740FD36A3D3E911
:105860000023FBF71BF841EC180B22462B4651ECAA
:105870001B0BFAF733FD53EC192BFAF72FFD0446F7
:105880000D46DDE9022351EC1A0BFAF727FD53EC24
:10589000182BFAF723FDCDE9020102460B462046FC
:1058A0002946FAF71BFD0022274BFAF7CDFEFBF73E
:1058B000C3F9264B1860DDE9022320462946FAF792
:1058C0000BFD0022204BFAF7BFFEFBF7B5F9204B8A
:1058D00018609DED007B8BED007BCAE9006789EDC8
:1058E000009B88ED008B35E6DFED1A6A37EE667AAD
:1058F000194B83ED007A52E69FED167A77EEC77A60
:10590000164BC3ED007A57E660E5D0229BA5643FB5
:1059100000000000631A5F40000000E08A9E19400A
:1059200000000060A2AB5340C1CAA1852062F03FD5
:1059300000000000236C22407368916D81B6F03F37
:1059400098B20120B0B201200000E03F04B3012072
:1059500000B3012000003442C8B20120C4B20120CB
:1059600000000060BC74833F000000E04F8D873F63
:10597000000000E0BED5A23F08AC1C5AD4DF9A3F1D
:10598000A0B2012090B20120B8B20120A8B201203B
:10599000014B00221A607047CCB20120014B00225B
:1059A0001A607047D0B20120034BD3ED007A77EE36
:1059B000807AC3ED007A7047ECB20120034BD3ED3F
:1059C000007A77EE807AC3ED007A7047F0B201205A
:1059D000014B00221A607047ECB20120014B0022FB
:1059E0001A607047F0B20120014B00221A60704724
:1059F00088B20120014B00221A6070478CB201204E
:105A00000023034A1370034A1370034A137070474C
:105A100044BF012046BF012045BF01200000000017
:105A200008B50023144A1370144A13709FED140A2A
:105A3000FFF7BAFF0BE0F1EE677A17EE900AFAF77C
:105A4000ABFD0BA3D3E90023FBF770F868B90D4B4E
:105A5000D3ED007A0C4B93ED007A77EEC77AF5EE32
:105A6000C07AF1EE10FAE8D5E5E708BDAFF30080A3
:105A70002D431CEBE2362A3FC0B201207CB201204C
:105A800022727A3CECB2012088B2012000000000B2
:105A900008B50023144A1370144A13709FED140ABA
:105AA000FFF782FF0BE0F1EE677A17EE900AFAF744
:105AB00073FD0BA3D3E90023FBF738F868B90D4B4E
:105AC000D3ED007A0C4B93ED007A77EEC77AF5EEC2
:105AD000C07AF1EE10FAE8D5E5E708BDAFF3008033
